:020000022000DC
:107000000000042085E40500C5E40500C7E4050090
:10701000C9E40500CBE40500CDE405000000000054
:1070200000000000000000000000000001E4050076
:10703000D1E405000000000021E40500D5E40500CE
:10704000E1E60500D7E4050069BB05000D1C04005E
:10705000C11C0400D7E4050041BE0500D7E40500CB
:10706000D7E40500D7E40500D7E40500D7E4050020
:10707000D7E40500D7E40500D7E40500D7E4050010
:10708000D7E4050051E10500D7E40500D7E4050089
:10709000D7E40500D7E40500B1280500D7E40500D2
:1070A000D7E40500D7E40500354E0300D7E405001A
:1070B000D7E40500D7E40500000000000000000050
:1070C000D7E40500D7E40500D7E40500C9EC0500C6
:1070D000D7E40500D7E40500D7E40500E5A50400E2
:1070E000D7E40500D7E40500D7E405000000000060
:1070F00000000000D7E405000000000041ED05009D
:10710000000000000000000000000000000000007F
:10711000000000000000000000000000000000006F
:10712000000000000000000000000000000000005F
:10713000000000000000000000000000000000004F
:10714000000000000000000000000000000000003F
:10715000000000000000000000000000000000002F
:10716000000000000000000000000000000000001F
:10717000000000000000000000000000000000000F
:1071800000000000000000000000000000000000FF
:1071900000000000000000000000000000000000EF
:1071A00000000000000000000000000000000000DF
:1071B00000000000000000000000000000000000CF
:1071C00000000000000000000000000000000000BF
:1071D00000000000000000000000000000000000AF
:1071E000000000000000000000000000000000009F
:1071F000000000000000000000000000000000008F
:10720000F1EE103A43F08073E1EE103A704700BFA0
:1072100010B5054C237833B9044B13B10448AFF3D0
:1072200000800123237010BD3465002000000000A1
:107230005421070008B5034B1BB103490348AFF3C2
:10724000008008BD000000003865002054210700C0
:10725000154B002B08BF134B9D46A3F5803A002128
:107260008B460F461348144A121A3FF0F7FC0F4B97
:10727000002B00D098470E4B002B00D098470020E1
:10728000002104000D000D48002802D00C48AFF387
:1072900000803FF025FC2000290037F04BF93FF03B
:1072A000F9FB00BF000008000000042000000000FF
:1072B000000000003465002050650120000000003F
:1072C00000000000BFF34F8F0549064BCA6802F467
:1072D000E0621343CB60BFF34F8F00BFFDE700BFF9
:1072E00000ED00E00400FA053CDF70473DDF704729
:1072F00041DF704711DF7047002070470120704761
:1073000001207047704700BF704700BF704700BF43
:107310008DDF7047704700BF704700BF000000005E
:1073200038B50446C069524D3EF02EFD46A3D3E960
:1073300000233EF093FD02460B46A069C5E90023F9
:107340003EF022FD40A3D3E900233EF087FD024634
:107350000B46606AC5E902233EF016FD3CA3D3E963
:1073600000233EF07BFD02460B46E06BC5E904239B
:107370003EF00AFD38A3D3E900233EF06FFD02463C
:107380000B46B4F84C00C5E906233EF0FDFC34A3DF
:10739000D3E900233EF062FD02460B46206CC5E9AE
:1073A00008233EF0F1FC30A3D3E900233EF056FD64
:1073B00002460B46A06AC5E90A233EF0D5FC24A389
:1073C000D3E900233EF04AFDC5E90C01E37DAB6340
:1073D000237DA1882748012B8ABF637D002303F00A
:1073E000010385F83C30E27A234B02F00702A2F158
:1073F0000702B2FA82F25209A1F5FA61E98785F82B
:107400003D20A27985F84020E27985F84120227A52
:1074100085F84220627A85F84320A27A85F84420D4
:1074200021680268A3FB01439B094FF47A7404FBB3
:1074300013131249A5F846300132012302600B7084
:1074400038BD00BFAFF3008048AFBC9AF2D77A3E98
:10745000FCA9F1D24D62503F51601FEF14D95F3F3C
:107460007B14AE47E17A843FF168E388B5F8E43EE7
:10747000D8E3002024E40020D34D621020E4002053
:107480000AB3C2F308032DE9F0471546A3B9DFF8A4
:107490003C8006460F464FEA52290324D8F8680478
:1074A00003683A46D3F814A031464B46D047013C16
:1074B00030B914F0FF04F1D14FF0FF30BDE8F08790
:1074C0002846BDE8F0874FF0FF3070475065002038
:1074D0000AB3C2F308032DE9F0471546A3B9DFF854
:1074E0003C8006460F464FEA52290324D8F8680428
:1074F00003683A46D3F824A031464B46D047013CB6
:1075000030B914F0FF04F1D14FF0FF30BDE8F0873F
:107510002846BDE8F0874FF0FF30704750650020E7
:10752000704700BF037C13F0080306D0C36A406AAB
:10753000181A48BF6FF0004070471846704700BFE8
:1075400010301FF0D3BF00BF103020F033B800BFA1
:1075500000B583B00B4601220DF1070110308DF804
:10756000073020F027F803B05DF804FB00B587B0C2
:107570000346064A6846182140F066FA694682B218
:10758000034828F075FA07B05DF804FBB0B20600B6
:107590007CE3002010301FF00DBE00BF00B583B0AB
:1075A00001220DF1070110301FF032FD01280CBF40
:1075B0009DF807004FF0FF3003B05DF804FB00BFFB
:1075C0000846114640F028BA084634F0E7BC00BF30
:1075D000084634F0C9BC00BF70B58CB01F2500242C
:1075E0000146039004AB1C4800950922CDE90444F0
:1075F000CDE90744CDE9094406940B9429F0B6FC83
:10760000039978B1052804D9144A137803F0FF04CC
:10761000ABB1134B134801221A7027F077FD48B124
:107620000CB070BD0C48009504AB082229F09EFCFC
:107630000399E7E7084829F07FFC0CB070BD831F71
:1076400004A81844084D8688AE8004A8AC71C058C0
:10765000286001231370DCE7B4440120986A0020FD
:1076600088AF0020283E0120307C002010B5104B50
:10767000044621460F481C8028F006FE18B10E482B
:1076800028F04AFB28B921460C48BDE810402BF0F1
:10769000E5B80B4828F040FB0028F4D0084828F053
:1076A000C7FC0028EFD0074B01221A7010BD00BFA5
:1076B000CC600020F08E00209C6A0020183E012043
:1076C000DC6A00204B6A002008B50846114610F01D
:1076D00059F80028A4BF014B187008BDC8600020ED
:1076E00030B585B0684610210FF03EFF10B900207C
:1076F00005B030BD0D4B1B78002BF8D002460C486E
:1077000094B228F04DF90546094828F0C3F92DB187
:1077100022466946064828F0ABF9E9E70028E6D09A
:1077200022466946024828F0EDF9E1E7006A0020A8
:10773000746B0020184BDB68D90110B503D5174BCB
:107740001A68D20722D435F0FFFD154BA0FB0301C8
:10775000830A43EA815313490A6840F6B7309A1AFC
:10776000824212D9104A0B601048114C012111704D
:10777000027824780A4402F00F02944209D001787A
:107780000C4CC9B244F82130027010BD5B689B09F3
:10779000E1E7094B197010BDF0ED00E0001000E0CA
:1077A00040420F00C0040120BD0401200805012053
:1077B0000A050120C80401200905012010B50C4C60
:1077C000D4F868040368DB69984794F82430DB0731
:1077D00006D400224FF0FF3384F82420236310BD29
:1077E00004F1240022F034F80028F2D110BD00BFCB
:1077F0005065002010B5034B0360044610F06CFF89
:10780000204610BD64C006000F49097802290AD13C
:10781000F8B50E4E0E4F3578EDB21C467B5D0BB9B8
:10782000202C01D9F8BD70470A48114600EB4510DD
:1078300022463FF0EBF90848E3B24355012185EABF
:10784000010279553270F8BD1CE00020FE6900206D
:1078500038C3002044AF002084AF00202DE9F04160
:10786000054688B01E480C4628F088FA002302938B
:107870004307CDE9005420D5DFF8648003AD6F469F
:10788000294638460FF09AFF0446A6B229464046DC
:10789000324674B128F074FB8442F1D03246294656
:1078A000404628F0F7FA8442EAD0002008B0BDE84C
:1078B000F081012008B0BDE8F081094E03AD6F46AC
:1078C000294638460FF07AFF044629463046A2B2D0
:1078D000002CEED028F0DEFAA042E6D1F0E700BF9F
:1078E0009C6A0020084A13889BB2834200D07047EC
:1078F0000648074910B44FF6FF7300240470138044
:107900000B705DF8044B7047CC6000204B6A002080
:10791000C860002070B5124C124A134B226000263A
:1079200046F660706360C4F8886336F043FE0F4B20
:107930000F4D93ED000B3246214604461BF01CF917
:107940000C4B2C6093ED000A20461BF0DDFC0A4B2B
:10795000286893ED000ABDE870401BF0EBBC00BF47
:10796000D8DB0020BCB206008CFB060018610020AA
:1079700000E10020C4610020C0610020174B1B788B
:10798000022B70B5044623D0154B1648214601261C
:107990001E702AF085FF054628F02EFD2846F721A7
:1079A00028F03EFD2846022128F04AFD002211461B
:1079B000284628F03DFD0C4B1E7034F0ADFA0B4A02
:1079C0000B4B10601C802846BDE8704028F016BDA7
:1079D000084A094B108001221A7070BD1CE000207B
:1079E000D8DF0020183E01201EE0002018E0002013
:1079F00016E00020CA600020006A00201C4A13889C
:107A00004FF6FF719BB28B4203D013889BB2984212
:107A100022D0184B1B78022B1ED0174B1748184941
:107A20001A78F0B4174F184E184D194C00233B70BC
:107A30003370037017482B702370174D0B70174C61
:107A40001749037017202B702370088012B1154B53
:107A500001221A70F0BC704713889BB2984200D084
:107A60007047114900204FF6FF730870138070476C
:107A7000CA6000201CE00020D0DF0020D18E002052
:107A8000246C0020947C0020437C0020427C002059
:107A90009C8E0020D8DF00201DE000209B8C002061
:107AA000D86000200E8F0020006A00202DE9F04FE2
:107AB0004948037CABB0002B40F08A804748037CE8
:107AC000002B40F081804648037C002B78D145484C
:107AD000037C002B70D10024322034F029FA424E6E
:107AE000424A43490194234604A84FF47A75ADF8FD
:107AF00010408DF81240029500961FF021FA9DF873
:107B00001000002855D03B4D2B68132B49DC3A4F11
:107B1000DFF8E88005E011A81EF0DCFF2B68132BCE
:107B20003FDC4FF47A73002204A911A80F930E943E
:107B3000ADF844408DF846400D961FF03FFC9DF88F
:107B4000443040221AA911A85BB320F08BFB9DF8AA
:107B5000443013F0D00F1AA8DDD140F068F8034686
:107B60001AAA0638062B39461044D4D940F004F836
:107B700081460028CFD1D5F800A00AEB4A0B08EBCC
:107B80000B1B1AA92F22584640F06BF80AF101038B
:107B900011A82B608BF82F901EF09CFF2B68132BE5
:107BA000BFDD04A81EF096FF28680028D4BF00207F
:107BB00001202BB0BDE8F08F10301EF08BFF8AE75C
:107BC00010301EF087FF82E710301EF083FF7AE747
:107BD00010301EF07FFF71E7B400012028E2002082
:107BE000140501204805012080C00600C4B206002B
:107BF00050650020A4000120C8B20600E800012062
:107C000010B5054C204629F0A1F920460021BDE819
:107C1000104029F079B900BFB444012081682DE9F2
:107C2000F0470568044669B1284E2B680A685B680E
:107C3000A260B34208463DD134F0B0F9A1680029F2
:107C4000F3D12568238E04F10C0903B30027E36AFE
:107C5000DFF878A0B8460BE034F0A0F9E36AC6F884
:107C60000080218EC6F804800137BAB291420FD944
:107C7000BEB203EBC606716808460029EFD02B6838
:107C80005B685345E8D028469847E36AE7E7E36A2C
:107C900000214FF6FF7299452186A28607D02A68F7
:107CA0000A4952688A420BD1184634F077F92046C7
:107CB000BDE8F08728469847A1680029B5D1C0E7FC
:107CC0002846194690472046BDE8F087C97502004E
:107CD00081682DE9F0470568044669B1284E2B6894
:107CE0000A685B68A260B34208463DD134F056F999
:107CF000A1680029F3D12568238E04F10C0903B390
:107D00000027E36ADFF878A0B8460BE034F046F9C4
:107D1000E36AC6F80080218EC6F804800137BAB243
:107D200091420FD9BEB203EBC6067168084600291E
:107D3000EFD02B685B685345E8D028469847E36A44
:107D4000E7E7E36A00214FF6FF7299452186A28694
:107D500007D02A680A4952688A420BD1184634F083
:107D60001DF92046BDE8F08728469847A1680029FC
:107D7000B5D1C0E72846194690472046BDE8F087B0
:107D8000C975020010B50D4B1A8894B0541C684692
:107D900050211C800FF01EFC08B914B010BD084B18
:107DA0001B78002BF9D00446064827F0DBFF00289B
:107DB000F3D021466846FFF751FDEEE7BC60002096
:107DC0004B6A00209C6A0020FFF7DCBF30B5434BB4
:107DD000434C93F8442093F8420093F8411093F8F1
:107DE000435095B0049293F84020CDE90205CDE9C7
:107DF000002107A8DB8F3B4A18213FF025FE2068B1
:107E000000284DD01BF046FA374D03462068002B62
:107E100018BF1D461BF06EFA07A9236810900022B8
:107E200032480D9132490F95CDE911220E901391F0
:107E3000002B3FD018461BF059FA00283ED120688D
:107E40001BF03EFA002839D01DF0EAFF236811909C
:107E5000002B31D018461BF049FA00282CD120689D
:107E60001BF02EFA40B31EF029F80446214A224B9B
:107E7000126800924FF480610DAA204812940EF00F
:107E8000BBFC00211E481FF0CBF91C491C484FF4D5
:107E900080621FF08FFB1A481FF028FB15B030BD21
:107EA0001248114A174B1249139107ACCDE90D4006
:107EB000CDE90F23002311930024D7E72068002881
:107EC000F8D01BF013FA28B120681BF00BFA18B198
:107ED0001EF0F8FC2368BAE72368B8E7D8E300206F
:107EE00000E10020E0B20600D0B206009C61002054
:107EF0007C610020E8F3002048E4002098C70020BF
:107F00001CE100208CFB060010B5134C2068B8B1B2
:107F10001BF0ECF9A8B120681BF0E4F91EF0D0FCCE
:107F20000E4A1368B3F57A7F0ADA48B10C490C6837
:107F3000844205D00B4C086044F8230001331360E1
:107F400010BD20681BF0BCF90028F9D020681BF098
:107F5000B7F91DF063FFE3E700E10020E8F300203C
:107F6000F8F3002048E400202DE9F047054680683A
:107F70002F6860B1284C3B6802685B68AA60A34226
:107F80002AD134F00BF8A8680028F4D12F682B8E82
:107F900005F10C093BB30026EB6ADFF87C80B246A2
:107FA0000BE033F0FBFFEB6AC4F800A0298EC4F8A5
:107FB00004A00136B2B2914216D9B4B203EBC404A4
:107FC000616808460029EFD03B685B684345E8D00C
:107FD00038469847EB6AE7E7014638469847A8686D
:107FE0000028C8D1D2E7EB6A00214FF6FF7299450D
:107FF0002986AA8607D03A68074952688A4205D17D
:10800000184633F0CBFF2846BDE8F08738461946BE
:1080100090472846BDE8F087C97502002DE9F04772
:10802000038E8146054659F80CABFBB10026C36AA6
:10803000DFF8A080374609E033F0B0FFEB6A276035
:10804000298E67600136B2B2914210D9B4B203EB07
:10805000C404616808460029F1D0DAF800305B6892
:108060004345E9D050469847EB6AE8E7C36A0021E8
:108070004FF6FF7299452986AA860CD0DAF80020BF
:10808000144C5268A24221D1184633F087FF0423D2
:10809000C5F82C906B86A8682E6800232B7158B108
:1080A0000C4C336802685B68AA60A34206D133F0C7
:1080B00075FFA8680028F4D1BDE8F0870146304676
:1080C0009847A8680028ECD1BDE8F08719465046CB
:1080D0009047DCE7C97502002DE9F0418B8E4FF621
:1080E000FF72934282B00C46054616D0CA6AD9097F
:1080F00002EBC10203F07F01526832F83100A08622
:1081000002EBC10200204FF6FF71107128462A6071
:10811000AB80D18002B0BDE8F081098E27680029CC
:1081200032D1638E002B00F085800123E66A5A4A23
:1081300023864FF480604FF080083B681B689342B1
:1081400074D133F011FF238EE76A7060013B9BB25C
:1081500007EBC30100284A6808BF4FF00008002061
:10816000A6F80080708022B137F8336048888642D4
:108170002ED8012100224FF6FF73284621712A6074
:10818000AB8002B0BDE8F081E66A4B1E9BB206EB05
:10819000C30E3046DEF804202AB1BEF802C036F81D
:1081A0003380E0451CD8638E994223D03A4A4B1C59
:1081B0009BB2B3F5007F00EBC106238615BF4FF4D9
:1081C00080604FF47E704FF080084FF07F08B4E776
:1081D00000EBC313441C9BB202EBC0024C8091E73E
:1081E0000CEBC3130CF101019BB202EBCC02AEF815
:1081F000021087E7B3F5007FBBD004F10C025B00EF
:1082000096421FFA83F83B6816D024489B68834245
:108210004FEAC80135D130463FF0FEFB0028A8D018
:108220001D4A218EE062A4F83280C0E7014638463C
:10823000984788E7E66AE0E7174A1B68019293428D
:108240004FEAC80022D133F08FFE019A002890D067
:10825000D6F800C07168B368D6F80CE0C0F80CE03E
:10826000C0F800C041608360D6F810C07169B3697E
:10827000D6F81CE0C0F81CE0C0F810C04161836172
:10828000CFE70A46384631469847C7E701463846A1
:108290009847019ADAE700BFD1750200C175020064
:1082A0002DE9F0418B8E4FF6FF72934282B00C465F
:1082B000054611D0CA6AD90902EBC10203F07F0159
:1082C000526832F83100A08602EBC10228462A60CB
:1082D000AB8002B0BDE8F081098E2768002932D159
:1082E000638E002B00F085800123E66A594A2386BD
:1082F0004FF480604FF080083B681B68934274D154
:1083000033F032FE238EE76A7060013B9BB207EBCD
:10831000C30100284A6808BF4FF000080020A6F8F3
:108320000080708022B137F83360488886422ED8AA
:10833000012100224FF6FF73284621712A60AB808D
:1083400002B0BDE8F081E66A4B1E9BB206EBC30E9D
:108350003046DEF804202AB1BEF802C036F8338079
:10836000E0451CD8638E994223D03A4A4B1C9BB2FD
:10837000B3F5007F00EBC106238615BF4FF4806084
:108380004FF47E704FF080084FF07F08B4E700EBA9
:10839000C313441C9BB202EBC0024C8096E70CEB6B
:1083A000C3130CF101019BB202EBCC02AEF8021038
:1083B0008CE7B3F5007FBBD004F10C025B00964262
:1083C0001FFA83F83B6816D023489B6883424FEA24
:1083D000C80135D130463FF01FFB0028A8D01D4A08
:1083E000218EE062A4F83280C0E701463846984703
:1083F00088E7E66AE0E7174A1B68019293424FEA72
:10840000C80022D133F0B0FD019A002890D0D6F8F0
:1084100000C07168B368D6F80CE0C0F80CE0C0F892
:1084200000C041608360D6F810C07169B369D6F8A6
:108430001CE0C0F81CE0C0F810C041618361CFE7C8
:108440000A46384631469847C7E7014638469847B6
:10845000019ADAE7D1750200C17502002DE9F843EF
:1084600007464068BD68032D884600F1080613D80A
:108470005FFA85FC002D77D00CF1FF3456FA84F4B6
:10848000C31D002213F8011F002908BF42F001029A
:10849000A342F7D1002A40D000237355D7F80090AB
:1084A000BE68D9F80830A3B106F1070C8444DA8815
:1084B00096420BD13EB3C21DDC1D01E0944522D093
:1084C00012F8011F14F8015FA942F7D01B68002BB6
:1084D000EDD1B6F5803F7D68D9F8004034D22368ED
:1084E00028489B68834206F1090140D128463FF0A5
:1084F00093FA034643B33A68DE809168196000211D
:108500009360796002E09A8801329A800522C8F867
:10851000003088F80420BDE8F883022388F804308E
:10852000037A88F80030BCF1010F08D0437A88F84C
:108530000130BCF1020F02D0837A88F802300023A8
:1085400008F80530BDE8F88323680F4A5B6893425A
:1085500013D02946204698473A68002392680121A3
:1085600089F804101A60FFDE02230B71E7E70A4660
:108570002046294698470346BCE7284633F00EFDBF
:10858000EAE700BFC1750200C97502002DE9F04796
:1085900045684DB18368EA88934204460E4605D08B
:1085A0001D440133A3602E72BDE8F0875B00D0F854
:1085B00000905F1CB7F5803FD9F8008012D2D8F840
:1085C00000201549D2F808A08A4503F10A021CD1FF
:1085D000114628463FF020FA20B1C780A3686060AA
:1085E0000546DDE7D8F800300C4A5B68934208D1B5
:1085F000284633F0D3FC0122002389F8042063606D
:10860000D2E7294640469847F5E729464046D047F5
:108610000028E2D1E6E700BFC1750200C97502007B
:1086200003792DE9F0470C46D907054637D4DA0619
:1086300024D413F0600F1DD02E884FF6FF77BE4272
:1086400015D0E36AF20903EBC20306F07F09D3F801
:10865000048008EBC900B246C6882146FFF7E0FF58
:10866000A38E28F83930BE42A4F834A0E9D14FF0E7
:10867000FF332B6000232B71BDE8F0872A884FF66B
:10868000FF718A4237D0E16AA68ED00901EBC001A2
:1086900002F07F00496821F83060A286C9E7A0682F
:1086A0002A6826680028C2D0824216D00146006897
:1086B0000028BCD08242F9D18288013A92B28280ED
:1086C000002AB4D103680B6033680C4A5B6893429C
:1086D0000CD133F063FC2B79A9E78288013A92B27E
:1086E0008280002AA3D10368A360EDE701463046EB
:1086F00098472B799BE700231B80FFDEC97502009A
:108700002DE9F04F0E46097885B02B29009000F036
:10871000FD802D2940F0B880717801200190064439
:10872000A1F13000C0B2092800F2B680DFF8F8935A
:10873000C0B20021002400254FF0993816F801BF7F
:108740002418ABF13007FFB241EB05054FEA850E67
:10875000092F6FEA07024FF0FF334FEA840C4EEA0D
:10876000947EF8B24FF0000100F21E81A94508BFC7
:10877000A0450BD31CEB040C4EEB050E1CEB0C04BC
:108780004EEB0E05AB4208BFA242D7D24FF0000A13
:108790000023204629460A223DF0B6FFA946A046FE
:1087A0001FFA8AF3B9F5200F03F1010A08BFB8F1E7
:1087B000000F04460D460FFA8AFAE9D2092F0BD8AA
:1087C00002339B1B06EB030A16F801BFABF1300224
:1087D000092A0FFA8AFAF5D9BBF12E0F00F0B680FC
:1087E0000BF0DF03452B60D0BBF1000F56D10AF12F
:1087F00026034C2B00F2FC80002D08BFB4F5000FBF
:1088000080F0F68007EE904ABAF1000FF8EEE77AB2
:1088100040F36481BC4B1AF0010F1CBF93ED007A4A
:1088200067EE877A5FEA6A0223D0D00744BF93EDF0
:10883000017A67EE877A5FEAAA021AD0D10744BFAD
:1088400093ED027A67EE877A5FEAEA0211D0D207E7
:1088500044BF93ED037A67EE877A5FEA2A1A08D05D
:10886000BAF1010F0CBF93ED047A93ED057A67EE30
:10887000877A019B0BB1F1EE677A009A0123C2ED72
:10888000027A137010460DE000200190A1F1300033
:10889000C0B209287FF64AAF2E2953D0009A002390
:1088A0001370104605B0BDE8F08F96F801B0BBF12B
:1088B0002D0F36D0BBF12B0F00F0F080ABF1300361
:1088C000DAB2092A06F101068ED80AEB0302B2F5E4
:1088D0009A7F00F3D780002706E002EB400303EB0A
:1088E0000A02B2F59A7F79DC16F801BFABF13002CB
:1088F000D1B2092903EB8300EFD9002F40F0C780E4
:108900009A44BBF1000F3FF472AFC7E771780020C3
:108910000190A1F13000C0B2092806F10106BBD8D0
:1089200004E796F802B0ABF13003DAB2092A06F197
:1089300002063FF659AF0AEB0302B2F59A7F4FDC0D
:108940000127D1E7002400254FF0000A96F801B076
:10895000ABF13000C0B2092806F101063FF640AF86
:108960006A4B4FF099329D424FEA850108BF94420D
:108970004FEA840741EA94710ED23F1945EB010199
:1089800017EB070841EB01090AF1FF3A18EB000465
:108990000FFA8AFA49F1000516F801BFABF1300071
:1089A000C0B20928DFD91BE7BBF1000F40F0D2802D
:1089B000019B8BB1B5F1004F08BF012CBFF4E6AEAF
:1089C000644265EB45050223009A1046C2E9024560
:1089D000137005B0BDE8F08F0323F5E7002F51D0E9
:1089E00000994FF00042012308468A600B7059E756
:1089F000204629463DF0FCF9BAF1000F79DD444CE0
:108A00001AF0010F7AD15FEA6A032DD0DF0700F177
:108A10008D805FEAAA0327D0DE0700F18C805FEA31
:108A2000EA0321D0DD0700F18B805FEA2A131BD017
:108A3000DA0700F18A805FEA6A1315D0DB073ED4BB
:108A40005FEAAA1310D0DF073ED45FEAEA130BD027
:108A5000DE073ED45FEA2A2306D0DD0744D45FEA6E
:108A60005A231CBF2B490020019B13B101F1004385
:108A70001946009A0423C2E902011046137005B09A
:108A8000BDE8F08F019B0020BBB12349F1E7AAEBC1
:108A9000030ABBF1000F3FF4AAAEFFE696F802B05E
:108AA000ABF13003DAB2092A06F102067FF60DAF08
:108AB000BBF1000F3FF49BAEF0E61849D9E7D4E9CB
:108AC0000A233DF0CBF9BBE7D4E90C233DF0C6F90E
:108AD000BBE7D4E90E233DF0C1F9BBE7CAF1000AB8
:108AE0003FF4C7AE0E4B96E6D4E910233DF0B6F93D
:108AF000B5E7CAF1000AB7D00A4C81E7D4E90023F0
:108B00003DF0ACF97FE700BFECC006009999010089
:108B100050C106000000F87F0000F0FF0000F07F69
:108B2000D4C0060008C1060099999919D4E9022316
:108B30003DF094F96DE7D4E904233DF08FF96EE739
:108B4000D4E906233DF08AF96FE7D4E908233DF024
:108B500085F970E7B5F5801F08BF002CBFF416AE8D
:108B60004FF0000A38E600BF10B50E4C2068B8B1CF
:108B70001AF0BCFB38B920681AF0A2FB18B1BDE8A6
:108B800010401DF031B9206850B11AF0AFFB38B178
:108B900020681AF0A7FB18B1BDE810401DF074BEA4
:108BA000002010BD00E1002010B50E4C2068B8B1C7
:108BB0001AF09CFB38B920681AF082FB18B1BDE8A6
:108BC00010401DF015B9206850B11AF08FFB38B174
:108BD00020681AF087FB18B1BDE810401DF058BEA0
:108BE000002010BD00E1002070B5224D224C2B78F2
:108BF000002B34D0237C002B2FD1204C35F090FA61
:108C0000206801210EF04EFE08B1002323601C4EA7
:108C100035F090FA1B4B306800241C702C7010B19A
:108C200035F0CCFC3460184B1849194D194A1A48D4
:108C30001A4E00241C701A4B0C702C6014600460D7
:108C40002146184834704FF0FF354FF47A621D60AA
:108C50003EF004F8144B1C6070BDFFF7B7F8237C9E
:108C6000002BCAD011481EF041FC10481DF032FF05
:108C7000C3E700BFA90401200CE1002004E10020AB
:108C800000E1002024E20020A900012044E40020AB
:108C900040E40020E8F30020F8F300201005012054
:108CA0002461002048E400200C0501201CE1002084
:108CB00008B51E4B1B7803B908BD33F02DF91C4ACB
:108CC0001C4B1268801A9842F6D91B4B93ED007A20
:108CD000F0EE007AB4EEE77AF1EE10FA1FDA174BF5
:108CE0001A78AAB133F018F9154B1A684EF65F23BB
:108CF000801A9842E0D9FFF777FF124A12491368A9
:108D000003F59C5308334FF0FF301360086008BD33
:108D100001221A7033F000F9094B186008BD0749A9
:108D2000074A00230B70136008BD00BFA900012093
:108D3000AC0001201FBF02003CE4002044E40020FE
:108D400040E4002098E100202061002070B51C4D17
:108D50008AB0002428460894CDE90244CDE90444B1
:108D6000CDE90644CDF8234026F032F802462846E5
:108D7000019226F02FF81F26019A014602A83DF025
:108D800045FF02A93246284626F026F83C35214602
:108D9000324602A83DF062FF284626F019F80190FD
:108DA000284626F017F8019A014602A83DF02EFF4A
:108DB000324602A9284626F00FF80AB070BD00BF5F
:108DC0005844012010B590B01B4908A80EF09EFB36
:108DD0001F2802D0002010B010BD044601A80EF0DC
:108DE000B1FB1649164829F07BFC1648012126F0F4
:108DF00021F8A0221146134826F020F8114800213E
:108E000026F024F8224608A90E4825F0E5FF01A91E
:108E1000044619220C4825F0DFFF00B124B9FFF702
:108E200095FF002010B010BDFFF790FF002105480E
:108E300026F06CF8CFE700BFF869002000B3060009
:108E4000183E0120584401209444012008B5094BE4
:108E5000187820B1084B1B7803F0FF0003B908BD58
:108E6000064826F09DFD0028F9D1BDE808400348DA
:108E700026F010BE14E00020006A0020746B002071
:108E8000284B294A294870B5C3F8002618F006FE79
:108E90000021042036F01EFB01210520244D36F070
:108EA00019FB092445F001050021052036F096FB49
:108EB0004FF4A070A8470121052036F08FFB4FF436
:108EC000A070A847013CEFD10121042036F002FB3D
:108ED0002146042036F082FB4FF4A070A847012100
:108EE000052036F07BFB4FF4A070A8470D4C0E4ECA
:108EF0000121042036F072FB4FF4A070A8470B4804
:108F0000C4F8006618F050FD0A49084818F0A8FD9A
:108F10000948C4F8006601223C212BF017FFC4F871
:108F2000006670BD000001403546526E34300120AD
:108F300070CF0600801A060040E100202DE9F047BE
:108F4000544E554D3768D7F80080404636F064FBE4
:108F5000034645F0010503244FF4FA405BB9012CA8
:108F600074D0A847404636F057FB0346013C4FF407
:108F7000FA40002BF3D001237B71484F464DD7F8C0
:108F80000080D8F80090484636F046FB034645F08E
:108F9000010503244FF4FA405BB9012C66D0A847C1
:108FA000484636F039FB0346013C4FF4FA40002BAB
:108FB000F3D0012388F80530DFF8EC90364DD9F86E
:108FC0000080D8F800A0504636F026FB034645F056
:108FD000010503244FF4FA405BB9012C22D0A847C5
:108FE000504636F019FB0346013C4FF4FA40002B83
:108FF000F3D0012388F8053033681B793BB1284A48
:10900000136803F59C5308331360BDE8F0873B6891
:109010001B79002BF3D1D9F800301B79002BEED14E
:10902000BDE8F08732F078FF98F80530002BE3D0E8
:109030001C4BD8F808201B68801A9842DCD332F009
:109040006BFFA8F80440C8F80800D5E732F064FFC9
:109050007B79002B91D0134BBA681B68801A984219
:109060008BD332F059FFBC80B86086E732F054FFF2
:1090700098F80530002B9FD00A4BD8F808201B68C1
:10908000801A984298D332F047FFA8F80440C8F8F5
:10909000080091E7DC60002070CF0600E06000204F
:1090A00098E10020D0600020E4600020424B1B6863
:1090B0002DE9F0411E68414D304636F0ADFA0346C9
:1090C00045F0010503244FF4FA405BB9012C0BD0A5
:1090D000A847304636F0A0FA0346013C4FF4FA4068
:1090E000002BF3D0002600E02646354B334D1B689D
:1090F0001F68384636F090FA034645F00105032410
:109100004FF4FA405BB9012C0BD0A847384636F033
:1091100083FA0346013C4FF4FA40002BF3D00025BC
:1091200000E02546274B254F1B68D3F800804046BA
:1091300036F072FA034647F0010703244FF4FA4071
:109140005BB9012C0AD0B847404636F065FA0346B1
:10915000013C4FF4FA40002BF3D000249EB11A4E8C
:109160003378DBB165B1194D2B78F3B124B1184CCC
:1091700023785BB1BDE8F081154B1C70BDE8F08130
:10918000124B1D70F2E7104B1E70EBE732F0C4FE7D
:10919000104A012310602370BDE8F08132F0BCFE5C
:1091A0000D4A012310603370DCE732F0B5FE0B4A44
:1091B000012310602B70D9E7DC60002070CF06001F
:1091C000E0600020E4600020D8E00020E0E0002023
:1091D000E8E00020ECE00020DCE00020E4E00020FB
:1091E000294B1B6870B51E68284D304636F014FABE
:1091F000034645F0010503244FF4FA405BB9012C06
:109200003FD0A847304636F007FA0346013C4FF4FA
:10921000FA40002BF3D01E4B1C4D1B681E683046D5
:1092200036F0FAF9034645F0010503244FF4FA40FD
:109230005BB9012C25D0A847304636F0EDF903463E
:10924000013C4FF4FA40002BF3D0124B0F4D1B683A
:109250001E68304636F0E0F9034645F00105032468
:109260004FF4FA405BB9012C0BD0A847304636F0DA
:10927000D3F90346013C4FF4FA40002BF3D0002011
:1092800070BD012070BD00BFDC60002070CF060003
:10929000E0600020E460002038B50F4A0F4B1268F0
:1092A00019688A4215D00E491A6000230B6001220A
:1092B0000C4C0D4B204600251A70E5762BF0B0FAC9
:1092C000204601212AF0D8FF4FF00113C4E90453CE
:1092D00038BD0022ECE700BF2061002000F4002030
:1092E00034FE002040E10020B00001201A4A13683B
:1092F0000C2B28D00B2B15D0083312D0174B184944
:1093000093ED007A0B68F1EE047AB4EEE77AF1EEB1
:1093100010FA03F59C5394BF09200820083310600D
:109320000B6070470F4B10491A680B68013A9A425C
:109330000B4A14BF013300230B60136803F59C53E1
:1093400008331360704706490B6803F59C530833D4
:109350005A200B6010607047206100203CE4002020
:1093600098E100207061002008E100200378462B7E
:1093700001D00020704710B54378572B044621D107
:10938000114908223EF05BFC08B9012010BD0F49CD
:10939000062220463EF053FC0028F6D00C49204619
:1093A0003EF022FC0028F0D00A4920463EF01CFC8A
:1093B0000028EAD0084920463EF016FCB0FA80F0BA
:1093C000400910BD002010BD14B3060020B30600F4
:1093D00028B3060030B3060038B306002DE9F04389
:1093E0005E498DB0082204463EF029FC00284CD18D
:1093F0005B4F3B7803F0FF06002B51D10834204629
:109400002C213EF0E4FB00284AD000F10109484637
:109410002C213EF0DCFB0546002841D020460A22E4
:1094200031463FF055FBA5EB0903082B80464AD196
:10943000D9F80000D9F8041002AB03C302A801A9AF
:109440008DF810600DF022F900283CD008F1FF33B0
:10945000B3F5A02F56D26878013590B1DFF844916A
:1094600073263FF03FFB044630463FF03BFB84420F
:1094700007D115F8010F002854D019F8016B002E00
:10948000EFD13848FEF772F80DE037490622204642
:109490003EF0D5FB50B9324B1B78012BDDB218D012
:1094A0003248FEF763F80DB0BDE8F083304920463E
:1094B0003EF09AFBC8B92A4B1B78022BF0D12D4BFA
:1094C00001221A70EFE72C48FEF750F80DB0BDE806
:1094D000F08301460A22A01D3FF0FAFA274B1B68D1
:1094E00083420FD1264B1D70DDE7264920463EF012
:1094F0007BFB68B91A4B1B78032BD1D1224B01227D
:109500001A70D0E72148FEF731F80DB0BDE8F083BE
:109510001F4920463EF068FB0028C4D11D4B0122A4
:109520001A70C0E799F80030002BAAD1134B1A4AE1
:109530000198C3F8008005A901233B7010600DF06D
:109540006FF8164A05AB08A810213EF07DFA08A96D
:1095500082B2134826F08CFAA5E700BF14B30600C8
:1095600087AF002054B3060020B3060040B30600C6
:1095700028B306008D6A002048B30600286C00203E
:10958000FF69002030B30600266C00204CB30600B3
:1095900038B30600256C0020946A00205CB30600F6
:1095A0007CE3002069B3060084490978012900D0D2
:1095B00070472DE9F0419CB01C4615460021412220
:1095C0000BA83DF04BFB402C2246294628BF4022E9
:1095D0000BA83DF01BFB0BA83EF029FB431E70B10E
:1095E0000BAA774E1A4412F801190A39C9B226FAA1
:1095F00001F016296FEA000003F1FF3310D9714E14
:109600003378BBB170490BA805223EF018FB50BB64
:10961000062C28D86D4B01221A701CB0BDE8F081D1
:1096200010F00100EBD1591C5070DCD1654E33783D
:10963000002BE7D1664F3B78022B7AD0402C00F20A
:109640008980644904220BA83EF0F9FAB0B9624C53
:10965000237803F0FF05002B52D0604960480422B4
:1096600026F006FAD9E75F4E338814FA83F3B3F590
:10967000805F50DD5C4B01221A70CEE75B4904220B
:109680000BA83EF0DCFAD8B1594907220BA83EF0EE
:10969000D6FA002840F0CC809DF83330202B0DF115
:1096A000330003D110F8013F202BFBD018210DF01F
:1096B000C3FA98B94F495048092226F0D9F9ACE7C6
:1096C0009DF83030202B0CA803D110F8013F202B3F
:1096D000FBD018210DF0B0FA00283BD03E4C237887
:1096E00003F0FF0563B13D494348042226F0C0F969
:1096F00093E7394C237803F0FF05002B40F02181DC
:109700003E4B40220BA918463EF0ABFA012280F8EE
:109710004050227081E73A4B3088294613FA80F096
:1097200022463DF073FA338814FA83F39BB23380F8
:1097300073E7082C14D833490BA83EF055FA20B132
:1097400031490BA83EF050FA50B921460BA8FFF75B
:1097500045FE62E72D492848052226F089F95CE795
:109760003B78022B7FF459AF294B1A7802F0FF00A7
:10977000002A7FF452AFDFF8B080264AD8F8007094
:1097800012682744974200F2B180234A234ED2F850
:1097900000C0318814FA81F1B1F5805F40F2AC80ED
:1097A000DFF888C0DCF80010013100F0B7801C4AF7
:1097B0001C49116001221A702FE700BF1CE0002035
:1097C00009004000947C002070B30600D18E002078
:1097D00087AF002088B30600246C002098B70600ED
:1097E000B4E20020988C0020427C002090B3060058
:1097F00098B30600A0B306007CE300204C6A00206A
:10980000987C002028B3060038B3060080B3060019
:1098100086AF0020286C00203CC3002040C30020FD
:10982000906A002078B306003C7C0020B8600020DD
:109830007F490BA83EF0D8F900284AD07D4905227F
:109840000BA83EF0FCF9002843D07B4905220BA869
:109850003EF0F5F900283CD078490BA83EF0C4F959
:10986000002836D076490BA83EF0BEF900283FF418
:1098700040AF744905220BA83EF0E1F9002866D0FC
:10988000714905220BA83EF0DAF900286DD1337832
:10989000002B56D16D4B1C78002C52D10DF13100AC
:1098A00018210DF0C9F9002859D0694B694D0DF107
:1098B0003101184618223EF0D4F90346664967483C
:1098C000674A1C7601232C8004700C70137033706F
:1098D000A3E6644C237803F0FF050BB9624B10E755
:1098E00062496348052226F0C3F896E6614A624958
:1098F000116001221A7090E6604B03EB0C33308844
:10990000294613FA80F022463DF080F93388C8F8E2
:10991000007014FA83F39BB233807EE63188DFF85F
:1099200080E1564B89B2AEF800101168CCF80010F7
:10993000116881F0010111603080126803EB02337D
:10994000DDE74F494A48092226F092F865E61821DA
:109950000DF131000DF070F900287FF4CAAE4949CD
:1099600043480D2226F084F857E6474905220BA804
:109970003EF065F9B8B9454C237803F0FF05002B9C
:10998000DFD10DF1310018210DF056F90028E6D095
:109990003F4B18220DF1310118463EF062F90122C9
:1099A0000576227039E63B490BA83EF01DF930B12F
:1099B0000BA8FFF7DBFC00283FF42FAEC5E6364BC3
:1099C00018683CF0F3F903AE04460D4645EC104B25
:1099D00032460221042032F089FA11A3D3E9002390
:1099E000204629463CF082F80FA3D3E900233CF03F
:1099F00035FA3CF0E3FC6428A8BF642020EAE07359
:109A0000264A0096182105A83EF01EF805A83EF04B
:109A10000EF905A982B2164826F02AF8FDE500BF26
:109A20006666666666660A40721CC7711CC75B4044
:109A3000ACB30600B4B30600BCB30600C4B3060062
:109A4000D4B30600E8B3060000B406001DE0002011
:109A5000D48E0020988C0020D18E0020427C0020E3
:109A6000437C00209B8C0020487C0020CCB3060067
:109A70007CE30020906A00204CB30600108F002089
:109A8000DCB30600F0B3060008B406009C8E00208C
:109A9000B88E002010B40600F0F3002018B40600C1
:109AA000DC690020124B13490122002030B45A60B7
:109AB0000325DA600424C3F8040542F21070C3F8E9
:109AC0000855C3F810454FF48035C3F840056024AD
:109AD0004FF08060C3F80022C3F8045381F81A43A2
:109AE000C1F880010860044930BC0A701A607047F0
:109AF00000A0014000E100E02C6C002030B51E4CBD
:109B000083B040F24C4320460322012140F24C45F1
:109B100017F056FA204640F24C430322192117F061
:109B200089FE2B4620460322042117F01DFB204608
:109B3000009503230022012117F058FB00952046D1
:109B400003230122002117F051FB00952046032337
:109B50000222002117F04AFB03231A4600952046F3
:109B6000002117F043FB0095204603230622002125
:109B700017F03CFB03B030BD38FE0020104A114BFB
:109B8000114810B50021114C11704FF47A62196020
:109B900021603DF063F80E48037C6BB90D4C34F046
:109BA000BFFA206802210DF07DFE08B1002323607A
:109BB000BDE8104034F0BEBA10301CF08BFFEDE76A
:109BC000A8040120F8F3002048E40020E8F3002076
:109BD000B400012004E100202DE9F0430024BBB0D3
:109BE000374B049401464FF47A75224607A8ADF826
:109BF0001C408DF81E40059503931DF0A9F920B96E
:109C0000002528463BB0BDE8F0832E494FF4806222
:109C100007A81DF0FDF9064607A81CF05BFFB6F586
:109C2000806FEDDB284E009502A901912548029432
:109C3000334610AA4FF480610CF09EFE05460028C2
:109C4000DFD0224BDFF89880214FDFF8989010A9E1
:109C5000184617223EF005F803461F22404616A973
:109C6000DC753DF0FEFF88F81F403846DFF878804D
:109C70001F221EA93DF0F5FFFC770F22154F26A9E4
:109C800048463DF0EEFF0F222AA9404689F80F40D2
:109C90003DF0E7FF0F2238462EA988F80F403DF02F
:109CA000E0FF029A0C4BFC731A6012B1013A56F8AD
:109CB00022200A4B28461A603BB0BDE8F08300BF63
:109CC00080C0060098C3002048E40020CCE10020BA
:109CD000ACE1002004E20020E8F30020F8F30020CB
:109CE000E4E1002014E200209CE1002070B50A4E5F
:109CF000054634F015FA306829460DF0C9FD0446D2
:109D000020B1356034F016FA204670BD34F012FAF6
:109D10003368204670BD00BF04E1002010B5084C38
:109D200082B0019034F0FCF9206801990DF0BAFD81
:109D300008B10023236002B0BDE8104034F0FAB946
:109D400004E1002070B5294B1C788AB094BB284EE2
:109D5000054634F0E5F9306803210DF099FDF8B1BE
:109D60000323336034F0E6F92249ADF8044001A83A
:109D700023462A468DF806401DF0E2F808B31D4937
:109D8000ADF804402A46012301A88DF806401DF0D5
:109D9000D7F800BB18491948072225F069FE15E0DD
:109DA00034F0C8F9164915483368042225F060FEDE
:109DB0000AB070BD12491148042225F059FE0AB0BC
:109DC00070BD10490D48092225F052FE0320FFF70F
:109DD000A5FF0AB070BD01A81EF022F90028D9D055
:109DE00009490648072225F043FEEFE71DE0002061
:109DF00004E100205065002024B406007CE300202C
:109E000098B70600A0B306002CB40600F8B51649B2
:109E1000164C174A174F184E184D194800233B701F
:109E2000337023700B70174C13701749174A2B703F
:109E3000174D236013600B80164C1749027C2B6072
:109E40004FF0FF3525600B804AB9144C237803B9D5
:109E5000F8BD0320FFF762FF00232370F8BD103028
:109E60001CF038FEF1E700BF266C00208D6A002050
:109E7000256C002087AF0020FF69002086AF0020FE
:109E800010AF00203CC3002040C30020906A002097
:109E90003C7C0020B8600020DC690020F8B2002083
:109EA000F0B52E4B1C68BDB01CB90320FFF71EFF98
:109EB00030B92B492B480C2225F0DAFD3DB0F0BD1E
:109EC0002346294D294A2A49019404A84FF47A7659
:109ED000ADF810408DF81240029600951DF030F854
:109EE0009DF8103083B3234F1E4E02E011A81CF0E2
:109EF000F1FD4FF47A73002204A911A80F930E9478
:109F0000ADF844408DF846400D951DF057FA9DF888
:109F10004430B3B113F0D00FE8D11AA9402211A8F0
:109F20001EF0A0F91AAB3A462AA846213DF08CFD56
:109F30002AA982B2304625F09BFD0A2031F0F8FFB5
:109F4000D4E704A81CF0C6FD0320FFF7E7FE0A498A
:109F50000448042225F08CFD3DB0F0BD04E1002052
:109F600034B406007CE3002080C0060044B4060040
:109F70005065002058B4060050B406002DE9F047A3
:109F80003B4B1C68ADF5287D24B90320FFF7AEFEDE
:109F9000054640B937493848042225F069FD0DF5DA
:109FA000287DBDE8F0872346344E354A3549049470
:109FB0004FF47A7707A8ADF81C408DF81E4005973E
:109FC00003961CF0BDFF9DF81C30002B4BD0DFF832
:109FD000C090DFF8C0802C4F02E014A81CF07AFD7E
:109FE00000224FF47A7307A914A8CDE91062ADF8E6
:109FF00050208DF8522012931DF0E0F99DF850404A
:10A0000014B314F0D004E8D10DF1740A51464FF4A2
:10A01000807214A81EF026F91B9A0192002D14BF1D
:10A020004B4643463A464FF49671CDF800A05DA8E2
:10A030003DF00AFD5DA982B20F4825F019FD0A2006
:10A0400031F076FF2546C8E707A81CF043FD032042
:10A05000FFF764FE0D490848032225F009FD0DF5C0
:10A06000287DBDE8F0870320FFF758FE92E700BF88
:10A0700004E1002098B70600B4E2002080C006008A
:10A08000C4B206005065002068B4060074B406002F
:10A090008CFB060064B406002DE9F042354E337C9B
:10A0A0008EB00446002B60D1334D34F039F8286867
:10A0B00003210DF0EDFB50B934F03CF82F49304846
:10A0C0002B68042225F0D4FC0EB0BDE8F0824FF0DE
:10A0D00003090027C5F8009034F02CF82246294CDB
:10A0E000294901943B464FF47A7505AC05A80395C0
:10A0F0000297ADF814708DF816701CF021FFA4467D
:10A10000BCE80F00214D029C74600FC5BCE80F0035
:10A110000FC5DDE90321337CDCF800002860C6E9C7
:10A120000221BBB11A48F36A1A4A1B490360012095
:10A1300017600870194A202101A83DF085FC01A88C
:10A140003DF075FD01A982B20D4825F091FC0EB0DD
:10A15000BDE8F0824846FFF7E1FD114908480522B5
:10A1600025F086FC0EB0BDE8F08206F110001CF070
:10A17000B1FC99E7DCDF002004E1002098B706007D
:10A180007CE3002080C0060050650020ECDF00204A
:10A1900010E00020D4DF00201DE0002078B406008D
:10A1A00080B30600000000002DE9F047864C874A86
:10A1B00094F83C302DED0A8B0021ADF5167D117021
:10A1C000002B00F08980824DD5F800A0BAF1000F75
:10A1D0002DD0804B197894ED000B94ED021BD4E93F
:10A1E0000467D4E90689002940F0D48050468DEDFB
:10A1F0000E1B8DED0C0B18F003FD494640463CF05C
:10A2000025F939460346304608EE103A3CF01EF96F
:10A210009DED0E1B02EE100A9DED0C0B2868F0EE72
:10A22000482A18F045FE94F83C30002B54D06A4B75
:10A230001B78002B3FD0DFF8B48198F80030002B5A
:10A2400039D0664F3B78002B4FD05DA3D3E9002374
:10A25000D4E906013BF002FE94ED00CB94ED02BB85
:10A2600094ED049B94ED08AB46AD41EC180BD4F88B
:10A270003890C5F82890284685ED088B85ED00CBF1
:10A2800085ED02BB85ED049B85ED06AB0CF058FF18
:10A29000002840F0B580524D31F03EFE2A6842F26F
:10A2A0001073801A984206D931F036FE03464D48A5
:10A2B0002B601DF01BF942A3D3E90023D4E906016A
:10A2C0003BF0CCFD3CF0C2F8474B18600DF5167D15
:10A2D000BDEC0A8BBDE8F0873F4B1B78002BEAD022
:10A2E000424B1B78002BE6D03C4F3B78002BE2D151
:10A2F00094F83D30002BDED03D4D31F00DFE2B6843
:10A30000C01AB0F57A7FD6D331F006FE034601209D
:10A310002B60FFF7EBFC0028CDD094F8412094F897
:10A32000403094F8430094F84210324E0390CDE947
:10A3300000320291E38F304A502156A83DF084FB51
:10A3400056A906F1100040F201621CF001FE337CB8
:10A35000002B00F02E8146AD284640220A213CF019
:10A360007DFC06F110084FF480663F2E32462946E8
:10A37000404640F2158140221DF01CF9402840F073
:10A380001581403EF1D11D491A4830F041FE0123AC
:10A390003B7090E794F84310B4F8463094F84420AA
:10A3A00094F842008DED0E1B8DED0C0B0CF06AFC49
:10A3B0009DED0C0B9DED0E1B014617E7AFF30080E2
:10A3C0000B410E4A9869F23FD8E3002020E40020B8
:10A3D00000E1002034E40020AA040120A9040120A7
:10A3E000F4F300201CE100203CE4002024E20020E3
:10A3F000FCF300200CE10020ACB40600CCB4060055
:10A400002AAA0821B0EE4C0AF0EE6C0A012031F0C5
:10A410006DFDB0EE4B0AF0EE6B0A30AA0821012068
:10A4200031F064FDB0EE4A0AF0EE6A0A012110AA8A
:10A43000084631F05BFDB0EE480AF0EE680A22AA49
:10A440000221012031F052FDB0EE490AF0EE690A16
:10A4500026AA0221012031F049FD94ED0A0B13AA2E
:10A460000221012031F042FD94ED0C0B16AA0221CD
:10A47000012031F03BFD514B18683BF097FC19AAC5
:10A4800041EC100B0321012031F030FD4C4B1868DA
:10A490003BF08CFC1CAA41EC100B0321012031F095
:10A4A00025FD484B18683BF081FC1FAA41EC100BBE
:10A4B0000321012031F01AFD2AAB3C9330AB3D93D0
:10A4C00010AB3E9322AB3F9326AB409313AB41932B
:10A4D00016AB429319AB43931CAB44931FAB3CAEFA
:10A4E000459356F8040B14210CF0C0FE00283FF4ED
:10A4F000D2AEAE42F5D1344B1B78002B3AD10020BE
:10A50000014636AA18230CF0BDFD304B304D1A68B9
:10A5100008921CA90A9119A9099116A9079113A9D2
:10A52000069126A9059122A9049130A903912AA98F
:10A530001FAB029110A9CDE900910B934FF48071EC
:10A54000244A36AB56A83DF07FFA56A9284630F08B
:10A55000CFFD00287FF49FAE2B7C88F80000387078
:10A560000BB1FDF733FC1C481CF0B4FA0120FFF7D7
:10A57000D5FB90E6E08F94F8442094F84330B4F88B
:10A580004610029100F5FA60CDE9003294F84010CF
:10A5900094F8423094F8412080B20CF06BFCB0E7A4
:10A5A0001DF008F8B04201D1403EDEE60A481CF03A
:10A5B00091FA0120FFF7B2FB7DE600BFCCDB002063
:10A5C000D0DB0020D4DB002034E40020C4040120D0
:10A5D0000CE1002084B406001CE100202DE9F04FBE
:10A5E0001F4C85B004F26C4980464F4604F2444B40
:10A5F000A246032501AEFF220023CDF80880ADF866
:10A600000420039396E80E0038461FF0C9F894F82A
:10A610007E341348C4F8689401223946BBB91EF051
:10A62000D3F860B158461CF055FA0E4851461CF05C
:10A63000D1FC60B10C4B1C6005B0BDE8F08F034647
:10A640000246394606481EF0BFF80028EAD16420C9
:10A6500031F06EFC013DCED1284605B0BDE8F08F4B
:10A660005065002094690020AC31012010B51D48D0
:10A670001D4A037C002111702BBB1C4B00241C7055
:10A68000FFF7C4FB1A4A1B4B1B4814701C7028F0C0
:10A69000C7F8F8B9194824F09FFC1748002128F0A2
:10A6A00095F81548002128F095F801210C2034F088
:10A6B00095FF1349134A14480023BDE810400B705E
:10A6C0001370FFF78BBF10301CF004FA0320FFF764
:10A6D00025FBD2E7084828F0D7F80146064828F0BD
:10A6E000BDF8D7E7DCDF0020D0DF00201DE0002030
:10A6F000246C00209B8C0020183E0120584401202F
:10A70000D8DF00201CE0002080841E002DE9F043EB
:10A71000B84EB94D33782A789A42A1B0D8B200F237
:10A7200062812B78C31ADBB2002B00F025812978D7
:10A73000B24A01F00F01012B52F82110009100F0F4
:10A740008D802978013101F00F01022B52F8211080
:10A75000019100F083802978023101F00F01032B71
:10A7600052F82110029179D02978033101F00F01BC
:10A77000042B52F82110039170D02978043101F094
:10A780000F01052B52F82110049167D0297805316B
:10A7900001F00F01062B52F8211005915ED02978A7
:10A7A000063101F00F01072B52F82110069155D008
:10A7B0002978073101F00F01082B52F82110079179
:10A7C0004CD02978083101F00F01092B52F82110E3
:10A7D000089143D02978093101F00F010A2B52F872
:10A7E000211009913AD029780A3101F00F010B2B81
:10A7F00052F821100A9131D029780B3101F00F0164
:10A800000C2B52F821100B9128D029780C3101F033
:10A810000F010D2B52F821100C911FD029780D310A
:10A8200001F00F010E2B52F821100D9116D029784E
:10A830000E3101F00F010F2B52F821100E910DD0A7
:10A8400029780F3101F00F01102B52F821100F91D0
:10A8500004D02B7803F00F0352F82330DFF8B0C197
:10A86000DFF8C8E19CF800402870013BDBB201AA88
:10A8700002EB8307DEF80000614A6B46002C40F0D3
:10A88000EA80107800F0FF01002840F0A1801868ED
:10A890000C460433BB4219D092F800801968B8F115
:10A8A000000F40F09A80A1EB00085648A8F6B8398E
:10A8B000814500F2908020A800EB84090433013424
:10A8C000BB42084649F8408CE4B2E5D10123CEF8FA
:10A8D00000008CF80030002C4ED0012C109B39D990
:10A8E000119A022C134435D0129A032C134431D000
:10A8F000139A042C13442DD0149A052C134429D0F8
:10A90000159A062C134425D0169A072C134421D0EF
:10A91000179A082C13441DD0189A092C134419D0E7
:10A92000199A0A2C134415D01A9A0B2C134411D0DF
:10A930001B9A0C2C13440DD01C9A0D2C134409D0D7
:10A940001D9A0E2C134405D01E9A0F2C13441CBFC5
:10A950001F9A9B1807EE903A07EE104AF8EE677AB6
:10A96000B8EE470AF7EE000A87EE800A0CF0DAFF2D
:10A97000254821460CF0A6FF244B1A781AB1244929
:10A9800000220A701A70234A234B1468DB68D9012D
:10A9900003D5224B1A68D2074AD432F0D5FC204B9B
:10A9A000204AA0FB0301830A43EA81531B1B934205
:10A9B00044D8154A1C4BD2ED007AB6EE007A77EEF9
:10A9C000877AFDEEE77AC3ED007A21B0BDE8F08327
:10A9D000186814705DE708465BE74FF0000808460A
:10A9E00082F8008055E72A7800F110039B1ADBB249
:10A9F0009AE600BF080501200A050120C8040120CD
:10AA0000CE600020C8781E00C0600020090501202B
:10AA10000C8F0020C0040120F0ED00E0001000E0E9
:10AA200040420F0020A10700C40401208C7C0020BC
:10AA30005B680A4A9B091B1B9342BAD908480CF071
:10AA400039FF084B084A0121197033780021DBB225
:10AA50002B701170ADE700241EE700BF20A1070096
:10AA6000C0600020CE6000200C8F002070B5274D04
:10AA70002C780CB1204670BD254E33F051FB306868
:10AA800005210CF005FF78B30523336033F052FB4A
:10AA90002048FFF7A3FD10B91F48FFF79FFD1F4B8C
:10AAA000D3F8680403689B699847024630B34FF4B3
:10AAB00000731B4800211FF075FC1948012200217A
:10AAC0001FF078FC16481FF087FC044688B1154833
:10AAD0001FF010FA322031F02BFA12481FF00CFA56
:10AAE00001232B70204670BD33F024FB33682046D1
:10AAF00070BD024601460A481FF05CFC0648FFF79D
:10AB00006DFD0520FFF70AF9204670BDFA2F0120E0
:10AB100004E1002000127A0080841E0050650020AD
:10AB20008CAF0020D4310120002208B5114607481F
:10AB30001FF040FC064BD3F868040368DB699847B4
:10AB4000322031F0F5F9FCF7BDFB00BF8CAF0020DF
:10AB5000506500202DE9F04F80468B4658F8043BA5
:10AB600098E8070093F83C4093B006AF0DF1240934
:10AB7000202C87E8070089E8070062D10CAC84E844
:10AB8000070094E807000FAC84E807000090044633
:10AB9000002856D01D8F4FF6FF72954251D0DB6AC8
:10ABA000E90903EBC10105F07F05496811EBC50513
:10ABB00047D01099EE880292481E22184FF0010AE1
:10ABC0002C46039504963546CDF8148001921E4616
:10ABD0008846BAF1000F11D1029B9D4231D0E8099D
:10ABE00006EBC00005F07F05446814EBC50428D0CF
:10ABF0008AF0010AE588BAF1000FEDD02079042827
:10AC00003CD0052836D002281FD0B8F1000FE3D180
:10AC10002A464FF6FF718A423346DDF81480DDE99B
:10AC200003560ED0D00903EBC00002F07F0241684A
:10AC300011EBC20105D00A79111F012925D9022A79
:10AC400023D0584613B0BDE8F08F20463CF0EFFF0C
:10AC50004045C1D1B8F1000FDAD0009B013C581E2D
:10AC600010F8012F14F8013F9A42B5D1019B83429D
:10AC7000F6D1CDE72468E0880834E9E72468204667
:10AC8000002CE5D03CF0D3FFE2E798E807000CACDD
:10AC900084E8070087E8070089E8070094E80700D0
:10ACA0000FAC84E80700804600283ED0109C671E49
:10ACB0000744BB46274654464FF6FF799A467CB96F
:10ACC0004E4532D0F3090AEBC30306F07F065D68F8
:10ACD00015EBC60529D084F00104EE88002CEFD0D6
:10ACE0002B79042B27D0052B3ED0022B38D0002FF8
:10ACF000E6D14FF6FF729642534616D0F20903EBA7
:10AD0000C20306F07F065A6812EBC60B99D09BF877
:10AD10000430042B2CD0052B2DD0022B18BF4FF064
:10AD2000000B584613B0BDE8F08F4FF0000B5846AB
:10AD300013B0BDE8F08F2D6828460DB13CF077FFC9
:10AD4000B842BDD1002FD4D0681E08F1FF3313F8EC
:10AD5000011F10F8012F9142B2D15B45F7D1C8E72E
:10AD600028463CF064FFEBE72D68E8880835E7E704
:10AD700052F836B065E752F8363003F1080B60E759
:10AD80002DE9F047056804460E46002972D00846B2
:10AD90003CF04DFF8046002D58D02B79202B55D10B
:10ADA000002E53D02B884FF6FF77BB424ED06268FF
:10ADB000D2F82C90D90909EBC10103F07F024B684E
:10ADC00013EBC20342D04FF0010ADD88BAF1000F45
:10ADD00010D1BD423AD0EA0909EBC20205F07F0565
:10ADE000536813EBC50331D08AF0010ADD88BAF14C
:10ADF000000FEED01A79042A35D0052A2ED0022A67
:10AE000027D0002004468045E3D1B8F1000F0BD0D5
:10AE1000721E631E02EB080112F8014F13F8010FB6
:10AE20008442D6D18A42F7D14FF6FF739D420DD0AE
:10AE3000EB0909EBC30905F07F05D9F8040000EB25
:10AE4000C505281E18BF0120BDE8F0870020BDE819
:10AE5000F08718461C463CF0EAFED4E71B68D88809
:10AE600003F10804CFE71C682046002CCBD03CF04F
:10AE7000DEFEC8E788468EE78368002B00F0F68088
:10AE80001A79402A40F0F2802DE9F04F1B884FF6E6
:10AE9000FF77BB428FB01CD0D0E90324D56ADA0912
:10AEA00005EBC20203F07F03526812EBC30310D01C
:10AEB000DA881CB912E0013CDA880FD0D109BA4215
:10AEC00005EBC10102F07F0603D04B6813EBC6030C
:10AED000F1D19FED950B0FB0BDE8F08F143007C88E
:10AEE0001E7901AC84E80700202E04AC84E807003A
:10AEF000EFD194E8070007AC84E807000AAC84E8C7
:10AF0000070082460028E4D018884FF6FF77B84241
:10AF1000DFD0C20905EBC20200F07F03506810EBDE
:10AF2000C300D6D0DDF82C90C68809F1FF384FF069
:10AF3000010BD044BBF1000F10D1BE42C9D0F209C1
:10AF400005EBC20206F07F03506810EBC300C0D0CF
:10AF50008BF0010BC688BBF1000FEED00279042AFA
:10AF60007DD0052A77D0022A60D0B9F1000FE4D154
:10AF70004FF6FF708642ACD0F20905EBC20206F034
:10AF80007F03576817EBC301A3D00A7912F01004AE
:10AF90000CD037F83340844200F0C180E00905EB63
:10AFA000C00504F07F006C6804EBC004023A1C2A60
:10AFB0008FD801A050F822F077B00200D3AE020083
:10AFC00073B00200F5B00200BFB00200D3AE0200C1
:10AFD000D3AE0200D3AE0200CDB00200D3AE020069
:10AFE000DBB00200D3AE0200E9B00200D3AE020033
:10AFF000D3AE0200D3AE0200D3AE0200D3AE020045
:10B00000D3AE0200D3AE0200D3AE0200D3AE020034
:10B01000D3AE0200D3AE020003B10200D3AE0200F1
:10B0200011B10200D3AE0200FDB0020004463CF0B4
:10B03000FEFD484581D1B9F1000F99D0601E0AF19B
:10B04000FF3212F8014F10F8011F8C427FF475AFE8
:10B050009045F6D18CE70468E0880834E9E7046895
:10B060002046002CE5D03CF0E2FDE2E79FED2E0B00
:10B07000704757F833100AA8FDF742FB9DF82830B7
:10B08000013B032B3FF625AFDFE803F0130C05026D
:10B090009DED0C0B1FE7DDE90C013AF0A9FE41EC38
:10B0A000100B18E7DDE90C013AF0AAFE41EC100B99
:10B0B00011E70C983AF07AFE41EC100B0BE717F809
:10B0C00033003AF051FE41EC100B04E757F833001F
:10B0D0003AF04AFE41EC100BFDE657F833003AF027
:10B0E00053FE41EC100BF6E608683AF05FFE41ECC7
:10B0F000100BF0E657F833100831BCE794ED000B65
:10B10000E9E6D4E900013AF073FE41EC100BE2E607
:10B11000D4E900013AF074FE41EC100BDBE60024A8
:10B1200044E700BFAFF30080000000000000000013
:10B130002DE9F04F00F10C02034607CAD3E901469E
:10B140008FB001AB83E80700002C74D093E80700B0
:10B15000257904AB202D83E807006CD107AB0AAF3B
:10B1600083E8070087E807008246002863D020882C
:10B170004FF6FF7840455ED0D6F82C90C20909EB17
:10B18000C20200F07F03506810EBC30053D04FF0B1
:10B19000010B0B9EC588BBF1000F10D145454AD06D
:10B1A000EB0909EBC30305F07F05586810EBC500F8
:10B1B00041D08BF0010BC588BBF1000FEED00379B5
:10B1C000042B56D0052B50D0022B39D0002EE5D1C0
:10B1D0004FF6FF7085422ED0EB0909EBC30305F053
:10B1E0007F055C6814EBC50125D00B7913F01002C4
:10B1F0000DD034F83520824200F09780D00909EB59
:10B20000C00902F07F00D9F8042002EBC002023B23
:10B210001C2B10D8DFE803F0360F34595D0F0F0FE9
:10B22000640F6B0F720F0F0F0F0F0F0F0F0F0F0F1A
:10B23000780F7F0F86009FED3E0B0FB0BDE8F08FBB
:10B2400004463CF0F4FC8642A8D1002EC0D00AF19E
:10B25000FF33601E9A1901E09A42B9D013F8014FEA
:10B2600010F8011F8C42F7D098E70468E088083492
:10B27000E9E70468002CA9D020463CF0D8FCE2E7BE
:10B2800054F835103846FDF73BFA9DF82830013B5D
:10B29000032BD0D8DFE803F0130C05029DED0C0B57
:10B2A000CBE7DDE90C013AF0A3FD41EC100BC4E75C
:10B2B000DDE90C013AF0A4FD41EC100BBDE70C9860
:10B2C0003AF074FD41EC100BB7E754F83510083133
:10B2D000D8E714F835003AF047FD41EC100BACE725
:10B2E00054F835003AF040FD41EC100BA5E754F856
:10B2F00035003AF049FD41EC100B9EE708683AF042
:10B3000055FD41EC100B98E7D2E900013AF070FDD1
:10B3100041EC100B91E7D2E900013AF071FD41ECEC
:10B32000100B8AE792ED000B87E700226FE700BF62
:10B3300000000000000000002DE9F04F85B004ACD3
:10B3400004E90E00DDF80480B8F1000F47D0008852
:10B350004FF6FF76B04242D00E9BD3F82C90C20934
:10B3600009EBC20200F07F03506810EBC30036D037
:10B37000029DB0F806B06F1E4FF0010A4744BAF1C3
:10B38000000F12D1B3452AD04FEADB1309EBC303F8
:10B390000BF07F0B586810EBCB0020D08AF0010A2D
:10B3A000B0F806B0BAF1000FECD00379042B31D01D
:10B3B000052B2BD0022B16D0002DE3D14FF6FF73B7
:10B3C0009B450CD04FEADB1309EBC3090BF07F0B55
:10B3D000D9F8040000EBCB0005B0BDE8F08F0020E9
:10B3E00005B0BDE8F08F04463CF021FCA842C9D16D
:10B3F000002DE3D0601E08F1FF3313F8011F10F891
:10B40000012F9142BED19F42F7D1D7E70468E0886F
:10B410000834EBE704682046002CE7D03CF007FC3A
:10B42000E4E700BF2DE9F04184B0064604A800E936
:10B430000E003068DDE90187A8B17D1E4544C38850
:10B44000BB420DD1002F56D008F1FF33C21D01E0E1
:10B45000AB4250D013F8014F12F8011F8C42F7D0C5
:10B4600000680028EBD1B7F5803F4AD20A9B2E4AEC
:10B470001B681B68934207F1090046D130F074FD48
:10B4800000283ED00123C780838000F108054FB318
:10B4900000F10C0108F10402954238BF884507F11C
:10B4A000FF3336D3072B34D927F0030444444346F3
:10B4B0002A4653F8041B42F8041BA342F9D1BA07E9
:10B4C00027F003030ED018F80320EA545A1C9742C1
:10B4D00008D9023318F80210A9549F4202D918F86B
:10B4E0000320EA54074400233B7233680360306052
:10B4F00004B0BDE8F08183880133838004B0BDE8E7
:10B50000F081002004B0BDE8F08101460A98984718
:10B51000B6E74344C21D08F1FF3818F8011F02F8CE
:10B52000011F9845F9D1DDE7D1750200437DDBB1FC
:10B53000037D202B12D8DFE803F01F111111111128
:10B5400011111115151111151111111111111111DF
:10B550001111111111111111111115000123037392
:10B56000002070470023437503695A1C02611B7851
:10B57000037501224275DCE7037B002B14BF022018
:10B58000012070472DE9F04F437D85B00446002B24
:10B5900000F0FD80057DDFF878B300221346627568
:10B5A0000092CBB1267D0023B54263751DD0002EDD
:10B5B00000F0E9805C2E20D067686FB1A168FB883D
:10B5C000994200F0B0800F440131A1603E72637D6A
:10B5D000E7E7C2F30903009323695A1C22611E782E
:10B5E00026750023B5426375E1D16368002B14BF53
:10B5F0000020042005B0BDE8F08F2269511C2161B4
:10B600001178217501206075002900F0BC80752932
:10B6100010D0BD4A2F2304E012F8023F002B00F0A7
:10B62000AE808B42F8D15678002E00F0A88000231F
:10B630006375C1E7911C637521615378237560754B
:10B64000002B00F0A080402B86BF23F02003A3F145
:10B650003701A3F13001C8B20F2800F29080002119
:10B66000D31C6175236191782175012363750029CD
:10B6700000F08980402986BF21F020013739303918
:10B68000C9B20F297BD80026131D66752361D378B4
:10B690002375012641EA00116675002B73D0402BFB
:10B6A00086BF23F02003373B303BDBB20F2B66D83D
:10B6B00000206075501D20611279227543EA011344
:10B6C00001211BB26175002A5DD0402A86BF22F09D
:10B6D0002002373A303AD2B20F2A50D842EA031346
:10B6E0009AB202F5205189B20020B1F5806F1EB2E6
:10B6F0006075FFF46EAF02F510539BB2B3F5806F27
:10B700004FD37F2A00F2A1806768002F3FF464AF17
:10B71000A368FA88934200F0DA801F440133A360E3
:10B720003E72637D3DE7D4F800A04900DAF800904E
:10B7300001F10108B8F5803FD9F8003012D29B68BA
:10B74000724A934201F10A0140F0A28038463CF06F
:10B7500063F928B1A0F80680A1686060074632E767
:10B76000D9F800305B685B4517D1384630F016FCDD
:10B7700001238AF804300022637D626011E7032010
:10B7800005B0BDE8F08F022005B0BDE8F08F036979
:10B790005A1C02611D780575FDE6394648469847F2
:10B7A000E6E7C2F30903009A8DF8080043EA822312
:10B7B00003F58032C2F30531C2F3874242F0F0074D
:10B7C00003F03F02C3F3851361F07F0162F07F0253
:10B7D00063F07F038DF80B108DF80C708DF8092045
:10B7E0008DF80A300DF10D0808F1FF3808E01E440D
:10B7F0000133A360377218F8017D002F3FF4E7AEE4
:10B800006668002EF7D0A368F2889342EFD15A0001
:10B81000D4F800A002F10109B9F5803FDAF8003050
:10B8200028D21968886802F10A01384A9042844691
:10B8300045D1304601933CF0EFF8019BD0B1A0F820
:10B840000690A36860600646D1E706F03F0363F008
:10B850007F03B2F5006F8DF809308DF808004FEACC
:10B8600092131AD263F03F03DFB28DF80A700DF124
:10B870000B08B9E71A6852685A451CD1304630F0B7
:10B880008DFB00234FF001028AF804206360B2E7C9
:10B890000A464846394698475BE703F03F029B114A
:10B8A00062F07F0243F0E0078DF80A208DF80B70FC
:10B8B0000DF10C0898E7314618469047E1E70A4633
:10B8C00018460193314663469847019BB6E7D4F882
:10B8D00000905A00D9F8008002F1010ABAF5803FC1
:10B8E000D8F8003018D29B6808498B4202F10A024E
:10B8F0001FD1114638463CF08FF858B1A0F806A089
:10B90000A3686060074608E758B50600C1750200E5
:10B91000C9750200D8F800305B685B450DD1384628
:10B9200030F03CFB012389F804300022637D626023
:10B9300037E6394640469847DFE73946404698475C
:10B94000F0E700BF2DE9F04F427D8DB004460D4673
:10B95000002A76D0027D202A12D8DFE802F07A1180
:10B9600011111111111111707011117011111111AA
:10B970001111111111111111111111111111700069
:10B9800001217B2A217300F260815A2A42D9A2F157
:10B990005B01202900F25981DFE811F0C000570156
:10B9A00057015701570157015701570157015701D7
:10B9B00057011C0157015701570157015701570102
:10B9C00057012100570157015701570157013A010B
:10B9D0005701570157015701570157016400CF49DB
:10B9E0001346002001259A4240F0718111F8013F71
:10B9F0006075002B00F088812269561C2661127840
:10BA000022756575002AEED14FF0020840460DB050
:10BA1000BDE8F08F222A02D0272A40F01681636801
:10BA20000022A260002B00F047822046FFF7AAFD0B
:10BA3000804698B929462046FCF710FD0EE000220A
:10BA400062752269511C216112782275012161758C
:10BA500081E7237B002BD7D14FF0010840460DB082
:10BA6000BDE8F08FDEB220224FF0FF332A712B6049
:10BA7000002E00F04F8100232269637519460120D2
:10BA80001346013222611B7823756075202B00F26A
:10BA90008D8101A757F823F009BA0200ADBD02005D
:10BAA000ADBD0200ADBD0200ADBD0200ADBD0200E6
:10BAB000ADBD0200ADBD0200ADBD020025BF02005C
:10BAC00025BF0200ADBD0200ADBD020025BF0200D2
:10BAD000ADBD0200ADBD0200ADBD0200ADBD0200B6
:10BAE000ADBD0200ADBD0200ADBD0200ADBD0200A6
:10BAF000ADBD0200ADBD0200ADBD0200ADBD020096
:10BB0000ADBD0200ADBD0200ADBD0200ADBD020085
:10BB1000ADBD0200ADBD020025BF020040214FF0C7
:10BB2000FF32DBB229712A60002B00F0F380002184
:10BB300022696175084601261146013222610978A1
:10BB400021756675202900F2EF8001A757F821F0D2
:10BB500009BA020029BD020029BD020029BD020068
:10BB600029BD020029BD020029BD020029BD020035
:10BB700029BD020029BF020029BF020029BD020021
:10BB800029BD020029BF020029BD020029BD020013
:10BB900029BD020029BD020029BD020029BD020005
:10BBA00029BD020029BD020029BD020029BD0200F5
:10BBB00029BD020029BD020029BD020029BD0200E5
:10BBC00029BD020029BD020029BD020029BD0200D5
:10BBD00029BF020000232B70637D06212971002BF1
:10BBE00000F0BC81237D4E49002B3FF40DAF9A42FB
:10BBF0006DD111F8012F00236375002A00F08480B5
:10BC00002369581C20611B78237501206075EBE7C0
:10BC100001232B70637D06212971002B00F0A08188
:10BC2000237D4049002B3FF4EFAE9A424FD111F8EB
:10BC3000012F00236375002A66D02369581C2061F8
:10BC40001B78237501206075ECE700239E4604F104
:10BC50001B014FF0010C15E0392A03D902F0DF0077
:10BC6000452817D13F2B03F1010013D084F815E0CC
:10BC700001F8012F2269C3B2501C2061127822758D
:10BC800084F815C02F2AE7D82B2AA2F12D00E9D07D
:10BC90000128E7D9234400221A7704F11C0108A8DF
:10BCA000FCF72EFD9DF8208008F1FF33032B0ED802
:10BCB000DFE813F0130127011A011300392940F2BC
:10BCC00096805E2940F28E807A2940F290804FF073
:10BCD000030840460DB0BDE8F08FDDE90A6739463C
:10BCE00030463AF0B3FB82463AF060F802460B4623
:10BCF000304639463AF01AFB8146002800F0678149
:10BD00000E23C5F800A02B714FF0000840460DB07F
:10BD1000BDE8F08F4FF00508A0E600BF7CB5060037
:10BD200074B506006CB5060001225D29227339D076
:10BD30005E1E17464FF6FF79D4F8188008A84146D2
:10BD4000FCF7CAF90899002900F072816B88BDF8E8
:10BD500024204B4500F00981D8F82C004FEAD31C71
:10BD600000EBCC0003F07F03406800EBC303DA80F4
:10BD70006A8033464FF000022046FFF7E3FD80461D
:10BD800000287FF46BAE2046FFF7D0FB80460028EA
:10BD90007FF464AE637D002B00F0EE80237D5D2B8D
:10BDA00040F0D68000206075804657E601227D2B4A
:10BDB0002273F7D0DFF81493DFF814A30027636829
:10BDC000A760002B00F0F180637D002B00F0AE80B7
:10BDD000217D272900F0B480222900F0B1802F298D
:10BDE0003FF66CAFA1F14103192B3FF670AF4FF056
:10BDF000010867752046FCF7C9FB637D002B00F046
:10BE00001D81217D2F29A1F1410300F2C480192B4E
:10BE1000EFD96368002B00F00B812046FFF786FB0B
:10BE2000804600287FF41AAE637D002B00F0AB80C3
:10BE3000237D3A2B7FF44BAFD4E90132134467756D
:10BE40001F72D4E90132D4F818B08DF82870083385
:10BE500008930992CDF800B008AB0ECB2846FFF747
:10BE60006BFA59468046002800F0F880FCF7D8FBB2
:10BE70004146731E4FF000022046FFF763FD8046E7
:10BE800000287FF4EBAD2046FFF750FB80460028EA
:10BE90007FF4E4AD637D002B00F0D880237D7D2B03
:10BEA00080D02C2B7FF413AF67752046FFF73EFB45
:10BEB0008046002883D0D1E52668844A306803682C
:10BEC0001B68934240F0B780282030F04DF80028DE
:10BED00048D07F4B43606060A7E50A9A2A600E2332
:10BEE0002B714FF00008B9E5DDE90A67012F08BFA3
:10BEF000002E80F08D800A232E602B714FF00008F9
:10BF0000ACE5DDE90A9A19F100464AF10007012F74
:10BF100008BF002E6CD20C23C5F800902B714FF097
:10BF200000089BE56175ABE5607505E623695A1C61
:10BF30002261197821750123272963757FF44CAF9D
:10BF40002046FFF71FFB804600283FF466AF85E5DB
:10BF50002C2B7FF4BCAE00236375EDE65D494FE604
:10BF60005D496AE601233371B5E7002362F30F03ED
:10BF700062F31F432B60FCE623695A1C22611B7885
:10BF8000237567750BE723695A1C22611B7823759B
:10BF9000012262754DE739297FF62BAF5E297FF6C6
:10BFA00036AF7A297FF625AF33E7D4F80080D8F88A
:10BFB000000003681B684B4540F0828028202FF06A
:10BFC000D3FF002878D0C0F804A06060FCE6A16927
:10BFD00006A8FCF765F9069B002B3FF43FADBDF8C2
:10BFE0001C202A801E212971C846C3E9006735E557
:10BFF000A16906A8FCF754F9069BCBB1BDF81C203B
:10C000002A801C2129714FF00008C3E9009A25E518
:10C01000A16906A8FCF744F9069B4BB1BDF81C20AA
:10C020002A801A2129714FF00008C3E9006715E53D
:10C030004FF0040812E52821984748E723695A1C65
:10C0400022611978217584F81580DBE623695A1C72
:10C0500022611B7823750122627520E704A8FCF792
:10C060003BF8049B002BE3D0594606A80393FCF74A
:10C0700033F8DDF81880B8F1000FD9D0039BBDF874
:10C080001C10D9806A88BDF814004FF6FF7C624509
:10C0900019D0DBF82CC04FEAD21E0CEBCE0C02F00C
:10C0A0007F02DCF804C00CEBC202D0806980194624
:10C0B0002046FCF7D3F9DBE6012388F8043084E757
:10C0C000282198477DE728806980F0E7D175020034
:10C0D00001001F0074B506006CB506002DE9F04F95
:10C0E000038E9BB00746044657F80CBBADF80420FE
:10C0F000884600F1380903B30026C36AB2460BE054
:10C100002FF04CFFE36AC5F800A0208EC5F804A00C
:10C110000136B1B2884211D9B5B203EBC5056968E1
:10C1200008460029EFD0DBF80030374A5B689342BD
:10C13000E6D058469847E36AE5E7C36A00204FF621
:10C14000FF719F422086A1860BD0DBF800102E4D98
:10C150004E68AE424DD118462FF020FF0423E7620F
:10C160006386A16826680023237161B1264D336878
:10C170000A685B68A260AB4208462DD12FF00EFF23
:10C18000A1680029F3D1002584F83C509DF80530C2
:10C190008DF8185049464FF0000203A8CDE9045528
:10C1A0008DF821500394CDF81C800994FFF7CAFB49
:10C1B000054610B99DF82050A5B9049840B1039BDD
:10C1C00011491A6813685B688B4216D12FF0E6FE9E
:10C1D00028461BB0BDE8F08F30469847A16800297B
:10C1E000C5D1D0E794F83C5015F0080518BF0325D9
:10C1F000E3E719465846B047B0E70146104698476E
:10C2000028461BB0BDE8F08FC97502002DE9F04F3C
:10C21000002193B09448DFF878A21BF001F804E005
:10C22000013492482C601AF055FC8F498F48002247
:10C230001BF0C4F88046002800F00C818C4D2B6860
:10C24000C72B00F3048103A9884819221CF00AF8BF
:10C2500003A82E213BF018FD08B1002303702C68C1
:10C26000844BDFF830B204EB440204EB8202134447
:10C270000C220DEB020118463BF0F3FCDBF800202A
:10C280000026C72A0673CBDC7B4C7848214640F653
:10C29000FF721AF0BDFE002801DC2C68C0E7774F62
:10C2A00026543B8E3A68002B00F08D81CDF8048037
:10C2B000FB6A3446B14690460BE02FF06FFEFB6AF6
:10C2C000C6F80090388EC6F804900134A1B28842B6
:10C2D0000FD9A6B203EBC606716808460029EFD055
:10C2E000D8F800305B685345E7D040469847FB6A72
:10C2F000E6E74246DDF80480614C00213986A3421E
:10C300004FF6FF71B9860AD011684E68564540F065
:10C31000498118462FF042FE0423FC627B86B868F0
:10C320003C6800233B7158B1236802685B68BA60BF
:10C33000534540F084802FF031FEB8680028F3D1D7
:10C340000A238DF809300023029A4B494B4887F89D
:10C350003C30FFF7C3FEC0B200289ED197F83C30B6
:10C36000202B00F09B80402B97D13B8F4FF6FF7422
:10C37000A34292D0FE6ADA0906EBC20203F07F0301
:10C38000526812EBC30388D0DA88D309A24206EBC5
:10C39000C30302F07F0100F1010003D05B6813EBDF
:10C3A000C103F1D100283FF478AF364BDFF8E890B5
:10C3B0000D970AA84FF000080B260124CDE90E8343
:10C3C000CDF8309010968DF84440FEF755FD2E4B79
:10C3D000CDF830900AA8CDF8388010968DF84440FA
:10C3E0000D970F9357EC106BFEF746FD00220023CC
:10C3F0003046394659EC108B39F098FF40B1002295
:10C4000000234046494639F091FF00287FF445AFAC
:10C41000DBF800401D4B04EB440203EB021303A9BD
:10C420001F2218463BF01DFC621C0021C0E9086772
:10C43000C0E90A892C68CBF80020C177F0E60146F4
:10C4400020469847B86800287FF46EAF78E7074821
:10C450001AF040FB04481AF03DFB0420FDF75EFC97
:10C46000012013B0BDE8F08F2405012038E2002040
:10C470009C00012004F40020306C002058C30020F0
:10C4800064C3002084B5060090B50600E0090120D1
:10C49000C9750200602F012090C300203B8F4FF62A
:10C4A000FF7293423FF4F9AED7F82C90D80909EB0C
:10C4B000C00003F07F01436813EBC1033FF4EDAE0E
:10C4C000DE88B8F1000F14D196423FF4E6AEF109D0
:10C4D00009EBC10106F07F064B6813EBC6033FF47E
:10C4E000DCAE88F001085FFA88F8DE88B8F1000F4A
:10C4F000EAD0197904295DD0052957D00229E3D162
:10C5000018461C463BF093FB4FF6FF720728DBD121
:10C510002378632BD8D163786F2BD5D1A378752B73
:10C52000D2D1E378722BCFD12379732BCCD163791D
:10C53000652BC9D1A379732BC6D14FF6FF739E42E9
:10C540003FF4ABAEF30909EBC30306F07F065B686B
:10C5500013EBC6043FF4A1AE2279402A7FF49DAECE
:10C5600033F836304FF6FF7C63453FF496AEDA0978
:10C5700009EBC20203F07F03526812EBC3033FF4DE
:10C580008CAED9880026CA09614509EBC20201F0C8
:10C590007F0006F1010618D0536813EBC00314D0D6
:10C5A000D988F0E719461046B047B5E61C68E08820
:10C5B0000834ABE71C68002C86D020463BF037FBE4
:10C5C0004FF6FF72A2E7FB6A96E6002E3FF465AED7
:10C5D0000C4B0C940AA84FF000094FF00B080126F1
:10C5E000CDE90F38CDE90D798DF84460FEF744FCB4
:10C5F000054BCDF838900AA8CDF840808DF84460FE
:10C600000C94EDE684B5060090B5060030B51B4DE0
:10C610008BB031F085FD286804210BF039F9F8B1B1
:10C62000042300242B6031F085FD154A1549ADF82F
:10C630000440234601A88DF806401AF081FCB0B1F1
:10C64000114A124B14600E4911481C6022461AF020
:10C650007FFC60B1FFF7DAFD044620460BB030BD29
:10C66000044631F067FD2B6820460BB030BD042036
:10C67000FDF754FB002420460BB030BD04E1002040
:10C6800050C20600506500209C000120602F012050
:10C6900024050120F0B5424F424D3B882B789BB0DA
:10C6A000002B51D1032003F0FF06FDF71FFB0446CA
:10C6B00000283ED03C4B3D4A322168463BF0C4F94D
:10C6C0003B49ADF834606A460DA833468DF83660B4
:10C6D0001AF036FC002852D100234FF47A71354C01
:10C6E0000E93ADF844308DF846300F916A463049CC
:10C6F0000D9411A844F202231AF022FC9DF8444044
:10C70000002C36D03A882C4992B211A81AF052FF68
:10C71000044611A81AF0DEF90320FDF7FFFA3B8862
:10C720009BB2A3421DD0254925480F2223F0A0F932
:10C730000FE024490C22224823F09AF9224A234B85
:10C7400014701C701BB0F0BD21491D480E2223F04F
:10C750008FF91D491D4A00230B7013702B701BB0FD
:10C76000F0BD1C491648032223F082F9FFF74EFF63
:10C77000EFE70320FDF7D2FA10490F22DBE70C495F
:10C78000ADF8346001236A460DA88DF836601AF0C2
:10C79000D7FB0028A0D00DA81BF042FC9CE700BFEF
:10C7A000988C0020427C0020D48E0020ACB506007E
:10C7B0005065002080C00600987C0020B8B50600B7
:10C7C0007CE3002034B40600947C0020D18E00204D
:10C7D0009CB50600C8B5060070B5304D96B031F076
:10C7E0009FFC286803210BF053F860B9044631F030
:10C7F000A1FC2B492B482B680C2223F039F92A4B3A
:10C800001C7016B070BD032600242E6031F092FC1F
:10C81000264B274A322109A83BF016F92549ADF8E5
:10C82000004009AA234668468DF802401AF088FBAA
:10C830000546B8B11F49ADF8004009AA0123684672
:10C840008DF802401AF07CFBC0B90320FDF766FAB0
:10C85000194914480F2223F00BF9134B00221A70C8
:10C8600016B070BD3046FDF759FA14490D480C2238
:10C8700023F0FEF80C4B1D7016B070BD68461BF01F
:10C88000CFFB0028E1D03046FDF748FA0C490548B7
:10C89000324623F0EDF8FFF7B9FEDEE704E10020B1
:10C8A00034B406007CE300209C8E0020B88E00206B
:10C8B000ACB5060050650020B8B50600CCB5060042
:10C8C000C8B506002DE9F04F038E9BB0074604461D
:10C8D00057F80CBBADF80420884600F1380903B3C3
:10C8E0000026C36AB2460BE02FF058FBE36AC5F896
:10C8F00000A0208EC5F804A00136B1B2884211D93B
:10C90000B5B203EBC505696808460029EFD0DBF82E
:10C910000030374A5B689342E6D058469847E36A4E
:10C92000E5E7C36A00204FF6FF719F422086A1868B
:10C930000BD0DBF800102E4D4E68AE424DD118469C
:10C940002FF02CFB0423E7626386A168266800238E
:10C95000237161B1264D33680A685B68A260AB42FF
:10C9600008462DD12FF01AFBA1680029F3D100252C
:10C9700084F83C509DF805308DF8185049464FF02A
:10C98000000203A8CDE904558DF821500394CDF899
:10C990001C800994FEF7D6FF054610B99DF820507B
:10C9A000A5B9049840B1039B11491A6813685B68E4
:10C9B0008B4216D12FF0F2FA28461BB0BDE8F08F5B
:10C9C00030469847A1680029C5D1D0E794F83C507B
:10C9D00015F0080518BF0325E3E719465846B04788
:10C9E000B0E701461046984728461BB0BDE8F08FD7
:10C9F000C97502002DE9F04F002591B0B94B04959F
:10CA000016464FF47A7481462A4607A88A46B649E4
:10CA100005940096ADF81C508DF81E5003931AF043
:10CA200097FA9DF81C40002C00F01481AF4F40F2A3
:10CA3000FF12394607A81AF0EBFA064607A81AF0C3
:10CA400049F80420FDF76AF9002E54DDA84CBD55C5
:10CA5000238ED4F800B0002B52D0E36ADFF898821E
:10CA60002F4609E02FF09AFAE36A3760218E77604B
:10CA70000135AAB2914244D9AEB203EBC606716841
:10CA800008460029F1D0DBF800305B684345E9D067
:10CA900058469847E36AE8E7366830460EB13BF0FF
:10CAA000C6F8874240F0B08067B109F1FF33701ECD
:10CAB000DE1913F8011F10F8012F914240F0A480F5
:10CAC000B342F6D14FF6FF73984514D04FEAD8130E
:10CAD0000BEBC30B08F07F08DBF8042012EBC80156
