:020000022000DC
:107000000000042051BF060091BF060093BF060098
:1070100095BF060097BF060099BF0600000000005C
:10702000000000000000000000000000CDBE0600CF
:107030009DBF060000000000EDBE0600A1BF0600D7
:10704000ADC10600A3BF060035960600B5D8040002
:107050006DD90400A3BF06000D990600A3BF06006A
:10706000A3BF0600A3BF0600A3BF0600A3BF060080
:10707000A3BF0600A3BF0600A3BF0600A3BF060070
:10708000A3BF06001DBC0600A3BF0600A3BF0600E9
:10709000A3BF0600A3BF060035FD0500A3BF060081
:1070A000A3BF0600A3BF060045B20300A3BF0600AE
:1070B000A3BF0600A3BF0600000000000000000000
:1070C000A3BF0600A3BF0600A3BF060095C7060026
:1070D000A3BF0600A3BF0600A3BF0600BD83050033
:1070E000A3BF0600A3BF0600A3BF06000000000068
:1070F00000000000A3BF0600000000000DC806004D
:10710000000000000000000000000000000000007F
:10711000000000000000000000000000000000006F
:10712000000000000000000000000000000000005F
:10713000000000000000000000000000000000004F
:10714000000000000000000000000000000000003F
:10715000000000000000000000000000000000002F
:10716000000000000000000000000000000000001F
:10717000000000000000000000000000000000000F
:1071800000000000000000000000000000000000FF
:1071900000000000000000000000000000000000EF
:1071A00000000000000000000000000000000000DF
:1071B00000000000000000000000000000000000CF
:1071C00000000000000000000000000000000000BF
:1071D00000000000000000000000000000000000AF
:1071E000000000000000000000000000000000009F
:1071F000000000000000000000000000000000008F
:10720000F1EE103A43F08073E1EE103A704700BFA0
:1072100010B5054C237833B9044B13B10448AFF3D0
:1072200000800123237010BDEC66002000000000E8
:10723000E4F9070008B5034B1BB103490348AFF35A
:10724000008008BD00000000F0660020E4F907009F
:10725000154B002B08BF134B9D46A3F5803A002128
:107260008B460F461348144A121A4DF08FFB0F4BF2
:10727000002B00D098470E4B002B00D098470020E1
:10728000002104000D000D48002802D00C48AFF387
:1072900000804DF0BBFA2000290044F0B1FE4DF013
:1072A0008FFA00BF0000080000000420000000006A
:1072B00000000000EC660020B4AC012000000000DB
:1072C00000000000BFF34F8F0549064BCA6802F467
:1072D000E0621343CB60BFF34F8F00BFFDE700BFF9
:1072E00000ED00E00400FA0535DF704733DF70473A
:1072F0003CDF70473DDF704741DF704711DF70476B
:1073000012DF70470020704701207047012070474E
:10731000704700BF704700BF704700BF704700BF95
:10732000024B02F001021A70704700BF257C00205A
:1073300070B50446C0694E4D4CF02AFB4AA3D3E910
:1073400000234CF08FFB02460B46A069C5E90023E1
:107350004CF01EFB44A3D3E900234CF083FB94EDD7
:107360000F7AB4F84C30DFED437A9FED435A9FED2E
:10737000434ADFED434AF8EEC75A94ED107A06EE21
:10738000103AF8EEC76A94ED0A7AB8EE466AB8EE9B
:10739000477A66EEA76A65EE845A26EE246A27EEDF
:1073A000057AC5ED055A85ED066AC5ED076A85EDD6
:1073B000087AE37DD4ED097A6B62237DF8EEE77AF3
:1073C000012B88BF637DC5E9020167EE857A8CBF1A
:1073D00003F001030023C5ED047A85F82830E37A31
:1073E00003F00302A2F10300B0FA80F0C3F38001BE
:1073F0004009032A85F82A0085F82B1003F00403BE
:107400002DD1003B18BF0123A28885F82930A2F5B1
:10741000FA63AB85A37985F82E30E37985F82F30B0
:10742000237A85F83030637A85F83130A37A85F88D
:1074300032302268134B1449144C1548A3FB0263E5
:1074400001260E709B094FF47A7101FB132321680A
:107450000268AB86314432442160026070BD002373
:10746000D2E700BFAFF3008048AFBC9AF2D77A3EB4
:10747000181E0120ACC527376F12833AA8C8FE3A00
:107480000AD7233CD34D6210501E0120681E0120F4
:10749000541E0120024B034AC3F800260120704706
:1074A000000001403546526E024B0349C3F80016F6
:1074B00010467047000001403546526E704700BFCD
:1074C000037C13F0080306D0C36A406A181A48BF49
:1074D0006FF0004070471846704700BF2DE9F84F25
:1074E0004AB3C2F3080315462BBBDFF85480DFF81C
:1074F0005490012306460F4688F800304FEA522A7E
:107500000324D9F8680403683A46D3F814B0314626
:107510005346D847013C20B914F0FF04F1D14FF095
:10752000FF3542F05FFA054A0023106088F800300A
:107530002846BDE8F88F4FF0FF35F9E7086C0020CA
:10754000EC7C0020086700202DE9F84F4AB3C2F315
:10755000080315462BBBDFF85480DFF85490012355
:1075600006460F4688F800304FEA522A0324D9F81D
:10757000680403683A46D3F824B031465346D847E6
:10758000013C20B914F0FF04F1D14FF0FF3542F077
:1075900029FA054A0023106088F800302846BDE823
:1075A000F88F4FF0FF35F9E7086C0020EC7C0020E5
:1075B0000867002010302DF0A1BA00BF10302DF068
:1075C00001BB00BF00B583B00B4601220DF10701DE
:1075D00010308DF807302DF0F5FA03B05DF804FB9C
:1075E00000B587B00346064A684618214EF0C4F835
:1075F000694682B2034836F04FF907B05DF804FBE4
:10760000EC910700C01D012010302CF0F3BF00BF2B
:1076100000B583B001220DF1070110302CF018FFE6
:1076200001280CBF9DF807004FF0FF3003B05DF854
:1076300004FB00BF084642F017BA00BF08461146D7
:107640004EF082B8084642F0F5B900BF10B50E4CB6
:1076500084B0227801A8092118F056FC237802335F
:107660002370024670B1094B1B7803F0FF004BB149
:10767000074B1B7803F0FF0023B1064892B201A923
:1076800036F00AF904B010BD7EE70020487C0020E7
:10769000257C0020507D00202DE9F0434779402FC4
:1076A0003946A1B028BF40219FB30023E9464A468E
:1076B0009C461F46054603EB4304AE7A167000EB6A
:1076C00084040133247C14F0080FC4F3C00818BFED
:1076D000013782F801805FFA83FE05F10C0502F1A3
:1076E000020218BFFFB21EB10CF1010C5FFA8CFC54
:1076F0007145E0D8084B094C1F70094A84F800C056
:10770000484610231AF0FAFB064B187021B0BDE86A
:10771000F083BC46E946EDE7811E0120801E012072
:10772000701E01206C1E0120174BDB68D90110B5BB
:1077300003D5164B1A68D2071FD443F06BFB144BCA
:10774000A0FB0301830A43EA8153124912480A68E5
:1077500000689A1A90420FD810480B6002781049BE
:107760000132097802F00F02914209D001780D4CE4
:10777000C9B244F82130027010BD5B689B09E4E790
:10778000094B01221A7010BDF0ED00E0001000E07E
:1077900040420F003C3F012074610020843F0120E3
:1077A000863F0120443F0120853F012038B5104C21
:1077B000104DD4F8680403680122DB692A709847E9
:1077C00094F82430DB070CD400224FF0FF3384F808
:1077D0002420236342F006F9074A002310602B702F
:1077E00038BD04F124002FF0BFFE0028ECD1F1E7F2
:1077F00008670020EC7C0020086C002070B58AB07F
:107800001F22014600921B4802ABFF2236F0DAFD30
:107810000D2804D8184B1B783BB30AB070BD044642
:10782000014602A81AF022FD0028F3D0134E144896
:107830003578102C28BF1024E4B2224602A900EBB0
:1078400005104DF07BF8EDB20E4B5C5542F0CAF8D6
:107850000D4C0E4A44F82500012185EA01035155DB
:107860003370054B1B78002BD7D1024836F090FDC2
:107870000AB070BD988A0120036C0020046C0020BF
:10788000E4E6002004E7002080E70020E4E7002091
:1078900010B5034B036004461CF010FC204610BDDD
:1078A0004CA6070008B50D4B1B7813B10C4B58685C
:1078B00008BD0C4BDB68D90106D5094B1A68D20705
:1078C00002D55868800908BD43F0A4FA064BA0FB16
:1078D0000301830A43EA815008BD00BFF66B002014
:1078E000001000E0F0ED00E040420F000F49097881
:1078F00002290AD1F8B50E4E0E4F3578EDB21C466E
:107900007B5D0BB9202C01D9F8BD70470A481146A0
:1079100000EB451022464DF011F80848E3B24355FC
:10792000012185EA010279553270F8BD211A012042
:10793000247C002044F800203CE700207CE7002065
:10794000F0B5234B234E0446002914BF1946314697
:10795000214887B041F026F8204B1B68A3422DDD5B
:107960001F4B04EB440403EB041420464DF0F7FFD7
:1079700021460546132201A84EF00BF800271648B1
:107980008DF8177001A941F00DF9132D04D8124894
:1079900041F0E8F807B0F0BD31460F4841F002F879
:1079A00004F11301132201A84DF0F3FF01A90A48C5
:1079B0008DF8177041F0F6F807B0F0BD0949064898
:1079C00041F080F8044841F0CDF807B0F0BD00BFA9
:1079D000F8910700D4A20700841B0120043B01207A
:1079E000483B0120FC91070070B5124C124A134B22
:1079F0002260002647F260006360C4F8886344F0A8
:107A00003FFB0F4B0F4D93ED000B324621460446D2
:107A100026F00AFF0C4B2C6093ED000A204627F05D
:107A2000ABFA0A4B286893ED000ABDE8704027F0D6
:107A3000B9BA00BFE015012004920700B8BF0700E3
:107A4000C0620020141B01207C63002078630020AA
:107A5000F8B51D4B1B78022B04462CD01B4B1C4A3F
:107A60001C480027214601261F70167038F05AF96D
:107A7000054636F08BF82846F72136F09FF8284661
:107A8000022136F0C3F83A463946284636F09EF8C9
:107A900041F0A8FF104FDFF858C01049104A0346C4
:107AA000CCF800303C801B230E7028461380BDE8C4
:107AB000F84036F06DB80B4A0B490C4B1080012092
:107AC000002208701A70F8BD211A01206CC2002033
:107AD000E4190120FC830120DEC60020BA9E0020AC
:107AE000FC6000206C610020487C0020257C002088
:107AF00068C20020234A13884FF6FF719BB28B4265
:107B0000F0B403D013889BB298422DD01E4B1B7843
:107B1000022B29D01D4B1E4F1E4C1F491F4E1A7899
:107B20001F48204D00233B701B27378023700B70AC
:107B30001D4C1E4903701E482B7023701D4D0B7089
:107B40001D4C1E49037017202B70237008801C4B9E
:107B50001AB900221A70F0BC70471A78002AF8D0BF
:107B6000184A01211170F4E713889BB29842F2D1B0
:107B7000154C164900234FF6FF7023701080F0BC9F
:107B80000B7070476C610020211A0120DC19012064
:107B9000BA9E002060A2002002A20020FC6000200B
:107BA000C1C6002001A2002084C60020057E00205E
:107BB000E4190120221A012081C2002084610020E2
:107BC0006CC20020E2C60020487C0020257C0020FA
:107BD0002DE9F04F4948037CABB0002B40F08A8080
:107BE0004748037C002B40F081804648037C002BF3
:107BF00078D14548037C002B70D10024322041F01D
:107C0000FDFE424E424A43490194234604A84FF4E4
:107C10007A75ADF810408DF81240029500962CF060
:107C2000AFFB9DF81000002855D03B4D2B68132B5F
:107C300049DC3A4FDFF8E88005E011A82CF06AF93A
:107C40002B68132B3FDC4FF47A73002204A911A890
:107C50000F930E94ADF844408DF846400D962CF0ED
:107C6000B5FE9DF8443040221AA911A85BB32EF04E
:107C700003F99DF8443013F0D00F1AA8DDD14DF070
:107C80006EFE03461AAA0638062B39461044D4D98C
:107C90004DF00AFE81460028CFD1D5F800A00AEBAE
:107CA0004A0B08EB0B1B1AA92F2258464DF071FE08
:107CB0000AF1010311A82B608BF82F902CF02AF900
:107CC0002B68132BBFDD04A82CF024F928680028AA
:107CD000D4BF002001202BB0BDE8F08F10302CF075
:107CE00019F98AE710302CF015F982E710302CF0E2
:107CF00011F97AE710302CF00DF971E7143B0120EF
:107D00006C1C0120903F0120C43F01207CA607008D
:107D10000C92070008670020043B01201092070026
:107D2000483B012010B5094C2368013309D1084AAA
:107D3000136803F59C5308334FF0FF311360216043
:107D400010BD41F04FFE034B1860F0E7C862002001
:107D5000DC1B01208838012010B5074C43F046FF9A
:107D6000206804211AF098F908B100232360BDE8C7
:107D7000104043F045BF00BF481B012038B50568DF
:107D80000A4A0446286803681B6893420BD12820DE
:107D900041F050FE18B1064B4360606038BD0123CE
:107DA0002B71606038BD28219847F3E745760200C3
:107DB00001001F0081682DE9F0470568044669B19C
:107DC000284E2B680A685B68A260B34208463DD122
:107DD00041F04AFEA1680029F3D12568238E04F101
:107DE0000C0903B30027E36ADFF878A0B8460BE07C
:107DF00041F03AFEE36AC6F80080218EC6F804809E
:107E00000137BAB291420FD9BEB203EBC606716810
:107E100008460029EFD02B685B685345E8D0284618
:107E20009847E36AE7E7E36A00214FF6FF72994556
:107E30002186A28607D02A680A4952688A420BD155
:107E4000184641F011FE2046BDE8F08728469847C5
:107E5000A1680029B5D1C0E72846194690472046B9
:107E6000BDE8F0873576020081682DE9F0470568A6
:107E7000044669B1284E2B680A685B68A260B34269
:107E800008463DD141F0F0FDA1680029F3D12568F5
:107E9000238E04F10C0903B30027E36ADFF878A00E
:107EA000B8460BE041F0E0FDE36AC6F80080218EA1
:107EB000C6F804800137BAB291420FD9BEB203EBC3
:107EC000C606716808460029EFD02B685B685345E9
:107ED000E8D028469847E36AE7E7E36A00214FF6CF
:107EE000FF7299452186A28607D02A680A495268FE
:107EF0008A420BD1184641F0B7FD2046BDE8F08715
:107F000028469847A1680029B5D1C0E728461946F8
:107F100090472046BDE8F0873576020081682DE95C
:107F2000F0470568044669B1284E2B680A685B680B
:107F3000A260B34208463DD141F096FDA1680029F8
:107F4000F3D12568238E04F10C0903B30027E36AFB
:107F5000DFF878A0B8460BE041F086FDE36AC6F88A
:107F60000080218EC6F804800137BAB291420FD941
:107F7000BEB203EBC606716808460029EFD02B6835
:107F80005B685345E8D028469847E36AE7E7E36A29
:107F900000214FF6FF7299452186A28607D02A68F4
:107FA0000A4952688A420BD1184641F05DFD2046CD
:107FB000BDE8F08728469847A1680029B5D1C0E7F9
:107FC0002846194690472046BDE8F08735760200DE
:107FD0002DE9F04F87B006AB03E90300049D002DA7
:107FE00000F00E812888059A4FF6FF73984200F042
:107FF0001081D2F82C90C10909EBC10100F07F0279
:10800000486810EBC20000F004819B460379C688E3
:10801000202B4FF0000840F0EE80B8F10A0F00F07E
:10802000EE8007885F4500F0DE81FB0909EBC303A2
:1080300007F07F025D680292FB0915EBC20503930E
:1080400000F0EC80B5F806A00195434601272C46C8
:10805000B04655461E468FB95D4500F0DC80EA0902
:1080600009EBC20205F07F05546814EBC50400F06B
:10807000D28087F00107E588002FEDD02279042A0D
:1080800000F08681052A00F07F81022AE4D1204693
:108090004DF065FC0428DFD122786E2ADCD16278AD
:1080A000612AD9D1A2786D2AD6D1E278652AD3D1B6
:1080B0002B4632465B454646019D904610D0D80976
:1080C00009EBC00003F07F03406810EBC30307D047
:1080D0001B79181F012840F2A680022B00F0A38014
:1080E000B34BB44A42F83830039B029A09EBC30AF7
:1080F000DAF8043013EBC20764D0B7F806A0019792
:1081000001233C461F4643465546B0461E468FB99E
:108110005D4500F0D080EA0909EBC20205F07F0559
:10812000546814EBC50400F0C68087F00107E588A9
:10813000002FEDD02279042A00F02181052A00F0D9
:108140001A81022AE4D120464DF009FC0C28DFD127
:108150002278642ADCD16278612AD9D1A278742A83
:10816000D6D1E278652AD3D122795F2AD0D162793B
:10817000632ACDD1A279722ACAD1E279652AC7D100
:10818000227A612AC4D1627A742AC1D1A27A652A7C
:10819000BED1E27A642ABBD132465D453B464646B3
:1081A000019F90460ED0EA0909EBC20205F07F0557
:1081B000546814EBC50505D02A79111F01297ED911
:1081C000022A7CD07A4B7B4A02EBC8025E4508F15A
:1081D000010853605FFA88F512D0F30909EBC30375
:1081E00006F07F06586810EBC60009D00379C688F0
:1081F000202B3FF412AFB8F10A0F40F0CE80454675
:108200006D4A6C48294616F0E1FA284607B0BDE8E9
:10821000F08F0025F4E7334646469846654B644A9E
:1082200043F8382060E79FB9DA4500F0CE804FEA86
:10823000DA1309EBC3030AF07F0A5D6815EBCA0580
:1082400000F0C38087F00107B5F806A0002FEBD03F
:108250002B79042B00F0B280052B00F0A480022BB8
:10826000E2D128464DF07BFB0428DDD12B786E2B24
:10827000DAD16B78612BD7D1AB786D2BD4D1EB7879
:10828000652BD1D1DA4500F0A0804FEADA1309EB73
:10829000C3030AF07F02586810EBC2033FF421AF1A
:1082A0001979042900F0AF80052900F0A88002297F
:1082B00018BF002315E733464646984682E71C461A
:1082C0009CB9DA4500F08D804FEADA1209EBC20260
:1082D0000AF07F0A576817EBCA0700F0828084F023
:1082E0000104B7F806A0002CEBD03B79042B72D028
:1082F000052B6CD0022BE4D138464DF030FB0C2816
:10830000DFD13B78642BDCD17B78612BD9D1BB7872
:10831000742BD6D1FB78652BD3D13B795F2BD0D191
:108320007B79632BCDD1BB79722BCAD1FB79652BBD
:10833000C7D13B7A612BC4D17B7A742BC1D1BB7A74
:10834000652BBED1FB7A642BBBD1DA4549D04FEA0D
:10835000DA1309EBC3030AF07F0A596811EBCA0369
:108360003FF431AF1A79042A46D0052A40D0022AB8
:1083700018BF002327E72468E0880834E6E624686D
:10838000002C7FF4E0AEC3E62468E088083481E680
:108390002468002C7FF47BAE5EE6064B044A43F86B
:1083A000382013460FE72D68E88808355CE700BFE2
:1083B000B8BF070004610020F86B00202D68002D75
:1083C0007FF44FAFDA457FF432AF002389E63F6890
:1083D000F888083793E73F68002F8DD1DA457FF49E
:1083E00073AF0023EFE6094B094A43F83820E9E66A
:1083F00051F83A300833E6E651F83A30E3E650F8FF
:10840000323008336DE650F832306AE604610020FD
:10841000B8BF07002DE9F84F074641F0E3FA314DA8
:10842000DFF8CC90DFF8CCB0DFF8CCA0064645F002
:108430000105D9F800301C68204644F053FE03467D
:108440004FF003084FF4FA406BB9B8F1010F3CD07C
:10845000A847204644F046FE034608F1FF384FF493
:10846000FA40002BF1D0DBF80030D3F80080404612
:1084700044F038FE034603244FF4FA405BB9012C64
:1084800023D0A847404644F02DFE0346013C4FF45C
:10849000FA40002BF3D0144B1B68D3F80080404601
:1084A00044F020FE034603244FF4FA405BB9012C4C
:1084B0000BD0A847404644F015FE0346013C4FF45C
:1084C000FA40002BF3D0BDE8F88F41F08BFA801B07
:1084D000B842F8D2054B0A20C3F800A641F08EFA44
:1084E000A7E700BF90AC07009061002000000140AA
:1084F000886100208C6100203546526E38B5124BE1
:10850000124A1B7852F82050044643B1104B5A6867
:108510001048521B2146BDE8384019F0BFBA0E4B37
:10852000DB68D90106D50A4B1A68D20702D55A680A
:108530009209EDE742F06EFC084BA0FB0301830AB1
:1085400043EA8152E4E700BFF66B0020C8A1002097
:10855000001000E070F80020F0ED00E040420F0055
:108560002DE9F04FDFF8F490344AD9F800300026B6
:10857000B34283B016702ADD4FF0FF33DFF8E0809E
:10858000DFF8E0B02E4F01934FF0000A97ED0A3B61
:1085900097ED082B98ED021B98ED000B17F0F4F9FE
:1085A00055EC104B5B4610EE100A524629464BF034
:1085B000CBFC3837D9F8003010B1A246AB46019653
:1085C0000136B342E2DC019B1A46013220D1002180
:1085D0001C4D1D4B002428461C7015F08DFB2A787D
:1085E0001A4B042A1C600ED9194C23685A1C1DD141
:1085F000184A2360136803F59C5308330120136065
:1086000003B0BDE8F08F6FF00A03114C9B1AEFE73F
:10861000C3EBC30A0A4B094803EBCA010C224DF015
:10862000B8F9064A002313730121D1E741F0DAF9C2
:10863000094A4FF0FF331060DAE700BF041B012046
:1086400088460120C0610020FC1A012094380120D6
:10865000C8620020DC1B01208838012048720120FC
:10866000181E0120000014402DE9F047038E8146BA
:10867000054659F80CABFBB10026C36ADFF8A080B1
:10868000374609E041F0F0F9EB6A2760298E676010
:108690000136B2B2914210D9B4B203EBC40461689E
:1086A00008460029F1D0DAF800305B684345E9D08C
:1086B00050469847EB6AE8E7C36A00214FF6FF721D
:1086C00099452986AA860CD0DAF80020144C526805
:1086D000A24221D1184641F0C7F90423C5F82C90D5
:1086E0006B86A8682E6800232B7158B10C4C336838
:1086F00002685B68AA60A34206D141F0B5F9A86898
:108700000028F4D1BDE8F087014630469847A868B4
:108710000028ECD1BDE8F087194650469047DCE7C9
:1087200035760200008830B44FF6FF74A0421AD0AC
:10873000CD6AC20905EBC20200F07F03506810EB5E
:10874000C30011D0C2880020D309A24205EBC303A5
:1087500002F07F0100F1010006D05B6813EBC1035A
:1087600002D0DA88F0E7002030BC70472DE9F041F4
:108770008B8E4FF6FF72934282B00C46054616D0A0
:10878000CA6AD90902EBC10203F07F01526832F8CC
:108790003100A08602EBC10200204FF6FF7110717C
:1087A00028462A60AB80D18002B0BDE8F081098EF6
:1087B0002768002932D1638E002B00F085800123C9
:1087C000E66A5A4A23864FF480604FF080083B687F
:1087D0001B68934274D141F02DF9238EE76A7060D3
:1087E000013B9BB207EBC30100284A6808BF4FF06A
:1087F00000080020A6F80080708022B137F83360AE
:10880000488886422ED8012100224FF6FF73284661
:1088100021712A60AB8002B0BDE8F081E66A4B1E90
:108820009BB206EBC30E3046DEF804202AB1BEF838
:1088300002C036F83380E0451CD8638E994223D0BD
:108840003A4A4B1C9BB2B3F5007F00EBC10623866E
:1088500015BF4FF480604FF47E704FF080084FF0EA
:108860007F08B4E700EBC313441C9BB202EBC002C9
:108870004C8091E70CEBC3130CF101019BB202EBAE
:10888000CC02AEF8021087E7B3F5007FBBD004F14D
:108890000C025B0096421FFA83F83B6816D024480E
:1088A0009B6883424FEAC80135D130464CF04CFFFB
:1088B0000028A8D01D4A218EE062A4F83280C0E7CB
:1088C00001463846984788E7E66AE0E7174A1B689A
:1088D000019293424FEAC80022D141F0ABF8019ACD
:1088E000002890D0D6F800C07168B368D6F80CE0C4
:1088F000C0F80CE0C0F800C041608360D6F810C03A
:108900007169B369D6F81CE0C0F81CE0C0F810C06B
:1089100041618361CFE70A46384631469847C7E749
:10892000014638469847019ADAE700BF45760200CB
:108930003D7602002DE9F0418B8E4FF6FF72934297
:1089400082B00C46054611D0CA6AD90902EBC102B1
:1089500003F07F01526832F83100A08602EBC102B9
:1089600028462A60AB8002B0BDE8F081098E2768F6
:10897000002932D1638E002B00F085800123E66A46
:10898000594A23864FF480604FF080083B681B688B
:10899000934274D141F04EF8238EE76A7060013B38
:1089A0009BB207EBC30100284A6808BF4FF00008DC
:1089B0000020A6F80080708022B137F83360488824
:1089C00086422ED8012100224FF6FF7328462171DE
:1089D0002A60AB8002B0BDE8F081E66A4B1E9BB214
:1089E00006EBC30E3046DEF804202AB1BEF802C002
:1089F00036F83380E0451CD8638E994223D03A4A3A
:108A00004B1C9BB2B3F5007F00EBC106238615BF5C
:108A10004FF480604FF47E704FF080084FF07F0875
:108A2000B4E700EBC313441C9BB202EBC0024C80C2
:108A300096E70CEBC3130CF101019BB202EBCC02E5
:108A4000AEF802108CE7B3F5007FBBD004F10C0246
:108A50005B0096421FFA83F83B6816D023489B6858
:108A600083424FEAC80135D130464CF06DFE0028F4
:108A7000A8D01D4A218EE062A4F83280C0E70146EA
:108A80003846984788E7E66AE0E7174A1B6801928C
:108A900093424FEAC80022D140F0CCFF019A00284F
:108AA00090D0D6F800C07168B368D6F80CE0C0F872
:108AB0000CE0C0F800C041608360D6F810C0716956
:108AC000B369D6F81CE0C0F81CE0C0F810C04161E2
:108AD0008361CFE70A46384631469847C7E70146E3
:108AE00038469847019ADAE7457602003D7602005B
:108AF0002DE9F04F958E4FF6FF739D4285B01446D9
:108B00000746884602F10C0B3BD0D36AEA0903EB17
:108B1000C20305F07F025E6836F83230A38606EBAA
:108B2000C2064FF6FF73F380A28E00219A42317184
:108B3000B1465CD0E36AD10903EBC10302F07F0ABE
:108B4000596831F83A30A38601EBCA0100234FF689
:108B5000FF700B71C880C8F80010F2807B888342D8
:108B600000F08380E16AD80901EBC00103F07F03C4
:108B7000496801EBC3034846DD807A8005B0BDE853
:108B8000F08F118E1568002975D1528E002A00F0E1
:108B90001F810123E66AC24A23864FF480604FF0AA
:108BA00080092B681B68934240F00A8140F042FF25
:108BB000258EE36A7060013DADB203EBC50200286B
:108BC000516808BF4FF000090020A6F8009070809F
:108BD00029B133F835305688B34200F297804FF010
:108BE000000901234846237105B0BDE8F08F208EAF
:108BF00023680193002862D1628E002A00F0EA8087
:108C00000123D4F82CA0A64A23864FF480604FF0AD
:108C1000800B019B1B681B68934240F0D58040F09D
:108C200009FF228ED4F82CC0CAF80400013A92B28F
:108C30000CEBC2030028596808BF4FF0000B00205E
:108C4000AAF800B0AAF802000029C8D03CF8320007
:108C5000B3F802A05045C2D90AEBC2120AF10100D2
:108C600092B201EBCA01588070E748463D807A8095
:108C700005B0BDE8F08FE36A4A1E92B203EBC20E64
:108C80001846DEF804602EB1BEF802C033F8329008
:108C9000E14543D8628E914254D0814A4B1C9BB22D
:108CA000B3F5007F00EBC106238615BF4FF480604B
:108CB0004FF47E704FF080094FF07F0971E7E36A4F
:108CC000421E92B203EBC20C9E46DCF804A0BAF13D
:108CD000000F06D0BCF80210029233F832208A420C
:108CE00026D8628E90424AD06D4A431C9BB2B3F59F
:108CF000007F0EEBC00A238615BF4FF480604FF44F
:108D00007E704FF0800B4FF07F0B82E706EBC515AE
:108D1000731CADB201EBC606538002E70CEBC21523
:108D20000CF10103ADB206EBCC06AEF80230F8E66A
:108D3000029A4B1C01EBC21292B20AEBC101ACF8D1
:108D4000023003E7B2F5007F3FF449AF52009B4584
:108D50001FFA82F940D02A685248966886424FEA44
:108D6000C90140F0918018464CF0EEFC00283FF419
:108D700036AF4B4A218EE062A4F832908EE7B2F50E
:108D8000007F3FF42CAF52001FFA82FA019A9B45F4
:108D900011684AD0D1F808B0424A93454FEACA0157
:108DA00077D118464CF0D0FC8646BEF1000F3FF458
:108DB00016AF3B4A208EC4F82CE0A4F832A094E70A
:108DC000014628469847F3E601460198984728E768
:108DD000E36ABBE7E36AD6E72968314A0E68964240
:108DE000CDE901324FEAC9005ED140F023FEDDE952
:108DF000013200283FF4F3AED3F800C05E689968F2
:108E0000D3F80CE0C0F80CE0C0F800C04660816008
:108E1000D3F810C05E699969D3F81CE0C0F81CE073
:108E2000C0F810C046618161A4E71D4AD1F800B0C6
:108E30009345CDE902324FEACA003BD140F0FAFD3A
:108E4000DDE902328646BEF1000F3FF4C8AE186875
:108E50005968D3F808B0D3F80CC0CEF80CC0CEF8DF
:108E60000000CEF80410CEF808B018695969D3F89C
:108E700018B0D3F81CC0CEF81CC0CEF81000CEF845
:108E80001410CEF818B095E70A4628461946B047A0
:108E90006CE70A4601981946D847864685E700BF21
:108EA000457602003D76020001462846B047DDE9DE
:108EB00001329EE701460198D847DDE90232864635
:108EC000C1E700BF2DE9F84307464068BD68032DA0
:108ED000884600F1080613D85FFA85FC002D77D08C
:108EE0000CF1FF3456FA84F4C31D002213F8011F5D
:108EF000002908BF42F00102A342F7D1002A40D066
:108F000000237355D7F80090BE68D9F80830A3B194
:108F100006F1070C8444DA8896420BD13EB3C21D99
:108F2000DC1D01E0944522D012F8011F14F8015F06
:108F3000A942F7D01B68002BEDD1B6F5803F7D68C4
:108F4000D9F8004034D2236828489B68834206F150
:108F5000090140D128464CF0F7FB034643B33A6879
:108F6000DE809168196000219360796002E09A8840
:108F700001329A800522C8F8003088F80420BDE844
:108F8000F883022388F80430037A88F80030BCF1B3
:108F9000010F08D0437A88F80130BCF1020F02D0EB
:108FA000837A88F80230002308F80530BDE8F8839A
:108FB00023680F4A5B68934213D02946204698479E
:108FC0003A6800239268012189F804101A60FFDED4
:108FD00002230B71E7E70A462046294698470346D5
:108FE000BCE7284640F040FDEAE700BF3D760200BE
:108FF000357602002DE9F04745684DB18368EA886F
:10900000934204460E4605D01D440133A3602E72E0
:10901000BDE8F0875B00D0F800905F1CB7F5803F9B
:10902000D9F8008012D2D8F800201549D2F808A04B
:109030008A4503F10A021CD1114628464CF084FBF4
:1090400020B1C780A36860600546DDE7D8F800302E
:109050000C4A5B68934208D1284640F005FD012286
:10906000002389F804206360D2E7294640469847E8
:10907000F5E729464046D0470028E2D1E6E700BFA1
:109080003D7602003576020003792DE9F0470C4663
:10909000D907054637D4DA0624D413F0600F1DD063
:1090A0002E884FF6FF77BE4215D0E36AF20903EB34
:1090B000C20306F07F09D3F8048008EBC900B2466A
:1090C000C6882146FFF7E0FFA38E28F83930BE425C
:1090D000A4F834A0E9D14FF0FF332B6000232B71AB
:1090E000BDE8F0872A884FF6FF718A4237D0E16ADF
:1090F000A68ED00901EBC00102F07F00496821F87B
:109100003060A286C9E7A0682A6826680028C2D015
:10911000824216D0014600680028BCD08242F9D1B4
:109120008288013A92B28280002AB4D103680B602F
:1091300033680C4A5B6893420CD140F095FC2B7964
:10914000A9E78288013A92B28280002AA3D10368FB
:10915000A360EDE70146304698472B799BE7002353
:109160001B80FFDE357602002DE9F04F89B008AB99
:1091700003E90300069B0093002B53D01B88019347
:109180009046079A0292DA0903F07F03DB0004930A
:10919000019B4FF6FF7AD200534503924FF0000532
:1091A00040D0029BD3F82C90039B09EB0302049B55
:1091B0005768FB18059335D0DE8800243146CA096C
:1091C000514509EBC20201F07F0004F1010405D012
:1091D000536813EBC00301D0D988F0E7AC4221D922
:1091E000009B1A79402A12D105B331462C4602E081
:1091F000013CD1881BD0C1F3CF10514509EBC00011
:1092000001F07F0203D0436813EBC202F0D19C4807
:1092100041464CF081FB002873D0019B534505F17A
:109220000105BED1002009B0BDE8F08F059A117983
:109230002029ECD114885445E9D0E20909EBC20297
:1092400004F07F01546814EBC104E0D00127B4F8A6
:1092500006B08FB9D345DAD04FEADB1309EBC3036D
:109260000BF07F0B5C6814EBCB04D0D087F00107C8
:10927000B4F806B0002FEDD02379042B5DD0052B78
:109280005FD0022BE6D120464CF069FB0428E1D1E7
:1092900023786E2BDED16378612BDBD1A3786D2B25
:1092A000D8D1E378652BD5D1D345B0D04FEADB10C8
:1092B00009EBC0000BF07F01406810EBC101A6D0A4
:1092C0000979081F012801D90229A0D1002D00F039
:1092D000CA8030462C4602E0013CD88835D0C0F325
:1092E000CF12504509EBC20200F07F0103D0536852
:1092F00013EBC103F0D1002041464CF00DFB0028D8
:109300008BD1CB46002D00F0B080B0464FF6FF71F8
:1093100003E0013DDA887AD09046C8F3CF13884540
:109320000BEBC30308F07F0203D05B6813EBC203AF
:10933000EFD1012009B0BDE8F08F2468002CA2D144
:1093400088E72468E0880834A0E7194608792028CF
:10935000D1D10C885445CED0E00909EBC00004F00F
:109360007F01446814EBC104C5D0B4F806B08FB9CE
:10937000D345C0D04FEADB1309EBC3030BF07F0BDF
:109380005C6814EBCB04B6D087F00107B4F806B0E4
:10939000002FEDD02379042B2ED0052B28D0022BC3
:1093A000E6D120464CF0DBFA0428E1D123786E2B7D
:1093B000DED16378612BDBD1A3786D2BD8D1E37834
:1093C000652BD5D1D34596D04FEADB1209EBC2020B
:1093D0000BF07F01546814EBC1003FF419AF027920
:1093E000042A11D0052A0BD0022A18BF00200FE74B
:1093F0002468E0880834D7E72468002CD1D1B7E787
:1094000054F83100083003E754F8310000E7059DB7
:109410009D421C462CD0019F4FF6FF7107E05B6810
:1094200003EBC003A34209D03746DE881D46F3098B
:109430008E420BEBC30306F07F00F0D10197EA8068
:109440004FF6FF739A4208BFDDE90032029D08BF64
:109450005A8020462946FFF717FEAB8E2380012055
:10946000A5F8348066E7059970E7DDF80480059C6F
:10947000009B1E804FF6FF7332460193E0E700BF6A
:10948000B8BF07002DE9F04F0E46097885B02B29AB
:10949000009000F0FD802D2940F0B8807178012007
:1094A00001900644A1F13000C0B2092800F2B68054
:1094B000DFF8F893C0B20021002400254FF099385E
:1094C00016F801BF2418ABF13007FFB241EB0505D8
:1094D0004FEA850E092F6FEA07024FF0FF334FEA7C
:1094E000840C4EEA947EF8B24FF0000100F21E8127
:1094F000A94508BFA0450BD31CEB040C4EEB050E91
:109500001CEB0C044EEB0E05AB4208BFA242D7D2B7
:109510004FF0000A0023204629460A224AF048FF5D
:10952000A946A0461FFA8AF3B9F5200F03F1010AF4
:1095300008BFB8F1000F04460D460FFA8AFAE9D2C7
:10954000092F0BD802339B1B06EB030A16F801BF49
:10955000ABF13002092A0FFA8AFAF5D9BBF12E0FC6
:1095600000F0B6800BF0DF03452B60D0BBF1000F9D
:1095700056D10AF126034C2B00F2FC80002D08BFC7
:10958000B4F5000F80F0F68007EE904ABAF1000FB4
:10959000F8EEE77A40F36481BC4B1AF0010F1CBF70
:1095A00093ED007A67EE877A5FEA6A0223D0D007EC
:1095B00044BF93ED017A67EE877A5FEAAA021AD078
:1095C000D10744BF93ED027A67EE877A5FEAEA0239
:1095D00011D0D20744BF93ED037A67EE877A5FEA32
:1095E0002A1A08D0BAF1010F0CBF93ED047A93ED5B
:1095F000057A67EE877A019B0BB1F1EE677A009AE4
:109600000123C2ED027A137010460DE00020019094
:10961000A1F13000C0B209287FF64AAF2E2953D0FD
:10962000009A00231370104605B0BDE8F08F96F83D
:1096300001B0BBF12D0F36D0BBF12B0F00F0F08045
:10964000ABF13003DAB2092A06F101068ED80AEB33
:109650000302B2F59A7F00F3D780002706E002EB01
:10966000400303EB0A02B2F59A7F79DC16F801BFDA
:10967000ABF13002D1B2092903EB8300EFD9002FFF
:1096800040F0C7809A44BBF1000F3FF472AFC7E7C8
:10969000717800200190A1F13000C0B2092806F1D4
:1096A0000106BBD804E796F802B0ABF13003DAB29A
:1096B000092A06F102063FF659AF0AEB0302B2F59A
:1096C0009A7F4FDC0127D1E7002400254FF0000AE4
:1096D00096F801B0ABF13000C0B2092806F10106DE
:1096E0003FF640AF6A4B4FF099329D424FEA8501F9
:1096F00008BF94424FEA840741EA94710ED23F19A1
:1097000045EB010117EB070841EB01090AF1FF3AAC
:1097100018EB00040FFA8AFA49F1000516F801BFA8
:10972000ABF13000C0B20928DFD91BE7BBF1000F55
:1097300040F0D280019B8BB1B5F1004F08BF012CE6
:10974000BFF4E6AE644265EB45050223009A10467D
:10975000C2E90245137005B0BDE8F08F0323F5E7B9
:10976000002F51D000994FF00042012308468A6033
:109770000B7059E7204629464AF03EF9BAF1000F2E
:1097800079DD444C1AF0010F7AD15FEA6A032DD0DB
:10979000DF0700F18D805FEAAA0327D0DE0700F122
:1097A0008C805FEAEA0321D0DD0700F18B805FEA5D
:1097B0002A131BD0DA0700F18A805FEA6A1315D0FA
:1097C000DB073ED45FEAAA1310D0DF073ED45FEA7E
:1097D000EA130BD0DE073ED45FEA2A2306D0DD076A
:1097E00044D45FEA5A231CBF2B490020019B13B1CC
:1097F00001F100431946009A0423C2E90201104610
:10980000137005B0BDE8F08F019B0020BBB1234968
:10981000F1E7AAEB030ABBF1000F3FF4AAAEFFE6A3
:1098200096F802B0ABF13003DAB2092A06F102066B
:109830007FF60DAFBBF1000F3FF49BAEF0E6184989
:10984000D9E7D4E90A234AF00DF9BBE7D4E90C23A0
:109850004AF008F9BBE7D4E90E234AF003F9BBE765
:10986000CAF1000A3FF4C7AE0E4B96E6D4E91023C6
:109870004AF0F8F8B5E7CAF1000AB7D00A4C81E718
:10988000D4E900234AF0EEF87FE700BFE8A607001E
:109890009999010048A707000000F87F0000F0FF39
:1098A0000000F07FD0A6070000A70700999999193A
:1098B000D4E902234AF0D6F86DE7D4E904234AF04C
:1098C000D1F86EE7D4E906234AF0CCF86FE7D4E983
:1098D00008234AF0C7F870E7B5F5801F08BF002CD1
:1098E000BFF416AE4FF0000A38E600BF10B58AB0DC
:1098F00000240A460123014601A8ADF804408DF872
:1099000006402AF03DFD08B90AB010BD01A82BF0B1
:109910008FFE0AB010BD00BF38B5234C206800BBD5
:10992000224C2068E0B125F019FB002835D12068D1
:1099300025F0FEFAA0B1206825F0FAFA28F06EFCB6
:109940001B4A1368B3F57A7F0ADA48B119490C68E3
:10995000A04205D0184C086044F82300013313607E
:1099600038BD29F08FFC154B1A688242F8DA104D89
:10997000186040F037F82B68114AB3F57A7F106011
:10998000EEDA20680B4C29F097FC2B680A4920601E
:109990005A1C41F823002A6038BD206825F0DAFA05
:1099A0002AF0B2F9CCE700BF383F0120141B012098
:1099B000442E0120542E0120A41E0120343F0120FA
:1099C0000C3B012010B5064C206838B125F0C6FAD2
:1099D00020B92068BDE8104025F0AABA002010BDCB
:1099E000141B012010B5064C206838B125F0B6FADA
:1099F00020B12068BDE8104025F0ACBA002010BDB1
:109A0000141B012070B5584B584D93F8322093F831
:109A1000300093F82F1093F8314094B0049293F8EB
:109A20002E20CDE90204CDE9002106A8504A9B8DE5
:109A300018214BF0A1FE2A68002A3DD04D4B4E491B
:109A40001878002808BF0B46002106ACCDE910119C
:109A50004A480C940E934A4C4A4B13910D94129021
:109A60000F93104629F02CFC2C681090002C50D03D
:109A7000204629F0B5FC2A68434C444B1190002A3B
:109A800008BF1C46424A434B126800924FF4806163
:109A90000CAA4148139415F075F900213F482AF0AB
:109AA000C7FE3D493D484FF480622BF08BF83B48A0
:109AB0002BF024F814B070BD394C2068002837D042
:109AC00025F020FA374E03462068002B18BF1E46AB
:109AD00025F048FA002306A92A680C91CDE9103335
:109AE00027491393254B0E960F900D911293002A40
:109AF000B7D1206800282CD025F030FA48BB206868
:109B000025F016FA28B328F08DFB2C681090002C55
:109B1000AED1234E306818B325F020FAB0B93068C2
:109B200025F006FA044688B128F0F6FB2A68A3E778
:109B300006AB1C4A0C931C4B114E10491090CDE9FA
:109B40000E23119013900D961291D2E72A682046A9
:109B500092E7FFF747FF002886D02AF0D7F883E77F
:109B60000A4C11908EE700BF181E0120383F0120DB
:109B700040920700243F012038920700286300200C
:109B800048630020901901203092070028920700B6
:109B9000442E0120A41E01205CFD0020601B01203A
:109BA000141B012018920700B8BF0700114B18685A
:109BB00008B129F08DBB10B50F4C2068B8B125F065
:109BC000CDF938B9206825F0B3F918B1BDE81040D7
:109BD00028F008BB206850B125F0C0F938B12068E2
:109BE00025F0B8F918B1BDE810402AF071B800208E
:109BF00010BD00BF383F0120141B0120034B186823
:109C000008B129F03BBBFFF7D1BF00BF383F0120AF
:109C1000114B186808B129F05FBB10B50F4C2068D4
:109C2000B8B125F09BF938B9206825F081F918B151
:109C3000BDE8104028F0DABA206850B125F08EF95E
:109C400038B1206825F086F918B1BDE810402AF037
:109C500043B8002010BD00BF383F0120141B012075
:109C6000114B186808B129F00DBB10B50F4C2068D6
:109C7000B8B125F073F938B9206825F059F918B151
:109C8000BDE8104028F0DCBA206850B125F066F934
:109C900038B1206825F05EF918B1BDE810402AF00F
:109CA0001FB8002010BD00BF383F0120141B012049
:109CB000114B186808B129F023BB10B50F4C206870
:109CC000B8B125F04BF938B9206825F031F918B151
:109CD000BDE8104028F0B8BA206850B125F03EF930
:109CE00038B1206825F036F918B1BDE810402AF0E7
:109CF00011B89FED030A10BD383F0120141B01204D
:109D00000000000038B51D4B1B68044663B10128F4
:109D100021D0022824D0032801D0002038BD1846C5
:109D2000BDE8384029F04CBB154D28680028F4D018
:109D300025F014F90028F0D1286825F0F9F800285A
:109D4000EBD0012C11D0022C13D0032CE5D1BDE8AF
:109D5000384028F0DDBA1846BDE8384029F028BB65
:109D60001846BDE8384029F027BBBDE8384028F048
:109D7000C7BABDE8384028F0C7BA00BF383F012055
:109D8000141B012038B51D4B1B68044663B1012824
:109D900021D0022824D0032801D0002038BD184645
:109DA000BDE8384029F018BB154D28680028F4D0CC
:109DB00025F0D4F80028F0D1286825F0B9F800285B
:109DC000EBD0012C11D0022C13D0032CE5D1BDE82F
:109DD000384028F091BA1846BDE8384029F0F4BA66
:109DE0001846BDE8384029F0F3BABDE8384028F0FD
:109DF0007BBABDE8384028F07BBA00BF383F01206D
:109E0000141B01202DE9F041604B196800298AB02C
:109E10002DDD5F4B0093012929D003F1A80202290F
:109E2000019224D003F5A872032902921FD003F5F2
:109E3000FC72042903921AD003F5287205290492B2
:109E400015D003F552720629059210D003F57C72E5
:109E5000072906920BD003F593620829079206D0D2
:109E600003F5A863092908931CBFA8330993684622
:109E700018F02AFB061E5BDB464FA82303FB067384
:109E800093F89040002C4FD0434C206818B142F01A
:109E9000FBF800232360414D286818B142F0F4F824
:109EA00000232B604FF44F5042F0EAF83C4BA824BB
:109EB00004FB067493ED000B0021804628F058FA4D
:109EC00094ED063B94ED042B94ED021B94ED000BF6
:109ED0004046C5F8008028F0B9FF94ED223B94ED90
:109EE000202B94ED1E1B94ED1C0B286829F028F8FC
:109EF00094F84030002B3DD1A82303FB067393F860
:109F000068205ABB286829F09FF9286829F08AF947
:109F100020B1286829F08AF9044670B9286808B188
:109F200042F0B2F800242C6020460AB0BDE8F0816F
:109F3000002420460AB0BDE8F0811A4D1A49C6EB4C
:109F40000616314428460E224BF023FD174A002303
:109F50002046AB7313600AB0BDE8F08193ED183B67
:109F600093ED162B93ED141B93ED120B286829F03B
:109F7000DDF8C7E794ED0E3B94ED0C2B94ED0A1B36
:109F800094ED080B286829F057F8B5E7003B01204D
:109F900089400120F83F0120141B0120383F012097
:109FA000C0620020243F01204C720120343F012078
:109FB0001B491C4A70B501231B4D0B7013700446DE
:109FC0003FF010FD19491A4A2B680C70106003B15C
:109FD00070BD184B1C68002CFAD1174E174A184B4D
:109FE000C6F8884347F26000C6E9002342F048F80B
:109FF000144B314693ED000B2246044624F014FC2A
:10A00000114B2C6093ED000A204624F0B5FF0F4B56
:10A01000286893ED000ABDE8704024F0C3BF00BF7C
:10A02000093B0120681C0120141B01200A3B012070
:10A030000C3B0120383F0120E0150120049207006D
:10A04000B8BF0700C06200207C6300207863002056
:10A0500070B5284D284C2B78002B41D0237C002B49
:10A060003CD1264C41F0C2FD2068012118F014F8C3
:10A0700008B100232360224E41F0C2FD214B30681D
:10A0800000241C702C7010B141F0FEFF34601E4C97
:10A09000206818B141F0F8FF002323601B4D1C4AD3
:10A0A0001C481D4B1D491E4E00242C60147004706A
:10A0B0001C4D1D4A1D481C701D4B0C702C601460FB
:10A0C000046021461B4834704FF0FF354FF47A622C
:10A0D0001D604AF05BFC184B1C6070BDFFF792FCE2
:10A0E000237C002BBDD015482AF008FD134829F029
:10A0F00011FFB6E70A3F0120501B0120481B012039
:10A10000141B0120681C0120383F0120343F01202E
:10A110008C3F0120093B01200A3B0120A01E0120A9
:10A12000243F01209C1E0120442E0120542E01209A
:10A13000CC620020A41E0120883F0120601B01206A
:10A14000374B1B78002B4DD010B5364C2378013B94
:10A15000012B86B047D90021334A344B127834485A
:10A160001B6800788DF80410A2F10402B2FA82F2A2
:10A1700052098DF805208DF806002BB12D4B1B6878
:10A18000002BD4BF002301232B4A8DF8073001A9EF
:10A190001368029303A815F09FFC9DF80C40FCB9CE
:10A1A0003FF020FC254A264B1268801A984217D9A6
:10A1B0009DF80D301BBB234B1A784AB33FF012FCBD
:10A1C000214A049B1268801A984209D39DF81430E2
:10A1D00013B11E4B01221A70FFF73AFFFDF7A2FDE3
:10A1E00006B010BD7047134B186815F06FFC58B9D6
:10A1F0002178013901298CBF00210121ACE7114AE6
:10A20000114B14701C60EBE7032323700021A3E7BC
:10A2100001221A703FF0E6FB0B4B1860E0E700BF2D
:10A22000093B01200A3B012010F80020383F0120A3
:10A23000651E0120403F0120981E01200C3B01209B
:10A240001FBF0200A01E01209C1E012013A200209F
:10A2500038B5354D2B6801335DD1344B1B78002B5D
:10A2600059D1334B33491B68334A9B680C681268D9
:10A27000324992680868191B0029C8BF1C46111B87
:10A2800083680029C8BF14461A1B002AC8BF1C4691
:10A290003FF0A8FB40F6B733001B98423BD9284B50
:10A2A0001B68B3F5FA7F1ADC264B93ED007AF2EEC9
:10A2B000047AB4EEE77AF1EE10FA2CDB2249234A55
:10A2C00001230B7013703FF08DFB214B2149224A73
:10A2D0001B68086002211170F3B1052314E01A49CC
:10A2E0001A4A01230B7013703FF07CFB184B19497D
:10A2F000194A1B6808600321117023B9174B1B68AA
:10A300000BB9FDF771FB0623154A2B60136803F5A3
:10A310009C530833136038BD104B1B68002BDCD1F5
:10A32000FDF762FBD9E700BFC8620020E4190120F5
:10A3300088610020883801208C6100209061002015
:10A34000403F0120981E0120093B0120681C01208C
:10A35000141B01200C3B01200A3B0120383F012047
:10A36000DC1B012030B5374C23680F33042B87B03A
:10A3700001D907B030BD3FF035FB334D01462846CB
:10A3800013F0E8FF0028F4D0304A314B1268196806
:10A390008A4204D02F4991F8280000282FD13FF09D
:10A3A00021FB0146284813F0D5FF0128E1D03FF0FA
:10A3B00019FB0146244813F0FDFF2A78042A11D81E
:10A3C00021686FF00A039B1A8B4232D0224A002187
:10A3D0001160224A2360136803F59C53083313600D
:10A3E00007B030BD2368013323D01B4B00221A6015
:10A3F0003FF0F8FA1A4A4FF0FF331060E9E791EDA9
:10A40000000B91ED021B91ED082A1A608DED040BF3
:10A410008DED001B8DED032A3FF0E4FA9DED001B4E
:10A4200001469DED040B9DED032A284613F04EFFD7
:10A43000B5E70A4A136803F59C530833136007B065
:10A4400030BD00BFC8620020C0610020681E01202E
:10A45000001B0120181E012094380120DC1B012064
:10A460008838012070B51C4D8AB000242846089415
:10A47000CDE90244CDE90444CDE90644CDF82340BA
:10A4800032F0D6FB02462846019232F0D3FB1F265B
:10A49000019A014602A84AF051FA02A9324628461A
:10A4A00032F0CAFB3C352146324602A84AF06EFA29
:10A4B000284632F0BDFB0190284632F0BBFB019AE2
:10A4C000014602A84AF03AFA324602A9284632F07A
:10A4D000B3FB0AB070BD00BF3C8A01202DE9F041FA
:10A4E0001E4D2B784BB901210C2042F059FDBDE8DF
:10A4F000F04101210C2042F0D7BD1948002132F073
:10A50000D5FB174832F098FC164835F0CBFBE0B984
:10A51000144EDFF85880144F0524304635F0C2FB46
:10A52000034632202BB1C8F800763FF067FA013CB1
:10A53000F3D12B78002BD6D00A48002135F088FBC8
:10A540000848002135F088FBCDE7064835F0DEFBF2
:10A550000146044835F0C4FBDAE700BF201A0120A9
:10A560003C8A0120FC8301203546526E00000140E8
:10A570002DE9F047544E554D3768D7F800804046D6
:10A5800042F0B0FD034645F0010503244FF4FA40C4
:10A590005BB9012C74D0A847404642F0A3FD0346A6
:10A5A000013C4FF4FA40002BF3D001237B71484F5C
:10A5B000464DD7F80080D8F80090484642F092FD0A
:10A5C000034645F0010503244FF4FA405BB9012C22
:10A5D00066D0A847484642F085FD0346013C4FF44B
:10A5E000FA40002BF3D0012388F80530DFF8EC9017
:10A5F000364DD9F80080D8F800A0504642F072FDE0
:10A60000034645F0010503244FF4FA405BB9012CE1
:10A6100022D0A847504642F065FD0346013C4FF466
:10A62000FA40002BF3D0012388F8053033681B79FA
:10A630003BB1284A136803F59C5308331360BDE807
:10A64000F0873B681B79002BF3D1D9F800301B79D8
:10A65000002BEED1BDE8F0873FF0C4F998F8053043
:10A66000002BE3D01C4BD8F808201B68801A9842B6
:10A67000DCD33FF0B7F9A8F80440C8F80800D5E7E4
:10A680003FF0B0F97B79002B91D0134BBA681B686F
:10A69000801A98428BD33FF0A5F9BC80B86086E75A
:10A6A0003FF0A0F998F80530002B9FD00A4BD8F85E
:10A6B00008201B68801A984298D33FF093F9A8F8B5
:10A6C0000440C8F8080091E78861002090AC0700BA
:10A6D0008C610020DC1B01207C6100209061002047
:10A6E000424B1B682DE9F0411E68414D304642F057
:10A6F000F9FC034645F0010503244FF4FA405BB929
:10A70000012C0BD0A847304642F0ECFC0346013C3C
:10A710004FF4FA40002BF3D0002600E02646354BDC
:10A72000334D1B681F68384642F0DCFC034645F099
:10A73000010503244FF4FA405BB9012C0BD0A84764
:10A74000384642F0CFFC0346013C4FF4FA40002B60
:10A75000F3D0002500E02546274B254F1B68D3F892
:10A760000080404642F0BEFC034647F00107032448
:10A770004FF4FA405BB9012C0AD0B847404642F08A
:10A78000B1FC0346013C4FF4FA40002BF3D0002407
:10A790009EB11A4E3378DBB165B1194D2B78F3B108
:10A7A00024B1184C23785BB1BDE8F081154B1C70C7
:10A7B000BDE8F081124B1D70F2E7104B1E70EBE705
:10A7C0003FF010F9104A012310602370BDE8F081BA
:10A7D0003FF008F90D4A012310603370DCE73FF0C9
:10A7E00001F90B4A012310602B70D9E78861002022
:10A7F00090AC07008C61002090610020DD1A0120E0
:10A80000E41A0120EC1A0120F01A0120E01A0120BC
:10A81000E81A012038B50F4A0F4B126819688A42AE
:10A8200015D00E491A6000230B6001220C4C0D4B11
:10A83000204600251A70E57637F034FA20460121CB
:10A8400036F05CFF4FF00113C4E9045338BD002219
:10A85000ECE700BFC86200205C2E01209438012084
:10A86000841B0120103B012038B504460130094DFE
:10A8700007D0094A2C60136803F59C530833136012
:10A8800038BD2B680133F4D03FF0ACF8034B1860AF
:10A89000EFE700BFC8620020DC1B012088380120E0
:10A8A0001A4A13680E2B28D00D2B15D0083312D05E
:10A8B000174B184993ED007A0B68F1EE047AB4EE69
:10A8C000E77AF1EE10FA03F59C5394BF0B200A20AF
:10A8D000083310600B6070470F4B10491A680B6803
:10A8E000013A9A420B4A14BF013300230B601368EC
:10A8F00003F59C5308331360704706490B6803F552
:10A900009C5308335A200B6010607047C8620020C7
:10A91000981E0120DC1B0120186300204C1B012025
:10A92000F8B51B4D1B4F1C4E1C4C1D491D4A1E48A3
:10A9300000233B7033702B701C4D23700B701C4C2C
:10A9400013701C491C4A2B701C4D236013600B8034
:10A950001B4C1C49027C2B604FF0FF3525600B809F
:10A9600092B9194C237803B9F8BD184D41F03EF95E
:10A970002868032117F090FB08B100232B6041F0F9
:10A980003FF900232370F8BD103029F0C3FAE8E73F
:10A99000E17C00208DE70020287C0020077E00203D
:10A9A000067E0020277C002008E700208CE700209E
:10A9B00054F8002058F80020E47C0020A49E0020D9
:10A9C000B8600020F46B0020E6E70020481B01205F
:10A9D0000378462B01D00020704710B54378572BE1
:10A9E000044627D1144908224AF0C1FF08B90120C2
:10A9F00010BD1249062220464AF0B9FF0028F6D0C1
:10AA00000F4920464AF088FF0028F0D00D49204623
:10AA10004AF082FF0028EAD00B4920464AF07CFF2A
:10AA20000028E4D0094920464AF076FFB0FA80F0C9
:10AA3000400910BD002010BD609207006C92070015
:10AA4000749207007C920700849207008C920700A2
:10AA50002DE9F04362498DB0082204464AF087FF91
:10AA600000284CD15F4F3B7803F0FF06002B51D1FB
:10AA7000083420462C214AF042FF00284AD000F139
:10AA8000010948462C214AF03AFF0546002841D0EA
:10AA900020460A2231464BF037FFA5EB0903082B6D
:10AAA00080464AD1D9F80000D9F8041002AB03C39C
:10AAB00002A801A98DF8106014F068F800283CD0B5
:10AAC00008F1FF33B3F5CC2F56D26878013590B139
:10AAD000DFF85C9173264BF021FF044630464BF0C3
:10AAE0001DFF844207D115F8010F00285DD019F829
:10AAF000016B002EEFD13C48FCF772FD0DE03B49A5
:10AB0000062220464AF033FF50B9364B1B78012B02
:10AB1000DDB218D03648FCF763FD0DB0BDE8F08318
:10AB2000344920464AF0F8FEC8B92E4B1B78022B58
:10AB3000F0D1314B01221A70EFE73048FCF750FD9D
:10AB40000DB0BDE8F08301460A22A01D4BF0DCFEEB
:10AB50002B4B1B6883420FD12A4B1D70DDE72A491E
:10AB600020464AF0D9FE68B91E4B1B78032BD1D181
:10AB7000264B01221A70D0E72548FCF731FD0DB0B5
:10AB8000BDE8F083234920464AF0C6FE48B1224979
:10AB900020464AF0C1FE0028BFD1204B01221A7086
:10ABA000BBE71F4B01221A70B7E799F80030002B62
:10ABB000A1D1134B1B4A0198C3F8008005A90123BA
:10ABC0003B70106013F0ACFF174A05AB08A81021CA
:10ABD0004AF0D2FD08A982B2144832F05DFE9CE72B
:10ABE000609207008DE70020A89207006C92070092
:10ABF0009492070074920700E17C00209C92070069
:10AC0000087E0020287C00207C920700077E002020
:10AC1000A0920700849207008C920700277C0020F6
:10AC2000067E0020E87C0020B0920700C01D0120B5
:10AC3000BD9207000000000083490978012900D077
:10AC400070472DE9F0411C469CB0804B1546CEB2B2
:10AC5000412200210BA81E7049F098FE402C22468C
:10AC6000294628BF40220BA849F068FE0BA84AF0ED
:10AC700076FE431E70B10BAA754F1A4412F80119E3
:10AC80000A39C9B227FA01F016296FEA000003F168
:10AC9000FF3310D96F4F3B78BBB16F490BA805222A
:10ACA0004AF065FE60BB062C2AD86C4B01221A7054
:10ACB0001CB0BDE8F08110F00100EBD1591C5070C0
:10ACC000DCD1644F3B78002BE7D1DFF8E88198F8BE
:10ACD0000030022B73D0402C00F2828060490422A5
:10ACE0000BA84AF044FEB0B95E4C237803F0FF0590
:10ACF000002B4BD05C495D48042232F0CDFDD7E7F4
:10AD00005B4E338814FA83F3B3F5005F49DD594B8A
:10AD100001221A70CCE7584904220BA84AF027FEFA
:10AD2000D8B1564907220BA84AF021FE002840F06E
:10AD3000C7809DF83330202B0DF1330003D110F87C
:10AD4000013F202BFBD0182114F00CFB98B94C4983
:10AD50004C48092232F0A0FDAAE79DF83030202BA4
:10AD60000CA803D110F8013F202BFBD0182114F0C0
:10AD7000F9FA002834D03B4C237803F0FF052BB1BF
:10AD800039494048042232F087FD91E73E4B40228A
:10AD90000BA918464AF0FDFD012280F840502270B0
:10ADA00086E73A4B3088294613FA80F0224649F06C
:10ADB000C5FD338814FA83F39BB2338078E7082CFF
:10ADC00014D833490BA84AF0A7FD20B131490BA88C
:10ADD0004AF0A2FD50B921460BA8FFF739FE67E7FC
:10ADE0002D492848052232F057FD61E798F80030D8
:10ADF000022B7FF45DAF294B1A7802F0FF00002A86
:10AE00007FF456AFDFF8B080254AD8F8007012689A
:10AE10002744974200F2C480224A234ED2F800C051
:10AE2000318814FA81F1B1F5805F40F2BF80DFF81C
:10AE30008CC0DCF80010013100F0CA801B4A1C49AC
:10AE4000116001221A7033E7211A01206CC2002020
:10AE50000900400060A20020C4920700C1C6002083
:10AE6000DC920700057E0020C4970700F81C012033
:10AE700064C2002001A20020E4920700EC920700C7
:10AE8000F4920700C01D0120A07C002064A20020D5
:10AE90007492070084920700D49207008CE7002088
:10AEA000087E002054F8002058F80020E47C0020A0
:10AEB000CC9207008DE70020A49E0020B8600020FF
:10AEC000A7490BA84AF028FD00285CD0A549052217
:10AED0000BA84AF04CFD002855D0A34905220BA829
:10AEE0004AF045FD00284ED0A0490BA84AF014FDB9
:10AEF000002848D09E490BA84AF00EFD00287AD0C1
:10AF00009C490BA84AF008FD002874D09A490522F4
:10AF10000BA84AF02CFD002800F0AA8097490622D1
:10AF20000BA84AF024FD002800F0A28094490522D5
:10AF30000BA84AF01CFD002800F0CD8091490622A4
:10AF40000BA84AF014FD002800F0C5808E490522A8
:10AF50000BA84AF00CFD002800F09D808B490622CA
:10AF60000BA84AF004FD002800F0958088490BA842
:10AF70004AF0D2FC00284BD00BA8FFF729FD00288F
:10AF80003FF496AE27E7834C237803F0FF050BB917
:10AF9000814BFCE681498248052232F07DFC87E640
:10AFA000804A8149116001221A7081E67F4B03EBD0
:10AFB0000C333088294613FA80F0224649F0BEFC53
:10AFC0003388C8F8007014FA83F39BB233806FE6BD
:10AFD0003188DFF818E2754B89B2AEF800101168BD
:10AFE000CCF80010116881F0010111603080126806
:10AFF00003EB0233DDE76E4C237803F0FF05002BF3
:10B000003FF4C4AE6B496648092232F045FC4FE676
:10B01000694B186848F0CEFC03AE04460D4645EC7B
:10B02000104B3246022104203EF0C6FC48A3D3E96F
:10B0300000232046294648F05DFB47A3D3E90023BF
:10B0400048F010FD48F0BEFF6428A8BF642020EA45
:10B05000E0735A4A0096182105A84AF08DFB05A80E
:10B060004AF07DFC05A982B24D4832F015FC1FE67E
:10B070009DF82D30532B0CBF062005200BAB184438
:10B08000182114F06FF90028B5D14D4944480D221C
:10B0900032F002FC0CE64B4D2B7803F0FF07002B3F
:10B0A000B0D19DF82D30532B3ED00DF13104204608
:10B0B000182114F057F90028E7D021463E46424BAC
:10B0C000424C1822184626704AF063FC00210122E7
:10B0D00001762A70ECE53B78002B93D13C4B1D7830
:10B0E000002D8FD19DF82D30532B27D00DF1310439
:10B0F0002046182114F036F90028C6D021462E46E5
:10B10000344C354B354D1E70182220464AF041FC18
:10B11000334E3448344900230122338023762B7088
:10B1200003700A703A70C3E50DF13204204618210D
:10B1300014F018F90028A8D02146C0E70DF1320418
:10B140002046182114F00EF900289ED02146D7E79A
:10B150006666666666660A40721CC7711CC75B40FD
:10B160000093070008930700109307001893070047
:10B170002893070030930700449307004C9307007F
:10B18000649307006C930700749307007C93070097
:10B190008493070081C2002014A20020209307009E
:10B1A000C01D0120E47C0020A0920700E4C600201E
:10B1B000057E0020389307004C2E01208C93070059
:10B1C0005493070084C60020A8C60020B89E002023
:10B1D000221A0120C4C60020B99E002001A200202E
:10B1E00064C20020C1C6002002A20020F46B00202F
:10B1F00008B5082209490A4832F04EFBFFF790FBD8
:10B20000C8203EF0FBFBFF210020FCF773F857211C
:10B210000020FCF76DF8FCF755F800BF9893070085
:10B22000C01D0120124B13490122002030B45A6086
:10B230000325DA600424C3F8040541F28830C3F81A
:10B240000855C3F810454FF48035C3F84005602415
:10B250004FF08060C3F80022C3F8045381F81A430A
:10B26000C1F880010860044930BC0A701A60704758
:10B2700000A0014000E100E01D7E002070B5304CD0
:10B28000304D314882B014F093F840F24C43032221
:10B2900001212E48C4F8005621F084FB2C4BC4F841
:10B2A000005640F24C461978284840F24C4303229D
:10B2B00022F012F93346032204212448C4F8005630
:10B2C00021F044FCC4F800560323002201211F484A
:10B2D000009621F07DFCC4F80056032301220021D2
:10B2E0001A48009621F074FCC4F800560323022289
:10B2F00000211648009621F06BFC03231A46C4F87F
:10B30000005600211148009621F062FCC4F8005656
:10B31000032300210D480096062221F059FC0D4B15
:10B32000C4F80056197809B102B070BD3346032243
:10B33000064821F071FFC4F8005602B070BD00BF8E
:10B34000000001403546526E0C7E002098380120E6
:10B35000D4620020D56200204FF0102310B5D3F83E
:10B360000C4214F0010464D101211F2041F018FEA9
:10B3700021461F2041F098FE3E4B1B78002B50D0F9
:10B380003D4B9FED3E7AD3ED007A3D4B3D4A1B6825
:10B39000F8EEE77A002B27EE877AC2ED017A82ED8C
:10B3A000027A0ADD07EE903A374AF8EEE77A01238F
:10B3B00082ED027A1370C2ED017A344A344BD2ED39
:10B3C000007AF8EEE77AB3EE047A37EEC77A052012
:10B3D00083ED027AC3ED017A3EF010FB2D4837F081
:10B3E00057F82C4837F024FB2A4837F065F82A4BE9
:10B3F0002A4801241C7016F0ADFE294B1C703EF04B
:10B40000F1FA284A284B1060DB68D9010AD43FF0D2
:10B4100001FD264BA0FB0301830A43EA8153244A22
:10B42000136010BD234B1A68D207F0D55B689B09E7
:10B43000F5E7214B0122C3F80425D3F80024002AA4
:10B44000FBD04FF010236FF001011B4AC3F80C1220
:10B45000D2F80034002BFBD000231749C2F8043582
:10B46000D1F80034002BFBD00A203EF0C7FAFBF7DE
:10B4700029FF00BF6C63002070630020EC51783F0F
:10B480001C3F0120E4600020546100207463002010
:10B49000CC600020ECF70020E8F700202C7C002096
:10B4A00011A200207CC20020F0ED00E040420F001D
:10B4B000AC9E0020001000E000E001404848494BED
:10B4C000C26830B5002142F08072C26059601A68CB
:10B4D00083B042F001021A605A680191019B3F2B30
:10B4E00005DC019B01330193019B3F2BF9DD3D4BB3
:10B4F0003D4C5B689A4214BF0123002323701BD08C
:10B500003A4A3B4B3B4911603B48342200214025DD
:10B510001D6049F03BFA4FF01023384AD3F80C3243
:10B5200000211170DA0739D52E4B3548596803B020
:10B53000BDE8304016F050BA2C4A2D4B314911600D
:10B540002D483422002101251D6049F01FFA4FF0DB
:10B5500010232A4AD3F80C320021DB0711701DD5C5
:10B560001F4BDB68D8010BD51E4B1A68D10707D5D6
:10B5700059682348890903B0BDE8304016F02CBA59
:10B580003FF048FC1F4AA0FB0223910A1C4841EAF5
:10B59000835103B0BDE8304016F01EBA01211E20D1
:10B5A00041F0FEFC00211E2041F07EFD164A174BA3
:10B5B000916F2078164D174C1F2998BF4FF0A0436C
:10B5C00001F01F0101228A402A60C3F80C25236084
:10B5D0000028A9D1024BDB68D801D1D5C4E700BF50
:10B5E000F0ED00E0001000E0F66B0020B49E0020BB
:10B5F000006100200090D003C8A10020249E0020FC
:10B6000070F8002040420F0030D1070000030050C6
:10B61000146C0020186C002030B51A4B1B7883B0D6
:10B620000446D3B1184B5D68184B1B681BB1184A10
:10B630001268C3F80C2521681648691A16F052FAE8
:10B64000154B164A16491B68126812480091294684
:10B6500016F060FA204603B030BD124BDB68D9010A
:10B6600006D5094B1A68D20702D55D68AD09DBE73C
:10B670003FF0D0FB0C4BA0FB0301850A45EA815546
:10B68000D2E700BFF66B0020001000E0186C00202D
:10B69000146C002070F8002000610020B49E00208F
:10B6A000249E0020F0ED00E040420F00104A114BB4
:10B6B000114810B50021114C11704FF47A621960D5
:10B6C000216049F063F90E48037C6BB90D4C40F0E2
:10B6D0008DFA2068022116F0DFFC08B100232360F8
:10B6E000BDE8104040F08CBA103028F013FCEDE7B4
:10B6F000083F0120542E0120A41E0120442E0120C9
:10B70000143B0120481B01202DE9F0430024BDB06B
:10B71000374B049401464FF47A75224607A8ADF8DA
:10B720001C408DF81E400595039328F031FE20B98A
:10B73000002528463DB0BDE8F0832E494FF48062D5
:10B7400007A828F085FE064607A828F0E3FBB6F513
:10B75000806FEDDB284E009502A9019125480294E7
:10B76000334610AA4FF4806113F0D4FB054600283D
:10B77000DFD0224BDFF89880214FDFF8989010A996
:10B78000184617224AF005F903461F22404616A91B
:10B79000DC754AF0FEF888F81F403846DFF87880FC
:10B7A0001F221EA94AF0F5F8FC770F22154F26A993
:10B7B00048464AF0EEF80F222AA9404689F80F4081
:10B7C0004AF0E7F80F2238462EA988F80F404AF0D1
:10B7D000E0F8029A0C4BFC731A6012B1013A56F869
:10B7E00022200A4B28461A603DB0BDE8F08300BF16
:10B7F0007CA607005CF90020A41E0120101C01207B
:10B80000F01B0120481C0120442E0120542E012051
:10B81000281C0120581C0120E01B012070B50C4E93
:10B82000054640F0E3F93068294616F01DFC044651
:10B8300020B940F0E5F93368204670BD29463068EC
:10B8400016F022FC306040F0DBF9204670BD00BFEE
:10B85000481B012030B5254B1C788BB004BB054636
:10B860000320FFF7DBFFD8B12149ADF8044001A860
:10B8700023462A468DF8064028F082FDB8B11C49BF
:10B88000ADF804402A46012301A88DF8064028F0AF
:10B8900077FDF8B917491848072231F0FDFF0BE092
:10B8A00016491548042231F0F7FF0BB030BD14499A
:10B8B0001148092231F0F0FF124C40F097F920684E
:10B8C000032116F0E9FB08B10023236040F098F94A
:10B8D0000BB030BD01A829F0ABFE0028DAD00A4930
:10B8E0000548072231F0D8FFE6E700BF221A012001
:10B8F00008670020A8930700C01D0120C497070017
:10B90000F4920700481B0120B093070010B5084CC3
:10B9100082B0019040F06AF92068019916F0BCFBF2
:10B9200008B10023236002B0BDE8104040F068B9C0
:10B93000481B01202DE9F0433E4B3F4C3F49D3F8D3
:10B9400000803F4D3F4E0128BDB004BF25460E4646
:10B95000B8F1000F54D107460320FFF75FFF00281E
:10B960004ED0394B394A3A4C3A49CDF80480012F30
:10B9700018BF1A4604A843464FF47A77ADF81080F2
:10B980008DF812800297009428F0FAFC9DF8103090
:10B99000002B40D0DFF8C890DFF8C8802E4F04E0BD
:10B9A00011A828F0B7FAC8F8007600224FF47A738D
:10B9B00004A911A80F93CDE90D42ADF844208DF8EC
:10B9C000462029F003F89DF844300BB313F0D00F54
:10B9D000E6D11AA9402211A82AF04EFA1AAB2AA8D9
:10B9E0002A46462149F0C8FE431E442BD8D882B2CD
:10B9F0002AA9484631F050FF0A203DF0FFFFCFE76B
:10BA0000164917480C2231F047FF3DB0BDE8F083DE
:10BA100004A828F07FFA0320FFF778FF304649F0AA
:10BA20009EFF314682B20E4831F036FF3DB0BDE890
:10BA3000F08300BF481B0120CC930700D893070078
:10BA4000B8930700C4930700E0A7070054AC0700B1
:10BA50007CA60700086700203546526EE093070079
:10BA6000C01D0120000001402DE9F0473C4B1C683F
:10BA7000ADF5287D24B90320FFF7D0FE054640B977
:10BA800038493948042231F007FF0DF5287DBDE81B
:10BA9000F0872346354E364A364904944FF47A7778
:10BAA00007A8ADF81C408DF81E400597039628F0B6
:10BAB00067FC9DF81C30002B4ED0DFF8CC90DFF8EF
:10BAC000CC802D4F05E014A828F024FA2B4BC3F8A6
:10BAD000007600224FF47A7307A914A8CDE910620A
:10BAE000ADF850208DF85220129328F06FFF9DF88A
:10BAF000504014B314F0D004E5D10DF1740A51464E
:10BB00004FF4807214A82AF0B7F91B9A0192002D05
:10BB100014BF4B4643461A4ACDF800A04FF4967125
:10BB20005DA849F029FE5DA982B20F4831F0B4FE4C
:10BB30000A203DF063FF2546C5E707A828F0EAF98B
:10BB40000320FFF7E3FE0F490748032231F0A4FE6C
:10BB50000DF5287DBDE8F0870320FFF7D7FE8FE7BE
:10BB6000481B0120C4970700F81C01207CA6070091
:10BB70000C920700086700203546526E0000014015
:10BB8000F493070000940700B8BF0700F093070084
:10BB9000F0B5334E337C8FB00446002B5BD10320CD
:10BBA000FFF73CFE00284FD0002722462D4C2E499F
:10BBB00001943B464FF47A7505AC05A803950297AE
:10BBC000ADF814708DF8167028F0DAFBA446BCE8C6
:10BBD0000F00264D029C74600FC5BCE80F000FC516
:10BBE000DDE90321337CDCF800002860C6E902218E
:10BBF00003B31F4B1F4CF26A1F4822601F6011F0F5
:10BC000065FD3DF0EFFE1D4A1D4910601D4823688B
:10BC10001D4A0F6001242021047001A849F0ACFDE9
:10BC200001A849F09CFE01A982B2184831F034FE07
:10BC30000FB0F0BD0320FFF769FE15491348052238
:10BC400031F02AFE0FB0F0BD12491048042231F045
:10BC500023FE0FB0F0BD06F1100028F05BF99EE75F
:10BC6000E81901207CA6070008670020F8190120C8
:10BC7000E01901201C1A012004F8002070C20020E5
:10BC80009C9E0020221A012004940700C01D012060
:10BC9000D4920700C49707002DE9F04F214C85B0DE
:10BCA00004F26C4980464F4604F2444BA2460325F9
:10BCB00001AEFF220023CDF80880ADF804200393E5
:10BCC00096E80E0038462BF075FB94F87E34154844
:10BCD000C4F8689401223946D3B92AF07FFB78B1C1
:10BCE000584628F017F91048514628F093FB78B1D0
:10BCF0000E4A0F4B1460C3F8008005B0BDE8F08F0A
:10BD000003460246394607482AF068FB0028E7D177
:10BD100064203DF073FE013DCBD1284605B0BDE85F
:10BD2000F08F00BF086700204C6B00209477012043
:10BD3000FCA1002038B52848284A037C0024147050
:10BD400053BB274A274B002414701C70FEF7E8FDF4
:10BD5000254A264B2648147021461C7030F0A6FF59
:10BD6000244833F09FFF78BB214831F065F8224B1F
:10BD70001B7803BB01210C2041F012F901210C209A
:10BD800041F092F91D491E4A1E4800230B701370A2
:10BD9000BDE83840FFF780BF1B4D103028F0BAF8DF
:10BDA0003FF024FF2868032116F076F900B12C60DB
:10BDB0003FF026FFC5E70F48002133F049FF0D484B
:10BDC000002133F049FFD5E70A4833F09FFF0146D1
:10BDD000084833F085FFC7E7E8190120DC19012086
:10BDE000221A01206CC20020057E002081C20020A2
:10BDF0003C8A0120FC830120201A0120E419012043
:10BE0000211A012080841E00481B012008B5054B23
:10BE10001B780BB1FFF78EFF64203DF0EFFDFBF7C1
:10BE200051FA00BFDC190120F0B5244D244F002346
:10BE300087B028463B70FFF72FFF044610B120461D
:10BE400007B0F0BD1F4E0495FF230590ADF80C30F0
:10BE500006F26C4506AB13E90E0028462BF0AAFA51
:10BE600096F87E34C6F86854002BE8D1D6F86C34C6
:10BE700028469B6998470028E1D0D6F868140191BC
:10BE80002346012230462AF0A9FA019960B10E48F2
:10BE900028F040F80B4901F2444028F0BBFA50B1B9
:10BEA0000A4B04461E60CAE72346224630462AF063
:10BEB00095FA0028EBD101233B70C0E780841E0077
:10BEC000093F0120086700204C6B00209477012077
:10BED00010B58AB000231A4A1A49ADF8043001A8F7
:10BEE0008DF8063028F04CFA60B90446ADF804002D
:10BEF000134A15498DF80640012301A828F018F9C6
:10BF0000044658B10023114A0E49ADF8043001A887
:10BF10008DF8063028F034FA044610B120460AB0F5
:10BF200010BD0A4A0849ADF8044001A801238DF864
:10BF3000064028F0FDF8012420460AB010BD00BFDD
:10BF4000E0A70700086700204C6B002054AC0700F6
:10BF50002DE9F04F3D4E3E4D96F800C015F80C30DF
:10BF60008DB05BB302ABDFF804A1DFF80491DFF81A
:10BF70000481DFF804B101930AEB0C130FCB019C91
:10BF800019F80CE058F82C7084E80F008CF00100D0
:10BF900000233070714606AA2046CDE90633CDE96C
:10BFA0000833CDE90A3305F80C3016F075F958B9A5
:10BFB00096F800C015F80C30002BDDD1254B1B780E
:10BFC0002BBB0DB0BDE8F08F0DF1180EBEE80F00D1
:10BFD000DFF8A8C0204CACE80F009EE803004CF846
:10BFE000040B1E488CF8001001230370BDF82A10C2
:10BFF00027603A46584616F0E1F996F800C015F861
:10C000000C30002BB8D1134B1B78002BD9D03DF04E
:10C01000E9FC124B1A780346A2B9024647F22F51A7
:10C020008A42CED90E4C22689A1A8A42C9D90D4842
:10C03000236032F0B7F90B48002132F091F90A4B36
:10C040001870BEE7044A1268821AE7E7D86B00202E
:10C05000E4E70020267C002088E70020047E002002
:10C060009C7C0020988A012004A20020E4E60020A5
:10C0700004E7002080E7002048F80020DC6B002067
:10C0800070B5144C237813B99FED130A70BD134D8E
:10C090002E683DF0A7FC0146304616F079F90028DD
:10C0A000F2D023781BB90E4B93ED000A70BD2C68BB
:10C0B0003DF098FC0146204616F06AF90028F2D0BF
:10C0C0003DF090FC0146074816F082F90028EAD1BD
:10C0D000DAE700BF047E00200000C07F88E7002070
:10C0E000DC6B002048F800202DE9F041994F3B78A7
:10C0F00098B013B918B0BDE8F0813DF073FC964AD2
:10C100001368C31A202B0546F4D9DFF8B4821060F7
:10C11000D8F80000002843D027F08CF88DF83800BC
:10C12000FDF744FDD8F800308DF83900002B00F001
:10C13000AE81184627F032F90F90FDF791FDD8F83F
:10C1400000301090002B00F09B81184627F0B4F8C7
:10C15000119012AE002401342046FDF7D3FD46F8BD
:10C16000040B2046FDF70EFE032CB060F3D17B4894
:10C170000EA915F0FBFF20B33B7813B3784B0122D7
:10C180001A703DF02FFC774A774B1060DB68D901BD
:10C190000DD5764B1A68D20709D55B689B090EE06E
:10C1A000FDF710FC0028B9D026F0DAF8B6E73EF02B
:10C1B00031FE6F4BA0FB0301830A43EA81536D4AB2
:10C1C00013606D4C2378002B40F0FC806B4E33786D
:10C1D000002B40F06C816A4A1370614C2378002B6D
:10C1E00040F07B810EA814F089FF664B1B78002B72
:10C1F00062D1654B1B78002B5ED13778002F5BD066
:10C20000624B634C1B78032B00F07C81614B93F8ED
:10C21000282022B193F82930002B40F0788107AE16
:10C220003146284615F0CAFA0FCECDF83B00CDF8BE
:10C230003F1003CEB6F800C0B678CDF84320CDF855
:10C240004730CDF84B00CDF84F10ADF853C08DF806
:10C25000556094ED000A50495048B8EEC00A2B468C
:10C26000012215F04DFAC0F30722C0F307438DF801
:10C2700039208DF83A308DF83800FFF701FF10EEC5
:10C28000103A03F0FF42B2F1FF4F04D1C3F316039B
:10C29000B3FA83F77F092B463A464149414815F0E6
:10C2A0002FFAC0F30722C0F307438DF856008DF82C
:10C2B00057208DF8583004E03749394A00230B7075
:10C2C0001370394C217849B3324B93F829202AB3A3
:10C2D000998D364AD3F82E30B2F90020CDF80A30C5
:10C2E00007A801F5FA6302A9ADF8083015F0A8FA1D
:10C2F00007A815F09DFA2E4A2E4B12781B78C2EB38
:10C300000212C3EB03119200890092B289B215F0B8
:10C3100041FB002800F0C980274B1978274E0EA852
:10C3200014F028FF0EAC0025284614F0E3FEA37895
:10C3300000936378227881B20135304636F052FBA3
:10C340000B2D04F10304EFD11C4836F0B5F818B0FA
:10C35000BDE8F081E8F70020209E00202C7C002022
:10C36000B19E0020C4A10020F0ED00E0001000E02C
:10C3700040420F00F07C002011A20020093B012068
:10C38000B09E0020DC190120E27201200A3B01204E
:10C39000403F0120181E0120106C0020E4600020A6
:10C3A0000C6C0020CC6000206C630020223F012038
:10C3B0006F6300206E6300206D630020ECF70020A7
:10C3C000383F01206A4A6B4B106819686A4E281A78
:10C3D0000EAA14F0C7FB337820700746002B5ED0FE
:10C3E000664C674994ED000A66482B460122B8EE78
:10C3F000C00A15F085F9C0F30722C0F307438DF892
:10C400001C008DF81D208DF81E30002F7FF459AFD1
:10C410005B4B1B78002B3FF4E0AE0799BDF81C2066
:10C420009DF81E30ADF83810080CADF84410ADF88A
:10C4300050108DF83A008DF846008DF85200ADF896
:10C440003B20ADF83E20ADF84120ADF84720ADF8D7
:10C450004A20ADF84D20ADF85320ADF856208DF8A8
:10C460003D308DF840308DF843308DF849308DF8EF
:10C470004C308DF84F308DF855308DF8583020E71E
:10C48000FDF7A0FA002835D025F0C8FE60E6FDF7DC
:10C4900099FA00283FF450AE25F05EFF4CE6384A8A
:10C4A000137000287FF40DAF97E6217836E7334C00
:10C4B000334994ED000A33482B460122B8EEC00AF6
:10C4C00015F01EF9C0F30722C0F307438DF81C00D6
:10C4D0008DF81D208DF81E309AE72B4A2B4B1068E3
:10C4E0001968281A0EAA14F019FC207000287FF48D
:10C4F000E8AE77E6FDF776FA00283FF429AE27F09C
:10C5000003FC25E62368002B7FF480AEA1E6FDF74F
:10C510004DFB80B1FDF7A4FB00280CDDD8F80030FE
:10C5200013B1FDF76BFB30B107AEFDF7C1FB304631
:10C5300014F0A0FF78E6164B94ED000AD3ED007AD4
:10C5400007AE0023F8EEE77A0593029306934FF0C7
:10C550007C52FF23B8EEC00A02A83146CDED037A23
:10C5600004928DF815308DF8173014F0EFFF5BE66C
:10C570007CC20020AC9E0020093B0120403F0120EE
:10C58000B09E002054610020C4A10020F07C002057
:10C590007063002070B5144C237813B99FED130A13
:10C5A00070BD134D2E683DF01DFA0146304615F062
:10C5B000EFFE0028F2D023781BB90E4B93ED010A51
:10C5C00070BD2C683DF00EFA0146204615F0E0FEE5
:10C5D0000028F2D03DF006FA0146074815F0F8FEB3
:10C5E0000028EAD1DAE700BF047E00200000C07F07
:10C5F00088E70020DC6B002048F8002070B5144C60
:10C60000237813B99FED130A70BD134D2E683DF0CA
:10C61000E9F90146304615F0BBFE0028F2D0237838
:10C620001BB90E4B93ED020A70BD2C683DF0DAF990
:10C630000146204615F0ACFE0028F2D03DF0D2F9BC
:10C640000146074815F0C4FE0028EAD1DAE700BF2A
:10C65000047E00200000C07F88E70020DC6B002003
:10C6600048F80020000000002DE9F04F9A4C9B4A4A
:10C6700094F828302DED0A8B0021ADF5277D11703F
:10C68000002B00F08980964D2E68002E00F0E2808D
:10C69000944B94ED042A1978D4ED052A94ED000BFF
:10C6A00094ED021B002940F0EC8030468DED121B0A
:10C6B0008DED100BCDED152A8DED142A22F0F8F832
:10C6C0009DED121B9DED100BDDED152A9DED142A3D
:10C6D000286822F001FA94F82830002B5CD0824BB5
:10C6E0001B78002B46D0814B1B78002B42D0804E0C
:10C6F0003378002B59D0206947F05CF902460B468D
:10C70000A06943EC182B47F055F902460B466069C7
:10C71000676A43EC1A2B47F04DF96DA3D3E9002368
:10C7200047F0A0F994ED00CB94ED02BB56AD41EC7F
:10C73000190B284685ED089B85ED048B85ED06AB2E
:10C7400085ED00CB85ED02BBAF6213F069F80028E0
:10C7500040F0E080674D3DF045F92A6842F21073E1
:10C76000801A984206D93DF03DF9034662482B6095
:10C7700028F0C4F96069614C47F01CF954A3D3E96F
:10C78000002347F06FF947F065FC20600DF5277D29
:10C79000BDEC0A8BBDE8F08F534B1B78002BE9D022
:10C7A000524B1B78002BE5D0514E3378002BE1D152
:10C7B00094F82930002BDDD0514D3DF013F92B6852
:10C7C000C01AB0F57A7FD5D33DF00CF903460120AD
:10C7D0002B60FFF723F80028CCD094F82F2094F892
:10C7E0002E3094F8310094F830100291CDE90032E7
:10C7F0000390444FA38D444A502166A848F0BCFFE3
:10C8000066A907F1100040F2016227F0C1FD3B7CF0
:10C81000002B00F0DA8156AD284640220A2148F06C
:10C82000B5F807F110084FF480673F2F3A462946C4
:10C83000404640F2A081402228F0C4F9402840F050
:10C84000C181403FF1D131492E483CF03BF90123F1
:10C8500033708FE72E4D2E68002E3FF440AF214BF2
:10C86000197849BB304626F0EDFA94ED021B94EDA1
:10C87000000B2868D4ED052A94ED042A25F038FE33
:10C8800029E794F83110A38E94F8322094F8300000
:10C89000CDED152A8DED121B8DED100B8DED142AAB
:10C8A00012F020FE9DED100B9DED121B9DED142A44
:10C8B000DDED152A0146F8E694F83110A38E94F8C0
:10C8C000322094F8300012F00DFE0146CAE700BF96
:10C8D0000B410E4A9869F23F181E0120501E01209C
:10C8E000141B0120641E0120183F0120681C012038
:10C8F0000A3F0120502E0120601B0120981E0120BC
:10C90000582E0120501B01204C9407006C94070006
:10C91000383F01203AAA0821B0EE4C0AF0EE6C0A2A
:10C9200001203DF049F8B0EE4B0AF0EE6B0A40AA48
:10C93000082101203DF040F8B0EE4A0AF0EE6A0A04
:10C94000012117AA08463DF037F8B0EE490AF0EE8B
:10C95000690A32AA022101203DF02EF8B0EE480A01
:10C96000F0EE680A36AA022101203DF025F8E069C0
:10C9700047F020F81AAA41EC100B022101203DF0EB
:10C980001BF8206A47F016F81DAA41EC100B022193
:10C9900001203DF011F88F4B186847F00BF820AAE2
:10C9A00041EC100B032101203DF006F88A4B18687A
:10C9B00047F000F823AA41EC100B032101203CF0C2
:10C9C000FBFF864B186846F0F5FF26AA41EC100BDA
:10C9D000032101203CF0F0FFFFF752FB10EE109A0C
:10C9E000FFF7D8FD10EE10AAFFF708FE09F0FF428E
:10C9F000B2F1FF4F10EE10BA00F0C380484646F087
:10CA0000D9FF0DF1A40941EC100B012108464A465B
:10CA10003CF0D2FF48460B2112F098FF002800F0AE
:10CA2000B7800AF0FF42B2F1FF4F00F0C0805046DD
:10CA300046F0C0FF0DF1B00A41EC100B0121084691
:10CA400052463CF0B9FF50460B2112F07FFF002800
:10CA500000F0B4800BF0FF42B2F1FF4F00F09C8079
:10CA6000584646F0A7FF0DF1BC0B41EC100B01211D
:10CA700008465A463CF0A0FF58460B2112F066FFCC
:10CA8000002800F090803AAB4C9340AB4D9317AB2D
:10CA90004E9332AB4F9336AB50931AAB51931DABC1
:10CAA000529320AB539323AB549326AB0DF5987858
:10CAB000559358F8040B142112F048FF00283FF456
:10CAC00049AEA845F5D1464B1B78002B3ED100203E
:10CAD000014646AA182312F043FE424B424D1A6803
