:020000022000DC
:10700000000004206D670600AD670600AF6706004C
:10701000B1670600B3670600B56706000000000010
:10702000000000000000000000000000E96606000B
:10703000B96706000000000009670600BD6706008A
:10704000C9690600BF670600513E0600BD870400FF
:1070500075880400BF67060029410600BF67060067
:10706000BF670600BF670600BF670600BF67060070
:10707000BF670600BF670600BF670600BF67060060
:10708000BF67060039640600BF670600BF670600D9
:10709000BF670600BF67060081AB0500BF6706003B
:1070A000BF670600BF670600CD890300BF67060003
:1070B000BF670600BF670600000000000000000078
:1070C000BF670600BF670600BF670600B16F060016
:1070D000BF670600BF670600BF67060045320500B0
:1070E000BF670600BF670600BF670600000000001C
:1070F00000000000BF6706000000000029700600C5
:10710000000000000000000000000000000000007F
:10711000000000000000000000000000000000006F
:10712000000000000000000000000000000000005F
:10713000000000000000000000000000000000004F
:10714000000000000000000000000000000000003F
:10715000000000000000000000000000000000002F
:10716000000000000000000000000000000000001F
:10717000000000000000000000000000000000000F
:1071800000000000000000000000000000000000FF
:1071900000000000000000000000000000000000EF
:1071A00000000000000000000000000000000000DF
:1071B00000000000000000000000000000000000CF
:1071C00000000000000000000000000000000000BF
:1071D00000000000000000000000000000000000AF
:1071E000000000000000000000000000000000009F
:1071F000000000000000000000000000000000008F
:10720000F1EE103A43F08073E1EE103A704700BFA0
:1072100010B5054C237833B9044B13B10448AFF3D0
:1072200000800123237010BD2C66002000000000A8
:10723000649D070008B5034B1BB103490348AFF336
:10724000008008BD0000000030660020649D07003B
:10725000154B002B08BF134B9D46A3F5803A002128
:107260008B460F461348144A121A47F08FFF0F4BF4
:10727000002B00D098470E4B002B00D098470020E1
:10728000002104000D000D48002802D00C48AFF387
:10729000008047F0BBFE200029003FF0BFFA47F016
:1072A0008FFE00BF00000800000004200000000066
:1072B000000000002C6600207C730120000000000C
:1072C00000000000BFF34F8F0549064BCA6802F467
:1072D000E0621343CB60BFF34F8F00BFFDE700BFF9
:1072E00000ED00E00400FA0535DF704733DF70473A
:1072F0003CDF70473DDF704741DF704711DF70476B
:1073000012DF70470020704701207047012070474E
:10731000704700BF704700BF704700BF704700BF95
:10732000024B02F001021A70704700BF3B6B002055
:1073300070B50446C069464D464E46F035FF42A33F
:10734000D3E9002346F09AFF02460B46A069C5E93F
:10735000002346F029FF3CA3D3E9002346F08EFF2B
:1073600094ED0F7AB4F84C30DFED3B7A9FED3B5A49
:107370009FED3B4ADFED3B4AF8EEC75A94ED107A99
:1073800006EE103AF8EEC76A94ED0A7AB8EE466A4D
:10739000B8EE477A66EEA76A65EE845A26EE246A4E
:1073A00027EE057AC5ED055A85ED066AC5ED076A33
:1073B00085ED087AE37DD4ED097A6B62237DF8EEE2
:1073C000E77A012B88BF637DC5E9020167EE857A04
:1073D0008CBF03F00103002385F82830C5ED047A43
:1073E000E27AA188204B214802F00702A2F10702AD
:1073F000B2FA82F2A1F5FA615209698585F829206D
:10740000A27985F82C20E27985F82D20227A85F85A
:107410002E20627A85F82F20A27A85F83020226803
:10742000134CA3FB0213012131709B094FF47A71B5
:1074300001FB1323216802686B8601310132216050
:10744000026070BDAFF3008048AFBC9AF2D77A3EBD
:10745000E8E4002020E50020ACC527376F12833A0E
:10746000A8C8FE3A0AD7233CD34D621024E5002079
:1074700038E50020024B034AC3F80026012070477C
:10748000000001403546526E024B0349C3F8001616
:1074900010467047000001403546526E0AB3C2F3F1
:1074A00008032DE9F0471546A3B9DFF83C800646EE
:1074B0000F464FEA52290324D8F8680403683A4675
:1074C000D3F814A031464B46D047013C30B914F0F4
:1074D000FF04F1D14FF0FF30BDE8F0872846BDE84A
:1074E000F0874FF0FF30704748660020704700BFBC
:1074F000037C13F0080306D0C36A406A181A48BF19
:107500006FF0004070471846704700BF2AB3C2F3BF
:1075100008032DE9F0471546C3B906460F463CF06F
:107520006FFE0F4BDFF83C8018604FEA55290324AB
:10753000D8F8680403683A46D3F824A031464B468D
:10754000D047013C30B914F0FF04F1D14FF0FF30C7
:10755000BDE8F0872846BDE8F0874FF0FF30704760
:107560000C7D002048660020103028F00BBA00BFC8
:10757000103028F06BBA00BF00B583B00B46012273
:107580000DF1070110308DF8073028F05FFA03B0D5
:107590005DF804FB00B587B00346064A684618212B
:1075A00048F0EAFC694682B2034831F0B9F807B006
:1075B0005DF804FBA038070090E40020103027F0AD
:1075C0005DBF00BF00B583B001220DF1070110308F
:1075D00027F082FE01280CBF9DF807004FF0FF3016
:1075E00003B05DF804FB00BF0846114648F0ACBC90
:1075F00008463CF047BE00BF08463CF029BE00BF2D
:1076000010B50E4C84B0227801A8092115F020FB9A
:10761000237802332370024670B1094B1B7803F0C4
:10762000FF004BB1074B1B7803F0FF0023B1064866
:1076300092B201A931F074F804B010BD8EB30020ED
:107640003E6B00203B6B00203C6C00202DE9F0439A
:107650004779402F3946A1B028BF40219FB300236E
:10766000E9464A469C461F46054603EB4304AE7A6C
:10767000167000EB84040133247C14F0080FC4F36B
:10768000C00818BF013782F801805FFA83FE05F158
:107690000C0502F1020218BFFFB21EB10CF1010C81
:1076A0005FFA8CFC7145E0D8084B094C1F70094A01
:1076B00084F800C04846102315F0FCFD064B1870F6
:1076C00021B0BDE8F083BC46E946EDE751E5002076
:1076D00050E5002040E500203CE5002010B50C4CB2
:1076E000D4F868040368DB69984794F82430DB0712
:1076F00006D400224FF0FF3384F82420236310BD0A
:1077000004F124002AF074FE0028F2D110BD00BF5D
:107710004866002070B58AB01F22014600921948C1
:1077200002ABFF2231F074FD0D2804D8154831F06A
:1077300055FD0AB070BD0446014602A815F0E6FEEC
:107740000028F3D0104E11483578102C28BF102493
:10775000E4B202A9224600EB051047F0EFFCEDB2BF
:107760000B4B5C553CF04CFD0A4C0B4A44F8250091
:10777000012185EA010303485155337031F02EFD94
:107780000AB070BD60510120336B0020F4B20020BC
:1077900014B3002090B30020F4B30020174BDB6833
:1077A000D90110B503D5164B1A68D2071FD43DF086
:1077B0003FFF144BA0FB0301830A43EA81531249A4
:1077C0000A6840F6B7309A1A82420FD90F480B6008
:1077D00002780F490132097802F00F02914209D074
:1077E00001780C4CC9B244F82130027010BD5B68BE
:1077F0009B09E4E7084B01221A7010BDF0ED00E090
:10780000001000E040420F00040601204C06012059
:107810004E0601200C0601204D06012010B5034B39
:107820000360044617F0CEFB204610BD2C4B07002A
:107830000F49097802290AD1F8B50E4E0E4F357856
:10784000EDB21C467B5D0BB9202C01D9F8BD704709
:107850000A48114600EB4510224647F06FFC0848E5
:10786000E3B24355012185EA010279553270F8BD32
:1078700020E100203A6B002028C400204CB30020F7
:107880008CB3002070B5124C124A134B22600026B4
:1078900047F260006360C4F888633EF0FFFF0F4B5F
:1078A0000F4D93ED000B32462146044621F040FF78
:1078B0000C4B2C6093ED000A204622F0E1FA0A4BB3
:1078C000286893ED000ABDE8704022F0EFBA00BFCF
:1078D000D8DC0020AC3807005C6307001062002091
:1078E00014E20020BC620020B8620020F8B51A4BF8
:1078F0001B78022B044626D0184B194A194800273A
:10790000214601261F70167033F032F9054631F01A
:107910007FF82846F72131F08FF82846022131F010
:107920009BF83A463946284631F08EF80E4B1E70C9
:107930003CF066FC0D4B0E4A1C8010602846BDE8EA
:10794000F84031F067B80B4A0B490C4B108001200E
:10795000002208701A70F8BD20E100208E900020EF
:10796000DCE00020C44A012022E100201AE10020CE
:107970001CE10020C46000203E6B00203B6B002017
:10798000214A13884FF6FF719BB28B42F0B403D0AB
:1079900013889BB2984228D01C4B1B78022B24D012
:1079A0001B4B1C481C4F1D4E1D4D1E4C1E491A786A
:1079B00000233B70337003701C482B7023701C4DE8
:1079C0000B701C4C1C49037017202B70237008800F
:1079D0001A4B1AB900221A70F0BC70471A78002AA4
:1079E000F8D0174A01211170F4E713889BB298422E
:1079F000F2D1144C144900234FF6FF70237010800D
:107A0000F0BC0B70704700BFC460002020E1002074
:107A1000D4E00020D5920020888000202C80002017
:107A20002B80002098920020F16C0020DCE00020E8
:107A300021E1002096900020D06000208E90002050
:107A4000F39200203E6B00203B6B00202DE9F04FAD
:107A5000DFF8DC902F4AD9F800300026B34283B01B
:107A600016702ADD4FF0FF33DFF8C880DFF8C8B0AA
:107A7000294F01934FF0000A97ED0A3B97ED082B31
:107A800098ED021B98ED000B14F056FE55EC104BD0
:107A90005B4610EE100A5246294646F061FE383722
:107AA000D9F8003010B1A246AB4601960136B34278
:107AB000E2DC019B1A4601321ED10021174D184B02
:107AC000284600241C7013F0A9F92B78154A164893
:107AD0001460042B154A9CBF6FF00A01C91A136881
:107AE00088BF4FF0FF3103F59C530160083301203C
:107AF000136003B0BDE8F08FC3EBC30A064B054823
:107B000003EBCA010C2248F044FB024A0023137322
:107B10000121D3E704E20020500D01201061002074
:107B2000FCE1002060FF002018620020ACE2002091
:107B300010390120E8E40020000014402DE9F04F46
:107B40004948037CABB0002B40F08A804748037C57
:107B5000002B40F081804648037C002B78D14548BB
:107B6000037C002B70D1002432203CF055FB424EA8
:107B7000424A43490194234604A84FF47A75ADF86C
:107B800010408DF812400295009627F03DFB9DF8BD
:107B90001000002855D03B4D2B68132B49DC3A4F81
:107BA000DFF8E88005E011A827F0F8F82B68132B20
:107BB0003FDC4FF47A73002204A911A80F930E94AE
:107BC000ADF844408DF846400D9627F043FE9DF8F1
:107BD000443040221AA911A85BB329F091F89DF80E
:107BE000443013F0D00F1AA8DDD148F0B8FA03469C
:107BF0001AAA0638062B39461044D4D948F054FA4C
:107C000081460028CFD1D5F800A00AEB4A0B08EB3B
:107C10000B1B1AA92F22584648F0BBFA0AF10103A0
:107C200011A82B608BF82F9027F0B8F82B68132B36
:107C3000BFDD04A827F0B2F828680028D4BF0020D0
:107C400001202BB0BDE8F08F103027F0A7F88AE7AD
:107C5000103027F0A3F882E7103027F09FF87AE77A
:107C6000103027F09BF871E7E40101203CE300208D
:107C7000580601208C060120484B0700B438070045
:107C800048660020D4010120B838070018020120FE
:107C900038B505680A4A0446286803681B68934299
:107CA0000BD128203CF0D4FA18B1064B4360606039
:107CB00038BD01232B71606038BD28219847F3E758
:107CC000F975020001001F0081682DE9F047056881
:107CD000044669B1284E2B680A685B68A260B3420B
:107CE00008463DD13CF0CEFAA1680029F3D12568C1
:107CF000238E04F10C0903B30027E36ADFF878A0B0
:107D0000B8460BE03CF0BEFAE36AC6F80080218E6C
:107D1000C6F804800137BAB291420FD9BEB203EB64
:107D2000C606716808460029EFD02B685B6853458A
:107D3000E8D028469847E36AE7E7E36A00214FF670
:107D4000FF7299452186A28607D02A680A4952689F
:107D50008A420BD118463CF095FA2046BDE8F087E0
:107D600028469847A1680029B5D1C0E7284619469A
:107D700090472046BDE8F087F175020081682DE943
:107D8000F0470568044669B1284E2B680A685B68AD
:107D9000A260B34208463DD13CF074FAA1680029C4
:107DA000F3D12568238E04F10C0903B30027E36A9D
:107DB000DFF878A0B8460BE03CF064FAE36AC6F856
:107DC0000080218EC6F804800137BAB291420FD9E3
:107DD000BEB203EBC606716808460029EFD02B68D7
:107DE0005B685345E8D028469847E36AE7E7E36ACB
:107DF00000214FF6FF7299452186A28607D02A6896
:107E00000A4952688A420BD118463CF03BFA204698
:107E1000BDE8F08728469847A1680029B5D1C0E79A
:107E20002846194690472046BDE8F087F1750200C4
:107E300081682DE9F0470568044669B1284E2B6832
:107E40000A685B68A260B34208463DD13CF01AFA6A
:107E5000A1680029F3D12568238E04F10C0903B32E
:107E60000027E36ADFF878A0B8460BE03CF00AFA96
:107E7000E36AC6F80080218EC6F804800137BAB2E2
:107E800091420FD9BEB203EBC606716808460029BD
:107E9000EFD02B685B685345E8D028469847E36AE3
:107EA000E7E7E36A00214FF6FF7299452186A28633
:107EB00007D02A680A4952688A420BD118463CF01A
:107EC000E1F92046BDE8F08728469847A1680029D7
:107ED000B5D1C0E72846194690472046BDE8F0874F
:107EE000F17502002DE9F84F07463CF089F9314D54
:107EF000DFF8CC90DFF8CCB0DFF8CCA0064645F038
:107F00000105D9F800301C6820463FF0F9FC034613
:107F10004FF003084FF4FA406BB9B8F1010F3CD0B1
:107F2000A84720463FF0ECFC034608F1FF384FF429
:107F3000FA40002BF1D0DBF80030D3F80080404647
:107F40003FF0DEFC034603244FF4FA405BB9012CFA
:107F500023D0A84740463FF0D3FC0346013C4FF4F2
:107F6000FA40002BF3D0144B1B68D3F80080404636
:107F70003FF0C6FC034603244FF4FA405BB9012CE2
:107F80000BD0A84740463FF0BBFC0346013C4FF4F2
:107F9000FA40002BF3D0BDE8F88F3CF031F9801B9C
:107FA000B842F8D2054B0A20C3F800A63CF034F9D9
:107FB000A7E700BF60510700DC600020000001401F
:107FC000D4600020D86000203546526E70B55C4BFE
:107FD0005C4C93F8302093F82E0093F82D1093F812
:107FE0002F5094B0049293F82C20CDE90205CDE9EE
:107FF000002106A8544A5B8D182147F0BDFF226876
:10800000002A3DD0514B52491878002808BF0B4632
:10801000002106ADCDE910114E480C950E934E4D42
:108020004E4B13910D9512900F93104626F0B0F819
:1080300023681090002B50D0184626F017F92268BC
:10804000474C484B1190002A08BF1C46464A474BF4
:10805000126800924FF480610CAA4548139413F003
:1080600093FD0021434827F027FB414941484FF445
:10807000806227F0EBFC3F4827F084FC14B070BD11
:108080003D4D2868002836D021F0C0FE3B4E034607
:108090002868002B18BF1E4621F0E8FE002306A921
:1080A00022680C91CDE910332B491393294B0E967E
:1080B0000F900D911293002AB7D12868002838D06C
:1080C00021F0D0FE40BB286821F0B6FE20B325F099
:1080D0002DF823681090002BAED1274D286850B39F
:1080E00021F0C0FEA8B9286821F0A6FE88B125F0CD
:1080F0007FF82268A4E706AB204A0C93204B164E6B
:1081000014491090CDE90E23119013900D96129101
:10811000D3E72268002093E7286840B121F0A2FE4F
:1081200028B1286821F09AFE40B126F033FD23687B
:108130007FE71090D2E70B4C119087E7236878E730
:10814000E8E4002000060120E8380700EC050120E3
:10815000E0380700746200209462002088E000206C
:10816000D8380700D038070014F5002074E5002047
:1081700094C8002030E2002014E20020C03807003C
:108180005C63070010B58AB000240A46012301464B
:1081900001A8ADF804408DF8064027F035F808B97D
:1081A0000AB010BD01A828F087F90AB010BD00BFC1
:1081B00038B5234C206800BB224C2068E0B121F088
:1081C00051FE002835D1206821F036FEA0B120688C
:1081D00021F032FE24F0A6FF1B4A1368B3F57A7F24
:1081E0000ADA48B119490C68A04205D0184C086059
:1081F00044F823000133136038BD25F0ABFF154B65
:108200001A688242F8DA104D18603BF0F9FF2B68CB
:10821000114AB3F57A7F1060EEDA20680B4C25F036
:10822000B3FF2B680A4920605A1C41F823002A60DA
:1082300038BD206821F012FE26F0AAFCCCE700BF72
:108240000006012014E2002014F5002024F500208F
:1082500074E50020FC050120DC0101202DE9F04738
:10826000054680682F6860B1284C3B6802685B68EF
:10827000AA60A3422AD13CF005F8A8680028F4D1EE
:108280002F682B8E05F10C093BB30026EB6ADFF853
:108290007C80B2460BE03BF0F5FFEB6AC4F800A02F
:1082A000298EC4F804A00136B2B2914216D9B4B2F4
:1082B00003EBC404616808460029EFD03B685B68A3
:1082C0004345E8D038469847EB6AE7E70146384629
:1082D0009847A8680028C8D1D2E7EB6A00214FF67A
:1082E000FF7299452986AA8607D03A6807495268DD
:1082F0008A4205D118463BF0C5FF2846BDE8F08705
:108300003846194690472846BDE8F087F1750200C7
:108310002DE9F047038E8146054659F80CABFBB1B9
:108320000026C36ADFF8A080374609E03BF0AAFFC9
:10833000EB6A2760298E67600136B2B2914210D98C
:10834000B4B203EBC404616808460029F1D0DAF83E
:1083500000305B684345E9D050469847EB6AE8E750
:10836000C36A00214FF6FF7299452986AA860CD070
:10837000DAF80020144C5268A24221D118463BF092
:1083800081FF0423C5F82C906B86A8682E68002313
:108390002B7158B10C4C336802685B68AA60A34229
:1083A00006D13BF06FFFA8680028F4D1BDE8F08744
:1083B000014630469847A8680028ECD1BDE8F08710
:1083C000194650469047DCE7F1750200008830B44A
:1083D0004FF6FF74A0421AD0CD6AC20905EBC20263
:1083E00000F07F03506810EBC30011D0C28800205A
:1083F000D309A24205EBC30302F07F0100F10100A3
:1084000006D05B6813EBC10302D0DA88F0E70020E6
:1084100030BC70472DE9F0418B8E4FF6FF729342CE
:1084200082B00C46054616D0CA6AD90902EBC102D1
:1084300003F07F01526832F83100A08602EBC102DE
:1084400000204FF6FF71107128462A60AB80D18062
:1084500002B0BDE8F081098E2768002932D1638E11
:10846000002B00F085800123E66A5A4A23864FF4E8
:1084700080604FF080083B681B68934274D13BF0EA
:10848000E7FE238EE76A7060013B9BB207EBC301F6
:1084900000284A6808BF4FF000080020A6F80080B6
:1084A000708022B137F83360488886422ED8012187
:1084B00000224FF6FF73284621712A60AB8002B07C
:1084C000BDE8F081E66A4B1E9BB206EBC30E304658
:1084D000DEF804202AB1BEF802C036F83380E04549
:1084E0001CD8638E994223D03A4A4B1C9BB2B3F5F9
:1084F000007F00EBC106238615BF4FF480604FF468
:108500007E704FF080084FF07F08B4E700EBC31394
:10851000441C9BB202EBC0024C8091E70CEBC313EE
:108520000CF101019BB202EBCC02AEF8021087E71E
:10853000B3F5007FBBD004F10C025B0096421FFA3A
:1085400083F83B6816D024489B6883424FEAC801F1
:1085500035D1304647F0F8FC0028A8D01D4A218EBE
:10856000E062A4F83280C0E701463846984788E7C1
:10857000E66AE0E7174A1B68019293424FEAC80097
:1085800022D13BF065FE019A002890D0D6F800C0B9
:108590007168B368D6F80CE0C0F80CE0C0F800C011
:1085A00041608360D6F810C07169B369D6F81CE0E9
:1085B000C0F81CE0C0F810C041618361CFE70A46F3
:1085C000384631469847C7E7014638469847019AEA
:1085D000DAE700BFF9750200E97502002DE9F04104
:1085E0008B8E4FF6FF72934282B00C46054611D037
:1085F000CA6AD90902EBC10203F07F01526832F85E
:108600003100A08602EBC10228462A60AB8002B08E
:10861000BDE8F081098E2768002932D1638E002BD6
:1086200000F085800123E66A594A23864FF4806072
:108630004FF080083B681B68934274D13BF008FE02
:10864000238EE76A7060013B9BB207EBC3010028F1
:108650004A6808BF4FF000080020A6F8008070802C
:1086600022B137F83360488886422ED80121002293
:108670004FF6FF73284621712A60AB8002B0BDE837
:10868000F081E66A4B1E9BB206EBC30E3046DEF865
:1086900004202AB1BEF802C036F83380E0451CD869
:1086A000638E994223D03A4A4B1C9BB2B3F5007FAC
:1086B00000EBC106238615BF4FF480604FF47E7037
:1086C0004FF080084FF07F08B4E700EBC313441C61
:1086D0009BB202EBC0024C8096E70CEBC3130CF18B
:1086E00001019BB202EBCC02AEF802108CE7B3F5AD
:1086F000007FBBD004F10C025B0096421FFA83F8A6
:108700003B6816D023489B6883424FEAC80135D1A5
:10871000304647F019FC0028A8D01D4A218EE0629F
:10872000A4F83280C0E701463846984788E7E66AF1
:10873000E0E7174A1B68019293424FEAC80022D132
:108740003BF086FD019A002890D0D6F800C07168F1
:10875000B368D6F80CE0C0F80CE0C0F800C0416087
:108760008360D6F810C07169B369D6F81CE0C0F810
:108770001CE0C0F810C041618361CFE70A4638466B
:1087800031469847C7E7014638469847019ADAE7E5
:10879000F9750200E97502002DE9F04F958E4FF64C
:1087A000FF739D4285B014460746884602F10C0BC4
:1087B0003BD0D36AEA0903EBC20305F07F025E688F
:1087C00036F83230A38606EBC2064FF6FF73F3800D
:1087D000A28E00219A423171B1465CD0E36AD10980
:1087E00003EBC10302F07F0A596831F83A30A386DF
:1087F00001EBCA0100234FF6FF700B71C880C8F867
:108800000010F2807B88834200F08380E16AD809FF
:1088100001EBC00103F07F03496801EBC303484645
:10882000DD807A8005B0BDE8F08F118E15680029D3
:1088300075D1528E002A00F01F810123E66AC24AD8
:1088400023864FF480604FF080092B681B689342A9
:1088500040F00A813BF0FCFC258EE36A7060013D2C
:10886000ADB203EBC5020028516808BF4FF0000904
:108870000020A6F80090708029B133F83530568872
:10888000B34200F297804FF000090123484623715C
:1088900005B0BDE8F08F208E23680193002862D1D7
:1088A000628E002A00F0EA800123D4F82CA0A64AA8
:1088B00023864FF480604FF0800B019B1B681B6880
:1088C000934240F0D5803BF0C3FC228ED4F82CC0FC
:1088D000CAF80400013A92B20CEBC20300285968AE
:1088E00008BF4FF0000B0020AAF800B0AAF8020061
:1088F0000029C8D03CF83200B3F802A05045C2D9D4
:108900000AEBC2120AF1010092B201EBCA015880CF
:1089100070E748463D807A8005B0BDE8F08FE36A95
:108920004A1E92B203EBC20E1846DEF804602EB166
:10893000BEF802C033F83290E14543D8628E9142CE
:1089400054D0814A4B1C9BB2B3F5007F00EBC106AB
:10895000238615BF4FF480604FF47E704FF080097E
:108960004FF07F0971E7E36A421E92B203EBC20C3B
:108970009E46DCF804A0BAF1000F06D0BCF8021045
:10898000029233F832208A4226D8628E90424AD030
:108990006D4A431C9BB2B3F5007F0EEBC00A2386E1
:1089A00015BF4FF480604FF47E704FF0800B4FF096
:1089B0007F0B82E706EBC515731CADB201EBC60653
:1089C000538002E70CEBC2150CF10103ADB206EBCC
:1089D000CC06AEF80230F8E6029A4B1C01EBC2124C
:1089E00092B20AEBC101ACF8023003E7B2F5007FA6
:1089F0003FF449AF52009B451FFA82F940D02A68E4
:108A00005248966886424FEAC90140F09180184664
:108A100047F09AFA00283FF436AF4B4A218EE062C5
:108A2000A4F832908EE7B2F5007F3FF42CAF5200ED
:108A30001FFA82FA019A9B4511684AD0D1F808B012
:108A4000424A93454FEACA0177D1184647F07CFA6B
:108A50008646BEF1000F3FF416AF3B4A208EC4F8A5
:108A60002CE0A4F832A094E7014628469847F3E6A4
:108A700001460198984728E7E36ABBE7E36AD6E72F
:108A80002968314A0E689642CDE901324FEAC900A1
:108A90005ED13BF0DDFBDDE9013200283FF4F3AEAF
:108AA000D3F800C05E689968D3F80CE0C0F80CE019
:108AB000C0F800C046608160D3F810C05E69996953
:108AC000D3F81CE0C0F81CE0C0F810C0466181611A
:108AD000A4E71D4AD1F800B09345CDE902324FEA30
:108AE000CA003BD13BF0B4FBDDE902328646BEF161
:108AF000000F3FF4C8AE18685968D3F808B0D3F82F
:108B00000CC0CEF80CC0CEF80000CEF80410CEF8A1
:108B100008B018695969D3F818B0D3F81CC0CEF85A
:108B20001CC0CEF81000CEF81410CEF818B095E79F
:108B30000A4628461946B0476CE70A460198194686
:108B4000D847864685E700BFF9750200E97502003F
:108B500001462846B047DDE901329EE7014601980B
:108B6000D847DDE902328646C1E700BF2DE9F84368
:108B700007464068BD68032D884600F1080613D8F3
:108B80005FFA85FC002D77D00CF1FF3456FA84F49F
:108B9000C31D002213F8011F002908BF42F0010283
:108BA000A342F7D1002A40D000237355D7F8009094
:108BB000BE68D9F80830A3B106F1070C8444DA88FE
:108BC00096420BD13EB3C21DDC1D01E0944522D07C
:108BD00012F8011F14F8015FA942F7D01B68002B9F
:108BE000EDD1B6F5803F7D68D9F8004034D22368D6
:108BF00028489B68834206F1090140D1284647F086
:108C0000A3F9034643B33A68DE80916819600021F6
:108C10009360796002E09A8801329A800522C8F850
:108C2000003088F80420BDE8F883022388F8043077
:108C3000037A88F80030BCF1010F08D0437A88F835
:108C40000130BCF1020F02D0837A88F80230002391
:108C500008F80530BDE8F88323680F4A5B68934243
:108C600013D02946204698473A680023926801218C
:108C700089F804101A60FFDE02230B71E7E70A4649
:108C80002046294698470346BCE728463BF0FAFAB7
:108C9000EAE700BFE9750200F17502002DE9F0472F
:108CA00045684DB18368EA88934204460E4605D074
:108CB0001D440133A3602E72BDE8F0875B00D0F83D
:108CC00000905F1CB7F5803FD9F8008012D2D8F829
:108CD00000201549D2F808A08A4503F10A021CD1E8
:108CE0001146284647F030F920B1C780A36860607C
:108CF0000546DDE7D8F800300C4A5B68934208D19E
:108D000028463BF0BFFA0122002389F80420636063
:108D1000D2E7294640469847F5E729464046D047DE
:108D20000028E2D1E6E700BFE9750200F175020014
:108D300003792DE9F0470C46D907054637D4DA0602
:108D400024D413F0600F1DD02E884FF6FF77BE425B
:108D500015D0E36AF20903EBC20306F07F09D3F8EA
:108D6000048008EBC900B246C6882146FFF7E0FF41
:108D7000A38E28F83930BE42A4F834A0E9D14FF0D0
:108D8000FF332B6000232B71BDE8F0872A884FF654
:108D9000FF718A4237D0E16AA68ED00901EBC0018B
:108DA00002F07F00496821F83060A286C9E7A06818
:108DB0002A6826680028C2D0824216D00146006880
:108DC0000028BCD08242F9D18288013A92B28280D6
:108DD000002AB4D103680B6033680C4A5B68934285
:108DE0000CD13BF04FFA2B79A9E78288013A92B275
:108DF0008280002AA3D10368A360EDE701463046D4
:108E000098472B799BE700231B80FFDEF17502005A
:108E10002DE9F04F0E46097885B02B29009000F01F
:108E2000FD802D2940F0B880717801200190064422
:108E3000A1F13000C0B2092800F2B680DFF8F89343
:108E4000C0B20021002400254FF0993816F801BF68
:108E50002418ABF13007FFB241EB05054FEA850E50
:108E6000092F6FEA07024FF0FF334FEA840C4EEAF6
:108E7000947EF8B24FF0000100F21E81A94508BFB0
:108E8000A0450BD31CEB040C4EEB050E1CEB0C04A5
:108E90004EEB0E05AB4208BFA242D7D24FF0000AFC
:108EA0000023204629460A2245F08EFEA946A04608
:108EB0001FFA8AF3B9F5200F03F1010A08BFB8F1D0
:108EC000000F04460D460FFA8AFAE9D2092F0BD893
:108ED00002339B1B06EB030A16F801BFABF130020D
:108EE000092A0FFA8AFAF5D9BBF12E0F00F0B680E5
:108EF0000BF0DF03452B60D0BBF1000F56D10AF118
:108F000026034C2B00F2FC80002D08BFB4F5000FA7
:108F100080F0F68007EE904ABAF1000FF8EEE77A9B
:108F200040F36481BC4B1AF0010F1CBF93ED007A33
:108F300067EE877A5FEA6A0223D0D00744BF93EDD9
:108F4000017A67EE877A5FEAAA021AD0D10744BF96
:108F500093ED027A67EE877A5FEAEA0211D0D207D0
:108F600044BF93ED037A67EE877A5FEA2A1A08D046
:108F7000BAF1010F0CBF93ED047A93ED057A67EE19
:108F8000877A019B0BB1F1EE677A009A0123C2ED5B
:108F9000027A137010460DE000200190A1F130001C
:108FA000C0B209287FF64AAF2E2953D0009A002379
:108FB0001370104605B0BDE8F08F96F801B0BBF114
:108FC0002D0F36D0BBF12B0F00F0F080ABF130034A
:108FD000DAB2092A06F101068ED80AEB0302B2F5CD
:108FE0009A7F00F3D780002706E002EB400303EBF3
:108FF0000A02B2F59A7F79DC16F801BFABF13002B4
:10900000D1B2092903EB8300EFD9002F40F0C780CC
:109010009A44BBF1000F3FF472AFC7E771780020AC
:109020000190A1F13000C0B2092806F10106BBD8B9
:1090300004E796F802B0ABF13003DAB2092A06F180
:1090400002063FF659AF0AEB0302B2F59A7F4FDCF6
:109050000127D1E7002400254FF0000A96F801B05F
:10906000ABF13000C0B2092806F101063FF640AF6F
:109070006A4B4FF099329D424FEA850108BF9442F6
:109080004FEA840741EA94710ED23F1945EB010182
:1090900017EB070841EB01090AF1FF3A18EB00044E
:1090A0000FFA8AFA49F1000516F801BFABF130005A
:1090B000C0B20928DFD91BE7BBF1000F40F0D28016
:1090C000019B8BB1B5F1004F08BF012CBFF4E6AE98
:1090D000644265EB45050223009A1046C2E9024549
:1090E000137005B0BDE8F08F0323F5E7002F51D0D2
:1090F00000994FF00042012308468A600B7059E73F
:109100002046294645F084F8BAF1000F79DD444C39
:109110001AF0010F7AD15FEA6A032DD0DF0700F160
:109120008D805FEAAA0327D0DE0700F18C805FEA1A
:10913000EA0321D0DD0700F18B805FEA2A131BD000
:10914000DA0700F18A805FEA6A1315D0DB073ED4A4
:109150005FEAAA1310D0DF073ED45FEAEA130BD010
:10916000DE073ED45FEA2A2306D0DD0744D45FEA57
:109170005A231CBF2B490020019B13B101F100436E
:109180001946009A0423C2E902011046137005B083
:10919000BDE8F08F019B0020BBB12349F1E7AAEBAA
:1091A000030ABBF1000F3FF4AAAEFFE696F802B047
:1091B000ABF13003DAB2092A06F102067FF60DAFF1
:1091C000BBF1000F3FF49BAEF0E61849D9E7D4E9B4
:1091D0000A2345F053F8BBE7D4E90C2345F04EF8D9
:1091E000BBE7D4E90E2345F049F8BBE7CAF1000A12
:1091F0003FF4C7AE0E4B96E6D4E9102345F03EF897
:10920000B5E7CAF1000AB7D00A4C81E7D4E90023D8
:1092100045F034F87FE700BFC84B0700999901007B
:10922000284C07000000F87F0000F0FF0000F07FEE
:10923000B04B0700E04B070099999919D4E9022334
:1092400045F01CF86DE7D4E9042345F017F86EE704
:10925000D4E9062345F012F86FE7D4E9082345F076
:109260000DF870E7B5F5801F08BF002CBFF416AEEF
:109270004FF0000A38E600BF10B5064C206838B140
:1092800020F0F0FD20B12068BDE8104020F0E6BDE0
:10929000002010BD14E20020114B186808B124F022
:1092A0007FBF10B50F4C2068B8B120F0DBFD38B996
:1092B000206820F0C1FD18B1BDE8104023F016BFB2
:1092C000206850B120F0CEFD38B1206820F0C6FDF6
:1092D00018B1BDE8104025F03FBC002010BD00BF14
:1092E0000006012014E20020114B186808B124F098
:1092F0005BBF10B50F4C2068B8B120F0B3FD38B992
:10930000206820F099FD18B1BDE8104023F0F2BEAE
:10931000206850B120F0A6FD38B1206820F09EFDF5
:1093200018B1BDE8104025F01BBC002010BD00BFE7
:109330000006012014E20020114B186808B124F047
:1093400009BF10B50F4C2068B8B120F08BFD38B9BB
:10935000206820F071FD18B1BDE8104023F0F4BE84
:10936000206850B120F07EFD38B1206820F076FDF5
:1093700018B1BDE8104025F0F7BB002010BD00BFBC
:109380000006012014E200202DE9F041604B19682D
:1093900000298AB02DDD5F4B0093012929D003F10C
:1093A000A8020229019224D003F5A872032902928F
:1093B0001FD003F5FC72042903921AD003F528721A
:1093C0000529049215D003F552720629059210D092
:1093D00003F57C72072906920BD003F593620829E6
:1093E000079206D003F5A863092908931CBFA83388
:1093F0000993684614F048F9061E5BDB464FA82324
:1094000003FB067393F89040002C4FD0434C206828
:1094100018B13DF047FA00232360414D286818B188
:109420003DF040FA00232B604FF44F503DF036FAE8
:109430003C4BA82404FB067493ED000B00218046EE
:1094400023F0FEFE94ED063B94ED042B94ED021BFD
:1094500094ED000B4046C5F8008024F05FFC94EDCD
:10946000223B94ED202B94ED1E1B94ED1C0B2868E1
:1094700024F0CEFC94F84030002B3DD1A82303FB10
:10948000067393F868205ABB286824F045FE2868C4
:1094900024F030FE20B1286824F030FE044670B974
:1094A000286808B13DF0FEF900242C6020460AB07F
:1094B000BDE8F081002420460AB0BDE8F0811A4DD5
:1094C0001A49C6EB0616314428460E2246F061FEC4
:1094D000174A00232046AB7313600AB0BDE8F08141
:1094E00093ED183B93ED162B93ED141B93ED120B9C
:1094F000286824F083FDC7E794ED0E3B94ED0C2B18
:1095000094ED0A1B94ED080B286824F0FDFCB5E7E8
:10951000D001012051070120C006012014E20020E3
:109520000006012010620020EC0501201439012002
:10953000FC05012070B5274D274C2B78002B3FD020
:10954000237C002B3AD1254C3CF05EFF20680121A2
:1095500013F07EFF08B100232360214E3CF05EFF34
:10956000204B306800241C702C7010B13DF09AF92B
:1095700034601D4C206818B13DF094F9002323603D
:109580001A4A1B481B4B1C491C4D1D4E00241460DD
:1095900004701C4A1C481C701C4B0C702C6014601E
:1095A000046021461A4834704FF0FF354FF47A6258
:1095B0001D6045F0EBFD174B1C6070BDFEF706FD0E
:1095C000237C002BBFD0144826F0DCF9124825F08C
:1095D000E5FBB8E7DA05012020E2002018E20020D0
:1095E00014E2002038E3002000060120FC050120E1
:1095F00054060120D901012070E500206CE500200F
:10960000EC05012014F5002024F500201C62002048
:1096100074E500205006012030E2002008B5254BFB
:109620001B785BB3244B1B78042B02D1234B1B7894
:1096300023B33AF0E5FD224A224B1268801A984281
:109640001CD9214B1B681BB1204B1B68002B16DC5F
:109650001F4B93ED007AF0EE007AB4EEE77AF1EE6C
:1096600010FA0CDA1B4B1A787AB13AF0C9FD1A4B92
:109670001A684EF65F23801A98420DD808BD154926
:10968000154A00230B70136008BD01221A703AF0CE
:10969000B7FD114B186008BDFFF74CFF0F4A10498A
:1096A000136803F59C5308334FF0FF3013600860D4
:1096B00008BD00BFD9010120F8C3002035E5002016
:1096C000DC0101201FBF0200000601200806012066
:1096D00068E5002070E500206CE50020ACE2002089
:1096E0001862002030B5314C23680F33042B87B04B
:1096F00001D907B030BD3AF083FD2D4D0146284613
:1097000011F09AFE0028F4D02A4A2B4B12681968EF
:109710008A4203D0294991F8280060BB3AF070FDD5
:109720000146234811F088FE0128E2D03AF068FD96
:1097300001461F4811F0B0FE2B78042B9CBF6FF040
:109740000A02D21A236888BF4FF0FF3293420BD02F
:109750001B491C480B68226003F59C530833002208
:109760000B60026007B030BD154A136803F59C53C7
:1097700008331360BDE791ED000B91ED021B91EDF5
:10978000082A1A608DED040B8DED001B8DED032A68
:109790003AF036FD9DED001B01469DED040B9DED5D
:1097A000032A284611F004FEB8E700BF1862002023
:1097B0001061002038E5002000E20020E8E40020ED
:1097C000ACE2002060FF002070B51C4D8AB0002480
:1097D00028460894CDE90244CDE90444CDE9064485
:1097E000CDF823402EF068F90246284601922EF06B
:1097F00065F91F26019A014602A845F09FFC02A9BF
:10980000324628462EF05CF93C352146324602A805
:1098100045F0BCFC28462EF04FF9019028462EF06A
:109820004DF9019A014602A845F088FC324602A98A
:1098300028462EF045F90AB070BD00BF0451012042
:10984000284B294A294870B5C3F800261EF0FCFEB3
:10985000002104203DF0B2FF01210520244D3DF000
:10986000ADFF092445F00105002105203EF02AF84E
:109870004FF4A070A847012105203EF023F84FF4D3
:10988000A070A847013CEFD1012104203DF096FFD4
:10989000214604203EF016F84FF4A070A84701219D
:1098A00005203EF00FF84FF4A070A8470D4C0E4E67
:1098B000012104203EF006F84FF4A070A8470B48A1
:1098C000C4F800661EF046FE0A4908481EF09EFED7
:1098D0000948C4F8006601223C2133F09FFBC4F81C
:1098E000006670BD000001403546526EE43901202B
:1098F00060510700801A060054E200202DE9F0476D
:10990000544E554D3768D7F8008040463DF0F8FF7B
:10991000034645F0010503244FF4FA405BB9012CDE
:1099200074D0A84740463DF0EBFF0346013C4FF49E
:10993000FA40002BF3D001237B71484F464DD7F8F6
:109940000080D8F8009048463DF0DAFF034645F025
:10995000010503244FF4FA405BB9012C66D0A847F7
:1099600048463DF0CDFF0346013C4FF4FA40002B42
:10997000F3D0012388F80530DFF8EC90364DD9F8A4
:109980000080D8F800A050463DF0BAFF034645F0ED
:10999000010503244FF4FA405BB9012C22D0A847FB
:1099A00050463DF0ADFF0346013C4FF4FA40002B1A
:1099B000F3D0012388F8053033681B793BB1284A7E
:1099C000136803F59C5308331360BDE8F0873B68C8
:1099D0001B79002BF3D1D9F800301B79002BEED185
:1099E000BDE8F0873AF00CFC98F80530002BE3D086
:1099F0001C4BD8F808201B68801A9842DCD33AF038
:109A0000FFFBA8F80440C8F80800D5E73AF0F8FBD7
:109A10007B79002B91D0134BBA681B68801A98424F
:109A20008BD33AF0EDFBBC80B86086E73AF0E8FBF8
:109A300098F80530002B9FD00A4BD8F808201B68F7
:109A4000801A984298D33AF0DBFBA8F80440C8F893
:109A5000080091E7D460002060510700D860002022
:109A6000ACE20020C8600020DC600020424B1B6894
:109A70002DE9F0411E68414D30463DF041FF03465F
:109A800045F0010503244FF4FA405BB9012C0BD0DB
:109A9000A84730463DF034FF0346013C4FF4FA40FE
:109AA000002BF3D0002600E02646354B334D1B68D3
:109AB0001F6838463DF024FF034645F001050324A6
:109AC0004FF4FA405BB9012C0BD0A84738463DF063
:109AD00017FF0346013C4FF4FA40002BF3D000255A
:109AE00000E02546274B254F1B68D3F800804046F1
:109AF0003DF006FF034647F0010703244FF4FA4008
:109B00005BB9012C0AD0B84740463DF0F9FE034648
:109B1000013C4FF4FA40002BF3D000249EB11A4EC2
:109B20003378DBB165B1194D2B78F3B124B1184C02
:109B300023785BB1BDE8F081154B1C70BDE8F08166
:109B4000124B1D70F2E7104B1E70EBE73AF058FB1A
:109B5000104A012310602370BDE8F0813AF050FBF9
:109B60000D4A012310603370DCE73AF049FB0B4AE1
:109B7000012310602B70D9E7D460002060510700EA
:109B8000D8600020DC600020DDE10020E4E100205E
:109B9000ECE10020F0E10020E0E10020E8E100201D
:109BA00038B50F4A0F4B126819688A4215D00E4912
:109BB0001A6000230B6001220C4C0D4B204600253F
:109BC0001A70E57632F094FF2046012132F0BCFC99
:109BD0004FF00113C4E9045338BD0022ECE700BF85
:109BE000186200202CF5002060FF002054E20020C5
:109BF000E00101201A4A13680E2B28D00D2B15D036
:109C0000083312D0174B184993ED007A0B68F1EE28
:109C1000047AB4EEE77AF1EE10FA03F59C5394BFA0
:109C20000B200A20083310600B6070470F4B10495F
:109C30001A680B68013A9A420B4A14BF0133002399
:109C40000B60136803F59C53083313607047064993
:109C50000B6803F59C5308335A200B601060704763
:109C60001862002068E50020ACE200206862002055
:109C70001CE200200378462B01D00020704710B56D
:109C80004378572B044627D11449082246F06FFA2F
:109C900008B9012010BD12490622204646F067FA95
:109CA0000028F6D00F49204646F036FA0028F0D0BA
:109CB0000D49204646F030FA0028EAD00B492046EC
:109CC00046F02AFA0028E4D00949204646F024FA52
:109CD000B0FA80F0400910BD002010BD083907001F
:109CE000143907001C390700243907002C390700F4
:109CF000343907002DE9F04362498DB0082204464B
:109D000046F035FA00284CD15F4F3B7803F0FF0650
:109D1000002B51D1083420462C2146F0F0F90028C0
:109D20004AD000F1010948462C2146F0E8F90546E1
:109D3000002841D020460A22314647F061F9A5EBC0
:109D40000903082B80464AD1D9F80000D9F804103D
:109D500002AB03C302A801A98DF8106011F018FE30
:109D600000283CD008F1FF33B3F5CC2F56D26878E9
:109D7000013590B1DFF85C916E2647F04BF904464F
:109D8000304647F047F9844207D115F8010F002803
:109D90005DD019F8016B002EEFD13C48FDF7FAFBBE
:109DA0000DE03B490622204646F0E1F950B9364B1A
:109DB0001B78012BDDB218D03648FDF7EBFB0DB058
:109DC000BDE8F0833449204646F0A6F9C8B92E4BC9
:109DD0001B78022BF0D1314B01221A70EFE730488B
:109DE000FDF7D8FB0DB0BDE8F08301460A22A01DA7
:109DF00047F006F92B4B1B6883420FD12A4B1D708D
:109E0000DDE72A49204646F087F968B91E4B1B78E2
:109E1000032BD1D1264B01221A70D0E72548FDF73C
:109E2000B9FB0DB0BDE8F0832349204646F074F934
:109E300048B12249204646F06FF90028BFD1204B97
:109E400001221A70BBE71F4B01221A70B7E799F87D
:109E50000030002BA1D1134B1B4A0198C3F800809E
:109E600005A901233B70106011F05CFD174A05AB9A
:109E700008A8102146F080F808A982B214482EF0F4
:109E80004FFC9CE7083907009DB3002050390700BC
:109E9000143907003C3907001C390700D56B002036
:109EA00044390700F46C00203D6B00202439070082
:109EB000F36C0020483907002C39070034390700BB
:109EC0003C6B0020F26C0020DC6B0020583907004E
:109ED00090E400206539070083490978012900D002
:109EE00070472DE9F0411C469CB0804B1546CEB220
:109EF000412200210BA81E7045F048F9402C224653
:109F0000294628BF40220BA845F018F90BA846F0B7
:109F100026F9431E70B10BAA754F1A4412F80119A5
:109F20000A39C9B227FA01F016296FEA000003F1D5
:109F3000FF3310D96F4F3B78BBB16F490BA8052297
:109F400046F015F960BB062C2AD86C4B01221A701A
:109F50001CB0BDE8F08110F00100EBD1591C50702D
:109F6000DCD1644F3B78002BE7D1DFF8E88198F82B
:109F70000030022B73D0402C00F282806049042212
:109F80000BA846F0F4F8B0B95E4C237803F0FF0557
:109F9000002B4BD05C495D4804222EF0C1FBD7E773
:109FA0005B4E338814FA83F3B3F5805F49DD594B78
:109FB00001221A70CCE7584904220BA846F0D7F8C2
:109FC000D8B1564907220BA846F0D1F8002840F036
:109FD000C7809DF83330202B0DF1330003D110F8EA
:109FE000013F202BFBD0182112F0BEF898B94C4944
:109FF0004C4809222EF094FBAAE79DF83030202B24
:10A000000CA803D110F8013F202BFBD0182112F02F
:10A01000ABF8002834D03B4C237803F0FF052BB17C
:10A020003949404804222EF07BFB91E73E4B402209
:10A030000BA9184646F0ADF8012280F84050227076
:10A0400086E73A4B3088294613FA80F0224645F0DD
:10A0500075F8338814FA83F39BB2338078E7082CC1
:10A0600014D833490BA846F057F820B131490BA852
:10A0700046F052F850B921460BA8FFF73BFE67E7C0
:10A080002D49284805222EF04BFB61E798F8003057
:10A09000022B7FF45DAF294B1A7802F0FF00002AF3
:10A0A0007FF456AFDFF8B080254AD8F80070126808
:10A0B0002744974200F2C480224A234ED2F800C0BF
:10A0C000318814FA81F1B1F5805F40F2BF80DFF88A
:10A0D0008CC0DCF80010013100F0CA801B4A1C491A
:10A0E000116001221A7033E720E100208E900020D9
:10A0F000090040008880002070390700D5920020B8
:10A1000088390700F16C0020803E0700C8E300207A
:10A110008C9000202B800020903907009839070090
:10A12000A039070090E40020946B00208C80002070
:10A130001C3907002C390700803907009CB3002028
:10A14000F46C002038C400203CC40020D86B0020F0
:10A15000783907009DB30020187D0020B8600020EA
:10A16000A7490BA845F0D8FF00285CD0A5490522D7
:10A170000BA845F0FCFF002855D0A34905220BA8E9
:10A1800045F0F5FF00284ED0A0490BA845F0C4FFCC
:10A19000002848D09E490BA845F0BEFF00287AD081
:10A1A0009C490BA845F0B8FF002874D09A490522B5
:10A1B0000BA845F0DCFF002800F0AA809749062292
:10A1C0000BA845F0D4FF002800F0A2809449052296
:10A1D0000BA845F0CCFF002800F0CD809149062265
:10A1E0000BA845F0C4FF002800F0C5808E49052269
:10A1F0000BA845F0BCFF002800F09D808B4906228B
:10A200000BA845F0B4FF002800F0958088490BA802
:10A2100045F082FF00284BD00BA8FFF72BFD00284C
:10A220003FF496AE27E7834C237803F0FF050BB984
:10A23000814BFCE68149824805222EF071FA87E6BF
:10A24000804A8149116001221A7081E67F4B03EB3D
:10A250000C333088294613FA80F0224644F06EFF12
:10A260003388C8F8007014FA83F39BB233806FE62A
:10A270003188DFF818E2754B89B2AEF8001011682A
:10A28000CCF80010116881F0010111603080126873
:10A2900003EB0233DDE76E4C237803F0FF05002B60
:10A2A0003FF4C4AE6B49664809222EF039FA4FE6F6
:10A2B000694B186843F08AFF03AE04460D4645EC2F
:10A2C000104B32460221042039F084FF48A3D3E921
:10A2D00000232046294643F019FE47A3D3E9002373
:10A2E00043F0CCFF44F07AFA6428A8BF642020EA47
:10A2F000E0735A4A0096182105A845F03DFE05A8CE
:10A3000045F02DFF05A982B24D482EF009FA1FE64F
:10A310009DF82D30532B0CBF062005200BAB1844A5
:10A32000182111F021FF0028B5D14D4944480D22D4
:10A330002EF0F6F90CE64B4D2B7803F0FF07002BBF
:10A34000B0D19DF82D30532B3ED00DF13104204675
:10A35000182111F009FF0028E7D021463E46424B64
:10A36000424C18221846267045F013FF00210122A6
:10A3700001762A70ECE53B78002B93D13C4B1D789D
:10A38000002D8FD19DF82D30532B27D00DF13104A6
:10A390002046182111F0E8FE0028C6D021462E469E
:10A3A000344C354B354D1E701822204645F0F1FED9
:10A3B000334E3448344900230122338023762B70F6
:10A3C00003700A703A70C3E50DF13204204618217B
:10A3D00011F0CAFE0028A8D02146C0E70DF13204D2
:10A3E0002046182111F0C0FE00289ED02146D7E754
:10A3F0006666666666660A40721CC7711CC75B406B
:10A40000AC390700B4390700BC390700C43907006C
:10A41000D4390700DC390700F0390700F8390700A4
:10A42000103A0700183A0700203A0700283A0700B8
:10A43000303A0700969000203C800020CC3907007D
:10A4400090E40020D86B002048390700F4920020E7
:10A45000F16C0020E43907001CF50020383A0700B1
:10A46000003A070098920020BC920020207D002036
:10A4700021E10020D8920020217D00202B800020A7
:10A480008C900020D59200202C800020306B002082
:10A49000124B13490122002030B45A600325DA60C0
:10A4A0000424C3F8040541F28830C3F80855C3F802
:10A4B00010454FF48035C3F8400560244FF08060AC
:10A4C000C3F80022C3F8045381F81A43C1F880018D
:10A4D0000860044930BC0A701A60704700A001404F
:10A4E00000E100E0096D002070B5304C304D31487E
:10A4F00082B011F05FFE40F24C43032201212E484E
:10A50000C4F800561DF0D2F92C4BC4F8005640F2A6
:10A510004C461978284840F24C4303221DF060FF56
:10A520003346032204212448C4F800561DF092FA51
:10A53000C4F800560323002201211F4800961DF095
:10A54000CBFAC4F800560323012200211A480096D2
:10A550001DF0C2FAC4F80056032302220021164857
:10A5600000961DF0B9FA03231A46C4F800560021DC
:10A57000114800961DF0B0FAC4F8005603230021DC
:10A580000D48009606221DF0A7FA0D4BC4F80056A0
:10A59000197809B102B070BD3346032206481DF098
:10A5A000BFFDC4F8005602B070BD00BF00000140FE
:10A5B0003546526EF86C002068FF002024620020AF
:10A5C00025620020104A114B114810B50021114C92
:10A5D00011704FF47A621960216044F0D7FD0E4883
:10A5E000037C6BB90D4C3BF00FFF2068022112F089
:10A5F0002FFF08B100232360BDE810403BF00EBFE1
:10A60000103024F0CBFBEDE7D805012024F5002025
:10A6100074E5002014F50020E401012018E2002078
:10A620002DE9F0430024BDB0374B049401464FF4AC
:10A630007A75224607A8ADF81C408DF81E40059596
:10A64000039324F0E9FD20B9002528463DB0BDE87C
:10A65000F0832E494FF4806207A824F03DFE0646A1
:10A6600007A824F09BFBB6F5806FEDDB284E009524
:10A6700002A9019125480294334610AA4FF4806143
:10A6800011F04AFB05460028DFD0224BDFF8988006
:10A69000214FDFF8989010A91846172245F079FD50
:10A6A00003461F22404616A9DC7545F072FD88F866
:10A6B0001F403846DFF878801F221EA945F069FD4B
:10A6C000FC770F22154F26A9484645F062FD0F2260
:10A6D0002AA9404689F80F4045F05BFD0F22384615
:10A6E0002EA988F80F4045F054FD029A0C4BFC73DC
:10A6F0001A6012B1013A56F822200A4B28461A6015
:10A700003DB0BDE8F08300BF484B070094C4002073
:10A7100074E50020E0E20020C0E2002018E3002001
:10A7200014F5002024F50020F8E2002028E30020A2
:10A73000B0E2002070B50C4E05463BF065FE306877
:10A74000294612F06DFE044620B93BF067FE3368DF
:10A75000204670BD2946306812F072FE30603BF032
:10A760005DFE204670BD00BF18E2002030B5254BCD
:10A770001C788BB004BB05460320FFF7DBFFD8B184
:10A780002149ADF8044001A823462A468DF8064029
:10A7900024F03AFDB8B11C49ADF804402A46012323
:10A7A00001A88DF8064024F02FFDF8B91749184884
:10A7B00007222DF0B5FF0BE01649154804222DF0B5
:10A7C000AFFF0BB030BD1449114809222DF0A8FF8E
:10A7D000124C3BF019FE2068032112F039FE08B13B
:10A7E000002323603BF01AFE0BB030BD01A825F01A
:10A7F00063FE0028DAD00A49054807222DF090FFB1
:10A80000E6E700BF21E1002048660020443A070047
:10A8100090E40020803E0700A039070018E20020E5
:10A820004C3A070010B5084C82B001903BF0ECFDAB
:10A830002068019912F00CFE08B10023236002B0D9
:10A84000BDE810403BF0EABD18E20020F8B516491B
:10A85000164C174A174F184E184D194800233B70D5
:10A86000337023700B70174C13701749174A2B70F5
:10A87000174D236013600B80164C1749027C2B6028
:10A880004FF0FF3525600B804AB9144C237803B98B
:10A89000F8BD0320FFF7C6FF00232370F8BD10307A
:10A8A00024F07CFAF1E700BFF36C0020D56B0020A8
:10A8B000F26C00209DB300203D6B00209CB3002073
:10A8C00018B3002038C400203CC40020D86B0020FE
:10A8D000187D0020B8600020306B0020F6B3002007
:10A8E00008B5082209490A482DF01AFFFFF7AEFF04
:10A8F000C82039F091FCFF210020FCF7FBFC572118
:10A900000020FCF7F5FCFCF7DDFC00BF543A070023
:10A9100090E400202DE9F043394B3A4E3A491C6847
:10A920003A4B3B4F0128BDB00ABF37468846984690
:10A93000002C4CD105460320FFF7FCFE002846D032
:10A94000344B354A354E36490194012D18BF1A460D
:10A9500004A823464FF47A75ADF810408DF81240E4
:10A960000295009624F050FC9DF81030002B39D051
:10A97000DFF8B49002E011A824F010FA002204A934
:10A9800011A8CDE90E45ADF844408DF846400D962E
:10A9900024F060FF9DF844300BB313F0D00FEAD1E0
:10A9A0001AA9402211A826F0ABF91AAB2AA83A46F8
:10A9B000462145F0E1FA431E442BDCD882B22AA995
:10A9C00048462DF0ADFE0A2039F026FCD3E71549A4
:10A9D00015480C222DF0A4FE3DB0BDE8F08304A87C
:10A9E00024F0DCF90320FFF71DFF404645F0B7FBDC
:10A9F000414682B20C482DF093FE3DB0BDE8F08395
:10AA000018E20020743A07006C3A0700803A070009
:10AA1000603A0700C04C070020510700484B070070
:10AA200048660020883A070090E400202DE9F047AE
:10AA30003B4B1C68ADF5287D24B90320FFF77AFE57
:10AA4000054640B93749384804222DF069FE0DF516
:10AA5000287DBDE8F0872346344E354A35490494B5
:10AA60004FF47A7707A8ADF81C408DF81E40059783
:10AA7000039624F0C9FB9DF81C30002B4BD0DFF867
:10AA8000C090DFF8C0802C4F02E014A824F086F9B3
:10AA900000224FF47A7307A914A8CDE91062ADF82B
:10AAA00050208DF85220129324F0D4FE9DF850408F
:10AAB00014B314F0D004E8D10DF1740A51464FF4E8
:10AAC000807214A826F01CF91B9A0192002D14BF65
:10AAD0004B4643463A464FF49671CDF800A05DA828
:10AAE00045F04AFA5DA982B20F482DF019FE0A20FE
:10AAF00039F092FB2546C8E707A824F04FF9032058
:10AB0000FFF790FE0D49084803222DF009FE0DF5D0
:10AB1000287DBDE8F0870320FFF784FE92E700BFA1
:10AB200018E20020803E0700C8E30020484B0700E1
:10AB3000B4380700486600209C3A0700A83A07008E
:10AB40005C630700983A0700F0B52E4E337C8FB057
:10AB50000446002B51D10320FFF7ECFD002845D01F
:10AB600000272246284C294901943B464FF47A7528
:10AB700005AC05A803950297ADF814708DF8167012
:10AB800024F042FBA446BCE80F00214D029C7460F7
:10AB90000FC5BCE80F000FC5DDE90321337CDCF8ED
:10ABA00000002860C6E90221B3B11A48F36A1A4AC4
:10ABB0001A490360012017600870194A202101A872
:10ABC00045F0DAF901A845F0CAFA01A982B21548A0
:10ABD0002DF0A6FD0FB0F0BD0320FFF723FE1249B4
:10ABE000104805222DF09CFD0FB0F0BD0F490D4817
:10ABF00004222DF095FD0FB0F0BD06F1100024F0F9
:10AC0000CDF8A8E7E0E00020484B070048660020A8
:10AC1000F0E0002014E10020D8E0002021E1002035
:10AC2000AC3A070090E4002080390700803E07001E
:10AC30002DE9F04F1F4C85B004F26C4980464F4619
:10AC400004F2444BA246032501AEFF220023CDF8B7
:10AC50000880ADF80420039396E80E00384627F0EC
:10AC6000EDFA94F87E341348C4F86894012239460A
:10AC7000BBB926F0F7FA60B1584624F08FF80E48B9
:10AC8000514624F00BFB60B10C4B1C6005B0BDE8D5
:10AC9000F08F034602463946064826F0E3FA0028BC
:10ACA000EAD1642039F0B8FA013DCED1284605B08A
:10ACB000BDE8F08F486600208C6A00205C3E0120D1
:10ACC00010B52048204A037C002111705BBB1F4A4D
:10ACD0001F4B002414701C70FFF7B8FD1D4A1E4B5B
:10ACE0001E48147021461C702CF024FF1C482FF0C5
:10ACF000FFFEF8B919482CF0E3FF194800212FF0A6
:10AD0000CDFE174800212FF0CDFE01210C203CF094
:10AD1000D9FD1449144A15480023BDE810400B70B2
:10AD20001370FFF785BF103024F038F80320FFF7C9
:10AD300079FDCCE70A482FF00FFF014608482FF0B5
:10AD4000F5FED7E7E0E00020D4E0002021E100207C
:10AD50008E900020F16C002096900020045101207C
:10AD6000C44A0120DCE0002020E1002080841E0095
:10AD7000F0B5244D244F002387B028463B70FFF7E1
:10AD800057FF044610B1204607B0F0BD1F4E049592
:10AD9000FF230590ADF80C3006F26C4506AB13E9C5
:10ADA0000E00284627F04AFA96F87E34C6F8685412
:10ADB000002BE8D1D6F86C3428469B6998470028C8
:10ADC000E1D0D6F86814019123460122304626F0DE
:10ADD00049FA019960B10E4823F0E0FF0B4901F2F6
:10ADE000444024F05BFA50B10A4B04461E60CAE7A7
:10ADF00023462246304626F035FA0028EBD10123BF
:10AE00003B70C0E780841E00D90501204866002001
:10AE10008C6A00205C3E012010B58AB000231A4ADB
:10AE20001A49ADF8043001A88DF8063024F0ECF989
:10AE300060B90446ADF80400134A15498DF8064080
:10AE4000012301A824F0B8F8044658B10023114AA0
:10AE50000E49ADF8043001A88DF8063024F0D4F97D
:10AE6000044610B120460AB010BD0A4A0849ADF8A0
:10AE7000044001A801238DF8064024F09DF8012428
:10AE800020460AB010BD00BFC04C07004866002035
:10AE90008C6A0020205107002DE9F04F3C4D3D4EBB
:10AEA00095F800C016F80C308DB05BB302ABDFF83C
:10AEB000FCA0DFF8FC90DFF8FC80DFF8FCB0019329
:10AEC0000AEB0C130FCB019C19F80CE058F82C700E
:10AED00084E80F008CF0010000232870714606AA58
:10AEE0002046CDE90633CDE90833CDE90A3306F82B
:10AEF0000C3012F021FB58B995F800C016F80C3050
:10AF0000002BDDD1244B1B782BBB0DB0BDE8F08F9F
:10AF10000DF1180EBEE80F00DFF8A0C01F4CACE822
:10AF20000F009EE803004CF8040B1D488CF800103D
:10AF300001230370BDF82A1027603A46584612F0E4
:10AF40008DFB95F800C016F80C30002BB8D1124BD1
:10AF50001B78002BD9D039F053F9114B1A780346DE
:10AF600092B9024647F22F518A42CED90D4C22683F
:10AF70009A1A8A42C9D90C4823602EF039F9002167
:10AF800009482EF013F9C0E7044A1268821AE9E76B
:10AF9000146B0020F4B300202E80002098B3002012
:10AFA000F06C0020906B002060510120F4B2002072
:10AFB00014B3002090B300202CC40020186B002094
:10AFC00070B5144C237813B99FED130A70BD134D5F
:10AFD0002E6839F015F90146304612F029FB002899
:10AFE000F2D023781BB90E4B93ED000A70BD2C688C
:10AFF00039F006F90146204612F01AFB0028F2D07B
:10B0000039F0FEF80146074812F032FB0028EAD179
:10B01000DAE700BFF06C00200000C07F98B300208A
:10B02000186B00202CC4002070B5144C237813B981
:10B030009FED130A70BD134D2E6839F0E1F80146FB
:10B04000304612F0F5FA0028F2D023781BB90E4BE7
:10B0500093ED010A70BD2C6839F0D2F80146204604
:10B0600012F0E6FA0028F2D039F0CAF80146074893
:10B0700012F0FEFA0028EAD1DAE700BFF06C0020F7
:10B080000000C07F98B30020186B00202CC4002063
:10B0900070B5144C237813B99FED130A70BD134D8E
:10B0A0002E6839F0ADF80146304612F0C1FA00289A
:10B0B000F2D023781BB90E4B93ED020A70BD2C68B9
:10B0C00039F09EF80146204612F0B2FA0028F2D07C
:10B0D00039F096F80146074812F0CAFA0028EAD17A
:10B0E000DAE700BFF06C00200000C07F98B30020BA
:10B0F000186B00202CC400202DE9F04F9A4C9B4A7D
:10B1000094F828302DED0A8B0021ADF5277D1170C4
:10B11000002B00F08980964D2E68002E00F0E28012
:10B12000944B94ED042A1978D4ED052A94ED000B84
:10B1300094ED021B002940F0EC8030468DED121B8F
:10B140008DED100BCDED152A8DED142A1EF034FB7C
:10B150009DED121B9DED100BDDED152A9DED142AC2
:10B1600028681EF03DFC94F82830002B5CD0824B00
:10B170001B78002B46D0814B1B78002B42D0804E91
:10B180003378002B59D0206943F020F802460B4653
:10B19000A06943EC182B43F019F802460B4660698E
:10B1A000676A43EC1A2B43F011F86DA3D3E900232F
:10B1B00043F064F894ED00CB94ED02BB56AD41EC46
:10B1C000190B284685ED089B85ED048B85ED06ABB4
:10B1D00085ED00CB85ED02BBAF6211F0F9F90028D7
:10B1E00040F0E080674D39F00BF82A6842F21073A6
:10B1F000801A984206D939F003F8034662482B605A
:10B2000024F0C0FB6069614C42F0E0FF54A3D3E935
:10B21000002343F033F843F029FB20600DF5277D30
:10B22000BDEC0A8BBDE8F08F534B1B78002BE9D0A7
:10B23000524B1B78002BE5D0514E3378002BE1D1D7
:10B2400094F82930002BDDD0514D38F0D9FF2B6810
:10B25000C01AB0F57A7FD5D338F0D2FF034601206B
:10B260002B60FFF767FA0028CCD094F82D2094F8D3
:10B270002C3094F82F0094F82E100291CDE9003272
:10B280000390444F638D444A502166A844F074FEF5
:10B2900066A907F1100040F2016223F0BDFF3B7C7C
:10B2A000002B00F0DA8156AD284640220A2143F0F7
:10B2B0006DFF07F110084FF480673F2F3A4629468B
:10B2C000404640F2A081402224F0C0FB402840F0DC
:10B2D000C181403FF1D131492E4838F001F80123B6
:10B2E00033708FE72E4D2E68002E3FF440AF214B78
:10B2F000197849BB304622F00DFD94ED021B94ED08
:10B30000000B2868D4ED052A94ED042A22F058F8A1
:10B3100029E794F82F10638E94F8302094F82E00CB
:10B32000CDED152A8DED121B8DED100B8DED142A30
:10B3300010F0D4FF9DED100B9DED121B9DED142A16
:10B34000DDED152A0146F8E694F82F10638E94F887
:10B35000302094F82E0010F0C1FF0146CAE700BF6C
:10B360000B410E4A9869F23FE8E4002020E50020F6
:10B3700014E2002034E50020E805012038E3002035
:10B38000DA05012020F5002030E2002068E50020E9
:10B3900028F5002020E20020F43A0700143B0700C3
:10B3A000000601203AAA0821B0EE4C0AF0EE6C0A21
:10B3B000012038F00FFFB0EE4B0AF0EE6B0A40AA06
:10B3C0000821012038F006FFB0EE4A0AF0EE6A0AC2
:10B3D000012117AA084638F0FDFEB0EE490AF0EE4A
:10B3E000690A32AA0221012038F0F4FEB0EE480AC0
:10B3F000F0EE680A36AA0221012038F0EBFEE0697F
:10B4000042F0E4FE1AAA41EC100B0221012038F0B0
:10B41000E1FE206A42F0DAFE1DAA41EC100B022187
:10B42000012038F0D7FE8F4B186842F0CFFE20AADB
:10B4300041EC100B0321012038F0CCFE8A4B186838
:10B4400042F0C4FE23AA41EC100B0321012038F086
:10B45000C1FE864B186842F0B9FE26AA41EC100BDB
:10B460000321012038F0B6FEFFF7AAFD10EE109A76
:10B47000FFF7DAFD10EE10AAFFF70AFE09F0FF420F
:10B48000B2F1FF4F10EE10BA00F0C380484642F010
:10B490009DFE0DF1A40941EC100B012108464A461E
:10B4A00038F098FE48460B2111F028F9002800F0EA
:10B4B000B7800AF0FF42B2F1FF4F00F0C080504663
:10B4C00042F084FE0DF1B00A41EC100B0121084658
:10B4D000524638F07FFE50460B2111F00FF900283C
:10B4E00000F0B4800BF0FF42B2F1FF4F00F09C80FF
:10B4F000584642F06BFE0DF1BC0B41EC100B0121E4
:10B5000008465A4638F066FE58460B2111F0F6F808
:10B51000002800F090803AAB4C9340AB4D9317ABB2
:10B520004E9332AB4F9336AB50931AAB51931DAB46
:10B53000529320AB539323AB549326AB0DF59878DD
:10B54000559358F8040B142111F0D8F800283FF453
:10B5500049AEA845F5D1464B1B78002B3ED10020C3
:10B56000014646AA182310F0D3FF424B424D1A68F9
:10B57000089226A90B9123A90A9120A909911DA936
:10B5800007911AA9069136A9059132A9049140A9FB
:10B5900003913AA9029117A9CDE90071CDE90C9A5E
:10B5A0004FF48071354ACDF838B046AB66A844F008
:10B5B000E3FC66A9284637F003FF00287FF412AEAB
:10B5C0002F4A2B7C107030700BB1FCF7FFFC2D481C
:10B5D00023F0E4FB0120FFF725F903E694F830207F
:10B5E00094F82F30608D618E0291CDE9003200F524
:10B5F000FA6094F82E3094F82D2094F82C1080B234
:10B6000010F07EFEADE724F021FAB84222D1403F8F
:10B6100053E6C9F31603002B3FF438AF0DF1A4092C
:10B62000194BC9F8003044E7CBF31603002B3FF465
:10B630005FAF0DF1BC0B144BCBF800306BE7CAF3D6
:10B640001603002B3FF43BAF0DF1B00A0E4BCAF8C6
:10B65000003047E70B4823F0A1FB0120FFF7E2F899
:10B66000D0E500BFCCDC0020D0DC0020D4DC002002
:10B6700034E500200806012020E20020C43A07003B
:10B6800038E3002030E200206E616E000D4B1B7825
:10B690000BB9002070470C4B10B51C6838F0B0FD9A
:10B6A0000146204611F0C4FF48B138F0A9FD01461B
:10B6B000064811F0DDFF80F00100C0B210BD00208F
:10B6C00010BD00BFF06C002098B300202CC40020F7
:10B6D0002DE9F043B84EB94D33782A789A42A1B09B
:10B6E000D8B200F262812B78C31ADBB2002B00F0D3
:10B6F00025812978B24A01F00F01012B52F821105F
:10B70000009100F08D802978013101F00F01022BAA
:10B7100052F82110019100F083802978023101F064
:10B720000F01032B52F82110029179D029780331AF
:10B7300001F00F01042B52F82110039170D02978E9
:10B74000043101F00F01052B52F82110049167D04C
:10B750002978053101F00F01062B52F821100591CF
:10B760005ED02978063101F00F01072B52F8211025
:10B77000069155D02978073101F00F01082B52F8B6
:10B78000211007914CD02978083101F00F01092BC5
:10B7900052F82110089143D02978093101F00F01A6
:10B7A0000A2B52F8211009913AD029780A3101F078
:10B7B0000F010B2B52F821100A9131D029780B314F
:10B7C00001F00F010C2B52F821100B9128D0297891
:10B7D0000C3101F00F010D2B52F821100C911FD0EC
:10B7E00029780D3101F00F010E2B52F821100D9127
:10B7F00016D029780E3101F00F010F2B52F82110CD
:10B800000E910DD029780F3101F00F01102B52F855
:10B8100021100F9104D02B7803F00F0352F823303E
:10B82000DFF8B0C1DFF8C8E19CF800402870013BA8
:10B83000DBB201AA02EB8307DEF80000614A6B4627
:10B84000002C40F0EA80107800F0FF01002840F062
:10B85000A18018680C460433BB4219D092F80080CE
:10B860001968B8F1000F40F09A80A1EB0008564823
:10B87000A8F6B839814500F2908020A800EB840931
:10B8800004330134BB42084649F8408CE4B2E5D1A8
:10B890000123CEF800008CF80030002C4ED0012C93
:10B8A000109B39D9119A022C134435D0129A032CCB
:10B8B000134431D0139A042C13442DD0149A052C20
:10B8C000134429D0159A062C134425D0169A072C18
:10B8D000134421D0179A082C13441DD0189A092C10
:10B8E000134419D0199A0A2C134415D01A9A0B2C08
:10B8F000134411D01B9A0C2C13440DD01C9A0D2C00
:10B90000134409D01D9A0E2C134405D01E9A0F2CF7
:10B9100013441CBF1F9A9B1807EE903A07EE104A7B
:10B92000F8EE677AB8EE470AF7EE000A87EE800A6B
:10B9300011F044FF2548214611F010FF244B1A78DE
:10B940001AB1244900220A701A70234A234B146842
:10B95000DB68D90103D5224B1A68D2074AD439F0E3
:10B9600067FE204B204AA0FB0301830A43EA815370
:10B970001B1B934244D8154A1C4BD2ED007AB6EEFD
:10B98000007A77EE877AFDEEE77AC3ED007A21B090
:10B99000BDE8F083186814705DE708465BE74FF078
:10B9A0000008084682F8008055E72A7800F1100365
:10B9B0009B1ADBB29AE600BF4C0601204E0601201E
:10B9C0000C060120C6600020C8781E00BC60002064
:10B9D0004D060120F192002004060120F0ED00E068
:10B9E000001000E040420F0020A1070008060120DF
:10B9F000808000205B680A4A9B091B1B9342BAD9CE
:10BA0000084811F0A3FE084B084A01211970337849
:10BA10000021DBB22B701170ADE700241EE700BFE0
:10BA200020A10700BC600020C6600020F192002029
:10BA300038B5234D2C782CB94FF08043D3F83834E7
:10BA4000DB0701D4204638BD0520FEF773FE002831
:10BA5000F8D01C48FFF7ECF810B91B48FFF7E8F8DE
:10BA60001A4BD3F8680403689B699847024600B3F1
:10BA70004FF400731648002127F0C4FA144801223D
:10BA8000002127F0C7FA124827F0D6FA044658B129
:10BA9000104827F05FF8322038F0BEFB0D4827F041
:10BAA0005BF801232B70CDE702460146084827F0DA
:10BAB000B1FA0548FFF7BCF80520FEF7B3FEC1E771
:10BAC000AA39012000127A0080841E0048660020F6
:10BAD000A0B30020843E0120002238B51148124D49
:10BAE000114627F097FA38F08BFB044608E038F04F
:10BAF00087FB2B68C01A632808D8052038F08CFB18
:10BB000038F07EFB001BB0F57A7FF0D3074BD3F8FB
:10BB100068040368DB699847322038F07DFBFBF747
:10BB2000D1FB00BFA0B300200C7D002048660020A0
:10BB30002DE9F8430B8D0C464FF6FF718B420546FD
:10BB400010D0226A8380D90902EBC10203F07F037F
:10BB5000526802EBC30132F8333001602385284676
:10BB6000BDE8F8831646A28C002A30D1E38C002B66
:10BB700000F089800123276ADFF87491A3844FF4D1
:10BB800080604FF0800833681B684B4577D138F0F0
:10BB90005FFBA38C246A7860013B9BB204EBC3017A
:10BBA00000284A6808BF4FF000080020A7F800806E
:10BBB000788022B134F83340488884422CD800225F
:10BBC0004FF6FF732A60AB802846BDE8F883276AEA
:10BBD000531E9BB207EBC30CBE46DCF8040028B131
:10BBE000BCF8021037F8338088451ED8E38C9A429F
:10BBF00027D0DFF8FC90531C9BB2B3F5007F0EEB0F
:10BC0000C207A38415BF4FF480604FF47E704FF0DD
:10BC100080084FF07F08B6E702EBC00200EBC313C9
:10BC200001302A60AB80488099E700EBC10001EB4E
:10BC3000C31301312860AB80ACF802102846BDE880
:10BC4000F883B3F5007FBAD05B00A7421FFA83F8F0
:10BC500033681AD025489B6883424FEAC8013AD11D
:10BC6000384644F071F98646BEF1000FA7D0DFF8E0
:10BC70008090A28CC4F820E0A4F82680BBE701469F
:10BC80003046984785E7276ADEE7DFF864901B684F
:10BC90004B454FEAC80024D138F0DAFA8646BEF1A7
:10BCA000000F8CD021686268A368E068CEF80C00B1
:10BCB000CEF80010CEF80420CEF808302169626971
:10BCC000A369E069CEF81C00CEF81010CEF814205D
:10BCD000CEF81830CDE70A463046394698478646B2
:10BCE000C2E70146304698478646D8E7E975020024
:10BCF000F97502002DE9F04F80468B4658F8043B59
:10BD000098E8070093F83C4093B006AF0DF1240982
:10BD1000202C87E8070089E8070062D10CAC84E892
:10BD2000070094E807000FAC84E807000090044681
:10BD3000002856D01D8F4FF6FF72954251D0DB6A16
:10BD4000E90903EBC10105F07F05496811EBC50561
:10BD500047D01099EE880292481E22184FF0010A2F
:10BD60002C46039504963546CDF8148001921E4664
:10BD70008846BAF1000F11D1029B9D4231D0E809EB
:10BD800006EBC00005F07F05446814EBC50428D01D
:10BD90008AF0010AE588BAF1000FEDD02079042875
:10BDA0003CD0052836D002281FD0B8F1000FE3D1CF
:10BDB0002A464FF6FF718A423346DDF81480DDE9EA
:10BDC00003560ED0D00903EBC00002F07F02416899
:10BDD00011EBC20105D00A79111F012925D9022AC8
:10BDE00023D0584613B0BDE8F08F204644F0B7F991
:10BDF0004045C1D1B8F1000FDAD0009B013C581E7C
:10BE000010F8012F14F8013F9A42B5D1019B8342EB
:10BE1000F6D1CDE72468E0880834E9E724682046B5
:10BE2000002CE5D044F09BF9E2E798E807000CAC61
:10BE300084E8070087E8070089E8070094E807001E
:10BE40000FAC84E80700804600283ED0109C671E97
:10BE50000744BB46274654464FF6FF799A467CB9BD
:10BE60004E4532D0F3090AEBC30306F07F065D6846
:10BE700015EBC60529D084F00104EE88002CEFD024
:10BE80002B79042B27D0052B3ED0022B38D0002F46
:10BE9000E6D14FF6FF729642534616D0F20903EBF5
:10BEA000C20306F07F065A6812EBC60B99D09BF8C6
:10BEB0000430042B2CD0052B2DD0022B18BF4FF0B3
:10BEC000000B584613B0BDE8F08F4FF0000B5846FA
:10BED00013B0BDE8F08F2D6828460DB144F03FF94E
:10BEE000B842BDD1002FD4D0681E08F1FF3313F83B
:10BEF000011F10F8012F9142B2D15B45F7D1C8E77D
:10BF0000284644F02CF9EBE72D68E8880835E7E788
:10BF100052F836B065E752F8363003F1080B60E7A7
:10BF20002DE9F047056804460E46002972D0084600
:10BF300044F015F98046002D58D02B79202B55D18F
:10BF4000002E53D02B884FF6FF77BB424ED062684D
:10BF5000D2F82C90D90909EBC10103F07F024B689C
:10BF600013EBC20342D04FF0010ADD88BAF1000F93
:10BF700010D1BD423AD0EA0909EBC20205F07F05B3
:10BF8000536813EBC50331D08AF0010ADD88BAF19A
:10BF9000000FEED01A79042A35D0052A2ED0022AB5
:10BFA00027D0002004468045E3D1B8F1000F0BD024
:10BFB000721E631E02EB080112F8014F13F8010F05
:10BFC0008442D6D18A42F7D14FF6FF739D420DD0FD
:10BFD000EB0909EBC30905F07F05D9F8040000EB74
:10BFE000C505281E18BF0120BDE8F0870020BDE868
:10BFF000F08718461C4644F0B2F8D4E71B68D8888E
:10C0000003F10804CFE71C682046002CCBD044F095
:10C01000A6F8C8E788468EE78368002B00F0F68014
:10C020001A79402A40F0F2802DE9F04F1B884FF634
:10C03000FF77BB428FB01CD0D0E90324D56ADA0960
:10C0400005EBC20203F07F03526812EBC30310D06A
:10C05000DA881CB912E0013CDA880FD0D109BA4263
:10C0600005EBC10102F07F0603D04B6813EBC6035A
:10C07000F1D19FED950B0FB0BDE8F08F143007C8DC
:10C080001E7901AC84E80700202E04AC84E8070088
:10C09000EFD194E8070007AC84E807000AAC84E815
:10C0A000070082460028E4D018884FF6FF77B84290
:10C0B000DFD0C20905EBC20200F07F03506810EB2D
:10C0C000C300D6D0DDF82C90C68809F1FF384FF0B8
:10C0D000010BD044BBF1000F10D1BE42C9D0F20910
:10C0E00005EBC20206F07F03506810EBC300C0D01E
:10C0F0008BF0010BC688BBF1000FEED00279042A49
:10C100007DD0052A77D0022A60D0B9F1000FE4D1A2
:10C110004FF6FF708642ACD0F20905EBC20206F082
:10C120007F03576817EBC301A3D00A7912F01004FC
:10C130000CD037F83340844200F0C180E00905EBB1
:10C14000C00504F07F006C6804EBC004023A1C2AAE
:10C150008FD801A050F822F017C2020073C002006D
:10C1600013C2020095C202005FC2020073C0020047
:10C1700073C0020073C002006DC2020073C00200EF
:10C180007BC2020073C0020089C2020073C00200B9
:10C1900073C0020073C0020073C0020073C00200CB
:10C1A00073C0020073C0020073C0020073C00200BB
:10C1B00073C0020073C00200A3C2020073C0020079
:10C1C000B1C2020073C002009DC20200044643F0E7
:10C1D000C6FF484581D1B9F1000F99D0601E0AF120
:10C1E000FF3212F8014F10F8011F8C427FF475AF37
:10C1F0009045F6D18CE70468E0880834E9E70468E4
:10C200002046002CE5D043F0AAFFE2E79FED2E0B7D
:10C21000704757F833100AA8FCF7FAFD9DF828304C
:10C22000013B032B3FF625AFDFE803F0130C0502BB
:10C230009DED0C0B1FE7DDE90C0141F0E9FF41EC3E
:10C24000100B18E7DDE90C0141F0EAFF41EC100B9F
:10C2500011E70C9841F0BAFF41EC100B0BE717F80F
:10C26000330041F091FF41EC100B04E757F8330025
:10C2700041F08AFF41EC100BFDE657F8330041F026
:10C2800093FF41EC100BF6E6086841F09FFF41EC8C
:10C29000100BF0E657F833100831BCE794ED000BB3
:10C2A000E9E6D4E9000141F0B3FF41EC100BE2E60E
:10C2B000D4E9000141F0B4FF41EC100BDBE60024AF
:10C2C00044E700BFAFF30080000000000000000062
:10C2D0002DE9F04F00F10C02034607CAD3E90146ED
:10C2E0008FB001AB83E80700002C74D093E80700FF
:10C2F000257904AB202D83E807006CD107AB0AAF8A
:10C3000083E8070087E807008246002863D020887A
:10C310004FF6FF7840455ED0D6F82C90C20909EB65
:10C32000C20200F07F03506810EBC30053D04FF0FF
:10C33000010B0B9EC588BBF1000F10D145454AD0BB
:10C34000EB0909EBC30305F07F05586810EBC50046
:10C3500041D08BF0010BC588BBF1000FEED0037903
:10C36000042B56D0052B50D0022B39D0002EE5D10E
:10C370004FF6FF7085422ED0EB0909EBC30305F0A1
:10C380007F055C6814EBC50125D00B7913F0100212
:10C390000DD034F83520824200F09780D00909EBA7
:10C3A000C00902F07F00D9F8042002EBC002023B72
:10C3B0001C2B10D8DFE803F0360F34595D0F0F0F38
:10C3C000640F6B0F720F0F0F0F0F0F0F0F0F0F0F69
:10C3D000780F7F0F86009FED3E0B0FB0BDE8F08F0A
:10C3E000044643F0BCFE8642A8D1002EC0D00AF11C
:10C3F000FF33601E9A1901E09A42B9D013F8014F39
:10C4000010F8011F8C42F7D098E70468E0880834E0
:10C41000E9E70468002CA9D0204643F0A0FEE2E73B
:10C4200054F835103846FCF7F3FC9DF82830013BF2
:10C43000032BD0D8DFE803F0130C05029DED0C0BA5
:10C44000CBE7DDE90C0141F0E3FE41EC100BC4E762
:10C45000DDE90C0141F0E4FE41EC100BBDE70C9866
:10C4600041F0B4FE41EC100BB7E754F83510083139
:10C47000D8E714F8350041F087FE41EC100BACE72B
:10C4800054F8350041F080FE41EC100BA5E754F85C
:10C49000350041F089FE41EC100B9EE7086841F041
:10C4A00095FE41EC100B98E7D2E9000141F0B0FE97
:10C4B00041EC100B91E7D2E9000141F0B1FE41ECF3
:10C4C000100B8AE792ED000B87E700226FE700BFB1
:10C4D00000000000000000002DE9F04F85B004AC22
:10C4E00004E90E00DDF80480B8F1000F47D00088A1
:10C4F0004FF6FF76B04242D00E9BD3F82C90C20983
:10C5000009EBC20200F07F03506810EBC30036D085
:10C51000029DB0F806B06F1E4FF0010A4744BAF111
:10C52000000F12D1B3452AD04FEADB1309EBC30346
:10C530000BF07F0B586810EBCB0020D08AF0010A7B
:10C54000B0F806B0BAF1000FECD00379042B31D06B
:10C55000052B2BD0022B16D0002DE3D14FF6FF7305
:10C560009B450CD04FEADB1309EBC3090BF07F0BA3
:10C57000D9F8040000EBCB0005B0BDE8F08F002037
:10C5800005B0BDE8F08F044643F0E9FDA842C9D1EB
:10C59000002DE3D0601E08F1FF3313F8011F10F8DF
:10C5A000012F9142BED19F42F7D1D7E70468E088BE
:10C5B0000834EBE704682046002CE7D043F0CFFDB9
:10C5C000E4E700BF2DE9F04184B0064604A800E985
:10C5D0000E003068DDE90187A8B17D1E4544C3889F
:10C5E000BB420DD1002F56D008F1FF33C21D01E030
:10C5F000AB4250D013F8014F12F8011F8C42F7D014
:10C6000000680028EBD1B7F5803F4AD20A9B2E4A3A
:10C610001B681B68934207F1090046D137F018FEEA
:10C6200000283ED00123C780838000F108054FB366
:10C6300000F10C0108F10402954238BF884507F16A
:10C64000FF3336D3072B34D927F003044444434641
:10C650002A4653F8041B42F8041BA342F9D1BA0737
:10C6600027F003030ED018F80320EA545A1C97420F
:10C6700008D9023318F80210A9549F4202D918F8B9
:10C680000320EA54074400233B72336803603060A0
:10C6900004B0BDE8F08183880133838004B0BDE835
:10C6A000F081002004B0BDE8F08101460A98984767
:10C6B000B6E74344C21D08F1FF3818F8011F02F81D
:10C6C000011F9845F9D1DDE7F9750200437DDBB123
:10C6D000037D202B12D8DFE803F01F111111111177
:10C6E000111111151511111511111111111111112E
:10C6F00011111111111111111111150001230373E1
:10C70000002070470023437503695A1C02611B789F
:10C71000037501224275DCE7037B002B14BF022066
:10C7200001207047437DDBB1037D202B12D8DFE869
:10C7300003F01F11111111111111111515111115FE
:10C7400011111111111111111111111111111111D9
:10C750001111150001230373002070470023437556
:10C7600003695A1C02611B78037501224275DCE7DC
:10C77000037B002B14BF0220012070472DE9F04FEE
:10C78000437D85B00446002B00F0E280057DDFF894
:10C7900014830022134662750092002B7ED0267D02
:10C7A0000023AE42637500F08380002E00F0D68037
:10C7B0005C2E00F085806768002F6FD0A168FB8831
:10C7C000994200F096800F440131A1603E72637D72
:10C7D000E3E7911C63752161537823756075002B25
:10C7E00000F0BC80402B86BF23F02003A3F137016B
:10C7F000A3F13001C8B20F2800F2A6800021D31C9B
:10C80000617523619178217501236375002900F01A
:10C81000A580402986BF21F0200137393039C9B2BF
:10C820000F2900F291800026131D66752361D378CD
:10C830002375012641EA00116675002B00F08E80F9
:10C84000402B86BF23F02003373B303BDBB20F2B5E
:10C850007AD800206075501D20611279227543EA54
:10C86000011301211BB26175002A77D0402A86BFCF
:10C8700022F02002373A303AD2B20F2A64D842EA84
:10C8800003139AB202F5205189B20020B1F5806FEE
:10C890001BB2607566D2C2F30903009323695A1C68
:10C8A00022611E7826750023AE4263757FF47DAF4A
:10C8B0006368002B14BF0020042005B0BDE8F08F92
:10C8C0002269511C216111782175012060750029B0
:10C8D00044D075293FF47DAF704A2F2302E012F84F
:10C8E000023F8BB38B42FAD156786EB30023637547
:10C8F00061E7D4F800B04900DBF800A001F10109BC
:10C90000B9F5803FDAF8003011D29B68644A93424F
:10C9100001F10A0138D1384643F016FB28B1A0F8DE
:10C920000690A168606007464DE7DAF800305B6862
:10C93000434525D1384637F0A5FC01238BF8043058
:10C940000022637D626028E7032005B0BDE8F08F18
:10C9500003695A1C02611D78057518E7022005B0AD
:10C96000BDE8F08F02F5105189B2B1F5806F10D398
:10C970007F2A15D8D9B22046FCF790F9637D0CE7E1
:10C98000394650469847D8E70A46504639469847B0
:10C99000C4E7009BC2F3090242EA832202F5803217
:10C9A00002F03F0363F07F038DF80930C2F38F1369
:10C9B00000211F2B8DF808104FEA92123CD902F08B
:10C9C0003F01931161F07F0113F47C7F8DF80A1011
:10C9D0004BD163F01F03DEB28DF80B6003AB03F1A4
:10C9E000FF3B019506E01F440133A3603E721BF834
:10C9F000016D4EB36768002FF9D0A368FA8893429F
:10CA0000F1D125685900D5F800A001F10109B9F567
:10CA1000803FDAF800301CD29B68214A934201F132
:10CA20000A0135D1384643F08FFA80B1A0F806905C
:10CA3000A36860600746D6E762F03F02D6B28DF881
:10CA40000A600DF10B03CAE7019D637DA5E6DAF8E4
:10CA500000305B68434517D1384637F013FC00239C
:10CA60004FF001022A716360C1E703F03F03C2F394
:10CA7000073263F07F0342F0F0068DF80B308DF83B
:10CA80000C600DF10D03AAE7394650469847E6E7DA
:10CA90000A46504639469847C7E700BFA43B0700FF
:10CAA000E9750200F17502002DE9F047427D88B07A
:10CAB00004460D46002A76D0027D202A12D8DFE8EF
:10CAC00002F07A1111111111111111707011117000
:10CAD0001111111111111111111111111111111146
