:020000022000DC
:1070000000000420ED2906002D2A06002F2A060084
:10701000312A0600332A0600352A06000000000047
:1070200000000000000000000000000069290600C8
:10703000392A060000000000892906003D2A0600C2
:10704000492C06003F2A0600D1000600094C040026
:10705000C14C04003F2A0600A90306003F2A06008F
:107060003F2A06003F2A06003F2A06003F2A060064
:107070003F2A06003F2A06003F2A06003F2A060054
:107080003F2A0600B92606003F2A06003F2A0600CE
:107090003F2A06003F2A0600016E05003F2A06002F
:1070A0003F2A06003F2A0600DD6203003F2A060051
:1070B0003F2A06003F2A06000000000000000000F2
:1070C0003F2A06003F2A06003F2A0600313206000A
:1070D0003F2A06003F2A06003F2A0600C5F40400A6
:1070E0003F2A06003F2A06003F2A06000000000053
:1070F000000000003F2A060000000000A932060040
:10710000000000000000000000000000000000007F
:10711000000000000000000000000000000000006F
:10712000000000000000000000000000000000005F
:10713000000000000000000000000000000000004F
:10714000000000000000000000000000000000003F
:10715000000000000000000000000000000000002F
:10716000000000000000000000000000000000001F
:10717000000000000000000000000000000000000F
:1071800000000000000000000000000000000000FF
:1071900000000000000000000000000000000000EF
:1071A00000000000000000000000000000000000DF
:1071B00000000000000000000000000000000000CF
:1071C00000000000000000000000000000000000BF
:1071D00000000000000000000000000000000000AF
:1071E000000000000000000000000000000000009F
:1071F000000000000000000000000000000000008F
:10720000F1EE103A43F08073E1EE103A704700BFA0
:1072100010B5054C237833B9044B13B10448AFF3D0
:1072200000800123237010BD2C65002000000000A9
:10723000345C070008B5034B1BB103490348AFF3A7
:10724000008008BD0000000030650020345C0700AD
:10725000154B002B08BF134B9D46A3F5803A002128
:107260008B460F461348144A121A44F07FF80F4B0E
:10727000002B00D098470E4B002B00D098470020E1
:10728000002104000D000D48002802D00C48AFF387
:10729000008043F0ABFF200029003BF0FFFB43F0F0
:1072A0007FFF00BF00000800000004200000000075
:1072B000000000002C6500201C6F01200000000071
:1072C00000000000BFF34F8F0549064BCA6802F467
:1072D000E0621343CB60BFF34F8F00BFFDE700BFF9
:1072E00000ED00E00400FA0535DF704733DF70473A
:1072F0003CDF70473DDF704741DF704711DF70476B
:1073000012DF70470020704701207047012070474E
:10731000704700BF704700BF704700BF704700BF95
:10732000024B02F001021A70704700BFFB69002097
:1073300038B50446C069444D43F076F840A3D3E91C
:10734000002343F0DBF802460B46A069C5E90023A1
:1073500043F06AF83AA3D3E9002343F0CFF894ED61
:107360000F7AB4F84C30DFED397A9FED395A9FED42
:10737000394ADFED394AF8EEC75A94ED107A06EE35
:10738000103AF8EEC76A94ED0A7AB8EE466AB8EE9B
:10739000477A66EEA76A65EE845A26EE246A27EEDF
:1073A000057AC5ED055A85ED066AC5ED076A85EDD6
:1073B000087AE37DD4ED097A6B62237DF8EEE77AF3
:1073C000012B88BF637DC5E9020167EE857A8CBF1A
:1073D00003F00103002385F82830C5ED047AE27A32
:1073E000A1881E4B1E4802F00702A2F10702B2FA62
:1073F00082F25209A1F5FA61698585F82920A279FE
:1074000085F82C20E27985F82D20227A85F82E2027
:10741000627A85F82F20A27A85F8302021680268E8
:10742000A3FB01439B094FF47A7404FB13130D492A
:107430006B860132012302600B7038BDAFF3008010
:1074400048AFBC9AF2D77A3E90E00020ACC527370F
:107450006F12833AA8C8FE3A0AD7233CD34D621074
:10746000CCE00020C8E00020024B034AC3F800260D
:1074700001207047000001403546526E024B03491F
:10748000C3F8001610467047000001403546526EA2
:107490000AB3C2F308032DE9F0471546A3B9DFF894
:1074A0003C8006460F464FEA52290324D8F8680468
:1074B00003683A46D3F814A031464B46D047013C06
:1074C00030B914F0FF04F1D14FF0FF30BDE8F08780
:1074D0002846BDE8F0874FF0FF3070474865002030
:1074E000704700BF037C13F0080306D0C36A406AEC
:1074F000181A48BF6FF0004070471846704700BF29
:107500002AB3C2F308032DE9F0471546C3B906466E
:107510000F4638F0B5FF0F4BDFF83C8018604FEA9C
:1075200055290324D8F8680403683A46D3F824A000
:1075300031464B46D047013C30B914F0FF04F1D13D
:107540004FF0FF30BDE8F0872846BDE8F0874FF0E8
:10755000FF307047CC7B002048650020103024F0BD
:1075600051BB00BF103024F0B1BB00BF00B583B0E9
:107570000B4601220DF1070110308DF8073024F081
:10758000A5FB03B05DF804FB00B587B00346064ACF
:107590006846182144F0E0FD694682B203482DF0A8
:1075A000FFF907B05DF804FB58F9060038E0002049
:1075B000103024F08BB900BF00B583B001220DF16B
:1075C0000701103024F0B0F801280CBF9DF8070027
:1075D0004FF0FF3003B05DF804FB00BF08461146D2
:1075E00044F0A2BD084638F08DBF00BF084638F011
:1075F0006FBF00BF10B50E4C84B0227801A80921DE
:1076000012F04AFA237802332370024670B1094B14
:107610001B7803F0FF004BB1074B1B7803F0FF0012
:1076200023B1064892B201A92DF0BAF904B010BDF9
:107630004EAF0020FE690020FB690020FC6A00209C
:107640002DE9F0434779402F3946A1B028BF4021AA
:107650009FB30023E9464A469C461F46054603EB76
:107660004304AE7A167000EB84040133247C14F0DA
:10767000080FC4F3C00818BF013782F801805FFA11
:1076800083FE05F10C0502F1020218BFFFB21EB124
:107690000CF1010C5FFA8CFC7145E0D8084B094CE9
:1076A0001F70094A84F800C04846102312F026FDD6
:1076B000064B187021B0BDE8F083BC46E946EDE703
:1076C000F1E00020F0E00020E0E00020DEE000201B
:1076D00010B50C4CD4F868040368DB69984794F83B
:1076E0002430DB0706D400224FF0FF3384F8242037
:1076F000236310BD04F1240026F0BAFF0028F2D164
:1077000010BD00BF4865002070B58AB01F22014639
:107710000092194802ABFF222DF0BAFE0D2804D8C2
:1077200015482DF09BFE0AB070BD0446014602A824
:1077300012F010FE0028F3D0104E11483578102CAE
:1077400028BF1024E4B202A9224600EB051043F042
:10775000E5FDEDB20B4B5C5538F092FE0A4C0B4A3E
:1077600044F82500012185EA01030348515533708F
:107770002DF074FE0AB070BD004D0120F3690020A9
:10778000B4AE0020D4AE002050AF0020B4AF002033
:10779000174BDB68D90110B503D5164B1A68D20711
:1077A0001FD43AF085F8144BA0FB0301830A43EA87
:1077B000815312490A6840F6B7309A1A82420FD9AB
:1077C0000F480B6002780F490132097802F00F026E
:1077D000914209D001780C4CC9B244F821300270B2
:1077E00010BD5B689B09E4E7084B01221A7010BDCD
:1077F000F0ED00E0001000E040420F00A401012085
:10780000EC010120EE010120AC010120ED0101207D
:1078100010B5034B0360044613F0FAFD204610BD7B
:10782000300A07000F49097802290AD1F8B50E4E2F
:107830000E4F3578EDB21C467B5D0BB9202C01D97B
:10784000F8BD70470A48114600EB4510224643F048
:1078500065FD0848E3B24355012185EA01027955E7
:107860003270F8BDE0DC0020FA690020E8BF00209B
:107870000CAF00204CAF002070B5124C124A134BD5
:107880002260002647F260006360C4F888633BF022
:1078900045F90F4B0F4D93ED000B32462146044640
:1078A0001EF06EF90C4B2C6093ED000A20461EF082
:1078B0000FFD0A4B286893ED000ABDE870401EF0EA
:1078C0001DBD00BF98D8002064F9060028220700DB
:1078D00010610020BCDD0020BC610020B8610020E8
:1078E000F8B51A4B1B78022B044626D0184B194AC0
:1078F00019480027214601261F7016702FF078FACC
:1079000005462DF0C5F92846F7212DF0D5F9284672
:1079100002212DF0E1F93A46394628462DF0D4F9F6
:107920000E4B1E7038F0ACFD0D4B0E4A1C801060E3
:107930002846BDE8F8402DF0ADB90B4A0B490C4B79
:1079400010800120002208701A70F8BDE0DC0020D1
:107950004E8C00209CDC002064460120E2DC0020EC
:10796000DADC0020DCDC0020C4600020FE6900209E
:10797000FB690020214A13884FF6FF719BB28B42AE
:10798000F0B403D013889BB2984228D01C4B1B78CC
:10799000022B24D01B4B1C481C4F1D4E1D4D1E4C52
:1079A0001E491A7800233B70337003701C482B70FB
:1079B00023701C4D0B701C4C1C49037017202B703E
:1079C000237008801A4B1AB900221A70F0BC704755
:1079D0001A78002AF8D0174A01211170F4E71388A9
:1079E0009BB29842F2D1144C144900234FF6FF7019
:1079F00023701080F0BC0B70704700BFC460002083
:107A0000E0DC002094DC0020958E0020487C0020E3
:107A1000EC7B0020EB7B0020588E0020B16B002017
:107A20009CDC0020E1DC0020568C0020D06000208F
:107A30004E8C0020B38E0020FE690020FB690020E0
:107A40002DE9F04F4948037CABB0002B40F08A8011
:107A50004748037C002B40F081804648037C002B84
:107A600078D14548037C002B70D10024322038F0B7
:107A700013FD424E424A43490194234604A84FF461
:107A80007A75ADF810408DF812400295009623F0FB
:107A9000E3FD9DF81000002855D03B4D2B68132BBB
:107AA00049DC3A4FDFF8E88005E011A823F09EFB9F
:107AB0002B68132B3FDC4FF47A73002204A911A822
:107AC0000F930E94ADF844408DF846400D9624F087
:107AD00001F89DF8443040221AA911A85BB325F0A3
:107AE0004FFA9DF8443013F0D00F1AA8DDD144F0BE
:107AF00026FC03461AAA0638062B39461044D4D968
:107B000044F0C2FB81460028CFD1D5F800A00AEB93
:107B10004A0B08EB0B1B1AA92F22584644F029FCEC
:107B20000AF1010311A82B608BF82F9023F05EFB64
:107B30002B68132BBFDD04A823F058FB286800280E
:107B4000D4BF002001202BB0BDE8F08F103023F00F
:107B50004DFB8AE7103023F049FB82E7103023F019
:107B600045FB7AE7103023F041FB71E784FD0020EC
:107B7000E4DE0020F80101202C0201204C0A07005D
:107B80006CF906004865002074FD002070F90600BD
:107B9000B8FD002081682DE9F0470568044669B109
:107BA000284E2B680A685B68A260B34208463DD144
:107BB00038F0A8FCA1680029F3D12568238E04F1D0
:107BC0000C0903B30027E36ADFF878A0B8460BE09E
:107BD00038F098FCE36AC6F80080218EC6F804806D
:107BE0000137BAB291420FD9BEB203EBC606716833
:107BF00008460029EFD02B685B685345E8D028463B
:107C00009847E36AE7E7E36A00214FF6FF72994578
:107C10002186A28607D02A680A4952688A420BD177
:107C2000184638F06FFC2046BDE8F0872846984794
:107C3000A1680029B5D1C0E72846194690472046DB
:107C4000BDE8F087E575020081682DE9F047056819
:107C5000044669B1284E2B680A685B68A260B3428B
:107C600008463DD138F04EFCA1680029F3D12568C3
:107C7000238E04F10C0903B30027E36ADFF878A030
:107C8000B8460BE038F03EFCE36AC6F80080218E6F
:107C9000C6F804800137BAB291420FD9BEB203EBE5
:107CA000C606716808460029EFD02B685B6853450B
:107CB000E8D028469847E36AE7E7E36A00214FF6F1
:107CC000FF7299452186A28607D02A680A49526820
:107CD0008A420BD1184638F015FC2046BDE8F087E3
:107CE00028469847A1680029B5D1C0E7284619461B
:107CF00090472046BDE8F087E57502002DE9F84F72
:107D0000074638F0BDFB314DDFF8CC90DFF8CCB042
:107D1000DFF8CCA0064645F00105D9F800301C6814
:107D200020463BF02DFF03464FF003084FF4FA4086
:107D30006BB9B8F1010F3CD0A84720463BF020FFBB
:107D4000034608F1FF384FF4FA40002BF1D0DBF87E
:107D50000030D3F8008040463BF012FF0346032476
:107D60004FF4FA405BB9012C23D0A84740463BF0C2
:107D700007FF0346013C4FF4FA40002BF3D0144BAD
:107D80001B68D3F8008040463BF0FAFE034603240C
:107D90004FF4FA405BB9012C0BD0A84740463BF0AA
:107DA000EFFE0346013C4FF4FA40002BF3D0BDE850
:107DB000F88F38F065FB801BB842F8D2054B0A20DB
:107DC000C3F800A638F068FBA7E700BFC0100700A3
:107DD000DC60002000000140D4600020D86000205A
:107DE0003546526E38B5234C206800BB224C2068C3
:107DF000E0B11EF05FFA002835D120681EF044FA89
:107E0000A0B120681EF040FA21F0B4FB1B4A1368B1
:107E1000B3F57A7F0ADA48B119490C68A04205D057
:107E2000184C086044F823000133136038BD22F079
:107E3000B9FB154B1A688242F8DA104D186038F019
:107E40001FFB2B68114AB3F57A7F1060EEDA2068C9
:107E50000B4C22F0C1FB2B680A4920605A1C41F8E8
:107E600023002A6038BD20681EF020FA23F0B8F8FD
:107E7000CCE700BFA0010120BCDD0020B4F0002051
:107E8000C4F0002014E100209C0101207CFD0020B2
:107E90002DE9F047054680682F6860B1284C3B68A3
:107EA00002685B68AA60A3422AD138F02BFBA8685D
:107EB0000028F4D12F682B8E05F10C093BB3002666
:107EC000EB6ADFF87C80B2460BE038F01BFBEB6A14
:107ED000C4F800A0298EC4F804A00136B2B29142C1
:107EE00016D9B4B203EBC404616808460029EFD088
:107EF0003B685B684345E8D038469847EB6AE7E75C
:107F0000014638469847A8680028C8D1D2E7EB6AEE
:107F100000214FF6FF7299452986AA8607D03A6854
:107F2000074952688A4205D1184638F0EBFA2846CC
:107F3000BDE8F0873846194690472846BDE8F087E7
:107F4000E57502002DE9F047038E8146054659F894
:107F50000CABFBB10026C36ADFF8A080374609E00E
:107F600038F0D0FAEB6A2760298E67600136B2B22A
:107F7000914210D9B4B203EBC404616808460029E9
:107F8000F1D0DAF800305B684345E9D050469847B5
:107F9000EB6AE8E7C36A00214FF6FF72994529862C
:107FA000AA860CD0DAF80020144C5268A24221D1E3
:107FB000184638F0A7FA0423C5F82C906B86A868F9
:107FC0002E6800232B7158B10C4C336802685B6833
:107FD000AA60A34206D138F095FAA8680028F4D127
:107FE000BDE8F087014630469847A8680028ECD1E4
:107FF000BDE8F087194650469047DCE7E57502007A
:108000002DE9F0418B8E4FF6FF72934282B00C4601
:10801000054616D0CA6AD90902EBC10203F07F01F6
:10802000526832F83100A08602EBC10200204FF600
:10803000FF71107128462A60AB80D18002B0BDE884
:10804000F081098E2768002932D1638E002B00F061
:1080500085800123E66A5A4A23864FF480604FF0F8
:1080600080083B681B68934274D138F031FA238E44
:10807000E76A7060013B9BB207EBC30100284A68C6
:1080800008BF4FF000080020A6F80080708022B1E1
:1080900037F83360488886422ED8012100224FF6F7
:1080A000FF73284621712A60AB8002B0BDE8F081E1
:1080B000E66A4B1E9BB206EBC30E3046DEF8042088
:1080C0002AB1BEF802C036F83380E0451CD8638E72
:1080D000994223D03A4A4B1C9BB2B3F5007F00EB88
:1080E000C106238615BF4FF480604FF47E704FF0B9
:1080F00080084FF07F08B4E700EBC313441C9BB229
:1081000002EBC0024C8091E70CEBC3130CF10101B0
:108110009BB202EBCC02AEF8021087E7B3F5007F0A
:10812000BBD004F10C025B0096421FFA83F83B6857
:1081300016D024489B6883424FEAC80135D13046A7
:1081400043F0F2FF0028A8D01D4A218EE062A4F877
:108150003280C0E701463846984788E7E66AE0E79C
:10816000174A1B68019293424FEAC80022D138F0A7
:10817000AFF9019A002890D0D6F800C07168B368B2
:10818000D6F80CE0C0F80CE0C0F800C04160836095
:10819000D6F810C07169B369D6F81CE0C0F81CE0CD
:1081A000C0F810C041618361CFE70A4638463146C6
:1081B0009847C7E7014638469847019ADAE700BF73
:1081C000ED750200DD7502002DE9F0418B8E4FF652
:1081D000FF72934282B00C46054611D0CA6AD90993
:1081E00002EBC10203F07F01526832F83100A08631
:1081F00002EBC10228462A60AB8002B0BDE8F081E4
:10820000098E2768002932D1638E002B00F085800B
:108210000123E66A594A23864FF480604FF08008B4
:108220003B681B68934274D138F052F9238EE76A99
:108230007060013B9BB207EBC30100284A6808BF8E
:108240004FF000080020A6F80080708022B137F8B7
:108250003360488886422ED8012100224FF6FF73F2
:10826000284621712A60AB8002B0BDE8F081E66A41
:108270004B1E9BB206EBC30E3046DEF804202AB13B
:10828000BEF802C036F83380E0451CD8638E9942B0
:1082900023D03A4A4B1C9BB2B3F5007F00EBC106DA
:1082A000238615BF4FF480604FF47E704FF0800836
:1082B0004FF07F08B4E700EBC313441C9BB202EB02
:1082C000C0024C8096E70CEBC3130CF101019BB28A
:1082D00002EBCC02AEF802108CE7B3F5007FBBD006
:1082E00004F10C025B0096421FFA83F83B6816D03B
:1082F00023489B6883424FEAC80135D1304643F09A
:1083000013FF0028A8D01D4A218EE062A4F8328015
:10831000C0E701463846984788E7E66AE0E7174A2B
:108320001B68019293424FEAC80022D138F0D0F87E
:10833000019A002890D0D6F800C07168B368D6F8CA
:108340000CE0C0F80CE0C0F800C041608360D6F8D3
:1083500010C07169B369D6F81CE0C0F81CE0C0F821
:1083600010C041618361CFE70A46384631469847DD
:10837000C7E7014638469847019ADAE7ED750200EB
:10838000DD7502002DE9F84307464068BD68032DFE
:10839000884600F1080613D85FFA85FC002D77D0D7
:1083A0000CF1FF3456FA84F4C31D002213F8011FA8
:1083B000002908BF42F00102A342F7D1002A40D0B1
:1083C00000237355D7F80090BE68D9F80830A3B1E0
:1083D00006F1070C8444DA8896420BD13EB3C21DE5
:1083E000DC1D01E0944522D012F8011F14F8015F52
:1083F000A942F7D01B68002BEDD1B6F5803F7D6810
:10840000D9F8004034D2236828489B68834206F19B
:10841000090140D1284643F087FE034643B33A683A
:10842000DE809168196000219360796002E09A888B
:1084300001329A800522C8F8003088F80420BDE88F
:10844000F883022388F80430037A88F80030BCF1FE
:10845000010F08D0437A88F80130BCF1020F02D036
:10846000837A88F80230002308F80530BDE8F883E5
:1084700023680F4A5B68934213D0294620469847E9
:108480003A6800239268012189F804101A60FFDE1F
:1084900002230B71E7E70A46204629469847034620
:1084A000BCE7284638F02EF8EAE700BFDD75020089
:1084B000E57502002DE9F04745684DB18368EA880B
:1084C000934204460E4605D01D440133A3602E722C
:1084D000BDE8F0875B00D0F800905F1CB7F5803FE7
:1084E000D9F8008012D2D8F800201549D2F808A097
:1084F0008A4503F10A021CD11146284643F014FEB6
:1085000020B1C780A36860600546DDE7D8F8003079
:108510000C4A5B68934208D1284637F0F3FF0122EA
:10852000002389F804206360D2E729464046984733
:10853000F5E729464046D0470028E2D1E6E700BFEC
:10854000DD750200E575020003792DE9F0470C4660
:10855000D907054637D4DA0624D413F0600F1DD0AE
:108560002E884FF6FF77BE4215D0E36AF20903EB7F
:10857000C20306F07F09D3F8048008EBC900B246B5
:10858000C6882146FFF7E0FFA38E28F83930BE42A7
:10859000A4F834A0E9D14FF0FF332B6000232B71F6
:1085A000BDE8F0872A884FF6FF718A4237D0E16A2A
:1085B000A68ED00901EBC00102F07F00496821F8C6
:1085C0003060A286C9E7A0682A6826680028C2D061
:1085D000824216D0014600680028BCD08242F9D100
:1085E0008288013A92B28280002AB4D103680B607B
:1085F00033680C4A5B6893420CD137F083FF2B79C8
:10860000A9E78288013A92B28280002AA3D1036846
:10861000A360EDE70146304698472B799BE700239E
:108620001B80FFDEE57502002DE9F04F0E4609784C
:1086300085B02B29009000F0FD802D2940F0B880F6
:108640007178012001900644A1F13000C0B20928E0
:1086500000F2B680DFF8F893C0B2002100240025B4
:108660004FF0993816F801BF2418ABF13007FFB26C
:1086700041EB05054FEA850E092F6FEA07024FF01F
:10868000FF334FEA840C4EEA947EF8B24FF00001BB
:1086900000F21E81A94508BFA0450BD31CEB040CBA
:1086A0004EEB050E1CEB0C044EEB0E05AB4208BF67
:1086B000A242D7D24FF0000A0023204629460A22C0
:1086C00042F072FBA946A0461FFA8AF3B9F5200FC3
:1086D00003F1010A08BFB8F1000F04460D460FFA76
:1086E0008AFAE9D2092F0BD802339B1B06EB030A47
:1086F00016F801BFABF13002092A0FFA8AFAF5D950
:10870000BBF12E0F00F0B6800BF0DF03452B60D0DD
:10871000BBF1000F56D10AF126034C2B00F2FC806E
:10872000002D08BFB4F5000F80F0F68007EE904AE8
:10873000BAF1000FF8EEE77A40F36481BC4B1AF00F
:10874000010F1CBF93ED007A67EE877A5FEA6A0239
:1087500023D0D00744BF93ED017A67EE877A5FEAB2
:10876000AA021AD0D10744BF93ED027A67EE877A46
:108770005FEAEA0211D0D20744BF93ED037A67EEB5
:10878000877A5FEA2A1A08D0BAF1010F0CBF93ED7D
:10879000047A93ED057A67EE877A019B0BB1F1EECF
:1087A000677A009A0123C2ED027A137010460DE039
:1087B00000200190A1F13000C0B209287FF64AAF35
:1087C0002E2953D0009A00231370104605B0BDE83F
:1087D000F08F96F801B0BBF12D0F36D0BBF12B0F07
:1087E00000F0F080ABF13003DAB2092A06F101069D
:1087F0008ED80AEB0302B2F59A7F00F3D7800027E8
:1088000006E002EB400303EB0A02B2F59A7F79DC43
:1088100016F801BFABF13002D1B2092903EB830096
:10882000EFD9002F40F0C7809A44BBF1000F3FF40E
:1088300072AFC7E7717800200190A1F13000C0B29B
:10884000092806F10106BBD804E796F802B0ABF19F
:108850003003DAB2092A06F102063FF659AF0AEBF5
:108860000302B2F59A7F4FDC0127D1E700240025EF
:108870004FF0000A96F801B0ABF13000C0B2092801
:1088800006F101063FF640AF6A4B4FF099329D4228
:108890004FEA850108BF94424FEA840741EA947188
:1088A0000ED23F1945EB010117EB070841EB010917
:1088B0000AF1FF3A18EB00040FFA8AFA49F10005B1
:1088C00016F801BFABF13000C0B20928DFD91BE7B1
:1088D000BBF1000F40F0D280019B8BB1B5F1004F8E
:1088E00008BF012CBFF4E6AE644265EB45050223E8
:1088F000009A1046C2E90245137005B0BDE8F08F3A
:108900000323F5E7002F51D000994FF000420123D7
:1089100008468A600B7059E72046294641F0B8FDA9
:10892000BAF1000F79DD444C1AF0010F7AD15FEAF9
:108930006A032DD0DF0700F18D805FEAAA0327D0FC
:10894000DE0700F18C805FEAEA0321D0DD0700F149
:108950008B805FEA2A131BD0DA0700F18A805FEA76
:108960006A1315D0DB073ED45FEAAA1310D0DF07E5
:108970003ED45FEAEA130BD0DE073ED45FEA2A2337
:1089800006D0DD0744D45FEA5A231CBF2B490020E0
:10899000019B13B101F100431946009A0423C2E977
:1089A00002011046137005B0BDE8F08F019B002056
:1089B000BBB12349F1E7AAEB030ABBF1000F3FF477
:1089C000AAAEFFE696F802B0ABF13003DAB2092A9C
:1089D00006F102067FF60DAFBBF1000F3FF49BAE30
:1089E000F0E61849D9E7D4E90A2341F087FDBBE74F
:1089F000D4E90C2341F082FDBBE7D4E90E2341F01A
:108A00007DFDBBE7CAF1000A3FF4C7AE0E4B96E608
:108A1000D4E9102341F072FDB5E7CAF1000AB7D0DE
:108A20000A4C81E7D4E9002341F068FD7FE700BFED
:108A3000CC0A070099990100300B07000000F87F6D
:108A40000000F0FF0000F07FB40A0700E80A07000A
:108A500099999919D4E9022341F050FD6DE7D4E9C1
:108A6000042341F04BFD6EE7D4E9062341F046FDB7
:108A70006FE7D4E9082341F041FD70E7B5F5801FA9
:108A800008BF002CBFF416AE4FF0000A38E600BF56
:108A900010B5064C206838B11DF00CFC20B92068D8
:108AA000BDE810401DF0F0BB002010BDBCDD002073
:108AB00010B5064C206838B11DF0FCFB20B12068D1
:108AC000BDE810401DF0F2BB002010BDBCDD002051
:108AD00070B5584B584D93F8302093F82E0093F80A
:108AE0002D1093F82F4094B0049293F82C20CDE9E8
:108AF0000204CDE9002106A8504A5B8D182143F0FD
:108B00002BFB2A68002A3DD04D4B4E49187800288F
:108B100008BF0B46002106ACCDE910114A480C9461
:108B20000E934A4C4A4B13910D9412900F9310469A
:108B300021F056FD2C681090002C50D0204621F0DA
:108B4000BDFD2A68434C444B1190002A08BF1C46C7
:108B5000424A434B126800924FF480610CAA41488C
:108B600013940FF037FF00213F4822F0E5FE3D4906
:108B70003D484FF4806223F0A9F83B4823F042F8C7
:108B800014B070BD394C2068002837D01DF066FB4A
:108B9000374E03462068002B18BF1E461DF08EFB83
:108BA000002306A92A680C91CDE9103327491393B5
:108BB000254B0E960F900D911293002AB7D1206885
:108BC00000282CD01DF076FB48BB20681DF05CFB14
:108BD00028B320F0D3FC2C681090002CAED1234E8B
:108BE000306818B31DF066FBB0B930681DF04CFB5F
:108BF000044688B120F024FD2A68A3E706AB1C4A8E
:108C00000C931C4B114E10491090CDE90E2311907E
:108C100013900D961291D2E72A68204692E7FFF74B
:108C200047FF002886D022F0DDF983E70A4C119037
:108C30008EE700BF90E00020A0010120A0F906000F
:108C40008C01012098F906007461002094610020D5
:108C500048DC002090F9060088F90600B4F00020F6
:108C600014E1002054C40020D8DD0020BCDD002029
:108C700078F9060028220700114B186808B121F086
:108C8000B7BC10B50F4C2068B8B11DF013FB38B954
:108C900020681DF0F9FA18B1BDE8104020F04EBC74
:108CA000206850B11DF006FB38B120681DF0FEFAB7
:108CB00018B1BDE8104022F077B9002010BD00BF08
:108CC000A0010120BCDD0020114B186808B121F083
:108CD00093BC10B50F4C2068B8B11DF0EBFA38B951
:108CE00020681DF0D1FA18B1BDE8104020F02ABC70
:108CF000206850B11DF0DEFA38B120681DF0D6FAB8
:108D000018B1BDE8104022F053B9002010BD00BFDB
:108D1000A0010120BCDD0020114B186808B121F032
:108D200041BC10B50F4C2068B8B11DF0C3FA38B97A
:108D300020681DF0A9FA18B1BDE8104020F02CBC45
:108D4000206850B11DF0B6FA38B120681DF0AEFAB7
:108D500018B1BDE8104022F02FB9002010BD00BFAF
:108D6000A0010120BCDD00202DE9F041604B196815
:108D700000298AB02DDD5F4B0093012929D003F132
:108D8000A8020229019224D003F5A87203290292B5
:108D90001FD003F5FC72042903921AD003F5287240
:108DA0000529049215D003F552720629059210D0B8
:108DB00003F57C72072906920BD003F5936208290C
:108DC000079206D003F5A863092908931CBFA833AE
:108DD0000993684611F07CFB061E5BDB464FA82317
:108DE00003FB067393F89040002C4FD0434C20684F
:108DF00018B139F097FE00232360414D286818B15F
:108E000039F090FE00232B604FF44F5039F086FE6E
:108E10003C4BA82404FB067493ED000B0021804614
:108E200020F036FC94ED063B94ED042B94ED021BF0
:108E300094ED000B4046C5F8008021F097F994EDC1
:108E4000223B94ED202B94ED1E1B94ED1C0B286807
:108E500021F006FA94F84030002B3DD1A82303FB03
:108E6000067393F868205ABB286821F07DFB2868B8
:108E700021F068FB20B1286821F068FB044670B936
:108E8000286808B139F04EFE00242C6020460AB054
:108E9000BDE8F081002420460AB0BDE8F0811A4DFB
:108EA0001A49C6EB0616314428460E2243F061FAF1
:108EB000174A00232046AB7313600AB0BDE8F08167
:108EC00093ED183B93ED162B93ED141B93ED120BC2
:108ED000286821F0BBFAC7E794ED0E3B94ED0C2B0C
:108EE00094ED0A1B94ED080B286821F035FAB5E7DC
:108EF00070FD0020F102012060020120BCDD002095
:108F0000A0010120106100208C010120B434012057
:108F10009C01012070B5274D274C2B78002B3FD0AA
:108F2000237C002B3AD1254C39F0AEFB206801217F
:108F300011F0B2F908B100232360214E39F0AEFBE5
:108F4000204B306800241C702C7010B139F0EAFD01
:108F500034601D4C206818B139F0E4FD0023236013
:108F60001A4A1B481B4B1C491C4D1D4E0024146003
:108F700004701C4A1C481C701C4B0C702C60146044
:108F8000046021461A4834704FF0FF354FF47A627E
:108F90001D6042F0EBF9174B1C6070BDFFF798FDA8
:108FA000237C002BBFD0144822F02CFE124822F064
:108FB0001DF9B8E77A010120C8DD0020C0DD0020DE
:108FC000BCDD0020E0DE0020A00101209C0101208A
:108FD000F401012079FD002010E100200CE10020C7
:108FE0008C010120B4F00020C4F000201C6100209E
:108FF00014E10020F0010120D8DD002008B5254B48
:109000001B785BB3244B1B78042B02D1234B1B78BA
:1090100023B337F035FA224A224B1268801A98425D
:109020001CD9214B1B681BB1204B1B68002B16DC85
:109030001F4B93ED007AF0EE007AB4EEE77AF1EE92
:1090400010FA0CDA1B4B1A787AB137F019FA1A4B6E
:109050001A684EF65F23801A98420DD808BD15494C
:10906000154A00230B70136008BD01221A7037F0F7
:1090700007FA114B186008BDFFF74CFF0F4A104963
:10908000136803F59C5308334FF0FF3013600860FA
:1090900008BD00BF79FD0020B8BF0020DDE0002042
:1090A0007CFD00201FBF0200A0010120A8010120BB
:1090B00008E1002010E100200CE1002054DE002037
:1090C0001861002070B51C4D8AB000242846089411
:1090D000CDE90244CDE90444CDE90644CDF823406E
:1090E0002AF02AFE0246284601922AF027FE1F2671
:1090F000019A014602A842F011F902A93246284617
:109100002AF01EFE3C352146324602A842F02EF9D6
:1091100028462AF011FE019028462AF00FFE019AF7
:10912000014602A842F0FAF8324602A928462AF07F
:1091300007FE0AB070BD00BFA44C0120284B294A8D
:10914000294870B5C3F800261BF0A4FC00210420B8
:109150003AF074FC01210520244D3AF06FFC0924FB
:1091600045F00105002105203AF0ECFC4FF4A07019
:10917000A847012105203AF0E5FC4FF4A070A8476C
:10918000013CEFD1012104203AF058FC2146042093
:109190003AF0D8FC4FF4A070A847012105203AF01E
:1091A000D1FC4FF4A070A8470D4C0E4E01210420B5
:1091B0003AF0C8FC4FF4A070A8470B48C4F800660A
:1091C0001BF0EEFB0A4908481BF046FC0948C4F8AE
:1091D000006601223C2130F061F8C4F8006670BDE1
:1091E000000001403546526E84350120C010070052
:1091F000801A0600FCDD00202DE9F047544E554D45
:109200003768D7F8008040463AF0BAFC034645F08C
:10921000010503244FF4FA405BB9012C74D0A84730
:1092200040463AF0ADFC0346013C4FF4FA40002BB7
:10923000F3D001237B71484F464DD7F80080D8F812
:10924000009048463AF09CFC034645F00105032493
:109250004FF4FA405BB9012C66D0A84748463AF073
:109260008FFC0346013C4FF4FA40002BF3D001235E
:1092700088F80530DFF8EC90364DD9F80080D8F842
:1092800000A050463AF07CFC034645F0010503245B
:109290004FF4FA405BB9012C22D0A84750463AF06F
:1092A0006FFC0346013C4FF4FA40002BF3D001233E
:1092B00088F8053033681B793BB1284A136803F5F9
:1092C0009C5308331360BDE8F0873B681B79002B83
:1092D000F3D1D9F800301B79002BEED1BDE8F0872F
:1092E00037F0CEF898F80530002BE3D01C4BD8F8B7
:1092F00008201B68801A9842DCD337F0C1F8A8F820
:109300000440C8F80800D5E737F0BAF87B79002B9D
:1093100091D0134BBA681B68801A98428BD337F0F0
:10932000AFF8BC80B86086E737F0AAF898F8053047
:10933000002B9FD00A4BD8F808201B68801A98424F
:1093400098D337F09DF8A8F80440C8F8080091E7D2
:10935000D4600020C0100700D860002054DE002038
:10936000C8600020DC600020424B1B682DE9F04102
:109370001E68414D30463AF003FC034645F00105B6
:1093800003244FF4FA405BB9012C0BD0A8473046B8
:109390003AF0F6FB0346013C4FF4FA40002BF3D0C1
:1093A000002600E02646354B334D1B681F683846C3
:1093B0003AF0E6FB034645F0010503244FF4FA407A
:1093C0005BB9012C0BD0A84738463AF0D9FB0346CD
:1093D000013C4FF4FA40002BF3D0002500E0254675
:1093E000274B254F1B68D3F8008040463AF0C8FB56
:1093F000034647F0010703244FF4FA405BB9012C00
:109400000AD0B84740463AF0BBFB0346013C4FF454
:10941000FA40002BF3D000249EB11A4E3378DBB112
:1094200065B1194D2B78F3B124B1184C23785BB199
:10943000BDE8F081154B1C70BDE8F081124B1D702A
:10944000F2E7104B1E70EBE737F01AF8104A0123D1
:1094500010602370BDE8F08137F012F80D4A012347
:1094600010603370DCE737F00BF80B4A0123106013
:109470002B70D9E7D4600020C0100700D86000200E
:10948000DC6000209DDD0020A4DD0020ACDD00209C
:10949000B0DD0020A0DD0020A8DD002038B50F4A97
:1094A0000F4B126819688A4215D00E491A600023C2
:1094B0000B6001220C4C0D4B204600251A70E576FE
:1094C0002FF056FC204601212FF07EF94FF00113BA
:1094D000C4E9045338BD0022ECE700BF1861002046
:1094E000CCF0002000FB0020FCDD002080FD0020EF
:1094F0001A4A13680E2B28D00D2B15D0083312D022
:10950000174B184993ED007A0B68F1EE047AB4EE2C
:10951000E77AF1EE10FA03F59C5394BF0B200A2072
:10952000083310600B6070470F4B10491A680B68C6
:10953000013A9A420B4A14BF013300230B601368AF
:1095400003F59C5308331360704706490B6803F515
:109550009C5308335A200B6010607047186100203C
:1095600008E1002054DE002068610020C4DD0020F6
:109570000378462B01D00020704710B54378572B55
:10958000044627D11449082242F0E1FE08B901201F
:1095900010BD12490622204642F0D9FE0028F6D01E
:1095A0000F49204642F0A8FE0028F0D00D49204681
:1095B00042F0A2FE0028EAD00B49204642F09CFE71
:1095C0000028E4D00949204642F096FEB0FA80F027
:1095D000400910BD002010BDC0F90600CCF90600FE
:1095E000D4F90600DCF90600E4F90600ECF90600FF
:1095F0002DE9F04362498DB00822044642F0A7FEEF
:1096000000284CD15F4F3B7803F0FF06002B51D16F
:10961000083420462C2142F062FE00284AD000F196
:10962000010948462C2142F05AFE0546002841D047
:1096300020460A22314643F0D3FDA5EB0903082B4F
:1096400080464AD1D9F80000D9F8041002AB03C310
:1096500002A801A98DF810600FF0C0F800283CD0D6
:1096600008F1FF33B3F5A02F56D26878013590B1D9
:10967000DFF85C916E2643F0BDFD0446304643F0B2
:10968000B9FD844207D115F8010F00285DD019F803
:10969000016B002EEFD13C48FDF776FF0DE03B4912
:1096A0000622204642F053FE50B9364B1B78012B60
:1096B000DDB218D03648FDF767FF0DB0BDE8F08386
:1096C0003449204642F018FEC8B92E4B1B78022BB5
:1096D000F0D1314B01221A70EFE73048FDF754FF0B
:1096E0000DB0BDE8F08301460A22A01D43F078FDCD
:1096F0002B4B1B6883420FD12A4B1D70DDE72A4993
:10970000204642F0F9FD68B91E4B1B78032BD1D1DE
:10971000264B01221A70D0E72548FDF735FF0DB022
:10972000BDE8F0832349204642F0E6FD48B12249D6
:10973000204642F0E1FD0028BFD1204B01221A70E3
:10974000BBE71F4B01221A70B7E799F80030002BD6
:10975000A1D1134B1B4A0198C3F8008005A901232E
:109760003B7010600FF004F8174A05AB08A81021F1
:1097700042F0F2FC08A982B214482BF011F99CE7E0
:10978000C0F906005DAF002008FA0600CCF906001B
:10979000F4F90600D4F90600956A0020FCF90600E9
:1097A000B46B0020FD690020DCF90600B36B0020DB
:1097B00000FA0600E4F90600ECF90600FC69002056
:1097C000B26B00209C6A002010FA060038E00020EE
:1097D0001DFA06000000000085490978012900D023
:1097E00070472DE9F0411C46CBB282499CB00B700A
:1097F0001546002141220BA841F0B8FD402C22461D
:10980000294628BF40220BA841F088FD0BA842F052
:1098100096FD431E70B10BAA774E1A4412F8011937
:109820000A39C9B226FA01F016296FEA000003F1DD
:10983000FF3310D9714E3378BBB171490BA80522A3
:1098400042F085FD50BB062C28D86E4B01221A70C1
:109850001CB0BDE8F08110F00100EBD1591C507034
:10986000DCD1664E3378002BE7D1674F3B78022B73
:109870007AD0402C00F28980644904220BA842F07F
:1098800066FDB0B9624C237803F0FF05002B52D07F
:109890006049614804222BF083F8D9E75F4E338892
:1098A00014FA83F3B3F5805F50DD5D4B01221A702B
:1098B000CEE75C4904220BA842F049FDD8B15A49D1
:1098C00007220BA842F043FD002840F0CD809DF810
:1098D0003330202B0DF1330003D110F8013F202B42
:1098E000FBD018210FF066FB98B950495048092267
:1098F0002BF056F8ACE79DF83030202B0CA803D1A4
:1099000010F8013F202BFBD018210FF053FB00284B
:109910003BD03F4C237803F0FF0563B13D494448F9
:1099200004222BF03DF893E7394C237803F0FF0530
:10993000002B40F022813F4B40220BA9184642F0F9
:1099400018FD012280F84050227081E73A4B3088A0
:10995000294613FA80F0224641F0E0FC338814FADD
:1099600083F39BB2338073E7082C14D833490BA8D8
:1099700042F0C2FC20B132490BA842F0BDFC50B904
:1099800021460BA8FFF734FE62E72E49284805223E
:109990002BF006F85CE73B78022B7FF459AF2A4B9B
:1099A0001A7802F0FF00002A7FF452AFDFF8B0808F
:1099B000264AD8F8007012682744974200F2B28015
:1099C000234A244ED2F800C0318814FA81F1B1F54F
:1099D000805F40F2AD80DFF88CC0DCF80010013110
:1099E00000F0B8801C4A1D49116001221A702FE74F
:1099F000E0DC00204E8C002009004000487C002064
:109A000028FA0600958E00205DAF002040FA06007F
:109A1000B16B0020E8FE060070DF00204C8C0020B7
:109A2000EB7B002048FA060050FA060058FA0600C0
:109A300038E00020546A00204C7C0020D4F9060055
:109A4000E4F9060038FA06005CAF0020B46B002091
:109A5000F8BF0020FCBF0020986A002030FA060002
:109A6000D87B0020B86000207F490BA842F044FC5E
:109A700000284AD07D4905220BA842F068FC002846
:109A800043D07B4905220BA842F061FC00283CD062
:109A900078490BA842F030FC002836D076490BA854
:109AA00042F02AFC00283FF43FAF744905220BA87E
:109AB00042F04DFC002866D0714905220BA842F007
:109AC00046FC00286DD13378002B56D16D4B1C78A5
:109AD000002C52D10DF1310018210FF06BFA002843
:109AE00059D0694B694D0DF131011846182242F0E9
:109AF00040FC034666496748674A1C7601232C8070
:109B000004700C7013703370A2E6644C237803F079
:109B1000FF050BB9624B0FE76249634805222AF043
:109B20003FFF95E6614A6249116001221A708FE693
:109B3000604B03EB0C333088294613FA80F0224641
:109B400041F0ECFB3388C8F8007014FA83F39BB241
:109B500033807DE63188DFF880E1564B89B2AEF87C
:109B600000101168CCF80010116881F0010111603B
:109B70003080126803EB0233DDE74F494A4809227F
:109B80002AF00EFF64E618210DF131000FF012FAF1
:109B900000287FF4C9AE494943480D222AF000FF4E
:109BA00056E6474905220BA842F0D1FBB8B9454C0F
:109BB000237803F0FF05002BDFD10DF131001821D0
:109BC0000FF0F8F90028E6D03F4B18220DF13101D3
:109BD000184642F0CEFB01220576227038E63B495A
:109BE0000BA842F089FB30B10BA8FFF7C1FC00289D
:109BF0003FF42EAEC4E6364B186840F027FC03AEA7
:109C000004460D4645EC104B32460221042036F046
:109C100021FC11A3D3E900232046294640F0B6FADF
:109C20000FA3D3E9002340F069FC40F017FF64283C
:109C3000A8BF642020EAE073264A0096182105A8F0
:109C400042F08AFA05A842F07AFB05A982B21648CA
:109C50002AF0A6FEFCE500BF6666666666660A40F8
:109C6000721CC7711CC75B4064FA06006CFA0600E0
:109C700074FA06007CFA06008CFA0600A0FA0600C8
:109C8000B8FA0600E1DC0020988E00204C8C002001
:109C9000958E0020EB7B0020EC7B0020568C002072
:109CA000FC7B002084FA060038E00020986A00203F
:109CB00000FA0600B48E002094FA0600A8FA060006
:109CC000C0FA0600588E00207C8E0020C8FA0600DC
:109CD000BCF00020D0FA0600F0690020124B1349B6
:109CE0000122002030B45A600325DA600424C3F84E
:109CF000040541F28830C3F80855C3F810454FF405
:109D00008035C3F8400560244FF08060C3F800221E
:109D1000C3F8045381F81A43C1F88001086004496C
:109D200030BC0A701A60704700A0014000E100E0FA
:109D3000C96B002070B5304C304D314882B00FF007
:109D40005FF940F24C43032201212E48C4F800562B
:109D500019F0D2FF2C4BC4F8005640F24C4619784B
:109D6000284840F24C4303221AF060FD3346032298
:109D700004212448C4F800561AF092F8C4F800569A
:109D80000323002201211F4800961AF0CBF8C4F8E3
:109D900000560323012200211A4800961AF0C2F847
:109DA000C4F80056032302220021164800961AF038
:109DB000B9F803231A46C4F800560021114800964A
:109DC0001AF0B0F8C4F80056032300210D4800969D
:109DD00006221AF0A7F80D4BC4F80056197809B1FD
:109DE00002B070BD3346032206481AF0BFFBC4F828
:109DF000005602B070BD00BF000001403546526EF3
:109E0000B86B002008FB00202461002025610020A1
:109E1000104A114B114810B50021114C11704FF42C
:109E20007A621960216041F0A1FA0E48037C6BB997
:109E30000D4C38F029FC2068022110F02DFA08B1F1
:109E400000232360BDE8104038F028BC103021F01A
:109E5000CDF9EDE778010120C4F0002014E10020E5
:109E6000B4F0002084FD0020C0DD00202DE9F04387
:109E70000024BDB0374B049401464FF47A75224656
:109E800007A8ADF81C408DF81E400595039321F0FE
:109E9000EBFB20B9002528463DB0BDE8F0832E49F4
:109EA0004FF4806207A821F03FFC064607A821F086
:109EB0009DF9B6F5806FEDDB284E009502A9019162
:109EC00025480294334610AA4FF480610EF04AFEF2
:109ED00005460028DFD0224BDFF89880214FDFF8BD
:109EE000989010A91846172242F043FA03461F2201
:109EF000404616A9DC7542F03CFA88F81F40384607
:109F0000DFF878801F221EA942F033FAFC770F2277
:109F1000154F26A9484642F02CFA0F222AA940469E
:109F200089F80F4042F025FA0F2238462EA988F80A
:109F30000F4042F01EFA029A0C4BFC731A6012B1E9
:109F4000013A56F822200A4B28461A603DB0BDE877
:109F5000F08300BF4C0A070054C0002014E1002029
:109F600088DE002068DE0020C0DE0020B4F0002083
:109F7000C4F00020A0DE0020D0DE002058DE00204B
:109F800070B50C4E054638F07FFB3068294610F05E
:109F90006BF9044620B938F081FB3368204670BD68
:109FA0002946306810F070F9306038F077FB2046B1
:109FB00070BD00BFC0DD002010B5084C82B001901C
:109FC00038F062FB2068019910F066F908B10023AF
:109FD000236002B0BDE8104038F060BBC0DD002057
:109FE00030B5204B1C788BB004BB05460320FFF72F
:109FF000C7FFD8B11C49ADF8044001A823462A4642
:10A000008DF8064021F028FBB8B11749ADF804409F
:10A010002A46012301A88DF8064021F01DFBB0B9A6
:10A020001249134807222AF0BBFC0BE011491048E3
:10A0300004222AF0B5FC0BB030BD0F490C480922B0
:10A040002AF0AEFC0320FFF7B7FF0BB030BD01A82C
:10A0500022F072FB0028E3D00849054807222AF0C5
:10A060009FFCEFE7E1DC002048650020DCFA0600F9
:10A0700038E00020E8FE060058FA0600E4FA060080
:10A08000F8B51649164C174A174F184E184D19486F
:10A0900000233B70337023700B70174C13701749FB
:10A0A000174A2B70174D236013600B80164C17490D
:10A0B000027C2B604FF0FF3525600B804AB9144CB1
:10A0C000237803B9F8BD0320FFF776FF0023237040
:10A0D000F8BD103021F08AF8F1E700BFB36B002023
:10A0E000956A0020B26B00205DAF0020FD69002062
:10A0F0005CAF0020D8AE0020F8BF0020FCBF0020DD
:10A10000986A0020D87B0020B8600020F069002009
:10A11000B6AF002008B5082209490A482AF040FCD9
:10A12000FFF7AEFFC82036F0B7F9FF210020FDF79A
:10A13000E1F857210020FDF7DBF8FDF7C3F800BF79
:10A14000ECFA060038E00020F0B52E4B1C68BDB0DC
:10A150001CB90320FFF714FF30B92B492B480C2200
:10A160002AF01EFC3DB0F0BD2346294D294A2A495C
:10A17000019404A84FF47A76ADF810408DF812409F
:10A180000296009521F068FA9DF8103083B3234FB2
:10A190001E4E02E011A821F029F84FF47A73002234
:10A1A00004A911A80F930E94ADF844408DF84640D1
:10A1B0000D9521F08FFC9DF84430B3B113F0D00F12
:10A1C000E8D11AA9402211A822F0DAFE1AAB3A46C9
:10A1D0002AA8462141F0C0FF2AA982B230462AF0BF
:10A1E000DFFB0A2036F058F9D4E704A820F0FEFF80
:10A1F0000320FFF7E1FE0A49044804222AF0D0FBBD
:10A200003DB0F0BDC0DD0020F8FA060038E00020C7
:10A210004C0A070008FB0600486500201CFB0600EE
:10A2200014FB06002DE9F0473B4B1C68ADF5287D7B
:10A2300024B90320FFF7A4FE054640B93749384842
:10A2400004222AF0ADFB0DF5287DBDE8F0872346FA
:10A25000344E354A354904944FF47A7707A8ADF85F
:10A260001C408DF81E400597039621F0F5F99DF8E6
:10A270001C30002B4BD0DFF8C090DFF8C0802C4F93
:10A2800002E014A820F0B2FF00224FF47A7307A96D
:10A2900014A8CDE91062ADF850208DF85220129329
:10A2A00021F018FC9DF8504014B314F0D004E8D10C
:10A2B0000DF1740A51464FF4807214A822F060FE2A
:10A2C0001B9A0192002D14BF4B4643463A464FF469
:10A2D0009671CDF800A05DA841F03EFF5DA982B265
:10A2E0000F482AF05DFB0A2036F0D6F82546C8E76D
:10A2F00007A820F07BFF0320FFF75EFE0D4908480A
:10A3000003222AF04DFB0DF5287DBDE8F0870320E0
:10A31000FFF752FE92E700BFC0DD0020E8FE060016
:10A3200070DF00204C0A07006CF906004865002029
:10A330002CFB060038FB06002822070028FB06003D
:10A34000F0B52E4E337C8FB00446002B51D1032044
:10A35000FFF716FE002845D000272246284C294941
:10A3600001943B464FF47A7505AC05A80395029716
:10A37000ADF814708DF8167021F06EF9A446BCE8A3
:10A380000F00214D029C74600FC5BCE80F000FC583
:10A39000DDE90321337CDCF800002860C6E90221F6
:10A3A000B3B11A48F36A1A4A1A49036001201760C8
:10A3B0000870194A202101A841F0CEFE01A841F001
:10A3C000BEFF01A982B215482AF0EAFA0FB0F0BD2B
:10A3D0000320FFF7F1FD1249104805222AF0E0FAA8
:10A3E0000FB0F0BD0F490D4804222AF0D9FA0FB082
:10A3F000F0BD06F1100020F0F9FEA8E7A0DC002077
:10A400004C0A070048650020B0DC0020D4DC0020A6
:10A4100098DC0020E1DC00203CFB060038E0002056
:10A4200038FA0600E8FE06002DE9F04F1F4C85B013
:10A4300004F26C4980464F4604F2444BA246032581
:10A4400001AEFF220023CDF80880ADF8042003936D
:10A4500096E80E00384624F031F894F87E3413481C
:10A46000C4F8689401223946BBB923F03BF860B1C7
:10A47000584620F0BBFE0E48514621F037F960B136
:10A480000C4B1C6005B0BDE8F08F03460246394610
:10A49000064823F027F80028EAD1642035F0FCFFB5
:10A4A000013DCED1284605B0BDE8F08F48650020BB
:10A4B0008C690020FC39012010B52048204A037C1B
:10A4C000002111705BBB1F4A1F4B002414701C70CD
:10A4D000FFF7D6FD1D4A1E4B1E48147021461C7006
:10A4E00029F068FC1C482CF043FCF8B9194829F005
:10A4F00027FD194800212CF011FC174800212CF0F1
:10A5000011FC01210C2039F01DFB1449144A154897
:10A510000023BDE810400B701370FFF785BF1030AB
:10A5200020F064FE0320FFF747FDCCE70A482CF03B
:10A5300053FC014608482CF039FCD7E7A0DC00208A
:10A5400094DC0020E1DC00204E8C0020B16B002068
:10A55000568C0020A44C0120644601209CDC002085
:10A56000E0DC002080841E00F0B5244D244F002341
:10A5700087B028463B70FFF757FF044610B12046CE
:10A5800007B0F0BD1F4E0495FF230590ADF80C30C9
:10A5900006F26C4506AB13E90E00284623F08EFF49
:10A5A00096F87E34C6F86854002BE8D1D6F86C349F
:10A5B00028469B6998470028E1D0D6F86814019195
:10A5C00023460122304622F08DFF019960B10E48EA
:10A5D00020F00CFE0B4901F2444021F087F850B105
:10A5E0000A4B04461E60CAE723462246304622F044
:10A5F00079FF0028EBD101233B70C0E780841E0067
:10A6000079010120486500208C690020FC39012077
:10A6100010B58AB000231A4A1A49ADF8043001A8CF
:10A620008DF8063021F018F860B90446ADF8040042
:10A63000134A15498DF80640012301A820F0E4FED5
:10A64000044658B10023114A0E49ADF8043001A860
:10A650008DF8063021F000F8044610B120460AB00B
:10A6600010BD0A4A0849ADF8044001A801238DF83D
:10A67000064020F0C9FE012420460AB010BD00BFEC
:10A68000240C0700486500208C6900208410070016
:10A690002DE9F04F3C4D3D4E95F800C016F80C30BA
:10A6A0008DB05BB302ABDFF8FCA0DFF8FC90DFF805
:10A6B000FC80DFF8FCB001930AEB0C130FCB019C7C
:10A6C00019F80CE058F82C7084E80F008CF00100A9
:10A6D00000232870714606AA2046CDE90633CDE94D
:10A6E0000833CDE90A3306F80C300FF049FE58B9AB
:10A6F00095F800C016F80C30002BDDD1244B1B78E8
:10A700002BBB0DB0BDE8F08F0DF1180EBEE80F00A9
:10A71000DFF8A0C01F4CACE80F009EE803004CF827
:10A72000040B1D488CF8001001230370BDF82A109B
:10A7300027603A4658460FF0B5FE95F800C016F867
:10A740000C30002BB8D1124B1B78002BD9D035F030
:10A7500097FE114B1A78034692B9024647F22F51E1
:10A760008A42CED90D4C22689A1A8A42C9D90C481D
:10A7700023602AF07DFE002109482AF057FEC0E739
:10A78000044A1268821AE9E7D4690020B4AF0020B5
:10A79000EE7B002058AF0020B06B0020506A0020F4
:10A7A000004D0120B4AE0020D4AE002050AF0020F8
:10A7B000ECBF0020D869002070B5144C237813B981
:10A7C0009FED130A70BD134D2E6835F059FE0146FA
:10A7D00030460FF051FE0028F2D023781BB90E4B03
:10A7E00093ED000A70BD2C6835F04AFE0146204604
:10A7F0000FF042FE0028F2D035F042FE0146074835
:10A800000FF05AFE0028EAD1DAE700BFB06B002053
:10A810000000C07F58AF0020D8690020ECBF0020A6
:10A8200070B5144C237813B99FED130A70BD134D06
:10A830002E6835F025FE014630460FF01DFE00283B
:10A84000F2D023781BB90E4B93ED010A70BD2C6832
:10A8500035F016FE014620460FF00EFE0028F2D01D
:10A8600035F00EFE014607480FF026FE0028EAD11B
:10A87000DAE700BFB06B00200000C07F58AF0020B7
:10A88000D8690020ECBF002070B5144C237813B9B0
:10A890009FED130A70BD134D2E6835F0F1FD014692
:10A8A00030460FF0E9FD0028F2D023781BB90E4B9B
:10A8B00093ED020A70BD2C6835F0E2FD014620469A
:10A8C0000FF0DAFD0028F2D035F0DAFD0146074836
:10A8D0000FF0F2FD0028EAD1DAE700BFB06B0020EC
:10A8E0000000C07F58AF0020D8690020ECBF0020D6
:10A8F0002DE9F04F9A4C9B4A94F828302DED0A8BA5
:10A900000021ADF5277D1170002B00F08980964D58
:10A910002E68002E00F0E280944B94ED042A197802
:10A92000D4ED052A94ED000B94ED021B002940F0B4
:10A93000EC8030468DED121B8DED100BCDED152A00
:10A940008DED142A1BF060F99DED121B9DED100B8F
:10A95000DDED152A9DED142A28681BF069FA94F89C
:10A960002830002B5CD0824B1B78002B46D0814BCB
:10A970001B78002B42D0804E3378002B59D02069B1
:10A980003FF064FD02460B46A06943EC182B3FF0F4
:10A990005DFD02460B466069676A43EC1A2B3FF087
:10A9A00055FD6DA3D3E900233FF0A8FD94ED00CB46
:10A9B00094ED02BB56AD41EC190B284685ED089B82
:10A9C00085ED048B85ED06AB85ED00CB85ED02BBF7
:10A9D000AF620EF021FD002840F0E080674D35F0B9
:10A9E0004FFD2A6842F21073801A984206D935F05A
:10A9F00047FD034662482B6021F004F96069614C11
:10AA00003FF024FD54A3D3E900233FF077FD40F04D
:10AA10006DF820600DF5277DBDEC0A8BBDE8F08F49
:10AA2000534B1B78002BE9D0524B1B78002BE5D001
:10AA3000514E3378002BE1D194F82930002BDDD032
:10AA4000514D35F01DFD2B68C01AB0F57A7FD5D376
:10AA500035F016FD034601202B60FFF791FA002820
:10AA6000CCD094F82D2094F82C3094F82F0094F842
:10AA70002E100291CDE900320390444F638D444A79
:10AA8000502166A841F068FB66A907F1100040F26A
:10AA9000016220F0E9FD3B7C002B00F0DA8156AD2D
:10AAA000284640220A2140F061FC07F110084FF4CB
:10AAB00080673F2F3A462946404640F2A081402217
:10AAC00021F004F9402840F0C181403FF1D13149E3
:10AAD0002E4834F045FD012333708FE72E4D2E684C
:10AAE000002E3FF440AF214B197849BB30461FF090
:10AAF00039FB94ED021B94ED000B2868D4ED052A78
:10AB000094ED042A1EF084FE29E794F82F10638E3A
:10AB100094F8302094F82E00CDED152A8DED121BFF
:10AB20008DED100B8DED142A0EF0FEFA9DED100B3D
:10AB30009DED121B9DED142ADDED152A0146F8E668
:10AB400094F82F10638E94F8302094F82E000EF0B5
:10AB5000EBFA0146CAE700BF0B410E4A9869F23F83
:10AB600090E00020C8E00020BCDD0020DCE00020F8
:10AB700088010120E0DE00207A010120C0F00020E1
:10AB8000D8DD002008E10020C8F00020C8DD00204A
:10AB900084FB0600A4FB0600A00101203AAA0821BC
:10ABA000B0EE4C0AF0EE6C0A012035F053FCB0EE2A
:10ABB0004B0AF0EE6B0A40AA0821012035F04AFC4E
:10ABC000B0EE4A0AF0EE6A0A012117AA084635F0EB
:10ABD00041FCB0EE490AF0EE690A32AA02210120D6
:10ABE00035F038FCB0EE480AF0EE680A36AA0221C9
:10ABF000012035F02FFCE0693FF028FC1AAA41EC57
:10AC0000100B0221012035F025FC206A3FF01EFCCC
:10AC10001DAA41EC100B0221012035F01BFC8F4BCB
:10AC200018683FF013FC20AA41EC100B032101200F
:10AC300035F010FC8A4B18683FF008FC23AA41EC61
:10AC4000100B0321012035F005FC864B18683FF0FE
:10AC5000FDFB26AA41EC100B0321012035F0FAFB85
:10AC6000FFF7AAFD10EE109AFFF7DAFD10EE10AA1A
:10AC7000FFF70AFE09F0FF42B2F1FF4F10EE10BAE3
:10AC800000F0C38048463FF0E1FB0DF1A40941EC20
:10AC9000100B012108464A4635F0DCFB48460B21E3
:10ACA0000EF050FC002800F0B7800AF0FF42B2F12D
:10ACB000FF4F00F0C08050463FF0C8FB0DF1B00AD6
:10ACC00041EC100B01210846524635F0C3FB5046BB
:10ACD0000B210EF037FC002800F0B4800BF0FF428F
:10ACE000B2F1FF4F00F09C8058463FF0AFFB0DF1F2
:10ACF000BC0B41EC100B012108465A4635F0AAFB6B
:10AD000058460B210EF01EFC002800F090803AAB54
:10AD10004C9340AB4D9317AB4E9332AB4F9336AB46
:10AD200050931AAB51931DAB529320AB539323AB6B
:10AD3000549326AB0DF59878559358F8040B1421CD
:10AD40000EF000FC00283FF449AEA845F5D1464B73
:10AD50001B78002B3ED10020014646AA18230EF096
:10AD6000FDFA424B424D1A68089226A90B9123A97D
:10AD70000A9120A909911DA907911AA9069136A93E
:10AD8000059132A9049140A903913AA9029117A90A
:10AD9000CDE90071CDE90C9A4FF48071354ACDF8B8
:10ADA00038B046AB66A841F0D7F966A9284634F01A
:10ADB00047FC00287FF412AE2F4A2B7C10703070B5
:10ADC0000BB1FDF785FE2D4820F010FA0120FFF7AA
:10ADD000F3F803E694F8302094F82F30608D618EFC
:10ADE0000291CDE9003200F5FA6094F82E3094F823
:10ADF0002D2094F82C1080B20EF0A8F9ADE720F0C9
:10AE000065FFB84222D1403F53E6C9F31603002B39
:10AE10003FF438AF0DF1A409194BC9F8003044E7ED
:10AE2000CBF31603002B3FF45FAF0DF1BC0B144BBB
:10AE3000CBF800306BE7CAF31603002B3FF43BAFAF
:10AE40000DF1B00A0E4BCAF8003047E70B4820F06E
:10AE5000CDF90120FFF7B0F8D0E500BF8CD8002075
:10AE600090D8002094D80020DCE00020A801012028
:10AE7000C8DD002054FB0600E0DE0020D8DD002005
:10AE80006E616E000D4B1B780BB9002070470C4BA8
:10AE900010B51C6835F0F4FA014620460FF0ECFAC4
:10AEA00048B135F0EDFA014606480FF005FB80F099
:10AEB0000100C0B210BD002010BD00BFB06B00206B
:10AEC00058AF0020ECBF00202DE9F043B84EB94D3B
:10AED00033782A789A42A1B0D8B200F262812B78F6
:10AEE000C31ADBB2002B00F025812978B24A01F0A9
:10AEF0000F01012B52F82110009100F08D8029786C
:10AF0000013101F00F01022B52F82110019100F0E4
:10AF100083802978023101F00F01032B52F82110B0
:10AF2000029179D02978033101F00F01042B52F8F6
:10AF30002110039170D02978043101F00F01052B05
:10AF400052F82110049167D02978053101F00F01E2
:10AF5000062B52F8211005915ED02978063101F0B8
:10AF60000F01072B52F82110069155D0297807318F
:10AF700001F00F01082B52F8211007914CD02978CD
:10AF8000083101F00F01092B52F82110089143D02C
:10AF90002978093101F00F010A2B52F8211009918B
:10AFA0003AD029780A3101F00F010B2B52F8211009
:10AFB0000A9131D029780B3101F00F010C2B52F896
:10AFC00021100B9128D029780C3101F00F010D2BA5
:10AFD00052F821100C911FD029780D3101F00F018A
:10AFE0000E2B52F821100D9116D029780E3101F058
:10AFF0000F010F2B52F821100E910DD029780F312F
:10B0000001F00F01102B52F821100F9104D02B7872
:10B0100003F00F0352F82330DFF8B0C1DFF8C8E1C6
:10B020009CF800402870013BDBB201AA02EB8307C9
:10B03000DEF80000614A6B46002C40F0EA80107890
:10B0400000F0FF01002840F0A18018680C4604338E
:10B05000BB4219D092F800801968B8F1000F40F097
:10B060009A80A1EB00085648A8F6B839814500F24D
:10B07000908020A800EB840904330134BB420846C9
:10B0800049F8408CE4B2E5D10123CEF800008CF8F9
:10B090000030002C4ED0012C109B39D9119A022C73
:10B0A000134435D0129A032C134431D0139A042C34
:10B0B00013442DD0149A052C134429D0159A062C2C
:10B0C000134425D0169A072C134421D0179A082C24
:10B0D00013441DD0189A092C134419D0199A0A2C1C
:10B0E000134415D01A9A0B2C134411D01B9A0C2C14
:10B0F00013440DD01C9A0D2C134409D01D9A0E2C0C
:10B10000134405D01E9A0F2C13441CBF1F9A9B1882
:10B1100007EE903A07EE104AF8EE677AB8EE470A63
:10B12000F7EE000A87EE800A0FF06CFA25482146F8
:10B130000FF038FA244B1A781AB1244900220A7009
:10B140001A70234A234B1468DB68D90103D5224BBC
:10B150001A68D2074AD436F0ABFB204B204AA0FB3A
:10B160000301830A43EA81531B1B934244D8154AC7
:10B170001C4BD2ED007AB6EE007A77EE877AFDEEC0
:10B18000E77AC3ED007A21B0BDE8F0831868147047
:10B190005DE708465BE74FF00008084682F800804C
:10B1A00055E72A7800F110039B1ADBB29AE600BF3C
:10B1B000EC010120EE010120AC010120C66000205D
:10B1C000C8781E00BC600020ED010120B18E002077
:10B1D000A4010120F0ED00E0001000E040420F006B
:10B1E00020A10700A8010120407C00205B680A4ADA
:10B1F0009B091B1B9342BAD908480FF0CBF9084BA7
:10B20000084A0121197033780021DBB22B701170CC
:10B21000ADE700241EE700BF20A10700BC600020AE
:10B22000C6600020B18E002038B5234D2C782CB993
:10B230004FF08043D3F83834DB0701D4204638BDC3
:10B240000520FEF79DFE0028F8D01C48FFF7ECF81B
:10B2500010B91B48FFF7E8F81A4BD3F868040368E5
:10B260009B699847024600B34FF4007316480021CB
:10B2700024F008F814480122002124F00BF81248A9
:10B2800024F01AF8044658B1104823F0A3FD3220E8
:10B2900035F002F90D4823F09FFD01232B70CDE717
:10B2A00002460146084823F0F5FF0548FFF7BCF8C1
:10B2B0000520FEF781FEC1E74A35012000127A0021
:10B2C00080841E004865002060AF0020243A0120E1
:10B2D000002238B51148124D114623F0DBFF35F03E
:10B2E000CFF8044608E035F0CBF82B68C01A632885
:10B2F00008D8052035F0D0F835F0C2F8001BB0F5BD
:10B300007A7FF0D3074BD3F868040368DB6998476A
:10B31000322035F0C1F8FBF7D5FF00BF60AF002049
:10B32000CC7B0020486500202DE9F04F80468B46FD
:10B3300058F8043B98E8070093F83C4093B006AFF8
:10B340000DF12409202C87E8070089E8070062D165
:10B350000CAC84E8070094E807000FAC84E8070011
:10B3600000900446002856D01D8F4FF6FF7295427C
:10B3700051D0DB6AE90903EBC10105F07F0549689B
:10B3800011EBC50547D01099EE880292481E22188D
:10B390004FF0010A2C46039504963546CDF81480EB
:10B3A00001921E468846BAF1000F11D1029B9D42C0
:10B3B00031D0E80906EBC00005F07F05446814EBC6
:10B3C000C50428D08AF0010AE588BAF1000FEDD053
:10B3D000207904283CD0052836D002281FD0B8F1A7
:10B3E000000FE3D12A464FF6FF718A423346DDF85B
:10B3F0001480DDE903560ED0D00903EBC00002F043
:10B400007F02416811EBC20105D00A79111F0129A1
:10B4100025D9022A23D0584613B0BDE8F08F204624
:10B4200040F08DFF4045C1D1B8F1000FDAD0009B4C
:10B43000013C581E10F8012F14F8013F9A42B5D173
:10B44000019B8342F6D1CDE72468E0880834E9E720
:10B4500024682046002CE5D040F071FFE2E798E830
:10B4600007000CAC84E8070087E8070089E80700BC
:10B4700094E807000FAC84E80700804600283ED01F
:10B48000109C671E0744BB46274654464FF6FF797B
:10B490009A467CB94E4532D0F3090AEBC30306F055
:10B4A0007F065D6815EBC60529D084F00104EE889F
:10B4B000002CEFD02B79042B27D0052B3ED0022B6C
:10B4C00038D0002FE6D14FF6FF729642534616D081
:10B4D000F20903EBC20306F07F065A6812EBC60BB3
:10B4E00099D09BF80430042B2CD0052B2DD0022BA7
:10B4F00018BF4FF0000B584613B0BDE8F08F4FF067
:10B50000000B584613B0BDE8F08F2D6828460DB1EA
:10B5100040F015FFB842BDD1002FD4D0681E08F10D
:10B52000FF3313F8011F10F8012F9142B2D15B4590
:10B53000F7D1C8E7284640F002FFEBE72D68E8881E
:10B540000835E7E752F836B065E752F8363003F1D0
:10B55000080B60E72DE9F047056804460E46002910
:10B5600072D0084640F0EBFE8046002D58D02B7973
:10B57000202B55D1002E53D02B884FF6FF77BB429E
:10B580004ED06268D2F82C90D90909EBC10103F0C2
:10B590007F024B6813EBC20342D04FF0010ADD88F3
:10B5A000BAF1000F10D1BD423AD0EA0909EBC2024C
:10B5B00005F07F05536813EBC50331D08AF0010A0B
:10B5C000DD88BAF1000FEED01A79042A35D0052AA9
:10B5D0002ED0022A27D0002004468045E3D1B8F1BE
:10B5E000000F0BD0721E631E02EB080112F8014F10
:10B5F00013F8010F8442D6D18A42F7D14FF6FF7378
:10B600009D420DD0EB0909EBC30905F07F05D9F880
:10B61000040000EBC505281E18BF0120BDE8F08717
:10B620000020BDE8F08718461C4640F088FED4E7AD
:10B630001B68D88803F10804CFE71C682046002C5B
:10B64000CBD040F07CFEC8E788468EE700000000C3
:10B650008368002B00F0F6801A79402A40F0F280CF
:10B660002DE9F04F1B884FF6FF77BB428FB01CD0FF
:10B67000D0E90324D56ADA0905EBC20203F07F039F
:10B68000526812EBC30310D0DA881CB912E0013CF7
:10B69000DA880FD0D109BA4205EBC10102F07F066A
:10B6A00003D04B6813EBC603F1D19FED950B0FB0A0
:10B6B000BDE8F08F143007C81E7901AC84E807009C
:10B6C000202E04AC84E80700EFD194E8070007AC13
:10B6D00084E807000AAC84E8070082460028E4D02A
:10B6E00018884FF6FF77B842DFD0C20905EBC202D7
:10B6F00000F07F03506810EBC300D6D0DDF82C902B
:10B70000C68809F1FF384FF0010BD044BBF1000FA0
:10B7100010D1BE42C9D0F20905EBC20206F07F0388
:10B72000506810EBC300C0D08BF0010BC688BBF192
:10B73000000FEED00279042A7DD0052A77D0022AA4
:10B7400060D0B9F1000FE4D14FF6FF708642ACD063
:10B75000F20905EBC20206F07F03576817EBC3013D
:10B76000A3D00A7912F010040CD037F83340844289
:10B7700000F0C180E00905EBC00504F07F006C68B3
:10B7800004EBC004023A1C2A8FD801A050F822F022
:10B790004FB80200ABB602004BB80200CDB80200B1
:10B7A00097B80200ABB60200ABB60200ABB602001F
:10B7B000A5B80200ABB60200B3B80200ABB60200F7
:10B7C000C1B80200ABB60200ABB60200ABB60200D5
:10B7D000ABB60200ABB60200ABB60200ABB60200DD
:10B7E000ABB60200ABB60200ABB60200ABB60200CD
:10B7F000DBB80200ABB60200E9B80200ABB602004B
:10B80000D5B80200044640F09AFD484581D1B9F10F
:10B81000000F99D0601E0AF1FF3212F8014F10F8A4
:10B82000011F8C427FF475AF9045F6D18CE7046818
:10B83000E0880834E9E704682046002CE5D040F0B1
:10B840007EFDE2E79FED2E0B704757F833100AA8F4
:10B85000FCF7EAFE9DF82830013B032B3FF625AFAD
:10B86000DFE803F0130C05029DED0C0B1FE7DDE98B
:10B870000C013EF00DFE41EC100B18E7DDE90C0168
:10B880003EF00EFE41EC100B11E70C983EF0DEFD91
:10B8900041EC100B0BE717F833003EF0B5FD41EC1F
:10B8A000100B04E757F833003EF0AEFD41EC100BEF
:10B8B000FDE657F833003EF0B7FD41EC100BF6E61D
:10B8C00008683EF0C3FD41EC100BF0E657F833106A
:10B8D0000831BCE794ED000BE9E6D4E900013EF045
:10B8E000D7FD41EC100BE2E6D4E900013EF0D8FDB3
:10B8F00041EC100BDBE6002444E700BFAFF300800F
:10B9000000000000000000002DE9F04F00F10C02E3
:10B91000034607CAD3E901468FB001AB83E80700AD
:10B92000002C74D093E80700257904AB202D83E820
:10B9300007006CD107AB0AAF83E8070087E8070070
:10B940008246002863D020884FF6FF7840455ED0BD
:10B95000D6F82C90C20909EBC20200F07F035068B0
:10B9600010EBC30053D04FF0010B0B9EC588BBF109
:10B97000000F10D145454AD0EB0909EBC30305F090
:10B980007F05586810EBC50041D08BF0010BC588CE
:10B99000BBF1000FEED00379042B56D0052B50D00D
:10B9A000022B39D0002EE5D14FF6FF7085422ED004
:10B9B000EB0909EBC30305F07F055C6814EBC501D7
:10B9C00025D00B7913F010020DD034F835208242C7
:10B9D00000F09780D00909EBC00902F07F00D9F888
:10B9E000042002EBC002023B1C2B10D8DFE803F05E
:10B9F000360F34595D0F0F0F640F6B0F720F0F0F5F
:10BA00000F0F0F0F0F0F0F0F780F7F0F86009FED97
:10BA10003E0B0FB0BDE8F08F044640F090FC86422C
:10BA2000A8D1002EC0D00AF1FF33601E9A1901E0A0
:10BA30009A42B9D013F8014F10F8011F8C42F7D089
:10BA400098E70468E0880834E9E70468002CA9D086
:10BA5000204640F074FCE2E754F835103846FCF715
:10BA6000E3FD9DF82830013B032BD0D8DFE803F03D
:10BA7000130C05029DED0C0BCBE7DDE90C013EF04C
:10BA800007FD41EC100BC4E7DDE90C013EF008FDB9
:10BA900041EC100BBDE70C983EF0D8FC41EC100BCC
:10BAA000B7E754F835100831D8E714F835003EF000
:10BAB000ABFC41EC100BACE754F835003EF0A4FCB5
:10BAC00041EC100BA5E754F835003EF0ADFC41EC1D
:10BAD000100B9EE708683EF0B9FC41EC100B98E7AC
:10BAE000D2E900013EF0D4FC41EC100B91E7D2E921
:10BAF00000013EF0D5FC41EC100B8AE792ED000B03
:10BB000087E700226FE700BF000000000000000090
:10BB10002DE9F04F054600798BB001AC202884E870
:10BB20000E0055D194E8070004AA82E80B0007CA6A
:10BB30000AAA02E90B00DDF81C80B8F1000F47D01B
:10BB400028884FF6FF76B04242D0149BD3F82C9051
:10BB5000C20909EBC20200F07F03506810EBC3007A
:10BB600036D0089DB0F806B06F1E4FF0010A47446A
:10BB7000BAF1000F12D1B3452AD04FEADB1309EB1B
:10BB8000C3030BF07F0B586810EBCB0020D08AF07A
:10BB9000010AB0F806B0BAF1000FECD00379042B1B
:10BBA00031D0052B2BD0022B16D0002DE3D14FF630
:10BBB000FF739B450CD04FEADB1309EBC3090BF075
:10BBC0007F0BD9F8040000EBCB000BB0BDE8F08F81
:10BBD00000200BB0BDE8F08F044640F0B0FBA84257
:10BBE000C9D1002DE3D0601E08F1FF3313F8011F07
:10BBF00010F8012F9142BED19F42F7D1D7E70468D8
:10BC0000E0880834EBE704682046002CE7D040F0D9
:10BC100096FBE4E72DE9F04F85B004AC04E90E0093
:10BC2000DDF80480B8F1000F47D000884FF6FF76AA
:10BC3000B04242D00E9BD3F82C90C20909EBC2024D
:10BC400000F07F03506810EBC30036D0029DB0F8BF
:10BC500006B06F1E4FF0010A4744BAF1000F12D12F
:10BC6000B3452AD04FEADB1309EBC3030BF07F0B7C
:10BC7000586810EBCB0020D08AF0010AB0F806B06B
:10BC8000BAF1000FECD00379042B31D0052B2BD067
:10BC9000022B16D0002DE3D14FF6FF739B450CD03D
:10BCA0004FEADB1309EBC3090BF07F0BD9F8040053
:10BCB00000EBCB0005B0BDE8F08F002005B0BDE87B
:10BCC000F08F044640F03BFBA842C9D1002DE3D0E1
:10BCD000601E08F1FF3313F8011F10F8012F914285
:10BCE000BED19F42F7D1D7E70468E0880834EBE77C
:10BCF00004682046002CE7D040F021FBE4E700BFB9
:10BD00002DE9F04184B0064604A800E90E00306831
:10BD1000DDE90187A8B17D1E4544C388BB420DD132
:10BD2000002F56D008F1FF33C21D01E0AB4250D0C6
:10BD300013F8014F12F8011F8C42F7D00068002859
:10BD4000EBD1B7F5803F4AD20A9B2E4A1B681B688D
:10BD5000934207F1090046D134F0BAFB00283ED0E7
:10BD60000123C780838000F108054FB300F10C0167
:10BD700008F10402954238BF884507F1FF3336D3F6
:10BD8000072B34D927F00304444443462A4653F88A
:10BD9000041B42F8041BA342F9D1BA0727F003039E
:10BDA0000ED018F80320EA545A1C974208D90233DF
:10BDB00018F80210A9549F4202D918F80320EA5437
:10BDC000074400233B7233680360306004B0BDE871
:10BDD000F08183880133838004B0BDE8F0810020C6
:10BDE00004B0BDE8F08101460A989847B6E743449D
:10BDF000C21D08F1FF3818F8011F02F8011F98450D
:10BE0000F9D1DDE7ED750200437DDBB1037D202B29
:10BE100012D8DFE803F01F111111111111111115C2
:10BE200015111115111111111111111111111111FA
:10BE30001111111111111500012303730020704716
:10BE40000023437503695A1C02611B7803750122A4
:10BE50004275DCE7037B002B14BF022001207047F2
:10BE60002DE9F04F437D85B00446002B00F0FD80A6
:10BE7000057DDFF878B30022134662750092CBB1DE
:10BE8000267D0023B54263751DD0002E00F0E980A9
:10BE90005C2E20D067686FB1A168FB88994200F0E2
:10BEA000B0800F440131A1603E72637DE7E7C2F3C9
:10BEB0000903009323695A1C22611E78267500230A
:10BEC000B5426375E1D16368002B14BF00200420E4
:10BED00005B0BDE8F08F2269511C216111782175F0
:10BEE00001206075002900F0BC80752910D0BD4A82
:10BEF0002F2304E012F8023F002B00F0AE808B42AB
:10BF0000F8D15678002E00F0A88000236375C1E7B1
:10BF1000911C63752161537823756075002B00F0C7
:10BF2000A080402B86BF23F02003A3F13701A3F1AB
:10BF30003001C8B20F2800F290800021D31C617537
:10BF400023619178217501236375002900F08980B0
:10BF5000402986BF21F0200137393039C9B20F2975
:10BF60007BD80026131D66752361D37823750126BF
:10BF700041EA00116675002B73D0402B86BF23F079
:10BF80002003373B303BDBB20F2B66D800206075B7
:10BF9000501D20611279227543EA011301211BB261
:10BFA0006175002A5DD0402A86BF22F02002373A10
:10BFB000303AD2B20F2A50D842EA03139AB202F5AD
:10BFC000205189B20020B1F5806F1EB26075FFF478
:10BFD0006EAF02F510539BB2B3F5806F4FD37F2A3B
:10BFE00000F2A1806768002F3FF464AFA368FA886D
:10BFF000934200F0DA801F440133A3603E72637DF8
:10C000003DE7D4F800A04900DAF8009001F10108FA
:10C01000B8F5803FD9F8003012D29B68724A93423B
:10C0200001F10A0140F0A280384640F07DF828B1C5
:10C03000A0F80680A1686060074632E7D9F80030B2
:10C040005B685B4517D1384634F05CFA01238AF807
:10C0500004300022637D626011E7032005B0BDE873
:10C06000F08F022005B0BDE8F08F03695A1C026111
:10C070001D780575FDE6394648469847E6E7C2F360
:10C080000903009A8DF8080043EA822303F5803201
:10C09000C2F30531C2F3874242F0F00703F03F02DA
:10C0A000C3F3851361F07F0162F07F0263F07F03C9
:10C0B0008DF80B108DF80C708DF809208DF80A3072
:10C0C0000DF10D0808F1FF3808E01E440133A360AC
:10C0D000377218F8017D002F3FF4E7AE6668002E36
:10C0E000F7D0A368F2889342EFD15A00D4F800A0A9
:10C0F00002F10109B9F5803FDAF8003028D2196859
:10C10000886802F10A01384A9042844645D1304697
:10C11000019340F009F8019BD0B1A0F80690A36804
:10C1200060600646D1E706F03F0363F07F03B2F597
:10C13000006F8DF809308DF808004FEA92131AD27B
:10C1400063F03F03DFB28DF80A700DF10B08B9E719
:10C150001A6852685A451CD1304634F0D3F900238E
:10C160004FF001028AF804206360B2E70A464846AD
:10C17000394698475BE703F03F029B1162F07F026C
:10C1800043F0E0078DF80A208DF80B700DF10C08D4
:10C1900098E7314618469047E1E70A46184601936A
:10C1A000314663469847019BB6E7D4F800905A00A1
:10C1B000D9F8008002F1010ABAF5803FD8F80030C2
:10C1C00018D29B6808498B4202F10A021FD111461E
:10C1D00038463FF0A9FF58B1A0F806A0A3686060F8
:10C1E000074608E734FC0600DD750200E57502002D
:10C1F000D8F800305B685B450DD1384634F082F9E1
:10C20000012389F804300022637D626037E63946F5
:10C2100040469847DFE7394640469847F0E700BF79
:10C220002DE9F04F427D8DB004460D46002A76D0B0
:10C23000027D202A12D8DFE802F07A1111111111C3
:10C2400011111170701111701111111111111111C1
:10C2500011111111111111111111700001217B2AFD
:10C26000217300F260815A2A42D9A2F15B01202990
:10C2700000F25981DFE811F0C00057015701570162
:10C2800057015701570157015701570157011C0129
:10C290005701570157015701570157015701210015
:10C2A000570157015701570157013A0157015701EB
:10C2B00057015701570157016400CF491346002029
:10C2C00001259A4240F0718111F8013F6075002B01
:10C2D00000F088812269561C2661127822756575E6
:10C2E000002AEED14FF0020840460DB0BDE8F08FB5
:10C2F000222A02D0272A40F0168163680022A26019
:10C30000002B00F047822046FFF7AAFD804698B92F
:10C3100029462046FCF736F80EE0002262752269B5
:10C32000511C2161127822750121617581E7237BFF
:10C33000002BD7D14FF0010840460DB0BDE8F08F7B
:10C34000DEB220224FF0FF332A712B60002E00F066
:10C350004F8100232269637519460120134601327B
:10C3600022611B7823756075202B00F28D8101A757
:10C3700057F823F0E5C2020089C6020089C6020010
:10C3800089C6020089C6020089C6020089C6020069
:10C3900089C6020089C6020001C8020001C8020065
:10C3A00089C6020089C6020001C8020089C60200CF
:10C3B00089C6020089C6020089C6020089C6020039
:10C3C00089C6020089C6020089C6020089C6020029
:10C3D00089C6020089C6020089C6020089C6020019
:10C3E00089C6020089C6020089C6020089C6020009
:10C3F00089C6020001C8020040214FF0FF32DBB2C3
:10C4000029712A60002B00F0F380002122696175F8
:10C4100008460126114601322261097821756675A8
:10C42000202900F2EF8001A757F821F0E5C20200B1
:10C4300005C6020005C6020005C6020005C60200C8
:10C4400005C6020005C6020005C6020005C60200B8
:10C4500005C8020005C8020005C6020005C60200A4
:10C4600005C8020005C6020005C6020005C6020096
:10C4700005C6020005C6020005C6020005C6020088
:10C4800005C6020005C6020005C6020005C6020078
:10C4900005C6020005C6020005C6020005C6020068
:10C4A00005C6020005C6020005C6020005C8020056
:10C4B00000232B70637D06212971002B00F0BC81C5
:10C4C000237D4E49002B3FF40DAF9A426DD111F8F8
:10C4D000012F00236375002A00F084802369581C13
:10C4E00020611B78237501206075EBE701232B7019
:10C4F000637D06212971002B00F0A081237D404936
:10C50000002B3FF4EFAE9A424FD111F8012F0023D8
:10C510006375002A66D02369581C20611B78237537
:10C5200001206075ECE700239E4604F11B014FF0EB
:10C53000010C15E0392A03D902F0DF00452817D194
:10C540003F2B03F1010013D084F815E001F8012F0F
:10C550002269C3B2501C20611278227584F815C07C
:10C560002F2AE7D82B2AA2F12D00E9D00128E7D9FC
:10C57000234400221A7704F11C0108A8FCF754F8A0
:10C580009DF8208008F1FF33032B0ED8DFE813F06D
:10C59000130127011A011300392940F296805E2900
:10C5A00040F28E807A2940F290804FF00308404696
:10C5B0000DB0BDE8F08FDDE90A67394630463EF040
:10C5C00095FA82463DF042FF02460B463046394618
:10C5D0003EF0FCF98146002800F067810E23C5F883
:10C5E00000A02B714FF0000840460DB0BDE8F08F61
:10C5F0004FF00508A0E600BF58FC060050FC0600FE
:10C6000048FC060001225D29227339D05E1E1746C0
:10C610004FF6FF79D4F8188008A84146FBF7F0FCE4
:10C620000899002900F072816B88BDF824204B45E1
:10C6300000F00981D8F82C004FEAD31C00EBCC00A5
:10C6400003F07F03406800EBC303DA806A8033465F
:10C650004FF000022046FFF7E3FD804600287FF4FC
:10C660006BAE2046FFF7D0FB804600287FF464AE17
:10C67000637D002B00F0EE80237D5D2B40F0D680A3
:10C6800000206075804657E601227D2B2273F7D08B
:10C69000DFF81493DFF814A300276368A760002B6A
:10C6A00000F0F180637D002B00F0AE80217D272912
:10C6B00000F0B480222900F0B1802F293FF66CAF42
:10C6C000A1F14103192B3FF670AF4FF001086775D8
:10C6D0002046FBF7EFFE637D002B00F01D81217DDE
:10C6E0002F29A1F1410300F2C480192BEFD963680F
:10C6F000002B00F00B812046FFF786FB80460028C8
:10C700007FF41AAE637D002B00F0AB80237D3A2BC3
:10C710007FF44BAFD4E90132134467751F72D4E93B
:10C720000132D4F818B08DF82870083308930992B4
:10C73000CDF800B008AB0ECB2846FFF76BFA594690
:10C740008046002800F0F880FBF7FEFE4146731E8D
:10C750004FF000022046FFF763FD804600287FF47B
:10C76000EBAD2046FFF750FB804600287FF4E4AD98
:10C77000637D002B00F0D880237D7D2B80D02C2B77
:10C780007FF413AF67752046FFF73EFB8046002815
:10C7900083D0D1E52668844A306803681B689342D9
:10C7A00040F0B780282033F093FE002848D07F4B1C
:10C7B00043606060A7E50A9A2A600E232B714FF050
:10C7C0000008B9E5DDE90A67012F08BF002E80F0F7
:10C7D0008D800A232E602B714FF00008ACE5DDE957
:10C7E0000A9A19F100464AF10007012F08BF002EEE
:10C7F0006CD20C23C5F800902B714FF000089BE51C
:10C800006175ABE5607505E623695A1C22611978EC
:10C8100021750123272963757FF44CAF2046FFF76C
:10C820001FFB804600283FF466AF85E52C2B7FF484
:10C83000BCAE00236375EDE65D494FE65D496AE6EF
:10C8400001233371B5E7002362F30F0362F31F4343
:10C850002B60FCE623695A1C22611B7823756775DF
:10C860000BE723695A1C22611B782375012262752C
:10C870004DE739297FF62BAF5E297FF636AF7A294F
:10C880007FF625AF33E7D4F80080D8F800000368BE
:10C890001B684B4540F08280282033F019FE0028A9
:10C8A00078D0C0F804A06060FCE6A16906A8FBF798
:10C8B0008BFC069B002B3FF43FADBDF81C202A806B
:10C8C0001E212971C846C3E9006735E5A16906A89C
:10C8D000FBF77AFC069BCBB1BDF81C202A801C21FB
:10C8E00029714FF00008C3E9009A25E5A16906A85F
:10C8F000FBF76AFC069B4BB1BDF81C202A801A216D
:10C9000029714FF00008C3E9006715E54FF00408EE
:10C9100012E52821984748E723695A1C22611978B3
:10C92000217584F81580DBE623695A1C22611B7887
:10C9300023750122627520E704A8FBF761FB049BC5
:10C94000002BE3D0594606A80393FBF759FBDDF80B
:10C950001880B8F1000FD9D0039BBDF81C10D98006
:10C960006A88BDF814004FF6FF7C624519D0DBF8E9
:10C970002CC04FEAD21E0CEBCE0C02F07F02DCF88A
:10C9800004C00CEBC202D080698019462046FBF738
:10C99000F9FCDBE6012388F8043084E72821984776
:10C9A0007DE728806980F0E7ED75020001001F0037
:10C9B00050FC060048FC06002DE9F04F038E9BB0AA
:10C9C0000746044657F80CBBADF80420884600F132
:10C9D000380903B30026C36AB2460BE033F092FD78
:10C9E000E36AC5F800A0208EC5F804A00136B1B2F4
:10C9F000884211D9B5B203EBC5056968084600291C
:10CA0000EFD0DBF80030374A5B689342E6D05846F7
:10CA10009847E36AE5E7C36A00204FF6FF719F423B
:10CA20002086A1860BD0DBF800102E4D4E68AE425A
:10CA30004DD1184633F066FD0423E7626386A16892
:10CA400026680023237161B1264D33680A685B684C
:10CA5000A260AB4208462DD133F054FDA1680029F5
:10CA6000F3D1002584F83C509DF805308DF818501E
:10CA700049464FF0000203A8CDE904558DF8215036
:10CA80000394CDF81C800994FFF7CAFB054610B942
:10CA90009DF82050A5B9049840B1039B11491A682C
:10CAA00013685B688B4216D133F02CFD28461BB00F
:10CAB000BDE8F08F30469847A1680029C5D1D0E77E
:10CAC00094F83C5015F0080518BF0325E3E7194614
:10CAD0005846B047B0E701461046984728461BB075
