:020000022000DC
:1070000000000420F56706003568060037680600B2
:10701000396806003B6806003D6806000000000075
:107020000000000000000000000000007167060082
:1070300041680600000000009167060045680600F0
:10704000516A060047680600D93E060045880400DC
:10705000FD88040047680600B14106004768060045
:10706000476806004768060047680600476806004C
:10707000476806004768060047680600476806003C
:1070800047680600C16406004768060047680600B6
:10709000476806004768060009AC05004768060017
:1070A000476806004768060099890300476806009C
:1070B0004768060047680600000000000000000066
:1070C00047680600476806004768060039700600F2
:1070D000476806004768060047680600CD3205008D
:1070E0004768060047680600476806000000000081
:1070F000000000004768060000000000B1700600B4
:10710000000000000000000000000000000000007F
:10711000000000000000000000000000000000006F
:10712000000000000000000000000000000000005F
:10713000000000000000000000000000000000004F
:10714000000000000000000000000000000000003F
:10715000000000000000000000000000000000002F
:10716000000000000000000000000000000000001F
:10717000000000000000000000000000000000000F
:1071800000000000000000000000000000000000FF
:1071900000000000000000000000000000000000EF
:1071A00000000000000000000000000000000000DF
:1071B00000000000000000000000000000000000CF
:1071C00000000000000000000000000000000000BF
:1071D00000000000000000000000000000000000AF
:1071E000000000000000000000000000000000009F
:1071F000000000000000000000000000000000008F
:10720000F1EE103A43F08073E1EE103A704700BFA0
:1072100010B5054C237833B9044B13B10448AFF3D0
:1072200000800123237010BD3466002000000000A0
:10723000C49F070008B5034B1BB103490348AFF3D4
:10724000008008BD0000000038660020C49F0700D1
:10725000154B002B08BF134B9D46A3F5803A002128
:107260008B460F461348144A121A47F0D7FF0F4BAC
:10727000002B00D098470E4B002B00D098470020E1
:10728000002104000D000D48002802D00C48AFF387
:10729000008047F003FF200029003FF003FB47F088
:1072A000D7FE00BF0000080000000420000000001E
:1072B00000000000346600208473012000000000FC
:1072C00000000000BFF34F8F0549064BCA6802F467
:1072D000E0621343CB60BFF34F8F00BFFDE700BFF9
:1072E00000ED00E00400FA0535DF704733DF70473A
:1072F0003CDF70473DDF704741DF704711DF70476B
:1073000012DF70470020704701207047012070474E
:10731000704700BF704700BF704700BF704700BF95
:10732000024B02F001021A70704700BF436B00204D
:1073300070B50446C0694E4D46F07AFF4AA3D3E9C2
:10734000002346F0DFFF02460B46A069C5E9002393
:1073500046F06EFF44A3D3E9002346F0D3FF94ED3B
:107360000F7AB4F84C30DFED437A9FED435A9FED2E
:10737000434ADFED434AF8EEC75A94ED107A06EE21
:10738000103AF8EEC76A94ED0A7AB8EE466AB8EE9B
:10739000477A66EEA76A65EE845A26EE246A27EEDF
:1073A000057AC5ED055A85ED066AC5ED076A85EDD6
:1073B000087AE37DD4ED097A6B62237DF8EEE77AF3
:1073C000012B88BF637DC5E9020167EE857A8CBF1A
:1073D00003F001030023C5ED047A85F82830E37A31
:1073E00003F00302A2F10300B0FA80F0C3F38001BE
:1073F0004009032A85F82A0085F82B1003F00403BE
:107400002DD1003B18BF0123A28885F82930A2F5B1
:10741000FA63AB85A37985F82E30E37985F82F30B0
:10742000237A85F83030637A85F83130A37A85F88D
:1074300032302268134B1449144C1548A3FB0263E5
:1074400001260E709B094FF47A7101FB132321680A
:107450000268AB86314432442160026070BD002373
:10746000D2E700BFAFF3008048AFBC9AF2D77A3EB4
:10747000F0E40020ACC527376F12833AA8C8FE3A63
:107480000AD7233CD34D621028E5002040E50020B8
:107490002CE50020024B034AC3F800260120704768
:1074A000000001403546526E024B0349C3F80016F6
:1074B00010467047000001403546526E0AB3C2F3D1
:1074C00008032DE9F0471546A3B9DFF83C800646CE
:1074D0000F464FEA52290324D8F8680403683A4655
:1074E000D3F814A031464B46D047013C30B914F0D4
:1074F000FF04F1D14FF0FF30BDE8F0872846BDE82A
:10750000F0874FF0FF30704750660020704700BF93
:10751000037C13F0080306D0C36A406A181A48BFF8
:107520006FF0004070471846704700BF2AB3C2F39F
:1075300008032DE9F0471546C3B906460F463CF04F
:10754000A3FE0F4BDFF83C8018604FEA5529032457
:10755000D8F8680403683A46D3F824A031464B466D
:10756000D047013C30B914F0FF04F1D14FF0FF30A7
:10757000BDE8F0872846BDE8F0874FF0FF30704740
:10758000147D002050660020103028F03FBA00BF64
:10759000103028F09FBA00BF00B583B00B4601221F
:1075A0000DF1070110308DF8073028F093FA03B081
:1075B0005DF804FB00B587B00346064A684618210B
:1075C00048F022FD694682B2034831F0EDF807B079
:1075D0005DF804FB543A070098E40020103027F0CF
:1075E00091BF00BF00B583B001220DF1070110303B
:1075F00027F0B6FE01280CBF9DF807004FF0FF30C2
:1076000003B05DF804FB00BF0846114648F0E4BC37
:1076100008463CF07BBE00BF08463CF05DBE00BFA4
:1076200010B50E4C84B0227801A8092115F024FB76
:10763000237802332370024670B1094B1B7803F0A4
:10764000FF004BB1074B1B7803F0FF0023B1064846
:1076500092B201A931F0A8F804B010BD96B3002091
:10766000466B0020436B0020446C00202DE9F04362
:107670004779402F3946A1B028BF40219FB300234E
:10768000E9464A469C461F46054603EB4304AE7A4C
:10769000167000EB84040133247C14F0080FC4F34B
:1076A000C00818BF013782F801805FFA83FE05F138
:1076B0000C0502F1020218BFFFB21EB10CF1010C61
:1076C0005FFA8CFC7145E0D8084B094C1F70094AE1
:1076D00084F800C04846102315F000FE064B1870D1
:1076E00021B0BDE8F083BC46E946EDE759E500204E
:1076F00058E5002048E5002044E5002010B50C4C7A
:10770000D4F868040368DB69984794F82430DB07F1
:1077100006D400224FF0FF3384F82420236310BDE9
:1077200004F124002AF0A8FE0028F2D110BD00BF09
:107730005066002070B58AB01F2201460092194899
:1077400002ABFF2231F0A8FD0D2804D8154831F016
:1077500089FD0AB070BD0446014602A815F0EAFE94
:107760000028F3D0104E11483578102C28BF102473
:10777000E4B202A9224600EB051047F027FDEDB266
:107780000B4B5C553CF080FD0A4C0B4A44F825003D
:10779000012185EA010303485155337031F062FD40
:1077A0000AB070BD685101203B6B0020FCB2002084
:1077B0001CB3002098B30020FCB30020174BDB68FB
:1077C000D90110B503D5164B1A68D2071FD43DF066
:1077D00073FF144BA0FB0301830A43EA8153124950
:1077E00012480A6800689A1A90420FD810480B6035
:1077F000027810490132097802F00F02914209D053
:1078000001780D4CC9B244F82130027010BD5B689C
:107810009B09E4E7094B01221A7010BDF0ED00E06E
:10782000001000E040420F000C060120CC60002058
:107830005406012056060120140601205506012099
:1078400010B5034B0360044617F000FC204610BD42
:10785000404D07000F49097802290AD1F8B50E4EAC
:107860000E4F3578EDB21C467B5D0BB9202C01D94B
:10787000F8BD70470A48114600EB4510224647F014
:10788000A5FC0848E3B24355012185EA0102795578
:107890003270F8BD28E10020426B002030C4002087
:1078A00054B3002094B3002070B5124C124A134B0D
:1078B0002260002647F260006360C4F888633FF0EE
:1078C00031F80F4B0F4D93ED000B32462146044625
:1078D00021F072FF0C4B2C6093ED000A204622F041
:1078E00013FB0A4B286893ED000ABDE8704022F0B4
:1078F00021BB00BFE0DC0020603A0700B465070050
:10790000186200201CE20020C4620020C062002037
:10791000F8B51A4B1B78022B044626D0184B194A8F
:1079200019480027214601261F70167033F064F9AC
:10793000054631F0B1F82846F72131F0C1F8284664
:10794000022131F0CDF83A463946284631F0C0F8E8
:107950000E4B1E703CF098FC0D4B0E4A1C801060C4
:107960002846BDE8F84031F099B80B4A0B490C4B5A
:1079700010800120002208701A70F8BD28E1002054
:1079800096900020E4E00020CC4A01202AE100206B
:1079900022E1002024E10020C4600020466B00208A
:1079A000436B0020214A13884FF6FF719BB28B4234
:1079B000F0B403D013889BB2984228D01C4B1B789C
:1079C000022B24D01B4B1C481C4F1D4E1D4D1E4C22
:1079D0001E491A7800233B70337003701C482B70CB
:1079E00023701C4D0B701C4C1C49037017202B700E
:1079F000237008801A4B1AB900221A70F0BC704725
:107A00001A78002AF8D0174A01211170F4E7138878
:107A10009BB29842F2D1144C144900234FF6FF70E8
:107A200023701080F0BC0B70704700BFC460002052
:107A300028E10020DCE00020DD9200209080002082
:107A40003480002033800020A0920020F96C0020B8
:107A5000E4E0002029E100209E900020DC6000206E
:107A600096900020FB920020466B0020436B002084
:107A70002DE9F04F4948037CABB0002B40F08A80E1
:107A80004748037C002B40F081804648037C002B54
:107A900078D14548037C002B70D1002432203CF083
:107AA000FFFB424E424A43490194234604A84FF447
:107AB0007A75ADF810408DF812400295009627F0C7
:107AC000E7FB9DF81000002855D03B4D2B68132B89
:107AD00049DC3A4FDFF8E88005E011A827F0A2F969
:107AE0002B68132B3FDC4FF47A73002204A911A8F2
:107AF0000F930E94ADF844408DF846400D9627F054
:107B0000EDFE9DF8443040221AA911A85BB329F07C
:107B10003BF99DF8443013F0D00F1AA8DDD148F09E
:107B200066FB03461AAA0638062B39461044D4D9F8
:107B300048F002FB81460028CFD1D5F800A00AEB1F
:107B40004A0B08EB0B1B1AA92F22584648F069FB79
:107B50000AF1010311A82B608BF82F9027F062F92E
:107B60002B68132BBFDD04A827F05CF928680028D8
:107B7000D4BF002001202BB0BDE8F08F103027F0DB
:107B800051F98AE7103027F04DF982E7103027F0DD
:107B900049F97AE7103027F045F971E7EC01012047
:107BA00044E3002060060120940601205C4D07009C
:107BB000683A070050660020DC0101206C3A07009B
:107BC0002002012010B5094C2368013309D1084A6D
:107BD000136803F59C5308334FF0FF3113602160A5
:107BE00010BD3CF051FB034B1860F0E72062002011
:107BF000B4E2002060FF002038B505680A4A044658
:107C0000286803681B6893420BD128203CF064FB72
:107C100018B1064B4360606038BD01232B71606072
:107C200038BD28219847F3E71976020001001F00AC
:107C300081682DE9F0470568044669B1284E2B6834
:107C40000A685B68A260B34208463DD13CF05EFB27
:107C5000A1680029F3D12568238E04F10C0903B330
:107C60000027E36ADFF878A0B8460BE03CF04EFB53
:107C7000E36AC6F80080218EC6F804800137BAB2E4
:107C800091420FD9BEB203EBC606716808460029BF
:107C9000EFD02B685B685345E8D028469847E36AE5
:107CA000E7E7E36A00214FF6FF7299452186A28635
:107CB00007D02A680A4952688A420BD118463CF01C
:107CC00025FB2046BDE8F08728469847A168002993
:107CD000B5D1C0E72846194690472046BDE8F08751
:107CE0001176020081682DE9F0470568044669B104
:107CF000284E2B680A685B68A260B34208463DD1F3
:107D00003CF004FBA1680029F3D12568238E04F11F
:107D10000C0903B30027E36ADFF878A0B8460BE04C
:107D20003CF0F4FAE36AC6F80080218EC6F80480BD
:107D30000137BAB291420FD9BEB203EBC6067168E1
:107D400008460029EFD02B685B685345E8D02846E9
:107D50009847E36AE7E7E36A00214FF6FF72994527
:107D60002186A28607D02A680A4952688A420BD126
:107D700018463CF0CBFA2046BDE8F08728469847E5
:107D8000A1680029B5D1C0E728461946904720468A
:107D9000BDE8F0871176020081682DE9F04705689B
:107DA000044669B1284E2B680A685B68A260B3423A
:107DB00008463DD13CF0AAFAA1680029F3D1256814
:107DC000238E04F10C0903B30027E36ADFF878A0DF
:107DD000B8460BE03CF09AFAE36AC6F80080218EC0
:107DE000C6F804800137BAB291420FD9BEB203EB94
:107DF000C606716808460029EFD02B685B685345BA
:107E0000E8D028469847E36AE7E7E36A00214FF69F
:107E1000FF7299452186A28607D02A680A495268CE
:107E20008A420BD118463CF071FA2046BDE8F08733
:107E300028469847A1680029B5D1C0E728461946C9
:107E400090472046BDE8F087117602002DE9F84FF3
:107E500007463CF019FA314DDFF8CC90DFF8CCB092
:107E6000DFF8CCA0064645F00105D9F800301C68C3
:107E700020463FF089FD03464FF003084FF4FA40D7
:107E80006BB9B8F1010F3CD0A84720463FF07CFD0C
:107E9000034608F1FF384FF4FA40002BF1D0DBF82D
:107EA0000030D3F8008040463FF06EFD03460324C7
:107EB0004FF4FA405BB9012C23D0A84740463FF06D
:107EC00063FD0346013C4FF4FA40002BF3D0144B02
:107ED0001B68D3F8008040463FF056FD034603245C
:107EE0004FF4FA405BB9012C0BD0A84740463FF055
:107EF0004BFD0346013C4FF4FA40002BF3D0BDE8A4
:107F0000F88F3CF0C1F9801BB842F8D2054B0A202B
:107F1000C3F800A63CF0C4F9A7E700BF7053070000
:107F2000E860002000000140E0600020E4600020E4
:107F30003546526E2DE9F04FDFF8F490344AD9F807
:107F400000300026B34283B016702ADD4FF0FF33B5
:107F5000DFF8E080DFF8E0B02E4F01934FF0000A29
:107F600097ED0A3B97ED082B98ED021B98ED000B5F
:107F700014F0F6FB55EC104B5B4610EE100A52461F
:107F8000294646F031FC3837D9F8003010B1A24606
:107F9000AB4601960136B342E2DC019B1A46013240
:107FA00020D100211C4D1D4B002428461C7012F0CE
:107FB00045FF2A781A4B042A1C600ED9194C2368F5
:107FC0005A1C1DD1184A2360136803F59C530833CB
:107FD0000120136003B0BDE8F08F6FF00A03114C6D
:107FE0009B1AEFE7C3EBC30A0A4B094803EBCA012C
:107FF0000C2248F016F9064A002313730121D1E739
:108000003CF042F9094A4FF0FF331060DAE700BF55
:108010000CE20020580D01201861002004E200202D
:108020006CFF002020620020B4E2002060FF0020EE
:1080300018390120F0E400200000144010B58AB087
:1080400000240A460123014601A8ADF804408DF83A
:10805000064027F01DF908B90AB010BD01A828F0A4
:108060006FFA0AB010BD00BF38B5234C206800BBC2
:10807000224C2068E0B121F039FF002835D120687A
:1080800021F01EFFA0B1206821F01AFF25F08EF824
:108090001B4A1368B3F57A7F0ADA48B119490C68AC
:1080A000A04205D0184C086044F823000133136047
:1080B00038BD26F093F8154B1A688242F8DA104D55
:1080C00018603CF0E1F82B68114AB3F57A7F106034
:1080D000EEDA20680B4C26F09BF82B680A492060EA
:1080E0005A1C41F823002A6038BD206821F0FAFEAE
:1080F00026F092FDCCE700BF080601201CE200201C
:108100001CF500202CF500207CE500200406012051
:10811000E40101202DE9F047054680682F6860B131
:10812000284C3B6802685B68AA60A3422AD13CF0F5
:10813000EDF8A8680028F4D12F682B8E05F10C0902
:108140003BB30026EB6ADFF87C80B2460BE03CF0E4
:10815000DDF8EB6AC4F800A0298EC4F804A001364B
:10816000B2B2914216D9B4B203EBC40461680846B6
:108170000029EFD03B685B684345E8D03846984714
:10818000EB6AE7E7014638469847A8680028C8D157
:10819000D2E7EB6A00214FF6FF7299452986AA863D
:1081A00007D03A68074952688A4205D118463CF020
:1081B000ADF82846BDE8F08738461946904728466E
:1081C000BDE8F087117602002DE9F047038E814665
:1081D000054659F80CABFBB10026C36ADFF8A08056
:1081E000374609E03CF092F8EB6A2760298E676019
:1081F0000136B2B2914210D9B4B203EBC404616843
:1082000008460029F1D0DAF800305B684345E9D030
:1082100050469847EB6AE8E7C36A00214FF6FF72C1
:1082200099452986AA860CD0DAF80020144C5268A9
:10823000A24221D118463CF069F80423C5F82C90DD
:108240006B86A8682E6800232B7158B10C4C3368DC
:1082500002685B68AA60A34206D13CF057F8A868A0
:108260000028F4D1BDE8F087014630469847A86859
:108270000028ECD1BDE8F087194650469047DCE76E
:1082800011760200008830B44FF6FF74A0421AD075
:10829000CD6AC20905EBC20200F07F03506810EB03
:1082A000C30011D0C2880020D309A24205EBC3034A
:1082B00002F07F0100F1010006D05B6813EBC103FF
:1082C00002D0DA88F0E7002030BC70472DE9F04199
:1082D0008B8E4FF6FF72934282B00C46054616D045
:1082E000CA6AD90902EBC10203F07F01526832F871
:1082F0003100A08602EBC10200204FF6FF71107121
:1083000028462A60AB80D18002B0BDE8F081098E9A
:108310002768002932D1638E002B00F0858001236D
:10832000E66A5A4A23864FF480604FF080083B6823
:108330001B68934274D13BF0CFFF238EE76A7060D5
:10834000013B9BB207EBC30100284A6808BF4FF00E
:1083500000080020A6F80080708022B137F8336052
:10836000488886422ED8012100224FF6FF73284606
:1083700021712A60AB8002B0BDE8F081E66A4B1E35
:108380009BB206EBC30E3046DEF804202AB1BEF8DD
:1083900002C036F83380E0451CD8638E994223D062
:1083A0003A4A4B1C9BB2B3F5007F00EBC106238613
:1083B00015BF4FF480604FF47E704FF080084FF08F
:1083C0007F08B4E700EBC313441C9BB202EBC0026E
:1083D0004C8091E70CEBC3130CF101019BB202EB53
:1083E000CC02AEF8021087E7B3F5007FBBD004F1F2
:1083F0000C025B0096421FFA83F83B6816D02448B3
:108400009B6883424FEAC80135D1304647F0E4FD0E
:108410000028A8D01D4A218EE062A4F83280C0E76F
:1084200001463846984788E7E66AE0E7174A1B683E
:10843000019293424FEAC80022D13BF04DFF019ACE
:10844000002890D0D6F800C07168B368D6F80CE068
:10845000C0F80CE0C0F800C041608360D6F810C0DE
:108460007169B369D6F81CE0C0F81CE0C0F810C010
:1084700041618361CFE70A46384631469847C7E7EE
:10848000014638469847019ADAE700BF197602009C
:10849000097602002DE9F0418B8E4FF6FF72934270
:1084A00082B00C46054611D0CA6AD90902EBC10256
:1084B00003F07F01526832F83100A08602EBC1025E
:1084C00028462A60AB8002B0BDE8F081098E27689B
:1084D000002932D1638E002B00F085800123E66AEB
:1084E000594A23864FF480604FF080083B681B6830
:1084F000934274D13BF0F0FE238EE76A7060013B3B
:108500009BB207EBC30100284A6808BF4FF0000880
:108510000020A6F80080708022B137F833604888C8
:1085200086422ED8012100224FF6FF732846217182
:108530002A60AB8002B0BDE8F081E66A4B1E9BB2B8
:1085400006EBC30E3046DEF804202AB1BEF802C0A6
:1085500036F83380E0451CD8638E994223D03A4ADE
:108560004B1C9BB2B3F5007F00EBC106238615BF01
:108570004FF480604FF47E704FF080084FF07F081A
:10858000B4E700EBC313441C9BB202EBC0024C8067
:1085900096E70CEBC3130CF101019BB202EBCC028A
:1085A000AEF802108CE7B3F5007FBBD004F10C02EB
:1085B0005B0096421FFA83F83B6816D023489B68FD
:1085C00083424FEAC80135D1304647F005FD002807
:1085D000A8D01D4A218EE062A4F83280C0E701468F
:1085E0003846984788E7E66AE0E7174A1B68019231
:1085F00093424FEAC80022D13BF06EFE019A002858
:1086000090D0D6F800C07168B368D6F80CE0C0F816
:108610000CE0C0F800C041608360D6F810C07169FA
:10862000B369D6F81CE0C0F81CE0C0F810C0416186
:108630008361CFE70A46384631469847C7E7014687
:1086400038469847019ADAE719760200097602005F
:108650002DE9F04F958E4FF6FF739D4285B014467D
:108660000746884602F10C0B3BD0D36AEA0903EBBC
:10867000C20305F07F025E6836F83230A38606EB4F
:10868000C2064FF6FF73F380A28E00219A42317129
:10869000B1465CD0E36AD10903EBC10302F07F0A63
:1086A000596831F83A30A38601EBCA0100234FF62E
:1086B000FF700B71C880C8F80010F2807B8883427D
:1086C00000F08380E16AD80901EBC00103F07F0369
:1086D000496801EBC3034846DD807A8005B0BDE8F8
:1086E000F08F118E1568002975D1528E002A00F086
:1086F0001F810123E66AC24A23864FF480604FF04F
:1087000080092B681B68934240F00A813BF0E4FD2E
:10871000258EE36A7060013DADB203EBC50200280F
:10872000516808BF4FF000090020A6F80090708043
:1087300029B133F835305688B34200F297804FF0B4
:10874000000901234846237105B0BDE8F08F208E53
:1087500023680193002862D1628E002A00F0EA802B
:108760000123D4F82CA0A64A23864FF480604FF052
:10877000800B019B1B681B68934240F0D5803BF047
:10878000ABFD228ED4F82CC0CAF80400013A92B294
:108790000CEBC2030028596808BF4FF0000B002003
:1087A000AAF800B0AAF802000029C8D03CF83200AC
:1087B000B3F802A05045C2D90AEBC2120AF1010077
:1087C00092B201EBCA01588070E748463D807A803A
:1087D00005B0BDE8F08FE36A4A1E92B203EBC20E09
:1087E0001846DEF804602EB1BEF802C033F83290AD
:1087F000E14543D8628E914254D0814A4B1C9BB2D2
:10880000B3F5007F00EBC106238615BF4FF48060EF
:108810004FF47E704FF080094FF07F0971E7E36AF3
:10882000421E92B203EBC20C9E46DCF804A0BAF1E1
:10883000000F06D0BCF80210029233F832208A42B0
:1088400026D8628E90424AD06D4A431C9BB2B3F543
:10885000007F0EEBC00A238615BF4FF480604FF4F3
:108860007E704FF0800B4FF07F0B82E706EBC51553
:10887000731CADB201EBC606538002E70CEBC215C8
:108880000CF10103ADB206EBCC06AEF80230F8E60F
:10889000029A4B1C01EBC21292B20AEBC101ACF876
:1088A000023003E7B2F5007F3FF449AF52009B4529
:1088B0001FFA82F940D02A685248966886424FEAE9
:1088C000C90140F09180184647F086FB00283FF42C
:1088D00036AF4B4A218EE062A4F832908EE7B2F5B3
:1088E000007F3FF42CAF52001FFA82FA019A9B4599
:1088F00011684AD0D1F808B0424A93454FEACA01FC
:1089000077D1184647F068FB8646BEF1000F3FF46A
:1089100016AF3B4A208EC4F82CE0A4F832A094E7AE
:10892000014628469847F3E601460198984728E70C
:10893000E36ABBE7E36AD6E72968314A0E689642E4
:10894000CDE901324FEAC9005ED13BF0C5FCDDE95B
:10895000013200283FF4F3AED3F800C05E68996896
:10896000D3F80CE0C0F80CE0C0F800C046608160AD
:10897000D3F810C05E699969D3F81CE0C0F81CE018
:10898000C0F810C046618161A4E71D4AD1F800B06B
:108990009345CDE902324FEACA003BD13BF09CFC43
:1089A000DDE902328646BEF1000F3FF4C8AE18681A
:1089B0005968D3F808B0D3F80CC0CEF80CC0CEF884
:1089C0000000CEF80410CEF808B018695969D3F841
:1089D00018B0D3F81CC0CEF81CC0CEF81000CEF8EA
:1089E0001410CEF818B095E70A4628461946B04745
:1089F0006CE70A4601981946D847864685E700BFC6
:108A0000197602000976020001462846B047DDE9E2
:108A100001329EE701460198D847DDE902328646D9
:108A2000C1E700BF2DE9F84307464068BD68032D44
:108A3000884600F1080613D85FFA85FC002D77D030
:108A40000CF1FF3456FA84F4C31D002213F8011F01
:108A5000002908BF42F00102A342F7D1002A40D00A
:108A600000237355D7F80090BE68D9F80830A3B139
:108A700006F1070C8444DA8896420BD13EB3C21D3E
:108A8000DC1D01E0944522D012F8011F14F8015FAB
:108A9000A942F7D01B68002BEDD1B6F5803F7D6869
:108AA000D9F8004034D2236828489B68834206F1F5
:108AB000090140D1284647F08FFA034643B33A688C
:108AC000DE809168196000219360796002E09A88E5
:108AD00001329A800522C8F8003088F80420BDE8E9
:108AE000F883022388F80430037A88F80030BCF158
:108AF000010F08D0437A88F80130BCF1020F02D090
:108B0000837A88F80230002308F80530BDE8F8833E
:108B100023680F4A5B68934213D029462046984742
:108B20003A6800239268012189F804101A60FFDE78
:108B300002230B71E7E70A46204629469847034679
:108B4000BCE728463BF0E2FBEAE700BF09760200FB
:108B5000117602002DE9F04745684DB18368EA8837
:108B6000934204460E4605D01D440133A3602E7285
:108B7000BDE8F0875B00D0F800905F1CB7F5803F40
:108B8000D9F8008012D2D8F800201549D2F808A0F0
:108B90008A4503F10A021CD11146284647F01CFA07
:108BA00020B1C780A36860600546DDE7D8F80030D3
:108BB0000C4A5B68934208D128463BF0A7FB012290
:108BC000002389F804206360D2E72946404698478D
:108BD000F5E729464046D0470028E2D1E6E700BF46
:108BE000097602001176020003792DE9F0470C4660
:108BF000D907054637D4DA0624D413F0600F1DD008
:108C00002E884FF6FF77BE4215D0E36AF20903EBD8
:108C1000C20306F07F09D3F8048008EBC900B2460E
:108C2000C6882146FFF7E0FFA38E28F83930BE4200
:108C3000A4F834A0E9D14FF0FF332B6000232B714F
:108C4000BDE8F0872A884FF6FF718A4237D0E16A83
:108C5000A68ED00901EBC00102F07F00496821F81F
:108C60003060A286C9E7A0682A6826680028C2D0BA
:108C7000824216D0014600680028BCD08242F9D159
:108C80008288013A92B28280002AB4D103680B60D4
:108C900033680C4A5B6893420CD13BF037FB2B796D
:108CA000A9E78288013A92B28280002AA3D10368A0
:108CB000A360EDE70146304698472B799BE70023F8
:108CC0001B80FFDE117602002DE9F04F0E46097879
:108CD00085B02B29009000F0FD802D2940F0B88050
:108CE0007178012001900644A1F13000C0B209283A
:108CF00000F2B680DFF8F893C0B20021002400250E
:108D00004FF0993816F801BF2418ABF13007FFB2C5
:108D100041EB05054FEA850E092F6FEA07024FF078
:108D2000FF334FEA840C4EEA947EF8B24FF0000114
:108D300000F21E81A94508BFA0450BD31CEB040C13
:108D40004EEB050E1CEB0C044EEB0E05AB4208BFC0
:108D5000A242D7D24FF0000A0023204629460A2219
:108D600045F076FFA946A0461FFA8AF3B9F5200F11
:108D700003F1010A08BFB8F1000F04460D460FFACF
:108D80008AFAE9D2092F0BD802339B1B06EB030AA0
:108D900016F801BFABF13002092A0FFA8AFAF5D9A9
:108DA000BBF12E0F00F0B6800BF0DF03452B60D037
:108DB000BBF1000F56D10AF126034C2B00F2FC80C8
:108DC000002D08BFB4F5000F80F0F68007EE904A42
:108DD000BAF1000FF8EEE77A40F36481BC4B1AF069
:108DE000010F1CBF93ED007A67EE877A5FEA6A0293
:108DF00023D0D00744BF93ED017A67EE877A5FEA0C
:108E0000AA021AD0D10744BF93ED027A67EE877A9F
:108E10005FEAEA0211D0D20744BF93ED037A67EE0E
:108E2000877A5FEA2A1A08D0BAF1010F0CBF93EDD6
:108E3000047A93ED057A67EE877A019B0BB1F1EE28
:108E4000677A009A0123C2ED027A137010460DE092
:108E500000200190A1F13000C0B209287FF64AAF8E
:108E60002E2953D0009A00231370104605B0BDE898
:108E7000F08F96F801B0BBF12D0F36D0BBF12B0F60
:108E800000F0F080ABF13003DAB2092A06F10106F6
:108E90008ED80AEB0302B2F59A7F00F3D780002741
:108EA00006E002EB400303EB0A02B2F59A7F79DC9D
:108EB00016F801BFABF13002D1B2092903EB8300F0
:108EC000EFD9002F40F0C7809A44BBF1000F3FF468
:108ED00072AFC7E7717800200190A1F13000C0B2F5
:108EE000092806F10106BBD804E796F802B0ABF1F9
:108EF0003003DAB2092A06F102063FF659AF0AEB4F
:108F00000302B2F59A7F4FDC0127D1E70024002548
:108F10004FF0000A96F801B0ABF13000C0B209285A
:108F200006F101063FF640AF6A4B4FF099329D4281
:108F30004FEA850108BF94424FEA840741EA9471E1
:108F40000ED23F1945EB010117EB070841EB010970
:108F50000AF1FF3A18EB00040FFA8AFA49F100050A
:108F600016F801BFABF13000C0B20928DFD91BE70A
:108F7000BBF1000F40F0D280019B8BB1B5F1004FE7
:108F800008BF012CBFF4E6AE644265EB4505022341
:108F9000009A1046C2E90245137005B0BDE8F08F93
:108FA0000323F5E7002F51D000994FF00042012331
:108FB00008468A600B7059E72046294645F06CF94F
:108FC000BAF1000F79DD444C1AF0010F7AD15FEA53
:108FD0006A032DD0DF0700F18D805FEAAA0327D056
:108FE000DE0700F18C805FEAEA0321D0DD0700F1A3
:108FF0008B805FEA2A131BD0DA0700F18A805FEAD0
:109000006A1315D0DB073ED45FEAAA1310D0DF073E
:109010003ED45FEAEA130BD0DE073ED45FEA2A2390
:1090200006D0DD0744D45FEA5A231CBF2B49002039
:10903000019B13B101F100431946009A0423C2E9D0
:1090400002011046137005B0BDE8F08F019B0020AF
:10905000BBB12349F1E7AAEB030ABBF1000F3FF4D0
:10906000AAAEFFE696F802B0ABF13003DAB2092AF5
:1090700006F102067FF60DAFBBF1000F3FF49BAE89
:10908000F0E61849D9E7D4E90A2345F03BF9BBE7F4
:10909000D4E90C2345F036F9BBE7D4E90E2345F0BB
:1090A00031F9BBE7CAF1000A3FF4C7AE0E4B96E6B2
:1090B000D4E9102345F026F9B5E7CAF1000AB7D084
:1090C0000A4C81E7D4E9002345F01CF97FE700BF93
:1090D000DC4D070099990100404E07000000F87F21
:1090E0000000F0FF0000F07FC44D0700F84D0700BE
:1090F00099999919D4E9022345F004F96DE7D4E967
:10910000042345F0FFF86EE7D4E9062345F0FAF8AA
:109110006FE7D4E9082345F0F5F870E7B5F5801F4F
:1091200008BF002CBFF416AE4FF0000A38E600BFAF
:1091300010B5064C206838B120F0D8FE20B1206868
:10914000BDE8104020F0CEBE002010BD1CE2002083
:1091500070B5584B584D93F8322093F8300093F87F
:109160002F1093F8314094B0049293F82E20CDE95B
:109170000204CDE9002106A8504A9B8D182146F033
:1091800043FF2A68002A3DD04D4B4E4918780028ED
:1091900008BF0B46002106ACCDE910114A480C94DB
:1091A0000E934A4C4A4B13910D9412900F93104614
:1091B00025F032F82C681090002C50D0204625F075
:1091C00099F82A68434C444B1190002A08BF1C466A
:1091D000424A434B126800924FF480610CAA414806
:1091E000139412F0E1FC00213F4826F0A9FA3D4912
:1091F0003D484FF4806226F06DFC3B4826F006FCAB
:1092000014B070BD394C2068002837D020F042FEE1
:10921000374E03462068002B18BF1E4620F06AFE1A
:10922000002306A92A680C91CDE91033274913932E
:10923000254B0E960F900D911293002AB7D12068FE
:1092400000282CD020F052FE48BB206820F038FEC9
:1092500028B323F0AFFF2C681090002CAED1234E22
:10926000306818B320F042FEB0B9306820F028FE14
:10927000044688B124F000F82A68A3E706AB1C4A2C
:109280000C931C4B114E10491090CDE90E231190F8
:1092900013900D961291D2E72A68204692E7FFF7C5
:1092A00047FF002886D025F0B9FC83E70A4C1190CF
:1092B0008EE700BFF0E40020080601209C3A07007A
:1092C000F4050120943A07007C6200209C62002093
:1092D00090E000208C3A0700843A07001CF500203B
:1092E0007CE500209CC8002038E200201CE2002021
:1092F000743A0700B4650700114B186808B124F0F0
:1093000093BF10B50F4C2068B8B120F0EFFD38B90D
:10931000206820F0D5FD18B1BDE8104023F02ABF29
:10932000206850B120F0E2FD38B1206820F0DAFD6D
:1093300018B1BDE8104025F053BC002010BD00BF9F
:10934000080601201CE20020114B186808B124F027
:109350006FBF10B50F4C2068B8B120F0C7FD38B909
:10936000206820F0ADFD18B1BDE8104023F006BF25
:10937000206850B120F0BAFD38B1206820F0B2FD6D
:1093800018B1BDE8104025F02FBC002010BD00BF73
:10939000080601201CE20020114B186808B124F0D7
:1093A0001DBF10B50F4C2068B8B120F09FFD38B933
:1093B000206820F085FD18B1BDE8104023F008BFFB
:1093C000206850B120F092FD38B1206820F08AFD6D
:1093D00018B1BDE8104025F00BBC002010BD00BF47
:1093E000080601201CE200202DE9F041604B1968BD
:1093F00000298AB02DDD5F4B0093012929D003F1AC
:10940000A8020229019224D003F5A872032902922E
:109410001FD003F5FC72042903921AD003F52872B9
:109420000529049215D003F552720629059210D031
:1094300003F57C72072906920BD003F59362082985
:10944000079206D003F5A863092908931CBFA83327
:109450000993684614F02CF9061E5BDB464FA823DF
:1094600003FB067393F89040002C4FD0434C2068C8
:1094700018B13DF05BFA00232360414D286818B114
:109480003DF054FA00232B604FF44F503DF04AFA60
:109490003C4BA82404FB067493ED000B002180468E
:1094A00023F012FF94ED063B94ED042B94ED021B88
:1094B00094ED000B4046C5F8008024F073FC94ED59
:1094C000223B94ED202B94ED1E1B94ED1C0B286881
:1094D00024F0E2FC94F84030002B3DD1A82303FB9C
:1094E000067393F868205ABB286824F059FE286850
:1094F00024F044FE20B1286824F044FE044670B9EC
:10950000286808B13DF012FA00242C6020460AB009
:10951000BDE8F081002420460AB0BDE8F0811A4D74
:109520001A49C6EB0616314428460E2246F079FE4B
:10953000174A00232046AB7313600AB0BDE8F081E0
:1095400093ED183B93ED162B93ED141B93ED120B3B
:10955000286824F097FDC7E794ED0E3B94ED0C2BA3
:1095600094ED0A1B94ED080B286824F011FDB5E773
:10957000D801012059070120C80601201CE2002063
:109580000806012018620020F40501201C39012082
:109590000406012070B5274D274C2B78002B3FD0B7
:1095A000237C002B3AD1254C3CF072FF206801212E
:1095B00013F062FF08B100232360214E3CF072FFDC
:1095C000204B306800241C702C7010B13DF0AEF9B7
:1095D00034601D4C206818B13DF0A8F900232360C9
:1095E0001A4A1B481B4B1C491C4D1D4E002414607D
:1095F00004701C4A1C481C701C4B0C702C601460BE
:10960000046021461A4834704FF0FF354FF47A62F7
:109610001D6045F003FE174B1C6070BDFFF798FD01
:10962000237C002BBFD0144826F0F0F9124825F017
:10963000F9FBB8E7E205012028E2002020E2002043
:109640001CE2002040E3002008060120040601205F
:109650005C060120E101012078E5002074E500208E
:10966000F40501201CF500202CF5002024620020C8
:109670007CE500205806012038E2002008B5214B87
:109680001B785BB3204B1B78042B02D11F4B1B783C
:1096900023B33AF0F9FD1E4A1E4B1268801A984215
:1096A0001CD91D4B1B681BB11C4B1B68002B16DC07
:1096B0001B4B93ED007AF0EE007AB4EEE77AF1EE10
:1096C00010FA0CDA174B1A787AB13AF0DDFD164B26
:1096D0001A684EF65F23801A98420DD808BD1149CA
:1096E000114A00230B70136008BD01221A703AF072
:1096F000CBFD0D4B186008BDFFF74CFFBDE80840DF
:10970000FEF760BAE101012000C400203DE5002021
:10971000E40101201FBF02000806012010060120FD
:1097200070E5002078E5002074E5002038B5334D61
:109730002B68013344D1324B1B78002B40D1314B85
:1097400031491B68314A9B680C681268304992683D
:109750000868191B0029C8BF1C46111B8368002913
:10976000C8BF14461A1B002AC8BF1C463AF08CFD1D
:1097700040F6B733001B984222D9264B1B68B3F53D
:10978000FA7F1EDC244B93ED007AF2EE047AB4EEFD
:10979000E77AF1EE10FA13DB204A21490123137016
:1097A0000B703AF071FD1F4B1F4A1B681060B3B17C
:1097B00005231E4A2B60136803F59C53083313607E
:1097C00038BD164A1649012313700B703AF05CFD40
:1097D000144B154A1B68106043B10623E9E7144B8C
:1097E0001B68002BE4D1FEF75FF8E1E7104B1B6824
:1097F000002BF2D1FEF758F8EFE700BF20620020FF
:10980000E4E00020E060002060FF0020E460002031
:10981000E86000201006012070E5002040E30020F1
:10982000E10101201CE20020E4010120B4E200205B
:109830000806012030B5374C23680F33042B87B05E
:1098400001D907B030BD3AF01FFD334D014628461F
:1098500011F002FE0028F4D0304A314B126819682A
:109860008A4204D02F4991F8280000282FD13AF0DD
:109870000BFD0146284811F0EFFD0128E1D03AF038
:1098800003FD0146244811F017FE2A78042A11D856
:1098900021686FF00A039B1A8B4232D0224A0021C2
:1098A0001160224A2360136803F59C530833136048
:1098B00007B030BD2368013323D01B4B00221A6050
:1098C0003AF0E2FC1A4A4FF0FF331060E9E791EDFD
:1098D000000B91ED021B91ED082A1A608DED040B2F
:1098E0008DED001B8DED032A3AF0CEFC9DED001BA3
:1098F00001469DED040B9DED032A284611F068FDFD
:10990000B5E70A4A136803F59C530833136007B0A0
:1099100030BD00BF206200201861002040E500201B
:1099200008E20020F0E400206CFF0020B4E20020F8
:1099300060FF002070B51C4D8AB0002428460894B2
:10994000CDE90244CDE90444CDE90644CDF82340F5
:109950002EF0F6F80246284601922EF0F3F81F2664
:10996000019A014602A845F031FC02A93246284678
:109970002EF0EAF83C352146324602A845F04EFC6E
:1099800028462EF0DDF8019028462EF0DBF8019AEB
:10999000014602A845F01AFC324602A928462EF0DC
:1099A000D3F80AB070BD00BF0C5101202DE9F0477B
:1099B000544E554D3768D7F8008040463DF0E4FFDF
:1099C000034645F0010503244FF4FA405BB9012C2E
:1099D00074D0A84740463DF0D7FF0346013C4FF402
:1099E000FA40002BF3D001237B71484F464DD7F846
:1099F0000080D8F8009048463DF0C6FF034645F089
:109A0000010503244FF4FA405BB9012C66D0A84746
:109A100048463DF0B9FF0346013C4FF4FA40002BA5
:109A2000F3D0012388F80530DFF8EC90364DD9F8F3
:109A30000080D8F800A050463DF0A6FF034645F050
:109A4000010503244FF4FA405BB9012C22D0A8474A
:109A500050463DF099FF0346013C4FF4FA40002B7D
:109A6000F3D0012388F8053033681B793BB1284ACD
:109A7000136803F59C5308331360BDE8F0873B6817
:109A80001B79002BF3D1D9F800301B79002BEED1D4
:109A9000BDE8F0873AF0F8FB98F80530002BE3D0EA
:109AA0001C4BD8F808201B68801A9842DCD33AF087
:109AB000EBFBA8F80440C8F80800D5E73AF0E4FB4F
:109AC0007B79002B91D0134BBA681B68801A98429F
:109AD0008BD33AF0D9FBBC80B86086E73AF0D4FB70
:109AE00098F80530002B9FD00A4BD8F808201B6847
:109AF000801A984298D33AF0C7FBA8F80440C8F8F7
:109B0000080091E7E060002070530700E460002047
:109B1000B4E20020D4600020E8600020424B1B68C3
:109B20002DE9F0411E68414D30463DF02DFF0346C2
:109B300045F0010503244FF4FA405BB9012C0BD02A
:109B4000A84730463DF020FF0346013C4FF4FA4061
:109B5000002BF3D0002600E02646354B334D1B6822
:109B60001F6838463DF010FF034645F00105032409
:109B70004FF4FA405BB9012C0BD0A84738463DF0B2
:109B800003FF0346013C4FF4FA40002BF3D00025BD
:109B900000E02546274B254F1B68D3F80080404640
:109BA0003DF0F2FE034647F0010703244FF4FA406C
:109BB0005BB9012C0AD0B84740463DF0E5FE0346AC
:109BC000013C4FF4FA40002BF3D000249EB11A4E12
:109BD0003378DBB165B1194D2B78F3B124B1184C52
:109BE00023785BB1BDE8F081154B1C70BDE8F081B6
:109BF000124B1D70F2E7104B1E70EBE73AF044FB7E
:109C0000104A012310602370BDE8F0813AF03CFB5C
:109C10000D4A012310603370DCE73AF035FB0B4A44
:109C2000012310602B70D9E7E0600020705307001B
:109C3000E4600020E8600020E5E10020ECE1002085
:109C4000F4E10020F8E10020E8E10020F0E100204C
:109C500038B50F4A0F4B126819688A4215D00E4961
:109C60001A6000230B6001220C4C0D4B204600258E
:109C70001A70E57632F080FF2046012132F0A8FC10
:109C80004FF00113C4E9045338BD0022ECE700BFD4
:109C90002062002034F500206CFF00205CE20020F0
:109CA000E801012038B504460130094D07D0094AC2
:109CB0002C60136803F59C530833136038BD2B6880
:109CC0000133F4D03AF0E0FA034B1860EFE700BF3D
:109CD00020620020B4E2002060FF00201A4A1368CE
:109CE0000E2B28D00D2B15D0083312D0174B184946
:109CF00093ED007A0B68F1EE047AB4EEE77AF1EEB8
:109D000010FA03F59C5394BF0B200A20083310600F
:109D10000B6070470F4B10491A680B68013A9A4262
:109D20000B4A14BF013300230B60136803F59C53E7
:109D300008331360704706490B6803F59C530833DA
:109D40005A200B60106070472062002070E50020F0
:109D5000B4E200207062002024E200200378462B49
:109D600001D00020704710B54378572B044627D107
:109D70001449082246F043FA08B9012010BD1249DF
:109D80000622204646F03BFA0028F6D00F4920462E
:109D900046F00AFA0028F0D00D49204646F004FAB1
:109DA0000028EAD00B49204646F0FEF90028E4D00E
:109DB0000949204646F0F8F9B0FA80F0400910BD94
:109DC000002010BDBC3A0700C83A0700D03A07008F
:109DD000D83A0700E03A0700E83A07002DE9F043D7
:109DE00062498DB00822044646F009FA00284CD199
:109DF0005F4F3B7803F0FF06002B51D1083420461B
:109E00002C2146F0C4F900284AD000F10109484647
:109E10002C2146F0BCF90546002841D020460A22F4
:109E2000314647F0B9F9A5EB0903082B80464AD122
:109E3000D9F80000D9F8041002AB03C302A801A9A5
:109E40008DF8106011F0B4FD00283CD008F1FF330C
:109E5000B3F5CC2F56D26878013590B1DFF85C911C
:109E60006E2647F0A3F90446304647F09FF9844236
:109E700007D115F8010F00285DD019F8016B002EED
:109E8000EFD13C48FDF796FB0DE03B49062220460A
:109E900046F0B5F950B9364B1B78012BDDB218D01E
:109EA0003648FDF787FB0DB0BDE8F0833449204606
:109EB00046F07AF9C8B92E4B1B78022BF0D1314B02
:109EC00001221A70EFE73048FDF774FB0DB0BDE8D2
:109ED000F08301460A22A01D47F05EF92B4B1B6858
:109EE00083420FD12A4B1D70DDE72A49204646F0F8
:109EF0005BF968B91E4B1B78032BD1D1264B01228D
:109F00001A70D0E72548FDF755FB0DB0BDE8F0838A
:109F10002349204646F048F948B12249204646F0F8
:109F200043F90028BFD1204B01221A70BBE71F4B19
:109F300001221A70B7E799F80030002BA1D1134B1A
:109F40001B4A0198C3F8008005A901233B701060EB
:109F500011F0F8FC174A05AB08A8102146F054F898
:109F600008A982B214482EF01FFC9CE7BC3A0700F7
:109F7000A5B30020043B0700C83A0700F03A0700E9
:109F8000D03A0700DD6B0020F83A0700FC6C002097
:109F9000456B0020D83A0700FB6C0020FC3A070014
:109FA000E03A0700E83A0700446B0020FA6C002012
:109FB000E46B00200C3B070098E40020193B0700ED
:109FC00083490978012900D070472DE9F0411C46EA
:109FD0009CB0804B1546CEB2412200210BA81E70CA
:109FE00045F01CF9402C2246294628BF40220BA8E8
:109FF00045F0ECF80BA846F0FAF8431E70B10BAA36
:10A00000754F1A4412F801190A39C9B227FA01F03A
:10A0100016296FEA000003F1FF3310D96F4F3B7828
:10A02000BBB16F490BA8052246F0E9F860BB062CCE
:10A030002AD86C4B01221A701CB0BDE8F08110F0D8
:10A040000100EBD1591C5070DCD1644F3B78002BE0
:10A05000E7D1DFF8E88198F80030022B73D0402C6C
:10A0600000F28280604904220BA846F0C8F8B0B91B
:10A070005E4C237803F0FF05002B4BD05C495D4814
:10A0800004222EF091FBD7E75B4E338814FA83F35A
:10A09000B3F5805F49DD594B01221A70CCE758496E
:10A0A00004220BA846F0ABF8D8B1564907220BA8FA
:10A0B00046F0A5F8002840F0C7809DF83330202BEB
:10A0C0000DF1330003D110F8013F202BFBD01821F4
:10A0D00012F05AF898B94C494C4809222EF064FB0A
:10A0E000AAE79DF83030202B0CA803D110F8013FCF
:10A0F000202BFBD0182112F047F8002834D03B4C1D
:10A10000237803F0FF052BB13949404804222EF093
:10A110004BFB91E73E4B40220BA9184646F081F8D5
:10A12000012280F84050227086E73A4B3088294659
:10A1300013FA80F0224645F049F8338814FA83F385
:10A140009BB2338078E7082C14D833490BA846F02B
:10A150002BF820B131490BA846F026F850B921461A
:10A160000BA8FFF73BFE67E72D49284805222EF094
:10A170001BFB61E798F80030022B7FF45DAF294BA1
:10A180001A7802F0FF00002A7FF456AFDFF8B080A3
:10A19000254AD8F8007012682744974200F2C4801C
:10A1A000224A234ED2F800C0318814FA81F1B1F569
:10A1B000805F40F2BF80DFF88CC0DCF80010013116
:10A1C00000F0CA801B4A1C49116001221A7033E753
:10A1D00028E1002096900020090040009080002097
:10A1E000243B0700DD9200203C3B0700F96C002077
:10A1F00020400700D0E3002094900020338000200E
:10A20000443B07004C3B0700543B070098E4002008
:10A210009C6B002094800020D03A0700E03A0700B1
:10A22000343B0700A4B30020FC6C002040C4002095
:10A2300044C40020E06B00202C3B0700A5B30020A5
:10A24000207D0020B8600020A7490BA845F0ACFF96
:10A2500000285CD0A54905220BA845F0D0FF0028B6
:10A2600055D0A34905220BA845F0C9FF00284ED0C0
:10A27000A0490BA845F098FF002848D09E490BA89C
:10A2800045F092FF00287AD09C490BA845F08CFF3E
:10A29000002874D09A4905220BA845F0B0FF002889
:10A2A00000F0AA80974906220BA845F0A8FF0028D5
:10A2B00000F0A280944905220BA845F0A0FF0028D9
:10A2C00000F0CD80914906220BA845F098FF0028A8
:10A2D00000F0C5808E4905220BA845F090FF0028AC
:10A2E00000F09D808B4906220BA845F088FF0028CE
:10A2F00000F0958088490BA845F056FF00284BD008
:10A300000BA8FFF72BFD00283FF496AE27E7834C00
:10A31000237803F0FF050BB9814BFCE681498248A5
:10A3200005222EF041FA87E6804A81491160012218
:10A330001A7081E67F4B03EB0C333088294613FA01
:10A3400080F0224644F042FF3388C8F8007014FAC7
:10A3500083F39BB233806FE63188DFF818E2754BE8
:10A3600089B2AEF800101168CCF80010116881F0C5
:10A37000010111603080126803EB0233DDE76E4C9F
:10A38000237803F0FF05002B3FF4C4AE6B49664809
:10A3900009222EF009FA4FE6694B186843F05AFF7C
:10A3A00003AE04460D4645EC104B32460221042014
:10A3B00039F054FF48A3D3E900232046294643F04F
:10A3C000E9FD47A3D3E9002343F09CFF44F04AFA98
:10A3D0006428A8BF642020EAE0735A4A0096182136
:10A3E00005A845F011FE05A845F001FF05A982B2B8
:10A3F0004D482EF0D9F91FE69DF82D30532B0CBF98
:10A40000062005200BAB1844182111F0BDFE0028D2
:10A41000B5D14D4944480D222EF0C6F90CE64B4DFE
:10A420002B7803F0FF07002BB0D19DF82D30532B74
:10A430003ED00DF131042046182111F0A5FE002870
:10A44000E7D021463E46424B424C18221846267021
:10A4500045F0E7FE0021012201762A70ECE53B7809
:10A46000002B93D13C4B1D78002D8FD19DF82D30C2
:10A47000532B27D00DF131042046182111F084FE12
:10A480000028C6D021462E46344C354B354D1E7023
:10A490001822204645F0C5FE334E34483449002387
:10A4A0000122338023762B7003700A703A70C3E563
:10A4B0000DF132042046182111F066FE0028A8D0C4
:10A4C0002146C0E70DF132042046182111F05CFE50
:10A4D00000289ED02146D7E76666666666660A4013
:10A4E000721CC7711CC75B40603B0700683B0700DC
:10A4F000703B0700783B0700883B0700903B070054
:10A50000A43B0700AC3B0700C43B0700CC3B070063
:10A51000D43B0700DC3B0700E43B07009E90002093
:10A5200044800020803B070098E40020E06B00207E
:10A53000FC3A0700FC920020F96C0020983B0700D1
:10A5400024F50020EC3B0700B43B0700A09200205C
:10A55000C4920020287D002029E10020E092002004
:10A56000297D00203380002094900020DD9200207F
:10A5700034800020386B0020124B13490122002048
:10A5800030B45A600325DA600424C3F8040541F2AC
:10A590008830C3F80855C3F810454FF48035C3F828
:10A5A000400560244FF08060C3F80022C3F80453D4
:10A5B00081F81A43C1F880010860044930BC0A7070
:10A5C0001A60704700A0014000E100E0116D00201A
:10A5D00070B5304C304D314882B011F0FBFD40F287
:10A5E0004C43032201212E48C4F800561DF0A2F965
:10A5F0002C4BC4F8005640F24C461978284840F2DB
:10A600004C4303221DF030FF33460322042124482B
:10A61000C4F800561DF062FAC4F800560323002265
:10A6200001211F4800961DF09BFAC4F80056032331
:10A63000012200211A4800961DF092FAC4F8005633
:10A64000032302220021164800961DF089FA0323F5
:10A650001A46C4F800560021114800961DF080FAF1
:10A66000C4F80056032300210D48009606221DF071
:10A6700077FA0D4BC4F80056197809B102B070BDD5
:10A680003346032206481DF08FFDC4F8005602B081
:10A6900070BD00BF000001403546526E006D0020C5
:10A6A00070FF00202C6200202D620020104A114B08
:10A6B000114810B50021114C11704FF47A621960E5
:10A6C000216044F0ABFD0E48037C6BB90D4C3BF0B0
:10A6D000DFFE2068022112F0CFFE08B100232360C4
:10A6E000BDE810403BF0DEBE103024F09BFBEDE7F0
:10A6F000E00501202CF500207CE500201CF5002061
:10A70000EC01012020E200202DE9F0430024BDB03F
:10A71000374B049401464FF47A75224607A8ADF8EA
:10A720001C408DF81E400595039324F0B9FD20B917
:10A73000002528463DB0BDE8F0832E494FF48062E5
:10A7400007A824F00DFE064607A824F06BFBB6F51B
:10A75000806FEDDB284E009502A9019125480294F7
:10A76000334610AA4FF4806111F0E6FA054600283E
:10A77000DFD0224BDFF89880214FDFF8989010A9A6
:10A780001846172245F04DFD03461F22404616A9E4
:10A79000DC7545F046FD88F81F403846DFF87880C4
:10A7A0001F221EA945F03DFDFC770F22154F26A95B
:10A7B000484645F036FD0F222AA9404689F80F4049
:10A7C00045F02FFD0F2238462EA988F80F4045F09E
:10A7D00028FD029A0C4BFC731A6012B1013A56F82C
:10A7E00022200A4B28461A603DB0BDE8F08300BF26
:10A7F0005C4D07009CC400207CE50020E8E20020BE
:10A80000C8E2002020E300201CF500202CF50020E9
:10A8100000E3002030E30020B8E2002070B50C4EC9
:10A8200005463BF035FE3068294612F00DFE044621
:10A8300020B93BF037FE3368204670BD29463068AA
:10A8400012F012FE30603BF02DFE204670BD00BFBE
:10A8500020E2002030B5254B1C788BB004BB0546A8
:10A860000320FFF7DBFFD8B12149ADF8044001A870
:10A8700023462A468DF8064024F00AFDB8B11C494B
:10A88000ADF804402A46012301A88DF8064024F0C3
:10A89000FFFCF8B91749184807222DF085FF0BE097
:10A8A0001649154804222DF07FFF0BB030BD144926
:10A8B000114809222DF078FF124C3BF0E9FD206889
:10A8C000032112F0D9FD08B1002323603BF0EAFD1B
:10A8D0000BB030BD01A825F033FE0028DAD00A49BC
:10A8E000054807222DF060FFE6E700BF29E10020C0
:10A8F00050660020F83B070098E400202040070045
:10A90000543B070020E20020003C070010B5084C33
:10A9100082B001903BF0BCFD2068019912F0ACFDC3
:10A9200008B10023236002B0BDE810403BF0BABD7F
:10A9300020E20020F8B51649164C174A174F184E5A
:10A94000184D194800233B70337023700B70174C5F
:10A9500013701749174A2B70174D236013600B8033
:10A96000164C1749027C2B604FF0FF3525600B8099
:10A970004AB9144C237803B9F8BD0320FFF7C6FF8A
:10A9800000232370F8BD103024F04CFAF1E700BF2B
:10A99000FB6C0020DD6B0020FA6C0020A5B30020CA
:10A9A000456B0020A4B3002020B3002040C4002049
:10A9B00044C40020E06B0020207D0020B86000200F
:10A9C000386B0020FEB3002008B5082209490A4868
:10A9D0002DF0EAFEFFF7AEFFC82039F061FCFF2141
:10A9E0000020FCF787FC57210020FCF781FCFCF7D6
:10A9F00069FC00BF083C070098E400202DE9F04303
:10AA0000394B3A4E3A491C683A4B3B4F0128BDB08E
:10AA10000ABF374688469846002C4CD1054603208D
:10AA2000FFF7FCFE002846D0344B354A354E3649F8
:10AA30000194012D18BF1A4604A823464FF47A75D5
:10AA4000ADF810408DF812400295009624F020FCDD
:10AA50009DF81030002B39D0DFF8B49002E011A837
:10AA600024F0E0F9002204A911A8CDE90E45ADF8C3
:10AA700044408DF846400D9624F030FF9DF8443058
:10AA80000BB313F0D00FEAD11AA9402211A826F077
:10AA90007BF91AAB2AA83A46462145F0B5FA431E7F
:10AAA000442BDCD882B22AA948462DF07DFE0A202C
:10AAB00039F0F6FBD3E7154915480C222DF074FE4A
:10AAC0003DB0BDE8F08304A824F0ACF90320FFF703
:10AAD0001DFF404645F08BFB414682B20C482DF0ED
:10AAE00063FE3DB0BDE8F08320E20020283C070073
:10AAF000203C0700343C0700143C0700D84E0700F8
:10AB0000385307005C4D0700506600203C3C0700AE
:10AB100098E400202DE9F0473B4B1C68ADF5287DFB
:10AB200024B90320FFF77AFE054640B93749384873
:10AB300004222DF039FE0DF5287DBDE8F08723466F
:10AB4000344E354A354904944FF47A7707A8ADF866
:10AB50001C408DF81E400597039624F099FB9DF844
:10AB60001C30002B4BD0DFF8C090DFF8C0802C4F9A
:10AB700002E014A824F056F900224FF47A7307A9D2
:10AB800014A8CDE91062ADF850208DF85220129330
:10AB900024F0A4FE9DF8504014B314F0D004E8D182
:10ABA0000DF1740A51464FF4807214A826F0ECF8A7
:10ABB0001B9A0192002D14BF4B4643463A464FF470
:10ABC0009671CDF800A05DA845F01EFA5DA982B28D
:10ABD0000F482DF0E9FD0A2039F062FB2546C8E751
:10ABE00007A824F01FF90320FFF790FE0D4908483D
:10ABF00003222DF0D9FD0DF5287DBDE8F087032057
:10AC0000FFF784FE92E700BF20E20020204007000B
:10AC1000D0E300205C4D0700683A07005066002032
:10AC2000503C07005C3C0700B46507004C3C070043
:10AC3000F0B52E4E337C8FB00446002B51D103204B
:10AC4000FFF7ECFD002845D000272246284C294973
:10AC500001943B464FF47A7505AC05A8039502971D
:10AC6000ADF814708DF8167024F012FBA446BCE801
:10AC70000F00214D029C74600FC5BCE80F000FC58A
:10AC8000DDE90321337CDCF800002860C6E90221FD
:10AC9000B3B11A48F36A1A4A1A49036001201760CF
:10ACA0000870194A202101A845F0AEF901A845F025
:10ACB0009EFA01A982B215482DF076FD0FB0F0BDC5
:10ACC0000320FFF723FE1249104805222DF06CFDEA
:10ACD0000FB0F0BD0F490D4804222DF065FD0FB0F7
:10ACE000F0BD06F1100024F09DF8A8E7E8E0002090
:10ACF0005C4D070050660020F8E000201CE10020B9
:10AD0000E0E0002029E10020603C070098E40020FA
:10AD1000343B0700204007002DE9F04F1F4C85B061
:10AD200004F26C4980464F4604F2444BA246032588
:10AD300001AEFF220023CDF80880ADF80420039374
:10AD400096E80E00384627F0BDFA94F87E34134892
:10AD5000C4F8689401223946BBB926F0C7FA60B13D
:10AD6000584624F05FF80E48514624F0DBFA60B1F3
:10AD70000C4B1C6005B0BDE8F08F03460246394617
:10AD8000064826F0B3FA0028EAD1642039F088FAA0
:10AD9000013DCED1284605B0BDE8F08F50660020B9
:10ADA000946A0020643E012010B52048204A037CAC
:10ADB000002111705BBB1F4A1F4B002414701C70D4
:10ADC000FFF7B8FD1D4A1E4B1E48147021461C702B
:10ADD0002CF0F4FE1C482FF0CFFEF8B919482CF0E7
:10ADE000B3FF194800212FF09DFE174800212FF0D6
:10ADF0009DFE01210C203CF0A9FD1449144A154880
:10AE00000023BDE810400B701370FFF785BF1030B2
:10AE100024F008F80320FFF779FDCCE70A482FF06B
:10AE2000DFFE014608482FF0C5FED7E7E8E0002026
:10AE3000DCE0002029E1002096900020F96C002041
:10AE40009E9000200C510120CC4A0120E4E000201B
:10AE500028E1002080841E00F0B5244D244F0023FB
:10AE600087B028463B70FFF757FF044610B12046D5
:10AE700007B0F0BD1F4E0495FF230590ADF80C30D0
:10AE800006F26C4506AB13E90E00284627F01AFAC5
:10AE900096F87E34C6F86854002BE8D1D6F86C34A6
:10AEA00028469B6998470028E1D0D6F8681401919C
:10AEB00023460122304626F019FA019960B10E4866
:10AEC00023F0B0FF0B4901F2444024F02BFA50B1BB
:10AED0000A4B04461E60CAE723462246304626F047
:10AEE00005FA0028EBD101233B70C0E780841E00E7
:10AEF000E105012050660020946A0020643E012094
:10AF000010B58AB000231A4A1A49ADF8043001A8D6
:10AF10008DF8063024F0BCF960B90446ADF80400A1
:10AF2000134A15498DF80640012301A824F088F83A
:10AF3000044658B10023114A0E49ADF8043001A867
:10AF40008DF8063024F0A4F9044610B120460AB06A
:10AF500010BD0A4A0849ADF8044001A801238DF844
:10AF6000064024F06DF8012420460AB010BD00BF51
:10AF7000D84E070050660020946A0020385307001E
:10AF80002DE9F04F3C4D3D4E95F800C016F80C30C1
:10AF90008DB05BB302ABDFF8FCA0DFF8FC90DFF80C
:10AFA000FC80DFF8FCB001930AEB0C130FCB019C83
:10AFB00019F80CE058F82C7084E80F008CF00100B0
:10AFC00000232870714606AA2046CDE90633CDE954
:10AFD0000833CDE90A3306F80C3012F0C1FA58B93B
:10AFE00095F800C016F80C30002BDDD1244B1B78EF
:10AFF0002BBB0DB0BDE8F08F0DF1180EBEE80F00B1
:10B00000DFF8A0C01F4CACE80F009EE803004CF82E
:10B01000040B1D488CF8001001230370BDF82A10A2
:10B0200027603A46584612F02DFB95F800C016F8F6
:10B030000C30002BB8D1124B1B78002BD9D039F033
:10B0400023F9114B1A78034692B9024647F22F5161
:10B050008A42CED90D4C22689A1A8A42C9D90C4824
:10B0600023602EF009F9002109482EF0E3F8C0E72B
:10B07000044A1268821AE9E71C6B0020FCB3002026
:10B0800036800020A0B30020F86C0020986B0020D0
:10B0900068510120FCB200201CB3002098B30020AE
:10B0A00034C40020206B002070B5144C237813B9F1
:10B0B0009FED130A70BD134D2E6839F0E5F8014677
:10B0C000304612F0C9FA0028F2D023781BB90E4B93
:10B0D00093ED000A70BD2C6839F0D6F80146204681
:10B0E00012F0BAFA0028F2D039F0CEF8014607483B
:10B0F00012F0D2FA0028EAD1DAE700BFF86C00209B
:10B100000000C07FA0B30020206B002034C40020CA
:10B1100070B5144C237813B99FED130A70BD134D0D
:10B120002E6839F0B1F80146304612F095FA002841
:10B13000F2D023781BB90E4B93ED010A70BD2C6839
:10B1400039F0A2F80146204612F086FA0028F2D023
:10B1500039F09AF80146074812F09EFA0028EAD121
:10B16000DAE700BFF86C00200000C07FA0B3002029
:10B17000206B002034C4002070B5144C237813B920
:10B180009FED130A70BD134D2E6839F07DF801460E
:10B19000304612F061FA0028F2D023781BB90E4B2A
:10B1A00093ED020A70BD2C6839F06EF80146204616
:10B1B00012F052FA0028F2D039F066F8014607483A
:10B1C00012F06AFA0028EAD1DAE700BFF86C002032
:10B1D0000000C07FA0B30020206B002034C40020FA
:10B1E0002DE9F04F9A4C9B4A94F828302DED0A8BAC
:10B1F0000021ADF5277D1170002B00F08980964D60
:10B200002E68002E00F0E280944B94ED042A197809
:10B21000D4ED052A94ED000B94ED021B002940F0BB
:10B22000EC8030468DED121B8DED100BCDED152A07
:10B230008DED142A1EF004FB9DED121B9DED100BED
:10B24000DDED152A9DED142A28681EF00DFC94F8FA
:10B250002830002B5CD0824B1B78002B46D0814BD2
:10B260001B78002B42D0804E3378002B59D02069B8
:10B2700042F0F0FF02460B46A06943EC182B42F067
:10B28000E9FF02460B466069676A43EC1A2B42F0FD
:10B29000E1FF6DA3D3E9002343F034F894ED00CB34
:10B2A00094ED02BB56AD41EC190B284685ED089B89
:10B2B00085ED048B85ED06AB85ED00CB85ED02BBFE
:10B2C000AF6211F099F9002840F0E080674D38F046
:10B2D000DBFF2A6842F21073801A984206D938F0D0
:10B2E000D3FF034662482B6024F090FB6069614CF9
:10B2F00042F0B0FF54A3D3E9002343F003F843F036
:10B30000F9FA20600DF5277DBDEC0A8BBDE8F08FC2
:10B31000534B1B78002BE9D0524B1B78002BE5D008
:10B32000514E3378002BE1D194F82930002BDDD039
:10B33000514D38F0A9FF2B68C01AB0F57A7FD5D3EC
:10B3400038F0A2FF034601202B60FFF767FA0028C0
:10B35000CCD094F82F2094F82E3094F8310094F843
:10B3600030100291CDE900320390444FA38D444A3E
:10B37000502166A844F048FE66A907F1100040F28B
:10B38000016223F08DFF3B7C002B00F0DA8156AD8B
:10B39000284640220A2143F041FF07F110084FF4EC
:10B3A00080673F2F3A462946404640F2A08140221E
:10B3B00024F090FB402840F0C181403FF1D1314959
:10B3C0002E4837F0D1FF012333708FE72E4D2E68C2
:10B3D000002E3FF440AF214B197849BB304622F094
:10B3E000DDFC94ED021B94ED000B2868D4ED052ADA
:10B3F00094ED042A22F028F829E794F83110A38E5E
:10B4000094F8322094F83000CDED152A8DED121B02
:10B410008DED100B8DED142A10F076FF9DED100BC5
:10B420009DED121B9DED142ADDED152A0146F8E66F
:10B4300094F83110A38E94F8322094F8300010F074
:10B4400063FF0146CAE700BF0B410E4A9869F23F0D
:10B45000F0E4002028E500201CE200203CE500206C
:10B46000F005012040E30020E205012028F500203E
:10B4700038E2002070E5002030F5002028E20020AE
:10B48000A83C0700C83C0700080601203AAA08218A
:10B49000B0EE4C0AF0EE6C0A012038F0DFFEB0EEA0
:10B4A0004B0AF0EE6B0A40AA0821012038F0D6FEC4
:10B4B000B0EE4A0AF0EE6A0A012117AA084638F0EF
:10B4C000CDFEB0EE490AF0EE690A32AA022101204F
:10B4D00038F0C4FEB0EE480AF0EE680A36AA02213F
:10B4E000012038F0BBFEE06942F0B4FE1AAA41EC3C
:10B4F000100B0221012038F0B1FE206A42F0AAFEB2
:10B500001DAA41EC100B0221012038F0A7FE8F4B41
:10B51000186842F09FFE20AA41EC100B0321012085
:10B5200038F09CFE8A4B186842F094FE23AA41EC46
:10B53000100B0321012038F091FE864B186842F071
:10B5400089FE26AA41EC100B0321012038F086FE6B
:10B55000FFF7AAFD10EE109AFFF7DAFD10EE10AA21
:10B56000FFF70AFE09F0FF42B2F1FF4F10EE10BAEA
:10B5700000F0C380484642F06DFE0DF1A40941EC95
:10B58000100B012108464A4638F068FE48460B2158
:10B5900011F0C8F8002800F0B7800AF0FF42B2F1BD
:10B5A000FF4F00F0C080504642F054FE0DF1B00A4B
:10B5B00041EC100B01210846524638F04FFE504630
:10B5C0000B2111F0AFF8002800F0B4800BF0FF421F
:10B5D000B2F1FF4F00F09C80584642F03BFE0DF167
:10B5E000BC0B41EC100B012108465A4638F036FEE0
:10B5F00058460B2111F096F8002800F090803AABE5
:10B600004C9340AB4D9317AB4E9332AB4F9336AB4D
:10B6100050931AAB51931DAB529320AB539323AB72
:10B62000549326AB0DF59878559358F8040B1421D4
:10B6300011F078F800283FF449AEA845F5D1464B03
:10B640001B78002B3ED10020014646AA182310F09B
:10B6500075FF424B424D1A68089226A90B9123A907
:10B660000A9120A909911DA907911AA9069136A945
:10B67000059132A9049140A903913AA9029117A911
:10B68000CDE90071CDE90C9A4FF48071354ACDF8BF
:10B6900038B046AB66A844F0B7FC66A9284637F038
:10B6A000D3FE00287FF412AE2F4A2B7C107030702E
:10B6B0000BB1FDF74DFD2D4823F0B4FB0120FFF742
:10B6C00025F903E694F8322094F83130A08DA18E4C
:10B6D0000291CDE9003200F5FA6094F8303094F828
:10B6E0002F2094F82E1080B210F020FEADE724F049
:10B6F000F1F9B84222D1403F53E6C9F31603002BBB
:10B700003FF438AF0DF1A409194BC9F8003044E7F4
:10B71000CBF31603002B3FF45FAF0DF1BC0B144BC2
:10B72000CBF800306BE7CAF31603002B3FF43BAFB6
:10B730000DF1B00A0E4BCAF8003047E70B4823F072
:10B7400071FB0120FFF7E2F8D0E500BFD4DC002058
:10B75000D8DC0020DCDC00203CE5002010060120C5
:10B7600028E20020783C070040E3002038E2002077
:10B770006E616E000D4B1B780BB9002070470C4BAF
:10B7800010B51C6838F080FD0146204611F064FFBA
:10B7900048B138F079FD0146064811F07DFF80F090
:10B7A0000100C0B210BD002010BD00BFF86C002029
:10B7B000A0B3002034C400202DE9F043B84EB94DA9
:10B7C00033782A789A42A1B0D8B200F28B812B78D4
:10B7D000C31ADBB2002B00F02B812978B24A01F0AA
:10B7E0000F01012B52F82110009100F08D80297873
:10B7F000013101F00F01022B52F82110019100F0EC
:10B8000083802978023101F00F01032B52F82110B7
:10B81000029179D02978033101F00F01042B52F8FD
:10B820002110039170D02978043101F00F01052B0C
:10B8300052F82110049167D02978053101F00F01E9
:10B84000062B52F8211005915ED02978063101F0BF
:10B850000F01072B52F82110069155D02978073196
:10B8600001F00F01082B52F8211007914CD02978D4
:10B87000083101F00F01092B52F82110089143D033
:10B880002978093101F00F010A2B52F82110099192
:10B890003AD029780A3101F00F010B2B52F8211010
:10B8A0000A9131D029780B3101F00F010C2B52F89D
:10B8B00021100B9128D029780C3101F00F010D2BAC
:10B8C00052F821100C911FD029780D3101F00F0191
:10B8D0000E2B52F821100D9116D029780E3101F05F
:10B8E0000F010F2B52F821100E910DD029780F3136
:10B8F00001F00F01102B52F821100F9104D02B787A
:10B9000003F00F0352F82330DFF8B4C1DFF8CCE1C5
:10B910009CF800402870013BDBB201AA02EB8307D0
:10B92000DEF80000614A6B46002C40F0F48010788D
:10B9300000F0FF01002840F0A98018680C4604338D
:10B94000BB421ED092F800801968B8F1000F40F099
:10B95000A080DFF88C81D8F80090A1EB0008C145E9
:10B9600000F292805248804500F28E8020A800EBC1
:10B97000840904330134BB42084649F8408CE4B2E0
:10B98000E0D10123CEF800008CF80030002C4FD01D
:10B99000012C109B39D9119A022C134435D0129ADC
:10B9A000032C134431D0139A042C13442DD0149A31
:10B9B000052C134429D0159A062C134425D0169A29
:10B9C000072C134421D0179A082C13441DD0189A21
:10B9D000092C134419D0199A0A2C134415D01A9A19
:10B9E0000B2C134411D01B9A0C2C13440DD01C9A11
:10B9F0000D2C134409D01D9A0E2C134405D01E9A09
:10BA00000F2C13441CBF1F9A9B1807EE903A07EEA9
:10BA1000104A284AF8EE677AB8EE470AD2ED000AD3
:10BA200087EE800A11F0DEFE2348214611F0AAFEBF
:10BA3000224B1A781AB1224900220A701A70214A40
:10BA4000214B1468DB68D90103D5204B1A68D20753
:10BA50004ED439F031FE1E4B1E4AA0FB0301830A6F
:10BA600043EA81531B1B934248D8134A1A4BD2ED29
:10BA7000007AB6EE007A77EE877AFDEEE77AC3EDCC
:10BA8000007A21B0BDE8F083084658E718681470C2
:10BA900055E74FF00008084682F800804FE700BFE6
:10BAA000540601205606012014060120D060002013
:10BAB00080841E00C8600020BC6000205506012064
:10BAC000F99200200C060120F0ED00E0001000E0EB
:10BAD00040420F0020A107001006012088800020AE
:10BAE000CC6000202A7800F110039B1ADBB271E6CB
:10BAF0005B680A4A9B091B1B9342B6D9084811F0A0
:10BB000039FE084B084A0121197033780021DBB255
:10BB10002B701170A9E7002414E700BF20A10700D3
:10BB2000BC600020D0600020F992002038B5234D81
:10BB30002C782CB94FF08043D3F83834DB0701D48C
:10BB4000204638BD0520FEF769FE0028F8D01C48C5
:10BB5000FFF7E2F810B91B48FFF7DEF81A4BD3F8ED
:10BB6000680403689B699847024600B34FF400736A
:10BB70001648002127F08AFA14480122002127F0F4
:10BB80008DFA124827F09CFA044658B1104827F065
:10BB900025F8322038F084FB0D4827F021F80123E6
:10BBA0002B70CDE702460146084827F077FA054892
:10BBB000FFF7B2F80520FEF7A9FEC1E7B239012070
:10BBC00000127A0080841E0050660020A8B3002076
:10BBD0008C3E0120002238B51148124D114627F045
:10BBE0005DFA38F051FB044608E038F04DFB2B6855
:10BBF000C01A632808D8052038F052FB38F044FBFF
:10BC0000001BB0F57A7FF0D3074BD3F868040368C4
:10BC1000DB699847322038F043FBFBF753FB00BF4A
:10BC2000A8B30020147D0020506600202DE9F843C1
:10BC30000B8D0C464FF6FF718B42054610D0226AE1
:10BC40008380D90902EBC10203F07F03526802EB43
:10BC5000C30132F83330016023852846BDE8F883FC
:10BC60001646A28C002A30D1E38C002B00F089808C
:10BC70000123276ADFF87491A3844FF480604FF0AA
:10BC8000800833681B684B4577D138F025FBA38CBF
:10BC9000246A7860013B9BB204EBC30100284A6828
:10BCA00008BF4FF000080020A7F80080788022B17C
:10BCB00034F83340488884422CD800224FF6FF7372
:10BCC0002A60AB802846BDE8F883276A531E9BB2E2
:10BCD00007EBC30CBE46DCF8040028B1BCF8021028
:10BCE00037F8338088451ED8E38C9A4227D0DFF896
:10BCF000FC90531C9BB2B3F5007F0EEBC207A384EC
:10BD000015BF4FF480604FF47E704FF080084FF005
:10BD10007F08B6E702EBC00200EBC31301302A60D4
:10BD2000AB80488099E700EBC10001EBC313013100
:10BD30002860AB80ACF802102846BDE8F883B3F564
:10BD4000007FBAD05B00A7421FFA83F833681AD08D
:10BD500025489B6883424FEAC8013AD1384644F0EF
:10BD60003BF98646BEF1000FA7D0DFF88090A28C89
:10BD7000C4F820E0A4F82680BBE701463046984787
:10BD800085E7276ADEE7DFF864901B684B454FEADA
:10BD9000C80024D138F0A0FA8646BEF1000F8CD03E
:10BDA00021686268A368E068CEF80C00CEF8001045
:10BDB000CEF80420CEF8083021696269A369E069F1
:10BDC000CEF81C00CEF81010CEF81420CEF81830A3
:10BDD000CDE70A463046394698478646C2E70146CF
:10BDE000304698478646D8E7097602001976020061
:10BDF0002DE9F04F80468B4658F8043B98E8070041
:10BE000093F83C4093B006AF0DF12409202C87E84D
:10BE1000070089E8070062D10CAC84E8070094E8C9
:10BE200007000FAC84E8070000900446002856D0B5
:10BE30001D8F4FF6FF72954251D0DB6AE90903EB83
:10BE4000C10105F07F05496811EBC50547D0109980
:10BE5000EE880292481E22184FF0010A2C460395E4
:10BE600004963546CDF8148001921E468846BAF1F4
:10BE7000000F11D1029B9D4231D0E80906EBC000B2
:10BE800005F07F05446814EBC50428D08AF0010A48
:10BE9000E588BAF1000FEDD0207904283CD00528C0
:10BEA00036D002281FD0B8F1000FE3D12A464FF652
:10BEB000FF718A423346DDF81480DDE903560ED067
:10BEC000D00903EBC00002F07F02416811EBC20110
:10BED00005D00A79111F012925D9022A23D05846F5
:10BEE00013B0BDE8F08F204644F081F94045C1D140
:10BEF000B8F1000FDAD0009B013C581E10F8012F5A
:10BF000014F8013F9A42B5D1019B8342F6D1CDE7A7
:10BF10002468E0880834E9E724682046002CE5D04E
:10BF200044F065F9E2E798E807000CAC84E8070004
:10BF300087E8070089E8070094E807000FAC84E869
:10BF40000700804600283ED0109C671E0744BB4671
:10BF5000274654464FF6FF799A467CB94E4532D073
:10BF6000F3090AEBC30306F07F065D6815EBC6050F
:10BF700029D084F00104EE88002CEFD02B79042B1B
:10BF800027D0052B3ED0022B38D0002FE6D14FF61C
:10BF9000FF729642534616D0F20903EBC20306F035
:10BFA0007F065A6812EBC60B99D09BF80430042B1D
:10BFB0002CD0052B2DD0022B18BF4FF0000B58466C
:10BFC00013B0BDE8F08F4FF0000B584613B0BDE83A
:10BFD000F08F2D6828460DB144F009F9B842BDD163
:10BFE000002FD4D0681E08F1FF3313F8011F10F89A
:10BFF000012F9142B2D15B45F7D1C8E7284644F002
:10C00000F6F8EBE72D68E8880835E7E752F836B030
:10C0100065E752F8363003F1080B60E72DE9F04789
:10C02000056804460E46002972D0084644F0DFF841
:10C030008046002D58D02B79202B55D1002E53D07F
:10C040002B884FF6FF77BB424ED06268D2F82C9017
:10C05000D90909EBC10103F07F024B6813EBC2035E
:10C0600042D04FF0010ADD88BAF1000F10D1BD4275
:10C070003AD0EA0909EBC20205F07F05536813EBD9
:10C08000C50331D08AF0010ADD88BAF1000FEED085
:10C090001A79042A35D0052A2ED0022A27D000206A
:10C0A00004468045E3D1B8F1000F0BD0721E631E29
:10C0B00002EB080112F8014F13F8010F8442D6D1A8
:10C0C0008A42F7D14FF6FF739D420DD0EB0909EB81
:10C0D000C30905F07F05D9F8040000EBC505281E4B
:10C0E00018BF0120BDE8F0870020BDE8F0871846A2
:10C0F0001C4644F07CF8D4E71B68D88803F1080498
:10C10000CFE71C682046002CCBD044F070F8C8E77D
:10C1100088468EE7000000008368002B00F0F68060
:10C120001A79402A40F0F2802DE9F04F1B884FF633
:10C13000FF77BB428FB01CD0D0E90324D56ADA095F
:10C1400005EBC20203F07F03526812EBC30310D069
:10C15000DA881CB912E0013CDA880FD0D109BA4262
:10C1600005EBC10102F07F0603D04B6813EBC60359
:10C17000F1D19FED950B0FB0BDE8F08F143007C8DB
:10C180001E7901AC84E80700202E04AC84E8070087
:10C19000EFD194E8070007AC84E807000AAC84E814
:10C1A000070082460028E4D018884FF6FF77B8428F
:10C1B000DFD0C20905EBC20200F07F03506810EB2C
:10C1C000C300D6D0DDF82C90C68809F1FF384FF0B7
:10C1D000010BD044BBF1000F10D1BE42C9D0F2090F
:10C1E00005EBC20206F07F03506810EBC300C0D01D
:10C1F0008BF0010BC688BBF1000FEED00279042A48
:10C200007DD0052A77D0022A60D0B9F1000FE4D1A1
:10C210004FF6FF708642ACD0F20905EBC20206F081
:10C220007F03576817EBC301A3D00A7912F01004FB
:10C230000CD037F83340844200F0C180E00905EBB0
:10C24000C00504F07F006C6804EBC004023A1C2AAD
:10C250008FD801A050F822F017C3020073C102006A
:10C2600013C3020095C302005FC3020073C1020042
:10C2700073C1020073C102006DC3020073C10200EA
:10C280007BC3020073C1020089C3020073C10200B4
:10C2900073C1020073C1020073C1020073C10200C6
:10C2A00073C1020073C1020073C1020073C10200B6
:10C2B00073C1020073C10200A3C3020073C1020074
:10C2C000B1C3020073C102009DC30200044643F0E3
:10C2D0008EFF484581D1B9F1000F99D0601E0AF157
:10C2E000FF3212F8014F10F8011F8C427FF475AF36
:10C2F0009045F6D18CE70468E0880834E9E70468E3
:10C300002046002CE5D043F072FFE2E79FED2E0BB4
:10C31000704757F833100AA8FCF7D6FC9DF8283070
:10C32000013B032B3FF625AFDFE803F0130C0502BA
:10C330009DED0C0B1FE7DDE90C0141F0ADFF41EC79
:10C34000100B18E7DDE90C0141F0AEFF41EC100BDA
:10C3500011E70C9841F07EFF41EC100B0BE717F84A
:10C36000330041F055FF41EC100B04E757F8330060
:10C3700041F04EFF41EC100BFDE657F8330041F061
:10C3800057FF41EC100BF6E6086841F063FF41EC03
:10C39000100BF0E657F833100831BCE794ED000BB2
:10C3A000E9E6D4E9000141F077FF41EC100BE2E649
:10C3B000D4E9000141F078FF41EC100BDBE60024EA
:10C3C00044E700BFAFF30080000000000000000061
:10C3D0002DE9F04F00F10C02034607CAD3E90146EC
:10C3E0008FB001AB83E80700002C74D093E80700FE
:10C3F000257904AB202D83E807006CD107AB0AAF89
:10C4000083E8070087E807008246002863D0208879
:10C410004FF6FF7840455ED0D6F82C90C20909EB64
:10C42000C20200F07F03506810EBC30053D04FF0FE
:10C43000010B0B9EC588BBF1000F10D145454AD0BA
:10C44000EB0909EBC30305F07F05586810EBC50045
:10C4500041D08BF0010BC588BBF1000FEED0037902
:10C46000042B56D0052B50D0022B39D0002EE5D10D
:10C470004FF6FF7085422ED0EB0909EBC30305F0A0
:10C480007F055C6814EBC50125D00B7913F0100211
:10C490000DD034F83520824200F09780D00909EBA6
:10C4A000C00902F07F00D9F8042002EBC002023B71
:10C4B0001C2B10D8DFE803F0360F34595D0F0F0F37
:10C4C000640F6B0F720F0F0F0F0F0F0F0F0F0F0F68
:10C4D000780F7F0F86009FED3E0B0FB0BDE8F08F09
:10C4E000044643F084FE8642A8D1002EC0D00AF153
:10C4F000FF33601E9A1901E09A42B9D013F8014F38
:10C5000010F8011F8C42F7D098E70468E0880834DF
:10C51000E9E70468002CA9D0204643F068FEE2E772
:10C5200054F835103846FCF7CFFB9DF82830013B16
:10C53000032BD0D8DFE803F0130C05029DED0C0BA4
:10C54000CBE7DDE90C0141F0A7FE41EC100BC4E79D
:10C55000DDE90C0141F0A8FE41EC100BBDE70C98A1
:10C5600041F078FE41EC100BB7E754F83510083174
:10C57000D8E714F8350041F04BFE41EC100BACE766
:10C5800054F8350041F044FE41EC100BA5E754F897
:10C59000350041F04DFE41EC100B9EE7086841F07C
:10C5A00059FE41EC100B98E7D2E9000141F074FE0E
:10C5B00041EC100B91E7D2E9000141F075FE41EC2E
:10C5C000100B8AE792ED000B87E700226FE700BFB0
:10C5D00000000000000000002DE9F04F85B004AC21
:10C5E00004E90E00DDF80480B8F1000F47D00088A0
:10C5F0004FF6FF76B04242D00E9BD3F82C90C20982
:10C6000009EBC20200F07F03506810EBC30036D084
:10C61000029DB0F806B06F1E4FF0010A4744BAF110
:10C62000000F12D1B3452AD04FEADB1309EBC30345
:10C630000BF07F0B586810EBCB0020D08AF0010A7A
:10C64000B0F806B0BAF1000FECD00379042B31D06A
:10C65000052B2BD0022B16D0002DE3D14FF6FF7304
:10C660009B450CD04FEADB1309EBC3090BF07F0BA2
:10C67000D9F8040000EBCB0005B0BDE8F08F002036
:10C6800005B0BDE8F08F044643F0B1FDA842C9D122
:10C69000002DE3D0601E08F1FF3313F8011F10F8DE
:10C6A000012F9142BED19F42F7D1D7E70468E088BD
:10C6B0000834EBE704682046002CE7D043F097FDF0
:10C6C000E4E700BF2DE9F04184B0064604A800E984
:10C6D0000E003068DDE90187A8B17D1E4544C3889E
:10C6E000BB420DD1002F56D008F1FF33C21D01E02F
:10C6F000AB4250D013F8014F12F8011F8C42F7D013
:10C7000000680028EBD1B7F5803F4AD20A9B2E4A39
:10C710001B681B68934207F1090046D137F0DCFD26
:10C7200000283ED00123C780838000F108054FB365
:10C7300000F10C0108F10402954238BF884507F169
:10C74000FF3336D3072B34D927F003044444434640
:10C750002A4653F8041B42F8041BA342F9D1BA0736
:10C7600027F003030ED018F80320EA545A1C97420E
:10C7700008D9023318F80210A9549F4202D918F8B8
:10C780000320EA54074400233B723368036030609F
:10C7900004B0BDE8F08183880133838004B0BDE834
:10C7A000F081002004B0BDE8F08101460A98984766
:10C7B000B6E74344C21D08F1FF3818F8011F02F81C
:10C7C000011F9845F9D1DDE719760200437DDBB101
:10C7D000037D202B12D8DFE803F01F111111111176
:10C7E000111111151511111511111111111111112D
:10C7F00011111111111111111111150001230373E0
:10C80000002070470023437503695A1C02611B789E
:10C81000037501224275DCE7037B002B14BF022065
:10C8200001207047437DDBB1037D202B12D8DFE868
:10C8300003F01F11111111111111111515111115FD
:10C8400011111111111111111111111111111111D8
:10C850001111150001230373002070470023437555
:10C8600003695A1C02611B78037501224275DCE7DB
:10C87000037B002B14BF0220012070472DE9F04FED
:10C88000437D85B00446002B00F0E280057DDFF893
:10C8900014830022134662750092002B7ED0267D01
:10C8A0000023AE42637500F08380002E00F0D68036
:10C8B0005C2E00F085806768002F6FD0A168FB8830
:10C8C000994200F096800F440131A1603E72637D71
:10C8D000E3E7911C63752161537823756075002B24
:10C8E00000F0BC80402B86BF23F02003A3F137016A
:10C8F000A3F13001C8B20F2800F2A6800021D31C9A
:10C90000617523619178217501236375002900F019
:10C91000A580402986BF21F0200137393039C9B2BE
:10C920000F2900F291800026131D66752361D378CC
:10C930002375012641EA00116675002B00F08E80F8
:10C94000402B86BF23F02003373B303BDBB20F2B5D
:10C950007AD800206075501D20611279227543EA53
:10C96000011301211BB26175002A77D0402A86BFCE
:10C9700022F02002373A303AD2B20F2A64D842EA83
:10C9800003139AB202F5205189B20020B1F5806FED
:10C990001BB2607566D2C2F30903009323695A1C67
:10C9A00022611E7826750023AE4263757FF47DAF49
:10C9B0006368002B14BF0020042005B0BDE8F08F91
:10C9C0002269511C216111782175012060750029AF
:10C9D00044D075293FF47DAF704A2F2302E012F84E
:10C9E000023F8BB38B42FAD156786EB30023637546
:10C9F00061E7D4F800B04900DBF800A001F10109BB
:10CA0000B9F5803FDAF8003011D29B68644A93424E
:10CA100001F10A0138D1384643F0DEFA28B1A0F816
:10CA20000690A168606007464DE7DAF800305B6861
:10CA3000434525D1384637F069FC01238BF8043093
:10CA40000022637D626028E7032005B0BDE8F08F17
:10CA500003695A1C02611D78057518E7022005B0AC
:10CA6000BDE8F08F02F5105189B2B1F5806F10D397
:10CA70007F2A15D8D9B22046FCF76CF8637D0CE705
:10CA8000394650469847D8E70A46504639469847AF
:10CA9000C4E7009BC2F3090242EA832202F5803216
:10CAA00002F03F0363F07F038DF80930C2F38F1368
:10CAB00000211F2B8DF808104FEA92123CD902F08A
:10CAC0003F01931161F07F0113F47C7F8DF80A1010
:10CAD0004BD163F01F03DEB28DF80B6003AB03F1A3
