:020000022000DC
:1070000000000420E503060025040600270406000E
:10701000290406002B0406002D04060000000000D1
:1070200000000000000000000000000061030600F6
:10703000310406000000000081030600350406004C
:107040004106060037040600C9DA05001D3D0400AC
:10705000D53D040037040600A1DD05003704060015
:10706000370406003704060037040600370406001C
:10707000370406003704060037040600370406000C
:1070800037040600B1000600370406003704060086
:107090003704060037040600F947050037040600E8
:1070A0003704060037040600815703003704060042
:1070B000370406003704060000000000000000004E
:1070C000370406003704060037040600290C0600C2
:1070D000370406003704060037040600BDCE04005E
:1070E00037040600370406003704060000000000DD
:1070F000000000003704060000000000A10C06009C
:10710000000000000000000000000000000000007F
:10711000000000000000000000000000000000006F
:10712000000000000000000000000000000000005F
:10713000000000000000000000000000000000004F
:10714000000000000000000000000000000000003F
:10715000000000000000000000000000000000002F
:10716000000000000000000000000000000000001F
:10717000000000000000000000000000000000000F
:1071800000000000000000000000000000000000FF
:1071900000000000000000000000000000000000EF
:1071A00000000000000000000000000000000000DF
:1071B00000000000000000000000000000000000CF
:1071C00000000000000000000000000000000000BF
:1071D00000000000000000000000000000000000AF
:1071E000000000000000000000000000000000009F
:1071F000000000000000000000000000000000008F
:10720000F1EE103A43F08073E1EE103A704700BFA0
:1072100010B5054C237833B9044B13B10448AFF3D0
:1072200000800123237010BD2C65002000000000A9
:107230002444070008B5034B1BB103490348AFF3CF
:10724000008008BD000000003065002024440700D5
:10725000154B002B08BF134B9D46A3F5803A002128
:107260008B460F461348144A121A41F077FD0F4B14
:10727000002B00D098470E4B002B00D098470020E1
:10728000002104000D000D48002802D00C48AFF387
:10729000008041F0A7FC2000290039F0FBF841F004
:1072A0007BFC00BF0000080000000420000000007C
:1072B000000000002C650020946601200000000002
:1072C00000000000BFF34F8F0549064BCA6802F467
:1072D000E0621343CB60BFF34F8F00BFFDE700BFF9
:1072E00000ED00E00400FA0535DF704733DF70473A
:1072F0003CDF70473DDF704741DF704711DF70476B
:1073000012DF70470020704701207047012070474E
:10731000704700BF704700BF704700BF704700BF95
:10732000024B02F001021A70704700BFFB69002097
:1073300038B50446C069444D40F072FD40A3D3E91E
:10734000002340F0D7FD02460B46A069C5E90023A3
:1073500040F066FD3AA3D3E9002340F0CBFD94ED65
:107360000F7AB4F84C30DFED397A9FED395A9FED42
:10737000394ADFED394AF8EEC75A94ED107A06EE35
:10738000103AF8EEC76A94ED0A7AB8EE466AB8EE9B
:10739000477A66EEA76A65EE845A26EE246A27EEDF
:1073A000057AC5ED055A85ED066AC5ED076A85EDD6
:1073B000087AE37DD4ED097A6B62237DF8EEE77AF3
:1073C000012B88BF637DC5E9020167EE857A8CBF1A
:1073D00003F00103002385F82830C5ED047AE27A32
:1073E000A1881E4B1E4802F00702A2F10702B2FA62
:1073F00082F25209A1F5FA61698585F82920A279FE
:1074000085F82C20E27985F82D20227A85F82E2027
:10741000627A85F82F20A27A85F8302021680268E8
:10742000A3FB01439B094FF47A7404FB13130D492A
:107430006B860132012302600B7038BDAFF3008010
:1074400048AFBC9AF2D77A3E90E00020ACC527370F
:107450006F12833AA8C8FE3A0AD7233CD34D621074
:10746000CCE00020C8E00020024B034AC3F800260D
:1074700001207047000001403546526E024B03491F
:10748000C3F8001610467047000001403546526EA2
:107490000AB3C2F308032DE9F0471546A3B9DFF894
:1074A0003C8006460F464FEA52290324D8F8680468
:1074B00003683A46D3F814A031464B46D047013C06
:1074C00030B914F0FF04F1D14FF0FF30BDE8F08780
:1074D0002846BDE8F0874FF0FF3070474865002030
:1074E000704700BF037C13F0080306D0C36A406AEC
:1074F000181A48BF6FF0004070471846704700BF29
:107500002AB3C2F308032DE9F0471546C3B906466E
:107510000F4636F0B1FC0F4BDFF83C8018604FEAA5
:1075200055290324D8F8680403683A46D3F824A000
:1075300031464B46D047013C30B914F0FF04F1D13D
:107540004FF0FF30BDE8F0872846BDE8F0874FF0E8
:10755000FF307047CC7B002048650020103022F0BF
:107560004DB800BF103022F0ADB800BF00B583B0F9
:107570000B4601220DF1070110308DF8073022F083
:10758000A1F803B05DF804FB00B587B00346064AD6
:107590006846182142F0D8FA694682B203482AF0B8
:1075A000FBFE07B05DF804FB48D3060034E0002082
:1075B000103021F087BE00BF00B583B001220DF16D
:1075C0000701103021F0ACFD01280CBF9DF8070029
:1075D0004FF0FF3003B05DF804FB00BF08461146D2
:1075E00042F09ABA084636F089BC00BF084636F029
:1075F0006BBC00BF10B50E4C84B0227801A80921E5
:1076000011F036FB237802332370024670B1094B28
:107610001B7803F0FF004BB1074B1B7803F0FF0012
:1076200023B1064892B201A92AF0B6FE04B010BDFB
:107630004EAF0020FD690020FB690020FC6A00209D
:107640002DE9F0434779402F3946A1B028BF4021AA
:107650009FB30023E9464A469C461F46054603EB76
:107660004304AE7A167000EB84040133247C14F0DA
:10767000080FC4F3C00818BF013782F801805FFA11
:1076800083FE05F10C0502F1020218BFFFB21EB124
:107690000CF1010C5FFA8CFC7145E0D8084B094CE9
:1076A0001F70094A84F800C04846102311F012FEEA
:1076B000064B187021B0BDE8F083BC46E946EDE703
:1076C000F1E00020F0E00020E0E00020DEE000201B
:1076D00010B50C4CD4F868040368DB69984794F83B
:1076E0002430DB0706D400224FF0FF3384F8242037
:1076F000236310BD04F1240024F0B6FC0028F2D16D
:1077000010BD00BF4865002070B58AB01F22014639
:107710000092194802ABFF222BF0B6FB0D2804D8CB
:1077200015482BF097FB0AB070BD0446014602A82D
:1077300011F0FCFE0028F3D0104E11483578102CC3
:1077400028BF1024E4B202A9224600EB051041F044
:10775000DDFAEDB20B4B5C5536F08EFB0A4C0B4A52
:1077600044F82500012185EA01030348515533708F
:107770002BF070FB0AB070BD78440120F369002043
:10778000B4AE0020D4AE002050AF0020B4AF002033
:10779000174BDB68D90110B503D5164B1A68D20711
:1077A0001FD437F081FD144BA0FB0301830A43EA89
:1077B000815312490A6840F6B7309A1A82420FD9AB
:1077C0000F480B6002780F490132097802F00F026E
:1077D000914209D001780C4CC9B244F821300270B2
:1077E00010BD5B689B09E4E7084B01221A7010BDCD
:1077F000F0ED00E0001000E040420F008C0101209D
:10780000D4010120D601012094010120D5010120DD
:1078100010B5034B0360044612F084FE204610BDF1
:107820005CE306000F49097802290AD1F8B50E4E2B
:107830000E4F3578EDB21C467B5D0BB9202C01D97B
:10784000F8BD70470A48114600EB4510224641F04A
:107850005DFA0848E3B24355012185EA01027955F2
:107860003270F8BDDCDC0020FA690020E8BF00209F
:107870000CAF00204CAF002070B5124C124A134BD5
:107880002260002646F660706360C4F8886338F0B2
:1078900041FE0F4B0F4D93ED000B3246214604463F
:1078A0001DF0F6F90C4B2C6093ED000A20461DF0FC
:1078B000B7FD0A4B286893ED000ABDE870401DF043
:1078C000C5BD00BF98D8002054D30600140A070095
:1078D00010610020B8DD0020BC610020B8610020EC
:1078E000F8B51A4B1B78022B044626D0184B194AC0
:1078F00019480027214601261F7016702CF074FFCE
:1079000005462AF0C1FE2846F7212AF0D1FE284676
:1079100002212AF0DDFE3A46394628462AF0D0FEFA
:107920000E4B1E7036F0A8FA0D4B0E4A1C801060EC
:107930002846BDE8F8402AF0A9BE0B4A0B490C4B7B
:1079400010800120002208701A70F8BDDCDC0020D5
:107950004E8C002098DC0020DC3D0120DEDC002085
:10796000D6DC0020D8DC0020C4600020FD690020A7
:10797000FB690020214A13884FF6FF719BB28B42AE
:10798000F0B403D013889BB2984228D01C4B1B78CC
:10799000022B24D01B4B1C481C4F1D4E1D4D1E4C52
:1079A0001E491A7800233B70337003701C482B70FB
:1079B00023701C4D0B701C4C1C49037017202B703E
:1079C000237008801A4B1AB900221A70F0BC704755
:1079D0001A78002AF8D0174A01211170F4E71388A9
:1079E0009BB29842F2D1144C144900234FF6FF7019
:1079F00023701080F0BC0B70704700BFC460002083
:107A0000DCDC002090DC0020958E0020487C0020EB
:107A1000EC7B0020EB7B0020588E0020B16B002017
:107A200098DC0020DDDC0020568C0020D060002097
:107A30004E8C0020B38E0020FD690020FB690020E1
:107A40002DE9F04F4948037CABB0002B40F08A8011
:107A50004748037C002B40F081804648037C002B84
:107A600078D14548037C002B70D10024322036F0B9
:107A70000FFA424E424A43490194234604A84FF468
:107A80007A75ADF810408DF812400295009621F0FD
:107A9000DFFA9DF81000002855D03B4D2B68132BC2
:107AA00049DC3A4FDFF8E88005E011A821F09AF8A8
:107AB0002B68132B3FDC4FF47A73002204A911A822
:107AC0000F930E94ADF844408DF846400D9621F08A
:107AD000FDFC9DF8443040221AA911A85BB322F0A6
:107AE0004BFF9DF8443013F0D00F1AA8DDD142F0BF
:107AF0001EF903461AAA0638062B39461044D4D973
:107B000042F0BAF881460028CFD1D5F800A00AEBA0
:107B10004A0B08EB0B1B1AA92F22584642F021F9F9
:107B20000AF1010311A82B608BF82F9021F05AF86D
:107B30002B68132BBFDD04A821F054F82868002817
:107B4000D4BF002001202BB0BDE8F08F103021F011
:107B500049F88AE7103021F045F882E7103021F02B
:107B600041F87AE7103021F03DF871E784FD0020FC
:107B7000E0DE0020E00101201402012078E306008D
:107B80005CD306004865002074FD002060D3060029
:107B9000B8FD002081682DE9F0470568044669B109
:107BA000284E2B680A685B68A260B34208463DD144
:107BB00036F0A4F9A1680029F3D12568238E04F1D9
:107BC0000C0903B30027E36ADFF878A0B8460BE09E
:107BD00036F094F9E36AC6F80080218EC6F8048076
:107BE0000137BAB291420FD9BEB203EBC606716833
:107BF00008460029EFD02B685B685345E8D028463B
:107C00009847E36AE7E7E36A00214FF6FF72994578
:107C10002186A28607D02A680A4952688A420BD177
:107C2000184636F06BF92046BDE8F087284698479D
:107C3000A1680029B5D1C0E72846194690472046DB
:107C4000BDE8F087E575020081682DE9F047056819
:107C5000044669B1284E2B680A685B68A260B3428B
:107C600008463DD136F04AF9A1680029F3D12568CC
:107C7000238E04F10C0903B30027E36ADFF878A030
:107C8000B8460BE036F03AF9E36AC6F80080218E78
:107C9000C6F804800137BAB291420FD9BEB203EBE5
:107CA000C606716808460029EFD02B685B6853450B
:107CB000E8D028469847E36AE7E7E36A00214FF6F1
:107CC000FF7299452186A28607D02A680A49526820
:107CD0008A420BD1184636F011F92046BDE8F087EC
:107CE00028469847A1680029B5D1C0E7284619461B
:107CF00090472046BDE8F087E57502002DE9F84F72
:107D0000074636F0B9F8314DDFF8CC90DFF8CCB04B
:107D1000DFF8CCA0064645F00105D9F800301C6814
:107D2000204639F029FC03464FF003084FF4FA408F
:107D30006BB9B8F1010F3CD0A847204639F01CFCC4
:107D4000034608F1FF384FF4FA40002BF1D0DBF87E
:107D50000030D3F80080404639F00EFC034603247F
:107D60004FF4FA405BB9012C23D0A847404639F0C4
:107D700003FC0346013C4FF4FA40002BF3D0144BB4
:107D80001B68D3F80080404639F0F6FB0346032415
:107D90004FF4FA405BB9012C0BD0A847404639F0AC
:107DA000EBFB0346013C4FF4FA40002BF3D0BDE857
:107DB000F88F36F061F8801BB842F8D2054B0A20E4
:107DC000C3F800A636F064F8A7E700BFD0F10600BC
:107DD000DC60002000000140D4600020D86000205A
:107DE0003546526E30B5434B434C93F8302093F8F0
:107DF0002E0093F82D1093F82F5095B0049293F81D
:107E00002C20CDE90205CDE9002107A85B8D3B4A76
:107E1000182141F099FE206800284DD01DF0C6FAC7
:107E2000374D03462068002B18BF1D461DF0EEFAA3
:107E300007A923681090002232480D9132490F950E
:107E4000CDE911220E901391002B3FD018461DF062
:107E5000D9FA00283ED120681DF0BEFA002839D09A
:107E600020F06AF823681190002B31D018461DF0DD
:107E7000C9FA00282CD120681DF0AEFA40B320F0DA
:107E8000A9F80446214A224B126800924FF48061FF
:107E90000DAA204812940FF059FF00211E4821F02E
:107EA00047FA1C491C484FF4806221F00BFC1A4829
:107EB00021F0A4FB15B030BD1248114A174B1249EE
:107EC000139107ACCDE90D40CDE90F2300231193A9
:107ED0000024D7E720680028F8D01DF093FA28B1D5
:107EE00020681DF08BFA18B120F078FD2368BAE7FE
:107EF0002368B8E790E00020B8DD002078D30600C2
:107F000068D306009461002074610020B4F0002062
:107F100014E1002054C40020D4DD0020140A07001E
:107F200010B5134C2068B8B11DF06CFAA8B12068E8
:107F30001DF064FA20F050FD0E4A1368B3F57A7F05
:107F40000ADA48B10C490C68844205D00B4C086031
:107F500044F823000133136010BD20681DF03CFA83
:107F60000028F9D020681DF037FA1FF0E3FFE3E79F
:107F7000B8DD0020B4F00020C4F0002014E100209F
:107F80002DE9F047054680682F6860B1284C3B68B2
:107F900002685B68AA60A3422AD135F0AFFFA868E7
:107FA0000028F4D12F682B8E05F10C093BB3002675
:107FB000EB6ADFF87C80B2460BE035F09FFFEB6A9E
:107FC000C4F800A0298EC4F804A00136B2B29142D0
:107FD00016D9B4B203EBC404616808460029EFD097
:107FE0003B685B684345E8D038469847EB6AE7E76B
:107FF000014638469847A8680028C8D1D2E7EB6AFE
:1080000000214FF6FF7299452986AA8607D03A6863
:10801000074952688A4205D1184635F06FFF284655
:10802000BDE8F0873846194690472846BDE8F087F6
:10803000E57502002DE9F047038E8146054659F8A3
:108040000CABFBB10026C36ADFF8A080374609E01D
:1080500035F054FFEB6A2760298E67600136B2B2B3
:10806000914210D9B4B203EBC404616808460029F8
:10807000F1D0DAF800305B684345E9D050469847C4
:10808000EB6AE8E7C36A00214FF6FF72994529863B
:10809000AA860CD0DAF80020144C5268A24221D1F2
:1080A000184635F02BFF0423C5F82C906B86A86882
:1080B0002E6800232B7158B10C4C336802685B6842
:1080C000AA60A34206D135F019FFA8680028F4D1B0
:1080D000BDE8F087014630469847A8680028ECD1F3
:1080E000BDE8F087194650469047DCE7E575020089
:1080F0002DE9F0418B8E4FF6FF72934282B00C4611
:10810000054616D0CA6AD90902EBC10203F07F0105
:10811000526832F83100A08602EBC10200204FF60F
:10812000FF71107128462A60AB80D18002B0BDE893
:10813000F081098E2768002932D1638E002B00F070
:1081400085800123E66A5A4A23864FF480604FF007
:1081500080083B681B68934274D135F0B5FE238ECE
:10816000E76A7060013B9BB207EBC30100284A68D5
:1081700008BF4FF000080020A6F80080708022B1F0
:1081800037F83360488886422ED8012100224FF606
:10819000FF73284621712A60AB8002B0BDE8F081F0
:1081A000E66A4B1E9BB206EBC30E3046DEF8042097
:1081B0002AB1BEF802C036F83380E0451CD8638E81
:1081C000994223D03A4A4B1C9BB2B3F5007F00EB97
:1081D000C106238615BF4FF480604FF47E704FF0C8
:1081E00080084FF07F08B4E700EBC313441C9BB238
:1081F00002EBC0024C8091E70CEBC3130CF10101C0
:108200009BB202EBCC02AEF8021087E7B3F5007F19
:10821000BBD004F10C025B0096421FFA83F83B6866
:1082200016D024489B6883424FEAC80135D13046B6
:1082300041F072FC0028A8D01D4A218EE062A4F80B
:108240003280C0E701463846984788E7E66AE0E7AB
:10825000174A1B68019293424FEAC80022D135F0B9
:1082600033FE019A002890D0D6F800C07168B36838
:10827000D6F80CE0C0F80CE0C0F800C041608360A4
:10828000D6F810C07169B369D6F81CE0C0F81CE0DC
:10829000C0F810C041618361CFE70A4638463146D5
:1082A0009847C7E7014638469847019ADAE700BF82
:1082B000ED750200DD7502002DE9F0418B8E4FF661
:1082C000FF72934282B00C46054611D0CA6AD909A2
:1082D00002EBC10203F07F01526832F83100A08640
:1082E00002EBC10228462A60AB8002B0BDE8F081F3
:1082F000098E2768002932D1638E002B00F085801B
:108300000123E66A594A23864FF480604FF08008C3
:108310003B681B68934274D135F0D6FD238EE76A23
:108320007060013B9BB207EBC30100284A6808BF9D
:108330004FF000080020A6F80080708022B137F8C6
:108340003360488886422ED8012100224FF6FF7301
:10835000284621712A60AB8002B0BDE8F081E66A50
:108360004B1E9BB206EBC30E3046DEF804202AB14A
:10837000BEF802C036F83380E0451CD8638E9942BF
:1083800023D03A4A4B1C9BB2B3F5007F00EBC106E9
:10839000238615BF4FF480604FF47E704FF0800845
:1083A0004FF07F08B4E700EBC313441C9BB202EB11
:1083B000C0024C8096E70CEBC3130CF101019BB299
:1083C00002EBCC02AEF802108CE7B3F5007FBBD015
:1083D00004F10C025B0096421FFA83F83B6816D04A
:1083E00023489B6883424FEAC80135D1304641F0AB
:1083F00093FB0028A8D01D4A218EE062A4F83280A9
:10840000C0E701463846984788E7E66AE0E7174A3A
:108410001B68019293424FEAC80022D135F054FD07
:10842000019A002890D0D6F800C07168B368D6F8D9
:108430000CE0C0F80CE0C0F800C041608360D6F8E2
:1084400010C07169B369D6F81CE0C0F81CE0C0F830
:1084500010C041618361CFE70A46384631469847EC
:10846000C7E7014638469847019ADAE7ED750200FA
:10847000DD7502002DE9F84307464068BD68032D0D
:10848000884600F1080613D85FFA85FC002D77D0E6
:108490000CF1FF3456FA84F4C31D002213F8011FB7
:1084A000002908BF42F00102A342F7D1002A40D0C0
:1084B00000237355D7F80090BE68D9F80830A3B1EF
:1084C00006F1070C8444DA8896420BD13EB3C21DF4
:1084D000DC1D01E0944522D012F8011F14F8015F61
:1084E000A942F7D01B68002BEDD1B6F5803F7D681F
:1084F000D9F8004034D2236828489B68834206F1AB
:10850000090140D1284641F007FB034643B33A68CE
:10851000DE809168196000219360796002E09A889A
:1085200001329A800522C8F8003088F80420BDE89E
:10853000F883022388F80430037A88F80030BCF10D
:10854000010F08D0437A88F80130BCF1020F02D045
:10855000837A88F80230002308F80530BDE8F883F4
:1085600023680F4A5B68934213D0294620469847F8
:108570003A6800239268012189F804101A60FFDE2E
:1085800002230B71E7E70A4620462946984703462F
:10859000BCE7284635F0B2FCEAE700BFDD75020013
:1085A000E57502002DE9F04745684DB18368EA881A
:1085B000934204460E4605D01D440133A3602E723B
:1085C000BDE8F0875B00D0F800905F1CB7F5803FF6
:1085D000D9F8008012D2D8F800201549D2F808A0A6
:1085E0008A4503F10A021CD11146284641F094FA4B
:1085F00020B1C780A36860600546DDE7D8F8003089
:108600000C4A5B68934208D1284635F077FC01227A
:10861000002389F804206360D2E729464046984742
:10862000F5E729464046D0470028E2D1E6E700BFFB
:10863000DD750200E575020003792DE9F0470C466F
:10864000D907054637D4DA0624D413F0600F1DD0BD
:108650002E884FF6FF77BE4215D0E36AF20903EB8E
:10866000C20306F07F09D3F8048008EBC900B246C4
:10867000C6882146FFF7E0FFA38E28F83930BE42B6
:10868000A4F834A0E9D14FF0FF332B6000232B7105
:10869000BDE8F0872A884FF6FF718A4237D0E16A39
:1086A000A68ED00901EBC00102F07F00496821F8D5
:1086B0003060A286C9E7A0682A6826680028C2D070
:1086C000824216D0014600680028BCD08242F9D10F
:1086D0008288013A92B28280002AB4D103680B608A
:1086E00033680C4A5B6893420CD135F007FC2B7958
:1086F000A9E78288013A92B28280002AA3D1036856
:10870000A360EDE70146304698472B799BE70023AD
:108710001B80FFDEE57502002DE9F04F0E4609785B
:1087200085B02B29009000F0FD802D2940F0B88005
:108730007178012001900644A1F13000C0B20928EF
:1087400000F2B680DFF8F893C0B2002100240025C3
:108750004FF0993816F801BF2418ABF13007FFB27B
:1087600041EB05054FEA850E092F6FEA07024FF02E
:10877000FF334FEA840C4EEA947EF8B24FF00001CA
:1087800000F21E81A94508BFA0450BD31CEB040CC9
:108790004EEB050E1CEB0C044EEB0E05AB4208BF76
:1087A000A242D7D24FF0000A0023204629460A22CF
:1087B0003FF0F6FFA946A0461FFA8AF3B9F5200F4D
:1087C00003F1010A08BFB8F1000F04460D460FFA85
:1087D0008AFAE9D2092F0BD802339B1B06EB030A56
:1087E00016F801BFABF13002092A0FFA8AFAF5D95F
:1087F000BBF12E0F00F0B6800BF0DF03452B60D0ED
:10880000BBF1000F56D10AF126034C2B00F2FC807D
:10881000002D08BFB4F5000F80F0F68007EE904AF7
:10882000BAF1000FF8EEE77A40F36481BC4B1AF01E
:10883000010F1CBF93ED007A67EE877A5FEA6A0248
:1088400023D0D00744BF93ED017A67EE877A5FEAC1
:10885000AA021AD0D10744BF93ED027A67EE877A55
:108860005FEAEA0211D0D20744BF93ED037A67EEC4
:10887000877A5FEA2A1A08D0BAF1010F0CBF93ED8C
:10888000047A93ED057A67EE877A019B0BB1F1EEDE
:10889000677A009A0123C2ED027A137010460DE048
:1088A00000200190A1F13000C0B209287FF64AAF44
:1088B0002E2953D0009A00231370104605B0BDE84E
:1088C000F08F96F801B0BBF12D0F36D0BBF12B0F16
:1088D00000F0F080ABF13003DAB2092A06F10106AC
:1088E0008ED80AEB0302B2F59A7F00F3D7800027F7
:1088F00006E002EB400303EB0A02B2F59A7F79DC53
:1089000016F801BFABF13002D1B2092903EB8300A5
:10891000EFD9002F40F0C7809A44BBF1000F3FF41D
:1089200072AFC7E7717800200190A1F13000C0B2AA
:10893000092806F10106BBD804E796F802B0ABF1AE
:108940003003DAB2092A06F102063FF659AF0AEB04
:108950000302B2F59A7F4FDC0127D1E700240025FE
:108960004FF0000A96F801B0ABF13000C0B2092810
:1089700006F101063FF640AF6A4B4FF099329D4237
:108980004FEA850108BF94424FEA840741EA947197
:108990000ED23F1945EB010117EB070841EB010926
:1089A0000AF1FF3A18EB00040FFA8AFA49F10005C0
:1089B00016F801BFABF13000C0B20928DFD91BE7C0
:1089C000BBF1000F40F0D280019B8BB1B5F1004F9D
:1089D00008BF012CBFF4E6AE644265EB45050223F7
:1089E000009A1046C2E90245137005B0BDE8F08F49
:1089F0000323F5E7002F51D000994FF000420123E7
:108A000008468A600B7059E7204629463FF03CFA39
:108A1000BAF1000F79DD444C1AF0010F7AD15FEA08
:108A20006A032DD0DF0700F18D805FEAAA0327D00B
:108A3000DE0700F18C805FEAEA0321D0DD0700F158
:108A40008B805FEA2A131BD0DA0700F18A805FEA85
:108A50006A1315D0DB073ED45FEAAA1310D0DF07F4
:108A60003ED45FEAEA130BD0DE073ED45FEA2A2346
:108A700006D0DD0744D45FEA5A231CBF2B490020EF
:108A8000019B13B101F100431946009A0423C2E986
:108A900002011046137005B0BDE8F08F019B002065
:108AA000BBB12349F1E7AAEB030ABBF1000F3FF486
:108AB000AAAEFFE696F802B0ABF13003DAB2092AAB
:108AC00006F102067FF60DAFBBF1000F3FF49BAE3F
:108AD000F0E61849D9E7D4E90A233FF00BFABBE7DF
:108AE000D4E90C233FF006FABBE7D4E90E233FF0AC
:108AF00001FABBE7CAF1000A3FF4C7AE0E4B96E697
:108B0000D4E910233FF0F6F9B5E7CAF1000AB7D06F
:108B10000A4C81E7D4E900233FF0ECF97FE700BF7E
:108B2000F8E306009999010058E406000000F87F78
:108B30000000F0FF0000F07FE0E3060010E4060014
:108B400099999919D4E902233FF0D4F96DE7D4E952
:108B500004233FF0CFF96EE7D4E906233FF0CAF9CA
:108B60006FE7D4E908233FF0C5F970E7B5F5801F3A
:108B700008BF002CBFF416AE4FF0000A38E600BF65
:108B800010B50E4C2068B8B11CF03CFC38B9206818
:108B90001CF022FC18B1BDE810401FF0B1B92068EC
:108BA00050B11CF02FFC38B120681CF027FC18B124
:108BB000BDE810401FF0F4BE002010BDB8DD00205D
:108BC00010B50E4C2068B8B11CF01CFC38B92068F8
:108BD0001CF002FC18B1BDE810401FF095B92068E8
:108BE00050B11CF00FFC38B120681CF007FC18B124
:108BF000BDE810401FF0D8BE002010BDB8DD002039
:108C000070B5224D224C2B78002B34D0237C002BC6
:108C10002FD1204C37F034FA2068012110F028FCC5
:108C200008B1002323601C4E37F034FA1B4B306828
:108C300000241C702C7010B137F070FC3460184B9D
:108C40001849194D194A1A481A4E00241C701A4B1B
:108C50000C702C60146004602146184834704FF08A
:108C6000FF354FF47A621D6040F078F8144B1C60B9
:108C700070BDFFF7B7F8237C002BCAD0114820F055
:108C8000BDFC10481FF0AEFFC3E700BF7A01012012
:108C9000C4DD0020BCDD0020B8DD0020DCDE0020CB
:108CA00079FD002010E100200CE10020B4F000204C
:108CB000C4F00020DC0101201C61002014E1002030
:108CC000D8010120D4DD002008B5214B1B78002BF2
:108CD00030D0204B1B78042B02D11F4B1B784BB399
:108CE00035F0CAF81D4A1E4B1268801A984221D9E5
:108CF0001C4B93ED007AF0EE007AB4EEE77AF1EED9
:108D000010FA1FDA184B1A78AAB135F0B5F8174BDC
:108D10001A684EF65F23801A98420BD9FFF770FF4E
:108D2000134A1449136803F59C5308334FF0FF307E
:108D30001360086008BD01221A7035F09DF80B4BD6
:108D4000186008BD0849094A00230B70136008BD6C
:108D500079FD0020B8BF0020DDE000207CFD002070
:108D60001FBF020008E1002010E100200CE10020FC
:108D700050DE00201861002070B51C4D8AB0002420
:108D800028460894CDE90244CDE90444CDE90644DF
:108D9000CDF8234028F0CCFC02462846019228F06A
:108DA000C9FC1F26019A014602A83FF0AFFF02A9A5
:108DB0003246284628F0C0FC3C352146324602A8FF
:108DC0003FF0CCFF284628F0B3FC0190284628F05D
:108DD000B1FC019A014602A83FF098FF324602A971
:108DE000284628F0A9FC0AB070BD00BF1C44012031
:108DF000284B294A294870B5C3F800261AF0D4FE3A
:108E00000021042038F016FB01210520244D38F004
:108E100011FB092445F001050021052038F08EFBE7
:108E20004FF4A070A8470121052038F087FB4FF4CC
:108E3000A070A847013CEFD10121042038F0FAFAD4
:108E40002146042038F07AFB4FF4A070A847012196
:108E5000052038F073FB4FF4A070A8470D4C0E4E60
:108E60000121042038F06AFB4FF4A070A8470B489A
:108E7000C4F800661AF01EFE0A4908481AF076FE89
:108E80000948C4F8006601223C212DF003FFC4F814
:108E9000006670BD000001403546526EFC2C01207A
:108EA000D0F10600801A0600F8DD00202DE9F04719
:108EB000544E554D3768D7F80080404638F05CFB7B
:108EC000034645F0010503244FF4FA405BB9012C39
:108ED00074D0A847404638F04FFB0346013C4FF49E
:108EE000FA40002BF3D001237B71484F464DD7F851
:108EF0000080D8F80090484638F03EFB034645F025
:108F0000010503244FF4FA405BB9012C66D0A84751
:108F1000484638F031FB0346013C4FF4FA40002B41
:108F2000F3D0012388F80530DFF8EC90364DD9F8FE
:108F30000080D8F800A0504638F01EFB034645F0EC
:108F4000010503244FF4FA405BB9012C22D0A84755
:108F5000504638F011FB0346013C4FF4FA40002B19
:108F6000F3D0012388F8053033681B793BB1284AD8
:108F7000136803F59C5308331360BDE8F0873B6822
:108F80001B79002BF3D1D9F800301B79002BEED1DF
:108F9000BDE8F08734F070FF98F80530002BE3D07F
:108FA0001C4BD8F808201B68801A9842DCD334F098
:108FB00063FFA8F80440C8F80800D5E734F05CFF68
:108FC0007B79002B91D0134BBA681B68801A9842AA
:108FD0008BD334F051FFBC80B86086E734F04CFF8F
:108FE00098F80530002B9FD00A4BD8F808201B6852
:108FF000801A984298D334F03FFFA8F80440C8F88C
:10900000080091E7D4600020D0F10600D86000206D
:1090100050DE0020C8600020DC600020424B1B684E
:109020002DE9F0411E68414D304638F0A5FA03465F
:1090300045F0010503244FF4FA405BB9012C0BD035
:10904000A847304638F098FA0346013C4FF4FA40FE
:10905000002BF3D0002600E02646354B334D1B682D
:109060001F68384638F088FA034645F001050324A6
:109070004FF4FA405BB9012C0BD0A847384638F0C2
:109080007BFA0346013C4FF4FA40002BF3D0002555
:1090900000E02546274B254F1B68D3F8008040464B
:1090A00038F06AFA034647F0010703244FF4FA4008
:1090B0005BB9012C0AD0B847404638F05DFA034648
:1090C000013C4FF4FA40002BF3D000249EB11A4E1D
:1090D0003378DBB165B1194D2B78F3B124B1184C5D
:1090E00023785BB1BDE8F081154B1C70BDE8F081C1
:1090F000124B1D70F2E7104B1E70EBE734F0BCFE14
:10910000104A012310602370BDE8F08134F0B4FEF2
:109110000D4A012310603370DCE734F0ADFE0B4ADA
:10912000012310602B70D9E7D4600020D0F1060035
:10913000D8600020DC60002099DD0020A0DD002048
:10914000A8DD0020ACDD00209CDD0020A4DD002097
:1091500038B50F4A0F4B126819688A4215D00E496C
:109160001A6000230B6001220C4C0D4B2046002599
:109170001A70E5762DF0F8FA204601212DF020F83E
:109180004FF00113C4E9045338BD0022ECE700BFDF
:1091900018610020CCF0002000FB0020F8DD00204A
:1091A00080FD00201A4A13680E2B28D00D2B15D0F5
:1091B000083312D0174B184993ED007A0B68F1EE83
:1091C000047AB4EEE77AF1EE10FA03F59C5394BFFB
:1091D0000B200A20083310600B6070470F4B1049BA
:1091E0001A680B68013A9A420B4A14BF01330023F4
:1091F0000B60136803F59C530833136070470649EE
:109200000B6803F59C5308335A200B6010607047BD
:109210001861002008E1002050DE00206861002075
:10922000C0DD00200378462B01D00020704710B528
:109230004378572B044621D11149082240F07FFD85
:1092400008B9012010BD0F490622204640F077FDE5
:109250000028F6D00C49204640F046FD0028F0D00A
:109260000A49204640F040FD0028EAD0084920463F
:1092700040F03AFDB0FA80F0400910BD002010BD6A
:1092800098D30600A4D30600ACD30600B4D30600DE
:10929000BCD306002DE9F0435E498DB00822044698
:1092A00040F04DFD00284CD15B4F3B7803F0FF06AA
:1092B000002B51D1083420462C2140F008FD002815
:1092C0004AD000F1010948462C2140F000FD054636
:1092D000002841D020460A22314641F079FCA5EB16
:1092E0000903082B80464AD1D9F80000D9F80410A8
:1092F00002AB03C302A801A98DF810600EF070FC48
:1093000000283CD008F1FF33B3F5A02F56D268787F
:10931000013590B1DFF84491732641F063FC0446B7
:10932000304641F05FFC844207D115F8010F002858
:1093300054D019F8016B002EEFD13848FEF724F90C
:109340000DE037490622204640F0F9FC50B9324B77
:109350001B78012BDDB218D03248FEF715F90DB09D
:10936000BDE8F0833049204640F0BEFCC8B92A4B26
:109370001B78022BF0D12D4B01221A70EFE72C48FD
:10938000FEF702F90DB0BDE8F08301460A22A01DE8
:1093900041F01EFC274B1B6883420FD1264B1D70EA
:1093A000DDE72649204640F09FFC68B91A4B1B7840
:1093B000032BD1D1224B01221A70D0E72148FEF7AE
:1093C000E3F80DB0BDE8F0831F49204640F08CFC67
:1093D0000028C4D11D4B01221A70C0E799F8003053
:1093E000002BAAD1134B1A4A0198C3F8008005A993
:1093F00001233B7010600EF0BDFB164A05AB08A8B8
:10940000102140F0A1FB08A982B2134828F0C4FF44
:10941000A5E700BF98D306005DAF0020D8D30600B3
:10942000A4D30600C4D30600ACD30600956A00207E
:10943000CCD30600B46B0020FC690020B4D3060036
:10944000B36B0020D0D30600BCD30600B26B002063
:109450009C6A0020E0D3060034E00020EDD3060033
:1094600085490978012900D070472DE9F0411C4653
:10947000CBB282499CB00B701546002141220BA84B
:109480003FF06CFC402C2246294628BF40220BA806
:109490003FF03CFC0BA840F04AFC431E70B10BAA05
:1094A000774E1A4412F801190A39C9B226FA01F0A6
:1094B00016296FEA000003F1FF3310D9714E33789B
:1094C000BBB171490BA8052240F039FC50BB062CFA
:1094D00028D86E4B01221A701CB0BDE8F08110F044
:1094E0000100EBD1591C5070DCD1664E3378002B53
:1094F000E7D1674F3B78022B7AD0402C00F289806D
:10950000644904220BA840F01AFCB0B9624C2378DD
:1095100003F0FF05002B52D060496148042228F077
:109520003BFFD9E75F4E338814FA83F3B3F5805FCE
:1095300050DD5D4B01221A70CEE75C4904220BA876
:1095400040F0FDFBD8B15A4907220BA840F0F7FBC9
:10955000002840F0CD809DF83330202B0DF13300F2
:1095600003D110F8013F202BFBD018210EF00EFE86
:1095700098B950495048092228F00EFFACE79DF8F1
:109580003030202B0CA803D110F8013F202BFBD04A
:1095900018210EF0FBFD00283BD03F4C237803F050
:1095A000FF0563B13D494448042228F0F5FE93E7E6
:1095B000394C237803F0FF05002B40F022813F4B0C
:1095C00040220BA9184640F0CCFB012280F8405005
:1095D000227081E73A4B3088294613FA80F0224600
:1095E0003FF094FB338814FA83F39BB2338073E724
:1095F000082C14D833490BA840F076FB20B132492F
:109600000BA840F071FB50B921460BA8FFF742FEB2
:1096100062E72E492848052228F0BEFE5CE73B7829
:10962000022B7FF459AF2A4B1A7802F0FF00002A70
:109630007FF452AFDFF8B080264AD8F80070126885
:109640002744974200F2B280234A244ED2F800C049
:10965000318814FA81F1B1F5805F40F2AD80DFF816
:109660008CC0DCF80010013100F0B8801C4A1D49A4
:10967000116001221A702FE7DCDC00204E8C0020E4
:1096800009004000487C0020F4D30600958E00209D
:109690005DAF00200CD40600B16B002038D8060066
:1096A0006CDF00204C8C0020EB7B002014D40600E3
:1096B0001CD4060024D4060034E00020546A0020A4
:1096C0004C7C0020ACD30600BCD3060004D40600BA
:1096D0005CAF0020B46B0020F8BF0020FCBF00206E
:1096E000986A0020FCD30600D87B0020B8600020D8
:1096F0007F490BA840F0F8FA00284AD07D4905229E
:109700000BA840F01CFB002843D07B4905220BA886
:1097100040F015FB00283CD078490BA840F0E4FA53
:10972000002836D076490BA840F0DEFA00283FF436
:109730003FAF744905220BA840F001FB002866D01A
:10974000714905220BA840F0FAFA00286DD1337850
:10975000002B56D16D4B1C78002C52D10DF13100ED
:1097600018210EF013FD002859D0694B694D0DF1F9
:1097700031011846182240F0F4FA0346664967485A
:10978000674A1C7601232C8004700C7013703370B0
:10979000A2E6644C237803F0FF050BB9624B0FE798
:1097A00062496348052228F0F7FD95E6614A62495F
:1097B000116001221A708FE6604B03EB0C33308886
:1097C000294613FA80F022463FF0A0FA3388C8F801
:1097D000007014FA83F39BB233807DE63188DFF8A2
:1097E00080E1564B89B2AEF800101168CCF8001039
:1097F000116881F0010111603080126803EB0233BF
:10980000DDE74F494A48092228F0C6FD64E61821E1
:109810000DF131000EF0BAFC00287FF4C9AE4949C1
:1098200043480D2228F0B8FD56E6474905220BA80B
:1098300040F085FAB8B9454C237803F0FF05002BBA
:10984000DFD10DF1310018210EF0A0FC0028E6D088
:109850003F4B18220DF13101184640F082FA0122E7
:109860000576227038E63B490BA840F03DFA30B14E
:109870000BA8FFF7D7FC00283FF42EAEC4E6364B0A
:1098800018683EF0DFFA03AE04460D4645EC104B77
:1098900032460221042034F0D9FA11A3D3E900237F
:1098A000204629463EF06EF90FA3D3E900233EF08F
:1098B00021FB3EF0CFFD6428A8BF642020EAE073BE
:1098C000264A0096182105A840F03EF905A840F068
:1098D0002EFA05A982B2164828F05EFDFCE500BF0D
:1098E0006666666666660A40721CC7711CC75B4086
:1098F00030D4060038D4060040D4060048D4060010
:1099000058D406006CD4060084D40600DDDC0020A8
:10991000988E00204C8C0020958E0020EB7B002040
:10992000EC7B0020568C0020FC7B002050D40600ED
:1099300034E00020986A0020D0D30600B48E0020C6
:1099400060D4060074D406008CD40600588E002023
:109950007C8E002094D40600BCF000209CD406002D
:10996000F0690020124B13490122002030B45A60E4
:109970000325DA600424C3F8040541F28830C3F8F3
:109980000855C3F810454FF48035C3F840056024EE
:109990004FF08060C3F80022C3F8045381F81A43E3
:1099A000C1F880010860044930BC0A701A60704731
:1099B00000A0014000E100E0C96B002070B5304C10
:1099C000304D314882B00EF007FC40F24C43032288
:1099D00001212E48C4F8005619F018FA2C4BC4F88F
:1099E000005640F24C461978284840F24C43032276
:1099F00019F0A6FF3346032204212448C4F8005678
:109A000019F0D8FAC4F800560323002201211F4898
:109A1000009619F011FBC4F800560323012200211F
:109A20001A48009619F008FBC4F8005603230222D6
:109A300000211648009619F0FFFA03231A46C4F8CD
:109A4000005600211148009619F0F6FAC4F80056A5
:109A5000032300210D480096062219F0EDFA0D4B64
:109A6000C4F80056197809B102B070BD334603221C
:109A7000064819F005FEC4F8005602B070BD00BFDC
:109A8000000001403546526EB86B002008FB0020F4
:109A90002461002025610020104A114B114810B5A7
:109AA0000021114C11704FF47A62196021603FF06F
:109AB00055F90E48037C6BB90D4C36F0E1FA20687D
:109AC00002210FF0D5FC08B100232360BDE810404F
:109AD00036F0E0BA10301FF085F8EDE7780101208C
:109AE000C4F0002014E10020B4F0002084FD002028
:109AF000BCDD00202DE9F0430024BBB0374B0494BB
:109B000001464FF47A75224607A8ADF81C408DF83F
:109B10001E40059503931FF0A3FA20B9002528469F
:109B20003BB0BDE8F0832E494FF4806207A81FF0D8
:109B3000F7FA064607A81FF055F8B6F5806FEDDB7B
:109B4000284E009502A9019125480294334610AA97
:109B50004FF480610EF0BAF905460028DFD0224BA1
:109B6000DFF89880214FDFF8989010A91846172247
:109B700040F0F7F803461F22404616A9DC7540F076
:109B8000F0F888F81F403846DFF878801F221EA9B9
:109B900040F0E7F8FC770F22154F26A9484640F021
:109BA000E0F80F222AA9404689F80F4040F0D9F882
:109BB0000F2238462EA988F80F4040F0D2F8029ABA
:109BC0000C4BFC731A6012B1013A56F822200A4B72
:109BD00028461A603BB0BDE8F08300BF78E306007A
:109BE00054C0002014E1002084DE002064DE002048
:109BF000BCDE0020B4F00020C4F000209CDE002079
:109C0000CCDE002054DE002070B50C4E054636F048
:109C100037FA306829460FF013FC044620B936F0B5
:109C200039FA3368204670BD294630680FF018FCB9
:109C3000306036F02FFA204670BD00BFBCDD00203A
:109C400010B5084C82B0019036F01AFA20680199DC
:109C50000FF00EFC08B10023236002B0BDE81040F5
:109C600036F018BABCDD002030B5204B1C788BB024
:109C700004BB05460320FFF7C7FFD8B11C49ADF868
:109C8000044001A823462A468DF806401FF0E0F95B
:109C9000B8B11749ADF804402A46012301A88DF850
:109CA00006401FF0D5F9B0B912491348072228F031
:109CB00073FB0BE011491048042228F06DFB0BB038
:109CC00030BD0F490C48092228F066FB0320FFF73E
:109CD000B7FF0BB030BD01A820F02AFA0028E3D06E
:109CE00008490548072228F057FBEFE7DDDC002094
:109CF00048650020A8D4060034E0002038D80600CB
:109D000024D40600B0D40600F8B51649164C174AFC
:109D1000174F184E184D194800233B7033702370AD
:109D20000B70174C13701749174A2B70174D23608F
:109D300013600B80164C1749027C2B604FF0FF35E7
:109D400025600B804AB9144C237803B9F8BD032071
:109D5000FFF776FF00232370F8BD10301EF042FF9E
:109D6000F1E700BFB36B0020956A0020B26B0020C2
:109D70005DAF0020FC6900205CAF0020D8AE002061
:109D8000F8BF0020FCBF0020986A0020D87B00208C
:109D9000B8600020F0690020B6AF0020F0B52E4B6F
:109DA0001C68BDB01CB90320FFF72EFF30B92B494A
:109DB0002B480C2228F0F0FA3DB0F0BD2346294D87
:109DC000294A2A49019404A84FF47A76ADF8104044
:109DD0008DF81240029600951FF03AF99DF8103068
:109DE00083B3234F1E4E02E011A81EF0FBFE4FF47A
:109DF0007A73002204A911A80F930E94ADF8444081
:109E00008DF846400D951FF061FB9DF84430B3B1CD
:109E100013F0D00FE8D11AA9402211A820F0ACFD10
:109E20001AAB3A462AA846213FF08EFE2AA982B2F2
:109E3000304628F0B1FA0A2034F02AF8D4E704A812
:109E40001EF0D0FE0320FFF7FBFE0A49044804225F
:109E500028F0A2FA3DB0F0BDBCDD0020B8D4060069
:109E600034E0002078E30600C8D4060048650020EE
:109E7000DCD40600D4D406002DE9F0473B4B1C6827
:109E8000ADF5287D24B90320FFF7BEFE054640B995
:109E900037493848042228F07FFA0DF5287DBDE8BF
:109EA000F0872346344E354A354904944FF47A7787
:109EB00007A8ADF81C408DF81E40059703961FF0CB
:109EC000C7F89DF81C30002B4BD0DFF8C090DFF8AE
:109ED000C0802C4F02E014A81EF084FE00224FF434
:109EE0007A7307A914A8CDE91062ADF850208DF857
:109EF000522012931FF0EAFA9DF8504014B314F068
:109F0000D004E8D10DF1740A51464FF4807214A8C0
:109F100020F032FD1B9A0192002D14BF4B464346A0
:109F20003A464FF49671CDF800A05DA83FF00CFEC4
:109F30005DA982B20F4828F02FFA0A2033F0A8FF5B
:109F40002546C8E707A81EF04DFE0320FFF778FE60
:109F50000D490848032228F01FFA0DF5287DBDE8B9
:109F6000F0870320FFF76CFE92E700BFBCDD002006
:109F700038D806006CDF002078E306005CD30600CA
:109F800048650020ECD40600F8D40600140A070047
:109F9000E8D40600F0B52E4E337C8FB00446002B7B
:109FA00051D10320FFF730FE002845D0002722467C
:109FB000284C294901943B464FF47A7505AC05A815
:109FC00003950297ADF814708DF816701FF040F8E5
:109FD000A446BCE80F00214D029C74600FC5BCE88C
:109FE0000F000FC5DDE90321337CDCF80000286099
:109FF000C6E90221B3B11A48F36A1A4A1A49036042
:10A00000012017600870194A202101A83FF09CFD2B
:10A0100001A83FF08CFE01A982B2154828F0BCF9D6
:10A020000FB0F0BD0320FFF70BFE124910480522C8
:10A0300028F0B2F90FB0F0BD0F490D48042228F006
:10A04000ABF90FB0F0BD06F110001EF0CBFDA8E794
:10A050009CDC002078E3060048650020ACDC002092
:10A06000D0DC002094DC0020DDDC0020FCD40600E5
:10A0700034E0002004D4060038D806002DE9F04F63
:10A080001F4C85B004F26C4980464F4604F2444BA5
:10A09000A246032501AEFF220023CDF80880ADF8CB
:10A0A0000420039396E80E00384621F003FF94F84D
:10A0B0007E341348C4F8689401223946BBB920F0B5
:10A0C0000DFF60B158461EF08DFD0E4851461FF041
:10A0D00009F860B10C4B1C6005B0BDE8F08F034679
:10A0E00002463946064820F0F9FE0028EAD16420ED
:10A0F00033F0CEFE013DCED1284605B0BDE8F08F4D
:10A10000486500208C6900207431012010B520487A
:10A11000204A037C002111705BBB1F4A1F4B0024A7
:10A1200014701C70FFF7F0FD1D4A1E4B1E48147082
:10A1300021461C7027F03AFB1C482AF015FBF8B9A1
:10A14000194827F0F9FB194800212AF0E3FA1748CB
:10A1500000212AF0E3FA01210C2037F0EFF914492D
:10A16000144A15480023BDE810400B701370FFF728
:10A1700085BF10301EF036FD0320FFF761FDCCE7F0
:10A180000A482AF025FB014608482AF00BFBD7E7CE
:10A190009CDC002090DC0020DDDC00204E8C0020C8
:10A1A000B16B0020568C00201C440120DC3D0120B6
:10A1B00098DC0020DCDC002080841E00F0B5244DFB
:10A1C000244F002387B028463B70FFF757FF044613
:10A1D00010B1204607B0F0BD1F4E0495FF23059037
:10A1E000ADF80C3006F26C4506AB13E90E002846BC
:10A1F00021F060FE96F87E34C6F86854002BE8D152
:10A20000D6F86C3428469B6998470028E1D0D6F8E8
:10A210006814019123460122304620F05FFE019927
:10A2200060B10E481EF0DEFC0B4901F244401EF006
:10A2300059FF50B10A4B04461E60CAE72346224626
:10A24000304620F04BFE0028EBD101233B70C0E7E5
:10A2500080841E0079010120486500208C6900205F
:10A260007431012010B58AB000230C4A0C49ADF8B6
:10A27000043001A88DF806301EF0EAFE044650B9FD
:10A28000064A0849ADF8044001A801238DF80640AC
:10A290001EF0B6FD044620460AB010BD4CE506008F
:10A2A000486500208C6900202DE9F04F3C4D3D4E63
:10A2B00095F800C016F80C308DB05BB302ABDFF838
:10A2C000FCA0DFF8FC90DFF8FC80DFF8FCB0019325
:10A2D0000AEB0C130FCB019C19F80CE058F82C700A
:10A2E00084E80F008CF0010000232870714606AA54
:10A2F0002046CDE90633CDE90833CDE90A3306F827
:10A300000C300FF029F958B995F800C016F80C3048
:10A31000002BDDD1244B1B782BBB0DB0BDE8F08F9B
:10A320000DF1180EBEE80F00DFF8A0C01F4CACE81E
:10A330000F009EE803004CF8040B1D488CF8001039
:10A3400001230370BDF82A1027603A4658460FF0E3
:10A3500095F995F800C016F80C30002BB8D1124BC7
:10A360001B78002BD9D033F087FD114B1A780346A8
:10A3700092B9024647F22F518A42CED90D4C22683B
:10A380009A1A8A42C9D90C48236028F06DFD002131
:10A39000094828F047FDC0E7044A1268821AE9E735
:10A3A000D4690020B4AF0020EE7B002058AF00201D
:10A3B000B06B0020506A002078440120B4AE002029
:10A3C000D4AE002050AF0020ECBF0020D8690020A0
:10A3D00070B5144C237813B99FED130A70BD134D5B
:10A3E0002E6833F049FD014630460FF031F9002860
:10A3F000F2D023781BB90E4B93ED000A70BD2C6888
:10A4000033F03AFD014620460FF022F90028F2D041
:10A4100033F032FD014607480FF03AF90028EAD13F
:10A42000DAE700BFB06B00200000C07F58AF00200B
:10A43000D8690020ECBF002070B5144C237813B904
:10A440009FED130A70BD134D2E6833F015FD0146C4
:10A4500030460FF0FDF80028F2D023781BB90E4BE0
:10A4600093ED010A70BD2C6833F006FD01462046CD
:10A470000FF0EEF80028F2D033F0FEFC014607485A
:10A480000FF006F90028EAD1DAE700BFB06B002030
:10A490000000C07F58AF0020D8690020ECBF00202A
:10A4A00070B5144C237813B99FED130A70BD134D8A
:10A4B0002E6833F0E1FC014630460FF0C9F8002861
:10A4C000F2D023781BB90E4B93ED020A70BD2C68B5
:10A4D00033F0D2FC014620460FF0BAF80028F2D043
:10A4E00033F0CAFC014607480FF0D2F80028EAD141
:10A4F000DAE700BFB06B00200000C07F58AF00203B
:10A50000D8690020ECBF00202DE9F04F884C894A23
:10A5100094F828302DED0A8B0021ADF5277D1170C0
:10A52000002B00F08780844D2E6836B3834B94ED6A
:10A53000042A1978D4ED052A94ED000B94ED021B42
:10A54000002940F0D58030468DED121B8DED100BAB
:10A55000CDED152A8DED142A1AF0DEFB9DED121BB0
:10A560009DED100BDDED152A9DED142A28681AF0DB
:10A570002BFD94F82830002B5CD0714B1B78002BFE
:10A5800046D0704B1B78002B42D06F4E3378002B97
:10A5900059D020693DF056FC02460B46A06943ECB9
:10A5A000182B3DF04FFC02460B466069676A43EC8E
:10A5B0001A2B3DF047FC5CA3D3E900233DF09AFC45
:10A5C00094ED00CB94ED02BB56AD41EC190B28463F
:10A5D00085ED089B85ED048B85ED06AB85ED00CB05
:10A5E00085ED02BBAF620EF003F8002840F0BC809E
:10A5F000564D33F041FC2A6842F21073801A98429B
:10A6000006D933F039FC034651482B601EF0F6FFA3
:10A610006069504C3DF016FC43A3D3E900233DF0A4
:10A6200069FC3DF05FFF20600DF5277DBDEC0A8BD6
:10A63000BDE8F08F424B1B78002BE9D0414B1B78D3
:10A64000002BE5D0404E3378002BE1D194F829302F
:10A65000002BDDD0404D33F00FFC2B68C01AB0F555
:10A660007A7FD5D333F008FC034601202B60FFF737
:10A67000CBFA0028CCD094F82D2094F82C3094F804
:10A680002F0094F82E100291CDE900320390334F41
:10A69000638D334A502166A83FF056FA66A907F148
:10A6A000100040F201621EF0DBFC3B7C002B00F04E
:10A6B000B68156AD284640220A213EF04FFB07F1F5
:10A6C00010084FF480673F2F3A462946404640F233
:10A6D0007C8140221EF0F6FF402840F09D81403FE3
:10A6E000F1D120491D4832F037FC012333708FE748
:10A6F00094F82F10638E94F8302094F82E00CDED4E
:10A70000152A8DED121B8DED100B8DED142A0DF019
:10A71000F7FD9DED100B9DED121B9DED142ADDED57
:10A72000152A01460FE700BF0B410E4A9869F23F18
:10A7300090E00020C8E00020B8DD0020DCE0002030
:10A7400088010120DCDE00207A010120C0F0002019
:10A75000D4DD002008E10020C8F00020C4DD002086
:10A7600048D5060068D506003AAA0821B0EE4C0A82
:10A77000F0EE6C0A012033F069FBB0EE4B0AF0EE0C
:10A780006B0A40AA0821012033F060FBB0EE4A0AB0
:10A79000F0EE6A0A012117AA084633F057FBB0EE23
:10A7A000490AF0EE690A32AA0221012033F04EFB79
:10A7B000B0EE480AF0EE680A36AA0221012033F012
:10A7C00045FBE0693DF03EFB1AAA41EC100B02216B
:10A7D000012033F03BFB206A3DF034FB1DAA41EC25
:10A7E000100B0221012033F031FB8F4B18683DF034
:10A7F00029FB20AA41EC100B0321012033F026FB9A
:10A800008A4B18683DF01EFB23AA41EC100B032174
:10A81000012033F01BFB864B18683DF013FB26AA82
:10A8200041EC100B0321012033F010FBFFF7D0FDAA
:10A8300010EE10BAFFF700FE10EE109AFFF730FE90
:10A840000BF0FF42B2F1FF4F10EE10AA00F0C380F0
:10A8500058463DF0F7FA0DF1A40B41EC100B012125
:10A8600008465A4633F0F2FA58460B210DF056FFCF
:10A87000002800F0B78009F0FF42B2F1FF4F00F06E
:10A88000C08048463DF0DEFA0DF1B00941EC100BF6
:10A89000012108464A4633F0D9FA48460B210DF00B
:10A8A0003DFF002800F0B4800AF0FF42B2F1FF4FF4
:10A8B00000F09C8050463DF0C5FA0DF1BC0A41EC19
:10A8C000100B01210846524633F0C0FA50460B21C6
:10A8D0000DF024FF002800F090803AAB4C9340AB81
:10A8E0004D9317AB4E9332AB4F9336AB50931AAB9D
:10A8F00051931DAB529320AB539323AB549326AB90
:10A900000DF59878559358F8040B14210DF006FFB7
:10A9100000283FF46DAEA845F5D1464B1B78002BBF
:10A920003ED10020014646AA18230DF003FE424BFB
:10A93000424D1A68089226A90B9123A90A9120A9D1
:10A9400009911DA907911AA9069136A9059132A965
:10A95000049140A903913AA9029117A9CDE9007188
:10A96000CDE90CB94FF48071354ACDF838A046AB2B
:10A9700066A83FF0E9F866A9284632F05DFB00289A
:10A980007FF436AE2F4A2B7C107030700BB1FDF780
:10A9900029FA2D481EF026F90120FFF751F927E684
:10A9A00094F8302094F82F30608D618E0291CDE9BB
:10A9B000003200F5FA6094F82E3094F82D2094F8C7
:10A9C0002C1080B20DF0AEFCADE71EF07BFEB8425D
:10A9D00022D1403F77E6CBF31603002B3FF438AF8C
:10A9E0000DF1A40B194BCBF8003044E7CAF3160362
:10A9F000002B3FF45FAF0DF1BC0A144BCAF80030D6
:10AA00006BE7C9F31603002B3FF43BAF0DF1B00920
:10AA10000E4BC9F8003047E70B481EF0E3F8012061
:10AA2000FFF70EF9F4E500BF8CD8002090D8002085
:10AA300094D80020DCE0002090010120C4DD00203B
:10AA400018D50600DCDE0020D4DD00206E616E002B
:10AA50000D4B1B780BB9002070470C4B10B51C68D0
:10AA600033F00AFA014620460EF0F2FD48B133F009
:10AA700003FA014606480EF00BFE80F00100C0B25A
:10AA800010BD002010BD00BFB06B002058AF0020EB
:10AA9000ECBF00202DE9F043B84EB94D33782A7849
:10AAA0009A42A1B0D8B200F262812B78C31ADBB20D
:10AAB000002B00F025812978B24A01F00F01012B0B
:10AAC00052F82110009100F08D802978013101F0B9
:10AAD0000F01022B52F82110019100F08380297898
:10AAE000023101F00F01032B52F82110029179D0AD
:10AAF0002978033101F00F01042B52F82110039142
:10AB000070D02978043101F00F01052B52F8211083
:10AB1000049167D02978053101F00F01062B52F816
:10AB2000211005915ED02978063101F00F01072B25
:10AB300052F82110069155D02978073101F00F0104
:10AB4000082B52F8211007914CD02978083101F0D8
:10AB50000F01092B52F82110089143D029780931AF
:10AB600001F00F010A2B52F8211009913AD02978EF
:10AB70000A3101F00F010B2B52F821100A9131D04C
:10AB800029780B3101F00F010C2B52F821100B9199
:10AB900028D029780C3101F00F010D2B52F821102B
:10ABA0000C911FD029780D3101F00F010E2B52F8B6
:10ABB00021100D9116D029780E3101F00F010F2BC5
:10ABC00052F821100E910DD029780F3101F00F01AC
:10ABD000102B52F821100F9104D02B7803F00F03A3
:10ABE00052F82330DFF8B0C1DFF8C8E19CF800402C
:10ABF0002870013BDBB201AA02EB8307DEF80000FC
:10AC0000614A6B46002C40F0EA80107800F0FF01AA
:10AC1000002840F0A18018680C460433BB4219D0CC
:10AC200092F800801968B8F1000F40F09A80A1EB0B
:10AC300000085648A8F6B839814500F2908020A84F
:10AC400000EB840904330134BB42084649F8408CC8
:10AC5000E4B2E5D10123CEF800008CF80030002CDE
:10AC60004ED0012C109B39D9119A022C134435D0A7
:10AC7000129A032C134431D0139A042C13442DD070
:10AC8000149A052C134429D0159A062C134425D068
:10AC9000169A072C134421D0179A082C13441DD060
:10ACA000189A092C134419D0199A0A2C134415D058
:10ACB0001A9A0B2C134411D01B9A0C2C13440DD050
:10ACC0001C9A0D2C134409D01D9A0E2C134405D048
:10ACD0001E9A0F2C13441CBF1F9A9B1807EE903A24
:10ACE00007EE104AF8EE677AB8EE470AF7EE000A68
:10ACF00087EE800A0EF010FD254821460EF0DCFCA0
:10AD0000244B1A781AB1244900220A701A70234A77
:10AD1000234B1468DB68D90103D5224B1A68D2078C
:10AD20004AD434F0C1FA204B204AA0FB0301830A25
:10AD300043EA81531B1B934244D8154A1C4BD2ED66
:10AD4000007AB6EE007A77EE877AFDEEE77AC3ED09
:10AD5000007A21B0BDE8F083186814705DE70846FA
:10AD60005BE74FF00008084682F8008055E72A7834
:10AD700000F110039B1ADBB29AE600BFD401012058
:10AD8000D601012094010120C6600020C8781E0071
:10AD9000BC600020D5010120B18E00208C01012073
:10ADA000F0ED00E0001000E040420F0020A107009D
:10ADB00090010120407C00205B680A4A9B091B1B14
:10ADC0009342BAD908480EF06FFC084B084A01219B
:10ADD000197033780021DBB22B701170ADE70024BD
:10ADE0001EE700BF20A10700BC600020C660002055
:10ADF000B18E002038B5234D2C782CB94FF080430C
:10AE0000D3F83834DB0701D4204638BD0520FEF7DF
:10AE1000FBFE0028F8D01C48FFF730F910B91B489A
:10AE2000FFF72CF91A4BD3F8680403689B6998471D
:10AE3000024600B34FF400731648002121F01EFFB4
:10AE400014480122002121F021FF124821F030FF97
:10AE5000044658B1104821F0B9FC322033F018F8FC
:10AE60000D4821F0B5FC01232B70CDE702460146C9
:10AE7000084821F00BFF0548FFF700F90520FEF711
:10AE8000DFFEC1E7C22C012000127A0080841E0080
:10AE90004865002060AF00209C310120002238B5B9
:10AEA0001148124D114621F0F1FE32F0E5FF044643
:10AEB00008E032F0E1FF2B68C01A632808D80520AB
:10AEC00032F0E6FF32F0D8FF001BB0F57A7FF0D306
:10AED000074BD3F868040368DB699847322032F0E7
:10AEE000D7FFFCF7EFF900BF60AF0020CC7B00205C
:10AEF000486500202DE9F04F80468B4658F8043B0A
:10AF000098E8070093F83C4093B006AF0DF1240990
:10AF1000202C87E8070089E8070062D10CAC84E8A0
:10AF2000070094E807000FAC84E80700009004468F
:10AF3000002856D01D8F4FF6FF72954251D0DB6A24
:10AF4000E90903EBC10105F07F05496811EBC5056F
:10AF500047D01099EE880292481E22184FF0010A3D
:10AF60002C46039504963546CDF8148001921E4672
:10AF70008846BAF1000F11D1029B9D4231D0E809F9
:10AF800006EBC00005F07F05446814EBC50428D02B
:10AF90008AF0010AE588BAF1000FEDD02079042883
:10AFA0003CD0052836D002281FD0B8F1000FE3D1DD
:10AFB0002A464FF6FF718A423346DDF81480DDE9F8
:10AFC00003560ED0D00903EBC00002F07F024168A7
:10AFD00011EBC20105D00A79111F012925D9022AD6
:10AFE00023D0584613B0BDE8F08F20463EF09FFEB8
:10AFF0004045C1D1B8F1000FDAD0009B013C581E8A
:10B0000010F8012F14F8013F9A42B5D1019B8342F9
:10B01000F6D1CDE72468E0880834E9E724682046C3
:10B02000002CE5D03EF083FEE2E798E807000CAC88
:10B0300084E8070087E8070089E8070094E807002C
:10B040000FAC84E80700804600283ED0109C671EA5
:10B050000744BB46274654464FF6FF799A467CB9CB
:10B060004E4532D0F3090AEBC30306F07F065D6854
:10B0700015EBC60529D084F00104EE88002CEFD032
:10B080002B79042B27D0052B3ED0022B38D0002F54
:10B09000E6D14FF6FF729642534616D0F20903EB03
:10B0A000C20306F07F065A6812EBC60B99D09BF8D4
:10B0B0000430042B2CD0052B2DD0022B18BF4FF0C1
:10B0C000000B584613B0BDE8F08F4FF0000B584608
:10B0D00013B0BDE8F08F2D6828460DB13EF027FE75
:10B0E000B842BDD1002FD4D0681E08F1FF3313F849
:10B0F000011F10F8012F9142B2D15B45F7D1C8E78B
:10B1000028463EF014FEEBE72D68E8880835E7E7AF
:10B1100052F836B065E752F8363003F1080B60E7B5
:10B120002DE9F047056804460E46002972D008460E
:10B130003EF0FDFD8046002D58D02B79202B55D1B7
:10B14000002E53D02B884FF6FF77BB424ED062685B
:10B15000D2F82C90D90909EBC10103F07F024B68AA
:10B1600013EBC20342D04FF0010ADD88BAF1000FA1
:10B1700010D1BD423AD0EA0909EBC20205F07F05C1
:10B18000536813EBC50331D08AF0010ADD88BAF1A8
:10B19000000FEED01A79042A35D0052A2ED0022AC3
:10B1A00027D0002004468045E3D1B8F1000F0BD032
:10B1B000721E631E02EB080112F8014F13F8010F13
:10B1C0008442D6D18A42F7D14FF6FF739D420DD00B
:10B1D000EB0909EBC30905F07F05D9F8040000EB82
:10B1E000C505281E18BF0120BDE8F0870020BDE876
:10B1F000F08718461C463EF09AFDD4E71B68D888B5
:10B2000003F10804CFE71C682046002CCBD03EF0A9
:10B210008EFDC8E788468EE78368002B00F0F68035
:10B220001A79402A40F0F2802DE9F04F1B884FF642
:10B23000FF77BB428FB01CD0D0E90324D56ADA096E
:10B2400005EBC20203F07F03526812EBC30310D078
:10B25000DA881CB912E0013CDA880FD0D109BA4271
:10B2600005EBC10102F07F0603D04B6813EBC60368
:10B27000F1D19FED950B0FB0BDE8F08F143007C8EA
:10B280001E7901AC84E80700202E04AC84E8070096
:10B29000EFD194E8070007AC84E807000AAC84E823
:10B2A000070082460028E4D018884FF6FF77B8429E
:10B2B000DFD0C20905EBC20200F07F03506810EB3B
:10B2C000C300D6D0DDF82C90C68809F1FF384FF0C6
:10B2D000010BD044BBF1000F10D1BE42C9D0F2091E
:10B2E00005EBC20206F07F03506810EBC300C0D02C
:10B2F0008BF0010BC688BBF1000FEED00279042A57
:10B300007DD0052A77D0022A60D0B9F1000FE4D1B0
:10B310004FF6FF708642ACD0F20905EBC20206F090
:10B320007F03576817EBC301A3D00A7912F010040A
:10B330000CD037F83340844200F0C180E00905EBBF
:10B34000C00504F07F006C6804EBC004023A1C2ABC
:10B350008FD801A050F822F017B4020073B2020097
:10B3600013B4020095B402005FB4020073B202008D
:10B3700073B2020073B202006DB4020073B2020035
:10B380007BB4020073B2020089B4020073B20200FF
:10B3900073B2020073B2020073B2020073B2020011
:10B3A00073B2020073B2020073B2020073B2020001
:10B3B00073B2020073B20200A3B4020073B20200BF
:10B3C000B1B4020073B202009DB4020004463EF024
:10B3D000AEFC484581D1B9F1000F99D0601E0AF149
:10B3E000FF3212F8014F10F8011F8C427FF475AF45
:10B3F0009045F6D18CE70468E0880834E9E70468F2
:10B400002046002CE5D03EF092FCE2E79FED2E0BAB
:10B41000704757F833100AA8FDF77EF99DF82830D9
:10B42000013B032B3FF625AFDFE803F0130C0502C9
:10B430009DED0C0B1FE7DDE90C013CF025FD41EC17
:10B44000100B18E7DDE90C013CF026FD41EC100B78
:10B4500011E70C983CF0F6FC41EC100B0BE717F8E9
:10B4600033003CF0CDFC41EC100B04E757F83300FF
:10B470003CF0C6FC41EC100BFDE657F833003CF005
:10B48000CFFC41EC100BF6E608683CF0DBFC41EC2D
:10B49000100BF0E657F833100831BCE794ED000BC1
:10B4A000E9E6D4E900013CF0EFFC41EC100BE2E6E8
:10B4B000D4E900013CF0F0FC41EC100BDBE6002489
:10B4C00044E700BFAFF30080000000000000000070
:10B4D0002DE9F04F00F10C02034607CAD3E90146FB
:10B4E0008FB001AB83E80700002C74D093E807000D
:10B4F000257904AB202D83E807006CD107AB0AAF98
:10B5000083E8070087E807008246002863D0208888
:10B510004FF6FF7840455ED0D6F82C90C20909EB73
:10B52000C20200F07F03506810EBC30053D04FF00D
:10B53000010B0B9EC588BBF1000F10D145454AD0C9
:10B54000EB0909EBC30305F07F05586810EBC50054
:10B5500041D08BF0010BC588BBF1000FEED0037911
:10B56000042B56D0052B50D0022B39D0002EE5D11C
:10B570004FF6FF7085422ED0EB0909EBC30305F0AF
:10B580007F055C6814EBC50125D00B7913F0100220
:10B590000DD034F83520824200F09780D00909EBB5
:10B5A000C00902F07F00D9F8042002EBC002023B80
:10B5B0001C2B10D8DFE803F0360F34595D0F0F0F46
:10B5C000640F6B0F720F0F0F0F0F0F0F0F0F0F0F77
:10B5D000780F7F0F86009FED3E0B0FB0BDE8F08F18
:10B5E00004463EF0A4FB8642A8D1002EC0D00AF14A
:10B5F000FF33601E9A1901E09A42B9D013F8014F47
:10B6000010F8011F8C42F7D098E70468E0880834EE
:10B61000E9E70468002CA9D020463EF088FBE2E769
:10B6200054F835103846FDF777F89DF82830013B7F
:10B63000032BD0D8DFE803F0130C05029DED0C0BB3
:10B64000CBE7DDE90C013CF01FFC41EC100BC4E73B
:10B65000DDE90C013CF020FC41EC100BBDE70C983F
:10B660003CF0F0FB41EC100BB7E754F83510083113
:10B67000D8E714F835003CF0C3FB41EC100BACE705
:10B6800054F835003CF0BCFB41EC100BA5E754F836
:10B6900035003CF0C5FB41EC100B9EE708683CF020
:10B6A000D1FB41EC100B98E7D2E900013CF0ECFB38
:10B6B00041EC100B91E7D2E900013CF0EDFB41ECCD
:10B6C000100B8AE792ED000B87E700226FE700BFBF
:10B6D00000000000000000002DE9F04F85B004AC30
:10B6E00004E90E00DDF80480B8F1000F47D00088AF
:10B6F0004FF6FF76B04242D00E9BD3F82C90C20991
:10B7000009EBC20200F07F03506810EBC30036D093
:10B71000029DB0F806B06F1E4FF0010A4744BAF11F
:10B72000000F12D1B3452AD04FEADB1309EBC30354
:10B730000BF07F0B586810EBCB0020D08AF0010A89
:10B74000B0F806B0BAF1000FECD00379042B31D079
:10B75000052B2BD0022B16D0002DE3D14FF6FF7313
:10B760009B450CD04FEADB1309EBC3090BF07F0BB1
:10B77000D9F8040000EBCB0005B0BDE8F08F002045
:10B7800005B0BDE8F08F04463EF0D1FAA842C9D119
:10B79000002DE3D0601E08F1FF3313F8011F10F8ED
:10B7A000012F9142BED19F42F7D1D7E70468E088CC
:10B7B0000834EBE704682046002CE7D03EF0B7FAE7
:10B7C000E4E700BF2DE9F04184B0064604A800E993
:10B7D0000E003068DDE90187A8B17D1E4544C388AD
:10B7E000BB420DD1002F56D008F1FF33C21D01E03E
:10B7F000AB4250D013F8014F12F8011F8C42F7D022
:10B8000000680028EBD1B7F5803F4AD20A9B2E4A48
:10B810001B681B68934207F1090046D132F054FBC4
:10B8200000283ED00123C780838000F108054FB374
:10B8300000F10C0108F10402954238BF884507F178
:10B84000FF3336D3072B34D927F00304444443464F
:10B850002A4653F8041B42F8041BA342F9D1BA0745
:10B8600027F003030ED018F80320EA545A1C97421D
:10B8700008D9023318F80210A9549F4202D918F8C7
:10B880000320EA54074400233B72336803603060AE
:10B8900004B0BDE8F08183880133838004B0BDE843
:10B8A000F081002004B0BDE8F08101460A98984775
:10B8B000B6E74344C21D08F1FF3818F8011F02F82B
:10B8C000011F9845F9D1DDE7ED750200437DDBB13D
:10B8D000037D202B12D8DFE803F01F111111111185
:10B8E000111111151511111511111111111111113C
:10B8F00011111111111111111111150001230373EF
:10B90000002070470023437503695A1C02611B78AD
:10B91000037501224275DCE7037B002B14BF022074
:10B92000012070472DE9F04F437D85B00446002B80
:10B9300000F0FD80057DDFF878B3002213466275C4
:10B940000092CBB1267D0023B54263751DD0002E39
:10B9500000F0E9805C2E20D067686FB1A168FB8899
:10B96000994200F0B0800F440131A1603E72637DC6
:10B97000E7E7C2F30903009323695A1C22611E788A
:10B9800026750023B5426375E1D16368002B14BFAF
:10B990000020042005B0BDE8F08F2269511C216110
:10B9A0001178217501206075002900F0BC8075298F
:10B9B00010D0BD4A2F2304E012F8023F002B00F004
:10B9C000AE808B42F8D15678002E00F0A88000237C
:10B9D0006375C1E7911C63752161537823756075A8
:10B9E000002B00F0A080402B86BF23F02003A3F1A2
:10B9F0003701A3F13001C8B20F2800F29080002176
:10BA0000D31C617523619178217501236375002929
:10BA100000F08980402986BF21F020013739303974
:10BA2000C9B20F297BD80026131D66752361D37810
:10BA30002375012641EA00116675002B73D0402B57
:10BA400086BF23F02003373B303BDBB20F2B66D899
:10BA500000206075501D20611279227543EA0113A0
:10BA600001211BB26175002A5DD0402A86BF22F0F9
:10BA70002002373A303AD2B20F2A50D842EA0313A2
:10BA80009AB202F5205189B20020B1F5806F1EB242
:10BA90006075FFF46EAF02F510539BB2B3F5806F83
:10BAA0004FD37F2A00F2A1806768002F3FF464AF74
:10BAB000A368FA88934200F0DA801F440133A36040
:10BAC0003E72637D3DE7D4F800A04900DAF80090AB
:10BAD00001F10108B8F5803FD9F8003012D29B6817
:10BAE000724A934201F10A0140F0A28038463EF0CA
:10BAF00013F828B1A0F80680A1686060074632E715
:10BB0000D9F800305B685B4517D1384632F0F6F95A
:10BB100001238AF804300022637D626011E703206C
:10BB200005B0BDE8F08F022005B0BDE8F08F0369D5
:10BB30005A1C02611D780575FDE63946484698474E
:10BB4000E6E7C2F30903009A8DF8080043EA82236E
:10BB500003F58032C2F30531C2F3874242F0F007A9
:10BB600003F03F02C3F3851361F07F0162F07F02AF
:10BB700063F07F038DF80B108DF80C708DF80920A1
:10BB80008DF80A300DF10D0808F1FF3808E01E4469
:10BB90000133A360377218F8017D002F3FF4E7AE40
:10BBA0006668002EF7D0A368F2889342EFD15A005E
:10BBB000D4F800A002F10109B9F5803FDAF80030AD
:10BBC00028D21968886802F10A01384A90428446EE
:10BBD00045D1304601933DF09FFF019BD0B1A0F8C5
:10BBE0000690A36860600646D1E706F03F0363F065
:10BBF0007F03B2F5006F8DF809308DF808004FEA29
:10BC000092131AD263F03F03DFB28DF80A700DF180
:10BC10000B08B9E71A6852685A451CD1304632F011
:10BC20006DF900234FF001028AF804206360B2E747
:10BC30000A464846394698475BE703F03F029B11A6
:10BC400062F07F0243F0E0078DF80A208DF80B7058
:10BC50000DF10C0898E7314618469047E1E70A468F
:10BC600018460193314663469847019BB6E7D4F8DE
:10BC700000905A00D9F8008002F1010ABAF5803F1D
:10BC8000D8F8003018D29B6808498B4202F10A02AA
:10BC90001FD1114638463DF03FFF58B1A0F806A02D
:10BCA000A3686060074608E7F8D50600DD75020066
:10BCB000E5750200D8F800305B685B450DD1384669
:10BCC00032F01CF9012389F804300022637D6260A0
:10BCD00037E6394640469847DFE7394640469847B9
:10BCE000F0E700BF2DE9F04F427D8DB004460D46D0
:10BCF000002A76D0027D202A12D8DFE802F07A11DD
:10BD00001111111111111170701111701111111106
:10BD100011111111111111111111111111117000C5
:10BD200001217B2A217300F260815A2A42D9A2F1B3
:10BD30005B01202900F25981DFE811F0C0005701B2
:10BD40005701570157015701570157015701570133
:10BD500057011C015701570157015701570157015E
:10BD600057012100570157015701570157013A0167
:10BD70005701570157015701570157016400CF4937
:10BD80001346002001259A4240F0718111F8013FCD
:10BD90006075002B00F088812269561C266112789C
:10BDA00022756575002AEED14FF0020840460DB0AD
:10BDB000BDE8F08F222A02D0272A40F0168163685E
:10BDC0000022A260002B00F047822046FFF7AAFD68
:10BDD000804698B929462046FCF74CFB0EE000222D
:10BDE00062752269511C21611278227501216175E9
:10BDF00081E7237B002BD7D14FF0010840460DB0DF
:10BE0000BDE8F08FDEB220224FF0FF332A712B60A5
:10BE1000002E00F04F81002322696375194601202E
:10BE20001346013222611B7823756075202B00F2C6
:10BE30008D8101A757F823F0A9BD02004DC1020072
:10BE40004DC102004DC102004DC102004DC10200B2
:10BE50004DC102004DC102004DC10200C5C2020029
:10BE6000C5C202004DC102004DC10200C5C20200A0
:10BE70004DC102004DC102004DC102004DC1020082
:10BE80004DC102004DC102004DC102004DC1020072
:10BE90004DC102004DC102004DC102004DC1020062
:10BEA0004DC102004DC102004DC102004DC1020052
:10BEB0004DC102004DC10200C5C2020040214FF039
:10BEC000FF32DBB229712A60002B00F0F3800021E1
:10BED00022696175084601261146013222610978FE
:10BEE00021756675202900F2EF8001A757F821F02F
:10BEF000A9BD0200C9C00200C9C00200C9C0020039
:10BF0000C9C00200C9C00200C9C00200C9C0020005
:10BF1000C9C00200C9C20200C9C20200C9C00200F1
:10BF2000C9C00200C9C20200C9C00200C9C00200E3
:10BF3000C9C00200C9C00200C9C00200C9C00200D5
:10BF4000C9C00200C9C00200C9C00200C9C00200C5
:10BF5000C9C00200C9C00200C9C00200C9C00200B5
:10BF6000C9C00200C9C00200C9C00200C9C00200A5
:10BF7000C9C2020000232B70637D06212971002BAA
:10BF800000F0BC81237D4E49002B3FF40DAF9A4257
:10BF90006DD111F8012F00236375002A00F0848011
:10BFA0002369581C20611B78237501206075EBE71D
:10BFB00001232B70637D06212971002B00F0A081E5
:10BFC000237D4049002B3FF4EFAE9A424FD111F848
:10BFD000012F00236375002A66D02369581C206155
:10BFE0001B78237501206075ECE700239E4604F161
:10BFF0001B014FF0010C15E0392A03D902F0DF00D4
:10C00000452817D13F2B03F1010013D084F815E028
:10C0100001F8012F2269C3B2501C206112782275E9
:10C0200084F815C02F2AE7D82B2AA2F12D00E9D0D9
:10C030000128E7D9234400221A7704F11C0108A83B
:10C04000FCF76AFB9DF8208008F1FF33032B0ED824
:10C05000DFE813F0130127011A011300392940F218
:10C0600096805E2940F28E807A2940F290804FF0CF
:10C07000030840460DB0BDE8F08FDDE90A67394698
:10C0800030463CF02FFA82463BF0DCFE02460B467F
:10C09000304639463CF096F98146002800F0678129
:10C0A0000E23C5F800A02B714FF0000840460DB0DC
:10C0B000BDE8F08F4FF00508A0E600BF1CD60600D3
:10C0C00014D606000CD6060001225D29227339D051
:10C0D0005E1E17464FF6FF79D4F8188008A841462F
:10C0E000FCF706F80899002900F072816B88BDF80A
:10C0F00024204B4500F00981D8F82C004FEAD31CCE
:10C1000000EBCC0003F07F03406800EBC303DA8050
:10C110006A8033464FF000022046FFF7E3FD804679
:10C1200000287FF46BAE2046FFF7D0FB8046002846
:10C130007FF464AE637D002B00F0EE80237D5D2BE9
:10C1400040F0D68000206075804657E601227D2BA6
:10C150002273F7D0DFF81493DFF814A30027636885
:10C16000A760002B00F0F180637D002B00F0AE8013
:10C17000217D272900F0B480222900F0B1802F29E9
:10C180003FF66CAFA1F14103192B3FF670AF4FF0B2
:10C19000010867752046FCF705FA637D002B00F067
:10C1A0001D81217D2F29A1F1410300F2C480192BAB
:10C1B000EFD96368002B00F00B812046FFF786FB68
:10C1C000804600287FF41AAE637D002B00F0AB8020
:10C1D000237D3A2B7FF44BAFD4E9013213446775CA
:10C1E0001F72D4E90132D4F818B08DF828700833E2
:10C1F00008930992CDF800B008AB0ECB2846FFF7A4
:10C200006BFA59468046002800F0F880FCF714FAD3
:10C210004146731E4FF000022046FFF763FD804643
:10C2200000287FF4EBAD2046FFF750FB8046002846
:10C230007FF4E4AD637D002B00F0D880237D7D2B5F
:10C2400080D02C2B7FF413AF67752046FFF73EFBA1
:10C250008046002883D0D1E52668844A3068036888
:10C260001B68934240F0B780282031F02DFE002853
:10C2700048D07F4B43606060A7E50A9A2A600E238E
:10C280002B714FF00008B9E5DDE90A67012F08BFFF
:10C29000002E80F08D800A232E602B714FF0000855
:10C2A000ACE5DDE90A9A19F100464AF10007012FD1
:10C2B00008BF002E6CD20C23C5F800902B714FF0F4
:10C2C00000089BE56175ABE5607505E623695A1CBE
:10C2D0002261197821750123272963757FF44CAFFA
:10C2E0002046FFF71FFB804600283FF466AF85E538
:10C2F0002C2B7FF4BCAE00236375EDE65D494FE661
:10C300005D496AE601233371B5E7002362F30F0349
:10C3100062F31F432B60FCE623695A1C22611B78E1
:10C32000237567750BE723695A1C22611B782375F7
:10C33000012262754DE739297FF62BAF5E297FF622
:10C3400036AF7A297FF625AF33E7D4F80080D8F8E6
:10C35000000003681B684B4540F08280282031F0C4
:10C36000B3FD002878D0C0F804A06060FCE6A169A5
:10C3700006A8FBF7A1FF069B002B3FF43FADBDF8DD
:10C380001C202A801E212971C846C3E9006735E5B3
:10C39000A16906A8FBF790FF069BCBB1BDF81C2056
:10C3A0002A801C2129714FF00008C3E9009A25E575
:10C3B000A16906A8FBF780FF069B4BB1BDF81C20C6
:10C3C0002A801A2129714FF00008C3E9006715E59A
:10C3D0004FF0040812E52821984748E723695A1CC2
:10C3E00022611978217584F81580DBE623695A1CCF
:10C3F00022611B7823750122627520E704A8FBF7F0
:10C4000077FE049B002BE3D0594606A80393FBF765
:10C410006FFEDDF81880B8F1000FD9D0039BBDF88E
:10C420001C10D9806A88BDF814004FF6FF7C624565
:10C4300019D0DBF82CC04FEAD21E0CEBCE0C02F068
:10C440007F02DCF804C00CEBC202D0806980194680
:10C450002046FCF70FF8DBE6012388F8043084E778
:10C46000282198477DE728806980F0E7ED75020074
:10C4700001001F0014D606000CD606002DE9F04F6F
:10C48000038E9BB00746044657F80CBBADF804205A
:10C49000884600F1380903B30026C36AB2460BE0B0
:10C4A00031F02CFDE36AC5F800A0208EC5F804A089
:10C4B0000136B1B2884211D9B5B203EBC50569683E
:10C4C00008460029EFD0DBF80030374A5B6893421A
:10C4D000E6D058469847E36AE5E7C36A00204FF67E
:10C4E000FF719F422086A1860BD0DBF800102E4DF5
:10C4F0004E68AE424DD1184631F000FD0423E7628C
:10C500006386A16826680023237161B1264D3368D4
:10C510000A685B68A260AB4208462DD131F0EEFCA0
:10C52000A1680029F3D1002584F83C509DF805301E
:10C530008DF8185049464FF0000203A8CDE9045584
:10C540008DF821500394CDF81C800994FFF7CAFBA5
:10C55000054610B99DF82050A5B9049840B1039B39
:10C5600011491A6813685B688B4216D131F0C6FC1A
:10C5700028461BB0BDE8F08F30469847A1680029D7
:10C58000C5D1D0E794F83C5015F0080518BF032535
:10C59000E3E719465846B047B0E7014610469847CA
:10C5A00028461BB0BDE8F08FE57502002DE9F04F7D
:10C5B000002193B09448DFF878A21CF0B9FE04E0A3
:10C5C000013492482C601CF00DFB8F498F480022EB
:10C5D0001CF07CFF8046002800F00C818C4D2B68FD
:10C5E000C72B00F3048103A9884819221EF0C4F95F
:10C5F00003A82E213DF0C8FB08B1002303702C686E
:10C60000844BDFF830B204EB440204EB82021344A3
:10C610000C220DEB020118463DF0A3FBDBF80020D5
:10C620000026C72A0673CBDC7B4C7848214640F6AF
:10C63000FF721CF075FD002801DC2C68C0E7774F05
:10C6400026543B8E3A68002B00F08D81CDF8048093
:10C65000FB6A3446B14690460BE031F04FFCFB6A72
:10C66000C6F80090388EC6F804900134A1B2884212
:10C670000FD9A6B203EBC606716808460029EFD0B1
:10C68000D8F800305B685345E7D040469847FB6ACE
:10C69000E6E74246DDF80480614C00213986A3427A
:10C6A0004FF6FF71B9860AD011684E68564540F0C2
:10C6B0004981184631F022FC0423FC627B86B8686D
:10C6C0003C6800233B7158B1236802685B68BA601C
:10C6D000534540F0848031F011FCB8680028F3D154
:10C6E0000A238DF809300023029A4B494B4887F8FA
:10C6F0003C30FFF7C3FEC0B200289ED197F83C3013
:10C70000202B00F09B80402B97D13B8F4FF6FF747E
:10C71000A34292D0FE6ADA0906EBC20203F07F035D
:10C72000526812EBC30388D0DA88D309A24206EB21
:10C73000C30302F07F0100F1010003D05B6813EB3B
:10C74000C103F1D100283FF478AF364BDFF8E89011
:10C750000D970AA84FF000080B260124CDE90E839F
:10C76000CDF8309010968DF84440FEF755FD2E4BD5
:10C77000CDF830900AA8CDF8388010968DF8444056
:10C780000D970F9357EC106BFEF746FD0022002328
:10C790003046394659EC108B3BF014FE40B1002274
:10C7A0000023404649463BF00DFE00287FF445AF8C
:10C7B000DBF800401D4B04EB440203EB021303A91A
:10C7C0001F2218463DF0CDFA621C0021C0E908671F
:10C7D000C0E90A892C68CBF80020C177F0E6014651
:10C7E00020469847B86800287FF46EAF78E707487E
:10C7F0001CF0F8F904481CF0F5F90420FDF720FAC4
:10C80000012013B0BDE8F08FF0010120F0DE002020
:10C810006CFD0020D0F00020CC6B002014C0002064
:10C8200020C0002024D6060030D60600A80601202D
:10C83000E5750200282C01204CC000203B8F4FF6EC
:10C84000FF7293423FF4F9AED7F82C90D80909EB68
:10C85000C00003F07F01436813EBC1033FF4EDAE6A
:10C86000DE88B8F1000F14D196423FF4E6AEF1092C
:10C8700009EBC10106F07F064B6813EBC6033FF4DA
:10C88000DCAE88F001085FFA88F8DE88B8F1000FA6
:10C89000EAD0197904295DD0052957D00229E3D1BE
:10C8A00018461C463DF043FA4FF6FF720728DBD1CD
:10C8B0002378632BD8D163786F2BD5D1A378752BD0
:10C8C000D2D1E378722BCFD12379732BCCD163797A
:10C8D000652BC9D1A379732BC6D14FF6FF739E4246
:10C8E0003FF4ABAEF30909EBC30306F07F065B68C8
:10C8F00013EBC6043FF4A1AE2279402A7FF49DAE2B
:10C9000033F836304FF6FF7C63453FF496AEDA09D4
:10C9100009EBC20203F07F03526812EBC3033FF43A
:10C920008CAED9880026CA09614509EBC20201F024
:10C930007F0006F1010618D0536813EBC00314D032
:10C94000D988F0E719461046B047B5E61C68E0887C
:10C950000834ABE71C68002C86D020463DF0E7F990
:10C960004FF6FF72A2E7FB6A96E6002E3FF465AE33
:10C970000C4B0C940AA84FF000094FF00B0801264D
:10C98000CDE90F38CDE90D798DF84460FEF744FC10
:10C99000054BCDF838900AA8CDF840808DF844605A
:10C9A0000C94EDE624D6060030D6060010B504201F
:10C9B0008AB0FDF729F908B90AB010BD0023154A5D
:10C9C0001549ADF8043001A88DF806301CF040FB85
:10C9D000044680B90F4A1149ADF8044001A801236B
:10C9E0008DF806401CF00CFA28B90420FDF728F950
:10C9F00000200AB010BD0A4C0A4B06490A48002222
:10CA000022601A601CF02CFB0028EED0FFF7CEFD50
:10CA10000AB010BD4CE50600486500208C69002076
:10CA20006CFD0020282C0120F0010120F0B54D4EB6
:10CA30004D4D33882B789BB0002B68D1032003F039
:10CA4000FF07FDF7E1F80446002855D0474B484A58
:10CA5000322168463DF078F8464A4749ADF83470CF
:10CA60003B460DA88DF836701CF0F2FA044648B922
:10CA7000ADF834003F4A41498DF8364001230DA8F6
:10CA80001CF0BEF900243C49ADF8344023466A4608
:10CA90000DA88DF836401CF0DBFA002852D1002397
:10CAA0004FF47A71364C0E93ADF844308DF8463021
:10CAB0000F916A4630490D9411A844F202231CF0EC
:10CAC000C7FA9DF84440002C36D032882D4992B2E6
:10CAD00011A81CF0F7FD044611A81CF083F80320F0
