:020000022000DC
:107000000000042079B30600B9B30600BBB3060044
:10701000BDB30600BFB30600C1B306000000000008
:10702000000000000000000000000000F5B20600B3
:10703000C5B306000000000015B30600C9B3060082
:10704000D5B50600CBB306005D8A0600DDCC040092
:1070500095CD0400CBB30600358D0600CBB30600FA
:10706000CBB30600CBB30600CBB30600CBB3060010
:10707000CBB30600CBB30600CBB30600CBB3060000
:10708000CBB3060045B00600CBB30600CBB3060079
:10709000CBB30600CBB306005DF10500CBB3060011
:1070A000CBB30600CBB306002DAE0300CBB3060076
:1070B000CBB30600CBB306000000000000000000C8
:1070C000CBB30600CBB30600CBB30600BDBB0600B6
:1070D000CBB30600CBB30600CBB30600E5770500C3
:1070E000CBB30600CBB30600CBB306000000000014
:1070F00000000000CBB306000000000035BC060015
:10710000000000000000000000000000000000007F
:10711000000000000000000000000000000000006F
:10712000000000000000000000000000000000005F
:10713000000000000000000000000000000000004F
:10714000000000000000000000000000000000003F
:10715000000000000000000000000000000000002F
:10716000000000000000000000000000000000001F
:10717000000000000000000000000000000000000F
:1071800000000000000000000000000000000000FF
:1071900000000000000000000000000000000000EF
:1071A00000000000000000000000000000000000DF
:1071B00000000000000000000000000000000000CF
:1071C00000000000000000000000000000000000BF
:1071D00000000000000000000000000000000000AF
:1071E000000000000000000000000000000000009F
:1071F000000000000000000000000000000000008F
:10720000F1EE103A43F08073E1EE103A704700BFA0
:1072100010B5054C237833B9044B13B10448AFF3D0
:1072200000800123237010BDEC66002000000000E8
:1072300054ED070008B5034B1BB103490348AFF3F6
:10724000008008BD00000000F066002054ED07003B
:10725000154B002B08BF134B9D46A3F5803A002128
:107260008B460F461348144A121A4CF09FFD0F4BE1
:10727000002B00D098470E4B002B00D098470020E1
:10728000002104000D000D48002802D00C48AFF387
:1072900000804CF0CFFC2000290044F0C5F84CF0F1
:1072A000A3FC00BF00000800000004200000000054
:1072B00000000000EC66002014A701200000000080
:1072C00000000000BFF34F8F0549064BCA6802F467
:1072D000E0621343CB60BFF34F8F00BFFDE700BFF9
:1072E00000ED00E00400FA0535DF704733DF70473A
:1072F0003CDF70473DDF704741DF704711DF70476B
:1073000012DF70470020704701207047012070474E
:10731000704700BF704700BF704700BF704700BF95
:10732000024B02F001021A70704700BF197C002066
:1073300070B50446C0694E4D4BF03EFD4AA3D3E9FB
:1073400000234BF0A3FD02460B46A069C5E90023CC
:107350004BF032FD44A3D3E900234BF097FD94EDAD
:107360000F7AB4F84C30DFED437A9FED435A9FED2E
:10737000434ADFED434AF8EEC75A94ED107A06EE21
:10738000103AF8EEC76A94ED0A7AB8EE466AB8EE9B
:10739000477A66EEA76A65EE845A26EE246A27EEDF
:1073A000057AC5ED055A85ED066AC5ED076A85EDD6
:1073B000087AE37DD4ED097A6B62237DF8EEE77AF3
:1073C000012B88BF637DC5E9020167EE857A8CBF1A
:1073D00003F001030023C5ED047A85F82830E37A31
:1073E00003F00302A2F10300B0FA80F0C3F38001BE
:1073F0004009032A85F82A0085F82B1003F00403BE
:107400002DD1003B18BF0123A28885F82930A2F5B1
:10741000FA63AB85A37985F82E30E37985F82F30B0
:10742000237A85F83030637A85F83130A37A85F88D
:1074300032302268134B1449144C1548A3FB0263E5
:1074400001260E709B094FF47A7101FB132321680A
:107450000268AB86314432442160026070BD002373
:10746000D2E700BFAFF3008048AFBC9AF2D77A3EB4
:1074700078180120ACC527376F12833AA8C8FE3AA6
:107480000AD7233CD34D6210B0180120C818012040
:10749000B4180120024B034AC3F8002601207047AC
:1074A000000001403546526E024B0349C3F80016F6
:1074B00010467047000001403546526E704700BFCD
:1074C000037C13F0080306D0C36A406A181A48BF49
:1074D0006FF0004070471846704700BF2DE9F84F25
:1074E0004AB3C2F3080315462BBBDFF85480DFF81C
:1074F0005490012306460F4688F800304FEA522A7E
:107500000324D9F8680403683A46D3F814B0314626
:107510005346D847013C20B914F0FF04F1D14FF095
:10752000FF3541F073FC054A0023106088F80030F5
:107530002846BDE8F88F4FF0FF35F9E7046C0020CE
:10754000E07C0020086700202DE9F84F4AB3C2F321
:10755000080315462BBBDFF85480DFF85490012355
:1075600006460F4688F800304FEA522A0324D9F81D
:10757000680403683A46D3F824B031465346D847E6
:10758000013C20B914F0FF04F1D14FF0FF3541F078
:107590003DFC054A0023106088F800302846BDE80D
:1075A000F88F4FF0FF35F9E7046C0020E07C0020F5
:1075B0000867002010302CF0B5BC00BF10302CF054
:1075C00015BD00BF00B583B00B4601220DF10701C8
:1075D00010308DF807302CF009FD03B05DF804FB86
:1075E00000B587B00346064A684618214DF0D4FA24
:1075F000694682B2034835F063FB07B05DF804FBCF
:10760000088607002018012010302CF007BA00BFB0
:1076100000B583B001220DF1070110302CF02CF9D8
:1076200001280CBF9DF807004FF0FF3003B05DF854
:1076300004FB00BF084611464DF096BA084641F0DB
:1076400027BC00BF084641F009BC00BF10B50E4C76
:1076500084B0227801A8092118F086F92378023332
:107660002370024670B1094B1B7803F0FF004BB149
:10767000074B1B7803F0FF0023B1064892B201A923
:1076800035F01EFB04B010BDCAE600203C7C002093
:10769000197C0020447D00202DE9F0434779402FDC
:1076A0003946A1B028BF40219FB30023E9464A468E
:1076B0009C461F46054603EB4304AE7A167000EB6A
:1076C00084040133247C14F0080FC4F3C00818BFED
:1076D000013782F801805FFA83FE05F10C0502F1A3
:1076E000020218BFFFB21EB10CF1010C5FFA8CFC54
:1076F0007145E0D8084B094C1F70094A84F800C056
:107700004846102319F07EFE064B187021B0BDE8E4
:10771000F083BC46E946EDE7E1180120E0180120BE
:10772000D0180120CC180120174BDB68D90110B507
:1077300003D5164B1A68D2071FD442F07FFD144BB5
:10774000A0FB0301830A43EA8153124912480A68E5
:1077500000689A1A90420FD810480B6002781049BE
:107760000132097802F00F02914209D001780D4CE4
:10777000C9B244F82130027010BD5B689B09E4E790
:10778000094B01221A7010BDF0ED00E0001000E07E
:1077900040420F009C39012070610020E439012033
:1077A000E6390120A4390120E539012038B5104C13
:1077B000104DD4F8680403680122DB692A709847E9
:1077C00094F82430DB070CD400224FF0FF3384F808
:1077D0002420236341F01AFB074A002310602B701A
:1077E00038BD04F124002FF0D3F80028ECD1F1E7E4
:1077F00008670020E07C0020046C002070B58AB08F
:107800001F22014600921B4802ABFF2235F0EEFF1B
:107810000D2804D8184B1B783BB30AB070BD044642
:10782000014602A819F0A6FF0028F3D0134E144811
:107830003578102C28BF1024E4B2224602A900EBB0
:1078400005104CF08BFAEDB20E4B5C5541F0DEFAB0
:107850000D4C0E4A44F82500012185EA01035155DB
:107860003370054B1B78002BD7D1024835F0A4FFAD
:107870000AB070BDF8840120FF6B0020006C00206E
:1078800030E6002050E60020CCE6002030E7002063
:1078900010B5034B036004461BF024FE204610BDC8
:1078A000289A07000F49097802290AD1F8B50E4E27
:1078B0000E4F3578EDB21C467B5D0BB9202C01D9FB
:1078C000F8BD70470A48114600EB451022464CF0BF
:1078D00045FA0848E3B24355012185EA010279558A
:1078E0003270F8BD81140120187C002090F7002030
:1078F00088E60020C8E60020F0B5234B234E04465E
:10790000002914BF19463146214887B040F05EFA7D
:10791000204B1B68A3422DDD1F4B04EB440403EBFB
:10792000041420464DF02BFA21460546132201A8E7
:107930004DF03FFA002716488DF8177001A940F066
:1079400045FB132D04D8124840F020FB07B0F0BDD2
:1079500031460F4840F03AFA04F11301132201A80E
:107960004DF027FA01A90A488DF8177040F02EFB58
:1079700007B0F0BD0949064840F0B8FA044840F0A5
:1079800005FB07B0F0BD00BF14860700B0970700E5
:10799000E415012064350120A83501201886070070
:1079A00070B5124C124A134B2260002647F2600059
:1079B0006360C4F8886343F077FD0F4B0F4D93ED80
:1079C000000B32462146044626F042F90C4B2C604F
:1079D00093ED000A204626F0E3FC0A4B286893ED5D
:1079E000000ABDE8704026F0F1BC00BF4010012045
:1079F000208607002CB30700C06200207415012008
:107A00007C63002078630020F8B51D4B1B78022BA7
:107A100004462CD01B4B1C4A1C480027214601263B
:107A20001F70167037F092FB054635F0C3FA2846F2
:107A3000F72135F0D7FA2846022135F0FBFA3A460D
:107A40003946284635F0D6FA41F0E0F9104FDFF814
:107A500058C01049104A0346CCF800303C801B2324
:107A60000E7028461380BDE8F84035F0A5BA0B4AE1
:107A70000B490C4B10800120002208701A70F8BDD1
:107A800081140120B8C10020441401205C7E012033
:107A90002AC60020389E0020FC600020686100207B
:107AA0003C7C0020197C0020B4C10020234A1388AC
:107AB0004FF6FF719BB28B42F0B403D013889BB298
:107AC00098422DD01E4B1B78022B29D01D4B1E4FE8
:107AD0001E4C1F491F4E1A781F48204D00233B7033
:107AE0001B27378023700B701D4C1E4903701E48E6
:107AF0002B7023701D4D0B701D4C1E4903701720F9
:107B00002B70237008801C4B1AB900221A70F0BC2D
:107B100070471A78002AF8D0184A01211170F4E74A
:107B200013889BB29842F2D1154C164900234FF6A8
:107B3000FF7023701080F0BC0B70704768610020EC
:107B4000811401203C140120389E0020ACA10020AB
:107B50004EA10020FC6000200DC600204DA1002099
:107B6000D0C50020F97D002044140120821401209A
:107B7000CDC1002080610020B8C100202EC60020A9
:107B80003C7C0020197C00202DE9F04F4948037C03
:107B9000ABB0002B40F08A804748037C002B40F0BC
:107BA00081804648037C002B78D14548037C002B1C
:107BB00070D10024322041F035F9424E424A434907
:107BC0000194234604A84FF47A75ADF810408DF85F
:107BD0001240029500962BF0E7FD9DF8100000285A
:107BE00055D03B4D2B68132B49DC3A4FDFF8E8802A
:107BF00005E011A82BF0A2FB2B68132B3FDC4FF400
:107C00007A73002204A911A80F930E94ADF8444092
:107C10008DF846400D962CF0EDF89DF8443040224A
:107C20001AA911A85BB32DF03BFB9DF8443013F06B
:107C3000D00F1AA8DDD14DF0A2F803461AAA0638D3
:107C4000062B39461044D4D94DF03EF88146002821
:107C5000CFD1D5F800A00AEB4A0B08EB0B1B1AA9F1
:107C60002F2258464DF0A5F80AF1010311A82B6008
:107C70008BF82F902BF062FB2B68132BBFDD04A831
:107C80002BF05CFB28680028D4BF002001202BB01B
:107C9000BDE8F08F10302BF051FB8AE710302BF04D
:107CA0004DFB82E710302BF049FB7AE710302BF0C8
:107CB00045FB71E774350120CC160120F039012015
:107CC000243A0120589A07002886070008670020F8
:107CD000643501202C860700A835012010B5094C19
:107CE0002368013309D1084A136803F59C5308330C
:107CF0004FF0FF311360216010BD41F087F8034B56
:107D00001860F0E7C86200203C160120E83201202C
:107D100010B5074C43F07EF92068042119F040FCAF
:107D200008B100232360BDE8104043F07DB900BFD7
:107D3000A815012038B505680A4A04462868036872
:107D40001B6893420BD1282041F088F818B1064BEC
:107D50004360606038BD01232B71606038BD28210D
:107D60009847F3E74576020001001F0081682DE97E
:107D7000F0470568044669B1284E2B680A685B68BD
:107D8000A260B34208463DD141F082F8A1680029C3
:107D9000F3D12568238E04F10C0903B30027E36AAD
:107DA000DFF878A0B8460BE041F072F8E36AC6F855
:107DB0000080218EC6F804800137BAB291420FD9F3
:107DC000BEB203EBC606716808460029EFD02B68E7
:107DD0005B685345E8D028469847E36AE7E7E36ADB
:107DE00000214FF6FF7299452186A28607D02A68A6
:107DF0000A4952688A420BD1184641F049F8204698
:107E0000BDE8F08728469847A1680029B5D1C0E7AA
:107E10002846194690472046BDE8F0873D76020087
:107E200081682DE9F0470568044669B1284E2B6842
:107E30000A685B68A260B34208463DD141F028F869
:107E4000A1680029F3D12568238E04F10C0903B33E
:107E50000027E36ADFF878A0B8460BE041F018F895
:107E6000E36AC6F80080218EC6F804800137BAB2F2
:107E700091420FD9BEB203EBC606716808460029CD
:107E8000EFD02B685B685345E8D028469847E36AF3
:107E9000E7E7E36A00214FF6FF7299452186A28643
:107EA00007D02A680A4952688A420BD1184640F026
:107EB000EFFF2046BDE8F08728469847A1680029D3
:107EC000B5D1C0E72846194690472046BDE8F0875F
:107ED0003D76020081682DE9F0470568044669B1E6
:107EE000284E2B680A685B68A260B34208463DD101
:107EF00040F0CEFFA1680029F3D12568238E04F15C
:107F00000C0903B30027E36ADFF878A0B8460BE05A
:107F100040F0BEFFE36AC6F80080218EC6F80480F8
:107F20000137BAB291420FD9BEB203EBC6067168EF
:107F300008460029EFD02B685B685345E8D02846F7
:107F40009847E36AE7E7E36A00214FF6FF72994535
:107F50002186A28607D02A680A4952688A420BD134
:107F6000184640F095FF2046BDE8F0872846984720
:107F7000A1680029B5D1C0E7284619469047204698
:107F8000BDE8F0873D7602002DE9F04F87B006ABE3
:107F900003E90300049D002D00F00E812888059A56
:107FA0004FF6FF73984200F01081D2F82C90C1096F
:107FB00009EBC10100F07F02486810EBC20000F03D
:107FC00004819B460379C688202B4FF0000840F0BF
:107FD000EE80B8F10A0F00F0EE8007885F4500F0F0
:107FE000DE81FB0909EBC30307F07F025D680292A3
:107FF000FB0915EBC205039300F0EC80B5F806A071
:108000000195434601272C46B04655461E468FB97A
:108010005D4500F0DC80EA0909EBC20205F07F054E
:10802000546814EBC50400F0D28087F00107E5889E
:10803000002FEDD02279042A00F08681052A00F075
:108040007F81022AE4D120464CF099FE0428DFD13A
:1080500022786E2ADCD16278612AD9D1A2786D2A81
:10806000D6D1E278652AD3D12B4632465B454646C7
:10807000019D904610D0D80909EBC00003F07F03A2
:10808000406810EBC30307D01B79181F012840F28A
:10809000A680022B00F0A380B34BB44A42F83830DC
:1080A000039B029A09EBC30ADAF8043013EBC20708
:1080B00064D0B7F806A0019701233C461F4643460B
:1080C0005546B0461E468FB95D4500F0D080EA099E
:1080D00009EBC20205F07F05546814EBC50400F0FB
:1080E000C68087F00107E588002FEDD02279042AA9
:1080F00000F02181052A00F01A81022AE4D12046ED
:108100004CF03DFE0C28DFD12278642ADCD1627865
:10811000612AD9D1A278742AD6D1E278652AD3D13E
:1081200022795F2AD0D16279632ACDD1A279722ACD
:10813000CAD1E279652AC7D1227A612AC4D1627A8A
:10814000742AC1D1A27A652ABED1E27A642ABBD14F
:1081500032465D453B464646019F90460ED0EA09B1
:1081600009EBC20205F07F05546814EBC50505D084
:108170002A79111F01297ED9022A7CD07A4B7B4AA9
:1081800002EBC8025E4508F1010853605FFA88F50A
:1081900012D0F30909EBC30306F07F06586810EB11
:1081A000C60009D00379C688202B3FF412AFB8F17E
:1081B0000A0F40F0CE8045466D4A6C48294616F0BD
:1081C00035F8284607B0BDE8F08F0025F4E73346C0
:1081D00046469846654B644A43F8382060E79FB9A5
:1081E000DA4500F0CE804FEADA1309EBC3030AF058
:1081F0007F0A5D6815EBCA0500F0C38087F00107B0
:10820000B5F806A0002FEBD02B79042B00F0B2803C
:10821000052B00F0A480022BE2D128464CF0AFFDE4
:108220000428DDD12B786E2BDAD16B78612BD7D176
:10823000AB786D2BD4D1EB78652BD1D1DA4500F03A
:10824000A0804FEADA1309EBC3030AF07F025868F3
:1082500010EBC2033FF421AF1979042900F0AF807D
:10826000052900F0A880022918BF002315E733462E
:108270004646984682E71C469CB9DA4500F08D8058
:108280004FEADA1209EBC2020AF07F0A576817EBCD
:10829000CA0700F0828084F00104B7F806A0002C21
:1082A000EBD03B79042B72D0052B6CD0022BE4D1A0
:1082B00038464CF064FD0C28DFD13B78642BDCD1D0
:1082C0007B78612BD9D1BB78742BD6D1FB78652B09
:1082D000D3D13B795F2BD0D17B79632BCDD1BB79C7
:1082E000722BCAD1FB79652BC7D13B7A612BC4D1E4
:1082F0007B7A742BC1D1BB7A652BBED1FB7A642B00
:10830000BBD1DA4549D04FEADA1309EBC3030AF0CF
:108310007F0A596811EBCA033FF431AF1A79042A76
:1083200046D0052A40D0022A18BF002327E7246838
:10833000E0880834E6E62468002C7FF4E0AEC3E66B
:108340002468E088083481E62468002C7FF47BAE42
:108350005EE6064B044A43F8382013460FE72D68C3
:10836000E88808355CE700BF2CB3070000610020F7
:10837000F46B00202D68002D7FF44FAFDA457FF4B9
:1083800032AF002389E63F68F888083793E73F68F3
:10839000002F8DD1DA457FF473AF0023EFE6094B50
:1083A000094A43F83820E9E651F83A300833E6E65E
:1083B00051F83A30E3E650F8323008336DE650F8C1
:1083C00032306AE6006100202CB307002DE9F84F37
:1083D000074640F01BFD314DDFF8CC90DFF8CCB004
:1083E000DFF8CCA0064645F00105D9F800301C683E
:1083F000204644F08BF803464FF003084FF4FA4050
:108400006BB9B8F1010F3CD0A847204644F07EF884
:10841000034608F1FF384FF4FA40002BF1D0DBF8A7
:108420000030D3F80080404644F070F8034603243F
:108430004FF4FA405BB9012C23D0A847404644F0E2
:1084400065F80346013C4FF4FA40002BF3D0144B7F
:108450001B68D3F80080404644F058F803460324D4
:108460004FF4FA405BB9012C0BD0A847404644F0CA
:108470004DF80346013C4FF4FA40002BF3D0BDE821
:10848000F88F40F0C3FC801BB842F8D2054B0A209D
:10849000C3F800A640F0C6FCA7E700BF70A0070025
:1084A0008C61002000000140846100208861002070
:1084B0003546526E2DE9F04FDFF8F490344AD9F882
:1084C00000300026B34283B016702ADD4FF0FF3330
:1084D000DFF8E080DFF8E0B02E4F01934FF0000AA4
:1084E00097ED0A3B97ED082B98ED021B98ED000BDA
:1084F00016F07AFF55EC104B5B4610EE100A524610
:1085000029464AF035FF3837D9F8003010B1A24675
:10851000AB4601960136B342E2DC019B1A460132BA
:1085200020D100211C4D1D4B002428461C7015F045
:1085300013F92A781A4B042A1C600ED9194C2368A7
:108540005A1C1DD1184A2360136803F59C53083345
:108550000120136003B0BDE8F08F6FF00A03114CE7
:108560009B1AEFE7C3EBC30A0A4B094803EBCA01A6
:108570000C224CF01EFC064A002313730121D1E7A4
:1085800040F044FC094A4FF0FF331060DAE700BFC7
:1085900064150120E8400120C06100205C15012025
:1085A000F4320120C86200203C160120E83201208C
:1085B000A86C012078180120000014402DE9F04734
:1085C000054680682F6860B1284C3B6802685B688C
:1085D000AA60A3422AD140F05BFCA8680028F4D12D
:1085E0002F682B8E05F10C093BB30026EB6ADFF8F0
:1085F0007C80B2460BE040F04BFCEB6AC4F800A074
:10860000298EC4F804A00136B2B2914216D9B4B290
:1086100003EBC404616808460029EFD03B685B683F
:108620004345E8D038469847EB6AE7E701463846C5
:108630009847A8680028C8D1D2E7EB6A00214FF616
:10864000FF7299452986AA8607D03A680749526879
:108650008A4205D1184640F01BFC2846BDE8F08749
:108660003846194690472846BDE8F0873D76020017
:108670002DE9F047038E8146054659F80CABFBB156
:108680000026C36ADFF8A080374609E040F000FC0E
:10869000EB6A2760298E67600136B2B2914210D929
:1086A000B4B203EBC404616808460029F1D0DAF8DB
:1086B00000305B684345E9D050469847EB6AE8E7ED
:1086C000C36A00214FF6FF7299452986AA860CD00D
:1086D000DAF80020144C5268A24221D1184640F02A
:1086E000D7FB0423C5F82C906B86A8682E6800235E
:1086F0002B7158B10C4C336802685B68AA60A342C6
:1087000006D140F0C5FBA8680028F4D1BDE8F08789
:10871000014630469847A8680028ECD1BDE8F087AC
:10872000194650469047DCE73D760200008830B499
:108730004FF6FF74A0421AD0CD6AC20905EBC202FF
:1087400000F07F03506810EBC30011D0C2880020F6
:10875000D309A24205EBC30302F07F0100F101003F
:1087600006D05B6813EBC10302D0DA88F0E7002083
:1087700030BC70472DE9F0418B8E4FF6FF7293426B
:1087800082B00C46054616D0CA6AD90902EBC1026E
:1087900003F07F01526832F83100A08602EBC1027B
:1087A00000204FF6FF71107128462A60AB80D180FF
:1087B00002B0BDE8F081098E2768002932D1638EAE
:1087C000002B00F085800123E66A5A4A23864FF485
:1087D00080604FF080083B681B68934274D140F082
:1087E0003DFB238EE76A7060013B9BB207EBC30140
:1087F00000284A6808BF4FF000080020A6F8008053
:10880000708022B137F83360488886422ED8012123
:1088100000224FF6FF73284621712A60AB8002B018
:10882000BDE8F081E66A4B1E9BB206EBC30E3046F4
:10883000DEF804202AB1BEF802C036F83380E045E5
:108840001CD8638E994223D03A4A4B1C9BB2B3F595
:10885000007F00EBC106238615BF4FF480604FF404
:108860007E704FF080084FF07F08B4E700EBC31331
:10887000441C9BB202EBC0024C8091E70CEBC3138B
:108880000CF101019BB202EBCC02AEF8021087E7BB
:10889000B3F5007FBBD004F10C025B0096421FFAD7
:1088A00083F83B6816D024489B6883424FEAC8018E
:1088B00035D130464CF058F90028A8D01D4A218EF9
:1088C000E062A4F83280C0E701463846984788E75E
:1088D000E66AE0E7174A1B68019293424FEAC80034
:1088E00022D140F0BBFA019A002890D0D6F800C0FF
:1088F0007168B368D6F80CE0C0F80CE0C0F800C0AE
:1089000041608360D6F810C07169B369D6F81CE085
:10891000C0F81CE0C0F810C041618361CFE70A468F
:10892000384631469847C7E7014638469847019A86
:10893000DAE700BF45760200357602002DE9F04106
:108940008B8E4FF6FF72934282B00C46054611D0D3
:10895000CA6AD90902EBC10203F07F01526832F8FA
:108960003100A08602EBC10228462A60AB8002B02B
:10897000BDE8F081098E2768002932D1638E002B73
:1089800000F085800123E66A594A23864FF480600F
:108990004FF080083B681B68934274D140F05EFA48
:1089A000238EE76A7060013B9BB207EBC30100288E
:1089B0004A6808BF4FF000080020A6F800807080C9
:1089C00022B137F83360488886422ED80121002230
:1089D0004FF6FF73284621712A60AB8002B0BDE8D4
:1089E000F081E66A4B1E9BB206EBC30E3046DEF802
:1089F00004202AB1BEF802C036F83380E0451CD806
:108A0000638E994223D03A4A4B1C9BB2B3F5007F48
:108A100000EBC106238615BF4FF480604FF47E70D3
:108A20004FF080084FF07F08B4E700EBC313441CFD
:108A30009BB202EBC0024C8096E70CEBC3130CF127
:108A400001019BB202EBCC02AEF802108CE7B3F549
:108A5000007FBBD004F10C025B0096421FFA83F842
:108A60003B6816D023489B6883424FEAC80135D142
:108A700030464CF079F80028A8D01D4A218EE062DB
:108A8000A4F83280C0E701463846984788E7E66A8E
:108A9000E0E7174A1B68019293424FEAC80022D1CF
:108AA00040F0DCF9019A002890D0D6F800C0716837
:108AB000B368D6F80CE0C0F80CE0C0F800C0416024
:108AC0008360D6F810C07169B369D6F81CE0C0F8AD
:108AD0001CE0C0F810C041618361CFE70A46384608
:108AE00031469847C7E7014638469847019ADAE782
:108AF00045760200357602002DE9F04F958E4FF64F
:108B0000FF739D4285B014460746884602F10C0B60
:108B10003BD0D36AEA0903EBC20305F07F025E682B
:108B200036F83230A38606EBC2064FF6FF73F380A9
:108B3000A28E00219A423171B1465CD0E36AD1091C
:108B400003EBC10302F07F0A596831F83A30A3867B
:108B500001EBCA0100234FF6FF700B71C880C8F803
:108B60000010F2807B88834200F08380E16AD8099C
:108B700001EBC00103F07F03496801EBC3034846E2
:108B8000DD807A8005B0BDE8F08F118E1568002970
:108B900075D1528E002A00F01F810123E66AC24A75
:108BA00023864FF480604FF080092B681B68934246
:108BB00040F00A8140F052F9258EE36A7060013D71
:108BC000ADB203EBC5020028516808BF4FF00009A1
:108BD0000020A6F80090708029B133F8353056880F
:108BE000B34200F297804FF00009012348462371F9
:108BF00005B0BDE8F08F208E23680193002862D174
:108C0000628E002A00F0EA800123D4F82CA0A64A44
:108C100023864FF480604FF0800B019B1B681B681C
:108C2000934240F0D58040F019F9228ED4F82CC040
:108C3000CAF80400013A92B20CEBC203002859684A
:108C400008BF4FF0000B0020AAF800B0AAF80200FD
:108C50000029C8D03CF83200B3F802A05045C2D970
:108C60000AEBC2120AF1010092B201EBCA0158806C
:108C700070E748463D807A8005B0BDE8F08FE36A32
:108C80004A1E92B203EBC20E1846DEF804602EB103
:108C9000BEF802C033F83290E14543D8628E91426B
:108CA00054D0814A4B1C9BB2B3F5007F00EBC10648
:108CB000238615BF4FF480604FF47E704FF080091B
:108CC0004FF07F0971E7E36A421E92B203EBC20CD8
:108CD0009E46DCF804A0BAF1000F06D0BCF80210E2
:108CE000029233F832208A4226D8628E90424AD0CD
:108CF0006D4A431C9BB2B3F5007F0EEBC00A23867E
:108D000015BF4FF480604FF47E704FF0800B4FF032
:108D10007F0B82E706EBC515731CADB201EBC606EF
:108D2000538002E70CEBC2150CF10103ADB206EB68
:108D3000CC06AEF80230F8E6029A4B1C01EBC212E8
:108D400092B20AEBC101ACF8023003E7B2F5007F42
:108D50003FF449AF52009B451FFA82F940D02A6880
:108D60005248966886424FEAC90140F09180184601
:108D70004BF0FAFE00283FF436AF4B4A218EE062FA
:108D8000A4F832908EE7B2F5007F3FF42CAF52008A
:108D90001FFA82FA019A9B4511684AD0D1F808B0AF
:108DA000424A93454FEACA0177D118464BF0DCFEA0
:108DB0008646BEF1000F3FF416AF3B4A208EC4F842
:108DC0002CE0A4F832A094E7014628469847F3E641
:108DD00001460198984728E7E36ABBE7E36AD6E7CC
:108DE0002968314A0E689642CDE901324FEAC9003E
:108DF0005ED140F033F8DDE9013200283FF4F3AEF4
:108E0000D3F800C05E689968D3F80CE0C0F80CE0B5
:108E1000C0F800C046608160D3F810C05E699969EF
:108E2000D3F81CE0C0F81CE0C0F810C046618161B6
:108E3000A4E71D4AD1F800B09345CDE902324FEACC
:108E4000CA003BD140F00AF8DDE902328646BEF1A5
:108E5000000F3FF4C8AE18685968D3F808B0D3F8CB
:108E60000CC0CEF80CC0CEF80000CEF80410CEF83E
:108E700008B018695969D3F818B0D3F81CC0CEF8F7
:108E80001CC0CEF81000CEF81410CEF818B095E73C
:108E90000A4628461946B0476CE70A460198194623
:108EA000D847864685E700BF457602003576020042
:108EB00001462846B047DDE901329EE701460198A8
:108EC000D847DDE902328646C1E700BF2DE9F84305
:108ED00007464068BD68032D884600F1080613D890
:108EE0005FFA85FC002D77D00CF1FF3456FA84F43C
:108EF000C31D002213F8011F002908BF42F0010220
:108F0000A342F7D1002A40D000237355D7F8009030
:108F1000BE68D9F80830A3B106F1070C8444DA889A
:108F200096420BD13EB3C21DDC1D01E0944522D018
:108F300012F8011F14F8015FA942F7D01B68002B3B
:108F4000EDD1B6F5803F7D68D9F8004034D2236872
:108F500028489B68834206F1090140D128464BF01E
:108F600003FE034643B33A68DE809168196000212E
:108F70009360796002E09A8801329A800522C8F8ED
:108F8000003088F80420BDE8F883022388F8043014
:108F9000037A88F80030BCF1010F08D0437A88F8D2
:108FA0000130BCF1020F02D0837A88F8023000232E
:108FB00008F80530BDE8F88323680F4A5B689342E0
:108FC00013D02946204698473A6800239268012129
:108FD00089F804101A60FFDE02230B71E7E70A46E6
:108FE0002046294698470346BCE728463FF050FFF5
:108FF000EAE700BF357602003D7602002DE9F04732
:1090000045684DB18368EA88934204460E4605D010
:109010001D440133A3602E72BDE8F0875B00D0F8D9
:1090200000905F1CB7F5803FD9F8008012D2D8F8C5
:1090300000201549D2F808A08A4503F10A021CD184
:10904000114628464BF090FD20B1C780A3686060B0
:109050000546DDE7D8F800300C4A5B68934208D13A
:1090600028463FF015FF0122002389F804206360A1
:10907000D2E7294640469847F5E729464046D0477B
:109080000028E2D1E6E700BF357602003D76020017
:1090900003792DE9F0470C46D907054637D4DA069F
:1090A00024D413F0600F1DD02E884FF6FF77BE42F8
:1090B00015D0E36AF20903EBC20306F07F09D3F887
:1090C000048008EBC900B246C6882146FFF7E0FFDE
:1090D000A38E28F83930BE42A4F834A0E9D14FF06D
:1090E000FF332B6000232B71BDE8F0872A884FF6F1
:1090F000FF718A4237D0E16AA68ED00901EBC00128
:1091000002F07F00496821F83060A286C9E7A068B4
:109110002A6826680028C2D0824216D0014600681C
:109120000028BCD08242F9D18288013A92B2828072
:10913000002AB4D103680B6033680C4A5B68934221
:109140000CD13FF0A5FE2B79A9E78288013A92B2B3
:109150008280002AA3D10368A360EDE70146304670
:1091600098472B799BE700231B80FFDE3D760200AA
:109170002DE9F04F89B008AB03E90300069B00938B
:10918000002B53D01B8801939046079A0292DA096C
:1091900003F07F03DB000493019B4FF6FF7AD200BC
:1091A000534503924FF0000540D0029BD3F82C901A
:1091B000039B09EB0302049B5768FB18059335D00A
:1091C000DE8800243146CA09514509EBC20201F08C
:1091D0007F0004F1010405D0536813EBC00301D0F4
:1091E000D988F0E7AC4221D9009B1A79402A12D1E4
:1091F00005B331462C4602E0013CD1881BD0C1F3B7
:10920000CF10514509EBC00001F07F0203D0436845
:1092100013EBC202F0D19C4841464BF08DFD002873
:1092200073D0019B534505F10105BED1002009B063
:10923000BDE8F08F059A11792029ECD114885445A6
:10924000E9D0E20909EBC20204F07F01546814EB93
:10925000C104E0D00127B4F806B08FB9D345DAD005
:109260004FEADB1309EBC3030BF07F0B5C6814EBD5
:10927000CB04D0D087F00107B4F806B0002FEDD0B2
:109280002379042B5DD0052B5FD0022BE6D120463D
:109290004BF075FD0428E1D123786E2BDED1637885
:1092A000612BDBD1A3786D2BD8D1E378652BD5D199
:1092B000D345B0D04FEADB1009EBC0000BF07F01C3
:1092C000406810EBC101A6D00979081F012801D917
:1092D0000229A0D1002D00F0CA8030462C4602E0C1
:1092E000013CD88835D0C0F3CF12504509EBC202FB
:1092F00000F07F0103D0536813EBC103F0D10020CD
:1093000041464BF019FD00288BD1CB46002D00F0D3
:10931000B080B0464FF6FF7103E0013DDA887AD0A5
:109320009046C8F3CF1388450BEBC30308F07F02C8
:1093300003D05B6813EBC203EFD1012009B0BDE895
:10934000F08F2468002CA2D188E72468E0880834D4
:10935000A0E7194608792028D1D10C885445CED0F1
:10936000E00909EBC00004F07F01446814EBC1047C
:10937000C5D0B4F806B08FB9D345C0D04FEADB13DF
:1093800009EBC3030BF07F0B5C6814EBCB04B6D086
:1093900087F00107B4F806B0002FEDD02379042B35
:1093A0002ED0052B28D0022BE6D120464BF0E7FC2F
:1093B0000428E1D123786E2BDED16378612BDBD1D9
:1093C000A3786D2BD8D1E378652BD5D1D34596D032
:1093D0004FEADB1209EBC2020BF07F01546814EB79
:1093E000C1003FF419AF0279042A11D0052A0BD02D
:1093F000022A18BF00200FE72468E0880834D7E766
:109400002468002CD1D1B7E754F83100083003E7C5
:1094100054F8310000E7059D9D421C462CD0019F69
:109420004FF6FF7107E05B6803EBC003A34209D06E
:109430003746DE881D46F3098E420BEBC30306F068
:109440007F00F0D10197EA804FF6FF739A4208BF80
:10945000DDE90032029D08BF5A8020462946FFF709
:1094600017FEAB8E23800120A5F8348066E70599AE
:1094700070E7DDF80480059C009B1E804FF6FF73AB
:1094800032460193E0E700BF2CB307002DE9F04F0F
:109490000E46097885B02B29009000F0FD802D291B
:1094A00040F0B8807178012001900644A1F13000AD
:1094B000C0B2092800F2B680DFF8F893C0B20021EC
:1094C000002400254FF0993816F801BF2418ABF19D
:1094D0003007FFB241EB05054FEA850E092F6FEA11
:1094E00007024FF0FF334FEA840C4EEA947EF8B245
:1094F0004FF0000100F21E81A94508BFA0450BD323
:109500001CEB040C4EEB050E1CEB0C044EEB0E0595
:10951000AB4208BFA242D7D24FF0000A0023204638
:1095200029460A224AF058F9A946A0461FFA8AF3AA
:10953000B9F5200F03F1010A08BFB8F1000F044686
:109540000D460FFA8AFAE9D2092F0BD802339B1B7A
:1095500006EB030A16F801BFABF13002092A0FFA35
:109560008AFAF5D9BBF12E0F00F0B6800BF0DF03BD
:10957000452B60D0BBF1000F56D10AF126034C2BCE
:1095800000F2FC80002D08BFB4F5000F80F0F680DB
:1095900007EE904ABAF1000FF8EEE77A40F36481E3
:1095A000BC4B1AF0010F1CBF93ED007A67EE877A6F
:1095B0005FEA6A0223D0D00744BF93ED017A67EED9
:1095C000877A5FEAAA021AD0D10744BF93ED027AE4
:1095D00067EE877A5FEAEA0211D0D20744BF93EDC3
:1095E000037A67EE877A5FEA2A1A08D0BAF1010F88
:1095F0000CBF93ED047A93ED057A67EE877A019BB1
:109600000BB1F1EE677A009A0123C2ED027A137072
:1096100010460DE000200190A1F13000C0B20928F1
:109620007FF64AAF2E2953D0009A002313701046BC
:1096300005B0BDE8F08F96F801B0BBF12D0F36D024
:10964000BBF12B0F00F0F080ABF13003DAB2092A46
:1096500006F101068ED80AEB0302B2F59A7F00F3F9
:10966000D780002706E002EB400303EB0A02B2F5C5
:109670009A7F79DC16F801BFABF13002D1B209292B
:1096800003EB8300EFD9002F40F0C7809A44BBF171
:10969000000F3FF472AFC7E7717800200190A1F18D
:1096A0003000C0B2092806F10106BBD804E796F8DD
:1096B00002B0ABF13003DAB2092A06F102063FF636
:1096C00059AF0AEB0302B2F59A7F4FDC0127D1E7CD
:1096D000002400254FF0000A96F801B0ABF13000ED
:1096E000C0B2092806F101063FF640AF6A4B4FF0C1
:1096F00099329D424FEA850108BF94424FEA8407A0
:1097000041EA94710ED23F1945EB010117EB0708AE
:1097100041EB01090AF1FF3A18EB00040FFA8AFA4B
:1097200049F1000516F801BFABF13000C0B20928BD
:10973000DFD91BE7BBF1000F40F0D280019B8BB15A
:10974000B5F1004F08BF012CBFF4E6AE644265EBF3
:1097500045050223009A1046C2E90245137005B080
:10976000BDE8F08F0323F5E7002F51D000994FF0AB
:109770000042012308468A600B7059E720462946BB
:1097800049F04EFBBAF1000F79DD444C1AF0010F9D
:109790007AD15FEA6A032DD0DF0700F18D805FEA9E
:1097A000AA0327D0DE0700F18C805FEAEA0321D00C
:1097B000DD0700F18B805FEA2A131BD0DA0700F186
:1097C0008A805FEA6A1315D0DB073ED45FEAAA13EA
:1097D00010D0DF073ED45FEAEA130BD0DE073ED499
:1097E0005FEA2A2306D0DD0744D45FEA5A231CBF70
:1097F0002B490020019B13B101F100431946009A47
:109800000423C2E902011046137005B0BDE8F08FD1
:10981000019B0020BBB12349F1E7AAEB030ABBF18E
:10982000000F3FF4AAAEFFE696F802B0ABF13003AA
:10983000DAB2092A06F102067FF60DAFBBF1000F7E
:109840003FF49BAEF0E61849D9E7D4E90A2349F082
:109850001DFBBBE7D4E90C2349F018FBBBE7D4E9B7
:109860000E2349F013FBBBE7CAF1000A3FF4C7AE71
:109870000E4B96E6D4E9102349F008FBB5E7CAF190
:10988000000AB7D00A4C81E7D4E9002349F0FEFA78
:109890007FE700BFC49A070099990100289B070041
:1098A0000000F87F0000F0FF0000F07FAC9A070096
:1098B000E09A070099999919D4E9022349F0E6FA48
:1098C0006DE7D4E9042349F0E1FA6EE7D4E9062311
:1098D00049F0DCFA6FE7D4E9082349F0D7FA70E7DA
:1098E000B5F5801F08BF002CBFF416AE4FF0000A7C
:1098F00038E600BF10B58AB000240A4601230146AD
:1099000001A8ADF804408DF8064029F04DFF08B9D4
:109910000AB010BD01A82BF09FF80AB010BD00BF1F
:1099200038B5234C206800BB224C2068E0B124F0FD
:1099300029FD002835D1206824F00EFDA0B1206853
:1099400024F00AFD27F07EFE1B4A1368B3F57A7FE8
:109950000ADA48B119490C68A04205D0184C0860D1
:1099600044F823000133136038BD28F09FFE154BE7
:109970001A688242F8DA104D18603FF047FA2B68F7
:10998000114AB3F57A7F1060EEDA20680B4C28F0AC
:10999000A7FE2B680A4920605A1C41F823002A6060
:1099A00038BD206824F0EAFC29F0C2FBCCE700BFF8
:1099B0009839012074150120A4280120B428012021
:1099C00004190120943901206C35012010B5064C92
:1099D000206838B124F0D6FC20B92068BDE81040DA
:1099E00024F0BABC002010BD7415012010B5064C3F
:1099F000206838B124F0C6FC20B12068BDE81040D2
:109A000024F0BCBC002010BD7415012070B5584B6B
:109A1000584D93F8322093F8300093F82F1093F8B4
:109A2000314094B0049293F82E20CDE90204CDE9A0
:109A3000002106A8504A9B8D18214BF0ADF82A68EA
:109A4000002A3DD04D4B4E491878002808BF0B46E0
:109A5000002106ACCDE910114A480C940E934A4CF3
:109A60004A4B13910D9412900F93104628F03CFE30
:109A70002C681090002C50D0204628F0C5FE2A6893
:109A8000434C444B1190002A08BF1C46424A434BAA
:109A9000126800924FF480610CAA4148139414F0AC
:109AA000A1FE00213F482AF0D7F83D493D484FF438
:109AB00080622AF09BFA3B482AF034FA14B070BD59
:109AC000394C2068002837D024F030FC374E03464C
:109AD0002068002B18BF1E4624F058FC002306A95E
:109AE0002A680C91CDE9103327491393254B0E9624
:109AF0000F900D911293002AB7D1206800282CD026
:109B000024F040FC48BB206824F026FC28B327F052
:109B10009DFD2C681090002CAED1234E306818B3F8
:109B200024F030FCB0B9306824F016FC044688B14B
:109B300027F006FE2A68A3E706AB1C4A0C931C4BD1
:109B4000114E10491090CDE90E23119013900D96EF
:109B50001291D2E72A68204692E7FFF747FF0028D4
:109B600086D029F0E7FA83E70A4C11908EE700BF10
:109B700078180120983901205C860700843901207B
:109B8000548607002863002048630020F01301205A
:109B90004C86070044860700A428012004190120F0
:109BA000FCFB0020C015012074150120348607003D
:109BB0002CB30700114B186808B128F09DBD10B5F3
:109BC0000F4C2068B8B124F0DDFB38B9206824F0D0
:109BD000C3FB18B1BDE8104027F018BD206850B194
:109BE00024F0D0FB38B1206824F0C8FB18B1BDE8E0
:109BF000104029F081BA002010BD00BF9839012023
:109C000074150120034B186808B128F04BBDFFF70D
:109C1000D1BF00BF98390120114B186808B128F056
:109C20006FBD10B50F4C2068B8B124F0ABFB38B94C
:109C3000206824F091FB18B1BDE8104027F0EABC81
:109C4000206850B124F09EFB38B1206824F096FBC8
:109C500018B1BDE8104029F053BA002010BD00BF74
:109C60009839012074150120114B186808B128F0AB
:109C70001DBD10B50F4C2068B8B124F083FB38B976
:109C8000206824F069FB18B1BDE8104027F0ECBC57
:109C9000206850B124F076FB38B1206824F06EFBC8
:109CA00018B1BDE8104029F02FBA002010BD00BF48
:109CB0009839012074150120114B186808B128F05B
:109CC00033BD10B50F4C2068B8B124F05BFB38B938
:109CD000206824F041FB18B1BDE8104027F0C8BC53
:109CE000206850B124F04EFB38B1206824F046FBC8
:109CF00018B1BDE8104029F021BA9FED030A10BD4C
:109D000098390120741501200000000038B51D4B62
:109D10001B68044663B1012821D0022824D00328FF
:109D200001D0002038BD1846BDE8384028F05CBDA1
:109D3000154D28680028F4D024F024FB0028F0D129
:109D4000286824F009FB0028EBD0012C11D0022C4C
:109D500013D0032CE5D1BDE8384027F0EDBC184600
:109D6000BDE8384028F038BD1846BDE8384028F036
:109D700037BDBDE8384027F0D7BCBDE8384027F0F4
:109D8000D7BC00BF983901207415012038B51D4B90
:109D90001B68044663B1012821D0022824D003287F
:109DA00001D0002038BD1846BDE8384028F028BD55
:109DB000154D28680028F4D024F0E4FA0028F0D1EA
:109DC000286824F0C9FA0028EBD0012C11D0022C0D
:109DD00013D0032CE5D1BDE8384027F0A1BC1846CC
:109DE000BDE8384028F004BD1846BDE8384028F0EA
:109DF00003BDBDE8384027F08BBCBDE8384027F0F4
:109E00008BBC00BF98390120741501202DE9F04169
:109E1000604B196800298AB02DDD5F4B0093012942
:109E200029D003F1A8020229019224D003F5A872D7
:109E3000032902921FD003F5FC72042903921AD061
:109E400003F528720529049215D003F552720629EC
:109E5000059210D003F57C72072906920BD003F50A
:109E600093620829079206D003F5A863092908938D
:109E70001CBFA8330993684617F03AFD061E5BDB4A
:109E8000464FA82303FB067393F89040002C4FD055
:109E9000434C206818B141F00BFB00232360414D77
:109EA000286818B141F004FB00232B604FF44F5099
:109EB00041F0FAFA3C4BA82404FB067493ED000B26
:109EC0000021804627F068FC94ED063B94ED042BBE
:109ED00094ED021B94ED000B4046C5F8008028F07D
:109EE000C9F994ED223B94ED202B94ED1E1B94EDCB
:109EF0001C0B286828F038FA94F84030002B3DD12C
:109F0000A82303FB067393F868205ABB286828F03F
:109F1000AFFB286828F09AFB20B1286828F09AFB4C
:109F2000044670B9286808B141F0C2FA00242C60D8
:109F300020460AB0BDE8F081002420460AB0BDE802
:109F4000F0811A4D1A49C6EB0616314428460E22F6
:109F50004AF02FFF174A00232046AB7313600AB064
:109F6000BDE8F08193ED183B93ED162B93ED141B98
:109F700093ED120B286828F0EDFAC7E794ED0E3B3D
:109F800094ED0C2B94ED0A1B94ED080B286828F037
:109F900067FAB5E760350120E93A0120583A012017
:109FA0007415012098390120C062002084390120F5
:109FB000AC6C0120943901201B491C4A70B5012367
:109FC0001B4D0B70137004463EF020FF19491A4ACE
:109FD0002B680C70106003B170BD184B1C68002C0E
:109FE000FAD1174E174A184BC6F8884347F260005B
:109FF000C6E9002341F058FA144B314693ED000BAB
:10A000002246044623F024FE114B2C6093ED000AF7
:10A01000204624F0C5F90F4B286893ED000ABDE8EF
:10A02000704024F0D3B900BF69350120C816012063
:10A03000741501206A3501206C3501209839012002
:10A0400040100120208607002CB30700C0620020CA
:10A050007C6300207863002070B5284D284C2B7855
:10A06000002B41D0237C002B3CD1264C40F0D2FF6A
:10A070002068012117F094FA08B100232360224ED2
:10A0800040F0D2FF214B306800241C702C7010B1BE
:10A0900041F00EFA34601E4C206818B141F008FA05
:10A0A000002323601B4D1C4A1C481D4B1D491E4E9E
:10A0B00000242C60147004701C4D1D4A1D481C7037
:10A0C0001D4B0C702C601460046021461B483470DA
:10A0D0004FF0FF354FF47A621D6049F067FE184B70
:10A0E0001C6070BDFFF792FC237C002BBDD015488F
:10A0F00029F018FF134829F021F9B6E76A39012041
:10A10000B0150120A815012074150120C8160120E2
:10A110009839012094390120EC390120693501205A
:10A120006A3501200019012084390120FC18012022
:10A13000A4280120B4280120CC62002004190120A9
:10A14000E8390120C0150120374B1B78002B4DD07A
:10A1500010B5364C2378013B012B86B047D900213E
:10A16000334A344B127834481B6800788DF8041059
:10A17000A2F10402B2FA82F252098DF805208DF89C
:10A1800006002BB12D4B1B68002BD4BF00230123ED
:10A190002B4A8DF8073001A91368029303A815F024
:10A1A000CBF99DF80C40FCB93EF030FE254A264B19
:10A1B0001268801A984217D99DF80D301BBB234BAB
:10A1C0001A784AB33EF022FE214A049B1268801A94
:10A1D000984209D39DF8143013B11E4B01221A7016
:10A1E000FFF73AFFFDF77AFD06B010BD7047134B3D
:10A1F000186815F09BF958B92178013901298CBFED
:10A2000000210121ACE7114A114B14701C60EBE7EF
:10A21000032323700021A3E701221A703EF0F6FD0C
:10A220000B4B1860E0E700BF693501206A3501205B
:10A230005CF7002098390120C5180120A0390120C1
:10A24000F81801206C3501201FBF02000019012001
:10A25000FC1801205FA1002038B5354D2B68013373
:10A260005DD1344B1B78002B59D1334B33491B68DC
:10A27000334A9B680C681268324992680868191B57
:10A280000029C8BF1C46111B83680029C8BF14469B
:10A290001A1B002AC8BF1C463EF0B8FD40F6B73373
:10A2A000001B98423BD9284B1B68B3F5FA7F1ADC98
:10A2B000264B93ED007AF2EE047AB4EEE77AF1EEF3
:10A2C00010FA2CDB2249234A01230B7013703EF055
:10A2D0009DFD214B2149224A1B6808600221117013
:10A2E000F3B1052314E01A491A4A01230B701370C5
:10A2F0003EF08CFD184B1949194A1B680860032170
:10A30000117023B9174B1B680BB9FDF749FB0623E6
:10A31000154A2B60136803F59C530833136038BD4E
:10A32000104B1B68002BDCD1FDF73AFBD9E700BFCF
:10A33000C86200204414012084610020E83201201A
:10A34000886100208C610020A0390120F8180120CC
:10A3500069350120C8160120741501206C350120D3
:10A360006A350120983901203C16012030B5374C60
:10A3700023680F33042B87B001D907B030BD3EF0FE
:10A3800045FD334D0146284613F014FD0028F4D056
:10A39000304A314B126819688A4204D02F4991F82B
:10A3A000280000282FD13EF031FD0146284813F047
:10A3B00001FD0128E1D03EF029FD0146244813F0BB
:10A3C00029FD2A78042A11D821686FF00A039B1A04
:10A3D0008B4232D0224A00211160224A2360136846
:10A3E00003F59C530833136007B030BD2368013375
:10A3F00023D01B4B00221A603EF008FD1A4A4FF092
:10A40000FF331060E9E791ED000B91ED021B91ED38
:10A41000082A1A608DED040B8DED001B8DED032ACB
:10A420003EF0F4FC9DED001B01469DED040B9DEDFF
:10A43000032A284613F07AFCB5E70A4A136803F5A5
:10A440009C530833136007B030BD00BFC8620020C2
:10A45000C0610020C8180120601501207818012073
:10A46000F43201203C160120E832012070B51C4D69
:10A470008AB0002428460894CDE90244CDE904447A
:10A48000CDE90644CDF8234031F0E6FD02462846EA
:10A49000019231F0E3FD1F26019A014602A849F01E
:10A4A0005DFC02A93246284631F0DAFD3C352146F2
:10A4B000324602A849F07AFC284631F0CDFD0190E1
:10A4C000284631F0CBFD019A014602A849F046FC2E
:10A4D000324602A9284631F0C3FD0AB070BD00BF64
:10A4E0009C8401202DE9F0411E4D2B784BB90121B0
:10A4F0000C2041F069FFBDE8F04101210C2041F042
:10A50000E7BF1948002131F0E5FD174831F0A8FEFA
:10A51000164834F0DBFDE0B9144EDFF85880144FD4
:10A520000524304634F0D2FD034632202BB1C8F862
:10A5300000763EF077FC013CF3D12B78002BD6D08F
:10A540000A48002134F098FD0848002134F098FDB5
:10A55000CDE7064834F0EEFD0146044834F0D4FD62
:10A56000DAE700BF801401209C8401205C7E01207A
:10A570003546526E000001402DE9F047544E554DCE
:10A580003768D7F80080404641F0C0FF034645F0E9
:10A59000010503244FF4FA405BB9012C74D0A8479D
:10A5A000404641F0B3FF0346013C4FF4FA40002B14
:10A5B000F3D001237B71484F464DD7F80080D8F87F
:10A5C0000090484641F0A2FF034645F001050324F0
:10A5D0004FF4FA405BB9012C66D0A847484641F0D9
:10A5E00095FF0346013C4FF4FA40002BF3D00123C2
:10A5F00088F80530DFF8EC90364DD9F80080D8F8AF
:10A6000000A0504641F082FF034645F001050324B7
:10A610004FF4FA405BB9012C22D0A847504641F0D4
:10A6200075FF0346013C4FF4FA40002BF3D00123A1
:10A6300088F8053033681B793BB1284A136803F565
:10A640009C5308331360BDE8F0873B681B79002BEF
:10A65000F3D1D9F800301B79002BEED1BDE8F0879B
:10A660003EF0D4FB98F80530002BE3D01C4BD8F813
:10A6700008201B68801A9842DCD33EF0C7FBA8F87C
:10A680000440C8F80800D5E73EF0C0FB7B79002BFA
:10A6900091D0134BBA681B68801A98428BD33EF056
:10A6A000B5FBBC80B86086E73EF0B0FB98F805309B
:10A6B000002B9FD00A4BD8F808201B68801A9842BC
:10A6C00098D33EF0A3FBA8F80440C8F8080091E72F
:10A6D0008461002070A00700886100203C160120E2
:10A6E000786100208C610020424B1B682DE9F0410D
:10A6F0001E68414D304641F009FF034645F0010513
:10A7000003244FF4FA405BB9012C0BD0A847304624
:10A7100041F0FCFE0346013C4FF4FA40002BF3D01D
:10A72000002600E02646354B334D1B681F6838462F
:10A7300041F0ECFE034645F0010503244FF4FA40D6
:10A740005BB9012C0BD0A847384641F0DFFE034629
:10A75000013C4FF4FA40002BF3D0002500E02546E1
:10A76000274B254F1B68D3F80080404641F0CEFEB2
:10A77000034647F0010703244FF4FA405BB9012C6C
:10A780000AD0B847404641F0C1FE0346013C4FF4B1
:10A79000FA40002BF3D000249EB11A4E3378DBB17F
:10A7A00065B1194D2B78F3B124B1184C23785BB106
:10A7B000BDE8F081154B1C70BDE8F081124B1D7097
:10A7C000F2E7104B1E70EBE73EF020FB104A01232E
:10A7D00010602370BDE8F0813EF018FB0D4A0123A4
:10A7E00010603370DCE73EF011FB0B4A0123106070
:10A7F0002B70D9E78461002070A0070088610020D9
:10A800008C6100203D150120441501204C150120CC
:10A8100050150120401501204815012038B50F4A78
:10A820000F4B126819688A4215D00E491A6000232E
:10A830000B6001220C4C0D4B204600251A70E5766A
:10A8400036F044FC2046012136F06CF94FF001133C
:10A85000C4E9045338BD0022ECE700BFC862002001
:10A86000BC280120F4320120E415012070350120BC
:10A8700038B504460130094D07D0094A2C601368E9
:10A8800003F59C530833136038BD2B680133F4D0B3
:10A890003EF0BCFA034B1860EFE700BFC86200202F
:10A8A0003C160120E83201201A4A13680E2B28D0EA
:10A8B0000D2B15D0083312D0174B184993ED007AA1
:10A8C0000B68F1EE047AB4EEE77AF1EE10FA03F5D4
:10A8D0009C5394BF0B200A20083310600B60704714
:10A8E0000F4B10491A680B68013A9A420B4A14BF81
:10A8F000013300230B60136803F59C530833136086
:10A90000704706490B6803F59C5308335A200B60C7
:10A9100010607047C8620020F81801203C16012022
:10A9200018630020AC150120F8B51B4D1B4F1C4EC1
:10A930001C4C1D491D4A1E4800233B7033702B7070
:10A940001C4D23700B701C4C13701C491C4A2B703F
:10A950001C4D236013600B801B4C1C49027C2B6038
:10A960004FF0FF3525600B8092B9194C237803B95D
:10A97000F8BD184D40F04EFB2868032116F010FE7C
:10A9800008B100232B6040F04FFB00232370F8BD7B
:10A99000103028F0D3FCE8E7D57C0020D9E6002071
:10A9A0001C7C0020FB7D0020FA7D00201B7C002009
:10A9B00054E60020D8E60020A0F70020A4F70020ED
:10A9C000D87C0020289E0020B8600020F06B00207A
:10A9D00032E70020A81501200378462B01D0002083
:10A9E000704710B54378572B044627D114490822E5
:10A9F0004AF0CDF908B9012010BD124906222046BF
:10AA00004AF0C5F90028F6D00F4920464AF094F9DB
:10AA10000028F0D00D4920464AF08EF90028EAD0EF
:10AA20000B4920464AF088F90028E4D0094920461D
:10AA30004AF082F9B0FA80F0400910BD002010BD44
:10AA40007C860700888607009086070098860700A6
:10AA5000A0860700A88607002DE9F04362498DB063
:10AA6000082204464AF093F900284CD15F4F3B7806
:10AA700003F0FF06002B51D1083420462C214AF068
:10AA80004EF900284AD000F1010948462C214AF02D
:10AA900046F90546002841D020460A2231464BF0AF
:10AAA00043F9A5EB0903082B80464AD1D9F80000E9
:10AAB000D9F8041002AB03C302A801A98DF81060F5
:10AAC00013F094FD00283CD008F1FF33B3F5CC2FF0
:10AAD00056D26878013590B1DFF85C9173264BF05F
:10AAE0002DF9044630464BF029F9844207D115F878
:10AAF000010F00285DD019F8016B002EEFD13C4802
:10AB0000FCF76EFD0DE03B49062220464AF03FF976
:10AB100050B9364B1B78012BDDB218D03648FCF704
:10AB20005FFD0DB0BDE8F083344920464AF004F9DA
:10AB3000C8B92E4B1B78022BF0D1314B01221A7071
:10AB4000EFE73048FCF74CFD0DB0BDE8F08301465F
:10AB50000A22A01D4BF0E8F82B4B1B6883420FD153
:10AB60002A4B1D70DDE72A4920464AF0E5F868B90E
:10AB70001E4B1B78032BD1D1264B01221A70D0E734
:10AB80002548FCF72DFD0DB0BDE8F0832349204694
:10AB90004AF0D2F848B1224920464AF0CDF80028C0
:10ABA000BFD1204B01221A70BBE71F4B01221A7044
:10ABB000B7E799F80030002BA1D1134B1B4A01983D
:10ABC000C3F8008005A901233B70106013F0D8FC86
:10ABD000174A05AB08A8102149F0DEFF08A982B288
:10ABE000144832F06DF89CE77C860700D9E6002017
:10ABF000C486070088860700B08607009086070095
:10AC0000D57C0020B8860700FC7D00201C7C00203D
:10AC100098860700FB7D0020BC860700A086070001
:10AC2000A88607001B7C0020FA7D0020DC7C002029
:10AC3000CC86070020180120D986070000000000FC
:10AC400083490978012900D070472DE9F0411C465D
:10AC50009CB0804B1546CEB2412200210BA81E703D
:10AC600049F0A4F8402C2246294628BF40220BA8D0
:10AC700049F074F80BA84AF082F8431E70B10BAA91
:10AC8000754F1A4412F801190A39C9B227FA01F0AE
:10AC900016296FEA000003F1FF3310D96F4F3B789C
:10ACA000BBB16F490BA805224AF071F860BB062CB6
:10ACB0002AD86C4B01221A701CB0BDE8F08110F04C
:10ACC0000100EBD1591C5070DCD1644F3B78002B54
:10ACD000E7D1DFF8E88198F80030022B73D0402CE0
:10ACE00000F28280604904220BA84AF050F8B0B903
:10ACF0005E4C237803F0FF05002B4BD05C495D4888
:10AD0000042231F0DDFFD7E75B4E338814FA83F37A
:10AD1000B3F5005F49DD594B01221A70CCE7584961
:10AD200004220BA84AF033F8D8B1564907220BA8E1
:10AD30004AF02DF8002840F0C7809DF83330202BD2
:10AD40000DF1330003D110F8013F202BFBD0182167
:10AD500014F038F898B94C494C48092231F0B0FF4A
:10AD6000AAE79DF83030202B0CA803D110F8013F42
:10AD7000202BFBD0182114F025F8002834D03B4CB0
:10AD8000237803F0FF052BB139494048042231F004
:10AD900097FF91E73E4B40220BA918464AF009F86D
:10ADA000012280F84050227086E73A4B30882946CD
:10ADB00013FA80F0224648F0D1FF338814FA83F367
:10ADC0009BB2338078E7082C14D833490BA849F09C
:10ADD000B3FF20B131490BA849F0AEFF50B921466D
:10ADE0000BA8FFF739FE67E72D492848052231F007
:10ADF00067FF61E798F80030022B7FF45DAF294BC5
:10AE00001A7802F0FF00002A7FF456AFDFF8B08016
:10AE1000254AD8F8007012682744974200F2C4808F
:10AE2000224A234ED2F800C0318814FA81F1B1F5DC
:10AE3000805F40F2BF80DFF88CC0DCF80010013189
:10AE400000F0CA801B4A1C49116001221A7033E7C6
:10AE500081140120B8C1002009004000ACA10020ED
:10AE6000E08607000DC60020F8860700F97D002067
:10AE7000DC8B070058170120B0C100204DA1002035
:10AE800000870700088707001087070020180120A7
:10AE9000947C0020B0A1002090860700A0860700C7
:10AEA000F0860700D8E60020FC7D0020A0F70020F7
:10AEB000A4F70020D87C0020E8860700D9E600200F
:10AEC000289E0020B8600020A7490BA849F034FF55
:10AED00000285CD0A54905220BA849F058FF00289E
:10AEE00055D0A34905220BA849F051FF00284ED0A8
:10AEF000A0490BA849F020FF002848D09E490BA884
:10AF000049F01AFF00287AD09C490BA849F014FF99
:10AF1000002874D09A4905220BA849F038FF002870
:10AF200000F0AA80974906220BA849F030FF0028BC
:10AF300000F0A280944905220BA849F028FF0028C0
:10AF400000F0CD80914906220BA849F020FF00288F
:10AF500000F0C5808E4905220BA849F018FF002893
:10AF600000F09D808B4906220BA849F010FF0028B5
:10AF700000F0958088490BA849F0DEFE00284BD0F0
:10AF80000BA8FFF729FD00283FF496AE27E7834C76
:10AF9000237803F0FF050BB9814BFCE68149824819
:10AFA000052231F08DFE87E6804A81491160012239
:10AFB0001A7081E67F4B03EB0C333088294613FA75
:10AFC00080F0224648F0CAFE3388C8F8007014FAB0
:10AFD00083F39BB233806FE63188DFF818E2754B5C
:10AFE00089B2AEF800101168CCF80010116881F039
:10AFF000010111603080126803EB0233DDE76E4C13
:10B00000237803F0FF05002B3FF4C4AE6B4966487C
:10B01000092231F055FE4FE6694B186847F0DEFE15
:10B0200003AE04460D4645EC104B32460221042087
:10B030003DF0D6FE48A3D3E900232046294647F039
:10B040006DFD47A3D3E9002347F020FF48F0CEF978
:10B050006428A8BF642020EAE0735A4A00961821A9
:10B0600005A849F099FD05A849F089FE05A982B215
:10B070004D4831F025FE1FE69DF82D30532B0CBFB7
:10B08000062005200BAB1844182113F09BFE002866
:10B09000B5D14D4944480D2231F012FE0CE64B4D1E
:10B0A0002B7803F0FF07002BB0D19DF82D30532BE8
:10B0B0003ED00DF131042046182113F083FE002804
:10B0C000E7D021463E46424B424C18221846267095
:10B0D00049F06FFE0021012201762A70ECE53B78F1
:10B0E000002B93D13C4B1D78002D8FD19DF82D3036
:10B0F000532B27D00DF131042046182113F062FEA6
:10B100000028C6D021462E46344C354B354D1E7096
:10B110001822204649F04DFE334E3448344900236E
:10B120000122338023762B7003700A703A70C3E5D6
:10B130000DF132042046182113F044FE0028A8D057
:10B140002146C0E70DF132042046182113F03AFEE3
:10B1500000289ED02146D7E76666666666660A4086
:10B16000721CC7711CC75B401C870700248707003F
:10B170002C87070034870700448707004C870700A7
:10B1800060870700688707008087070088870700B7
:10B190009087070098870700A0870700CDC100208F
:10B1A00060A100203C87070020180120D87C0020E7
:10B1B000BC86070030C60020F97D002054870700B8
:10B1C000AC280120A887070070870700D0C50020A1
:10B1D000F4C50020369E00208214012010C60020F5
:10B1E000379E00204DA10020B0C100200DC60020D8
:10B1F0004EA10020F06B002008B5082209490A483A
:10B2000031F05EFDFFF790FBC8203DF00BFEFF2103
:10B210000020FCF76FF857210020FCF769F8FCF7D5
:10B2200051F800BFB487070020180120124B1349C2
:10B230000122002030B45A600325DA600424C3F8E8
:10B24000040541F28830C3F80855C3F810454FF49F
:10B250008035C3F8400560244FF08060C3F80022B9
:10B26000C3F8045381F81A43C1F880010860044907
:10B2700030BC0A701A60704700A0014000E100E095
:10B28000117E002070B5304C304D314882B013F043
:10B29000BFFD40F24C43032201212E48C4F8005662
:10B2A00020F094FD2C4BC4F8005640F24C4619781F
:10B2B000284840F24C43032221F022FB334603226C
:10B2C00004212448C4F8005620F054FEC4F8005667
:10B2D0000323002201211F48009620F08DFEC4F8B0
:10B2E00000560323012200211A48009620F084FE14
:10B2F000C4F800560323022200211648009620F0CD
:10B300007BFE03231A46C4F800560021114800961C
:10B3100020F072FEC4F80056032300210D48009669
:10B32000062220F069FE0D4BC4F80056197809B1C9
:10B3300002B070BD33460322064821F081F9C4F8FB
:10B34000005602B070BD00BF000001403546526E8D
:10B35000007E0020F8320120D4620020D562002057
:10B360004FF0102310B5D3F80C4214F0010470D143
:10B3700001211E2041F028F821461E2041F0A8F8A6
:10B3800001211F2041F020F821461F2041F0A0F8A4
:10B39000404B1B78002B54D03F4B9FED407AD3EDB0
:10B3A000007A3F4B3F4A1B68F8EEE77A002B27EE06
:10B3B000877AC2ED017A82ED027A0ADD07EE903AD1
:10B3C000394AF8EEE77A012382ED027A1370C2ED72
:10B3D000017A364A364BD2ED007AF8EEE77AB3EED0
:10B3E000047A37EEC77A01211E2083ED027AC3ED7D
:10B3F000017A41F06DF805203DF014FD2D4836F03E
:10B400005BFA2C4836F028FD2A4836F069FA2A4BB8
:10B410002A4801241C7016F021F9294B1C703DF0BC
:10B42000F5FC284A284B1060DB68D9010AD43EF0AD
:10B4300005FF264BA0FB0301830A43EA8153244AFC
:10B44000136010BD234B1A68D207F0D55B689B09C7
:10B45000F5E7214B0122C3F80425D3F80024002A84
:10B46000FBD04FF010236FF001011B4AC3F80C1200
:10B47000D2F80034002BFBD000231749C2F8043562
:10B48000D1F80034002BFBD00A203DF0CBFCFBF7B9
:10B4900019FF00BF6C63002070630020EC51783FFF
:10B4A0007C390120E460002050610020746300209A
:10B4B000CC60002038F7002034F70020207C0020EA
:10B4C0005DA10020C8C10020F0ED00E040420F0067
:10B4D000309E0020001000E000E00140104A114BB7
:10B4E000114810B50021114C11704FF47A621960A7
:10B4F000216048F05BFC0E48037C6BB90D4C3FF0BB
:10B5000089FD2068022116F04BF808B10023236062
:10B51000BDE810403FF088BD103027F00FFFEDE789
:10B5200068390120B428012004190120A428012031
:10B5300074350120A81501202DE9F0430024BDB089
:10B54000374B049401464FF47A75224607A8ADF8AC
:10B550001C408DF81E400595039328F02DF920B965
:10B56000002528463DB0BDE8F0832E494FF48062A7
:10B5700007A828F081F9064607A827F0DFFEB6F5F0
:10B58000806FEDDB284E009502A9019125480294B9
:10B59000334610AA4FF4806113F0ECF905460028F9
:10B5A000DFD0224BDFF89880214FDFF8989010A968
:10B5B0001846172249F0FDFB03461F22404616A9F4
:10B5C000DC7549F0F6FB88F81F403846DFF87880D4
:10B5D0001F221EA949F0EDFBFC770F22154F26A96B
:10B5E000484649F0E6FB0F222AA9404689F80F4059
:10B5F00049F0DFFB0F2238462EA988F80F4049F0AA
:10B60000D8FB029A0C4BFC731A6012B1013A56F83F
:10B6100022200A4B28461A603DB0BDE8F08300BFE7
:10B62000589A0700FCF70020041901207016012029
:10B6300050160120A8160120A4280120B4280120BA
:10B6400088160120B81601204016012070B50C4E56
:10B6500005463FF0DFFC3068294615F089FF0446B7
:10B6600020B93FF0E1FC3368204670BD29463068C0
:10B6700015F08EFF30603FF0D7FC204670BD00BF54
:10B68000A815012030B5254B1C788BB004BB0546AE
:10B690000320FFF7DBFFD8B12149ADF8044001A832
:10B6A00023462A468DF8064028F07EF8B8B11C499A
:10B6B000ADF804402A46012301A88DF8064028F081
:10B6C00073F8F8B917491848072231F0F9FA0BE076
:10B6D00016491548042231F0F3FA0BB030BD144975
:10B6E0001148092231F0ECFA124C3FF093FC20682B
:10B6F000032115F055FF08B1002323603FF094FCAF
:10B700000BB030BD01A829F0A7F90028DAD00A490A
:10B710000548072231F0D4FAE6E700BF8214012081
:10B7200008670020C087070020180120DC8B070075
:10B7300010870700A8150120C887070010B5084C1E
:10B7400082B001903FF066FC2068019915F028FF57
:10B7500008B10023236002B0BDE810403FF064BC94
:10B76000A81501202DE9F0433E4B3F4C3F49D3F84B
:10B7700000803F4D3F4E0128BDB004BF25460E4618
:10B78000B8F1000F54D107460320FFF75FFF0028F0
:10B790004ED0394B394A3A4C3A49CDF80480012F02
:10B7A00018BF1A4604A843464FF47A77ADF81080C4
:10B7B0008DF812800297009427F0F6FF9DF8103064
:10B7C000002B40D0DFF8C890DFF8C8802E4F04E08F
:10B7D00011A827F0B3FDC8F8007600224FF47A7361
:10B7E00004A911A80F93CDE90D42ADF844208DF8BE
:10B7F000462028F0FFFA9DF844300BB313F0D00F29
:10B80000E6D11AA9402211A829F04AFD1AAB2AA8AC
:10B810002A46462149F0C0F9431E442BD8D882B2AB
:10B820002AA9484631F04CFA0A203DF0FBFACFE74E
:10B83000164917480C2231F043FA3DB0BDE8F083B9
:10B8400004A827F07BFD0320FFF778FF304649F07E
:10B8500096FA314682B20E4831F032FA3DB0BDE878
:10B86000F08300BFA8150120E4870700F0870700D8
:10B87000D0870700DC870700C09B070034A00700C3
:10B88000589A0700086700203546526EF88707006F
:10B8900020180120000001402DE9F0473C4B1C68B6
:10B8A000ADF5287D24B90320FFF7D0FE054640B949
:10B8B00038493948042231F003FA0DF5287DBDE8F6
:10B8C000F0872346354E364A364904944FF47A774A
:10B8D00007A8ADF81C408DF81E400597039627F089
:10B8E00063FF9DF81C30002B4ED0DFF8CC90DFF8C2
:10B8F000CC802D4F05E014A827F020FD2B4BC3F87A
:10B90000007600224FF47A7307A914A8CDE91062DB
:10B91000ADF850208DF85220129328F06BFA9DF864
:10B92000504014B314F0D004E5D10DF1740A51461F
:10B930004FF4807214A829F0B3FC1B9A0192002DD9
:10B9400014BF4B4643461A4ACDF800A04FF49671F7
:10B950005DA849F021F95DA982B20F4831F0B0F934
:10B960000A203DF05FFA2546C5E707A827F0E6FC68
:10B970000320FFF7E3FE0F490748032231F0A0F947
:10B980000DF5287DBDE8F0870320FFF7D7FE8FE790
:10B99000A8150120DC8B070058170120589A0700D2
:10B9A00028860700086700203546526E00000140D7
:10B9B0000C880700188807002CB3070008880700C8
:10B9C000F0B5334E337C8FB00446002B5BD103209F
:10B9D000FFF73CFE00284FD0002722462D4C2E4971
:10B9E00001943B464FF47A7505AC05A80395029780
:10B9F000ADF814708DF8167027F0D6FEA446BCE89A
:10BA00000F00264D029C74600FC5BCE80F000FC5E7
:10BA1000DDE90321337CDCF800002860C6E902215F
:10BA200003B31F4B1F4CF26A1F4822601F6011F0C6
:10BA30007DFB3DF0EBF91D4A1D4910601D48236850
:10BA40001D4A0F6001242021047001A849F0A4F8C8
:10BA500001A849F094F901A982B2184831F030F9EF
:10BA60000FB0F0BD0320FFF769FE1549134805220A
:10BA700031F026F90FB0F0BD12491048042231F020
:10BA80001FF90FB0F0BD06F1100027F057FC9EE73C
:10BA900048140120589A0700086700205814012014
:10BAA000401401207C14012050F70020BCC100206C
:10BAB000209E0020821401201C88070020180120ED
:10BAC000F0860700DC8B07002DE9F04F214C85B094
:10BAD00004F26C4980464F4604F2444BA2460325CB
:10BAE00001AEFF220023CDF80880ADF804200393B7
:10BAF00096E80E0038462AF071FE94F87E34154818
:10BB0000C4F8689401223946D3B929F07BFE78B194
:10BB1000584627F013FC1048514627F08FFE78B1A5
:10BB20000E4A0F4B1460C3F8008005B0BDE8F08FDB
:10BB3000034602463946074829F064FE0028E7D14B
:10BB400064203DF06FF9013DCBD1284605B0BDE83A
:10BB5000F08F00BF086700204C6B0020F4710120BB
:10BB600048A1002038B52848284A037C00241470D6
:10BB700053BB274A274B002414701C70FEF7D4FED9
:10BB8000254A264B2648147021461C7030F0A2FA34
:10BB9000244833F09BFA78BB214830F061FB224BFC
:10BBA0001B7803BB01210C2040F00EFC01210C206E
:10BBB00040F08EFC1D491E4A1E4800230B70137076
:10BBC000BDE83840FFF780BF1B4D103027F0B6FBB3
:10BBD0003FF020FA2868032115F0E2FC00B12C6048
:10BBE0003FF022FAC5E70F48002133F045FA0D482F
:10BBF000002133F045FAD5E70A4833F09BFA0146B5
:10BC0000084833F081FAC7E7481401203C140120AA
:10BC100082140120B8C10020F97D0020CDC1002090
:10BC20009C8401205C7E01208014012044140120AA
:10BC30008114012080841E00A815012008B5054B41
:10BC40001B780BB1FFF78EFF64203DF0EBF8FBF79C
:10BC500039FB00BF3C140120F0B5244D244F0023D4
:10BC600087B028463B70FFF72FFF044610B12046EF
:10BC700007B0F0BD1F4E0495FF230590ADF80C30C2
:10BC800006F26C4506AB13E90E0028462AF0A6FD25
:10BC900096F87E34C6F86854002BE8D1D6F86C3498
:10BCA00028469B6998470028E1D0D6F8681401918E
:10BCB00023460122304629F0A5FD019960B10E48C6
:10BCC00027F03CFB0B4901F2444027F0B7FD50B18F
:10BCD0000A4B04461E60CAE723462246304629F036
:10BCE00091FD0028EBD101233B70C0E780841E004A
:10BCF00069390120086700204C6B0020F471012095
:10BD000010B58AB000231A4A1A49ADF8043001A8C8
:10BD10008DF8063027F048FD60B90446ADF8040000
:10BD2000134A15498DF80640012301A827F014FC99
:10BD3000044658B10023114A0E49ADF8043001A859
:10BD40008DF8063027F030FD044610B120460AB0C9
:10BD500010BD0A4A0849ADF8044001A801238DF836
:10BD6000064027F0F9FB012420460AB010BD00BFB1
:10BD7000C09B0700086700204C6B002034A0070020
:10BD80002DE9F04F3D4E3E4D96F800C015F80C30B1
:10BD90008DB05BB302ABDFF804A1DFF80491DFF8EC
:10BDA0000481DFF804B101930AEB0C130FCB019C63
:10BDB00019F80CE058F82C7084E80F008CF00100A2
:10BDC00000233070714606AA2046CDE90633CDE93E
:10BDD0000833CDE90A3305F80C3015F0E1FC58B909
:10BDE00096F800C015F80C30002BDDD1254B1B78E0
:10BDF0002BBB0DB0BDE8F08F0DF1180EBEE80F00A3
:10BE0000DFF8A8C0204CACE80F009EE803004CF817
:10BE1000040B1E488CF8001001230370BDF82A1093
:10BE200027603A46584615F04DFD96F800C015F8C3
:10BE30000C30002BB8D1134B1B78002BD9D03CF021
:10BE4000E5FF124B1A780346A2B9024647F22F517A
:10BE50008A42CED90E4C22689A1A8A42C9D90D4814
:10BE6000236031F0B3FC0B48002131F08DFC0A4B0C
:10BE70001870BEE7044A1268821AE7E7D46B002004
:10BE800030E700201A7C0020D4E60020F87D002056
:10BE9000907C0020F884012050A1002030E6002092
:10BEA00050E60020CCE6002094F70020D86B00205C
:10BEB00070B5144C237813B99FED130A70BD134D60
:10BEC0002E683CF0A3FF0146304615F0E5FC002843
:10BED000F2D023781BB90E4B93ED000A70BD2C688D
:10BEE0003CF094FF0146204615F0D6FC0028F2D025
:10BEF0003CF08CFF0146074815F0EEFC0028EAD123
:10BF0000DAE700BFF87D00200000C07FD4E6002003
:10BF1000D86B002094F700202DE9F041994F3B7831
:10BF200098B013B918B0BDE8F0813CF06FFF964AA5
:10BF30001368C31A202B0546F4D9DFF8B4821060C9
:10BF4000D8F80000002843D026F088FB8DF8380090
:10BF5000FDF730FED8F800308DF83900002B00F0E6
:10BF6000AE81184626F02EFC0F90FDF77DFED8F826
:10BF700000301090002B00F09B81184626F0B0FB9B
:10BF8000119012AE002401342046FDF7BFFE46F8A2
:10BF9000040B2046FDF7FAFE032CB060F3D17B487A
:10BFA0000EA915F067FB20B33B7813B3784B012241
:10BFB0001A703CF02BFF774A774B1060DB68D90191
:10BFC0000DD5764B1A68D20709D55B689B090EE040
:10BFD000FDF7FCFC0028B9D025F0D6FBB6E73EF013
:10BFE0002DF96F4BA0FB0301830A43EA81536D4A8D
:10BFF00013606D4C2378002B40F0FC806B4E33783F
:10C00000002B40F06C816A4A1370614C2378002B3E
:10C0100040F07B810EA814F0A1FD664B1B78002B2D
:10C0200062D1654B1B78002B5ED13778002F5BD037
:10C03000624B634C1B78032B00F07C81614B93F8BF
:10C04000282022B193F82930002B40F0788107AEE8
:10C050003146284615F0DAF80FCECDF83B00CDF882
:10C060003F1003CEB6F800C0B678CDF84320CDF827
:10C070004730CDF84B00CDF84F10ADF853C08DF8D8
:10C08000556094ED000A50495048B8EEC00A2B465E
:10C09000012215F065F8C0F30722C0F307438DF8BD
:10C0A00039208DF83A308DF83800FFF701FF10EE97
:10C0B000103A03F0FF42B2F1FF4F04D1C3F316036D
:10C0C000B3FA83F77F092B463A464149414815F0B8
:10C0D00047F8C0F30722C0F307438DF856008DF8E8
:10C0E00057208DF8583004E03749394A00230B7047
:10C0F0001370394C217849B3324B93F829202AB375
:10C10000998D364AD3F82E30B2F90020CDF80A3096
:10C1100007A801F5FA6302A9ADF8083015F0B8F8E0
:10C1200007A815F0ADF82E4A2E4B12781B78C2EBFB
:10C130000212C3EB03119200890092B289B215F08A
:10C1400051F9002800F0C980274B1978274E0EA816
:10C1500014F040FD0EAC0025284614F0FBFCA3783B
:10C1600000936378227881B20135304635F04EFE77
:10C170000B2D04F10304EFD11C4835F0B1FB18B0CE
:10C18000BDE8F08134F70020149E0020207C0020C0
:10C19000359E002044A10020F0ED00E0001000E0FA
:10C1A00040420F00E47C00205DA1002069350120A1
:10C1B000349E00203C140120426D01206A3501208C
:10C1C000A0390120781801200C6C0020E4600020C8
:10C1D000086C0020CC6000206C63002082390120B4
:10C1E0006F6300206E6300206D63002038F700202D
:10C1F000983901206A4A6B4B106819686A4E281AF0
:10C200000EAA14F0DFF9337820700746002B5ED0B9
:10C21000664C674994ED000A66482B460122B8EE49
:10C22000C00A14F09DFFC0F30722C0F307438DF846
:10C230001C008DF81D208DF81E30002F7FF459AFA3
:10C240005B4B1B78002B3FF4E0AE0799BDF81C2038
:10C250009DF81E30ADF83810080CADF84410ADF85C
:10C2600050108DF83A008DF846008DF85200ADF868
:10C270003B20ADF83E20ADF84120ADF84720ADF8A9
:10C280004A20ADF84D20ADF85320ADF856208DF87A
:10C290003D308DF840308DF843308DF849308DF8C1
:10C2A0004C308DF84F308DF855308DF8583020E7F0
:10C2B000FDF78CFB002835D025F0C4F960E6FDF7CA
:10C2C00085FB00283FF450AE25F05AFA4CE6384A78
:10C2D000137000287FF40DAF97E6217836E7334CD2
:10C2E000334994ED000A33482B460122B8EEC00AC8
:10C2F00014F036FFC0F30722C0F307438DF81C008B
:10C300008DF81D208DF81E309AE72B4A2B4B1068B4
:10C310001968281A0EAA14F031FA207000287FF448
:10C32000E8AE77E6FDF762FB00283FF429AE26F081
:10C33000FFFE25E62368002B7FF480AEA1E6FDF723
:10C3400039FC80B1FDF790FC00280CDDD8F80030F6
:10C3500013B1FDF757FC30B107AEFDF7ADFC304629
:10C3600014F0B8FD78E6164B94ED000AD3ED007A90
:10C3700007AE0023F8EEE77A0593029306934FF099
:10C380007C52FF23B8EEC00A02A83146CDED037AF5
:10C3900004928DF815308DF8173014F007FE5BE627
:10C3A000C8C10020309E002069350120A03901203D
:10C3B000349E00205061002044A10020E47C002035
:10C3C0007063002070B5144C237813B99FED130AE5
:10C3D00070BD134D2E683CF019FD0146304615F036
:10C3E0005BFA0028F2D023781BB90E4B93ED010ABB
:10C3F00070BD2C683CF00AFD0146204615F04CFA51
:10C400000028F2D03CF002FD0146074815F064FA1E
:10C410000028EAD1DAE700BFF87D00200000C07FE5
:10C42000D4E60020D86B002094F7002070B5144C9F
:10C43000237813B99FED130A70BD134D2E683CF09D
:10C44000E5FC0146304615F027FA0028F2D02378A3
:10C450001BB90E4B93ED020A70BD2C683CF0D6FC64
:10C460000146204615F018FA0028F2D03CF0CEFC28
:10C470000146074815F030FA0028EAD1DAE700BF94
:10C48000F87D00200000C07FD4E60020D86B00209B
:10C4900094F70020000000002DE9F04F9A4C9B4AD1
:10C4A00094F828302DED0A8B0021ADF5277D117011
:10C4B000002B00F08980964D2E68002E00F0E2805F
:10C4C000944B94ED042A1978D4ED052A94ED000BD1
:10C4D00094ED021B002940F0EC8030468DED121BDC
:10C4E0008DED100BCDED152A8DED142A21F0F4FB06
:10C4F0009DED121B9DED100BDDED152A9DED142A0F
:10C50000286821F0FDFC94F82830002B5CD0824B89
:10C510001B78002B46D0814B1B78002B42D0804EDD
:10C520003378002B59D0206946F058FC02460B4660
:10C53000A06943EC182B46F051FC02460B4660699B
:10C54000676A43EC1A2B46F049FC6DA3D3E900233C
:10C5500046F09CFC94ED00CB94ED02BB56AD41EC53
:10C56000190B284685ED089B85ED048B85ED06AB00
:10C5700085ED00CB85ED02BBAF6212F081FE002895
:10C5800040F0E080674D3CF041FC2A6842F21073B5
:10C59000801A984206D93CF039FC034662482B6069
:10C5A00027F0C0FC6069614C46F018FC54A3D3E945
:10C5B000002346F06BFC46F061FF20600DF5277DFF
:10C5C000BDEC0A8BBDE8F08F534B1B78002BE9D0F4
:10C5D000524B1B78002BE5D0514E3378002BE1D124
:10C5E00094F82930002BDDD0514D3CF00FFC2B6826
:10C5F000C01AB0F57A7FD5D33CF008FC0346012081
:10C600002B60FFF723F80028CCD094F82F2094F863
:10C610002E3094F8310094F830100291CDE90032B8
:10C620000390444FA38D444A502166A848F0B4FAC1
:10C6300066A907F1100040F2016227F0BDF83B7CCB
:10C64000002B00F0DA8156AD284640220A2147F03F
:10C65000ADFB07F110084FF480673F2F3A4629469B
:10C66000404640F2A081402227F0C0FC402840F024
:10C67000C181403FF1D131492E483BF037FC0123C5
:10C6800033708FE72E4D2E68002E3FF440AF214BC4
:10C69000197849BB304625F0E9FD94ED021B94ED75
:10C6A000000B2868D4ED052A94ED042A25F034F90E
:10C6B00029E794F83110A38E94F8322094F83000D2
:10C6C000CDED152A8DED121B8DED100B8DED142A7D
:10C6D00012F038FC9DED100B9DED121B9DED142A00
:10C6E000DDED152A0146F8E694F83110A38E94F892
:10C6F000322094F8300012F025FC0146CAE700BF52
:10C700000B410E4A9869F23F78180120B0180120B9
:10C7100074150120C418012078390120C8160120A1
:10C720006A390120B0280120C0150120F818012025
:10C73000B8280120B015012064880700848807000C
:10C74000983901203AAA0821B0EE4C0AF0EE6C0AA2
:10C7500001203CF045FBB0EE4B0AF0EE6B0A40AA1C
:10C76000082101203CF03CFBB0EE4A0AF0EE6A0AD8
:10C77000012117AA08463CF033FBB0EE490AF0EE5F
:10C78000690A32AA022101203CF02AFBB0EE480AD5
:10C79000F0EE680A36AA022101203CF021FBE06994
:10C7A00046F01CFB1AAA41EC100B022101203CF0C0
:10C7B00017FB206A46F012FB1DAA41EC100B022168
:10C7C00001203CF00DFB8F4B186846F007FB20AAB8
:10C7D00041EC100B032101203CF002FB8A4B18684E
:10C7E00046F0FCFA23AA41EC100B032101203CF097
:10C7F000F7FA864B186846F0F1FA26AA41EC100BBE
:10C80000032101203CF0ECFAFFF752FB10EE109AE6
:10C81000FFF7D8FD10EE10AAFFF708FE09F0FF425F
:10C82000B2F1FF4F10EE10BA00F0C380484646F058
:10C83000D5FA0DF1A40941EC100B012108464A4636
:10C840003CF0CEFA48460B2112F0B0FD002800F073
:10C85000B7800AF0FF42B2F1FF4F00F0C0805046AF
:10C8600046F0BCFA0DF1B00A41EC100B012108466C
:10C8700052463CF0B5FA50460B2112F097FD0028C5
:10C8800000F0B4800BF0FF42B2F1FF4F00F09C804B
:10C89000584646F0A3FA0DF1BC0B41EC100B0121F8
:10C8A00008465A463CF09CFA58460B2112F07EFD91
:10C8B000002800F090803AAB4C9340AB4D9317ABFF
:10C8C0004E9332AB4F9336AB50931AAB51931DAB93
:10C8D000529320AB539323AB549326AB0DF598782A
:10C8E000559358F8040B142112F060FD00283FF412
:10C8F00049AEA845F5D1464B1B78002B3ED1002010
:10C90000014646AA182312F05BFC424B424D1A68BE
:10C91000089226A90B9123A90A9120A909911DA982
:10C9200007911AA9069136A9059132A9049140A947
:10C9300003913AA9029117A9CDE90071CDE90C9AAA
:10C940004FF48071354ACDF838B046AB66A848F050
:10C9500023F966A928463BF039FB00287FF412AE84
:10C960002F4A2B7C107030700BB1FDF74FF82D481B
:10C9700026F0E4FC0120FEF7E1FE03E694F8322005
:10C9800094F83130A08DA18E0291CDE9003200F5EE
:10C99000FA6094F8303094F82F2094F82E1080B27A
:10C9A00012F006FBADE727F021FBB84222D1403F51
:10C9B00053E6C9F31603002B3FF438AF0DF1A40979
:10C9C000194BC9F8003044E7CBF31603002B3FF4B2
:10C9D0005FAF0DF1BC0B144BCBF800306BE7CAF323
:10C9E0001603002B3FF43BAF0DF1B00A0E4BCAF813
:10C9F000003047E70B4826F0A1FC0120FEF79EFE21
:10CA0000D0E500BF34100120381001203C10012077
:10CA1000C4180120A0390120B01501203488070076
:10CA2000C8160120C01501206E616E000D4B1B78E9
:10CA30000BB9002070470C4B10B51C683CF0E6F9B0
:10CA40000146204614F028FF48B13CF0DFF90146CA
:10CA5000064814F041FF80F00100C0B210BD002074
:10CA600010BD00BFF87D0020D4E6002094F7002020
:10CA70002DE9F043BB4EBC4D33782A782DED028B67
:10CA80009A42A1B0D8B200F299812B78C31ADBB2D6
:10CA9000002B00F033812978B44A01F00F01012BFB
:10CAA00052F82110009100F08D802978013101F0B9
:10CAB0000F01022B52F82110019100F08380297898
:10CAC000023101F00F01032B52F82110029179D0AD
:10CAD0002978033101F00F01042B52F82110039142
