:020000022000DC
:1070000000000420DD1B07001D1C07001F1C0700DB
:10701000211C0700231C0700251C0700000000009E
:10702000000000000000000000000000591B0700E5
:10703000291C070000000000791B07002D1C070019
:10704000391E07002F1C0700C1F20600FD2D0500A8
:10705000B52E05002F1C070099F506002F1C070010
:107060002F1C07002F1C07002F1C07002F1C0700D8
:107070002F1C07002F1C07002F1C07002F1C0700C8
:107080002F1C0700A91807002F1C07002F1C070042
:107090002F1C07002F1C0700C15906002F1C0700DA
:1070A0002F1C07002F1C07005DEA03002F1C0700A0
:1070B0002F1C07002F1C070000000000000000002C
:1070C0002F1C07002F1C07002F1C0700212407007E
:1070D0002F1C07002F1C07002F1C070005D90500D7
:1070E0002F1C07002F1C07002F1C070000000000AA
:1070F000000000002F1C070000000000992407007A
:10710000000000000000000000000000000000007F
:10711000000000000000000000000000000000006F
:10712000000000000000000000000000000000005F
:10713000000000000000000000000000000000004F
:10714000000000000000000000000000000000003F
:10715000000000000000000000000000000000002F
:10716000000000000000000000000000000000001F
:10717000000000000000000000000000000000000F
:1071800000000000000000000000000000000000FF
:1071900000000000000000000000000000000000EF
:1071A00000000000000000000000000000000000DF
:1071B00000000000000000000000000000000000CF
:1071C00000000000000000000000000000000000BF
:1071D00000000000000000000000000000000000AF
:1071E000000000000000000000000000000000009F
:1071F000000000000000000000000000000000008F
:10720000F1EE103A43F08073E1EE103A704700BFA0
:1072100010B5054C237833B9044B13B10448AFF3D0
:1072200000800123237010BDD06600200000000004
:10723000D45B080008B5034B1BB103490348AFF307
:10724000008008BD00000000D4660020D45B080068
:10725000154B002B08BF134B9D46A3F5803A002128
:107260008B460F461348144A121A53F0CFF90F4BAE
:10727000002B00D098470E4B002B00D098470020E1
:10728000002104000D000D48002802D00C48AFF387
:10729000008053F0FFF8200029004AF0F7FC53F07B
:1072A000D3F800BF00000800000004200000000028
:1072B00000000000D066002030BA0120000000006D
:1072C00000000000BFF34F8F0549064BCA6802F467
:1072D000E0621343CB60BFF34F8F00BFFDE700BFF9
:1072E00000ED00E00400FA0535DF704733DF70473A
:1072F0003CDF70473DDF704741DF704711DF70476B
:1073000012DF70470020704701207047012070474E
:10731000704700BF704700BF704700BF8DDF7047E8
:10732000704700BF024B02F001021A70704700BFA5
:1073300061860020024B034AC3F8002601207047F3
:10734000000001403546526E024B0349C3F8001657
:1073500010467047000001403546526E704700BF2E
:10736000037C13F0080306D0C36A406A181A48BFAA
:107370006FF0004070471846704700BF00000000E3
:1073800038B50446C069504D52F046F94CA3D3E9D4
:10739000002352F0ABF902460B46A069C5E9002371
:1073A00052F03AF946A3D3E9002352F09FF994ED45
:1073B0000F7AB4F84C30DFED457A9FED455A9FEDDA
:1073C000454ADFED454AF8EEC75A94ED107A06EECD
:1073D000103AF8EEC76A94ED0A7AB8EE466AB8EE4B
:1073E000477A66EEA76A65EE845A26EE246A27EE8F
:1073F000057AC5ED055A85ED066AC5ED076A85ED86
:10740000087AE37DD4ED097A6B62237DF8EEE77AA2
:10741000012B88BF637DC5E9020167EE857A8CBFC9
:1074200003F001030023C5ED047A85F82830E37AE0
:1074300003F00302A2F10300B0FA80F0C3F380016D
:107440004009032A85F82A0085F82B1003F004036D
:1074500031D1003B18BF0123A28885F82930A2F55D
:10746000FA63AB85A37985F82E30E37985F82F3060
:10747000237A85F83030637A85F83130A37A174A59
:1074800085F8323020681649164B01241470A3FB8E
:1074900000230A689B094FF47A7404FB130301323A
:1074A0000A60AB8648F0E4F80F4A10491368086098
:1074B0000133136038BD0023CEE700BFAFF3008077
:1074C00048AFBC9AF2D77A3E902B0120ACC5273743
:1074D0006F12833AA8C8FE3A0AD7233CC82B012072
:1074E000E42B0120D34D6210CC2B0120E02B012096
:1074F0002DE9F84F4AB3C2F3080315462BBBDFF85A
:107500005480DFF85490012306460F4688F8003077
:107510004FEA522A0324D9F8680403683A46D3F89C
:1075200014B031465346D847013C20B914F0FF044B
:10753000F1D14FF0FF3548F09BF8054A0023106069
:1075400088F800302846BDE8F88F4FF0FF35F9E79E
:107550004C760020A4870020EC6600202DE9F84F2F
:107560004AB3C2F3080315462BBBDFF85480DFF89B
:107570005490012306460F4688F800304FEA522AFD
:107580000324D9F8680403683A46D3F824B0314696
:107590005346D847013C20B914F0FF04F1D14FF015
:1075A000FF3548F065F8054A0023106088F8003080
:1075B0002846BDE8F88F4FF0FF35F9E74C760020FC
:1075C000A4870020EC660020103032F03BBD00BFE5
:1075D000103032F09BBD00BF00B583B00B460122D6
:1075E0000DF1070110308DF8073032F08FFD03B038
:1075F0005DF804FB00B587B00346064A68461821CB
:1076000053F0FAFE694682B203483BF005FC07B02E
:107610005DF804FB94EE0700382B0120103032F0A7
:107620008DBA00BF00B583B001220DF10701103003
:1076300032F0B2F901280CBF9DF807004FF0FF307F
:1076400003B05DF804FB00BF084648F053B800BF24
:107650000846114653F0B8BE084648F031B800BF9E
:1076600010B50E4C84B0227801A809211CF0A0FFAF
:10767000237802332370024670B1094B1B7803F064
:10768000FF004BB1074B1B7803F0FF0023B1064806
:1076900092B201A93BF0C0FB04B010BD76F400200B
:1076A000EC86002061860020088800202DE9F04348
:1076B0004779402F3946A1B028BF40219FB300230E
:1076C000E9464A469C461F46054603EB4304AE7A0C
:1076D000167000EB84040133247C14F0080FC4F30B
:1076E000C00818BF013782F801805FFA83FE05F1F8
:1076F0000C0502F1020218BFFFB21EB10CF1010C21
:107700005FFA8CFC7145E0D8084B094C1F70094AA0
:1077100084F800C0484610231FF012F9064B187079
:1077200021B0BDE8F083BC46E946EDE7FD2B012022
:10773000FC2B0120EC2B0120E82B0120174BDB68F0
:10774000D90110B503D5164B1A68D2071FD449F0DA
:10775000A7F9144BA0FB0301830A43EA81531249A2
:1077600012480A6800689A1A90420FD810480B60B5
:10777000027810490132097802F00F02914209D0D3
:1077800001780D4CC9B244F82130027010BD5B681D
:107790009B09E4E7094B01221A7010BDF0ED00E0EF
:1077A000001000E040420F00B44C01204C6100206A
:1077B000FC4C0120FE4C0120BC4C0120FD4C012062
:1077C00038B5104C104DD4F8680403680122DB6909
:1077D0002A70984794F82430DB070CD400224FF02D
:1077E000FF3384F82420236347F042FF074A002335
:1077F00010602B7038BD04F1240035F059F90028D1
:10780000ECD1F1E7EC660020A48700204C76002044
:1078100010B5034B0360044621F02CFD204610BD3B
:107820003006080008B50D4B1B7813B10C4B586897
:1078300008BD0C4BDB68D90106D5094B1A68D20785
:1078400002D55868800908BD49F02AF9064BA0FB0B
:107850000301830A43EA815008BD00BF7A6E00200D
:10786000001000E0F0ED00E040420F00104B1B78EC
:1078700013B9104B1B7883B10F4B1B785BB90D4BC1
:107880001B7803F0FF003BB90C4B187802288CBF23
:1078900000200120704700207047094B1B7803F03F
:1078A000FF00002BF8D0044B1B78002BF3D1E6E748
:1078B0008948012085AC002048760020848600207D
:1078C00054870020084A08B513889BB2834200D031
:1078D00008BD064B4FF6FF7002211080197047F06B
:1078E000C7FE034B186008BDD060002084860020CE
:1078F000C08800200F49097802290AD1F8B50E4E38
:107900000E4F3578EDB21C467B5D0BB9202C01D9AA
:10791000F8BD70470A48114600EB4510224652F068
:107920004DFE0848E3B24355012185EA010279552D
:107930003270F8BD61270120608600203C050120DF
:1079400034F4002074F40020F8B5531EF32B05D84E
:10795000114E124F3578EDB27B5D23B1104A13689A
:1079600001331360F8BD0F48C5EB051305EB830326
:1079700000EB8300144652F021FE0B4BE4B25C5541
:1079800047F076FE09496B1C03F00703012241F81A
:1079900025007A553370F8BD8705012048870020FF
:1079A00044870020A06E00204076002064860020DE
:1079B000F0B5234B234E0446002914BF1946314627
:1079C000214887B046F034FE204B1B68A3422DDDD2
:1079D0001F4B04EB440403EB0414204653F0FFFD5B
:1079E00021460546132201A853F013FE002716482E
:1079F0008DF8177001A946F01BFF132D04D812480B
:107A000046F0F6FE07B0F0BD31460F4846F010FED6
:107A100004F11301132201A853F0FBFD01A90A4848
:107A20008DF8177046F004FF07B0F0BD094906480D
:107A300046F08EFE044846F0DBFE07B0F0BD00BF06
:107A4000A0EE0700EC000800C428012084480120B3
:107A5000C0480120A4EE0700F8B51D4B1B78022B8F
:107A600004462CD01B4B1C4A1C48002721460126EB
:107A70001F7016703DF09CFF05463BF039FD28460F
:107A8000F7213BF04DFD284602213BF071FD3A46BF
:107A9000394628463BF04CFD47F0EAFD104FDFF831
:107AA00058C01049104A0346CCF800303C801B23D4
:107AB0000E7028461380BDE8F8403BF01BBD0B4A12
:107AC0000B490C4B10800120002208701A70F8BD81
:107AD000612701203CCD002024270120789101203E
:107AE000B8D1002080A90020D26000204061002091
:107AF000EC8600206186002038CD0020234A1388C0
:107B00004FF6FF719BB28B42F0B403D013889BB247
:107B100098422DD01E4B1B78022B29D01D4B1E4F97
:107B20001E4C1F491F4E1A781F48204D00233B70E2
:107B30001B27378023700B701D4C1E4903701E4895
:107B40002B7023701D4D0B701D4C1E4903701720A8
:107B50002B70237008801C4B1AB900221A70F0BCDD
:107B600070471A78002AF8D0184A01211170F4E7FA
:107B700013889BB29842F2D1154C164900234FF658
:107B8000FF7023701080F0BC0B70704740610020C4
:107B9000612701201C27012080A9002030AD002092
:107BA000CEAC0020D260002095D10020CDAC0020CA
:107BB00058D10020C88800202427012062270120F6
:107BC00055CD00205C6100203CCD0020BCD10020C0
:107BD000EC8600206186002010B50C4991F8322017
:107BE00091F83130888D8C8E84B0CDE900320294CA
:107BF00000F5FA6091F8303091F82F2091F82E10AE
:107C000080B21BF0C3FF04B010BD00BF902B012059
:107C100010B5054B1C6847F02BFD01462046BDE81A
:107C200010401FF07DBB00BF80F4002008B50E4B54
:107C30001B7813B90D4B1B785BB10D4B1B7833B917
:107C40000C481FF051FC80F00100C0B208BD0020BC
:107C500008BD094B1B7803F0FF00002BF6D0044B46
:107C60001B78002BF3D1EBE78948012085AC00207D
:107C70004876002088860020548700202DE9F04FA8
:107C80004B48037CABB0002B40F08E804948037C0E
:107C9000002B40F085804848037C002B7CD147486E
:107CA000037C002B74D1322047F0EEFC444D454A52
:107CB00045490095002304A84FF47A740193ADF868
:107CC00010308DF81230029431F0FEFD9DF8100056
:107CD00000285AD03D4C2368132B4EDC3C4F3D4EC0
:107CE000DFF8F480DFF8F49005E011A831F0B6FB7E
:107CF0002368132B41DC0022C7F800664FF47A7327
:107D000004A911A8CDE90D52ADF844208DF8462004
:107D10000F9332F0FFF89DF8443040221AA911A8C1
:107D20005BB333F04DFB9DF8443013F0D00F1AA82D
:107D3000DBD153F054FC03461AAA0638062B414601
:107D40001044D2D953F0F0FB82460028CDD1D4F8AC
:107D500000B00BEB4B0309EB031318461AA92F22B3
:107D600053F057FC0BF1010280F82FA011A82260FC
:107D700031F074FB2368132BBDDD04A831F06EFBDA
:107D800020680028D4BF002001202BB0BDE8F08F70
:107D9000103031F063FB86E7103031F05FFB7EE797
:107DA000103031F05BFB76E7103031F057FB6DE7B8
:107DB0008C480120E4290120084D01203C4D012080
:107DC00060060800ACEE0700EC6600208448012045
:107DD000000001403546526EB0EE0700C048012059
:107DE00010B5094C2368013309D1084A136803F51B
:107DF0009C5308334FF0FF311360216010BD47F0F2
:107E000037FC034B1860F0E7A06200201C2901201A
:107E10000846012010B5074C49F02EFD20680421CA
:107E20001EF05CFE08B100232360BDE8104049F05D
:107E30002DBD00BF8828012038B505680A4A0446D0
:107E4000286803681B6893420BD1282047F038FC50
:107E500018B1064B4360606038BD01232B71606030
:107E600038BD28219847F3E75976020001001F002A
:107E700081682DE9F0470568044669B1284E2B68F2
:107E80000A685B68A260B34208463DD147F032FC05
:107E9000A1680029F3D12568238E04F10C0903B3EE
:107EA0000027E36ADFF878A0B8460BE047F022FC31
:107EB000E36AC6F80080218EC6F804800137BAB2A2
:107EC00091420FD9BEB203EBC6067168084600297D
:107ED000EFD02B685B685345E8D028469847E36AA3
:107EE000E7E7E36A00214FF6FF7299452186A286F3
:107EF00007D02A680A4952688A420BD1184647F0CF
:107F0000F9FB2046BDE8F08728469847A16800297C
:107F1000B5D1C0E72846194690472046BDE8F0870E
:107F20004976020081682DE9F0470568044669B189
:107F3000284E2B680A685B68A260B34208463DD1B0
:107F400047F0D8FBA1680029F3D12568238E04F1FE
:107F50000C0903B30027E36ADFF878A0B8460BE00A
:107F600047F0C8FBE36AC6F80080218EC6F804809B
:107F70000137BAB291420FD9BEB203EBC60671689F
:107F800008460029EFD02B685B685345E8D02846A7
:107F90009847E36AE7E7E36A00214FF6FF729945E5
:107FA0002186A28607D02A680A4952688A420BD1E4
:107FB000184647F09FFB2046BDE8F08728469847C3
:107FC000A1680029B5D1C0E7284619469047204648
:107FD000BDE8F0874976020081682DE9F047056821
:107FE000044669B1284E2B680A685B68A260B342F8
:107FF00008463DD147F07EFBA1680029F3D12568F2
:10800000238E04F10C0903B30027E36ADFF878A09C
:10801000B8460BE047F06EFBE36AC6F80080218E9D
:10802000C6F804800137BAB291420FD9BEB203EB51
:10803000C606716808460029EFD02B685B68534577
:10804000E8D028469847E36AE7E7E36A00214FF65D
:10805000FF7299452186A28607D02A680A4952688C
:108060008A420BD1184647F045FB2046BDE8F08711
:1080700028469847A1680029B5D1C0E72846194687
:1080800090472046BDE8F087497602002DE9F04F81
:1080900087B006AB03E90300049D002D00F00E81BC
:1080A0002888059A4FF6FF73984200F01081D2F8A5
:1080B0002C90C10909EBC10100F07F02486810EB68
:1080C000C20000F004819B460379C688202B4FF044
:1080D000000840F0EE80B8F10A0F00F0EE8007884B
:1080E0005F4500F0DE81FB0909EBC30307F07F0267
:1080F0005D680292FB0915EBC205039300F0EC806A
:10810000B5F806A00195434601272C46B0465546D2
:108110001E468FB95D4500F0DC80EA0909EBC2021A
:1081200005F07F05546814EBC50400F0D28087F099
:108130000107E588002FEDD02279042A00F086811E
:10814000052A00F07F81022AE4D1204653F047FA45
:108150000428DFD122786E2ADCD16278612AD9D155
:10816000A2786D2AD6D1E278652AD3D12B46324641
:108170005B454646019D904610D0D80909EBC000EA
:1081800003F07F03406810EBC30307D01B79181F6F
:10819000012840F2A680022B00F0A380B34BB44A22
:1081A00042F83830039B029A09EBC30ADAF804302C
:1081B00013EBC20764D0B7F806A0019701233C4631
:1081C0001F4643465546B0461E468FB95D4500F0F2
:1081D000D080EA0909EBC20205F07F05546814EB70
:1081E000C50400F0C68087F00107E588002FEDD0B8
:1081F0002279042A00F02181052A00F01A81022A3E
:10820000E4D1204653F0EBF90C28DFD12278642A20
:10821000DCD16278612AD9D1A278742AD6D1E278E9
:10822000652AD3D122795F2AD0D16279632ACDD150
:10823000A279722ACAD1E279652AC7D1227A612A43
:10824000C4D1627A742AC1D1A27A652ABED1E27AF7
:10825000642ABBD132465D453B464646019F904667
:108260000ED0EA0909EBC20205F07F05546814EB51
:10827000C50505D02A79111F01297ED9022A7CD093
:108280007A4B7B4A02EBC8025E4508F10108536055
:108290005FFA88F512D0F30909EBC30306F07F06F5
:1082A000586810EBC60009D00379C688202B3FF42C
:1082B00012AFB8F10A0F40F0CE8045466D4A6C48C7
:1082C000294619F039FF284607B0BDE8F08F002590
:1082D000F4E7334646469846654B644A43F83820EF
:1082E00060E79FB9DA4500F0CE804FEADA1309EB78
:1082F000C3030AF07F0A5D6815EBCA0500F0C3806E
:1083000087F00107B5F806A0002FEBD02B79042BDE
:1083100000F0B280052B00F0A480022BE2D12846A9
:1083200053F05DF90428DDD12B786E2BDAD16B7810
:10833000612BD7D1AB786D2BD4D1EB78652BD1D114
:10834000DA4500F0A0804FEADA1309EBC3030AF024
:108350007F02586810EBC2033FF421AF197904295A
:1083600000F0AF80052900F0A880022918BF002383
:1083700015E733464646984682E71C469CB9DA45DF
:1083800000F08D804FEADA1209EBC2020AF07F0A90
:10839000576817EBCA0700F0828084F00104B7F831
:1083A00006A0002CEBD03B79042B72D0052B6CD0AF
:1083B000022BE4D1384653F012F90C28DFD13B7878
:1083C000642BDCD17B78612BD9D1BB78742BD6D1CF
:1083D000FB78652BD3D13B795F2BD0D17B79632B95
:1083E000CDD1BB79722BCAD1FB79652BC7D13B7A32
:1083F000612BC4D17B7A742BC1D1BB7A652BBED1E2
:10840000FB7A642BBBD1DA4549D04FEADA1309EB8A
:10841000C3030AF07F0A596811EBCA033FF431AF76
:108420001A79042A46D0052A40D0022A18BF002310
:1084300027E72468E0880834E6E62468002C7FF407
:10844000E0AEC3E62468E088083481E62468002CA6
:108450007FF47BAE5EE6064B044A43F838201346B1
:108460000FE72D68E88808355CE700BF8021080029
:10847000D86000207C6E00202D68002D7FF44FAF67
:10848000DA457FF432AF002389E63F68F888083781
:1084900093E73F68002F8DD1DA457FF473AF002357
:1084A000EFE6094B094A43F83820E9E651F83A303B
:1084B0000833E6E651F83A30E3E650F83230083354
:1084C0006DE650F832306AE6D8600020802108005E
:1084D000F0B54B4B4B4E4C4A35781278197883B037
:1084E0000446EDB2C9B21AB9484A1278002A38D007
:1084F0001B7803B3002228461EF0E8FD40B3444F2A
:10850000444D454A00233B702B7004231480337084
:1085100047F0AEF8414A03462146414813603AF01D
:108520002DFF40BB3F48012321462B7003B0BDE81F
:10853000F0403DF01BBA3C4801911EF0D5FF80F0A1
:108540000100C2B2019928461EF0C0FD0028D6D114
:10855000344821463DF00AFA3378032B48D003B063
:10856000F0BD324A107800F0FF020028C3D01B781B
:10857000002BBFD1DFE72E483AF0D8FC0028D1D03D
:108580002C483AF0D3FC0028CCD02B483AF0CEFC53
:108590000028C7D0234821463DF00AFA10B1F72140
:1085A0003AF0BEFF254922484FF400723AF07AFDB6
:1085B000234B18801B889BB2072BB3D947F058F880
:1085C000204A2149034613601A4806223AF06AFD00
:1085D000064647F04DF81D4B052E1860A2D91648E7
:1085E0003AF0A0FD00289DD001233B7003B0F0BD00
:1085F0000223337047F03CF8084B1860AFE700BF28
:1086000048760020848600208948012085AC00201F
:108610006AA9002084AC0020D0600020C08800201F
:10862000E4F3002078910120888600205487002000
:10863000BC6B002040050120FC6B0020406C00203A
:108640003C6C0020886E0020800501208C6E00208C
:108650002DE9F84F074647F00BF8314DDFF8CC9085
:10866000DFF8CCB0DFF8CCA0064645F00105D9F81C
:1086700000301C6820464AF07BFB03464FF003089D
:108680004FF4FA406BB9B8F1010F3CD0A84720462F
:108690004AF06EFB034608F1FF384FF4FA40002B16
:1086A000F1D0DBF80030D3F8008040464AF060FBA0
:1086B000034603244FF4FA405BB9012C23D0A847AA
:1086C00040464AF055FB0346013C4FF4FA40002B6C
:1086D000F3D0144B1B68D3F8008040464AF048FBA7
:1086E000034603244FF4FA405BB9012C0BD0A84792
:1086F00040464AF03DFB0346013C4FF4FA40002B54
:10870000F3D0BDE8F88F46F0B3FF801BB842F8D233
:10871000054B0A20C3F800A646F0B6FFA7E700BF46
:10872000D00C08006861002000000140606100205A
:10873000646100203546526E38B5124B124A1B78E0
:1087400052F82050044643B1104B5A681048521B4F
:108750002146BDE838401DF0A5BE0E4BDB68D901AF
:1087600006D50A4B1A68D20702D55A689209EDE776
:1087700048F096F9084BA0FB0301830A43EA8152B3
:10878000E4E700BF7A6E002098AC0020001000E003
:10879000B4050120F0ED00E040420F002DE9F04F5C
:1087A000DFF8F490344AD9F800300026B34283B0A1
:1087B00016702ADD4FF0FF33DFF8E080DFF8E0B01D
:1087C0002E4F01934FF0000A97ED0A3B97ED082BCF
:1087D00098ED021B98ED000B1BF002FC55EC104BC2
:1087E0005B4610EE100A5246294651F0F1F938372F
:1087F000D9F8003010B1A246AB4601960136B3421B
:10880000E2DC019B1A46013220D100211C4D1D4B98
:10881000002428461C7018F025FF2A781A4B042AD9
:108820001C600ED9194C23685A1C1DD1184A2360AC
:10883000136803F59C5308330120136003B0BDE8AF
:10884000F08F6FF00A03114C9B1AEFE7C3EBC30ADA
:108850000A4B094803EBCA010C2252F0DAFE064A21
:10886000002313730121D1E746F002FF094A4FF0BC
:10887000FF331060DAE700BF4428012000540120D4
:10888000986100203C28012014460120A0620020AD
:108890001C29012008460120C07F0120902B0120C7
:1088A000000014402DE9F0438BB01F23484E009385
:1088B000014602AB0546FF2246483BF0A1FB337858
:1088C000012B044619D00D2C46D8434B1B782BB9ED
:1088D000424B1B7813B9424B1B785BB1414B1B7861
:1088E00043B93E4B1B7813B93378022B02D8394871
:1088F0003BF06CFB0BB0BDE8F083384B1B78002BD2
:10890000E1D12B78DB07DED50D28DED9014602A8A0
:108910001EF074FC00B33448E91C1EF0F7FDD8B11A
:1089200031481EF0E1FDB8B90323337046F0A0FED4
:108930002E4C034629462E48236039F0BBFD002803
:10894000D8D11EF0CDFB307046F092FE2060FEF7CD
:108950008DFF0028CED0CAE7214602A81EF04EFCAB
:108960000028B2D00335204829461EF0CFFD18B9A3
:108970001A4B1B78002BA8D0DFF88C901D4899F873
:108980000070102C28BF1024E4B202A92246B84679
:1089900000EB071051F012FE08EB4808164B2A684E
:1089A00043F8182003EB4808FFB2144BAA88A8F834
:1089B0000420DC5546F05CFE114C124A44F82700B6
:1089C000012187EA0103D15589F800307DE700BF16
:1089D00084860020149801208948012085AC00205D
:1089E000548700204876002088860020C088002018
:1089F00088910120C0F10020506E0020E0F100209D
:108A000078F40020DCF40020497600202DE9F047BE
:108A1000038E8146054659F80CABFBB10026C36AAC
:108A2000DFF8A080374609E046F064FEEB6A276075
:108A3000298E67600136B2B2914210D9B4B203EB0D
:108A4000C404616808460029F1D0DAF800305B6898
:108A50004345E9D050469847EB6AE8E7C36A0021EE
:108A60004FF6FF7299452986AA860CD0DAF80020C5
:108A7000144C5268A24221D1184646F03BFE042312
:108A8000C5F82C906B86A8682E6800232B7158B10E
:108A90000C4C336802685B68AA60A34206D146F0BA
:108AA00029FEA8680028F4D1BDE8F08701463046C9
:108AB0009847A8680028ECD1BDE8F08719465046D1
:108AC0009047DCE749760200008830B44FF6FF7427
:108AD000A0421AD0CD6AC20905EBC20200F07F03A2
:108AE000506810EBC30011D0C2880020D309A24205
:108AF00005EBC30302F07F0100F1010006D05B68C3
:108B000013EBC10302D0DA88F0E7002030BC7047D5
:108B10002DE9F0418B8E4FF6FF72934282B00C46E6
:108B2000054616D0CA6AD90902EBC10203F07F01DB
:108B3000526832F83100A08602EBC10200204FF6E5
:108B4000FF71107128462A60AB80D18002B0BDE869
:108B5000F081098E2768002932D1638E002B00F046
:108B600085800123E66A5A4A23864FF480604FF0DD
:108B700080083B681B68934274D146F0A1FD238EA8
:108B8000E76A7060013B9BB207EBC30100284A68AB
:108B900008BF4FF000080020A6F80080708022B1C6
:108BA00037F83360488886422ED8012100224FF6DC
:108BB000FF73284621712A60AB8002B0BDE8F081C6
:108BC000E66A4B1E9BB206EBC30E3046DEF804206D
:108BD0002AB1BEF802C036F83380E0451CD8638E57
:108BE000994223D03A4A4B1C9BB2B3F5007F00EB6D
:108BF000C106238615BF4FF480604FF47E704FF09E
:108C000080084FF07F08B4E700EBC313441C9BB20D
:108C100002EBC0024C8091E70CEBC3130CF1010195
:108C20009BB202EBCC02AEF8021087E7B3F5007FEF
:108C3000BBD004F10C025B0096421FFA83F83B683C
:108C400016D024489B6883424FEAC80135D130468C
:108C500052F0BAFB0028A8D01D4A218EE062A4F889
:108C60003280C0E701463846984788E7E66AE0E781
:108C7000174A1B68019293424FEAC80022D146F07E
:108C80001FFD019A002890D0D6F800C07168B36823
:108C9000D6F80CE0C0F80CE0C0F800C0416083607A
:108CA000D6F810C07169B369D6F81CE0C0F81CE0B2
:108CB000C0F810C041618361CFE70A4638463146AB
:108CC0009847C7E7014638469847019ADAE700BF58
:108CD00059760200517602002DE9F04F958E4FF63D
:108CE000FF739D4285B014460746884602F10C0B7F
:108CF0003BD0D36AEA0903EBC20305F07F025E684A
:108D000036F83230A38606EBC2064FF6FF73F380C7
:108D1000A28E00219A423171B1465CD0E36AD1093A
:108D200003EBC10302F07F0A596831F83A30A38699
:108D300001EBCA0100234FF6FF700B71C880C8F821
:108D40000010F2807B88834200F08380E16AD809BA
:108D500001EBC00103F07F03496801EBC303484600
:108D6000DD807A8005B0BDE8F08F118E156800298E
:108D700075D1528E002A00F01F810123E66AC24A93
:108D800023864FF480604FF080092B681B68934264
:108D900040F00A8146F094FC258EE36A7060013D44
:108DA000ADB203EBC5020028516808BF4FF00009BF
:108DB0000020A6F80090708029B133F8353056882D
:108DC000B34200F297804FF0000901234846237117
:108DD00005B0BDE8F08F208E23680193002862D192
:108DE000628E002A00F0EA800123D4F82CA0A64A63
:108DF00023864FF480604FF0800B019B1B681B683B
:108E0000934240F0D58046F05BFC228ED4F82CC013
:108E1000CAF80400013A92B20CEBC2030028596868
:108E200008BF4FF0000B0020AAF800B0AAF802001B
:108E30000029C8D03CF83200B3F802A05045C2D98E
:108E40000AEBC2120AF1010092B201EBCA0158808A
:108E500070E748463D807A8005B0BDE8F08FE36A50
:108E60004A1E92B203EBC20E1846DEF804602EB121
:108E7000BEF802C033F83290E14543D8628E914289
:108E800054D0814A4B1C9BB2B3F5007F00EBC10666
:108E9000238615BF4FF480604FF47E704FF0800939
:108EA0004FF07F0971E7E36A421E92B203EBC20CF6
:108EB0009E46DCF804A0BAF1000F06D0BCF8021000
:108EC000029233F832208A4226D8628E90424AD0EB
:108ED0006D4A431C9BB2B3F5007F0EEBC00A23869C
:108EE00015BF4FF480604FF47E704FF0800B4FF051
:108EF0007F0B82E706EBC515731CADB201EBC6060E
:108F0000538002E70CEBC2150CF10103ADB206EB86
:108F1000CC06AEF80230F8E6029A4B1C01EBC21206
:108F200092B20AEBC101ACF8023003E7B2F5007F60
:108F30003FF449AF52009B451FFA82F940D02A689E
:108F40005248966886424FEAC90140F0918018461F
:108F500052F03AFA00283FF436AF4B4A218EE062D5
:108F6000A4F832908EE7B2F5007F3FF42CAF5200A8
:108F70001FFA82FA019A9B4511684AD0D1F808B0CD
:108F8000424A93454FEACA0177D1184652F01CFA7B
:108F90008646BEF1000F3FF416AF3B4A208EC4F860
:108FA0002CE0A4F832A094E7014628469847F3E65F
:108FB00001460198984728E7E36ABBE7E36AD6E7EA
:108FC0002968314A0E689642CDE901324FEAC9005C
:108FD0005ED146F075FBDDE9013200283FF4F3AEC7
:108FE000D3F800C05E689968D3F80CE0C0F80CE0D4
:108FF000C0F800C046608160D3F810C05E6999690E
:10900000D3F81CE0C0F81CE0C0F810C046618161D4
:10901000A4E71D4AD1F800B09345CDE902324FEAEA
:10902000CA003BD146F04CFBDDE902328646BEF178
:10903000000F3FF4C8AE18685968D3F808B0D3F8E9
:109040000CC0CEF80CC0CEF80000CEF80410CEF85C
:1090500008B018695969D3F818B0D3F81CC0CEF815
:109060001CC0CEF81000CEF81410CEF818B095E75A
:109070000A4628461946B0476CE70A460198194641
:10908000D847864685E700BF597602005176020030
:1090900001462846B047DDE901329EE701460198C6
:1090A000D847DDE902328646C1E700BF2DE9F84323
:1090B00007464068BD68032D884600F1080613D8AE
:1090C0005FFA85FC002D77D00CF1FF3456FA84F45A
:1090D000C31D002213F8011F002908BF42F001023E
:1090E000A342F7D1002A40D000237355D7F800904F
:1090F000BE68D9F80830A3B106F1070C8444DA88B9
:1091000096420BD13EB3C21DDC1D01E0944522D036
:1091100012F8011F14F8015FA942F7D01B68002B59
:10912000EDD1B6F5803F7D68D9F8004034D2236890
:1091300028489B68834206F1090140D1284652F035
:1091400043F9034643B33A68DE8091681960002111
:109150009360796002E09A8801329A800522C8F80B
:10916000003088F80420BDE8F883022388F8043032
:10917000037A88F80030BCF1010F08D0437A88F8F0
:109180000130BCF1020F02D0837A88F8023000234C
:1091900008F80530BDE8F88323680F4A5B689342FE
:1091A00013D02946204698473A6800239268012147
:1091B00089F804101A60FFDE02230B71E7E70A4604
:1091C0002046294698470346BCE7284646F092FACF
:1091D000EAE700BF51760200497602002DE9F04728
:1091E00045684DB18368EA88934204460E4605D02F
:1091F0001D440133A3602E72BDE8F0875B00D0F8F8
:1092000000905F1CB7F5803FD9F8008012D2D8F8E3
:1092100000201549D2F808A08A4503F10A021CD1A2
:109220001146284652F0D0F820B1C780A36860608C
:109230000546DDE7D8F800300C4A5B68934208D158
:10924000284646F057FA0122002389F8042063607B
:10925000D2E7294640469847F5E729464046D04799
:109260000028E2D1E6E700BF51760200497602000D
:1092700003792DE9F0470C46D907054637D4DA06BD
:1092800024D413F0600F1DD02E884FF6FF77BE4216
:1092900015D0E36AF20903EBC20306F07F09D3F8A5
:1092A000048008EBC900B246C6882146FFF7E0FFFC
:1092B000A38E28F83930BE42A4F834A0E9D14FF08B
:1092C000FF332B6000232B71BDE8F0872A884FF60F
:1092D000FF718A4237D0E16AA68ED00901EBC00146
:1092E00002F07F00496821F83060A286C9E7A068D3
:1092F0002A6826680028C2D0824216D0014600683B
:109300000028BCD08242F9D18288013A92B2828090
:10931000002AB4D103680B6033680C4A5B6893423F
:109320000CD146F0E7F92B79A9E78288013A92B28D
:109330008280002AA3D10368A360EDE7014630468E
:1093400098472B799BE700231B80FFDE49760200BC
:109350002DE9F04F89B008AB03E90300069B0093A9
:10936000002B53D01B8801939046079A0292DA098A
:1093700003F07F03DB000493019B4FF6FF7AD200DA
:10938000534503924FF0000540D0029BD3F82C9038
:10939000039B09EB0302049B5768FB18059335D028
:1093A000DE8800243146CA09514509EBC20201F0AA
:1093B0007F0004F1010405D0536813EBC00301D012
:1093C000D988F0E7AC4221D9009B1A79402A12D102
:1093D00005B331462C4602E0013CD1881BD0C1F3D5
:1093E000CF10514509EBC00001F07F0203D0436864
:1093F00013EBC202F0D19C48414652F0CDF8002850
:1094000073D0019B534505F10105BED1002009B081
:10941000BDE8F08F059A11792029ECD114885445C4
:10942000E9D0E20909EBC20204F07F01546814EBB1
:10943000C104E0D00127B4F806B08FB9D345DAD023
:109440004FEADB1309EBC3030BF07F0B5C6814EBF3
:10945000CB04D0D087F00107B4F806B0002FEDD0D0
:109460002379042B5DD0052B5FD0022BE6D120465B
:1094700052F0B5F80428E1D123786E2BDED1637861
:10948000612BDBD1A3786D2BD8D1E378652BD5D1B7
:10949000D345B0D04FEADB1009EBC0000BF07F01E1
:1094A000406810EBC101A6D00979081F012801D935
:1094B0000229A0D1002D00F0CA8030462C4602E0DF
:1094C000013CD88835D0C0F3CF12504509EBC20219
:1094D00000F07F0103D0536813EBC103F0D10020EB
:1094E000414652F059F800288BD1CB46002D00F0B0
:1094F000B080B0464FF6FF7103E0013DDA887AD0C4
:109500009046C8F3CF1388450BEBC30308F07F02E6
:1095100003D05B6813EBC203EFD1012009B0BDE8B3
:10952000F08F2468002CA2D188E72468E0880834F2
:10953000A0E7194608792028D1D10C885445CED00F
:10954000E00909EBC00004F07F01446814EBC1049A
:10955000C5D0B4F806B08FB9D345C0D04FEADB13FD
:1095600009EBC3030BF07F0B5C6814EBCB04B6D0A4
:1095700087F00107B4F806B0002FEDD02379042B53
:109580002ED0052B28D0022BE6D1204652F027F80A
:109590000428E1D123786E2BDED16378612BDBD1F7
:1095A000A3786D2BD8D1E378652BD5D1D34596D050
:1095B0004FEADB1209EBC2020BF07F01546814EB97
:1095C000C1003FF419AF0279042A11D0052A0BD04B
:1095D000022A18BF00200FE72468E0880834D7E784
:1095E0002468002CD1D1B7E754F83100083003E7E4
:1095F00054F8310000E7059D9D421C462CD0019F88
:109600004FF6FF7107E05B6803EBC003A34209D08C
:109610003746DE881D46F3098E420BEBC30306F086
:109620007F00F0D10197EA804FF6FF739A4208BF9E
:10963000DDE90032029D08BF5A8020462946FFF727
:1096400017FEAB8E23800120A5F8348066E70599CC
:1096500070E7DDF80480059C009B1E804FF6FF73C9
:1096600032460193E0E700BF802108002DE9F04F6A
:109670000E46097885B02B29009000F0FD802D2939
:1096800040F0B8807178012001900644A1F13000CB
:10969000C0B2092800F2B680DFF8F893C0B200210A
:1096A000002400254FF0993816F801BF2418ABF1BB
:1096B0003007FFB241EB05054FEA850E092F6FEA2F
:1096C00007024FF0FF334FEA840C4EEA947EF8B263
:1096D0004FF0000100F21E81A94508BFA0450BD341
:1096E0001CEB040C4EEB050E1CEB0C044EEB0E05B4
:1096F000AB4208BFA242D7D24FF0000A0023204657
:1097000029460A2250F098FCA946A0461FFA8AF37F
:10971000B9F5200F03F1010A08BFB8F1000F0446A4
:109720000D460FFA8AFAE9D2092F0BD802339B1B98
:1097300006EB030A16F801BFABF13002092A0FFA53
:109740008AFAF5D9BBF12E0F00F0B6800BF0DF03DB
:10975000452B60D0BBF1000F56D10AF126034C2BEC
:1097600000F2FC80002D08BFB4F5000F80F0F680F9
:1097700007EE904ABAF1000FF8EEE77A40F3648101
:10978000BC4B1AF0010F1CBF93ED007A67EE877A8D
:109790005FEA6A0223D0D00744BF93ED017A67EEF7
:1097A000877A5FEAAA021AD0D10744BF93ED027A02
:1097B00067EE877A5FEAEA0211D0D20744BF93EDE1
:1097C000037A67EE877A5FEA2A1A08D0BAF1010FA6
:1097D0000CBF93ED047A93ED057A67EE877A019BCF
:1097E0000BB1F1EE677A009A0123C2ED027A137091
:1097F00010460DE000200190A1F13000C0B2092810
:109800007FF64AAF2E2953D0009A002313701046DA
:1098100005B0BDE8F08F96F801B0BBF12D0F36D042
:10982000BBF12B0F00F0F080ABF13003DAB2092A64
:1098300006F101068ED80AEB0302B2F59A7F00F317
:10984000D780002706E002EB400303EB0A02B2F5E3
:109850009A7F79DC16F801BFABF13002D1B2092949
:1098600003EB8300EFD9002F40F0C7809A44BBF18F
:10987000000F3FF472AFC7E7717800200190A1F1AB
:109880003000C0B2092806F10106BBD804E796F8FB
:1098900002B0ABF13003DAB2092A06F102063FF654
:1098A00059AF0AEB0302B2F59A7F4FDC0127D1E7EB
:1098B000002400254FF0000A96F801B0ABF130000B
:1098C000C0B2092806F101063FF640AF6A4B4FF0DF
:1098D00099329D424FEA850108BF94424FEA8407BE
:1098E00041EA94710ED23F1945EB010117EB0708CD
:1098F00041EB01090AF1FF3A18EB00040FFA8AFA6A
:1099000049F1000516F801BFABF13000C0B20928DB
:10991000DFD91BE7BBF1000F40F0D280019B8BB178
:10992000B5F1004F08BF012CBFF4E6AE644265EB11
:1099300045050223009A1046C2E90245137005B09E
:10994000BDE8F08F0323F5E7002F51D000994FF0C9
:109950000042012308468A600B7059E720462946D9
:109960004FF08EFEBAF1000F79DD444C1AF0010F72
:109970007AD15FEA6A032DD0DF0700F18D805FEABC
:10998000AA0327D0DE0700F18C805FEAEA0321D02A
:10999000DD0700F18B805FEA2A131BD0DA0700F1A4
:1099A0008A805FEA6A1315D0DB073ED45FEAAA1308
:1099B00010D0DF073ED45FEAEA130BD0DE073ED4B7
:1099C0005FEA2A2306D0DD0744D45FEA5A231CBF8E
:1099D0002B490020019B13B101F100431946009A65
:1099E0000423C2E902011046137005B0BDE8F08FF0
:1099F000019B0020BBB12349F1E7AAEB030ABBF1AD
:109A0000000F3FF4AAAEFFE696F802B0ABF13003C8
:109A1000DAB2092A06F102067FF60DAFBBF1000F9C
:109A20003FF49BAEF0E61849D9E7D4E90A234FF09A
:109A30005DFEBBE7D4E90C234FF058FEBBE7D4E949
:109A40000E234FF053FEBBE7CAF1000A3FF4C7AE46
:109A50000E4B96E6D4E910234FF048FEB5E7CAF165
:109A6000000AB7D00A4C81E7D4E900234FF03EFE4C
:109A70007FE700BFCC060800999901003007080075
:109A80000000F87F0000F0FF0000F07FB40608003F
:109A9000E806080099999919D4E902234FF026FEA7
:109AA0006DE7D4E904234FF021FE6EE7D4E90623E5
:109AB0004FF01CFE6FE7D4E908234FF017FE70E764
:109AC000B5F5801F08BF002CBFF416AE4FF0000A9A
:109AD00038E600BF10B58AB000240A4601230146CB
:109AE00001A8ADF804408DF806402FF0EDFE08B94E
:109AF0000AB010BD01A831F03FF80AB010BD00BF98
:109B000070B5424C2568002D41D1414C206800BB06
:109B1000404C2068E0B12AF0C5FC002865D12068DF
:109B20002AF0AAFCA0B120682AF0A6FC2DF01AFEAB
:109B3000394A1368B3F57A7F0ADA48B137490C68B5
:109B4000844205D0364C086044F82300013313608A
:109B500070BD2EF03BFE334B1A688242F8DA186073
:109B600045F086FD2C4D01462F481AF00FFB2B685F
:109B7000B3F57A7FECDA2068284C2EF041FE2B6892
:109B8000274920605A1C41F823002A6070BD45F027
:109B90006FFD264B01461A68284619F017FD236809
:109BA000234D5A7A012A0CBF0126002623D0214AD0
:109BB000D3F8A43011682E709942C9DA136045F0C9
:109BC00057FD014618481AF0E1FA134A1368B3F535
:109BD0007A7FBDDA21681148D1F8A810104C0160D5
:109BE000581C44F82310106070BD20682AF056FC01
:109BF0002FF02EFB9CE72A78002AD8D145F038FDBB
:109C0000014609481AF0C2FA2368D0E7C4290120A6
:109C1000B04C012054280120C43B0120D43B01203A
:109C2000242C0120AC4C0120182C0120B02901204B
:109C3000E0290120B8290120074B1B784BB1074BC5
:109C40001B6833B1064B1B781BB1064B187819F013
:109C50008DBE0020704700BF89480120C429012023
:109C6000BC290120C829012010B5064C206838B154
:109C70002AF018FC20B92068BDE810402AF0FCBB8F
:109C8000002010BD54280120F0B55A4B5A4C93F8CF
:109C9000322093F8300093F82F1093F8315095B09C
:109CA000049293F82E200092CDE90110039506ADA1
:109CB0009B8D524A2846182151F09EFB2368002BA9
:109CC00034D04F4B186819F00FF8226806464D48FB
:109CD0004D490C9500234D4D0E96CDE910330F9054
:109CE00013930D951291002A00F08280D2F8B430BF
:109CF00010930023434C1193454A464B126800923F
:109D00004FF480610CAA4448139418F0F1FC002130
:109D1000424830F031F8404940484FF4806230F01A
:109D2000F5F93E4830F08EF915B0F0BD3C4E336881
:109D3000002B2AD03B4B3C4918783C4A002808BFEE
:109D40000B460E930023CDE9103330490F922E4A73
:109D50000C9513930D911292306800282BD02EF0A1
:109D600053FD25681090002DC3D13068E0B12EF06E
:109D7000DBFD2368119033B932682D4C2D4B002A3E
:109D800008BF1C46B8E71F4CB6E72B4F3868C8B170
:109D90002AF05CFB294B06463868002E08BF1E4699
:109DA0002AF084FB226893E7FFF75EFF68B12DF08D
:109DB00057FD2368DEE7FFF757FF48B12DF0D6FCCB
:109DC0002568CFE71E4A1D4BBBE723682846D1E72D
:109DD000194D286840B12AF065FB28B128682AF09F
:109DE0005DFB18B12FF036FA2568BBE72568B9E7A7
:109DF0000B4EB1E7902B0120C4290120E8EE0700AB
:109E0000AC620020C8EE0700046300202463002039
:109E1000C43B0120242C0120980A0120A028012005
:109E2000B04C01209C4C0120E0EE0700D026012020
:109E3000D0EE0700D8EE070054280120B8EE070046
:109E40008021080010B5064C206838B12AF02AFBA2
:109E500020B12068BDE810402AF020BB002010BDD2
:109E600054280120154B1B685BB15A7A022A06D090
:109E7000D3F8A4000028D4BF00200120704701209F
:109E800070470F4B186808B12EF0C6BC10B5FFF72D
:109E9000EBFE18B1BDE810402DF048BC094C20681D
:109EA00050B12AF0FFFA38B120682AF0F7FA18B159
:109EB000BDE810402FF0B0B9002010BDC42901202A
:109EC000B04C012054280120154B1B680BB1002019
:109ED0007047144B186808B12EF0A2BC10B5124C94
:109EE000206850B12AF0DEFA48B920682AF0C4FA96
:109EF00028B1BDE810402DF01DBC002010BD206829
:109F00000028FAD02AF0CEFA0028F6D020682AF0ED
:109F1000C5FA0028F1D0BDE810402FF081B900BF8C
:109F2000C4290120B04C012054280120154B1B6886
:109F300013B1D3F8A4007047134B186808B12EF082
:109F400045BC10B5114C206850B12AF0ABFA48B9A5
:109F500020682AF091FA28B1BDE810402DF014BC19
:109F6000002010BD20680028FAD02AF09BFA0028B3
:109F7000F6D020682AF092FA0028F1D0BDE810400F
:109F80002FF052B9C4290120B04C012054280120DF
:109F900030B5234B1C6885B03CB3224B1B783BB9D2
:109FA00000221346204605B0BDE8304019F028BB1A
:109FB0001D4991F8322091F83130888D8D8E0295AF
:109FC000CDE9003200F5FA6091F8303091F82F2099
:109FD00091F82E1080B219F0D9FD02460B462046AA
:109FE00005B0BDE8304019F00BBB104B186820B12C
:109FF00005B0BDE830402EF0EDBBFFF735FE20B1D7
:10A0000005B0BDE830402DF099BBFFF71BFF20B134
:10A0100005B0BDE830402FF009B905B030BD00BF34
:10A02000C4290120DC2B0120902B0120B04C012001
:10A03000154B1B6813B1D3F8A8007047134B186871
:10A0400008B12EF0DDBB10B5114C206850B12AF0DC
:10A0500029FA48B920682AF00FFA28B1BDE8104063
:10A060002DF080BB002010BD20680028FAD02AF017
:10A0700019FA0028F6D020682AF010FA0028F1D04A
:10A08000BDE810402FF0E4B8C4290120B04C0120F5
:10A0900054280120154B1B6813B1D3F8B400704746
:10A0A000134B186808B12EF0AFBB10B5114C2068E7
:10A0B00050B12AF0F7F948B920682AF0DDF928B143
:10A0C000BDE810402DF052BB002010BD20680028D4
:10A0D000FAD02AF0E7F90028F6D020682AF0DEF955
:10A0E0000028F1D0BDE810402FF0B4B8C4290120F9
:10A0F000B04C012054280120164B1B6813B19FED72
:10A10000160A7047154B186808B12EF09DBB10B5A4
:10A11000134C206850B12AF0C5F950B920682AF0D4
:10A12000ABF930B1BDE810402DF032BB9FED0A0A0B
:10A1300010BD20680028F9D02AF0B4F90028F5D025
:10A1400020682AF0ABF90028F0D0BDE810402FF0CD
:10A1500085B800BFC429012000000000B04C0120D8
:10A1600054280120194B1B680BB100207047184B75
:10A1700010B50446186858B1012C17D0022C19D01C
:10A18000032C01D0002010BDBDE810402EF0BCBB58
:10A19000FFF76AFD0028F5D0012C0FD0022C11D05A
:10A1A000032CEFD1BDE810402DF056BBBDE81040A8
:10A1B0002EF0A2BBBDE810402EF0A2BBBDE81040BF
:10A1C0002DF042BBBDE810402DF042BBC429012058
:10A1D000B04C0120194B1B680BB100207047184B85
:10A1E00010B50446186858B1012C17D0022C19D0AC
:10A1F000032C01D0002010BDBDE810402EF090BB14
:10A20000FFF732FD0028F5D0012C0FD0022C11D021
:10A21000032CEFD1BDE810402DF012BBBDE810407B
:10A220002EF076BBBDE810402EF076BBBDE81040A6
:10A230002DF0FEBABDE810402DF0FEBAC429012071
:10A24000B04C01202DE9F041604B196800298AB01B
:10A250002DDD5F4B0093012929D003F1A8020229CB
:10A26000019224D003F5A872032902921FD003F5AE
:10A27000FC72042903921AD003F52872052904926E
:10A2800015D003F552720629059210D003F57C72A1
:10A29000072906920BD003F593620829079206D08E
:10A2A00003F5A863092908931CBFA83309936846DE
:10A2B0001DF0D4F9061E5BDB464FA82303FB067393
:10A2C00093F89040002C4FD0434C206818B147F0D1
:10A2D00021FD00232360414D286818B147F01AFD85
:10A2E00000232B604FF44F5047F010FD3C4BA82447
:10A2F00004FB067493ED000B002180462DF0DCFA80
:10A3000094ED063B94ED042B94ED021B94ED000BB1
:10A310004046C5F800802EF03DF894ED223B94EDC8
:10A32000202B94ED1E1B94ED1C0B28682EF0ACF82E
:10A3300094F84030002B3DD1A82303FB067393F81B
:10A3400068205ABB28682EF023FA28682EF00EFAEF
:10A3500020B128682EF00EFA044670B9286808B1BA
:10A3600047F0D8FC00242C6020460AB0BDE8F081FC
:10A37000002420460AB0BDE8F0811A4D1A49C6EB08
:10A380000616314428460E2251F043F9174A00239D
:10A390002046AB7313600AB0BDE8F08193ED183B23
:10A3A00093ED162B93ED141B93ED120B28682EF0F2
:10A3B00061F9C7E794ED0E3B94ED0C2B94ED0A1B6D
:10A3C00094ED080B28682EF0DBF8B5E780480120F3
:10A3D000014E0120704D012054280120B04C012075
:10A3E000986200209C4C0120C47F0120AC4C0120CD
:10A3F0001E4A1F4970B501230B701370044645F0C7
:10A4000037F91C4D01461C4819F0C0FE1B4A2B6849
:10A41000147003B170BD1A4B1B68002BFAD1194B95
:10A420001C68002CF6D1184E184A194BC6F8884300
:10A4300047F26000C6E9002347F068FC154B31463F
:10A4400093ED000B2246044629F092FC124B2C603F
:10A4500093ED000A20462AF033F8104B286893ED5C
:10A46000000ABDE870402AF041B800BFE129012090
:10A470008948012054280120182C01208A480120F5
:10A48000B04C0120C42901202023012008EF07003F
:10A490008021080098620020606300205C63002037
:10A4A000F8B52D4D2B6806460C4623B1184647F0EB
:10A4B00031FC00232B60294D286818B147F02AFC95
:10A4C00000232B60264F3D686DB33146284618F0B7
:10A4D00017FC3968234A244B244E09683160002553
:10A4E00015601D7045F0C4F8214B22491D60224AB9
:10A4F000224B086000200021C3E9000114704CB910
:10A500001F4B01201870FFF773FF3068BDE8F8405B
:10A5100018F0DEBB45F0ACF801461A4819F094F883
:10A520003B681D72ECE7C82047F0F0FBC8220546E7
:10A53000002150F06BF8002301223D602A81AB72AC
:10A5400085F8303085F84C30A5F8643085F86C30EB
:10A5500085F88830B9E700BF54280120B04C0120AD
:10A56000C4290120B8290120E0290120AC62002083
:10A57000B4290120B0290120BC290120A8290120EB
:10A58000044D0120C8290120F8B5334D334C2B78F8
:10A59000002B57D0237C002B52D1314C47F06CF963
:10A5A000206801211CF09AFA08B1002323602D4E87
:10A5B00047F06CF92C4B306800241C702C7010B1E3
:10A5C00047F0A8FB3460294C206818B147F0A2FB83
:10A5D00000232360264D274A274B28680024147047
:10A5E0001C6010B147F096FB2C602448244D254B8D
:10A5F0002549264A264E0024047026482C701C70DB
:10A60000254D264B0C60147004602549254A2648C8
:10A610002C7034601C601C719C60244D0C604FF0E9
:10A62000FF33002600271360C0E900672146204859
:10A630002B604FF47A624FF0E9FF1E4B1C60F8BDAF
:10A64000FFF722FB237C002BA7D01B482FF0FAFC3E
:10A6500019482EF003FFA0E7824C0120902801202A
:10A660008828012054280120E1290120B04C012034
:10A67000C42901209C4C0120AC4C0120BC290120A4
:10A68000E0290120044D0120B4290120894801203E
:10A69000B8290120C43B01208A480120182C012040
:10A6A000D43B0120AC620020A8290120A462002034
:10A6B000242C0120004D0120A02801207B4B1B7879
:10A6C000002B00F0CF802DE9F041794C23688EB04B
:10A6D00013B1784B1D7815B90EB0BDE8F081002399
:10A6E000754ECDE90833CDE90A33CDE90C3344F09A
:10A6F000BFFF96F8283008900BB196F829306F4FBD
:10A7000021683A686E4812798DF824304B7AD1F876
:10A71000A4100C91A3F10101A3F10203B1FA81F19C
:10A72000B3FA83F300680A9049095B098DF82C108D
:10A730008DF82D3032B9634B1B681A7912B9624B10
:10A740001B681A79614B8DF8342093F80080B8F1BA
:10A75000000F05D05E4B1B68002B40F0A38098468D
:10A760005C4B5D4A1B7812688DF8358013B1002A66
:10A7700040F08C80594B5A4A1B7812681BB1002A52
:10A7800040F084801346574D8DF8363008A928468E
:10A7900018F076FF2B7822680790A3F10603B3FA2E
:10A7A00083F35B0910F47F4F13722AD04E4B1B7852
:10A7B000002B6FD096F8322096F83130B08DB18EE4
:10A7C0000291CDE9003200F5FA6096F8303096F843
:10A7D0002F2096F82E1080B219F0D8F90546434B79
:10A7E00005911A68049244F043FF049A05990346C0
:10A7F000284619F031FB3E4A3E4BC2E900010022D7
:10A800001A609DF81E30002B2DD19DF81C3043B1ED
:10A810002C4A2D4B116838681A68002303710B719C
:10A8200013719DF81F30002B3FF456AF324B334C61
:10A8300001221A70FFF7A8FE236801332DD1304999
:10A8400020480B68204A05683E68106803F59C5351
:10A85000083300220B604FF0FF33327123602A71FE
:10A86000027139E770472368214CD4E90045D3E9E8
:10A8700016010022234B4EF083FD4FF021FC2B46A6
:10A88000224619F077F81B4B1860BEE744F0F0FE43
:10A890002B4678E700252946A1E744F0E9FE1A4B4C
:10A8A0001860CCE744F0E4FE5AE700BF8948012075
:10A8B000C4290120BC290120902B012060610020C7
:10A8C000142C0120646100206861002024280120EC
:10A8D000282801201D280120202801202C280120C3
:10A8E00030280120C8290120DC2B0120E02B012089
:10A8F000A8290120B4290120E3AC0020A062002097
:10A900001C2901200000E03F0846012010B5314C11
:10A910002378013B012B86B04BD900222E4B2F49C7
:10A920001B782F48096800788DF80420A3F10403F0
:10A93000B3FA83F35B098DF805308DF80600002922
:10A9400032D0284B1B68002BD4BF00230123264A9A
:10A950008DF8073001A91368029303A819F0E8FBEA
:10A9600044F086FE03A90246204819F015FCA0B168
:10A970009DF8143013B11E4B01221A701D4CFFF7C5
:10A9800003FE236801330AD11B4A136803F59C5365
:10A9900008334FF0FF311360216006B010BD44F062
:10A9A00067FE164B1860EFE7154B1B68002BC8D1EC
:10A9B000CDE70C4B186819F0B5FB18B103232370D1
:10A9C0000022ABE72278013A012A8CBF0022012243
:10A9D000A4E700BF8A48012008050120B04C0120EF
:10A9E000DD2B0120B84C0120142C0120182C012053
:10A9F000E3AC0020A06200201C29012008460120B1
:10AA0000C429012070B5174C236803B170BD164BE3
:10AA10001B68002BFAD1154B1D68002DF6D1144E82
:10AA2000144A154BC6F8885347F26000C6E9002364
:10AA300047F06CF9114B314693ED000B2A46054661
:10AA400029F096F90E4B256093ED000A284629F06F
:10AA500037FD0C4B206893ED000ABDE8704029F0EB
:10AA600045BD00BF54280120B04C0120C42901205D
:10AA70002023012008EF07008021080098620020B1
:10AA8000606300205C63002038B5234D2B680133E0
:10AA90003BD1224B1B78002B37D1214B21491B681E
:10AAA000214A9B680C681268204992680868191B43
:10AAB0000029C8BF1C46111B83680029C8BF144663
:10AAC0001A1B002AC8BF1C4644F0D2FD40F6B7331B
:10AAD000001B984219D9164B1B68B3F5FA7F15DC99
:10AAE000144B93ED007AF2EE047AB4EEE77AF1EECD
:10AAF00010FA0ADB0220FFF77BFC05230E4A2B60CD
:10AB0000136803F59C530833136038BD0320FFF727
:10AB10006FFC0623F2E700BFA0620020242701207B
:10AB20006061002008460120646100206861002007
:10AB3000B84C0120142C01201C29012030B5374CC1
:10AB400023680F33042B87B001D907B030BD44F020
:10AB50008FFD334D0146284617F0B2F80028F4D097
:10AB6000304A314B126819688A4204D02F4991F853
:10AB7000280000282FD144F07BFD0146284817F01B
:10AB80009FF80128E1D044F073FD0146244817F0F6
:10AB9000C7F82A78042A11D821686FF00A039B1A93
:10ABA0008B4232D0224A00211160224A236013686E
:10ABB00003F59C530833136007B030BD236801339D
:10ABC00023D01B4B00221A6044F052FD1A4A4FF06A
:10ABD000FF331060E9E791ED000B91ED021B91ED61
:10ABE000082A1A608DED040B8DED001B8DED032AF4
:10ABF00044F03EFD9DED001B01469DED040B9DEDD7
:10AC0000032A284617F018F8B5E70A4A136803F52F
:10AC10009C530833136007B030BD00BFA062002012
:10AC200098610020E42B012040280120902B012076
:10AC3000144601201C2901200846012070B51C4D36
:10AC40008AB0002428460894CDE90244CDE90444A2
:10AC5000CDE90644CDF8234037F08EFA0246284667
:10AC6000019237F08BFA1F26019A014602A84FF095
:10AC7000A5FC02A93246284637F082FA3C35214627
:10AC8000324602A84FF0C2FC284637F075FA019010
:10AC9000284637F073FA019A014602A84FF08EFC5D
:10ACA000324602A9284637F06BFA0AB070BD00BFE1
:10ACB000B897012070B52F4B1C788AB0002C35D185
:10ACC0002D4E054646F0D8FD306803211BF0EEFE00
:10ACD00048B946F0DBFD294929483368042238F099
:10ACE0009BF80AB070BD032130681BF0EFFE3060A6
:10ACF00046F0CCFD2349ADF8044001A823462A467E
:10AD00008DF806402EF0E0FDB8B11E49ADF80440C4
:10AD10002A46012301A88DF806402EF0D5FDF0B992
:10AD200019491748072238F077F80BE013491448FF
:10AD3000042238F071F80AB070BD14491048092295
:10AD400038F06AF846F098FD306803211BF0C6FE23
:10AD500008B10023336046F099FD0AB070BD01A828
:10AD60002FF00AFF0028DBD009490548072238F0F8
:10AD700053F8E7E762270120882801207CF40700C8
:10AD8000382B0120EC66002010EF070020EF0700B1
:10AD900018EF07002DE9F0411E4D2B784BB901212A
:10ADA0000C2047F043FFBDE8F04101210C2047F0A3
:10ADB000C1BF1948002137F01DFA174837F0E0FAF3
:10ADC00016483AF0B5FDE0B9144EDFF85880144F3C
:10ADD000052430463AF0ACFD034632202BB1C8F8CA
:10ADE000007644F051FC013CF3D12B78002BD6D0F7
:10ADF0000A4800213AF072FD084800213AF072FD3D
:10AE0000CDE706483AF0C8FD014604483AF0AEFDE9
:10AE1000DAE700BF60270120B89701207891012070
:10AE20003546526E00000140124B70B50646A3FB3A
:10AE300006239C0921460A220F48104D43F04AFE82
:10AE40000F490D4843F0F4FB4FF47A7303FB14648D
:10AE5000A5FB0435632C4FEAD50506D929460648DB
:10AE6000BDE870400A2243F035BE0649024843F06F
:10AE7000DFFBF3E7D34D6210C4280120CDCCCCCC4E
:10AE8000340008009431080038B510EE105A1C49FF
:10AE900004461C4843F0CCFB28464EF0CFFB41EC67
:10AEA000100B1848012143F023FC04B938BD164D9E
:10AEB00016491448A5FB0435AD0943F0B9FB2946F2
:10AEC0000A22104843F006FE11490E4843F0B0FB39
:10AED000104B4FF47A7202FB1544A3FB0435632C2C
:10AEE0004FEAD50506D929460648BDE838400A226A
:10AEF00043F0F0BD0849034843F09AFBF3E700BF75
:10AF00002CEF0700C4280120D34D621034EF070056
:10AF100034000800CDCCCCCC943108002DE9F047AA
:10AF2000544E554D3768D7F80080404647F020FF13
:10AF3000034645F0010503244FF4FA405BB9012CA8
:10AF400074D0A847404647F013FF0346013C4FF436
:10AF5000FA40002BF3D001237B71484F464DD7F8C0
:10AF60000080D8F80090484647F002FF034645F0BD
:10AF7000010503244FF4FA405BB9012C66D0A847C1
:10AF8000484647F0F5FE0346013C4FF4FA40002BDB
:10AF9000F3D0012388F80530DFF8EC90364DD9F86E
:10AFA0000080D8F800A0504647F0E2FE034645F086
:10AFB000010503244FF4FA405BB9012C22D0A847C5
:10AFC000504647F0D5FE0346013C4FF4FA40002BB3
:10AFD000F3D0012388F8053033681B793BB1284A48
:10AFE000136803F59C5308331360BDE8F0873B6892
:10AFF0001B79002BF3D1D9F800301B79002BEED14F
:10B00000BDE8F08744F034FB98F80530002BE3D01E
:10B010001C4BD8F808201B68801A9842DCD344F0F7
:10B0200027FBA8F80440C8F80800D5E744F020FB47
:10B030007B79002B91D0134BBA681B68801A984219
:10B040008BD344F015FBBC80B86086E744F010FB5E
:10B0500098F80530002B9FD00A4BD8F808201B68C1
:10B06000801A984298D344F003FBA8F80440C8F82B
:10B07000080091E760610020D00C080064610020A6
:10B080001C2901205461002068610020424B1B688C
:10B090002DE9F0411E68414D304647F069FE0346F8
:10B0A00045F0010503244FF4FA405BB9012C0BD0A5
:10B0B000A847304647F05CFE0346013C4FF4FA4097
:10B0C000002BF3D0002600E02646354B334D1B689D
:10B0D0001F68384647F04CFE034645F0010503243F
:10B0E0004FF4FA405BB9012C0BD0A847384647F023
:10B0F0003FFE0346013C4FF4FA40002BF3D00025FD
:10B1000000E02546274B254F1B68D3F800804046BA
:10B1100047F02EFE034647F0010703244FF4FA40A0
:10B120005BB9012C0AD0B847404647F021FE0346E0
:10B13000013C4FF4FA40002BF3D000249EB11A4E8C
:10B140003378DBB165B1194D2B78F3B124B1184CCC
:10B1500023785BB1BDE8F081154B1C70BDE8F08130
:10B16000124B1D70F2E7104B1E70EBE744F080FAB3
:10B17000104A012310602370BDE8F08144F078FA92
:10B180000D4A012310603370DCE744F071FA0B4A7A
:10B19000012310602B70D9E760610020D00C0800FB
:10B1A00064610020686100201D28012024280120FE
:10B1B0002C280120302801202028012028280120C7
:10B1C00038B50F4A0F4B126819688A4215D00E49DC
:10B1D0001A6000230B6001220C4C0D4B2046002509
:10B1E0001A70E5763CF0A4FB204601213CF0CCF837
:10B1F0004FF00113C4E9045338BD0022ECE700BF4F
:10B20000A0620020DC3B012014460120C42801205C
:10B210008B48012038B504460130094D07D0094A52
:10B220002C60136803F59C530833136038BD2B68FA
:10B230000133F4D044F01CFA034B1860EFE700BF71
:10B24000A06200201C290120084601201A4A136828
:10B250000E2B28D00D2B15D0083312D0174B1849C0
:10B2600093ED007A0B68F1EE047AB4EEE77AF1EE32
:10B2700010FA03F59C5394BF0B200A20083310608A
:10B280000B6070470F4B10491A680B68013A9A42DD
:10B290000B4A14BF013300230B60136803F59C5362
:10B2A00008331360704706490B6803F59C53083355
:10B2B0005A200B6010607047A0620020142C0120FF
:10B2C0001C290120F46200208C280120F8B51B4DB8
:10B2D0001B4F1C4E1C4C1D491D4A1E4800233B7031
:10B2E00033702B701C4D23700B701C4C13701C4959
:10B2F0001C4A2B701C4D236013600B801B4C1C4997
:10B30000027C2B604FF0FF3525600B8092B9194C01
:10B31000237803B9F8BD184D46F0AEFA286803212A
:10B320001BF0DCFB08B100232B6046F0AFFA0023D2
:10B330002370F8BD10302EF091F8E8E799870020CF
:10B3400085F40020B6860020CA880020C988002025
:10B35000B586002000F4002084F400209805012028
:10B360009C0501209C87002070A90020BC60002063
:10B37000786E0020DEF40020882801200378462B18
:10B3800001D00020704710B54378572B044627D1D1
:10B390001449082250F02BF908B9012010BD1249B8
:10B3A0000622204650F023F90028F6D00F49204607
:10B3B00050F0F2F80028F0D00D49204650F0ECF89B
:10B3C0000028EAD00B49204650F0E6F80028E4D0E7
:10B3D0000949204650F0E0F8B0FA80F0400910BD6D
:10B3E000002010BD3CEF070048EF070050EF0700BA
:10B3F00058EF070060EF070068EF07002DE9F04302
:10B4000062498DB00822044650F0F1F800284CD172
:10B410005F4F3B7803F0FF06002B51D108342046E4
:10B420002C2150F0ACF800284AD000F10109484620
:10B430002C2150F0A4F80546002841D020460A22CD
:10B44000314651F0A1F8A5EB0903082B80464AD1FB
:10B45000D9F80000D9F8041002AB03C302A801A96F
:10B460008DF8106017F048F800283CD008F1FF3341
:10B47000B3F5CC2F56D26878013590B1DFF85C91E6
:10B48000732651F08BF80446304651F087F8844219
:10B4900007D115F8010F00285DD019F8016B002EB7
:10B4A000EFD13C48FCF7A6F80DE03B4906222046C8
:10B4B00050F09DF850B9364B1B78012BDDB218D0F7
:10B4C0003648FCF797F80DB0BDE8F08334492046C4
:10B4D00050F062F8C8B92E4B1B78022BF0D1314BDB
:10B4E00001221A70EFE73048FCF784F80DB0BDE890
:10B4F000F08301460A22A01D51F046F82B4B1B6831
:10B5000083420FD12A4B1D70DDE72A49204650F0B7
:10B5100043F868B91E4B1B78032BD1D1264B01226F
:10B520001A70D0E72548FCF765F80DB0BDE8F08348
:10B530002349204650F030F848B12249204650F0C7
:10B540002BF80028BFD1204B01221A70BBE71F4BFC
:10B5500001221A70B7E799F80030002BA1D1134BE4
:10B560001B4A0198C3F8008005A901233B701060B5
:10B5700016F08CFF174A05AB08A810214FF03CFFCE
:10B5800008A982B2144837F047FC9CE73CEF07005B
:10B5900085F4002084EF070048EF070070EF0700F4
:10B5A00050EF07009987002078EF0700CC88002033
:10B5B000B686002058EF0700CA8800207CEF0700FD
:10B5C00060EF070068EF0700B5860020C9880020FB
:10B5D000A08700208CEF0700382B012099EF07008F
:10B5E00083490978012900D070472DE9F0411C46B4
:10B5F0009CB0804B1546CEB2412200210BA81E7094
:10B600004FF004F8402C2246294628BF40220BA8C0
:10B610004EF0D4FF0BA84FF0E2FF431E70B10BAA0F
:10B62000754F1A4412F801190A39C9B227FA01F004
:10B6300016296FEA000003F1FF3310D96F4F3B78F2
:10B64000BBB16F490BA805224FF0D1FF60BB062CA0
:10B650002AD86C4B01221A701CB0BDE8F08110F0A2
:10B660000100EBD1591C5070DCD1644F3B78002BAA
:10B67000E7D1DFF8E88198F80030022B73D0402C36
:10B6800000F28280604904220BA84FF0B0FFB0B9ED
:10B690005E4C237803F0FF05002B4BD05C495D48DE
:10B6A000042237F0B9FBD7E75B4E338814FA83F3F3
:10B6B000B3F5005F49DD594B01221A70CCE75849B8
:10B6C00004220BA84FF093FFD8B1564907220BA8CC
:10B6D0004FF08DFF002840F0C7809DF83330202BBD
:10B6E0000DF1330003D110F8013F202BFBD01821BE
:10B6F00018F056F998B94C494C48092237F08CFBA0
:10B70000AAE79DF83030202B0CA803D110F8013F98
:10B71000202BFBD0182118F043F9002834D03B4CE3
:10B72000237803F0FF052BB139494048042237F054
:10B7300073FB91E73E4B40220BA918464FF069FF7F
:10B74000012280F84050227086E73A4B3088294623
:10B7500013FA80F022464EF031FF338814FA83F357
:10B760009BB2338078E7082C14D833490BA84FF0EC
:10B7700013FF20B131490BA84FF00EFF50B92146FD
:10B780000BA8FFF73BFE67E72D492848052237F055
:10B7900043FB61E798F80030022B7FF45DAF294B43
:10B7A0001A7802F0FF00002A7FF456AFDFF8B0806D
:10B7B000254AD8F8007012682744974200F2C480E6
:10B7C000224A234ED2F800C0318814FA81F1B1F533
:10B7D000805F40F2BF80DFF88CC0DCF800100131E0
:10B7E00000F0CA801B4A1C49116001221A7033E71D
:10B7F000612701203CCD00200900400030AD002031
:10B80000A0EF070095D10020B8EF0700C8880020FE
:10B810007CF40700702A012034CD0020CDAC00203C
:10B82000C0EF0700C8EF070020EF0700382B01200A
:10B830005887002034AD002050EF070060EF07006C
:10B84000B0EF070084F40020CC8800209805012088
:10B850009C0501209C870020A8EF070085F40020AC
:10B8600070A90020BC600020A7490BA84FF094FEEF
:10B8700000285CD0A54905220BA84FF0B8FE00288F
:10B8800055D0A34905220BA84FF0B1FE00284ED099
:10B89000A0490BA84FF080FE002848D09E490BA875
:10B8A0004FF07AFE00287AD09C490BA84FF074FE26
:10B8B000002874D09A4905220BA84FF098FE002862
:10B8C00000F0AA80974906220BA84FF090FE0028AE
:10B8D00000F0A280944905220BA84FF088FE0028B2
:10B8E00000F0CD80914906220BA84FF080FE002881
:10B8F00000F0C5808E4905220BA84FF078FE002885
:10B9000000F09D808B4906220BA84FF070FE0028A6
:10B9100000F0958088490BA84FF03EFE00284BD0E0
:10B920000BA8FFF72BFD00283FF496AE27E7834CCA
:10B93000237803F0FF050BB9814BFCE6814982486F
:10B94000052237F069FA87E6804A814911600122B1
:10B950001A7081E67F4B03EB0C333088294613FACB
:10B9600080F022464EF02AFE3388C8F8007014FAA0
:10B9700083F39BB233806FE63188DFF818E2754BB2
:10B9800089B2AEF800101168CCF80010116881F08F
:10B99000010111603080126803EB0233DDE76E4C69
:10B9A000237803F0FF05002B3FF4C4AE6B496648D3
:10B9B000092237F031FA4FE6694B18684DF03EFE28
:10B9C00003AE04460D4645EC104B324602210420DE
:10B9D00043F038FE48A3D3E90023204629464DF022
:10B9E000CDFC47A3D3E900234DF080FE4EF02EF9A5
:10B9F0006428A8BF642020EAE0735A4A0096182100
:10BA000005A84FF0F9FC05A84FF0E9FD05A982B2A1
:10BA10004D4837F001FA1FE69DF82D30532B0CBF2F
:10BA2000062005200BAB1844182117F0B9FF002899
:10BA3000B5D14D4944480D2237F0EEF90CE64B4D97
:10BA40002B7803F0FF07002BB0D19DF82D30532B3E
:10BA50003ED00DF131042046182117F0A1FF002837
:10BA6000E7D021463E46424B424C182218462670EB
:10BA70004FF0CFFD0021012201762A70ECE53B78E2
:10BA8000002B93D13C4B1D78002D8FD19DF82D308C
:10BA9000532B27D00DF131042046182117F080FFD9
:10BAA0000028C6D021462E46344C354B354D1E70ED
:10BAB000182220464FF0ADFD334E34483449002360
:10BAC0000122338023762B7003700A703A70C3E52D
:10BAD0000DF132042046182117F062FF0028A8D08B
:10BAE0002146C0E70DF132042046182117F058FF17
:10BAF00000289ED02146D7E76666666666660A40DD
:10BB0000721CC7711CC75B40D0EF0700D8EF07005D
:10BB1000E0EF0700E8EF0700F8EF070000F007008C
:10BB200014F007001CF0070034F007003CF0070099
:10BB300044F007004CF0070054F0070055CD0020FA
:10BB4000E4AC0020F0EF0700382B01209C87002098
:10BB50007CEF0700C0D10020C888002008F0070053
:10BB6000CC3B01205CF0070024F0070058D10020F6
:10BB70007CD100207EA900206227012098D10020DE
:10BB80007FA90020CDAC002034CD002095D100202D
:10BB9000CEAC0020786E002008B5082209490A487A
:10BBA00037F03AF9FFF792FBC82043F06DFDFF2113
:10BBB0000020FBF79FFB57210020FBF799FBFBF7C9
:10BBC00081FB00BF68F00700382B0120124B13499E
:10BBD0000122002030B45A600325DA600424C3F83F
:10BBE000040541F28830C3F80855C3F810454FF4F6
:10BBF0008035C3F8400560244FF08060C3F8002210
:10BC0000C3F8045381F81A43C1F88001086004495D
:10BC100030BC0A701A60704700A0014000E100E0EB
:10BC2000E188002070B5304C304D314882B017F0BB
:10BC3000DDFE40F24C43032201212E48C4F8005699
:10BC400026F054F92C4BC4F8005640F24C461978B3
:10BC5000284840F24C43032226F0E2FE33460322FA
:10BC600004212448C4F8005626F014FAC4F80056FB
:10BC70000323002201211F48009626F04DFAC4F844
:10BC800000560323012200211A48009626F044FAA8
:10BC9000C4F800560323022200211648009626F01D
:10BCA0003BFA03231A46C4F80056002111480096B7
:10BCB00026F032FAC4F80056032300210D480096FE
:10BCC000062226F029FA0D4BC4F80056197809B15E
:10BCD00002B070BD33460322064826F041FDC4F889
:10BCE000005602B070BD00BF000001403546526EE4
:10BCF000D088002018460120B0620020B1620020E8
:10BD00004FF0102310B5D3F80C4214F0010451D1B8
:10BD100001211F2046F08AFF21461F2047F00AF824
:10BD2000344B1B78002B3DD0334B1B68002B13DDAD
:10BD3000324ADFED336A92ED007A324A07EE903AEA
:10BD4000B8EEC77AF8EEE77A27EE267A012382ED7D
:10BD5000027A1370C2ED017A052043F095FC2A485F
:10BD60003CF0DCF928483CF0A9FC27483CF0EAF913
:10BD7000264B274801241C701AF01EFF254B1C700F
:10BD800043F076FC244A254B1060DB68D9010AD4C5
:10BD900044F086FE224BA0FB0301830A43EA815351
:10BDA000204A136010BD204B1A68D207F0D55B689B
:10BDB0009B09F5E71D4B0122C3F80425D3F80024A5
:10BDC000002AFBD04FF010236FF00101174AC3F88F
:10BDD0000C12D2F80034002BFBD000231349C2F818
:10BDE0000435D1F80034002BFBD00A2043F04CFC82
:10BDF000FBF768FA48630020944C01205063002050
:10BE0000EC51783F28610020E4040120E004012087
:10BE1000BC860020E1AC002050CD0020F0ED00E019
:10BE200040420F0078A90020001000E000E001402F
:10BE30004248434BC26830B5002142F08072C26074
:10BE400059601A6885B042F001021A605A6803917D
:10BE5000039B3F2B05DC039B01330393039B3F2B89
:10BE6000F9DD374B374C5B689A4214BF012300233E
:10BE700023701DD0344B35483022002140251D60F1
:10BE80004EF0C4FB4FF01023314AD3F80C3200219E
:10BE90001170DA0731D52A4B5968019143F0E8FB5C
:10BEA000019902462B4805B0BDE830401AF0A2BA0D
:10BEB000254B26483022002101251D604EF0A6FBAF
:10BEC0004FF01023224AD3F80C320021DB07117007
:10BED00013D51A4BDB68D80106D5194B1A68D10760
:10BEE00002D559688909D8E744F0DAFD1A4AA0FB5F
:10BEF0000223910A41EA8351CFE701211E2046F037
:10BF000095FE00211E2046F015FF144A144B916F38
:10BF10002078144D144C1F2998BF4FF0A04301F016
:10BF20001F0101228A402A60C3F80C2523600028E3
:10BF3000B1D1024BDB68D801D6D5CEE7F0ED00E0F9
:10BF4000001000E07A6E0020D460002098AC002041
:10BF5000ECA80020B405012040420F002033080067
:10BF600000030050507600205476002030B51C4B62
:10BF70001B7883B00446F3B11A4B5D681A4B1B68FB
:10BF80001BB11A4A1268C3F80C2521681848691AAF
:10BF90001AF0ACFA43F06CFB1649174B0968009194
:10BFA0000246019329464FF47A7311481AF0B6FA03
:10BFB000204603B030BD114BDB68D90106D5094BD3
:10BFC0001A68D20702D55D68AD09D7E744F068FD6D
:10BFD0000B4BA0FB0301850A45EA8155CEE700BF64
:10BFE0007A6E0020001000E0547600205076002089
:10BFF000B4050120D4600020ECA80020F0ED00E0A2
:10C0000040420F00104A114B114810B50021114C4D
:10C0100011704FF47A62196021604EF0F7FA0E4801
:10C02000037C6BB90D4C45F027FC206802211AF007
:10C0300055FD08B100232360BDE8104045F026BC43
:10C0400010302DF00BFAEDE7804C0120D43B01209D
:10C05000242C0120C43B01208C4801208828012089
:10C060002DE9F0430024BDB0374B049401464FF452
:10C070007A75224607A8ADF81C408DF81E4005953C
:10C0800003932DF029FC20B9002528463DB0BDE8DA
:10C09000F0832E494FF4806207A82DF07DFC064600
:10C0A00007A82DF0DBF9B6F5806FEDDB284E009583
:10C0B00002A9019125480294334610AA4FF48061E9
:10C0C00016F0DEFB05460028DFD0224BDFF8988013
:10C0D000214FDFF8989010A9184617224FF099FACF
:10C0E00003461F22404616A9DC754FF092FA88F8E5
:10C0F0001F403846DFF878801F221EA94FF089FACA
:10C10000FC770F22154F26A948464FF082FA0F22DE
:10C110002AA9404689F80F404FF07BFA0F22384693
:10C120002EA988F80F404FF074FA029A0C4BFC735A
:10C130001A6012B1013A56F822200A4B28461A60BA
:10C140003DB0BDE8F08300BF6006080098060120FE
:10C15000242C012050290120302901208829012088
:10C16000C43B0120D43B01206829012098290120EB
:10C170002029012070B50C4E054645F07DFB306846
:10C1800029461AF093FC044620B945F07FFB33683A
:10C19000204670BD294630681AF098FC306045F0A2
:10C1A00075FB204670BD00BF8828012010B5084CE3
:10C1B00082B0019045F060FB206801991AF08EFC76
:10C1C00008B10023236002B0BDE8104045F05EBB1B
:10C1D000882801202DE9F0433E4B3F4C3F49D3F8DE
:10C1E00000803F4D3F4E0128BDB004BF25460E469E
:10C1F000B8F1000F54D107460320FFF7BBFF00281A
:10C200004ED0394B394A3A4C3A49CDF80480012F87
:10C2100018BF1A4604A843464FF47A77ADF8108049
:10C220008DF81280029700942DF04EFB9DF810308F
:10C23000002B40D0DFF8C890DFF8C8802E4F04E014
:10C2400011A82DF00BF9C8F8007600224FF47A738C
:10C2500004A911A80F93CDE90D42ADF844208DF843
:10C2600046202DF057FE9DF844300BB313F0D00F4D
:10C27000E6D11AA9402211A82FF0A2F81AAB2AA8D9
:10C280002A4646214FF0B8F8431E442BD8D882B234
:10C290002AA9484636F0C0FD0A2043F0F5F9CFE759
:10C2A000164917480C2236F0B7FD3DB0BDE8F083C3
:10C2B00004A82DF0D3F80320FFF778FF30464FF0A5
:10C2C0008EF9314682B20E4836F0A6FD3DB0BDE88B
:10C2D000F08300BF882801208CF0070098F0070049
:10C2E00078F0070084F00700080808007C0C0800BC
:10C2F00060060800EC6600203546526EA0F007008C
:10C30000382B0120000001402DE9F0473C4B1C6810
:10C31000ADF5287D24B90320FFF72CFF054640B971
:10C3200038493948042236F077FD0DF5287DBDE8FF
:10C33000F0872346354E364A364904944FF47A77CF
:10C3400007A8ADF81C408DF81E40059703962DF008
:10C35000BBFA9DF81C30002B4ED0DFF8CC90DFF8F4
:10C36000CC802D4F05E014A82DF078F82B4BC3F8A6
:10C37000007600224FF47A7307A914A8CDE9106261
:10C38000ADF850208DF8522012932DF0C3FD9DF88A
:10C39000504014B314F0D004E5D10DF1740A5146A5
:10C3A0004FF4807214A82FF00BF81B9A0192002D05
:10C3B00014BF4B4643461A4ACDF800A04FF496717D
:10C3C0005DA84FF019F85DA982B20F4836F024FD40
:10C3D0000A2043F059F92546C5E707A82DF03EF895
:10C3E0000320FFF7E3FE0F490748032236F014FD50
:10C3F0000DF5287DBDE8F0870320FFF7D7FE8FE716
:10C40000882801207CF40700702A012060060800BB
:10C41000ACEE0700EC6600203546526E000001408D
:10C42000B4F00700C0F0070080210800B0F007005A
:10C43000F0B5334E337C8FB00446002B5BD1032024
:10C44000FFF798FE00284FD0002722462D4C2E499A
:10C4500001943B464FF47A7505AC05A80395029705
:10C46000ADF814708DF816702DF02EFAA446BCE8C5
:10C470000F00264D029C74600FC5BCE80F000FC56D
:10C48000DDE90321337CDCF800002860C6E90221E5
:10C4900003B31F4B1F4CF26A1F4822601F6014F049
:10C4A000CBFD43F0E5F81D4A1D4910601D48236887
:10C4B0001D4A0F6001242021047001A84EF09CFF4A
:10C4C00001A84FF08CF801A982B2184836F0A4FCFC
:10C4D0000FB0F0BD0320FFF769FE15491348052290
:10C4E00036F09AFC0FB0F0BD12491048042236F025
:10C4F00093FC0FB0F0BD06F110002CF0AFFF9EE7EB
:10C500002827012060060800EC660020382701205B
:10C51000202701205C270120FC04012040CD0020C1
:10C5200064A9002062270120C4F00700382B0120F5
:10C53000B0EF07007CF407002DE9F04F244EDFF840
:10C54000A0A0DFF8A09085B006F26C4B80465F4655
:10C55000032401ADFF220023CAF80096CDF808801D
:10C56000ADF80420039395E80E00384630F0C6F984
:10C5700096F87E341648C6F868B439460122DBB90D
:10C580002FF0D0F980B113482CF068FF104901F268
:10C5900044402DF0E3F978B10F4A104B1660C3F810
:10C5A000008005B0BDE8F08F0346024639460848D2
:10C5B0002FF0B8F90028E6D16420CAF8009643F0BD
:10C5C00063F8013CC6D1204605B0BDE8F08F00BF3E
:10C5D000EC660020306B00200C850120C8AC0020E8
:10C5E000000001403546526E38B52848284A037C81
:10C5F0000024147053BB274A274B002414701C706E
:10C60000FEF764FE254A264B2648147021461C700E
:10C6100035F0F0FD244839F08BF978BB214835F02E
:10C62000AFFE224B1B7803BB01210C2046F0FEFA23
:10C6300001210C2046F07EFB1D491E4A1E480023A6
:10C640000B701370BDE83840FFF776BF1B4D1030FC
:10C650002CF004FF45F010F9286803211AF03EFA87
:10C6600000B12C6045F012F9C5E70F48002139F000
:10C6700035F90D48002139F035F9D5E70A4839F088
:10C680008BF90146084839F071F9C7E728270120DE
:10C690001C270120622701203CCD0020C8880020F3
:10C6A00055CD0020B8970120789101206027012006
:10C6B000242701206127012080841E008828012072
:10C6C00008B5054B1B780BB1FFF78EFF642042F0D5
:10C6D000DBFFFAF7F7FD00BF1C2701202DE9F04F23
:10C6E000574A584F5848002387B013703B70FFF7E4
:10C6F00023FF0546002858D1544ED6F86834002B45
:10C7000000F09B809B7CDFF85891DFF85881DFF8C0
:10C7100040A13B704FF0000B4B4AC9F80086002443
:10C72000CDE90424FF23ADF80C3003AB0ECB50460B
:10C73000ADF808408DF80A4030F0E0F896F87E3405
:10C74000434AC6F868240193002B32D1D6F86C24F2
:10C75000012492698DF8084050469047019B0028BB
:10C7600046D0D6F868143948019122468DF8094020
:10C770002FF0D8F8019900284ED036482CF06EFEE4
:10C78000324901F244402DF0E9F800284BD0324AFA
:10C79000012316608DF80A30C9F8008616E02F4B89
:10C7A000294A1A6000233B700125284607B0BDE8DE
:10C7B000F08F8DF808408DF80940534600228DF81F
:10C7C0000A20C9F800862BB39B7C3B70594602A80F
:10C7D0001AF0E2F903289FD801A353F820F000BF14
:10C7E0009FC7020009C80200FBC70200ABC70200D6
:10C7F000D6F868348DF80900E0E7114A012328468D
:10C80000137007B0BDE8F08FFA200BF1010B42F076
:10C810003BFF81E72B23D8E7034602460B482FF066
:10C8200081F80028A9D100238DF80A30D6F86834A1
:10C83000C9F80086002BC7D1ECE72B2363E700BFC4
:10C84000814C0120904C012080841E00EC66002069
:10C85000586B0020306B00200C850120C8AC0020F4
:10C86000000001403546526E10B58AB000231A4AC6
:10C870001A49ADF8043001A88DF806302DF024F8DF
:10C8800060B90446ADF80400134A15498DF8064016
:10C89000012301A82CF0F0FE044658B10023114AF0
:10C8A0000E49ADF8043001A88DF806302DF00CF8D3
:10C8B000044610B120460AB010BD0A4A0849ADF836
:10C8C000044001A801238DF806402CF0D5FE012478
:10C8D00020460AB010BD00BF08080800EC66002022
:10C8E000306B00207C0C080070B51A4C237813B90B
:10C8F0009FED190A70BD194D2E6842F0B9FE014630
:10C9000030461AF00DFD0028F2D0237833B9144BCD
:10C910001B78ABB9134B93ED000A70BD2C6842F045
:10C92000A7FE014620461AF0FBFC0028EFD042F09B
:10C930009FFE01460C481AF013FD0028E7D1D7E707
:10C9400042F096FE0021024608481AF045FC0028F5
:10C95000E0D1CDE7BC8800200000C07F80F400203B
:10C9600044CD0020606E00208C05012090860020C0
:10C970002DE9F04FDFF80C8198F80050A3B015B9FD
:10C9800023B0BDE8F08F42F073FE344A1368C31A37
:10C99000202B0446F4D9DFF8F0A01060DAF800305C
:10C9A000002B52D000208DF85400FDF75BFADAF826
:10C9B00000308DF85500002B00F074810020169097
:10C9C000FDF7B4FA1790FDF733FB1890FDF762FB03
:10C9D0001AAF1990002601363046FDF7C3FB47F821
:10C9E000040B3046FDF7F6FB032EB860F3D11C496B
:10C9F0000CA815AA1AF0F0F80E9B1BB1194B9DF864
:10CA00003C201A709DF83D301BB1174B9DF83E201D
:10CA10001A709DF83430002B42D098F80030002B6B
:10CA200061D0124B124901221A700A7042F020FEA6
:10CA3000104A114B1060DB68DE0127D50F4B1A68D6
:10CA4000D00723D55B689B0928E00D4B18680028A8
:10CA500000F04D822BF092FEA5E700BFE4A8002075
:10CA6000BC86002094AC0020A5870020E8A8002008
:10CA70007DA9002090AC0020F0ED00E0001000E067
:10CA8000B04C0120E0040120C429012044F008F842
:10CA9000B84BA0FB0301830A43EA8153B64A1360F3
:10CAA0000C9B03B398F80030EBB1B44F3B78002BEC
:10CAB00000F00382B24B1A78AAB9012100221A7041
:10CAC000397042F0D5FDAF4AAF4B1060DB68D90139
:10CAD00040F11D82AD4B1A68D20740F118825B68A5
