:020000022000DC
:107000000000042075FD0500B5FD0500B7FD050075
:10701000B9FD0500BBFD0500BDFD05000000000039
:10702000000000000000000000000000F1FC05006E
:10703000C1FD05000000000011FD0500C5FD0500B3
:10704000D1FF0500C7FD050059D40500E536040051
:1070500099370400C7FD050031D70500C7FD0500BD
:10706000C7FD0500C7FD0500C7FD0500C7FD0500FC
:10707000C7FD0500C7FD0500C7FD0500C7FD0500EC
:10708000C7FD050041FA0500C7FD0500C7FD050065
:10709000C7FD0500C7FD050091410500C7FD0500BE
:1070A000C7FD0500C7FD050049530300C7FD0500E6
:1070B000C7FD0500C7FD050000000000000000003E
:1070C000C7FD0500C7FD0500C7FD0500B9050600A1
:1070D000C7FD0500C7FD0500C7FD050085C8040004
:1070E000C7FD0500C7FD0500C7FD05000000000045
:1070F00000000000C7FD050000000000310606008A
:10710000000000000000000000000000000000007F
:10711000000000000000000000000000000000006F
:10712000000000000000000000000000000000005F
:10713000000000000000000000000000000000004F
:10714000000000000000000000000000000000003F
:10715000000000000000000000000000000000002F
:10716000000000000000000000000000000000001F
:10717000000000000000000000000000000000000F
:1071800000000000000000000000000000000000FF
:1071900000000000000000000000000000000000EF
:1071A00000000000000000000000000000000000DF
:1071B00000000000000000000000000000000000CF
:1071C00000000000000000000000000000000000BF
:1071D00000000000000000000000000000000000AF
:1071E000000000000000000000000000000000009F
:1071F000000000000000000000000000000000008F
:10720000F1EE103A43F08073E1EE103A704700BFA0
:1072100010B5054C237833B9044B13B10448AFF3D0
:1072200000800123237010BD2C65002000000000A9
:10723000543D070008B5034B1BB103490348AFF3A6
:10724000008008BD0000000030650020543D0700AC
:10725000154B002B08BF134B9D46A3F5803A002128
:107260008B460F461348144A121A41F03FFA0F4B4F
:10727000002B00D098470E4B002B00D098470020E1
:10728000002104000D000D48002802D00C48AFF387
:10729000008041F06FF92000290038F0C3FD41F073
:1072A00043F900BF000008000000042000000000B7
:1072B000000000002C650020E461012000000000B7
:1072C00000000000BFF34F8F0549064BCA6802F467
:1072D000E0621343CB60BFF34F8F00BFFDE700BFF9
:1072E00000ED00E00400FA0535DF704733DF70473A
:1072F0003CDF70473DDF704741DF704711DF70476B
:1073000012DF70470020704701207047012070474E
:10731000704700BF704700BF704700BF704700BF95
:10732000024B02F001021A70704700BFF36900209F
:1073300038B50446C069524D40F03AFA46A3D3E945
:10734000002340F09FFA02460B46A069C5E90023DE
:1073500040F02EFA40A3D3E9002340F093FA02460E
:107360000B46606AC5E9022340F022FA3CA3D3E948
:10737000002340F087FA02460B46E06BC5E9042380
:1073800040F016FA38A3D3E9002340F07BFA024616
:107390000B46B4F84C00C5E9062340F009FA34A3C3
:1073A000D3E9002340F06EFA02460B46206CC5E993
:1073B000082340F0FDF930A3D3E9002340F062FA3E
:1073C00002460B46A06AC5E90A2340F0E1F924A36E
:1073D000D3E9002340F056FAC5E90C01E37DAB6325
:1073E000237DA1882748012B8ABF637D002303F0FA
:1073F000010385F83C30E27A234B02F00702A2F148
:107400000702B2FA82F25209A1F5FA61E98785F81A
:107410003D20A27985F84020E27985F84120227A42
:1074200085F84220627A85F84320A27A85F84420C4
:1074300021680268A3FB01439B094FF47A7404FBA3
:1074400013131249A5F846300132012302600B7074
:1074500038BD00BFAFF3008048AFBC9AF2D77A3E88
:10746000FCA9F1D24D62503F51601FEF14D95F3F2C
:107470007B14AE47E17A843FF168E388B5F8E43ED7
:1074800050E000209CE00020D34D621098E00020E6
:10749000024B034AC3F80026012070470000014058
:1074A0003546526E024B0349C3F80016104670472A
:1074B000000001403546526E0AB3C2F308032DE9BD
:1074C000F0471546A3B9DFF83C8006460F464FEA61
:1074D00052290324D8F8680403683A46D3F814A064
:1074E00031464B46D047013C30B914F0FF04F1D18E
:1074F0004FF0FF30BDE8F0872846BDE8F0874FF039
:10750000FF30704748650020704700BF037C13F0D0
:10751000080306D0C36A406A181A48BF6FF00040DB
:1075200070471846704700BF2AB3C2F308032DE91D
:10753000F0471546C3B906460F4636F065F90F4BBE
:10754000DFF83C8018604FEA55290324D8F8680416
:1075500003683A46D3F824A031464B46D047013C55
:1075600030B914F0FF04F1D14FF0FF30BDE8F087DF
:107570002846BDE8F0874FF0FF307047B07B002011
:1075800048650020103021F01DBD00BF103021F0F3
:107590007DBD00BF00B583B00B4601220DF1070190
:1075A00010308DF8073021F071FD03B05DF804FB59
:1075B00000B587B00346064A6846182141F08CFFA3
:1075C000694682B203482AF0CBFB07B05DF804FBA2
:1075D000D8CC0600F4DF0020103021F057BB00BFEC
:1075E00000B583B001220DF10701103021F07CFAC3
:1075F00001280CBF9DF807004FF0FF3003B05DF885
:1076000004FB00BF0846114641F04EBF084636F065
:107610003DB900BF084636F01FB900BF10B50E4C8B
:1076200084B0227801A8092111F066F8237802338A
:107630002370024670B1094B1B7803F0FF004BB179
:10764000074B1B7803F0FF0023B1064892B201A953
:107650002AF086FB04B010BD1AAF0020F5690020A7
:10766000F3690020F06A00202DE9F0434779402FAC
:107670003946A1B028BF40219FB30023E9464A46BE
:107680009C461F46054603EB4304AE7A167000EB9A
:1076900084040133247C14F0080FC4F3C00818BF1D
:1076A000013782F801805FFA83FE05F10C0502F1D3
:1076B000020218BFFFB21EB10CF1010C5FFA8CFC84
:1076C0007145E0D8084B094C1F70094A84F800C086
:1076D0004846102311F042FB064B187021B0BDE85C
:1076E000F083BC46E946EDE7C1E00020C0E00020A1
:1076F000B0E00020AEE0002010B50C4CD4F86804D7
:107700000368DB69984794F82430DB0706D400222D
:107710004FF0FF3384F82420236310BD04F12400CC
:1077200024F086F90028F2D110BD00BF4865002082
:10773000F0B58BB01F2201460092194802ABFF2220
:107740002BF074F80D2804D815482BF065F80BB011
:10775000F0BD014602A811F01FFC0028F4D0114E24
:10776000114F347802AB07CBC4EBC40C07EB4C05CC
:107770001B8847F81C006960AA60AB8136F044F8AA
:10778000E4B20A4D0A4A45F82400012184EA0103C3
:107790000348115533702BF03FF80BB0F0BD00BF1C
:1077A00048410120EB69002088AE00201CAF00207A
:1077B00080AF0020174BDB68D90110B503D5164BFD
:1077C0001A68D2071FD437F037FA144BA0FB030115
:1077D000830A43EA815312490A6840F6B7309A1A7D
:1077E00082420FD90F480B6002780F4901320978A5
:1077F00002F00F02914209D001780C4CC9B244F852
:107800002130027010BD5B689B09E4E7084B012240
:107810001A7010BDF0ED00E0001000E040420F00D3
:107820005C010120A4010120A601012064010120C6
:10783000A501012010B5034B0360044612F058FB6C
:10784000204610BD88DC06000F49097802290AD1BC
:10785000F8B50E4E0E4F3578EDB21C467B5D0BB978
:10786000202C01D9F8BD70470A48114600EB45109D
:10787000224640F013FF0848E3B24355012185EA50
:10788000010279553270F8BD9CDC0020F2690020BD
:10789000B4BF0020D8AE002018AF002070B5124C45
:1078A000124A134B2260002646F660706360C4F8EB
:1078B000886338F0F7FA0F4B0F4D93ED000B32460B
:1078C000214604461CF0C4FE0C4B2C6093ED000ACC
:1078D00020461DF085FA0A4B286893ED000ABDE8A2
:1078E00070401DF093BA00BF58D80020E4CC0600C9
:1078F000440307001061002078DD0020BC610020F7
:10790000B8610020F8B51A4B1B78022B044626D02C
:10791000184B194A19480027214601261F70167076
:107920002CF02EFC05462AF093FB2846F7212AF07E
:10793000A3FB284602212AF0AFFB3A4639462846E7
:107940002AF0A2FB0E4B1E7035F05EFF0D4B0E4A67
:107950001C8010602846BDE8F8402AF07BBB0B4A2B
:107960000B490C4B10800120002208701A70F8BDE2
:107970009CDC0020268C002058DC0020AC3A012042
:107980009EDC002096DC002098DC0020C4600020F3
:10799000F5690020F3690020214A13884FF6FF7132
:1079A0009BB28B42F0B403D013889BB2984228D08C
:1079B0001C4B1B78022B24D01B4B1C481C4F1D4E0C
:1079C0001D4D1E4C1E491A7800233B703370037006
:1079D0001C482B7023701C4D0B701C4C1C490370F1
:1079E00017202B70237008801A4B1AB900221A70C6
:1079F000F0BC70471A78002AF8D0174A012111709C
:107A0000F4E713889BB29842F2D1144C1449002336
:107A10004FF6FF7023701080F0BC0B70704700BFF2
:107A2000C46000209CDC002050DC0020698E002017
:107A3000207C0020C77B0020C67B00202C8E0020ED
:107A4000A56B002058DC00209DDC0020298C002044
:107A5000D0600020268C0020878E0020F569002051
:107A6000F369002010B5054B1C6835F0CDFE0146CA
:107A70002046BDE8104011F0FBBA00BF24AF002043
:107A80002DE9F04F4948037CABB0002B40F08A80D1
:107A90004748037C002B40F081804648037C002B44
:107AA00078D14548037C002B70D10024322035F07A
:107AB000B7FE424E424A43490194234604A84FF47C
:107AC0007A75ADF810408DF812400295009620F0BE
:107AD000A3FF9DF81000002855D03B4D2B68132BB9
:107AE00049DC3A4FDFF8E88005E011A820F05EFDA0
:107AF0002B68132B3FDC4FF47A73002204A911A8E2
:107B00000F930E94ADF844408DF846400D9621F049
:107B1000C1F99DF8443040221AA911A85BB322F0A4
:107B20000FFC9DF8443013F0D00F1AA8DDD141F0BE
:107B3000C6FD03461AAA0638062B39461044D4D986
:107B400041F062FD81460028CFD1D5F800A00AEBB4
:107B50004A0B08EB0B1B1AA92F22584641F0C9FD0E
:107B60000AF1010311A82B608BF82F9020F01EFD65
:107B70002B68132BBFDD04A820F018FD286800280F
:107B8000D4BF002001202BB0BDE8F08F103020F0D2
:107B90000DFD8AE7103020F009FD82E7103020F05B
:107BA00005FD7AE7103020F001FD71E754FD00205B
:107BB000A0DE0020B0010120E4010120A4DC0600C9
:107BC000ECCC06004865002044FD0020F0CC060007
:107BD00088FD002081682DE9F0470568044669B1F9
:107BE000284E2B680A685B68A260B34208463DD104
:107BF00035F04CFEA1680029F3D12568238E04F1ED
:107C00000C0903B30027E36ADFF878A0B8460BE05D
:107C100035F03CFEE36AC6F80080218EC6F8048089
:107C20000137BAB291420FD9BEB203EBC6067168F2
:107C300008460029EFD02B685B685345E8D02846FA
:107C40009847E36AE7E7E36A00214FF6FF72994538
:107C50002186A28607D02A680A4952688A420BD137
:107C6000184635F013FE2046BDE8F08728469847B1
:107C7000A1680029B5D1C0E728461946904720469B
:107C8000BDE8F0870D76020081682DE9F0470568B0
:107C9000044669B1284E2B680A685B68A260B3424B
:107CA00008463DD135F0F2FDA1680029F3D12568E1
:107CB000238E04F10C0903B30027E36ADFF878A0F0
:107CC000B8460BE035F0E2FDE36AC6F80080218E8D
:107CD000C6F804800137BAB291420FD9BEB203EBA5
:107CE000C606716808460029EFD02B685B685345CB
:107CF000E8D028469847E36AE7E7E36A00214FF6B1
:107D0000FF7299452186A28607D02A680A495268DF
:107D10008A420BD1184635F0B9FD2046BDE8F08700
:107D200028469847A1680029B5D1C0E728461946DA
:107D300090472046BDE8F0870D7602002DE9F84F08
:107D4000074635F061FD314DDFF8CC90DFF8CCB05F
:107D5000DFF8CCA0064645F00105D9F800301C68D4
:107D6000204639F0D1F803464FF003084FF4FA40AB
:107D70006BB9B8F1010F3CD0A847204639F0C4F8E0
:107D8000034608F1FF384FF4FA40002BF1D0DBF83E
:107D90000030D3F80080404639F0B6F8034603249B
:107DA0004FF4FA405BB9012C23D0A847404639F084
:107DB000ABF80346013C4FF4FA40002BF3D0144BD0
:107DC0001B68D3F80080404639F09EF80346032430
:107DD0004FF4FA405BB9012C0BD0A847404639F06C
:107DE00093F80346013C4FF4FA40002BF3D0BDE872
:107DF000F88F35F009FD801BB842F8D2054B0A20F8
:107E0000C3F800A635F00CFDA7E700BF00EB0600A5
:107E1000DC60002000000140D4600020D860002019
:107E20003546526E30B5434B434C93F8442093F89B
:107E3000420093F8411093F8435095B0049293F8A0
:107E40004020CDE90205CDE9002107A8DB8F3B4AA0
:107E5000182141F041FB206800284DD01CF086FF1E
:107E6000374D03462068002B18BF1D461CF0AEFF9F
:107E700007A923681090002232480D9132490F95CE
:107E8000CDE911220E901391002B3FD018461CF023
:107E900099FF00283ED120681CF07EFF002839D0D1
:107EA0001FF02AFD23681190002B31D018461CF0DA
:107EB00089FF00282CD120681CF06EFF40B31FF012
:107EC00069FD0446214A224B126800924FF48061FA
:107ED0000DAA204812940FF0B3FC00211E4820F098
:107EE0000BFF1C491C484FF4806221F0CFF81A4860
:107EF00021F068F815B030BD1248114A174B1249ED
:107F0000139107ACCDE90D40CDE90F230023119368
:107F10000024D7E720680028F8D01CF053FF28B1D0
:107F200020681CF04BFF18B120F038FA2368BAE73C
:107F30002368B8E750E0002078DD002008CD060077
:107F4000F8CC0600946100207461002084F00020C9
:107F5000E4E0002014C4002094DD00204403070066
:107F600010B5134C2068B8B11CF02CFFA8B12068E4
:107F70001CF024FF20F010FA0E4A1368B3F57A7F44
:107F80000ADA48B10C490C68844205D00B4C0860F1
:107F900044F823000133136010BD20681CF0FCFE80
:107FA0000028F9D020681CF0F7FE1FF0A3FCE3E7DF
:107FB00078DD002084F0002094F00020E4E0002030
:107FC0002DE9F047054680682F6860B1284C3B6872
:107FD00002685B68AA60A3422AD135F057FCA86802
:107FE0000028F4D12F682B8E05F10C093BB3002635
:107FF000EB6ADFF87C80B2460BE035F047FCEB6AB9
:10800000C4F800A0298EC4F804A00136B2B291428F
:1080100016D9B4B203EBC404616808460029EFD056
:108020003B685B684345E8D038469847EB6AE7E72A
:10803000014638469847A8680028C8D1D2E7EB6ABD
:1080400000214FF6FF7299452986AA8607D03A6823
:10805000074952688A4205D1184635F017FC284670
:10806000BDE8F0873846194690472846BDE8F087B6
:108070000D7602002DE9F047038E8146054659F83A
:108080000CABFBB10026C36ADFF8A080374609E0DD
:1080900035F0FCFBEB6A2760298E67600136B2B2CF
:1080A000914210D9B4B203EBC404616808460029B8
:1080B000F1D0DAF800305B684345E9D05046984784
:1080C000EB6AE8E7C36A00214FF6FF7299452986FB
:1080D000AA860CD0DAF80020144C5268A24221D1B2
:1080E000184635F0D3FB0423C5F82C906B86A8689E
:1080F0002E6800232B7158B10C4C336802685B6802
:10810000AA60A34206D135F0C1FBA8680028F4D1CB
:10811000BDE8F087014630469847A8680028ECD1B2
:10812000BDE8F087194650469047DCE70D7602001F
:108130002DE9F0418B8E4FF6FF72934282B00C46D0
:10814000054616D0CA6AD90902EBC10203F07F01C5
:10815000526832F83100A08602EBC10200204FF6CF
:10816000FF71107128462A60AB80D18002B0BDE853
:10817000F081098E2768002932D1638E002B00F030
:1081800085800123E66A5A4A23864FF480604FF0C7
:1081900080083B681B68934274D135F05DFB238EE9
:1081A000E76A7060013B9BB207EBC30100284A6895
:1081B00008BF4FF000080020A6F80080708022B1B0
:1081C00037F83360488886422ED8012100224FF6C6
:1081D000FF73284621712A60AB8002B0BDE8F081B0
:1081E000E66A4B1E9BB206EBC30E3046DEF8042057
:1081F0002AB1BEF802C036F83380E0451CD8638E41
:10820000994223D03A4A4B1C9BB2B3F5007F00EB56
:10821000C106238615BF4FF480604FF47E704FF087
:1082200080084FF07F08B4E700EBC313441C9BB2F7
:1082300002EBC0024C8091E70CEBC3130CF101017F
:108240009BB202EBCC02AEF8021087E7B3F5007FD9
:10825000BBD004F10C025B0096421FFA83F83B6826
:1082600016D024489B6883424FEAC80135D1304676
:1082700041F01AF90028A8D01D4A218EE062A4F826
:108280003280C0E701463846984788E7E66AE0E76B
:10829000174A1B68019293424FEAC80022D135F079
:1082A000DBFA019A002890D0D6F800C07168B36854
:1082B000D6F80CE0C0F80CE0C0F800C04160836064
:1082C000D6F810C07169B369D6F81CE0C0F81CE09C
:1082D000C0F810C041618361CFE70A463846314695
:1082E0009847C7E7014638469847019ADAE700BF42
:1082F00015760200057602002DE9F0418B8E4FF6CF
:10830000FF72934282B00C46054611D0CA6AD90961
:1083100002EBC10203F07F01526832F83100A086FF
:1083200002EBC10228462A60AB8002B0BDE8F081B2
:10833000098E2768002932D1638E002B00F08580DA
:108340000123E66A594A23864FF480604FF0800883
:108350003B681B68934274D135F07EFA238EE76A3E
:108360007060013B9BB207EBC30100284A6808BF5D
:108370004FF000080020A6F80080708022B137F886
:108380003360488886422ED8012100224FF6FF73C1
:10839000284621712A60AB8002B0BDE8F081E66A10
:1083A0004B1E9BB206EBC30E3046DEF804202AB10A
:1083B000BEF802C036F83380E0451CD8638E99427F
:1083C00023D03A4A4B1C9BB2B3F5007F00EBC106A9
:1083D000238615BF4FF480604FF47E704FF0800805
:1083E0004FF07F08B4E700EBC313441C9BB202EBD1
:1083F000C0024C8096E70CEBC3130CF101019BB259
:1084000002EBCC02AEF802108CE7B3F5007FBBD0D4
:1084100004F10C025B0096421FFA83F83B6816D009
:1084200023489B6883424FEAC80135D1304641F06A
:108430003BF80028A8D01D4A218EE062A4F83280C3
:10844000C0E701463846984788E7E66AE0E7174AFA
:108450001B68019293424FEAC80022D135F0FCF923
:10846000019A002890D0D6F800C07168B368D6F899
:108470000CE0C0F80CE0C0F800C041608360D6F8A2
:1084800010C07169B369D6F81CE0C0F81CE0C0F8F0
:1084900010C041618361CFE70A46384631469847AC
:1084A000C7E7014638469847019ADAE71576020091
:1084B000057602002DE9F84307464068BD68032DA4
:1084C000884600F1080613D85FFA85FC002D77D0A6
:1084D0000CF1FF3456FA84F4C31D002213F8011F77
:1084E000002908BF42F00102A342F7D1002A40D080
:1084F00000237355D7F80090BE68D9F80830A3B1AF
:1085000006F1070C8444DA8896420BD13EB3C21DB3
:10851000DC1D01E0944522D012F8011F14F8015F20
:10852000A942F7D01B68002BEDD1B6F5803F7D68DE
:10853000D9F8004034D2236828489B68834206F16A
:10854000090140D1284640F0AFFF034643B33A68E3
:10855000DE809168196000219360796002E09A885A
:1085600001329A800522C8F8003088F80420BDE85E
:10857000F883022388F80430037A88F80030BCF1CD
:10858000010F08D0437A88F80130BCF1020F02D005
:10859000837A88F80230002308F80530BDE8F883B4
:1085A00023680F4A5B68934213D0294620469847B8
:1085B0003A6800239268012189F804101A60FFDEEE
:1085C00002230B71E7E70A462046294698470346EF
:1085D000BCE7284635F05AF9EAE700BF0576020005
:1085E0000D7602002DE9F04745684DB18368EA88B1
:1085F000934204460E4605D01D440133A3602E72FB
:10860000BDE8F0875B00D0F800905F1CB7F5803FB5
:10861000D9F8008012D2D8F800201549D2F808A065
:108620008A4503F10A021CD11146284640F03CFF5E
:1086300020B1C780A36860600546DDE7D8F8003048
:108640000C4A5B68934208D1284635F01FF9012295
:10865000002389F804206360D2E729464046984702
:10866000F5E729464046D0470028E2D1E6E700BFBB
:10867000057602000D76020003792DE9F0470C46DD
:10868000D907054637D4DA0624D413F0600F1DD07D
:108690002E884FF6FF77BE4215D0E36AF20903EB4E
:1086A000C20306F07F09D3F8048008EBC900B24684
:1086B000C6882146FFF7E0FFA38E28F83930BE4276
:1086C000A4F834A0E9D14FF0FF332B6000232B71C5
:1086D000BDE8F0872A884FF6FF718A4237D0E16AF9
:1086E000A68ED00901EBC00102F07F00496821F895
:1086F0003060A286C9E7A0682A6826680028C2D030
:10870000824216D0014600680028BCD08242F9D1CE
:108710008288013A92B28280002AB4D103680B6049
:1087200033680C4A5B6893420CD135F0AFF82B7973
:10873000A9E78288013A92B28280002AA3D1036815
:10874000A360EDE70146304698472B799BE700236D
:108750001B80FFDE0D7602002DE9F04F0E460978F2
:1087600085B02B29009000F0FD802D2940F0B880C5
:108770007178012001900644A1F13000C0B20928AF
:1087800000F2B680DFF8F893C0B200210024002583
:108790004FF0993816F801BF2418ABF13007FFB23B
:1087A00041EB05054FEA850E092F6FEA07024FF0EE
:1087B000FF334FEA840C4EEA947EF8B24FF000018A
:1087C00000F21E81A94508BFA0450BD31CEB040C89
:1087D0004EEB050E1CEB0C044EEB0E05AB4208BF36
:1087E000A242D7D24FF0000A0023204629460A228F
:1087F0003FF09EFCA946A0461FFA8AF3B9F5200F68
:1088000003F1010A08BFB8F1000F04460D460FFA44
:108810008AFAE9D2092F0BD802339B1B06EB030A15
:1088200016F801BFABF13002092A0FFA8AFAF5D91E
:10883000BBF12E0F00F0B6800BF0DF03452B60D0AC
:10884000BBF1000F56D10AF126034C2B00F2FC803D
:10885000002D08BFB4F5000F80F0F68007EE904AB7
:10886000BAF1000FF8EEE77A40F36481BC4B1AF0DE
:10887000010F1CBF93ED007A67EE877A5FEA6A0208
:1088800023D0D00744BF93ED017A67EE877A5FEA81
:10889000AA021AD0D10744BF93ED027A67EE877A15
:1088A0005FEAEA0211D0D20744BF93ED037A67EE84
:1088B000877A5FEA2A1A08D0BAF1010F0CBF93ED4C
:1088C000047A93ED057A67EE877A019B0BB1F1EE9E
:1088D000677A009A0123C2ED027A137010460DE008
:1088E00000200190A1F13000C0B209287FF64AAF04
:1088F0002E2953D0009A00231370104605B0BDE80E
:10890000F08F96F801B0BBF12D0F36D0BBF12B0FD5
:1089100000F0F080ABF13003DAB2092A06F101066B
:108920008ED80AEB0302B2F59A7F00F3D7800027B6
:1089300006E002EB400303EB0A02B2F59A7F79DC12
:1089400016F801BFABF13002D1B2092903EB830065
:10895000EFD9002F40F0C7809A44BBF1000F3FF4DD
:1089600072AFC7E7717800200190A1F13000C0B26A
:10897000092806F10106BBD804E796F802B0ABF16E
:108980003003DAB2092A06F102063FF659AF0AEBC4
:108990000302B2F59A7F4FDC0127D1E700240025BE
:1089A0004FF0000A96F801B0ABF13000C0B20928D0
:1089B00006F101063FF640AF6A4B4FF099329D42F7
:1089C0004FEA850108BF94424FEA840741EA947157
:1089D0000ED23F1945EB010117EB070841EB0109E6
:1089E0000AF1FF3A18EB00040FFA8AFA49F1000580
:1089F00016F801BFABF13000C0B20928DFD91BE780
:108A0000BBF1000F40F0D280019B8BB1B5F1004F5C
:108A100008BF012CBFF4E6AE644265EB45050223B6
:108A2000009A1046C2E90245137005B0BDE8F08F08
:108A30000323F5E7002F51D000994FF000420123A6
:108A400008468A600B7059E7204629463EF0E4FE4E
:108A5000BAF1000F79DD444C1AF0010F7AD15FEAC8
:108A60006A032DD0DF0700F18D805FEAAA0327D0CB
:108A7000DE0700F18C805FEAEA0321D0DD0700F118
:108A80008B805FEA2A131BD0DA0700F18A805FEA45
:108A90006A1315D0DB073ED45FEAAA1310D0DF07B4
:108AA0003ED45FEAEA130BD0DE073ED45FEA2A2306
:108AB00006D0DD0744D45FEA5A231CBF2B490020AF
:108AC000019B13B101F100431946009A0423C2E946
:108AD00002011046137005B0BDE8F08F019B002025
:108AE000BBB12349F1E7AAEB030ABBF1000F3FF446
:108AF000AAAEFFE696F802B0ABF13003DAB2092A6B
:108B000006F102067FF60DAFBBF1000F3FF49BAEFE
:108B1000F0E61849D9E7D4E90A233EF0B3FEBBE7F3
:108B2000D4E90C233EF0AEFEBBE7D4E90E233EF0C1
:108B3000A9FEBBE7CAF1000A3FF4C7AE0E4B96E6AA
:108B4000D4E910233EF09EFEB5E7CAF1000AB7D083
:108B50000A4C81E7D4E900233EF094FE7FE700BF92
:108B600024DD06009999010088DD06000000F87FE9
:108B70000000F0FF0000F07F0CDD060040DD060085
:108B800099999919D4E902233EF07CFE6DE7D4E966
:108B900004233EF077FE6EE7D4E906233EF072FE32
:108BA0006FE7D4E908233EF06DFE70E7B5F5801F4E
:108BB00008BF002CBFF416AE4FF0000A38E600BF25
:108BC00010B50E4C2068B8B11CF0FCF838B920681C
:108BD0001CF0E2F818B1BDE810401EF071BE20682C
:108BE00050B11CF0EFF838B120681CF0E7F818B16C
:108BF000BDE810401FF0B4BB002010BD78DD0020A0
:108C000010B50E4C2068B8B11CF0DCF838B92068FB
:108C10001CF0C2F818B1BDE810401EF055BE206827
:108C200050B11CF0CFF838B120681CF0C7F818B16B
:108C3000BDE810401FF098BB002010BD78DD00207B
:108C400070B5224D224C2B78002B34D0237C002B86
:108C50002FD1204C36F0DCFE2068012110F03EF9C7
:108C600008B1002323601C4E36F0DCFE1B4B30683D
:108C700000241C702C7010B137F018F93460184BB8
:108C80001849194D194A1A481A4E00241C701A4BDB
:108C90000C702C60146004602146184834704FF04A
:108CA000FF354FF47A621D603FF020FD144B1C60CD
:108CB00070BDFFF7B7F8237C002BCAD0114820F015
:108CC00081F910481FF072FCC3E700BF4A01012080
:108CD00084DD00207CDD002078DD00209CDE00208B
:108CE00049FD0020E0E00020DCE0002084F00020CE
:108CF00094F00020AC0101201C610020E4E0002081
:108D0000A801012094DD002008B5204B1B780BB38F
:108D10001F4B1B78042B1DD034F076FD1D4A1E4BD3
:108D20001268801A984215D91C4B93ED007AF0EE28
:108D3000007AB4EEE77AF1EE10FA0CDA184B1A78F2
:108D40007AB134F061FD174B1A684EF65F23801A32
:108D500098420DD808BD1249124A00230B701360C7
:108D600008BD01221A7034F04FFD0E4B186008BD8B
:108D7000FFF766FF0C4A0D49136803F59C5308334F
:108D80004FF0FF301360086008BD00BF49FD0020B0
:108D900084BF00204CFD00201FBF0200D8E000204F
:108DA000E0E00020DCE0002010DE00201861002060
:108DB00070B51C4D8AB0002428460894CDE90244C1
:108DC000CDE90444CDE90644CDF8234028F094F9D8
:108DD00002462846019228F091F91F26019A014681
:108DE00002A83FF05BFC02A93246284628F088F929
:108DF0003C352146324602A83FF078FC284628F050
:108E00007BF90190284628F079F9019A014602A8D9
:108E10003FF044FC324602A9284628F071F90AB016
:108E200070BD00BFEC40012070B52D4B1C788AB09E
:108E300094BB2C4E054636F0EBFD3068032110F054
:108E400043F8F8B10323336036F0ECFD2649ADF862
:108E5000044001A823462A468DF806401FF0DCFD99
:108E600008B32149ADF804402A46012301A88DF832
:108E700006401FF0D1FD40BB1C491D48072228F0C9
:108E80006FFF15E036F0CEFD1A4919483368042209
:108E900028F066FF0AB070BD16491548042228F074
:108EA0005FFF0AB070BD14491148092228F058FF2D
:108EB00036F0AEFD3068032110F010F808B1002341
:108EC000336036F0AFFD0AB070BD01A820F014FE8B
:108ED0000028D1D009490648072228F041FFE7E7DA
:108EE0009DDC00207CDD00204865002028CD0600A8
:108EF000F4DF0020C4D1060038CD060030CD0600D6
:108F0000284B294A294870B5C3F800261AF032FBCD
:108F10000021042037F056FF01210520244D37F0B1
:108F200051FF092445F001050021052037F0CEFF4F
:108F30004FF4A070A8470121052037F0C7FF4FF478
:108F4000A070A847013CEFD10121042037F03AFF7F
:108F50002146042037F0BAFF4FF4A070A847012142
:108F6000052037F0B3FF4FF4A070A8470D4C0E4E0C
:108F70000121042037F0AAFF4FF4A070A8470B4846
:108F8000C4F800661AF07CFA0A4908481AF0D4FAC4
:108F90000948C4F8006601223C212DF047FBC4F8C3
:108FA000006670BD000001403546526ECC2C012099
:108FB00000EB0600801A0600B8DD00202DE9F0471E
:108FC000544E554D3768D7F80080404637F09CFF27
:108FD000034645F0010503244FF4FA405BB9012C28
:108FE00074D0A847404637F08FFF0346013C4FF44A
:108FF000FA40002BF3D001237B71484F464DD7F840
:109000000080D8F80090484637F07EFF034645F0D0
:10901000010503244FF4FA405BB9012C66D0A84740
:10902000484637F071FF0346013C4FF4FA40002BED
:10903000F3D0012388F80530DFF8EC90364DD9F8ED
:109040000080D8F800A0504637F05EFF034645F098
:10905000010503244FF4FA405BB9012C22D0A84744
:10906000504637F051FF0346013C4FF4FA40002BC5
:10907000F3D0012388F8053033681B793BB1284AC7
:10908000136803F59C5308331360BDE8F0873B6811
:109090001B79002BF3D1D9F800301B79002BEED1CE
:1090A000BDE8F08734F0B0FB98F80530002BE3D032
:1090B0001C4BD8F808201B68801A9842DCD334F087
:1090C000A3FBA8F80440C8F80800D5E734F09CFBDF
:1090D0007B79002B91D0134BBA681B68801A984299
:1090E0008BD334F091FBBC80B86086E734F08CFB06
:1090F00098F80530002B9FD00A4BD8F808201B6841
:10910000801A984298D334F07FFBA8F80440C8F83E
:10911000080091E7D460002000EB0600D860002032
:1091200010DE0020C8600020DC600020424B1B687D
:109130002DE9F0411E68414D304637F0E5FE03460B
:1091400045F0010503244FF4FA405BB9012C0BD024
:10915000A847304637F0D8FE0346013C4FF4FA40AA
:10916000002BF3D0002600E02646354B334D1B681C
:109170001F68384637F0C8FE034645F00105032452
:109180004FF4FA405BB9012C0BD0A847384637F0B2
:10919000BBFE0346013C4FF4FA40002BF3D0002500
:1091A00000E02546274B254F1B68D3F8008040463A
:1091B00037F0AAFE034647F0010703244FF4FA40B4
:1091C0005BB9012C0AD0B847404637F09DFE0346F4
:1091D000013C4FF4FA40002BF3D000249EB11A4E0C
:1091E0003378DBB165B1194D2B78F3B124B1184C4C
:1091F00023785BB1BDE8F081154B1C70BDE8F081B0
:10920000124B1D70F2E7104B1E70EBE734F0FCFAC6
:10921000104A012310602370BDE8F08134F0F4FAA5
:109220000D4A012310603370DCE734F0EDFA0B4A8D
:10923000012310602B70D9E7D460002000EB0600FA
:10924000D8600020DC60002059DD002060DD0020B7
:1092500068DD00206CDD00205CDD002064DD002086
:1092600038B50F4A0F4B126819688A4215D00E495B
:109270001A6000230B6001220C4C0D4B2046002588
:109280001A70E5762CF03CFF204601212CF064FC9E
:109290004FF00113C4E9045338BD0022ECE700BFCE
:1092A000186100209CF00020D0FA0020B8DD0020DA
:1092B00050FD00201A4A13680D2B28D00C2B15D016
:1092C000083312D0174B184993ED007A0B68F1EE72
:1092D000047AB4EEE77AF1EE10FA03F59C5394BFEA
:1092E0000A200920083310600B6070470F4B1049AB
:1092F0001A680B68013A9A420B4A14BF01330023E3
:109300000B60136803F59C530833136070470649DC
:109310000B6803F59C5308335A200B6010607047AC
:1093200018610020D8E0002010DE002068610020D5
:1093300080DD00200378462B01D00020704710B557
:109340004378572B044621D11149082240F0BFF938
:1093500008B9012010BD0F490622204640F0B7F998
:109360000028F6D00C49204640F086F90028F0D0BD
:109370000A49204640F080F90028EAD008492046F2
:1093800040F07AF9B0FA80F0400910BD002010BD1D
:1093900044CD060050CD060058CD060060CD060035
:1093A00068CD06002DE9F0435E498DB008220446E1
:1093B00040F08DF900284CD15B4F3B7803F0FF065D
:1093C000002B51D1083420462C2140F048F90028C8
:1093D0004AD000F1010948462C2140F040F90546E9
:1093E000002841D020460A22314641F0B9F8A5EBC9
:1093F0000903082B80464AD1D9F80000D9F8041097
:1094000002AB03C302A801A98DF810600EF062F947
:1094100000283CD008F1FF33B3F5A02F56D268786E
:10942000013590B1DFF84491732641F0A3F804466A
:10943000304641F09FF8844207D115F8010F00280B
:1094400054D019F8016B002EEFD13848FEF7B0F870
:109450000DE037490622204640F039F950B9324B29
:109460001B78012BDDB218D03248FEF7A1F80DB001
:10947000BDE8F0833049204640F0FEF8C8B92A4BD9
:109480001B78022BF0D12D4B01221A70EFE72C48EC
:10949000FEF78EF80DB0BDE8F08301460A22A01D4C
:1094A00041F05EF8274B1B6883420FD1264B1D709D
:1094B000DDE72649204640F0DFF868B91A4B1B78F3
:1094C000032BD1D1224B01221A70D0E72148FEF79D
:1094D0006FF80DB0BDE8F0831F49204640F0CCF88E
:1094E0000028C4D11D4B01221A70C0E799F8003042
:1094F000002BAAD1134B1A4A0198C3F8008005A982
:1095000001233B7010600EF0AFF8164A05AB08A8B7
:1095100010213FF0E1FF08A982B2134828F020FC97
:10952000A5E700BF44CD060029AF002084CD06008A
:1095300050CD060070CD060058CD0600896A002087
:1095400078CD0600A86B0020F469002060CD0600ED
:10955000A76B00207CCD060068CD0600A66B00201E
:10956000906A00208CCD0600F4DF002099CD060023
:1095700085490978012900D070472DE9F0411C4642
:10958000CBB282499CB00B701546002141220BA83A
:109590003FF0ACF8402C2246294628BF40220BA8B9
:1095A0003FF07CF80BA840F08AF8431E70B10BAA7C
:1095B000774E1A4412F801190A39C9B226FA01F095
:1095C00016296FEA000003F1FF3310D9714E33788A
:1095D000BBB171490BA8052240F079F850BB062CAD
:1095E00028D86E4B01221A701CB0BDE8F08110F033
:1095F0000100EBD1591C5070DCD1664E3378002B42
:10960000E7D1674F3B78022B7AD0402C00F289805B
:10961000644904220BA840F05AF8B0B9624C237890
:1096200003F0FF05002B52D060496148042228F066
:1096300097FBD9E75F4E338814FA83F3B3F5805F65
:1096400050DD5D4B01221A70CEE75C4904220BA865
:1096500040F03DF8D8B15A4907220BA840F037F83E
:10966000002840F0CD809DF83330202B0DF13300E1
:1096700003D110F8013F202BFBD018210EF000FB86
:1096800098B950495048092228F06AFBACE79DF888
:109690003030202B0CA803D110F8013F202BFBD039
:1096A00018210EF0EDFA00283BD03F4C237803F050
:1096B000FF0563B13D494448042228F051FB93E77C
:1096C000394C237803F0FF05002B40F022813F4BFB
:1096D00040220BA9184640F00CF8012280F84050B7
:1096E000227081E73A4B3088294613FA80F02246EF
:1096F0003EF0D4FF338814FA83F39BB2338073E7D0
:10970000082C14D833490BA83FF0B6FF20B13249DA
:109710000BA83FF0B1FF50B921460BA8FFF742FE5E
:1097200062E72E492848052228F01AFB5CE73B78BF
:10973000022B7FF459AF2A4B1A7802F0FF00002A5F
:109740007FF452AFDFF8B080264AD8F80070126874
:109750002744974200F2B280234A244ED2F800C038
:10976000318814FA81F1B1F5805F40F2AD80DFF805
:109770008CC0DCF80010013100F0B8801C4A1D4993
:10978000116001221A702FE79CDC0020268C00203B
:1097900009004000207C0020A0CD0600698E00203A
:1097A00029AF0020B8CD0600A56B0020C4D106006B
:1097B0002CDF0020248C0020C67B0020C0CD0600BA
:1097C000C8CD060038CD0600F4DF0020486A00202E
:1097D000247C002058CD060068CD0600B0CD0600E0
:1097E00028AF0020A86B0020B8BF0020BCBF00201D
:1097F0008C6A0020A8CD0600BC7B0020B860002049
:109800007F490BA83FF038FF00284AD07D49052248
:109810000BA83FF05CFF002843D07B4905220BA832
:109820003FF055FF00283CD078490BA83FF024FFBB
:10983000002836D076490BA83FF01EFF00283FF4E1
:109840003FAF744905220BA83FF041FF002866D0C6
:10985000714905220BA83FF03AFF00286DD13378FB
:10986000002B56D16D4B1C78002C52D10DF13100DC
:1098700018210EF005FA002859D0694B694D0DF1F9
:109880003101184618223FF034FF03466649674805
:10989000674A1C7601232C8004700C70137033709F
:1098A000A2E6644C237803F0FF050BB9624B0FE787
:1098B00062496348052228F053FA95E6614A6249F5
:1098C000116001221A708FE6604B03EB0C33308875
:1098D000294613FA80F022463EF0E0FE3388C8F8AD
:1098E000007014FA83F39BB233807DE63188DFF891
:1098F00080E1564B89B2AEF800101168CCF8001028
:10990000116881F0010111603080126803EB0233AD
:10991000DDE74F494A48092228F022FA64E6182177
:109920000DF131000EF0ACF900287FF4C9AE4949C1
:1099300043480D2228F014FA56E6474905220BA8A1
:109940003FF0C5FEB8B9454C237803F0FF05002B66
:10995000DFD10DF1310018210EF092F90028E6D088
:109960003F4B18220DF1310118463FF0C2FE012293
:109970000576227038E63B490BA83FF07DFE30B1FA
:109980000BA8FFF7D7FC00283FF42EAEC4E6364BF9
:1099900018683DF01FFF03AE04460D4645EC104B22
:1099A00032460221042033F019FF11A3D3E900232A
:1099B000204629463DF0AEFD0FA3D3E900233DF03C
:1099C00061FF3EF00FFA6428A8BF642020EAE0732C
:1099D000264A0096182105A83FF07EFD05A83FF015
:1099E0006EFE05A982B2164828F0BAF9FCE500BF60
:1099F0006666666666660A40721CC7711CC75B4075
:109A0000D0CD0600D8CD0600E0CD0600E8CD06009A
:109A1000F8CD06000CCE060024CE06009DDC00200A
:109A20006C8E0020248C0020698E0020C67B0020D4
:109A3000C77B0020298C0020D47B0020F0CD0600BD
:109A4000F4DF00208C6A00207CCD0600888E002088
:109A500000CE060014CE06002CCE06002C8E002070
:109A6000508E002034CE06008CF000203CCE060044
:109A7000E8690020124B13490122002030B45A60DB
:109A80000325DA600424C3F8040542F21070C3F819
:109A90000855C3F810454FF48035C3F840056024DD
:109AA0004FF08060C3F80022C3F8045381F81A43D2
:109AB000C1F880010860044930BC0A701A60704720
:109AC00000A0014000E100E0AD6B002070B52E4C1D
:109AD0002E4D2F48C4F8005682B040F24C4303226A
:109AE000012118F079FE2B4BC4F8005640F24C4689
:109AF0001978274840F24C43032219F007FC3346FB
:109B0000032204212248C4F8005618F039FFC4F893
:109B100000560323002201211D48009618F072FF11
:109B2000C4F800560323012200211948009618F0BA
:109B300069FFC4F80056032302220021144800964E
:109B400018F060FF03231A46C4F80056002110489D
:109B5000009618F057FFC4F80056032300210C4864
:109B60000096062218F04EFF0B4BC4F800561978E9
:109B700009B102B070BD33460322054819F066FAF8
:109B8000C4F8005602B070BD000001403546526E68
:109B9000D8FA00202461002025610020104A114BD2
:109BA000114810B50021114C11704FF47A62196000
:109BB00021603EF09BFD0E48037C6BB90D4C35F0E7
:109BC00027FF206802210FF089F908B100232360E4
:109BD000BDE8104035F026BF10301EF0E7FCEDE781
:109BE0004801012094F00020E4E0002084F00020EF
:109BF00054FD00207CDD00202DE9F0430024BBB0A3
:109C0000374B049401464FF47A75224607A8ADF805
:109C10001C408DF81E40059503931EF005FF20B9EA
:109C2000002528463BB0BDE8F0832E494FF4806202
:109C300007A81EF059FF064607A81EF0B7FCB6F5A8
:109C4000806FEDDB284E009502A901912548029412
:109C5000334610AA4FF480610DF0B2FE054600288D
:109C6000DFD0224BDFF89880214FDFF8989010A9C1
:109C7000184617223FF03DFD03461F22404616A915
:109C8000DC753FF036FD88F81F403846DFF87880F5
:109C90001F221EA93FF02DFDFC770F22154F26A98C
:109CA00048463FF026FD0F222AA9404689F80F407A
:109CB0003FF01FFD0F2238462EA988F80F403FF0D5
:109CC00018FD029A0C4BFC731A6012B1013A56F857
:109CD00022200A4B28461A603BB0BDE8F08300BF43
:109CE000A4DC060014C00020E4E0002044DE0020D4
:109CF00024DE00207CDE002084F0002094F0002090
:109D00005CDE00208CDE002014DE002070B50A4EE0
:109D1000054635F07DFE306829460FF0D5F804463B
:109D200020B1356035F07EFE204670BD35F07AFEFC
:109D30003368204670BD00BF7CDD002010B5084CA4
:109D400082B0019035F064FE206801990FF0C6F8EA
:109D500008B10023236002B0BDE8104035F062BEB8
:109D60007CDD0020F8B51649164C174A174F184EDF
:109D7000184D194800233B70337023700B70174C3B
:109D800013701749174A2B70174D236013600B800F
:109D9000164C1749027C2B604FF0FF3525600B8075
:109DA0004AB9144C237803B9F8BD0320FFF7C6FF66
:109DB00000232370F8BD10301EF0F8FBF1E700BF60
:109DC000A76B0020896A0020A66B002029AF002025
:109DD000F469002028AF0020A4AE0020B8BF002006
:109DE000BCBF00208C6A0020BC7B0020B860002033
:109DF000E869002082AF0020F0B52E4B1C68BDB092
:109E00001CB90320FFF782FF30B92B492B480C22E5
:109E100027F0A6FF3DB0F0BD2346294D294A2A4927
:109E2000019404A84FF47A76ADF810408DF81240F2
:109E3000029600951EF0F0FD9DF8103083B3234F7D
:109E40001E4E02E011A81EF0B1FB4FF47A730022FF
:109E500004A911A80F930E94ADF844408DF8464024
:109E60000D951FF017F89DF84430B3B113F0D00FE3
:109E7000E8D11AA9402211A820F062FA1AAB3A469A
:109E80002AA846213FF028FB2AA982B2304627F0B3
:109E900067FF0A2033F0C4FCD4E704A81EF086FB59
:109EA0000320FFF74BFF0A490448042227F058FF1C
:109EB0003DB0F0BD7CDD002048CE0600F4DF002080
:109EC000A4DC060058CE0600486500206CCE0600D3
:109ED00064CE06002DE9F0473B4B1C68ADF5287DAC
:109EE00024B90320FFF712FF054640B93749384827
:109EF000042227F035FF0DF5287DBDE8F0872346C5
:109F0000344E354A354904944FF47A7707A8ADF8B2
:109F10001C408DF81E40059703961EF07DFD9DF8B0
:109F20001C30002B4BD0DFF8C090DFF8C0802C4FE6
:109F300002E014A81EF03AFB00224FF47A7307A93E
:109F400014A8CDE91062ADF850208DF8522012937C
:109F50001EF0A0FF9DF8504014B314F0D004E8D1D7
:109F60000DF1740A51464FF4807214A820F0E8F9FC
:109F70001B9A0192002D14BF4B4643463A464FF4BC
:109F80009671CDF800A05DA83FF0A6FA5DA982B257
:109F90000F4827F0E5FE0A2033F042FC2546C8E7CB
:109FA00007A81EF003FB0320FFF7C8FE0D49084871
:109FB000032227F0D5FE0DF5287DBDE8F0870320AC
:109FC000FFF7BCFE92E700BF7CDD0020C4D1060095
:109FD0002CDF0020A4DC0600ECCC06004865002045
:109FE0007CCE060088CE06004403070078CE06002B
:109FF0002DE9F042354E337C8EB00446002B60D103
:10A00000334D35F005FD286803210EF05DFF50B992
:10A0100035F008FD2F4930482B68042227F0A0FEB8
:10A020000EB0BDE8F0824FF003090027C5F800909C
:10A0300035F0F8FC2246294C294901943B464FF45F
:10A040007A7505AC05A803950297ADF814708DF8E4
:10A0500016701EF0E1FCA446BCE80F00214D029CE6
:10A0600074600FC5BCE80F000FC5DDE90321337C28
:10A07000DCF800002860C6E90221BBB11A48F36A87
:10A080001A4A1B490360012017600870194A2021F1
:10A0900001A83FF021FA01A83FF011FB01A982B20B
:10A0A0000D4827F05DFE0EB0BDE8F0824846FFF790
:10A0B00045FE11490848052227F052FE0EB0BDE8C2
:10A0C000F08206F110001EF071FA99E75CDC0020C6
:10A0D0007CDD0020C4D10600F4DF0020A4DC0600F3
:10A0E000486500206CDC002090DC002054DC00205F
:10A0F0009DDC00208CCE0600B0CD060000000000E4
:10A100002DE9F047864C874A94F83C302DED0A8BB8
:10A110000021ADF51E7D1170002B00F08980824D6D
:10A12000D5F800A0BAF1000F2DD0804B197894ED2E
:10A13000000B94ED021BD4E90467D4E906890029D9
:10A1400040F0D48050468DED101B8DED0E0B1AF0B3
:10A15000C3FA494640463DF08DFE39460346304637
:10A1600008EE103A3DF086FE9DED101B02EE100A3F
:10A170009DED0E0B2868F0EE482A1AF005FC94F8C5
:10A180003C30002B54D06A4B1B78002B3FD0DFF8BB
:10A19000B48198F80030002B39D0664F3B78002B03
:10A1A0004FD05DA3D3E90023D4E906013DF06AFB5B
:10A1B00094ED00CB94ED02BB94ED049B94ED08ABC1
:10A1C0004EAD41EC180BD4F83890C5F828902846CD
:10A1D00085ED088B85ED00CB85ED02BB85ED049BFD
:10A1E00085ED06AB0DF048FF002840F0B580524DDC
:10A1F00033F00AFB2A6842F21073801A984206D99B
:10A2000033F002FB03464D482B601EF0DBFE42A3F9
:10A21000D3E90023D4E906013DF034FB3DF02AFEEA
:10A22000474B18600DF51E7DBDEC0A8BBDE8F0872D
:10A230003F4B1B78002BEAD0424B1B78002BE6D01B
:10A240003C4F3B78002BE2D194F83D30002BDED020
:10A250003D4D33F0D9FA2B68C01AB0F57A7FD6D3CA
:10A2600033F0D2FA034601202B60FFF74FFD0028A0
:10A27000CDD094F8412094F8403094F8430094F8FD
:10A280004210324E0390CDE900320291E38F304A02
:10A2900050215EA83FF020F95EA906F1100040F2BF
:10A2A00001621EF0C1FB337C002B00F077814EADC4
:10A2B000284640220A213EF019FA06F110084FF410
:10A2C00080663F2E32462946404640F24381402276
:10A2D0001EF0DCFE402840F05E81403EF1D11D4979
:10A2E0001A4832F005FB01233B7090E794F84310C5
:10A2F000B4F8463094F8442094F842008DED101BD9
:10A300008DED0E0B0DF040FD9DED0E0B9DED101B28
:10A31000014617E7AFF300800B410E4A9869F23F00
:10A3200050E0002098E0002078DD0020ACE0002024
:10A33000580101204A01012090F0002094DD002006
:10A34000D8E000209CDE002098F0002084DD002072
:10A35000C8CE0600E8CE060032AA0821B0EE4C0AAC
:10A36000F0EE6C0A012033F039FAB0EE4B0AF0EE51
:10A370006B0A38AA0821012033F030FAB0EE4A0AFD
:10A38000F0EE6A0A012112AA084633F027FAB0EE6D
:10A39000480AF0EE680A2AAA0221012033F01EFAC8
:10A3A000B0EE490AF0EE690A2EAA0221012033F02C
:10A3B00015FA94ED0A0B15AA0221012033F00EFACA
:10A3C00094ED0C0B18AA0221012033F007FA7A4B06
:10A3D0007A4E18683DF0FEF91BAA41EC100B0321E0
:10A3E000012033F0FBF9764B18683DF0F3F91EAA13
:10A3F00041EC100B0321012033F0F0F9714B186888
:10A400003DF0E8F921AA41EC100B0321012033F0C3
:10A41000E5F93378002B40F0A9809FED658BB0EE15
:10A42000489AF0EE689A0121084624AAB0EE490A3B
:10A43000F0EE690A33F0D2F924A80B210DF0B2FE38
:10A44000002800F09080B0EE480AF0EE680A012182
:10A45000084627AA33F0C2F927A80B210DF0A2FE67
:10A4600000287DD032AB449338AB459312AB469372
:10A470002AAB47932EAB489315AB499318AB4A933D
:10A480001BAB4B931EAB4C9321AB44AE4D9356F894
:10A49000040B14210DF086FE00283FF4A8AEAE4256
:10A4A000F5D1494B1B78002B3ED1002001463EAA36
:10A4B00018230DF083FD454B454D1A68089224A9D9
:10A4C0000C9121A90B911EA90A911BA9099118A908
:10A4D000079115A906912EA905912AA9049138A9D9
:10A4E000039132A927AB029112A9CDE900910D93F6
:10A4F0004FF48071374A3EAB5EA83EF0EDFF5EA997
:10A50000284632F065FA00287FF471AE2B7C88F87B
:10A51000000038700BB1FDF785FC2F481EF046F89F
:10A520000120FFF70BFC62E6E08F94F8442094F8DA
:10A530004330B4F84610029100F5FA60CDE90032DC
:10A5400094F8401094F8423094F8412080B20DF015
:10A550002DFCACE71EF09AFDB0421CD1403EB0E6A7
:10A560001E4B27937EE71D4B24936CE7FDF77AFA89
:10A57000D8B11B4B18683DF02DF941EC190B33781D
:10A5800083B1FDF76FFA68B1154B58683DF022F9B9
:10A5900041EC180B47E710481EF008F80120FFF7C0
:10A5A000CDFB34E69FED028B3DE79FED019BE6E797
:10A5B000000000000000F87F48D80020A46B0020B5
:10A5C0004CD8002050D80020ACE0002060010120D1
:10A5D00084DD002098CE060094DD00206E616E00C0
:10A5E000D86900202DE9F04F1F4C85B004F26C496A
:10A5F00080464F4604F2444BA246032501AEFF229B
:10A600000023CDF80880ADF80420039396E80E00EF
:10A61000384621F033F994F87E341348C4F868942E
:10A6200001223946BBB920F03DF960B158461DF012
:10A63000BDFF0E4851461EF039FA60B10C4B1C604C
:10A6400005B0BDE8F08F034602463946064820F0C3
:10A6500029F90028EAD1642033F0E2F8013DCED197
:10A66000284605B0BDE8F08F486500208C690020C1
:10A67000442E012010B52048204A037C002111708F
:10A680005BBB1F4A1F4B002414701C70FFF76AFB52
:10A690001D4A1E4B1E48147021461C7026F06AFD90
:10A6A0001C4829F02DFDF8B9194826F029FE194853
:10A6B000002129F0FBFC1748002129F0FBFC0121B7
:10A6C0000C2036F003FC1449144A15480023BDE859
:10A6D00010400B701370FFF785BF10301DF066FF40
:10A6E0000320FFF72BFBCCE70A4829F03DFD01468C
:10A6F000084829F023FDD7E75CDC002050DC00206F
:10A700009DDC0020268C0020A56B0020298C0020D9
:10A71000EC400120AC3A012058DC00209CDC0020F9
:10A7200080841E00F0B5244D244F002387B02846B6
:10A730003B70FFF757FF044610B1204607B0F0BD4D
:10A740001F4E0495FF230590ADF80C3006F26C45C2
:10A7500006AB13E90E00284621F090F896F87E34F7
:10A76000C6F86854002BE8D1D6F86C3428469B69AB
:10A7700098470028E1D0D6F86814019123460122B9
:10A78000304620F08FF8019960B10E481DF00EFFA1
:10A790000B4901F244401EF089F950B10A4B0446BE
:10A7A0001E60CAE723462246304620F07BF8002888
:10A7B000EBD101233B70C0E780841E0049010120DA
:10A7C000486500208C690020442E012010B58AB015
:10A7D00000230C4A0C49ADF8043001A88DF806306E
:10A7E0001EF01AF9044650B9064A0849ADF804406B
:10A7F00001A801238DF806401DF0E6FF044620461F
:10A800000AB010BD7CDE0600486500208C6900207F
:10A810002DE9F04F254F264B3C781B5D89B0002B6E
:10A8200039D0DFF89C80DFF89CA004ADC4EBC402F3
:10A8300008EB420358F8120059689A68B3F80CB054
:10A840005AF824906B4607C3A3F800B0184B4FF09A
:10A85000000C84F0010E2A460E216846C5E900CCA2
:10A86000C5E902CC03F804C087F800E00EF0AAFBAB
:10A870004FF0010C90B195E80F000E4E0E4C86F88B
:10A8800000C00E4EC4F8009086E80F003C78084BDC
:10A890001B5D002BCAD109B0BDE8F08F3C78044B9A
:10A8A0001B5D002BC2D109B0BDE8F08FD469002038
:10A8B00080AF0020A46B002024AF0020D8690020C6
:10A8C00088AE00201CAF00202DE9F043B84EB94DF2
:10A8D00033782A789A42A1B0D8B200F262812B78FC
:10A8E000C31ADBB2002B00F025812978B24A01F0AF
:10A8F0000F01012B52F82110009100F08D80297872
:10A90000013101F00F01022B52F82110019100F0EA
:10A9100083802978023101F00F01032B52F82110B6
:10A92000029179D02978033101F00F01042B52F8FC
:10A930002110039170D02978043101F00F01052B0B
:10A9400052F82110049167D02978053101F00F01E8
:10A95000062B52F8211005915ED02978063101F0BE
:10A960000F01072B52F82110069155D02978073195
:10A9700001F00F01082B52F8211007914CD02978D3
:10A98000083101F00F01092B52F82110089143D032
:10A990002978093101F00F010A2B52F82110099191
:10A9A0003AD029780A3101F00F010B2B52F821100F
:10A9B0000A9131D029780B3101F00F010C2B52F89C
:10A9C00021100B9128D029780C3101F00F010D2BAB
:10A9D00052F821100C911FD029780D3101F00F0190
:10A9E0000E2B52F821100D9116D029780E3101F05E
:10A9F0000F010F2B52F821100E910DD029780F3135
:10AA000001F00F01102B52F821100F9104D02B7878
:10AA100003F00F0352F82330DFF8B0C1DFF8C8E1CC
:10AA20009CF800402870013BDBB201AA02EB8307CF
:10AA3000DEF80000614A6B46002C40F0EA80107896
:10AA400000F0FF01002840F0A18018680C46043394
:10AA5000BB4219D092F800801968B8F1000F40F09D
:10AA60009A80A1EB00085648A8F6B839814500F253
:10AA7000908020A800EB840904330134BB420846CF
:10AA800049F8408CE4B2E5D10123CEF800008CF8FF
:10AA90000030002C4ED0012C109B39D9119A022C79
:10AAA000134435D0129A032C134431D0139A042C3A
:10AAB00013442DD0149A052C134429D0159A062C32
:10AAC000134425D0169A072C134421D0179A082C2A
:10AAD00013441DD0189A092C134419D0199A0A2C22
:10AAE000134415D01A9A0B2C134411D01B9A0C2C1A
:10AAF00013440DD01C9A0D2C134409D01D9A0E2C12
:10AB0000134405D01E9A0F2C13441CBF1F9A9B1888
:10AB100007EE903A07EE104AF8EE677AB8EE470A69
:10AB2000F7EE000A87EE800A0EF0E2FA2548214689
:10AB30000EF0AEFA244B1A781AB1244900220A709A
:10AB40001A70234A234B1468DB68D90103D5224BC2
:10AB50001A68D2074AD434F06FF8204B204AA0FB81
:10AB60000301830A43EA81531B1B934244D8154ACD
:10AB70001C4BD2ED007AB6EE007A77EE877AFDEEC6
:10AB8000E77AC3ED007A21B0BDE8F083186814704D
:10AB90005DE708465BE74FF00008084682F8008052
:10ABA00055E72A7800F110039B1ADBB29AE600BF42
:10ABB000A4010120A601012064010120C66000203B
:10ABC000C8781E00BC600020A5010120858E0020F1
:10ABD0005C010120F0ED00E0001000E040420F00B9
:10ABE00020A1070060010120187C00205B680A4A50
:10ABF0009B091B1B9342BAD908480EF041FA084B37
:10AC0000084A0121197033780021DBB22B701170D2
:10AC1000ADE700241EE700BF20A10700BC600020B4
:10AC2000C6600020858E002070B5294D2C782CB987
:10AC30004FF08043D3F83834DB0701D4204670BD91
:10AC4000244E34F0E5FE306805210EF03DF970B376
:10AC50000523336034F0E6FE1F48FFF7C3FC10B94C
:10AC60001E48FFF7BFFC1E4BD3F8680403689B69BE
:10AC70009847024628B34FF400731A48002121F088
:10AC8000E1FC18480122002121F0E4FC154821F0E4
:10AC9000F3FC044680B1144821F07CFA322032F0F3
:10ACA000BFFD114821F078FA01232B70C6E734F07C
:10ACB000B9FE3368204670BD02460146094821F0BE
:10ACC000C9FC0648FFF78EFC0520FFF737F8B5E70B
:10ACD000922C01207CDD002000127A0080841E006E
:10ACE000486500202CAF00206C2E0120002238B5D2
:10ACF0001148124D114621F0ADFC32F085FD04469D
:10AD000008E032F081FD2B68C01A632808D80520BE
:10AD100032F086FD32F078FD001BB0F57A7FF0D37B
:10AD2000074BD3F868040368DB699847322032F098
:10AD300077FDFCF7C7FA00BF2CAF0020B07B0020E6
:10AD4000486500202DE9F04F80468B4658F8043BBB
:10AD500098E8070093F83C4093B006AF0DF1240942
:10AD6000202C87E8070089E8070062D10CAC84E852
:10AD7000070094E807000FAC84E807000090044641
:10AD8000002856D01D8F4FF6FF72954251D0DB6AD6
:10AD9000E90903EBC10105F07F05496811EBC50521
:10ADA00047D01099EE880292481E22184FF0010AEF
:10ADB0002C46039504963546CDF8148001921E4624
:10ADC0008846BAF1000F11D1029B9D4231D0E809AB
:10ADD00006EBC00005F07F05446814EBC50428D0DD
:10ADE0008AF0010AE588BAF1000FEDD02079042835
:10ADF0003CD0052836D002281FD0B8F1000FE3D18F
:10AE00002A464FF6FF718A423346DDF81480DDE9A9
:10AE100003560ED0D00903EBC00002F07F02416858
:10AE200011EBC20105D00A79111F012925D9022A87
:10AE300023D0584613B0BDE8F08F20463EF03FFCCB
:10AE40004045C1D1B8F1000FDAD0009B013C581E3B
:10AE500010F8012F14F8013F9A42B5D1019B8342AB
:10AE6000F6D1CDE72468E0880834E9E72468204675
:10AE7000002CE5D03EF023FCE2E798E807000CAC9C
:10AE800084E8070087E8070089E8070094E80700DE
:10AE90000FAC84E80700804600283ED0109C671E57
:10AEA0000744BB46274654464FF6FF799A467CB97D
:10AEB0004E4532D0F3090AEBC30306F07F065D6806
:10AEC00015EBC60529D084F00104EE88002CEFD0E4
:10AED0002B79042B27D0052B3ED0022B38D0002F06
:10AEE000E6D14FF6FF729642534616D0F20903EBB5
:10AEF000C20306F07F065A6812EBC60B99D09BF886
:10AF00000430042B2CD0052B2DD0022B18BF4FF072
:10AF1000000B584613B0BDE8F08F4FF0000B5846B9
:10AF200013B0BDE8F08F2D6828460DB13EF0C7FB89
:10AF3000B842BDD1002FD4D0681E08F1FF3313F8FA
:10AF4000011F10F8012F9142B2D15B45F7D1C8E73C
:10AF500028463EF0B4FBEBE72D68E8880835E7E7C4
:10AF600052F836B065E752F8363003F1080B60E767
:10AF70002DE9F047056804460E46002972D00846C0
:10AF80003EF09DFB8046002D58D02B79202B55D1CB
:10AF9000002E53D02B884FF6FF77BB424ED062680D
:10AFA000D2F82C90D90909EBC10103F07F024B685C
:10AFB00013EBC20342D04FF0010ADD88BAF1000F53
:10AFC00010D1BD423AD0EA0909EBC20205F07F0573
:10AFD000536813EBC50331D08AF0010ADD88BAF15A
:10AFE000000FEED01A79042A35D0052A2ED0022A75
:10AFF00027D0002004468045E3D1B8F1000F0BD0E4
:10B00000721E631E02EB080112F8014F13F8010FC4
:10B010008442D6D18A42F7D14FF6FF739D420DD0BC
:10B02000EB0909EBC30905F07F05D9F8040000EB33
:10B03000C505281E18BF0120BDE8F0870020BDE827
:10B04000F08718461C463EF03AFBD4E71B68D888C8
:10B0500003F10804CFE71C682046002CCBD03EF05B
:10B060002EFBC8E788468EE78368002B00F0F68049
:10B070001A79402A40F0F2802DE9F04F1B884FF6F4
:10B08000FF77BB428FB01CD0D0E90324D56ADA0920
:10B0900005EBC20203F07F03526812EBC30310D02A
:10B0A000DA881CB912E0013CDA880FD0D109BA4223
:10B0B00005EBC10102F07F0603D04B6813EBC6031A
:10B0C000F1D19FED950B0FB0BDE8F08F143007C89C
:10B0D0001E7901AC84E80700202E04AC84E8070048
:10B0E000EFD194E8070007AC84E807000AAC84E8D5
:10B0F000070082460028E4D018884FF6FF77B84250
:10B10000DFD0C20905EBC20200F07F03506810EBEC
:10B11000C300D6D0DDF82C90C68809F1FF384FF077
:10B12000010BD044BBF1000F10D1BE42C9D0F209CF
:10B1300005EBC20206F07F03506810EBC300C0D0DD
:10B140008BF0010BC688BBF1000FEED00279042A08
:10B150007DD0052A77D0022A60D0B9F1000FE4D162
:10B160004FF6FF708642ACD0F20905EBC20206F042
:10B170007F03576817EBC301A3D00A7912F01004BC
:10B180000CD037F83340844200F0C180E00905EB71
:10B19000C00504F07F006C6804EBC004023A1C2A6E
:10B1A0008FD801A050F822F067B20200C3B00200AD
:10B1B00063B20200E5B20200AFB20200C3B0020007
:10B1C000C3B00200C3B00200BDB20200C3B00200AF
:10B1D000CBB20200C3B00200D9B20200C3B0020079
:10B1E000C3B00200C3B00200C3B00200C3B002008B
:10B1F000C3B00200C3B00200C3B00200C3B002007B
:10B20000C3B00200C3B00200F3B20200C3B0020038
:10B2100001B30200C3B00200EDB2020004463EF0EA
:10B220004EFA484581D1B9F1000F99D0601E0AF15C
:10B23000FF3212F8014F10F8011F8C427FF475AFF6
:10B240009045F6D18CE70468E0880834E9E70468A3
:10B250002046002CE5D03EF032FAE2E79FED2E0BBF
:10B26000704757F833100AA8FDF776FA9DF8283092
:10B27000013B032B3FF625AFDFE803F0130C05027B
:10B280009DED0C0B1FE7DDE90C013CF0C5FA41EC2C
:10B29000100B18E7DDE90C013CF0C6FA41EC100B8D
:10B2A00011E70C983CF096FA41EC100B0BE717F8FD
:10B2B00033003CF06DFA41EC100B04E757F8330013
:10B2C0003CF066FA41EC100BFDE657F833003CF019
:10B2D0006FFA41EC100BF6E608683CF07BFA41ECA3
:10B2E000100BF0E657F833100831BCE794ED000B73
:10B2F000E9E6D4E900013CF08FFA41EC100BE2E6FC
:10B30000D4E900013CF090FA41EC100BDBE600249C
:10B3100044E700BFAFF30080000000000000000021
:10B320002DE9F04F00F10C02034607CAD3E90146AC
:10B330008FB001AB83E80700002C74D093E80700BE
:10B34000257904AB202D83E807006CD107AB0AAF49
:10B3500083E8070087E807008246002863D020883A
:10B360004FF6FF7840455ED0D6F82C90C20909EB25
:10B37000C20200F07F03506810EBC30053D04FF0BF
:10B38000010B0B9EC588BBF1000F10D145454AD07B
:10B39000EB0909EBC30305F07F05586810EBC50006
:10B3A00041D08BF0010BC588BBF1000FEED00379C3
:10B3B000042B56D0052B50D0022B39D0002EE5D1CE
:10B3C0004FF6FF7085422ED0EB0909EBC30305F061
:10B3D0007F055C6814EBC50125D00B7913F01002D2
:10B3E0000DD034F83520824200F09780D00909EB67
:10B3F000C00902F07F00D9F8042002EBC002023B32
:10B400001C2B10D8DFE803F0360F34595D0F0F0FF7
:10B41000640F6B0F720F0F0F0F0F0F0F0F0F0F0F28
:10B42000780F7F0F86009FED3E0B0FB0BDE8F08FC9
:10B4300004463EF044F98642A8D1002EC0D00AF15D
:10B44000FF33601E9A1901E09A42B9D013F8014FF8
:10B4500010F8011F8C42F7D098E70468E0880834A0
:10B46000E9E70468002CA9D020463EF028F9E2E77D
:10B4700054F835103846FDF76FF99DF82830013B38
:10B48000032BD0D8DFE803F0130C05029DED0C0B65
:10B49000CBE7DDE90C013CF0BFF941EC100BC4E750
:10B4A000DDE90C013CF0C0F941EC100BBDE70C9854
:10B4B0003CF090F941EC100BB7E754F83510083127
:10B4C000D8E714F835003CF063F941EC100BACE719
:10B4D00054F835003CF05CF941EC100BA5E754F84A
:10B4E00035003CF065F941EC100B9EE708683CF034
:10B4F00071F941EC100B98E7D2E900013CF08CF9AE
:10B5000041EC100B91E7D2E900013CF08DF941ECE0
:10B51000100B8AE792ED000B87E700226FE700BF70
:10B5200000000000000000002DE9F04F85B004ACE1
:10B5300004E90E00DDF80480B8F1000F47D0008860
:10B540004FF6FF76B04242D00E9BD3F82C90C20942
:10B5500009EBC20200F07F03506810EBC30036D045
:10B56000029DB0F806B06F1E4FF0010A4744BAF1D1
:10B57000000F12D1B3452AD04FEADB1309EBC30306
:10B580000BF07F0B586810EBCB0020D08AF0010A3B
:10B59000B0F806B0BAF1000FECD00379042B31D02B
:10B5A000052B2BD0022B16D0002DE3D14FF6FF73C5
:10B5B0009B450CD04FEADB1309EBC3090BF07F0B63
:10B5C000D9F8040000EBCB0005B0BDE8F08F0020F7
:10B5D00005B0BDE8F08F04463EF071F8A842C9D12D
:10B5E000002DE3D0601E08F1FF3313F8011F10F89F
:10B5F000012F9142BED19F42F7D1D7E70468E0887E
:10B600000834EBE704682046002CE7D03EF057F8FA
:10B61000E4E700BF2DE9F04184B0064604A800E944
:10B620000E003068DDE90187A8B17D1E4544C3885E
:10B63000BB420DD1002F56D008F1FF33C21D01E0EF
:10B64000AB4250D013F8014F12F8011F8C42F7D0D3
:10B6500000680028EBD1B7F5803F4AD20A9B2E4AFA
:10B660001B681B68934207F1090046D132F0F4F8D9
:10B6700000283ED00123C780838000F108054FB326
:10B6800000F10C0108F10402954238BF884507F12A
:10B69000FF3336D3072B34D927F003044444434601
:10B6A0002A4653F8041B42F8041BA342F9D1BA07F7
:10B6B00027F003030ED018F80320EA545A1C9742CF
:10B6C00008D9023318F80210A9549F4202D918F879
:10B6D0000320EA54074400233B7233680360306060
:10B6E00004B0BDE8F08183880133838004B0BDE8F5
:10B6F000F081002004B0BDE8F08101460A98984727
:10B70000B6E74344C21D08F1FF3818F8011F02F8DC
:10B71000011F9845F9D1DDE715760200437DDBB1C5
:10B72000037D202B12D8DFE803F01F111111111136
:10B7300011111115151111151111111111111111ED
:10B7400011111111111111111111150001230373A0
:10B75000002070470023437503695A1C02611B785F
:10B76000037501224275DCE7037B002B14BF022026
:10B77000012070472DE9F04F437D85B00446002B32
:10B7800000F0FD80057DDFF878B300221346627576
:10B790000092CBB1267D0023B54263751DD0002EEB
:10B7A00000F0E9805C2E20D067686FB1A168FB884B
:10B7B000994200F0B0800F440131A1603E72637D78
:10B7C000E7E7C2F30903009323695A1C22611E783C
:10B7D00026750023B5426375E1D16368002B14BF61
:10B7E0000020042005B0BDE8F08F2269511C2161C2
:10B7F0001178217501206075002900F0BC80752941
:10B8000010D0BD4A2F2304E012F8023F002B00F0B5
:10B81000AE808B42F8D15678002E00F0A88000232D
:10B820006375C1E7911C6375216153782375607559
:10B83000002B00F0A080402B86BF23F02003A3F153
:10B840003701A3F13001C8B20F2800F29080002127
:10B85000D31C6175236191782175012363750029DB
:10B8600000F08980402986BF21F020013739303926
:10B87000C9B20F297BD80026131D66752361D378C2
:10B880002375012641EA00116675002B73D0402B09
:10B8900086BF23F02003373B303BDBB20F2B66D84B
:10B8A00000206075501D20611279227543EA011352
:10B8B00001211BB26175002A5DD0402A86BF22F0AB
:10B8C0002002373A303AD2B20F2A50D842EA031354
:10B8D0009AB202F5205189B20020B1F5806F1EB2F4
:10B8E0006075FFF46EAF02F510539BB2B3F5806F35
:10B8F0004FD37F2A00F2A1806768002F3FF464AF26
:10B90000A368FA88934200F0DA801F440133A360F1
:10B910003E72637D3DE7D4F800A04900DAF800905C
:10B9200001F10108B8F5803FD9F8003012D29B68C8
:10B93000724A934201F10A0140F0A28038463DF07C
:10B94000B3FD28B1A0F80680A1686060074632E721
:10B95000D9F800305B685B4517D1384631F096FF67
:10B9600001238AF804300022637D626011E703201E
:10B9700005B0BDE8F08F022005B0BDE8F08F036987
:10B980005A1C02611D780575FDE639464846984700
:10B99000E6E7C2F30903009A8DF8080043EA822320
:10B9A00003F58032C2F30531C2F3874242F0F0075B
:10B9B00003F03F02C3F3851361F07F0162F07F0261
:10B9C00063F07F038DF80B108DF80C708DF8092053
:10B9D0008DF80A300DF10D0808F1FF3808E01E441B
:10B9E0000133A360377218F8017D002F3FF4E7AEF2
:10B9F0006668002EF7D0A368F2889342EFD15A0010
:10BA0000D4F800A002F10109B9F5803FDAF800305E
:10BA100028D21968886802F10A01384A904284469F
:10BA200045D1304601933DF03FFD019BD0B1A0F8D8
:10BA30000690A36860600646D1E706F03F0363F016
:10BA40007F03B2F5006F8DF809308DF808004FEADA
:10BA500092131AD263F03F03DFB28DF80A700DF132
:10BA60000B08B9E71A6852685A451CD1304631F0C4
:10BA70000DFF00234FF001028AF804206360B2E753
:10BA80000A464846394698475BE703F03F029B1158
:10BA900062F07F0243F0E0078DF80A208DF80B700A
:10BAA0000DF10C0898E7314618469047E1E70A4641
:10BAB00018460193314663469847019BB6E7D4F890
:10BAC00000905A00D9F8008002F1010ABAF5803FCF
:10BAD000D8F8003018D29B6808498B4202F10A025C
:10BAE0001FD1114638463DF0DFFC58B1A0F806A042
:10BAF000A3686060074608E784CF06000576020069
:10BB00000D760200D8F800305B685B450DD13846F1
:10BB100031F0BCFE012389F804300022637D6260AD
:10BB200037E6394640469847DFE73946404698476A
:10BB3000F0E700BF2DE9F04F427D8DB004460D4681
:10BB4000002A76D0027D202A12D8DFE802F07A118E
:10BB500011111111111111707011117011111111B8
:10BB60001111111111111111111111111111700077
:10BB700001217B2A217300F260815A2A42D9A2F165
:10BB80005B01202900F25981DFE811F0C000570164
:10BB900057015701570157015701570157015701E5
:10BBA00057011C0157015701570157015701570110
:10BBB00057012100570157015701570157013A0119
:10BBC0005701570157015701570157016400CF49E9
:10BBD0001346002001259A4240F0718111F8013F7F
:10BBE0006075002B00F088812269561C266112784E
:10BBF00022756575002AEED14FF0020840460DB05F
:10BC0000BDE8F08F222A02D0272A40F0168163680F
:10BC10000022A260002B00F047822046FFF7AAFD19
:10BC2000804698B929462046FCF744FC0EE00022E5
:10BC300062752269511C216112782275012161759A
:10BC400081E7237B002BD7D14FF0010840460DB090
:10BC5000BDE8F08FDEB220224FF0FF332A712B6057
:10BC6000002E00F04F8100232269637519460120E0
:10BC70001346013222611B7823756075202B00F278
:10BC80008D8101A757F823F0F9BB02009DBF020088
:10BC90009DBF02009DBF02009DBF02009DBF02002C
:10BCA0009DBF02009DBF02009DBF020015C10200A2
:10BCB00015C102009DBF02009DBF020015C1020018
:10BCC0009DBF02009DBF02009DBF02009DBF0200FC
:10BCD0009DBF02009DBF02009DBF02009DBF0200EC
:10BCE0009DBF02009DBF02009DBF02009DBF0200DC
:10BCF0009DBF02009DBF02009DBF02009DBF0200CC
:10BD00009DBF02009DBF020015C1020040214FF0FF
:10BD1000FF32DBB229712A60002B00F0F380002192
:10BD200022696175084601261146013222610978AF
:10BD300021756675202900F2EF8001A757F821F0E0
:10BD4000F9BB020019BF020019BF020019BF0200AF
:10BD500019BF020019BF020019BF020019BF02007B
:10BD600019BF020019C1020019C1020019BF020067
:10BD700019BF020019C1020019BF020019BF020059
:10BD800019BF020019BF020019BF020019BF02004B
:10BD900019BF020019BF020019BF020019BF02003B
:10BDA00019BF020019BF020019BF020019BF02002B
:10BDB00019BF020019BF020019BF020019BF02001B
:10BDC00019C1020000232B70637D06212971002B0D
:10BDD00000F0BC81237D4E49002B3FF40DAF9A4209
:10BDE0006DD111F8012F00236375002A00F08480C3
:10BDF0002369581C20611B78237501206075EBE7CF
:10BE000001232B70637D06212971002B00F0A08196
:10BE1000237D4049002B3FF4EFAE9A424FD111F8F9
:10BE2000012F00236375002A66D02369581C206106
:10BE30001B78237501206075ECE700239E4604F112
:10BE40001B014FF0010C15E0392A03D902F0DF0085
:10BE5000452817D13F2B03F1010013D084F815E0DA
:10BE600001F8012F2269C3B2501C2061127822759B
:10BE700084F815C02F2AE7D82B2AA2F12D00E9D08B
:10BE80000128E7D9234400221A7704F11C0108A8ED
:10BE9000FCF762FC9DF8208008F1FF33032B0ED8DD
:10BEA000DFE813F0130127011A011300392940F2CA
:10BEB00096805E2940F28E807A2940F290804FF081
:10BEC000030840460DB0BDE8F08FDDE90A6739464A
:10BED00030463BF0CFFF82463BF07CFC02460B46EF
:10BEE000304639463BF036FF8146002800F0678136
:10BEF0000E23C5F800A02B714FF0000840460DB08E
:10BF0000BDE8F08F4FF00508A0E600BFA8CF0600FF
:10BF1000A0CF060098CF060001225D29227339D0F8
:10BF20005E1E17464FF6FF79D4F8188008A84146E0
:10BF3000FCF7FEF80899002900F072816B88BDF8C3
:10BF400024204B4500F00981D8F82C004FEAD31C7F
:10BF500000EBCC0003F07F03406800EBC303DA8002
:10BF60006A8033464FF000022046FFF7E3FD80462B
:10BF700000287FF46BAE2046FFF7D0FB80460028F8
:10BF80007FF464AE637D002B00F0EE80237D5D2B9B
:10BF900040F0D68000206075804657E601227D2B58
:10BFA0002273F7D0DFF81493DFF814A30027636837
:10BFB000A760002B00F0F180637D002B00F0AE80C5
:10BFC000217D272900F0B480222900F0B1802F299B
:10BFD0003FF66CAFA1F14103192B3FF670AF4FF064
:10BFE000010867752046FCF7FDFA637D002B00F021
:10BFF0001D81217D2F29A1F1410300F2C480192B5D
:10C00000EFD96368002B00F00B812046FFF786FB19
:10C01000804600287FF41AAE637D002B00F0AB80D1
:10C02000237D3A2B7FF44BAFD4E90132134467757B
:10C030001F72D4E90132D4F818B08DF82870083393
:10C0400008930992CDF800B008AB0ECB2846FFF755
:10C050006BFA59468046002800F0F880FCF70CFB8C
:10C060004146731E4FF000022046FFF763FD8046F5
:10C0700000287FF4EBAD2046FFF750FB80460028F8
:10C080007FF4E4AD637D002B00F0D880237D7D2B11
:10C0900080D02C2B7FF413AF67752046FFF73EFB53
:10C0A0008046002883D0D1E52668844A306803683A
:10C0B0001B68934240F0B780282031F0CDFB002868
:10C0C00048D07F4B43606060A7E50A9A2A600E2340
:10C0D0002B714FF00008B9E5DDE90A67012F08BFB1
:10C0E000002E80F08D800A232E602B714FF0000807
:10C0F000ACE5DDE90A9A19F100464AF10007012F83
:10C1000008BF002E6CD20C23C5F800902B714FF0A5
:10C1100000089BE56175ABE5607505E623695A1C6F
:10C120002261197821750123272963757FF44CAFAB
:10C130002046FFF71FFB804600283FF466AF85E5E9
:10C140002C2B7FF4BCAE00236375EDE65D494FE612
:10C150005D496AE601233371B5E7002362F30F03FB
:10C1600062F31F432B60FCE623695A1C22611B7893
:10C17000237567750BE723695A1C22611B782375A9
:10C18000012262754DE739297FF62BAF5E297FF6D4
:10C1900036AF7A297FF625AF33E7D4F80080D8F898
:10C1A000000003681B684B4540F08280282031F076
:10C1B00053FB002878D0C0F804A06060FCE6A169B9
:10C1C00006A8FCF799F8069B002B3FF43FADBDF89D
:10C1D0001C202A801E212971C846C3E9006735E565
:10C1E000A16906A8FCF788F8069BCBB1BDF81C2016
:10C1F0002A801C2129714FF00008C3E9009A25E527
:10C20000A16906A8FCF778F8069B4BB1BDF81C2085
:10C210002A801A2129714FF00008C3E9006715E54B
:10C220004FF0040812E52821984748E723695A1C73
:10C2300022611978217584F81580DBE623695A1C80
:10C2400022611B7823750122627520E704A8FBF7A1
:10C250006FFF049B002BE3D0594606A80393FBF71E
:10C2600067FFDDF81880B8F1000FD9D0039BBDF847
:10C270001C10D9806A88BDF814004FF6FF7C624517
:10C2800019D0DBF82CC04FEAD21E0CEBCE0C02F01A
:10C290007F02DCF804C00CEBC202D0806980194632
:10C2A0002046FCF707F9DBE6012388F8043084E731
:10C2B000282198477DE728806980F0E715760200FD
:10C2C00001001F00A0CF060098CF06002DE9F04F17
:10C2D000038E9BB00746044657F80CBBADF804200C
:10C2E000884600F1380903B30026C36AB2460BE062
:10C2F00031F0CCFAE36AC5F800A0208EC5F804A09E
:10C300000136B1B2884211D9B5B203EBC5056968EF
:10C3100008460029EFD0DBF80030374A5B689342CB
:10C32000E6D058469847E36AE5E7C36A00204FF62F
:10C33000FF719F422086A1860BD0DBF800102E4DA6
:10C340004E68AE424DD1184631F0A0FA0423E762A0
:10C350006386A16826680023237161B1264D336886
:10C360000A685B68A260AB4208462DD131F08EFAB4
:10C37000A1680029F3D1002584F83C509DF80530D0
:10C380008DF8185049464FF0000203A8CDE9045536
:10C390008DF821500394CDF81C800994FFF7CAFB57
:10C3A000054610B99DF82050A5B9049840B1039BEB
:10C3B00011491A6813685B688B4216D131F066FA2E
:10C3C00028461BB0BDE8F08F30469847A168002989
:10C3D000C5D1D0E794F83C5015F0080518BF0325E7
:10C3E000E3E719465846B047B0E70146104698477C
:10C3F00028461BB0BDE8F08F0D7602002DE9F04F06
:10C40000002193B09448DFF878A21CF075FC04E09A
:10C41000013492482C601CF0C9F88F498F480022E3
:10C420001CF038FD8046002800F00C818C4D2B68F4
:10C43000C72B00F3048103A9884819221DF080FF4F
:10C4400003A82E213DF068F908B1002303702C6881
:10C45000844BDFF830B204EB440204EB8202134455
:10C460000C220DEB020118463DF043F9DBF80020E9
:10C470000026C72A0673CBDC7B4C7848214640F661
:10C48000FF721CF031FB002801DC2C68C0E7774FFD
:10C4900026543B8E3A68002B00F08D81CDF8048045
:10C4A000FB6A3446B14690460BE031F0EFF9FB6A87
:10C4B000C6F80090388EC6F804900134A1B28842C4
:10C4C0000FD9A6B203EBC606716808460029EFD063
:10C4D000D8F800305B685345E7D040469847FB6A80
:10C4E000E6E74246DDF80480614C00213986A3422C
:10C4F0004FF6FF71B9860AD011684E68564540F074
:10C500004981184631F0C2F90423FC627B86B86881
:10C510003C6800233B7158B1236802685B68BA60CD
:10C52000534540F0848031F0B1F9B8680028F3D168
:10C530000A238DF809300023029A4B494B4887F8AB
:10C540003C30FFF7C3FEC0B200289ED197F83C30C4
:10C55000202B00F09B80402B97D13B8F4FF6FF7430
:10C56000A34292D0FE6ADA0906EBC20203F07F030F
:10C57000526812EBC30388D0DA88D309A24206EBD3
:10C58000C30302F07F0100F1010003D05B6813EBED
:10C59000C103F1D100283FF478AF364BDFF8E890C3
:10C5A0000D970AA84FF000080B260124CDE90E8351
:10C5B000CDF8309010968DF84440FEF755FD2E4B87
:10C5C000CDF830900AA8CDF8388010968DF8444008
:10C5D0000D970F9357EC106BFEF746FD00220023DA
:10C5E0003046394659EC108B3BF0B4FB40B1002289
:10C5F0000023404649463BF0ADFB00287FF445AFA1
:10C60000DBF800401D4B04EB440203EB021303A9CB
:10C610001F2218463DF06DF8621C0021C0E9086732
:10C62000C0E90A892C68CBF80020C177F0E6014602
:10C6300020469847B86800287FF46EAF78E707482F
:10C640001BF0B4FF04481BF0B1FF0420FDF776FB9C
:10C65000012013B0BDE8F08FC0010120B0DE002042
:10C660003CFD0020A0F00020B06B0020D4BF0020D3
:10C67000E0BF0020B0CF0600BCCF06007806012046
:10C680000D760200F82B01200CC000203B8F4FF6E6
:10C69000FF7293423FF4F9AED7F82C90D80909EB1A
:10C6A000C00003F07F01436813EBC1033FF4EDAE1C
:10C6B000DE88B8F1000F14D196423FF4E6AEF109DE
:10C6C00009EBC10106F07F064B6813EBC6033FF48C
:10C6D000DCAE88F001085FFA88F8DE88B8F1000F58
:10C6E000EAD0197904295DD0052957D00229E3D170
:10C6F00018461C463CF0E3FF4FF6FF720728DBD1DB
:10C700002378632BD8D163786F2BD5D1A378752B81
:10C71000D2D1E378722BCFD12379732BCCD163792B
:10C72000652BC9D1A379732BC6D14FF6FF739E42F7
:10C730003FF4ABAEF30909EBC30306F07F065B6879
:10C7400013EBC6043FF4A1AE2279402A7FF49DAEDC
:10C7500033F836304FF6FF7C63453FF496AEDA0986
:10C7600009EBC20203F07F03526812EBC3033FF4EC
:10C770008CAED9880026CA09614509EBC20201F0D6
:10C780007F0006F1010618D0536813EBC00314D0E4
:10C79000D988F0E719461046B047B5E61C68E0882E
:10C7A0000834ABE71C68002C86D020463CF087FF9D
:10C7B0004FF6FF72A2E7FB6A96E6002E3FF465AEE5
:10C7C0000C4B0C940AA84FF000094FF00B080126FF
:10C7D000CDE90F38CDE90D798DF84460FEF744FCC2
:10C7E000054BCDF838900AA8CDF840808DF844600C
:10C7F0000C94EDE6B0CF0600BCCF060030B5214D5D
:10C800008BB033F005F9286804210CF05DFBF8B11A
:10C8100004232B6033F006F900231B4A1B49ADF8B3
:10C82000043001A88DF806301CF0F6F80446B0B1CB
:10C83000174C184B14491848002222601A601CF04B
:10C84000F3F8C0B1FFF7DAFD044620460BB030BD67
:10C85000044633F0E7F82B6820460BB030BD0A4A97
:10C860000E49ADF8044001A801238DF806401BF0E5
:10C87000ABFF0028DCD10420FDF760FA002420463D
:10C880000BB030BD7CDD00207CDE0600486500205A
:10C890003CFD0020F82B0120C00101208C69002004
:10C8A000F0B54D4E4D4D33882B789BB0002B68D1A1
:10C8B000032003F0FF07FDF729FA0446002855D0AE
:10C8C000474B484A322168463CF006FE464A4749F3
:10C8D000ADF834703B460DA88DF836701CF09CF80E
:10C8E000044648B9ADF834003F4A41498DF8364016
:10C8F00001230DA81BF068FF00243C49ADF834402B
:10C9000023466A460DA88DF836401CF085F80028AD
:10C9100052D100234FF47A71364C0E93ADF8443067
:10C920008DF846300F916A4630490D9411A844F2B3
:10C9300002231CF071F89DF84440002C36D0328858
:10C940002D4992B211A81CF0A1FB044611A81BF0BE
:10C950002DFE0320FDF7F2F933889BB2A3421DD0D0
:10C96000264927480F2225F0FBF90FE025490C2224
:10C97000234825F0F5F9244A244B14701C701BB091
:10C98000F0BD23491E480E2225F0EAF91E491F4A30
:10C9900000230B7013702B701BB0F0BD1D4918489D
:10C9A000032225F0DDF9FFF729FFEFE70320FDF76C
:10C9B000C5F912490F22DBE70C49ADF834400123D9
:10C9C0006A460DA88DF836401CF026F80028A0D045
:10C9D0000DA81DF091F89CE7248C0020C67B002058
:10C9E0006C8E0020D8CF06007CDE06004865002053
:10C9F0008C690020A4DC0600247C0020E4CF060023
:10CA0000F4DF002048CE0600207C0020698E002044
:10CA1000C8CF0600F4CF060070B5304D96B032F0A6
:10CA2000F7FF286803210CF04FFA60B9044632F092
:10CA3000F9FF2B492B482B680C2225F091F92A4B42
:10CA40001C7016B070BD032600242E6032F0EAFF81
:10CA5000264B274A322109A83CF03EFD2549ADF876
:10CA6000004009AA234668468DF802401BF0D4FF17
:10CA70000546B8B11F49ADF8004009AA0123684630
:10CA80008DF802401BF0C8FFC0B90320FDF756F92E
:10CA9000194914480F2225F063F9134B00221A702C
:10CAA00016B070BD3046FDF749F914490D480C2207
:10CAB00025F056F90C4B1D7016B070BD68461DF080
:10CAC0001BF80028E1D03046FDF738F90C4905483D
:10CAD000324625F045F9FFF791FEDEE77CDD0020C8
