:020000022000DC
:1070000000000420A9FF0600E9FF0600EBFF0600D0
:10701000EDFF0600EFFF0600F1FF06000000000094
:1070200000000000000000000000000025FF060036
:10703000F5FF06000000000045FF0600F9FF06000E
:1070400005020700FBFF06008DD606000D1905009E
:10705000C5190500FBFF060065D90600FBFF060009
:10706000FBFF0600FBFF0600FBFF0600FBFF060020
:10707000FBFF0600FBFF0600FBFF0600FBFF060010
:10708000FBFF060075FC0600FBFF0600FBFF060089
:10709000FBFF0600FBFF06008D3D0600FBFF060020
:1070A000FBFF0600FBFF060029DD0300FBFF0600D7
:1070B000FBFF0600FBFF06000000000000000000D0
:1070C000FBFF0600FBFF0600FBFF0600ED070700C5
:1070D000FBFF0600FBFF0600FBFF060015C40500D2
:1070E000FBFF0600FBFF0600FBFF060000000000A0
:1070F00000000000FBFF060000000000650807001C
:10710000000000000000000000000000000000007F
:10711000000000000000000000000000000000006F
:10712000000000000000000000000000000000005F
:10713000000000000000000000000000000000004F
:10714000000000000000000000000000000000003F
:10715000000000000000000000000000000000002F
:10716000000000000000000000000000000000001F
:10717000000000000000000000000000000000000F
:1071800000000000000000000000000000000000FF
:1071900000000000000000000000000000000000EF
:1071A00000000000000000000000000000000000DF
:1071B00000000000000000000000000000000000CF
:1071C00000000000000000000000000000000000BF
:1071D00000000000000000000000000000000000AF
:1071E000000000000000000000000000000000009F
:1071F000000000000000000000000000000000008F
:10720000F1EE103A43F08073E1EE103A704700BFA0
:1072100010B5054C237833B9044B13B10448AFF3D0
:1072200000800123237010BDD06600200000000004
:10723000243F080008B5034B1BB103490348AFF3D3
:10724000008008BD00000000D4660020243F080034
:10725000154B002B08BF134B9D46A3F5803A002128
:107260008B460F461348144A121A51F0B7FB0F4BC6
:10727000002B00D098470E4B002B00D098470020E1
:10728000002104000D000D48002802D00C48AFF387
:10729000008051F0E7FA2000290048F0DDFE51F0AF
:1072A000BBFA00BF0000080000000420000000003E
:1072B00000000000D06600200CAD0120000000009E
:1072C00000000000BFF34F8F0549064BCA6802F467
:1072D000E0621343CB60BFF34F8F00BFFDE700BFF9
:1072E00000ED00E00400FA0535DF704733DF70473A
:1072F0003CDF70473DDF704741DF704711DF70476B
:1073000012DF70470020704701207047012070474E
:10731000704700BF704700BF704700BF704700BF95
:10732000024B02F001021A70704700BF0D7C002072
:1073300070B50446C0694E4D50F056FB4AA3D3E9E0
:10734000002350F0BBFB02460B46A069C5E90023B1
:1073500050F04AFB44A3D3E9002350F0AFFB94ED77
:107360000F7AB4F84C30DFED437A9FED435A9FED2E
:10737000434ADFED434AF8EEC75A94ED107A06EE21
:10738000103AF8EEC76A94ED0A7AB8EE466AB8EE9B
:10739000477A66EEA76A65EE845A26EE246A27EEDF
:1073A000057AC5ED055A85ED066AC5ED076A85EDD6
:1073B000087AE37DD4ED097A6B62237DF8EEE77AF3
:1073C000012B88BF637DC5E9020167EE857A8CBF1A
:1073D00003F001030023C5ED047A85F82830E37A31
:1073E00003F00302A2F10300B0FA80F0C3F38001BE
:1073F0004009032A85F82A0085F82B1003F00403BE
:107400002DD1003B18BF0123A28885F82930A2F5B1
:10741000FA63AB85A37985F82E30E37985F82F30B0
:10742000237A85F83030637A85F83130A37A85F88D
:1074300032302268134B1449144C1548A3FB0263E5
:1074400001260E709B094FF47A7101FB132321680A
:107450000268AB86314432442160026070BD002373
:10746000D2E700BFAFF3008048AFBC9AF2D77A3EB4
:10747000701E0120ACC527376F12833AA8C8FE3AA8
:107480000AD7233CD34D6210A81E0120C01E012044
:10749000AC1E0120024B034AC3F8002601207047AE
:1074A000000001403546526E024B0349C3F80016F6
:1074B00010467047000001403546526E704700BFCD
:1074C000037C13F0080306D0C36A406A181A48BF49
:1074D0006FF0004070471846704700BF2DE9F84F25
:1074E0004AB3C2F3080315462BBBDFF85480DFF81C
:1074F0005490012306460F4688F800304FEA522A7E
:107500000324D9F8680403683A46D3F814B0314626
:107510005346D847013C20B914F0FF04F1D14FF095
:10752000FF3546F08BFA054A0023106088F80030DA
:107530002846BDE8F88F4FF0FF35F9E7F86B0020DB
:10754000F87C0020EC6600202DE9F84F4AB3C2F326
:10755000080315462BBBDFF85480DFF85490012355
:1075600006460F4688F800304FEA522A0324D9F81D
:10757000680403683A46D3F824B031465346D847E6
:10758000013C20B914F0FF04F1D14FF0FF3546F073
:1075900055FA054A0023106088F800302846BDE8F7
:1075A000F88F4FF0FF35F9E7F86B0020F87C0020EA
:1075B000EC660020103031F0CDBA00BF103031F051
:1075C0002DBB00BF00B583B00B4601220DF10701B2
:1075D00010308DF8073031F021FB03B05DF804FB6B
:1075E00000B587B00346064A6846182152F0ECF809
:1075F000694682B203483AF07BF907B05DF804FBB4
:1076000064D20700141E0120103031F01FB800BFF3
:1076100000B583B001220DF10701103030F044FFB6
:1076200001280CBF9DF807004FF0FF3003B05DF854
:1076300004FB00BF084646F043BA00BF08461146A7
:1076400052F0AAB8084646F021BA00BF10B50E4C59
:1076500084B0227801A809211BF05EFF2378023351
:107660002370024670B1094B1B7803F0FF004BB149
:10767000074B1B7803F0FF0023B1064892B201A923
:107680003AF036F904B010BD9EE70020507C00208F
:107690000D7C00205C7D00202DE9F0434779402FD0
:1076A0003946A1B028BF40219FB30023E9464A468E
:1076B0009C461F46054603EB4304AE7A167000EB6A
:1076C00084040133247C14F0080FC4F3C00818BFED
:1076D000013782F801805FFA83FE05F10C0502F1A3
:1076E000020218BFFFB21EB10CF1010C5FFA8CFC54
:1076F0007145E0D8084B094C1F70094A84F800C056
:10770000484610231EF0C0F8064B187021B0BDE8A3
:10771000F083BC46E946EDE7D91E0120D81E0120C2
:10772000C81E0120C41E0120174BDB68D90110B50B
:1077300003D5164B1A68D2071FD447F097FB144B9A
:10774000A0FB0301830A43EA8153124912480A68E5
:1077500000689A1A90420FD810480B6002781049BE
:107760000132097802F00F02914209D001780D4CE4
:10777000C9B244F82130027010BD5B689B09E4E790
:10778000094B01221A7010BDF0ED00E0001000E07E
:1077900040420F00943F012048610020DC3F01205F
:1077A000DE3F01209C3F0120DD3F012038B5104C19
:1077B000104DD4F8680403680122DB692A709847E9
:1077C00094F82430DB070CD400224FF0FF3384F808
:1077D0002420236346F032F9074A002310602B70FF
:1077E00038BD04F1240033F0EBFE0028ECD1F1E7C2
:1077F000EC660020F87C0020F86B00202DE9F041B9
:107800008AB01F2201460092054602AB2C48FF2297
:107810003AF004FE0D2817D82A4B1B7813B92A4BCF
:107820001B7843B1294B1B7813B925483AF0DCFD8E
:107830000AB0BDE8F081264B1B78002BF8D0234B13
:107840001B78002BF4D1F0E70446014602A81EF095
:1078500067FA0028E0D003351E4829461EF0E8FBF1
:1078600018B9194B1B78002BD6D0DFF880801A4846
:1078700098F80060102C28BF1024E4B202A9224618
:10788000374600EB061051F081F807EB4707134B22
:107890002A6843F8172003EB4707F6B2104BAA8873
:1078A000BA809C5546F0CAF80E4C0F4A44F82600A0
:1078B000012186EA0103915588F80030ACE700BF4A
:1078C000F08A0120613B0120D4A10020F36B00204D
:1078D000A87C0020107C002004E70020BC6B002066
:1078E00024E70020A0E7002004E80020F46B00203B
:1078F00010B5034B0360044620F044FA204610BD47
:10790000F0E9070008B50D4B1B7813B10C4B586814
:1079100008BD0C4BDB68D90106D5094B1A68D207A4
:1079200002D55868800908BD47F0A0FA064BA0FBB5
:107930000301830A43EA815008BD00BFE66B0020C3
:10794000001000E0F0ED00E040420F000F49097820
:1079500002290AD1F8B50E4E0E4F3578EDB21C460D
:107960007B5D0BB9202C01D9F8BD70470A48114640
:1079700000EB4510224651F009F80848E3B24355A0
:10798000012185EA010279553270F8BD411A0120C2
:107990000C7C002064F800205CE700209CE70020BD
:1079A000F0B5234B234E0446002914BF1946314637
:1079B000214887B045F022F8204B1B68A3422DDDFB
:1079C0001F4B04EB440403EB0414204651F0EFFF7B
:1079D00021460546132201A852F003F80027164855
:1079E0008DF8177001A945F009F9132D04D8124834
:1079F00045F0E4F807B0F0BD31460F4844F0FEFF13
:107A000004F11301132201A851F0EBFF01A90A4868
:107A10008DF8177045F0F2F807B0F0BD0949064837
:107A200045F07CF8044845F0C9F807B0F0BD00BF48
:107A300070D2070004E60700A41B01205C3B012074
:107A4000A03B012074D20700F8B51D4B1B78022B18
:107A500004462CD01B4B1C4A1C48002721460126FB
:107A60001F7016703CF08AF905463AF0BBF82846BC
:107A7000F7213AF0CFF8284602213AF0F3F83A46D7
:107A8000394628463AF0CEF845F0D8FF104FDFF8D7
:107A900058C01049104A0346CCF800303C801B23E4
:107AA0000E7028461380BDE8F8403AF09DB80B4AA6
:107AB0000B490C4B10800120002208701A70F8BD91
:107AC000411A01208CC20020041A01205484012094
:107AD000FEC60020D09E0020CC6000203C6100202B
:107AE000507C00200D7C002088C20020234A13888F
:107AF0004FF6FF719BB28B42F0B403D013889BB258
:107B000098422DD01E4B1B78022B29D01D4B1E4FA7
:107B10001E4C1F491F4E1A781F48204D00233B70F2
:107B20001B27378023700B701D4C1E4903701E48A5
:107B30002B7023701D4D0B701D4C1E4903701720B8
:107B40002B70237008801C4B1AB900221A70F0BCED
:107B500070471A78002AF8D0184A01211170F4E70A
:107B600013889BB29842F2D1154C164900234FF668
:107B7000FF7023701080F0BC0B7070473C610020D8
:107B8000411A0120FC190120D09E002080A2002073
:107B90001EA20020CC600020E1C600201DA2002013
:107BA000A4C60020187E0020041A0120421A0120D9
:107BB000A1C20020586100208CC2002002C7002012
:107BC000507C00200D7C002010B50C4991F832202B
:107BD00091F83130888D8C8E84B0CDE900320294DA
:107BE00000F5FA6091F8303091F82F2091F82E10BE
:107BF00080B21AF0B5FF04B010BD00BF701E0120A6
:107C000010B5054B1C6845F019FF01462046BDE83C
:107C100010401EF017B900BFA8E700202DE9F04F73
:107C20004948037CABB0002B40F08A804748037C76
:107C3000002B40F081804648037C002B78D14548DA
:107C4000037C002B70D10024322045F003FF424E0C
:107C5000424A43490194234604A84FF47A75ADF88B
:107C600010408DF812400295009630F0B5FB9DF85B
:107C70001000002855D03B4D2B68132B49DC3A4FA0
:107C8000DFF8E88005E011A830F070F92B68132BBD
:107C90003FDC4FF47A73002204A911A80F930E94CD
:107CA000ADF844408DF846400D9630F0BBFE9DF88F
:107CB000443040221AA911A85BB332F009F99DF8AB
:107CC000443013F0D00F1AA8DDD151F070FE0346F6
:107CD0001AAA0638062B39461044D4D951F00CFEA6
:107CE00081460028CFD1D5F800A00AEB4A0B08EB5B
:107CF0000B1B1AA92F22584651F073FE0AF10103FB
:107D000011A82B608BF82F9030F030F92B68132BD3
:107D1000BFDD04A830F02AF928680028D4BF00206D
:107D200001202BB0BDE8F08F103030F01FF98AE74A
:107D3000103030F01BF982E7103030F017F97AE795
:107D4000103030F013F971E76C3B0120C01C0120AA
:107D5000E83F01201C40012020EA07007CD20700F8
:107D6000EC6600205C3B012080D20700A03B012094
:107D700010B5094C2368013309D1084A136803F58B
:107D80009C5308334FF0FF311360216010BD45F064
:107D900055FE034B1860F0E7A0620020FC1B012099
:107DA000E038012010B5074C47F04CFF2068042153
:107DB0001DF038FE08B100232360BDE8104047F0F5
:107DC0004BBF00BF681B012038B505680A4A04464E
:107DD000286803681B6893420BD1282045F056FEA3
:107DE00018B1064B4360606038BD01232B716060A1
:107DF00038BD28219847F3E74576020001001F00AF
:107E000081682DE9F0470568044669B1284E2B6862
:107E10000A685B68A260B34208463DD145F050FE57
:107E2000A1680029F3D12568238E04F10C0903B35E
:107E30000027E36ADFF878A0B8460BE045F040FE83
:107E4000E36AC6F80080218EC6F804800137BAB212
:107E500091420FD9BEB203EBC606716808460029ED
:107E6000EFD02B685B685345E8D028469847E36A13
:107E7000E7E7E36A00214FF6FF7299452186A28663
:107E800007D02A680A4952688A420BD1184645F041
:107E900017FE2046BDE8F08728469847A1680029CC
:107EA000B5D1C0E72846194690472046BDE8F0877F
:107EB0003576020081682DE9F0470568044669B10E
:107EC000284E2B680A685B68A260B34208463DD121
:107ED00045F0F6FDA1680029F3D12568238E04F151
:107EE0000C0903B30027E36ADFF878A0B8460BE07B
:107EF00045F0E6FDE36AC6F80080218EC6F80480EE
:107F00000137BAB291420FD9BEB203EBC60671680F
:107F100008460029EFD02B685B685345E8D0284617
:107F20009847E36AE7E7E36A00214FF6FF72994555
:107F30002186A28607D02A680A4952688A420BD154
:107F4000184645F0BDFD2046BDE8F0872846984715
:107F5000A1680029B5D1C0E72846194690472046B8
:107F6000BDE8F0873576020081682DE9F0470568A5
:107F7000044669B1284E2B680A685B68A260B34268
:107F800008463DD145F09CFDA1680029F3D1256844
:107F9000238E04F10C0903B30027E36ADFF878A00D
:107FA000B8460BE045F08CFDE36AC6F80080218EF0
:107FB000C6F804800137BAB291420FD9BEB203EBC2
:107FC000C606716808460029EFD02B685B685345E8
:107FD000E8D028469847E36AE7E7E36A00214FF6CE
:107FE000FF7299452186A28607D02A680A495268FD
:107FF0008A420BD1184645F063FD2046BDE8F08764
:1080000028469847A1680029B5D1C0E728461946F7
:1080100090472046BDE8F087357602002DE9F04F05
:1080200087B006AB03E90300049D002D00F00E812C
:108030002888059A4FF6FF73984200F01081D2F815
:108040002C90C10909EBC10100F07F02486810EBD8
:10805000C20000F004819B460379C688202B4FF0B4
:10806000000840F0EE80B8F10A0F00F0EE800788BB
:108070005F4500F0DE81FB0909EBC30307F07F02D7
:108080005D680292FB0915EBC205039300F0EC80DA
:10809000B5F806A00195434601272C46B046554643
:1080A0001E468FB95D4500F0DC80EA0909EBC2028B
:1080B00005F07F05546814EBC50400F0D28087F00A
:1080C0000107E588002FEDD02279042A00F086818F
:1080D000052A00F07F81022AE4D1204651F067FC96
:1080E0000428DFD122786E2ADCD16278612AD9D1C6
:1080F000A2786D2AD6D1E278652AD3D12B463246B2
:108100005B454646019D904610D0D80909EBC0005A
:1081100003F07F03406810EBC30307D01B79181FDF
:10812000012840F2A680022B00F0A380B34BB44A92
:1081300042F83830039B029A09EBC30ADAF804309C
:1081400013EBC20764D0B7F806A0019701233C46A1
:108150001F4643465546B0461E468FB95D4500F062
:10816000D080EA0909EBC20205F07F05546814EBE0
:10817000C50400F0C68087F00107E588002FEDD028
:108180002279042A00F02181052A00F01A81022AAE
:10819000E4D1204651F00BFC0C28DFD12278642A70
:1081A000DCD16278612AD9D1A278742AD6D1E2785A
:1081B000652AD3D122795F2AD0D16279632ACDD1C1
:1081C000A279722ACAD1E279652AC7D1227A612AB4
:1081D000C4D1627A742AC1D1A27A652ABED1E27A68
:1081E000642ABBD132465D453B464646019F9046D8
:1081F0000ED0EA0909EBC20205F07F05546814EBC2
:10820000C50505D02A79111F01297ED9022A7CD003
:108210007A4B7B4A02EBC8025E4508F101085360C5
:108220005FFA88F512D0F30909EBC30306F07F0665
:10823000586810EBC60009D00379C688202B3FF49C
:1082400012AFB8F10A0F40F0CE8045466D4A6C4837
:10825000294619F035F8284607B0BDE8F08F00250B
:10826000F4E7334646469846654B644A43F838205F
:1082700060E79FB9DA4500F0CE804FEADA1309EBE8
:10828000C3030AF07F0A5D6815EBCA0500F0C380DE
:1082900087F00107B5F806A0002FEBD02B79042B4F
:1082A00000F0B280052B00F0A480022BE2D128461A
:1082B00051F07DFB0428DDD12B786E2BDAD16B7861
:1082C000612BD7D1AB786D2BD4D1EB78652BD1D185
:1082D000DA4500F0A0804FEADA1309EBC3030AF095
:1082E0007F02586810EBC2033FF421AF19790429CB
:1082F00000F0AF80052900F0A880022918BF0023F4
:1083000015E733464646984682E71C469CB9DA454F
:1083100000F08D804FEADA1209EBC2020AF07F0A00
:10832000576817EBCA0700F0828084F00104B7F8A1
:1083300006A0002CEBD03B79042B72D0052B6CD01F
:10834000022BE4D1384651F032FB0C28DFD13B78C8
:10835000642BDCD17B78612BD9D1BB78742BD6D13F
:10836000FB78652BD3D13B795F2BD0D17B79632B05
:10837000CDD1BB79722BCAD1FB79652BC7D13B7AA2
:10838000612BC4D17B7A742BC1D1BB7A652BBED152
:10839000FB7A642BBBD1DA4549D04FEADA1309EBFB
:1083A000C3030AF07F0A596811EBCA033FF431AFE7
:1083B0001A79042A46D0052A40D0022A18BF002381
:1083C00027E72468E0880834E6E62468002C7FF478
:1083D000E0AEC3E62468E088083481E62468002C17
:1083E0007FF47BAE5EE6064B044A43F83820134622
:1083F0000FE72D68E88808355CE700BFF80408003F
:10840000D4600020E86B00202D68002D7FF44FAF72
:10841000DA457FF432AF002389E63F68F8880837F1
:1084200093E73F68002F8DD1DA457FF473AF0023C7
:10843000EFE6094B094A43F83820E9E651F83A30AB
:108440000833E6E651F83A30E3E650F832300833C4
:108450006DE650F832306AE6D4600020F804080077
:108460002DE9F84F074645F0E9FA314DDFF8CC9099
:10847000DFF8CCB0DFF8CCA0064645F00105D9F80E
:1084800000301C68204648F059FE03464FF00308B0
:108490004FF4FA406BB9B8F1010F3CD0A847204621
:1084A00048F04CFE034608F1FF384FF4FA40002B29
:1084B000F1D0DBF80030D3F80080404648F03EFEB3
:1084C000034603244FF4FA405BB9012C23D0A8479C
:1084D000404648F033FE0346013C4FF4FA40002B7F
:1084E000F3D0144B1B68D3F80080404648F026FEBA
:1084F000034603244FF4FA405BB9012C0BD0A84784
:10850000404648F01BFE0346013C4FF4FA40002B66
:10851000F3D0BDE8F88F45F091FA801BB842F8D24D
:10852000054B0A20C3F800A645F094FAA7E700BF60
:1085300050F0070064610020000001405C610020F1
:10854000606100203546526E38B5124B124A1B78D6
:1085500052F82050044643B1104B5A681048521B41
:108560002146BDE838401CF041BF0E4BDB68D90105
:1085700006D50A4B1A68D20702D55A689209EDE768
:1085800046F074FC084BA0FB0301830A43EA8152C6
:10859000E4E700BFE66B0020E8A10020001000E047
:1085A00094F80020F0ED00E040420F002DE9F04F7C
:1085B000DFF8F490344AD9F800300026B34283B093
:1085C00016702ADD4FF0FF33DFF8E080DFF8E0B00F
:1085D0002E4F01934FF0000A97ED0A3B97ED082BC1
:1085E00098ED021B98ED000B1AF0D6FC55EC104BE1
:1085F0005B4610EE100A524629464FF0D1FC383740
:10860000D9F8003010B1A246AB4601960136B3420C
:10861000E2DC019B1A46013220D100211C4D1D4B8A
:10862000002428461C7018F0E1F82A781A4B042A16
:108630001C600ED9194C23685A1C1DD1184A23609E
:10864000136803F59C5308330120136003B0BDE8A1
:10865000F08F6FF00A03114C9B1AEFE7C3EBC30ACC
:108660000A4B094803EBCA010C2251F0BAF9064A39
:10867000002313730121D1E745F0E0F9094A4FF0D7
:10868000FF331060DAE700BF241B0120E046012021
:10869000986100201C1B0120EC380120A062002002
:1086A000FC1B0120E0380120A0720120701E012077
:1086B000000014402DE9F047038E8146054659F825
:1086C0000CABFBB10026C36ADFF8A080374609E097
:1086D00045F0F6F9EB6A2760298E67600136B2B281
:1086E000914210D9B4B203EBC40461680846002972
:1086F000F1D0DAF800305B684345E9D0504698473E
:10870000EB6AE8E7C36A00214FF6FF7299452986B4
:10871000AA860CD0DAF80020144C5268A24221D16B
:10872000184645F0CDF90423C5F82C906B86A8684F
:108730002E6800232B7158B10C4C336802685B68BB
:10874000AA60A34206D145F0BBF9A8680028F4D17D
:10875000BDE8F087014630469847A8680028ECD16C
:10876000BDE8F087194650469047DCE735760200B1
:10877000008830B44FF6FF74A0421AD0CD6AC20907
:1087800005EBC20200F07F03506810EBC30011D06C
:10879000C2880020D309A24205EBC30302F07F0187
:1087A00000F1010006D05B6813EBC10302D0DA8848
:1087B000F0E7002030BC70472DE9F0418B8E4FF67A
:1087C000FF72934282B00C46054616D0CA6AD90998
:1087D00002EBC10203F07F01526832F83100A0863B
:1087E00002EBC10200204FF6FF71107128462A608B
:1087F000AB80D18002B0BDE8F081098E27680029E6
:1088000032D1638E002B00F085800123E66A5A4A3C
:1088100023864FF480604FF080083B681B689342CA
:1088200074D145F033F9238EE76A7060013B9BB247
:1088300007EBC30100284A6808BF4FF0000800207A
:10884000A6F80080708022B137F8336048888642ED
:108850002ED8012100224FF6FF73284621712A608D
:10886000AB8002B0BDE8F081E66A4B1E9BB206EB1E
:10887000C30E3046DEF804202AB1BEF802C036F836
:108880003380E0451CD8638E994223D03A4A4B1C72
:108890009BB2B3F5007F00EBC106238615BF4FF4F2
:1088A00080604FF47E704FF080084FF07F08B4E78F
:1088B00000EBC313441C9BB202EBC0024C8091E757
:1088C0000CEBC3130CF101019BB202EBCC02AEF82E
:1088D000021087E7B3F5007FBBD004F10C025B0008
:1088E00096421FFA83F83B6816D024489B6883425F
:1088F0004FEAC80135D1304650F04EFF0028A8D0CD
:108900001D4A218EE062A4F83280C0E70146384655
:10891000984788E7E66AE0E7174A1B6801929342A6
:108920004FEAC80022D145F0B1F8019A002890D052
:10893000D6F800C07168B368D6F80CE0C0F80CE057
:10894000C0F800C041608360D6F810C07169B36997
:10895000D6F81CE0C0F81CE0C0F810C0416183618B
:10896000CFE70A46384631469847C7E701463846BA
:108970009847019ADAE700BF457602003D7602008B
:108980002DE9F04F958E4FF6FF739D4285B014464A
:108990000746884602F10C0B3BD0D36AEA0903EB89
:1089A000C20305F07F025E6836F83230A38606EB1C
:1089B000C2064FF6FF73F380A28E00219A423171F6
:1089C000B1465CD0E36AD10903EBC10302F07F0A30
:1089D000596831F83A30A38601EBCA0100234FF6FB
:1089E000FF700B71C880C8F80010F2807B8883424A
:1089F00000F08380E16AD80901EBC00103F07F0336
:108A0000496801EBC3034846DD807A8005B0BDE8C4
:108A1000F08F118E1568002975D1528E002A00F052
:108A20001F810123E66AC24A23864FF480604FF01B
:108A300080092B681B68934240F00A8145F026F8B4
:108A4000258EE36A7060013DADB203EBC5020028DC
:108A5000516808BF4FF000090020A6F80090708010
:108A600029B133F835305688B34200F297804FF081
:108A7000000901234846237105B0BDE8F08F208E20
:108A800023680193002862D1628E002A00F0EA80F8
:108A90000123D4F82CA0A64A23864FF480604FF01F
:108AA000800B019B1B681B68934240F0D58044F00B
:108AB000EDFF228ED4F82CC0CAF80400013A92B21D
:108AC0000CEBC2030028596808BF4FF0000B0020D0
:108AD000AAF800B0AAF802000029C8D03CF8320079
:108AE000B3F802A05045C2D90AEBC2120AF1010044
:108AF00092B201EBCA01588070E748463D807A8007
:108B000005B0BDE8F08FE36A4A1E92B203EBC20ED5
:108B10001846DEF804602EB1BEF802C033F8329079
:108B2000E14543D8628E914254D0814A4B1C9BB29E
:108B3000B3F5007F00EBC106238615BF4FF48060BC
:108B40004FF47E704FF080094FF07F0971E7E36AC0
:108B5000421E92B203EBC20C9E46DCF804A0BAF1AE
:108B6000000F06D0BCF80210029233F832208A427D
:108B700026D8628E90424AD06D4A431C9BB2B3F510
:108B8000007F0EEBC00A238615BF4FF480604FF4C0
:108B90007E704FF0800B4FF07F0B82E706EBC51520
:108BA000731CADB201EBC606538002E70CEBC21595
:108BB0000CF10103ADB206EBCC06AEF80230F8E6DC
:108BC000029A4B1C01EBC21292B20AEBC101ACF843
:108BD000023003E7B2F5007F3FF449AF52009B45F6
:108BE0001FFA82F940D02A685248966886424FEAB6
:108BF000C90140F09180184650F0CEFD00283FF4A6
:108C000036AF4B4A218EE062A4F832908EE7B2F57F
:108C1000007F3FF42CAF52001FFA82FA019A9B4565
:108C200011684AD0D1F808B0424A93454FEACA01C8
:108C300077D1184650F0B0FD8646BEF1000F3FF4E4
:108C400016AF3B4A208EC4F82CE0A4F832A094E77B
:108C5000014628469847F3E601460198984728E7D9
:108C6000E36ABBE7E36AD6E72968314A0E689642B1
:108C7000CDE901324FEAC9005ED144F007FFDDE9DA
:108C8000013200283FF4F3AED3F800C05E68996863
:108C9000D3F80CE0C0F80CE0C0F800C0466081607A
:108CA000D3F810C05E699969D3F81CE0C0F81CE0E5
:108CB000C0F810C046618161A4E71D4AD1F800B038
:108CC0009345CDE902324FEACA003BD144F0DEFEC3
:108CD000DDE902328646BEF1000F3FF4C8AE1868E7
:108CE0005968D3F808B0D3F80CC0CEF80CC0CEF851
:108CF0000000CEF80410CEF808B018695969D3F80E
:108D000018B0D3F81CC0CEF81CC0CEF81000CEF8B6
:108D10001410CEF818B095E70A4628461946B04711
:108D20006CE70A4601981946D847864685E700BF92
:108D3000457602003D76020001462846B047DDE94F
:108D400001329EE701460198D847DDE902328646A6
:108D5000C1E700BF2DE9F84307464068BD68032D11
:108D6000884600F1080613D85FFA85FC002D77D0FD
:108D70000CF1FF3456FA84F4C31D002213F8011FCE
:108D8000002908BF42F00102A342F7D1002A40D0D7
:108D900000237355D7F80090BE68D9F80830A3B106
:108DA00006F1070C8444DA8896420BD13EB3C21D0B
:108DB000DC1D01E0944522D012F8011F14F8015F78
:108DC000A942F7D01B68002BEDD1B6F5803F7D6836
:108DD000D9F8004034D2236828489B68834206F1C2
:108DE000090140D1284650F0D7FC034643B33A6806
:108DF000DE809168196000219360796002E09A88B2
:108E000001329A800522C8F8003088F80420BDE8B5
:108E1000F883022388F80430037A88F80030BCF124
:108E2000010F08D0437A88F80130BCF1020F02D05C
:108E3000837A88F80230002308F80530BDE8F8830B
:108E400023680F4A5B68934213D02946204698470F
:108E50003A6800239268012189F804101A60FFDE45
:108E600002230B71E7E70A46204629469847034646
:108E7000BCE7284644F024FEEAE700BF3D76020046
:108E8000357602002DE9F04745684DB18368EA88E0
:108E9000934204460E4605D01D440133A3602E7252
:108EA000BDE8F0875B00D0F800905F1CB7F5803F0D
:108EB000D9F8008012D2D8F800201549D2F808A0BD
:108EC0008A4503F10A021CD11146284650F064FC81
:108ED00020B1C780A36860600546DDE7D8F80030A0
:108EE0000C4A5B68934208D1284644F0E9FD012210
:108EF000002389F804206360D2E72946404698475A
:108F0000F5E729464046D0470028E2D1E6E700BF12
:108F10003D7602003576020003792DE9F0470C46D4
:108F2000D907054637D4DA0624D413F0600F1DD0D4
:108F30002E884FF6FF77BE4215D0E36AF20903EBA5
:108F4000C20306F07F09D3F8048008EBC900B246DB
:108F5000C6882146FFF7E0FFA38E28F83930BE42CD
:108F6000A4F834A0E9D14FF0FF332B6000232B711C
:108F7000BDE8F0872A884FF6FF718A4237D0E16A50
:108F8000A68ED00901EBC00102F07F00496821F8EC
:108F90003060A286C9E7A0682A6826680028C2D087
:108FA000824216D0014600680028BCD08242F9D126
:108FB0008288013A92B28280002AB4D103680B60A1
:108FC00033680C4A5B6893420CD144F079FD2B79ED
:108FD000A9E78288013A92B28280002AA3D103686D
:108FE000A360EDE70146304698472B799BE70023C5
:108FF0001B80FFDE357602002DE9F04F89B008AB0B
:1090000003E90300069B0093002B53D01B880193B8
:109010009046079A0292DA0903F07F03DB0004937B
:10902000019B4FF6FF7AD200534503924FF00005A3
:1090300040D0029BD3F82C90039B09EB0302049BC6
:109040005768FB18059335D0DE8800243146CA09DD
:10905000514509EBC20201F07F0004F1010405D083
:10906000536813EBC00301D0D988F0E7AC4221D993
:10907000009B1A79402A12D105B331462C4602E0F2
:10908000013CD1881BD0C1F3CF10514509EBC00082
:1090900001F07F0203D0436813EBC202F0D19C4879
:1090A000414650F061FC002873D0019B534505F107
:1090B0000105BED1002009B0BDE8F08F059A1179F5
:1090C0002029ECD114885445E9D0E20909EBC20209
:1090D00004F07F01546814EBC104E0D00127B4F818
:1090E00006B08FB9D345DAD04FEADB1309EBC303DF
:1090F0000BF07F0B5C6814EBCB04D0D087F001073A
:10910000B4F806B0002FEDD02379042B5DD0052BE9
:109110005FD0022BE6D1204650F049FC0428E1D173
:1091200023786E2BDED16378612BDBD1A3786D2B96
:10913000D8D1E378652BD5D1D345B0D04FEADB1039
:1091400009EBC0000BF07F01406810EBC101A6D015
:109150000979081F012801D90229A0D1002D00F0AA
:10916000CA8030462C4602E0013CD88835D0C0F396
:10917000CF12504509EBC20200F07F0103D05368C3
:1091800013EBC103F0D10020414650F0EDFB002865
:109190008BD1CB46002D00F0B080B0464FF6FF716A
:1091A00003E0013DDA887AD09046C8F3CF138845B2
:1091B0000BEBC30308F07F0203D05B6813EBC20321
:1091C000EFD1012009B0BDE8F08F2468002CA2D1B6
:1091D00088E72468E0880834A0E719460879202841
:1091E000D1D10C885445CED0E00909EBC00004F081
:1091F0007F01446814EBC104C5D0B4F806B08FB940
:10920000D345C0D04FEADB1309EBC3030BF07F0B50
:109210005C6814EBCB04B6D087F00107B4F806B055
:10922000002FEDD02379042B2ED0052B28D0022B34
:10923000E6D1204650F0BBFB0428E1D123786E2B09
:10924000DED16378612BDBD1A3786D2BD8D1E378A5
:10925000652BD5D1D34596D04FEADB1209EBC2027C
:109260000BF07F01546814EBC1003FF419AF027991
:10927000042A11D0052A0BD0022A18BF00200FE7BC
:109280002468E0880834D7E72468002CD1D1B7E7F8
:1092900054F83100083003E754F8310000E7059D29
:1092A0009D421C462CD0019F4FF6FF7107E05B6882
:1092B00003EBC003A34209D03746DE881D46F309FD
:1092C0008E420BEBC30306F07F00F0D10197EA80DA
:1092D0004FF6FF739A4208BFDDE90032029D08BFD6
:1092E0005A8020462946FFF717FEAB8E23800120C7
:1092F000A5F8348066E7059970E7DDF80480059CE1
:10930000009B1E804FF6FF7332460193E0E700BFDB
:10931000F80408002DE9F04F0E46097885B02B2996
:10932000009000F0FD802D2940F0B8807178012078
:1093300001900644A1F13000C0B2092800F2B680C5
:10934000DFF8F893C0B20021002400254FF09938CF
:1093500016F801BF2418ABF13007FFB241EB050549
:109360004FEA850E092F6FEA07024FF0FF334FEAED
:10937000840C4EEA947EF8B24FF0000100F21E8198
:10938000A94508BFA0450BD31CEB040C4EEB050E02
:109390001CEB0C044EEB0E05AB4208BFA242D7D229
:1093A0004FF0000A0023204629460A224FF02CF8ED
:1093B000A946A0461FFA8AF3B9F5200F03F1010A66
:1093C00008BFB8F1000F04460D460FFA8AFAE9D239
:1093D000092F0BD802339B1B06EB030A16F801BFBB
:1093E000ABF13002092A0FFA8AFAF5D9BBF12E0F38
:1093F00000F0B6800BF0DF03452B60D0BBF1000F0F
:1094000056D10AF126034C2B00F2FC80002D08BF38
:10941000B4F5000F80F0F68007EE904ABAF1000F25
:10942000F8EEE77A40F36481BC4B1AF0010F1CBFE1
:1094300093ED007A67EE877A5FEA6A0223D0D0075D
:1094400044BF93ED017A67EE877A5FEAAA021AD0E9
:10945000D10744BF93ED027A67EE877A5FEAEA02AA
:1094600011D0D20744BF93ED037A67EE877A5FEAA3
:109470002A1A08D0BAF1010F0CBF93ED047A93EDCC
:10948000057A67EE877A019B0BB1F1EE677A009A55
:109490000123C2ED027A137010460DE00020019006
:1094A000A1F13000C0B209287FF64AAF2E2953D06F
:1094B000009A00231370104605B0BDE8F08F96F8AF
:1094C00001B0BBF12D0F36D0BBF12B0F00F0F080B7
:1094D000ABF13003DAB2092A06F101068ED80AEBA5
:1094E0000302B2F59A7F00F3D780002706E002EB73
:1094F000400303EB0A02B2F59A7F79DC16F801BF4C
:10950000ABF13002D1B2092903EB8300EFD9002F70
:1095100040F0C7809A44BBF1000F3FF472AFC7E739
:10952000717800200190A1F13000C0B2092806F145
:109530000106BBD804E796F802B0ABF13003DAB20B
:10954000092A06F102063FF659AF0AEB0302B2F50B
:109550009A7F4FDC0127D1E7002400254FF0000A55
:1095600096F801B0ABF13000C0B2092806F101064F
:109570003FF640AF6A4B4FF099329D424FEA85016A
:1095800008BF94424FEA840741EA94710ED23F1912
:1095900045EB010117EB070841EB01090AF1FF3A1E
:1095A00018EB00040FFA8AFA49F1000516F801BF1A
:1095B000ABF13000C0B20928DFD91BE7BBF1000FC7
:1095C00040F0D280019B8BB1B5F1004F08BF012C58
:1095D000BFF4E6AE644265EB45050223009A1046EF
:1095E000C2E90245137005B0BDE8F08F0323F5E72B
:1095F000002F51D000994FF00042012308468A60A5
:109600000B7059E7204629464EF022FABAF1000FB6
:1096100079DD444C1AF0010F7AD15FEA6A032DD04C
:10962000DF0700F18D805FEAAA0327D0DE0700F193
:109630008C805FEAEA0321D0DD0700F18B805FEACE
:109640002A131BD0DA0700F18A805FEA6A1315D06B
:10965000DB073ED45FEAAA1310D0DF073ED45FEAEF
:10966000EA130BD0DE073ED45FEA2A2306D0DD07DB
:1096700044D45FEA5A231CBF2B490020019B13B13D
:1096800001F100431946009A0423C2E90201104681
:10969000137005B0BDE8F08F019B0020BBB12349DA
:1096A000F1E7AAEB030ABBF1000F3FF4AAAEFFE615
:1096B00096F802B0ABF13003DAB2092A06F10206DD
:1096C0007FF60DAFBBF1000F3FF49BAEF0E61849FB
:1096D000D9E7D4E90A234EF0F1F9BBE7D4E90C232A
:1096E0004EF0ECF9BBE7D4E90E234EF0E7F9BBE707
:1096F000CAF1000A3FF4C7AE0E4B96E6D4E9102338
:109700004EF0DCF9B5E7CAF1000AB7D00A4C81E7A0
:10971000D4E900234EF0D2F97FE700BF8CEA0700BE
:1097200099990100F0EA07000000F87F0000F0FFBF
:109730000000F07F74EA0700A8EA070099999919D8
:10974000D4E902234EF0BAF96DE7D4E904234EF0D0
:10975000B5F96EE7D4E906234EF0B0F96FE7D4E926
:1097600008234EF0ABF970E7B5F5801F08BF002C59
:10977000BFF416AE4FF0000A38E600BF10B58AB04D
:1097800000240A460123014601A8ADF804408DF8E3
:1097900006402EF021FE08B90AB010BD01A82FF036
:1097A00073FF0AB010BD00BF70B53C4C23686BB1AD
:1097B0005A7A3B4D012A0CBF0126002629D0394A8E
:1097C0009B6F11682E7099422CDB70BD364C20685F
:1097D00000283BD1354C20680028F6D029F0EAFB60
:1097E00000284FD0206829F0E1FB2EF0B9FA304A6A
:1097F0001368B3F57A7FE8DA0028E6D02D490C68C3
:10980000A042E2D02C4C086044F8230001331360DE
:1098100070BD2A78002AD2D144F010F9274A236873
:109820001060CCE7136044F009F9214A234913681A
:109830000860B3F57A7FC8DA21681E48C96F1E4CEC
:109840000160581C44F82310106070BD2DF046FDD7
:109850001B4B1A689042B8DD154D186044F0EEF8C5
:109860002B68164AB3F57A7F1060AEDA2068114C87
:109870002DF04EFD2B68104920605A1C41F8230042
:109880002A6070BD206829F07FFB00289DD02068E9
:1098900029F07AFB2CF0EEFCA9E700BFA01C012008
:1098A000BC1C0120941C0120903F0120341B01208E
:1098B0009C2E0120AC2E0120FC1E0120643B0120C7
:1098C0008C3F0120074B1B784BB1074B1B6833B112
:1098D000064B1B781BB1064B187819F047B80020CF
:1098E000704700BF613B0120A01C0120981C012093
:1098F000A41C012010B5064C206838B129F05AFB91
:1099000020B92068BDE8104029F03EBB002010BD02
:10991000341B0120F0B55A4B5A4C93F8322093F87F
:10992000300093F82F1093F8315095B0049293F8CB
:109930002E200092CDE90110039506AD9B8D524A71
:10994000284618214FF040FF2368002B34D04F4B9E
:10995000186818F08DFA226806464D484D490C9556
:1099600000234D4D0E96CDE910330F9013930D95B6
:109970001291002A00F08280D2F8883010930023E0
:10998000434C1193454A464B126800924FF4806154
:109990000CAA4448139417F06FFF002142482EF0A0
:1099A00073FF404940484FF480622FF037F93E483A
:1099B0002FF0D0F815B0F0BD3C4E3368002B2AD004
:1099C0003B4B3C4918783C4A002808BF0B460E9395
:1099D0000023CDE9103330490F922E4A0C95139392
:1099E0000D911292306800282BD02DF095FC25683F
:1099F0001090002DC3D13068E0B12DF01DFD23681B
:109A0000119033B932682D4C2D4B002A08BF1C46EB
:109A1000B8E71F4CB6E72B4F3868C8B129F09EFA5B
:109A2000294B06463868002E08BF1E4629F0C6FAA4
:109A3000226893E7FFF75EFF68B12CF099FC23687A
:109A4000DEE7FFF757FF48B12CF018FC2568CFE799
:109A50001E4A1D4BBBE723682846D1E7194D2868ED
:109A600040B129F0A7FA28B1286829F09FFA18B167
:109A70002EF078F92568BBE72568B9E70B4EB1E70A
:109A8000701E0120A01C0120B8D20700AC6200208B
:109A900098D2070004630020246300209C2E01203C
:109AA000FC1E012078FD0020801B0120903F01203A
:109AB0007C3F0120B0D20700B0190120A0D20700DE
:109AC000A8D20700341B012088D20700F804080040
:109AD00010B5064C206838B129F06CFA20B1206826
:109AE000BDE8104029F062BA002010BD341B0120EF
:109AF000154B1B6853B15A7A022A05D0986F00287B
:109B0000D4BF002001207047012070470F4B186818
:109B100008B12DF009BC10B5FFF7ECFE18B1BDE897
:109B200010402CF08BBB0A4C206850B129F042FA4F
:109B300038B1206829F03AFA18B1BDE810402EF08B
:109B4000F3B8002010BD00BFA01C0120903F0120F1
:109B5000341B0120154B1B680BB100207047144BC0
:109B6000186808B12DF0E4BB10B5124C206850B154
:109B700029F020FA48B9206829F006FA28B1BDE892
:109B800010402CF05FBB002010BD20680028FAD0E8
:109B900029F010FA0028F6D0206829F007FA0028EA
:109BA000F1D0BDE810402EF0C3B800BFA01C0120CA
:109BB000903F0120341B0120154B1B680BB1986F9F
:109BC0007047144B186808B12DF088BB10B5124CC3
:109BD000206850B129F0EEF948B9206829F0D4F98D
:109BE00028B1BDE810402CF057BB002010BD206804
:109BF0000028FAD029F0DEF90028F6D0206829F0F4
:109C0000D5F90028F1D0BDE810402EF095B800BF7E
:109C1000A01C0120903F0120341B012030B5234BB4
:109C20001C6885B03CB3224B1B783BB9002213461D
:109C3000204605B0BDE8304018F0E2BC1D4991F85F
:109C4000322091F83130888D8D8E0295CDE9003229
:109C500000F5FA6091F8303091F82F2091F82E102D
:109C600080B218F07DFF02460B46204605B0BDE8E5
:109C7000304018F0C5BC104B186820B105B0BDE8E5
:109C800030402DF02FBBFFF735FE20B105B0BDE809
:109C900030402CF0DBBAFFF71BFF20B105B0BDE868
:109CA00030402EF04BB805B030BD00BFA01C0120E5
:109CB000BC1E0120701E0120903F0120104B1B682C
:109CC0000BB1D86F70470F4B186808B12DF020BB4F
:109CD00010B5FFF70FFE18B1BDE810402CF0CABA5E
:109CE000094C206850B129F065F938B1206829F095
:109CF0005DF918B1BDE810402EF032B8002010BD5B
:109D0000A01C0120903F0120341B0120114B1B6837
:109D100013B1D3F8880070470F4B186808B12DF0C5
:109D2000FBBA10B5FFF7E6FD18B1BDE810402CF006
:109D3000A5BA0A4C206850B129F03CF938B1206826
:109D400029F034F918B1BDE810402EF00BB800200E
:109D500010BD00BFA01C0120903F0120341B01203A
:109D6000164B1B6813B19FED160A7047154B186808
:109D700008B12DF0F1BA10B5134C206850B129F09C
:109D800019F950B9206829F0FFF830B1BDE810404A
:109D90002CF086BA9FED0A0A10BD20680028F9D081
:109DA00029F008F90028F5D0206829F0FFF80028EC
:109DB000F0D0BDE810402DF0D9BF00BFA01C01209D
:109DC00000000000903F0120341B0120194B1B684C
:109DD0000BB100207047184B10B50446186858B1F5
:109DE000012C17D0022C19D0032C01D0002010BD5B
:109DF000BDE810402DF010BBFFF77CFD0028F5D02A
:109E0000012C0FD0022C11D0032CEFD1BDE8104053
:109E10002CF0AABABDE810402DF0F6BABDE810400B
:109E20002DF0F6BABDE810402CF096BABDE810400F
:109E30002CF096BAA01C0120903F0120194B1B6802
:109E40000BB100207047184B10B50446186858B184
:109E5000012C17D0022C19D0032C01D0002010BDEA
:109E6000BDE810402DF0E4BAFFF744FD0028F5D01E
:109E7000012C0FD0022C11D0032CEFD1BDE81040E3
:109E80002CF066BABDE810402DF0CABABDE810400B
:109E90002DF0CABABDE810402CF052BABDE810400F
:109EA0002CF052BAA01C0120903F01202DE9F04176
:109EB000604B196800298AB02DDD5F4B00930129A2
:109EC00029D003F1A8020229019224D003F5A87237
:109ED000032902921FD003F5FC72042903921AD0C1
:109EE00003F528720529049215D003F5527206294C
:109EF000059210D003F57C72072906920BD003F56A
:109F000093620829079206D003F5A86309290893EC
:109F10001CBFA833099368461CF028F9061E5BDBBA
:109F2000464FA82303FB067393F89040002C4FD0B4
:109F3000434C206818B146F0D3F800232360414D0C
:109F4000286818B146F0CCF800232B604FF44F502E
:109F500046F0C2F83C4BA82404FB067493ED000BBA
:109F6000002180462CF030FA94ED063B94ED042B52
:109F700094ED021B94ED000B4046C5F800802CF0D8
:109F800091FF94ED223B94ED202B94ED1E1B94ED5C
:109F90001C0B28682DF000F894F84030002B3DD1C0
:109FA000A82303FB067393F868205ABB28682DF09A
:109FB00077F928682DF062F920B128682DF062F950
:109FC000044670B9286808B146F08AF800242C606D
:109FD00020460AB0BDE8F081002420460AB0BDE862
:109FE000F0811A4D1A49C6EB0616314428460E2256
:109FF0004FF0F7FC174A00232046AB7313600AB0FA
:10A00000BDE8F08193ED183B93ED162B93ED141BF7
:10A0100093ED120B28682DF0B5F8C7E794ED0E3BD1
:10A0200094ED0C2B94ED0A1B94ED080B28682DF091
:10A030002FF8B5E7583B0120E140012050400120B6
:10A04000341B0120903F0120986200207C3F0120BA
:10A05000A47201208C3F01201D491E4A70B50123C6
:10A060001D4D0B701370044643F0E8FC1B491C4A5D
:10A070002B680C70106003B170BD1A4B1B68002B6D
:10A08000FAD1194B1C68002CF6D1184E184A194BFE
:10A09000C6F8884347F26000C6E9002346F01CF882
:10A0A000154B314693ED000B2246044628F0E8FBA1
:10A0B000124B2C6093ED000A204628F089FF104BCC
:10A0C000286893ED000ABDE8704028F097BF00BFF4
:10A0D000613B0120BD1C0120341B0120623B01209B
:10A0E000643B0120903F0120A01C012000160120AC
:10A0F000D8D20700F80408009862002060630020AE
:10A100005C630020F8B52A4D2B6806460C4623B147
:10A11000184645F0E5FF00232B60264D286818B14E
:10A1200045F0DEFF00232B60234F3D684DB33146E1
:10A13000284617F0A9FE3D68204E2D68204B214887
:10A140002149356000251D60204A214B05700D60B6
:10A1500000200021C3E9000114704CB91D4B0120FF
:10A160001870FFF779FF3068BDE8F84017F074BE4B
:10A1700043F064FC0146184818F066FA3B681D720B
:10A18000ECE7982045F0A8FF9822054600214EF004
:10A1900025FC002301223D602A81AB7285F8303016
:10A1A00085F84C30A5F8643085F86C30BFE700BF07
:10A1B000341B0120903F0120A01C0120AC62002034
:10A1C000941C0120BC1C0120901C0120981C012023
:10A1D000881C0120E43F0120A41C0120F8B5334D68
:10A1E000334C2B78002B57D0237C002B52D1314C91
:10A1F00045F028FD206801211BF014FC08B1002364
:10A2000023602D4E45F028FD2C4B306800241C7037
:10A210002C7010B145F064FF3460294C206818B1EF
:10A2200045F05EFF00232360264D274A274B286810
:10A23000002414701C6010B145F052FF2C60244AB9
:10A240002448254D254B2649264E002414700460D1
:10A25000254A26482C701C70254D264B0C70147016
:10A2600004602549254A26482C7034601C60254D21
:10A270000C604FF0FF33002600271360C0E9006731
:10A28000214621482B604FF47A624EF0A7FB1F4B0A
:10A290001C60F8BDFFF73EFB237C002BA7D01C48B9
:10A2A0002EF058FC1A482DF061FEA0E7623F012015
:10A2B000701B0120681B0120341B0120BD1C0120E4
:10A2C000903F0120A01C01207C3F01208C3F0120F9
:10A2D000BC1C0120901C0120981C0120613B012026
:10A2E000E43F0120941C0120623B0120F41E012068
:10A2F000F81E0120AC2E01209C2E0120AC62002013
:10A30000881C0120A4620020FC1E0120E03F0120E7
:10A31000801B0120714B1B78002B00F0CF802DE9B2
:10A32000F0416F4C23688CB013B16E4B1D7815B99A
:10A330000CB0BDE8F0810023CDE90633CDE9083348
:10A34000CDE90A33684E694F43F078FB2168684BCA
:10A350003268D3F800C04B7A896F12790A91A3F161
:10A360000101A3F10203B3FA83F35B09B1FA81F1AE
:10A3700049098DF8253097F8283006908DF824107B
:10A38000CDF820C08DF81C3032B95A4B1B681A79B1
:10A3900012B9594B1B681A79584B8DF82C2093F839
:10A3A0000080B8F1000F05D0554B1B68002B40F022
:10A3B00092809846534B544A1B7812688DF82D8032
:10A3C0000BB1002A7BD1514B514A1B78126813B153
:10A3D000002A74D113464F4D8DF82E3006A9284619
:10A3E00018F04EF92B7822680590A3F10603B3FA12
:10A3F00083F35B0910F47F4F13721DD0464B1B781B
:10A40000002B60D0B88D97F8322097F83130B98E94
:10A41000029100F5FA60CDE9003297F82E1097F816
:10A42000303097F82F2080B218F09AFB3B4B3C4A13
:10A4300018600020596010609DF81630A3B12168A3
:10A44000384B364C0022D1E916014DF081F94EF01F
:10A450001FF8D4E900458D4208BF8442304B0246C4
:10A4600034BF021B00221A609DF8143043B1214A08
:10A47000214B116830681A68002303710B71137146
:10A480009DF81730002B3FF453AF274CFFF7A6FE83
:10A49000236801331AD1254916480B68164A056806
:10A4A0003668106803F59C53083300220B604FF0A8
:10A4B000FF33327123602A71027139E7704743F02C
:10A4C000BDFA2B4687E700200146AFE743F0B6FA16
:10A4D000174B1860DFE743F0B1FA6BE7613B0120EF
:10A4E000A01C0120981C01205C610020701E01202E
:10A4F000F01E01206061002064610020041B012027
:10A50000081B0120FD1A0120001B01200C1B01204B
:10A51000101B0120A41C0120BC1E0120881C01204E
:10A52000901C01200000E03FA0620020FC1B0120E5
:10A53000E038012070B5174C236803B170BD164B8D
:10A540001B68002BFAD1154B1D68002DF6D1144E57
:10A55000144A154BC6F8885347F26000C6E9002339
:10A5600045F0BAFD114B314693ED000B2A460546E6
:10A5700028F086F90E4B256093ED000A284628F056
:10A5800027FD0C4B206893ED000ABDE8704028F0D1
:10A5900035BD00BF341B0120903F0120A01C0120CD
:10A5A00000160120D8D20700F804080098620020A5
:10A5B000606300205C6300203A4B1B78002B4FD077
:10A5C00010B5394C2378013B012B86B049D90022C4
:10A5D000364B37491B783748096800788DF80420D6
:10A5E000A3F10403B3FA83F35B098DF805308DF80A
:10A5F0000600002946D0304B1B68002BD4BF002337
:10A6000001232E4A8DF8073001A91368029303A88D
:10A6100018F06AFD9DF80C4004BB43F00FFA284A7D
:10A62000284B1268801A984218D99DF80D3023BB28
:10A63000254B1A78002A2ED043F000FA234A049BB7
:10A640001268801A984209D39DF8143013B1204B38
:10A6500001221A70FFF7C2FDFDF78AFB06B010BD9C
:10A660007047154B186818F039FD80B92278013A07
:10A67000012A8CBF00220122AAE7134A134B14704F
:10A680001C60EBE7134B1B68002BB4D1B9E7032325
:10A69000237000229CE701221A7043F0CFF90B4B84
:10A6A0001860DBE7613B0120623B012030F80020AD
:10A6B000903F0120BD1E0120983F0120F01E012087
:10A6C000643B01201FBF0200F81E0120F41E012080
:10A6D00033A20020A01C012038B5234D2B68013384
:10A6E0003BD1224B1B78002B37D1214B21491B68D2
:10A6F000214A9B680C681268204992680868191BF7
:10A700000029C8BF1C46111B83680029C8BF144616
:10A710001A1B002AC8BF1C4643F090F940F6B73315
:10A72000001B984219D9164B1B68B3F5FA7F15DC4C
:10A73000144B93ED007AF2EE047AB4EEE77AF1EE80
:10A7400010FA0ADB0220FFF787FC05230E4A2B6074
:10A75000136803F59C530833136038BD0320FFF7DB
:10A760007BFC0623F2E700BFA0620020041A012050
:10A770005C610020E03801206061002064610020FD
:10A78000983F0120F01E0120FC1B012030B5374C02
:10A7900023680F33042B87B001D907B030BD43F0D5
:10A7A0004DF9334D0146284616F04EFB0028F4D0F3
:10A7B000304A314B126819688A4204D02F4991F807
:10A7C000280000282FD143F039F90146284816F017
:10A7D0003BFB0128E1D043F031F90146244816F053
:10A7E00063FB2A78042A11D821686FF00A039B1AA8
:10A7F0008B4232D0224A00211160224A2360136822
:10A8000003F59C530833136007B030BD2368013350
:10A8100023D01B4B00221A6043F010F91A4A4FF064
:10A82000FF331060E9E791ED000B91ED021B91ED14
:10A83000082A1A608DED040B8DED001B8DED032AA7
:10A8400043F0FCF89DED001B01469DED040B9DEDD2
:10A85000032A284616F0B4FAB5E70A4A136803F546
:10A860009C530833136007B030BD00BFA0620020C6
:10A8700098610020C01E0120201B0120701E0120B5
:10A88000EC380120FC1B0120E038012070B51C4D84
:10A890008AB0002428460894CDE90244CDE9044456
:10A8A000CDE90644CDF8234036F0EEF902462846BD
:10A8B000019236F0EBF91F26019A014602A84EF0EC
:10A8C00065F802A93246284636F0E2F93C352146C1
:10A8D000324602A84EF082F8284636F0D5F90190AB
:10A8E000284636F0D3F9019A014602A84EF04EF8F8
:10A8F000324602A9284636F0CBF90AB070BD00BF37
:10A90000948A012070B52F4B1C788AB0002C35D169
:10A910002D4E054645F096F9306803211BF06AF884
:10A9200048B945F099F9294929483368042236F095
:10A93000DFFF0AB070BD032130681BF06BF8306098
:10A9400045F08AF92349ADF8044001A823462A4678
:10A950008DF806402DF040FDB8B11E49ADF8044019
:10A960002A46012301A88DF806402DF035FDF0B9E7
:10A9700019491748072236F0BBFF0BE0134914486A
:10A98000042236F0B5FF0AB070BD14491048092200
:10A9900036F0AEFF45F056F9306803211BF042F85F
:10A9A00008B10023336045F057F90AB070BD01A823
:10A9B0002EF06AFE0028DBD009490548072236F050
:10A9C00097FFE7E7421A0120681B01204CD80700D7
:10A9D000141E0120EC660020E0D20700F0D2070030
:10A9E000E8D207002DE9F0411E4D2B784BB901212B
:10A9F0000C2046F001FBBDE8F04101210C2046F09F
:10AA00007FBB1948002136F07DF9174836F040FA2F
:10AA1000164839F073F9E0B9144EDFF85880144F36
:10AA20000524304639F06AF9034632202BB1C8F8C4
:10AA3000007643F00FF8013CF3D12B78002BD6D0F1
:10AA40000A48002139F030F90848002139F030F97E
:10AA5000CDE7064839F086F90146044839F06CF92B
:10AA6000DAE700BF401A0120948A012054840120B3
:10AA70003546526E00000140124B70B50646A3FBEE
:10AA800006239C0921460A220F48104D42F008FA7D
:10AA90000F490D4841F0B2FF4FF47A7303FB146481
:10AAA000A5FB0435632C4FEAD50506D9294606488F
:10AAB000BDE870400A2242F0F3B90649024841F06D
:10AAC0009DFFF3E7D34D6210A41B0120CDCCCCCC6D
:10AAD0004CE50700E414080038B510EE105A1C4984
:10AAE00004461C4841F08AFF28464CF08FFF41EC99
:10AAF000100B1848012141F0E1FF04B938BD164D93
:10AB000016491448A5FB0435AD0941F077FF2946E5
:10AB10000A22104842F0C4F911490E4841F06EFF74
:10AB2000104B4FF47A7202FB1544A3FB0435632CDF
:10AB30004FEAD50506D929460648BDE838400A221D
:10AB400042F0AEB90849034841F058FFF3E700BFAF
:10AB5000FCD20700A41B0120D34D621004D30700D0
:10AB60004CE50700CDCCCCCCE41408002DE9F0472F
:10AB7000544E554D3768D7F80080404646F0DEFA0F
:10AB8000034645F0010503244FF4FA405BB9012C5C
:10AB900074D0A847404646F0D1FA0346013C4FF432
:10ABA000FA40002BF3D001237B71484F464DD7F874
:10ABB0000080D8F80090484646F0C0FA034645F0B9
:10ABC000010503244FF4FA405BB9012C66D0A84775
:10ABD000484646F0B3FA0346013C4FF4FA40002BD6
:10ABE000F3D0012388F80530DFF8EC90364DD9F822
:10ABF0000080D8F800A0504646F0A0FA034645F081
:10AC0000010503244FF4FA405BB9012C22D0A84778
:10AC1000504646F093FA0346013C4FF4FA40002BAD
:10AC2000F3D0012388F8053033681B793BB1284AFB
:10AC3000136803F59C5308331360BDE8F0873B6845
:10AC40001B79002BF3D1D9F800301B79002BEED102
:10AC5000BDE8F08742F0F2FE98F80530002BE3D013
:10AC60001C4BD8F808201B68801A9842DCD342F0AD
:10AC7000E5FEA8F80440C8F80800D5E742F0DEFE7B
:10AC80007B79002B91D0134BBA681B68801A9842CD
:10AC90008BD342F0D3FEBC80B86086E742F0CEFE94
:10ACA00098F80530002B9FD00A4BD8F808201B6875
:10ACB000801A984298D342F0C1FEA8F80440C8F820
:10ACC000080091E75C61002050F0070060610020FF
:10ACD000FC1B01205061002064610020424B1B6876
:10ACE0002DE9F0411E68414D304646F027FA0346F3
:10ACF00045F0010503244FF4FA405BB9012C0BD059
:10AD0000A847304646F01AFA0346013C4FF4FA4091
:10AD1000002BF3D0002600E02646354B334D1B6850
:10AD20001F68384646F00AFA034645F00105032439
:10AD30004FF4FA405BB9012C0BD0A847384646F0D7
:10AD4000FDF90346013C4FF4FA40002BF3D00025F7
:10AD500000E02546274B254F1B68D3F8008040466E
:10AD600046F0ECF9034647F0010703244FF4FA409C
:10AD70005BB9012C0AD0B847404646F0DFF90346DC
:10AD8000013C4FF4FA40002BF3D000249EB11A4E40
:10AD90003378DBB165B1194D2B78F3B124B1184C80
:10ADA00023785BB1BDE8F081154B1C70BDE8F081E4
:10ADB000124B1D70F2E7104B1E70EBE742F03EFEA7
:10ADC000104A012310602370BDE8F08142F036FE86
:10ADD0000D4A012310603370DCE742F02FFE0B4A6E
:10ADE000012310602B70D9E75C61002050F0070050
:10ADF0006061002064610020FD1A0120041B012015
:10AE00000C1B0120101B0120001B0120081B01202E
:10AE100038B50F4A0F4B126819688A4215D00E498F
:10AE20001A6000230B6001220C4C0D4B20460025BC
:10AE30001A70E5763AF062FF204601213AF08AFC6A
:10AE40004FF00113C4E9045338BD0022ECE700BF02
:10AE5000A0620020B42E0120EC380120A41B0120A8
:10AE6000683B012038B504460130094D07D0094A36
:10AE70002C60136803F59C530833136038BD2B68AE
:10AE80000133F4D042F0DAFD034B1860EFE700BF66
:10AE9000A0620020FC1B0120E03801201A4A136840
:10AEA0000E2B28D00D2B15D0083312D0174B184974
:10AEB00093ED007A0B68F1EE047AB4EEE77AF1EEE6
:10AEC00010FA03F59C5394BF0B200A20083310603E
:10AED0000B6070470F4B10491A680B68013A9A4291
:10AEE0000B4A14BF013300230B60136803F59C5316
:10AEF00008331360704706490B6803F59C53083309
:10AF00005A200B6010607047A0620020F01E0120E4
:10AF1000FC1B0120F46200206C1B0120F8B51B4DC6
:10AF20001B4F1C4E1C4C1D491D4A1E4800233B70E4
:10AF300033702B701C4D23700B701C4C13701C490C
:10AF40001C4A2B701C4D236013600B801B4C1C494A
:10AF5000027C2B604FF0FF3525600B8092B9194CB5
:10AF6000237803B9F8BD184D44F06CFE286803211E
:10AF70001AF058FD08B100232B6044F06DFE002349
:10AF80002370F8BD10302CF0F1FFE8E7ED7C0020D5
:10AF9000ADE700201A7C00201A7E0020197E0020D8
:10AFA000197C002028E70020ACE7002078F800207A
:10AFB0007CF80020F07C0020C09E0020B8600020BB
:10AFC000E46B002006E80020681B01200378462B74
:10AFD00001D00020704710B54378572B044627D185
:10AFE000144908224EF0EBFC08B9012010BD1249AB
:10AFF000062220464EF0E3FC0028F6D00F492046FA
:10B000004EF0B2FC0028F0D00D4920464EF0ACFCCA
:10B010000028EAD00B4920464EF0A6FC0028E4D0D8
:10B02000094920464EF0A0FCB0FA80F0400910BD5E
:10B03000002010BD0CD3070018D3070020D3070051
:10B0400028D3070030D3070038D307002DE9F04399
:10B0500062498DB0082204464EF0B1FC00284CD164
:10B060005F4F3B7803F0FF06002B51D10834204698
:10B070002C214EF06CFC00284AD000F10109484612
:10B080002C214EF064FC0546002841D020460A22BF
:10B0900031464FF061FCA5EB0903082B80464AD1ED
:10B0A000D9F80000D9F8041002AB03C302A801A923
:10B0B0008DF8106016F0E4FA00283CD008F1FF3358
:10B0C000B3F5CC2F56D26878013590B1DFF85C919A
:10B0D00073264FF04BFC044630464FF047FC844249
:10B0E00007D115F8010F00285DD019F8016B002E6B
:10B0F000EFD13C48FCF774FA0DE03B4906222046AC
:10B100004EF05DFC50B9364B1B78012BDDB218D0E8
:10B110003648FCF765FA0DB0BDE8F08334492046A7
:10B120004EF022FCC8B92E4B1B78022BF0D1314BCC
:10B1300001221A70EFE73048FCF752FA0DB0BDE873
:10B14000F08301460A22A01D4FF006FC2B4B1B6822
:10B1500083420FD12A4B1D70DDE72A4920464EF06D
:10B1600003FC68B91E4B1B78032BD1D1264B01225F
:10B170001A70D0E72548FCF733FA0DB0BDE8F0832C
:10B18000234920464EF0F0FB48B1224920464EF0BC
:10B19000EBFB0028BFD1204B01221A70BBE71F4BED
:10B1A00001221A70B7E799F80030002BA1D1134B98
:10B1B0001B4A0198C3F8008005A901233B70106069
:10B1C00016F028FA174A05AB08A810214EF0FCFA31
:10B1D00008A982B2144836F08BFB9CE70CD3070019
:10B1E000ADE7002054D3070018D3070040D3070071
:10B1F00020D30700ED7C002048D307001C7E0020F0
:10B200001A7C002028D307001A7E00204CD30700A8
:10B2100030D3070038D30700197C0020197E0020A6
:10B22000F47C00205CD30700141E012069D30700C2
:10B2300083490978012900D070472DE9F0411C4667
:10B240009CB0804B1546CEB2412200210BA81E7047
:10B250004DF0C4FB402C2246294628BF40220BA8B3
:10B260004DF094FB0BA84EF0A2FB431E70B10BAA4D
:10B27000754F1A4412F801190A39C9B227FA01F0B8
:10B2800016296FEA000003F1FF3310D96F4F3B78A6
:10B29000BBB16F490BA805224EF091FB60BB062C99
:10B2A0002AD86C4B01221A701CB0BDE8F08110F056
:10B2B0000100EBD1591C5070DCD1644F3B78002B5E
:10B2C000E7D1DFF8E88198F80030022B73D0402CEA
:10B2D00000F28280604904220BA84EF070FBB0B9E6
:10B2E0005E4C237803F0FF05002B4BD05C495D4892
:10B2F000042236F0FDFAD7E75B4E338814FA83F365
:10B30000B3F5005F49DD594B01221A70CCE758496B
:10B3100004220BA84EF053FBD8B1564907220BA8C4
:10B320004EF04DFB002840F0C7809DF83330202BB5
:10B330000DF1330003D110F8013F202BFBD0182171
:10B3400017F018FB98B94C494C48092236F0D0FA4E
:10B35000AAE79DF83030202B0CA803D110F8013F4C
:10B36000202BFBD0182117F005FB002834D03B4CD4
:10B37000237803F0FF052BB139494048042236F009
:10B38000B7FA91E73E4B40220BA918464EF029FB35
:10B39000012280F84050227086E73A4B30882946D7
:10B3A00013FA80F022464DF0F1FA338814FA83F351
:10B3B0009BB2338078E7082C14D833490BA84EF0A1
:10B3C000D3FA20B131490BA84EF0CEFA50B921463C
:10B3D0000BA8FFF73BFE67E72D492848052236F00A
:10B3E00087FA61E798F80030022B7FF45DAF294BB4
:10B3F0001A7802F0FF00002A7FF456AFDFF8B08021
:10B40000254AD8F8007012682744974200F2C48099
:10B41000224A234ED2F800C0318814FA81F1B1F5E6
:10B42000805F40F2BF80DFF88CC0DCF80010013193
:10B4300000F0CA801B4A1C49116001221A7033E7D0
:10B44000411A01208CC200200900400080A2002087
:10B4500070D30700E1C6002088D30700187E0020C3
:10B460004CD807004C1D012084C200201DA20020E2
:10B4700090D3070098D30700F0D20700141E0120D4
:10B48000AC7C002084A2002020D3070030D307002A
:10B4900080D30700ACE700201C7E002078F8002055
:10B4A0007CF80020F07C002078D30700ADE7002076
:10B4B000C09E0020B8600020A7490BA84EF054FAA7
:10B4C00000285CD0A54905220BA84EF078FA002888
:10B4D00055D0A34905220BA84EF071FA00284ED092
:10B4E000A0490BA84EF040FA002848D09E490BA86E
:10B4F0004EF03AFA00287AD09C490BA84EF034FA64
:10B50000002874D09A4905220BA84EF058FA00285A
:10B5100000F0AA80974906220BA84EF050FA0028A6
:10B5200000F0A280944905220BA84EF048FA0028AA
:10B5300000F0CD80914906220BA84EF040FA002879
:10B5400000F0C5808E4905220BA84EF038FA00287D
:10B5500000F09D808B4906220BA84EF030FA00289F
:10B5600000F0958088490BA84EF0FEF900284BD0DA
:10B570000BA8FFF72BFD00283FF496AE27E7834C7E
:10B58000237803F0FF050BB9814BFCE68149824823
:10B59000052236F0ADF987E6804A81491160012223
:10B5A0001A7081E67F4B03EB0C333088294613FA7F
:10B5B00080F022464DF0EAF93388C8F8007014FA9A
:10B5C00083F39BB233806FE63188DFF818E2754B66
:10B5D00089B2AEF800101168CCF80010116881F043
:10B5E000010111603080126803EB0233DDE76E4C1D
:10B5F000237803F0FF05002B3FF4C4AE6B49664887
:10B60000092236F075F94FE6694B18684CF0FEF9DF
:10B6100003AE04460D4645EC104B32460221042091
:10B6200042F0F6F948A3D3E90023204629464CF01E
:10B630008DF847A3D3E900234CF040FA4CF0EEFC20
:10B640006428A8BF642020EAE0735A4A00961821B3
:10B6500005A84EF0B9F805A84EF0A9F905A982B2DF
:10B660004D4836F045F91FE69DF82D30532B0CBFA1
:10B67000062005200BAB1844182117F07BF9002891
:10B68000B5D14D4944480D2236F032F90CE64B4D08
:10B690002B7803F0FF07002BB0D19DF82D30532BF2
:10B6A0003ED00DF131042046182117F063F900282F
:10B6B000E7D021463E46424B424C1822184626709F
:10B6C0004EF08FF90021012201762A70ECE53B78DB
:10B6D000002B93D13C4B1D78002D8FD19DF82D3040
:10B6E000532B27D00DF131042046182117F042F9D1
:10B6F0000028C6D021462E46344C354B354D1E70A1
:10B70000182220464EF06DF9334E34483449002358
:10B710000122338023762B7003700A703A70C3E5E0
:10B720000DF132042046182117F024F90028A8D082
:10B730002146C0E70DF132042046182117F01AF90E
:10B7400000289ED02146D7E76666666666660A4090
:10B75000721CC7711CC75B40A0D30700A8D30700A9
:10B76000B0D30700B8D30700C8D30700D0D3070071
:10B77000E4D30700ECD3070004D407000CD407007F
:10B7800014D407001CD4070024D40700A1C2002051
:10B7900034A20020C0D30700141E0120F07C00203A
:10B7A0004CD3070004C70020187E0020D8D3070020
:10B7B000A42E01202CD40700F4D30700A4C6002037
:10B7C000C8C60020CE9E0020421A0120E4C60020F8
:10B7D000CF9E00201DA2002084C20020E1C60020D0
:10B7E0001EA20020E46B002008B5082209490A487F
:10B7F00036F07EF8FFF792FBC82042F02BF9FF21CC
:10B800000020FBF777FD57210020FBF771FDFBF7C8
:10B8100059FD00BF38D40700141E0120124B1349F4
:10B820000122002030B45A600325DA600424C3F8F2
:10B83000040541F28830C3F80855C3F810454FF4A9
:10B840008035C3F8400560244FF08060C3F80022C3
:10B85000C3F8045381F81A43C1F880010860044911
:10B8600030BC0A701A60704700A0014000E100E09F
:10B87000317E002070B5304C304D314882B017F029
:10B880009FF840F24C43032201212E48C4F8005691
:10B8900025F0B4F82C4BC4F8005640F24C46197809
:10B8A000284840F24C43032225F042FE334603224F
:10B8B00004212448C4F8005625F074F9C4F8005651
:10B8C0000323002201211F48009625F0ADF9C4F89A
:10B8D00000560323012200211A48009625F0A4F9FE
:10B8E000C4F800560323022200211648009625F0D2
:10B8F0009BF903231A46C4F800560021114800960C
:10B9000025F092F9C4F80056032300210D48009653
:10B91000062225F089F90D4BC4F80056197809B1B3
:10B9200002B070BD33460322064825F0A1FCC4F8DE
:10B93000005602B070BD00BF000001403546526E97
:10B94000207E0020F0380120B0620020B16200208B
:10B950004FF0102310B5D3F80C4214F0010451D16C
:10B9600001211F2045F048FB21461F2045F0C8FB60
:10B97000344B1B78002B3DD0334B1B68002B13DD61
:10B98000324ADFED336A92ED007A324A07EE903A9E
:10B99000B8EEC77AF8EEE77A27EE267A012382ED31
:10B9A000027A1370C2ED017A052042F053F82A485A
:10B9B0003AF09AFD28483BF067F827483AF0A8FD8E
:10B9C000264B274801241C701AF09AF8254B1C704E
:10B9D00042F034F8244A254B1060DB68D9010AD4C0
:10B9E00043F044FA224BA0FB0301830A43EA81534C
:10B9F000204A136010BD204B1A68D207F0D55B684F
:10BA00009B09F5E71D4B0122C3F80425D3F8002458
:10BA1000002AFBD04FF010236FF00101174AC3F842
:10BA20000C12D2F80034002BFBD000231349C2F8CB
:10BA30000435D1F80034002BFBD00A2042F00AF87C
:10BA4000FBF740FC48630020743F01205063002056
:10BA5000EC51783F246100200CF8002008F8002009
:10BA6000207C002031A200209CC20020F0ED00E0EC
:10BA700040420F00C89E0020001000E000E001409E
:10BA80004248434BC26830B5002142F08072C26028
:10BA900059601A6885B042F001021A605A68039131
:10BAA000039B3F2B05DC039B01330393039B3F2B3D
:10BAB000F9DD374B374C5B689A4214BF01230023F2
:10BAC00023701DD0344B35483022002140251D60A5
:10BAD0004CF084FF4FF01023314AD3F80C32002190
:10BAE0001170DA0731D52A4B5968019141F0A6FF50
:10BAF000019902462B4805B0BDE8304019F01EBC44
:10BB0000254B26483022002101251D604CF066FFA0
:10BB10004FF01023224AD3F80C320021DB071170BA
:10BB200013D51A4BDB68D80106D5194B1A68D10713
:10BB300002D559688909D8E743F098F91A4AA0FB59
:10BB40000223910A41EA8351CFE701211E2045F0EB
:10BB500053FA00211E2045F0D3FA144A144B916F7A
:10BB60002078144D144C1F2998BF4FF0A04301F0CA
:10BB70001F0101228A402A60C3F80C252360002897
:10BB8000B1D1024BDB68D801D6D5CEE7F0ED00E0AD
:10BB9000001000E0E66B0020D0600020E8A100204B
:10BBA0003C9E002094F8002040420F0070160800D0
:10BBB00000030050FC6B0020006C002030B51C4BD3
:10BBC0001B7883B00446F3B11A4B5D681A4B1B68AF
:10BBD0001BB11A4A1268C3F80C2521681848691A63
:10BBE00019F028FC41F02AFF1649174B096800910B
:10BBF0000246019329464FF47A73114819F032FC3A
:10BC0000204603B030BD114BDB68D90106D5094B86
:10BC10001A68D20702D55D68AD09D7E743F026F967
:10BC20000B4BA0FB0301850A45EA8155CEE700BF17
:10BC3000E66B0020001000E0006C0020FC6B002090
:10BC400094F80020D06000203C9E0020F0ED00E041
:10BC500040420F00104A114B114810B50021114C01
:10BC600011704FF47A62196021604CF0B7FE0E48F3
:10BC7000037C6BB90D4C43F0E5FF2068022119F0FD
:10BC8000D1FE08B100232360BDE8104043F0E4BFBB
:10BC900010302CF06BF9EDE7603F0120AC2E012055
:10BCA000FC1E01209C2E01206C3B0120681B012002
:10BCB0002DE9F0430024BDB0374B049401464FF406
:10BCC0007A75224607A8ADF81C408DF81E400595F0
:10BCD00003932CF089FB20B9002528463DB0BDE830
:10BCE000F0832E494FF4806207A82CF0DDFB064656
:10BCF00007A82CF03BF9B6F5806FEDDB284E0095D8
:10BD000002A9019125480294334610AA4FF480619C
:10BD100015F07AFE05460028DFD0224BDFF8988028
:10BD2000214FDFF8989010A9184617224DF059FEC0
:10BD300003461F22404616A9DC754DF052FE88F8D6
:10BD40001F403846DFF878801F221EA94DF049FEBB
:10BD5000FC770F22154F26A948464DF042FE0F22D0
:10BD60002AA9404689F80F404DF03BFE0F22384685
:10BD70002EA988F80F404DF034FE029A0C4BFC734C
:10BD80001A6012B1013A56F822200A4B28461A606E
:10BD90003DB0BDE8F08300BF20EA070078F900203D
:10BDA000FC1E0120301C0120101C0120681C0120F9
:10BDB0009C2E0120AC2E0120481C0120781C012063
:10BDC000001C012070B50C4E054643F03BFF306867
:10BDD000294619F00FFE044620B943F03DFF3368B1
:10BDE000204670BD2946306819F014FE306043F0DB
:10BDF00033FF204670BD00BF681B012010B5084C02
:10BE000082B0019043F01EFF2068019919F00AFEEC
:10BE100008B10023236002B0BDE8104043F01CBF0E
:10BE2000681B01202DE9F0433E4B3F4C3F49D3F8BE
:10BE300000803F4D3F4E0128BDB004BF25460E4651
:10BE4000B8F1000F54D107460320FFF7BBFF0028CD
:10BE50004ED0394B394A3A4C3A49CDF80480012F3B
:10BE600018BF1A4604A843464FF47A77ADF81080FD
:10BE70008DF81280029700942CF0AEFA9DF81030E5
:10BE8000002B40D0DFF8C890DFF8C8802E4F04E0C8
:10BE900011A82CF06BF8C8F8007600224FF47A73E2
:10BEA00004A911A80F93CDE90D42ADF844208DF8F7
:10BEB00046202CF0B7FD9DF844300BB313F0D00FA3
:10BEC000E6D11AA9402211A82EF002F81AAB2AA82E
:10BED0002A4646214DF078FC431E442BD8D882B226
:10BEE0002AA9484635F004FD0A2041F0B3FDCFE70A
:10BEF000164917480C2235F0FBFC3DB0BDE8F08335
:10BF000004A82CF033F80320FFF778FF30464DF0FB
:10BF10004EFD314682B20E4835F0EAFC3DB0BDE838
:10BF2000F08300BF681B01205CD4070068D40700C1
:10BF300048D4070054D4070088EB0700FCEF070043
:10BF400020EA0700EC6600203546526E70D40700E8
:10BF5000141E0120000001402DE9F0473C4B1C68F5
:10BF6000ADF5287D24B90320FFF72CFF054640B925
:10BF700038493948042235F0BBFC0DF5287DBDE871
:10BF8000F0872346354E364A364904944FF47A7783
:10BF900007A8ADF81C408DF81E40059703962CF0BD
:10BFA0001BFA9DF81C30002B4ED0DFF8CC90DFF848
:10BFB000CC802D4F05E014A82BF0D8FF2B4BC3F8F5
:10BFC000007600224FF47A7307A914A8CDE9106215
:10BFD000ADF850208DF8522012932CF023FD9DF8DF
:10BFE000504014B314F0D004E5D10DF1740A514659
:10BFF0004FF4807214A82DF06BFF1B9A0192002D54
:10C0000014BF4B4643461A4ACDF800A04FF4967130
:10C010005DA84DF0D9FB5DA982B20F4835F068FCF0
:10C020000A2041F017FD2546C5E707A82BF09EFF23
:10C030000320FFF7E3FE0F490748032235F058FCC1
:10C040000DF5287DBDE8F0870320FFF7D7FE8FE7C9
:10C05000681B01204CD807004C1D012020EA070076
:10C060007CD20700EC6600203546526E000001408D
:10C0700084D4070090D40700F804080080D4070097
:10C08000F0B5334E337C8FB00446002B5BD10320D8
:10C09000FFF798FE00284FD0002722462D4C2E494E
:10C0A00001943B464FF47A7505AC05A803950297B9
:10C0B000ADF814708DF816702CF08EF9A446BCE81B
:10C0C0000F00264D029C74600FC5BCE80F000FC521
:10C0D000DDE90321337CDCF800002860C6E9022199
:10C0E00003B31F4B1F4CF26A1F4822601F6014F0FD
:10C0F00067F841F0A3FC1D4A1D4910601D482368E4
:10C100001D4A0F6001242021047001A84DF05CFB42
:10C1100001A84DF04CFC01A982B2184835F0E8FBAB
:10C120000FB0F0BD0320FFF769FE15491348052243
:10C1300035F0DEFB0FB0F0BD12491048042235F097
:10C14000D7FB0FB0F0BD06F110002BF00FFF9EE7FC
:10C15000081A012020EA0700EC660020181A0120C6
:10C16000001A01203C1A012024F8002090C200206F
:10C17000B49E0020421A012094D40700141E01200E
:10C1800080D307004CD807002DE9F04F244EDFF88C
:10C19000A0A0DFF8A09085B006F26C4B80465F4609
:10C1A000032401ADFF220023CAF80096CDF80880D1
:10C1B000ADF80420039395E80E0038462FF026F9D9
:10C1C00096F87E341648C6F868B439460122DBB9C1
:10C1D0002EF030F980B113482BF0C8FE104901F25F
:10C1E00044402CF043F978B10F4A104B1660C3F865
:10C1F000008005B0BDE8F08F034602463946084886
:10C200002EF018F90028E6D16420CAF8009641F013
:10C2100021FC013CC6D1204605B0BDE8F08F00BF2F
:10C22000EC660020306B0020EC77012018A2002083
:10C23000000001403546526E38B52848284A037C34
:10C240000024147053BB274A274B002414701C7021
:10C25000FEF764FE254A264B2648147021461C70C2
:10C2600034F050FD244837F049FD78BB214834F0C4
:10C270000FFE224B1B7803BB01210C2044F0BCFEB7
:10C2800001210C2044F03CFF1D491E4A1E4800239A
:10C290000B701370BDE83840FFF776BF1B4D1030B0
:10C2A0002BF064FE43F0CEFC2868032119F0BAFBA2
:10C2B00000B12C6043F0D0FCC5E70F48002137F0F7
:10C2C000F3FC0D48002137F0F3FCD5E70A4837F0BE
:10C2D00049FD0146084837F02FFDC7E7081A01203D
:10C2E000FC190120421A01208CC20020187E002077
:10C2F000A1C20020948A012054840120401A012008
:10C30000041A0120411A012080841E00681B0120AC
:10C3100008B5054B1B780BB1FFF78EFF642041F089
:10C3200099FBFAF7CFFF00BFFC1901202DE9F04F70
:10C33000574A584F5848002387B013703B70FFF797
:10C3400023FF0546002858D1544ED6F86834002BF8
:10C3500000F09B809B7CDFF85891DFF85881DFF874
:10C3600040A13B704FF0000B4B4AC9F800860024F7
:10C37000CDE90424FF23ADF80C3003AB0ECB5046BF
:10C38000ADF808408DF80A402FF040F896F87E345A
:10C39000434AC6F868240193002B32D1D6F86C24A6
:10C3A000012492698DF8084050469047019B00286F
:10C3B00046D0D6F868143948019122468DF80940D4
:10C3C0002EF038F8019900284ED036482BF0CEFDDB
:10C3D000324901F244402CF049F800284BD0324A4F
:10C3E000012316608DF80A30C9F8008616E02F4B3D
:10C3F000294A1A6000233B700125284607B0BDE892
:10C40000F08F8DF808408DF80940534600228DF8D2
:10C410000A20C9F800862BB39B7C3B70594602A8C2
:10C4200019F05EFB03289FD801A353F820F000BF4A
:10C43000EFC3020059C402004BC40200FBC3020058
:10C44000D6F868348DF80900E0E7114A0123284640
:10C45000137007B0BDE8F08FFA200BF1010B41F02B
:10C46000F9FA81E72B23D8E7034602460B482DF063
:10C47000E1FF0028A9D100238DF80A30D6F86834EE
:10C48000C9F80086002BC7D1ECE72B2363E700BF78
:10C49000613F0120703F012080841E00EC66002077
:10C4A000586B0020306B0020EC77012018A2002090
:10C4B000000001403546526E10B58AB000231A4A7A
:10C4C0001A49ADF8043001A88DF806302BF084FF2E
:10C4D00060B90446ADF80400134A15498DF80640CA
:10C4E000012301A82BF050FE044658B10023114A45
:10C4F0000E49ADF8043001A88DF806302BF06CFF22
:10C50000044610B120460AB010BD0A4A0849ADF8E9
:10C51000044001A801238DF806402BF035FE0124CC
:10C5200020460AB010BD00BF88EB0700EC66002073
:10C53000306B0020FCEF070070B5144C237813B962
:10C540009FED130A70BD134D2E6841F077FA014636
:10C55000304619F077FC0028F2D023781BB90E4B37
:10C5600093ED000A70BD2C6841F068FA0146204640
:10C5700019F068FC0028F2D041F060FA0146074843
:10C5800019F080FC0028EAD1DAE700BF107E002015
:10C590000000C07FA8E70020CC6B00206CF80020D2
:10C5A0002DE9F04FDFF80C8198F80050A1B015B9D3
:10C5B00021B0BDE8F08F41F041FA344A1368C31A44
:10C5C000202B0446F4D9DFF8F0A01060DAF8003030
:10C5D000002B52D000208DF84C00FDF789FADAF8D4
:10C5E00000308DF84D00002B00F074810020149075
:10C5F000FDF7E2FA1590FDF761FB1690FDF786FB5B
:10C6000018AF1790002601363046FDF7DFFB47F8DC
:10C61000040B3046FDF712FC032EB860F3D11C4921
:10C620000AA813AA19F07CFA0C9B1BB1194B9DF8B0
:10C6300034201A709DF835301BB1174B9DF8362009
:10C640001A709DF82C30002B42D098F80030002B47
:10C6500061D0124B124901221A700A7041F0EEF9B2
:10C66000104A114B1060DB68DE0127D50F4B1A68AA
:10C67000D00723D55B689B0928E00D4B186800287C
:10C6800000F04D822AF002FEA5E700BF349E002094
:10C69000207C0020E4A10020F97C0020389E0020AE
:10C6A000CD9E0020E0A10020F0ED00E0001000E0B1
:10C6B000903F012008F80020A01C012042F0D6FB8A
:10C6C000B84BA0FB0301830A43EA8153B64A1360C7
:10C6D0000A9B03B398F80030EBB1B44F3B78002BC2
:10C6E00000F00382B24B1A78AAB9012100221A7015
:10C6F000397041F0A3F9AF4AAF4B1060DB68D90144
:10C7000040F11D82AD4B1A68D20740F118825B6878
:10C710009B09A54A1360AA4F3B78002B40F0E280AA
:10C72000A84E3378002B40F0E281A74A13709F4F48
:10C730003B7883B19F4A9E4B10681B78201A002BD0
:10C7400040F0CD81984B0AAA196817F0E1FF3870C4
:10C75000002840F077810AA817F0FAFF9B4B1B785E
:10C76000002B40F063819A4B93F80090B9F1000FD1
:10C7700040F05C813378002B40F00982954F964B56
:10C78000DFF89C82DFF89CB2DFF89CA2039328229A
:10C79000002116A84CF022F997ED007ADBED007A23
:10C7A0008E4B039A1B7812681592B8EEC77AF8EE92
:10C7B000E77A8DED137ACDED147A0BB198F8283025
:10C7C000DAED007A8DF85830F8EEE77ACDED177A89
:10C7D000FFF7B2FE10EE102A02F0FF4110EE103A01
:10C7E000B1F1FF4F04BFC2F31603B3FA83F398F815
:10C7F00028707B487B4A98F8291090F801C0D2ED48
:10C80000007AD8F824201C920CBF5B092B468DF8C7
:10C810006430002367F30703734F8DED180A61F34B
:10C820000F2331783A78714F6CF3174361F31F632C
:10C83000F8EEE77A97F800C01D930123CDED1A7A40
:10C840008DF878C08DF86C3032B13B7803F0FF0280
:10C8500013B1674B1A78D2B203788DF87920042B84
:10C8600000F07681634B1B78022B00F0C581624A91
:10C87000624B12781B78624F8DF87A908DF87B208E
:10C880008DF87C30002900F065815E4A38782346B7
:10C8900013A918F035FBC0F30722C0F307438DF846
:10C8A00028008DF829208DF82A30002D00F0C18055
:10C8B000554B564A187813A9234618F021FBC0F3AC
:10C8C0000722C0F307438DF846008DF847208DF806
:10C8D0004830B1E04E4B1868002800F028812AF05B
:10C8E00089FD84E64B4A4C4B10681968354E201A76
:10C8F0000AAA17F031FE337838708046002B00F01A
:10C90000E980344F304997ED000A4448234601221C
:10C91000B8EEC00A18F01EFAC0F30722C0F30743AE
:10C920008DF84C008DF84D208DF84E30B8F1000F89
:10C9300040F08880244B1B78002B3FF4F8AE13990D
:10C94000BDF84C209DF84E30ADF82810080CADF81D
:10C950003410ADF840108DF82A008DF836008DF8AF
:10C960004200ADF82B20ADF82E20ADF83120ADF807
:10C970003720ADF83A20ADF83D20ADF84320ADF8B2
:10C9800046208DF82D308DF830308DF833308DF80D
:10C9900039308DF83C308DF83F308DF845308DF8CA
:10C9A00048304FE040420F00FC7C0020CD9E00202C
:10C9B000389E0020E0A10020F0ED00E0001000E033
:10C9C00031A20020613B0120CC9E0020FC190120F7
:10C9D0003A730120983F0120F01E0120BC1E012067
:10C9E00030F8002058630020401A0120507C0020BD
:10C9F0000D7C0020B89E0020F97C0020E4A10020DE
:10CA00004C6300201C7C00204D630020007D002032
:10CA1000903F01209CC20020C89E0020246100207D
:10CA2000701E01205063002054630020A94818F0B4
:10CA300063FAA94818F060FA33781BB9A749A84AE5
:10CA40000B701370A74C217841B3A74B93F82920A2
:10CA500022B3998DA54AD3F82E30B2F90020CDF833
:10CA6000163013A801F5FA6305A9ADF8143018F0D3
:10CA700093FB13A818F088FB9D4A9E4B12781B78F5
:10CA8000C2EB0212C3EB03119200890092B289B289
:10CA900018F02CFC002840D0974B1978974E0AA824
:10CAA00017F092FE0AAC0025284617F04DFEA37839
:10CAB00000936378227881B20135304639F0BEFFA9
:10CAC0000B2D04F10304EFD18C4839F021FD21B086
:10CAD000BDE8F08F8A4A13700028B3D127E6894B4E
