:020000022000DC
:10700000000004200DA506004DA506004FA50600B2
:1070100051A5060053A5060055A506000000000076
:1070200000000000000000000000000089A406002D
:1070300059A5060000000000A9A406005DA50600F1
:1070400069A706005FA50600F17B0600ADBE04003F
:1070500065BF04005FA50600C97E06005FA50600A7
:107060005FA506005FA506005FA506005FA50600F8
:107070005FA506005FA506005FA506005FA50600E8
:107080005FA50600D9A106005FA506005FA5060062
:107090005FA506005FA50600F1E205005FA50600FA
:1070A0005FA506005FA5060065A603005FA50600B4
:1070B0005FA506005FA506000000000000000000BC
:1070C0005FA506005FA506005FA5060051AD06009E
:1070D0005FA506005FA506005FA50600B56905006F
:1070E0005FA506005FA506005FA506000000000082
:1070F000000000005FA5060000000000C9AD06000A
:10710000000000000000000000000000000000007F
:10711000000000000000000000000000000000006F
:10712000000000000000000000000000000000005F
:10713000000000000000000000000000000000004F
:10714000000000000000000000000000000000003F
:10715000000000000000000000000000000000002F
:10716000000000000000000000000000000000001F
:10717000000000000000000000000000000000000F
:1071800000000000000000000000000000000000FF
:1071900000000000000000000000000000000000EF
:1071A00000000000000000000000000000000000DF
:1071B00000000000000000000000000000000000CF
:1071C00000000000000000000000000000000000BF
:1071D00000000000000000000000000000000000AF
:1071E000000000000000000000000000000000009F
:1071F000000000000000000000000000000000008F
:10720000F1EE103A43F08073E1EE103A704700BFA0
:1072100010B5054C237833B9044B13B10448AFF3D0
:1072200000800123237010BDB8660020000000001C
:10723000F4DD070008B5034B1BB103490348AFF366
:10724000008008BD00000000BC660020F4DD0700DF
:10725000154B002B08BF134B9D46A3F5803A002128
:107260008B460F461348144A121A4BF067FE0F4B19
:10727000002B00D098470E4B002B00D098470020E1
:10728000002104000D000D48002802D00C48AFF387
:1072900000804BF097FD2000290043F08FF94BF060
:1072A0006BFD00BF0000080000000420000000008B
:1072B00000000000B8660020B49401200000000027
:1072C00000000000BFF34F8F0549064BCA6802F467
:1072D000E0621343CB60BFF34F8F00BFFDE700BFF9
:1072E00000ED00E00400FA0535DF704733DF70473A
:1072F0003CDF70473DDF704741DF704711DF70476B
:1073000012DF70470020704701207047012070474E
:10731000704700BF704700BF704700BF704700BF95
:10732000024B02F001021A70704700BFE36B0020AD
:1073300070B50446C0694E4D4AF006FE4AA3D3E933
:1073400000234AF06BFE02460B46A069C5E9002304
:107350004AF0FAFD44A3D3E900234AF05FFE94ED1E
:107360000F7AB4F84C30DFED437A9FED435A9FED2E
:10737000434ADFED434AF8EEC75A94ED107A06EE21
:10738000103AF8EEC76A94ED0A7AB8EE466AB8EE9B
:10739000477A66EEA76A65EE845A26EE246A27EEDF
:1073A000057AC5ED055A85ED066AC5ED076A85EDD6
:1073B000087AE37DD4ED097A6B62237DF8EEE77AF3
:1073C000012B88BF637DC5E9020167EE857A8CBF1A
:1073D00003F001030023C5ED047A85F82830E37A31
:1073E00003F00302A2F10300B0FA80F0C3F38001BE
:1073F0004009032A85F82A0085F82B1003F00403BE
:107400002DD1003B18BF0123A28885F82930A2F5B1
:10741000FA63AB85A37985F82E30E37985F82F30B0
:10742000237A85F83030637A85F83130A37A85F88D
:1074300032302268134B1449144C1548A3FB0263E5
:1074400001260E709B094FF47A7101FB132321680A
:107450000268AB86314432442160026070BD002373
:10746000D2E700BFAFF3008048AFBC9AF2D77A3EB4
:1074700020060120ACC527376F12833AA8C8FE3A10
:107480000AD7233CD34D6210580601207006012014
:107490005C060120024B034AC3F800260120704716
:1074A000000001403546526E024B0349C3F80016F6
:1074B00010467047000001403546526E704700BFCD
:1074C000037C13F0080306D0C36A406A181A48BF49
:1074D0006FF0004070471846704700BF2DE9F84F25
:1074E0004AB3C2F3080315462BBBDFF85480DFF81C
:1074F0005490012306460F4688F800304FEA522A7E
:107500000324D9F8680403683A46D3F814B0314626
:107510005346D847013C20B914F0FF04F1D14FF095
:10752000FF3540F03DFD054A0023106088F800302B
:107530002846BDE8F88F4FF0FF35F9E7D06B002003
:10754000A86C0020D46600202DE9F84F4AB3C2F39E
:10755000080315462BBBDFF85480DFF85490012355
:1075600006460F4688F800304FEA522A0324D9F81D
:10757000680403683A46D3F824B031465346D847E6
:10758000013C20B914F0FF04F1D14FF0FF3540F079
:1075900007FD054A0023106088F800302846BDE842
:1075A000F88F4FF0FF35F9E7D06B0020A86C002072
:1075B000D466002010302BF09DBD00BF10302BF0A2
:1075C000FDBD00BF00B583B00B4601220DF10701E0
:1075D00010308DF807302BF0F1FD03B05DF804FB9F
:1075E00000B587B00346064A684618214CF09CFB5C
:1075F000694682B2034834F04BFC07B05DF804FBE7
:1076000088770700C805012010302BF0EFBA00BFC3
:1076100000B583B001220DF1070110302BF014FAF0
:1076200001280CBF9DF807004FF0FF3003B05DF854
:1076300004FB00BF084611464CF05EBB084640F014
:10764000F1BC00BF084640F0D3BC00BF10B50E4CE3
:1076500084B0227801A8092117F09EFC2378023318
:107660002370024670B1094B1B7803F0FF004BB149
:10767000074B1B7803F0FF0023B1064892B201A923
:1076800034F006FC04B010BD72D40020046C00205D
:10769000E36B00200C6D00202DE9F0434779402F6B
:1076A0003946A1B028BF40219FB30023E9464A468E
:1076B0009C461F46054603EB4304AE7A167000EB6A
:1076C00084040133247C14F0080FC4F3C00818BFED
:1076D000013782F801805FFA83FE05F10C0502F1A3
:1076E000020218BFFFB21EB10CF1010C5FFA8CFC54
:1076F0007145E0D8084B094C1F70094A84F800C056
:107700004846102319F092F8064B187021B0BDE8D6
:10771000F083BC46E946EDE7890601208806012092
:107720007806012074060120174BDB68D90110B5DB
:1077300003D5164B1A68D2071FD441F049FE144BEB
:10774000A0FB0301830A43EA8153124912480A68E5
:1077500000689A1A90420FD810480B6002781049BE
:107760000132097802F00F02914209D001780D4CE4
:10777000C9B244F82130027010BD5B689B09E4E790
:10778000094B01221A7010BDF0ED00E0001000E07E
:1077900040420F003C270120446100208427012043
:1077A00086270120442701208527012038B5104C69
:1077B000104DD4F8680403680122DB692A709847E9
:1077C00094F82430DB070CD400224FF0FF3384F808
:1077D0002420236340F0E4FB074A002310602B7051
:1077E00038BD04F124002EF0BBF90028ECD1F1E7FC
:1077F000D4660020A86C0020D06B002070B58AB041
:107800001F22014600921B4802ABFF2235F0B8F858
:107810000D2804D8184B1B783BB30AB070BD044642
:10782000014602A819F0BAF90028F3D0134E144803
:107830003578102C28BF1024E4B2224602A900EBB0
:1078400005104BF053FBEDB20E4B5C5540F0A8FB1E
:107850000D4C0E4A44F82500012185EA01035155DB
:107860003370054B1B78002BD7D1024835F06EF8EA
:107870000AB070BD98720120CB6B0020CC6B002049
:10788000D8D30020F8D3002074D40020D8D400200E
:1078900010B5034B036004461AF00CFF204610BDE0
:1078A0001C8B07000F49097802290AD1F8B50E4E42
:1078B0000E4F3578EDB21C467B5D0BB9202C01D9FB
:1078C000F8BD70470A48114600EB451022464BF0C0
:1078D0000DFB0848E3B24355012185EA01027955C1
:1078E0003270F8BD28020120E26B00202CE5002058
:1078F00030D4002070D4002070B5124C124A134BC3
:107900002260002647F260006360C4F8886342F09A
:1079100095FE0F4B0F4D93ED000B3246214604466A
:1079200025F07EFA0C4B2C6093ED000A204625F0E2
:107930001FFE0A4B286893ED000ABDE8704025F051
:107940002DBE00BFE0FD002094770700C4A3070010
:10795000906200201C030120486300204463002043
:10796000F8B51A4B1B78022B044626D0184B194A3F
:1079700019480027214601261F70167036F0B0FC0A
:10798000054634F0FDFB2846F72134F00DFC28466F
:10799000022134F019FC3A463946284634F00CFCF2
:1079A0000E4B1E7040F0FCFA0D4B0E4A1C8010600E
:1079B0002846BDE8F84034F0E5BB0B4A0B490C4BB8
:1079C00010800120002208701A70F8BD28020120E2
:1079D0006AB10020E4010120FC6B01202A02012091
:1079E00022020120240201203C610020046C0020BE
:1079F000E36B0020214A13884FF6FF719BB28B4244
:107A0000F0B403D013889BB2984228D01C4B1B784B
:107A1000022B24D01B4B1C481C4F1D4E1D4D1E4CD1
:107A20001E491A7800233B70337003701C482B707A
:107A300023701C4D0B701C4C1C49037017202B70BD
:107A4000237008801A4B1AB900221A70F0BC7047D4
:107A50001A78002AF8D0174A01211170F4E7138828
:107A60009BB29842F2D1144C144900234FF6FF7098
:107A700023701080F0BC0B70704700BF3C61002089
:107A800028020120DC010120B9B30020649100200C
:107A900006910020059100207CB30020C16D0020DC
:107AA000E40101202902012079B100205461002065
:107AB0006AB10020D7B30020046C0020E36B0020E3
:107AC0002DE9F04F4948037CABB0002B40F08A8091
:107AD0004748037C002B40F081804648037C002B04
:107AE00078D14548037C002B70D10024322040F02F
:107AF00063FA424E424A43490194234604A84FF494
:107B00007A75ADF810408DF81240029500962AF073
:107B100033FF9DF81000002855D03B4D2B68132BE8
:107B200049DC3A4FDFF8E88005E011A82AF0EEFCC6
:107B30002B68132B3FDC4FF47A73002204A911A8A1
:107B40000F930E94ADF844408DF846400D962BF0FF
:107B500039FA9DF8443040221AA911A85BB32CF0E1
:107B600087FC9DF8443013F0D00F1AA8DDD14CF0FB
:107B7000CEF903461AAA0638062B39461044D4D942
:107B80004CF06AF981460028CFD1D5F800A00AEB65
:107B90004A0B08EB0B1B1AA92F2258464CF0D1F9BF
:107BA0000AF1010311A82B608BF82F902AF0AEFC8C
:107BB0002B68132BBFDD04A82AF0A8FC2868002836
:107BC000D4BF002001202BB0BDE8F08F10302AF088
:107BD0009DFC8AE710302AF099FC82E710302AF0E9
:107BE00095FC7AE710302AF091FC71E71C23012004
:107BF0007404012090270120C42701204C8B07002A
:107C00009C770700D46600200C230120A077070092
:107C10005023012010B5094C2368013309D1084ACB
:107C2000136803F59C5308334FF0FF311360216054
:107C300010BD40F0B5F9034B1860F0E798620020E2
:107C4000E40301209020012010B5074C42F0ACFA6B
:107C50002068042118F0B8FE08B100232360BDE8B5
:107C6000104042F0ABBA00BF5003012038B50568A0
:107C70000A4A0446286803681B6893420BD12820EF
:107C800040F0B6F918B1064B4360606038BD01237F
:107C90002B71606038BD28219847F3E745760200D4
:107CA00001001F0081682DE9F0470568044669B1AD
:107CB000284E2B680A685B68A260B34208463DD133
:107CC00040F0B0F9A1680029F3D12568238E04F1B2
:107CD0000C0903B30027E36ADFF878A0B8460BE08D
:107CE00040F0A0F9E36AC6F80080218EC6F804804F
:107CF0000137BAB291420FD9BEB203EBC606716822
:107D000008460029EFD02B685B685345E8D0284629
:107D10009847E36AE7E7E36A00214FF6FF72994567
:107D20002186A28607D02A680A4952688A420BD166
:107D3000184640F077F92046BDE8F0872846984776
:107D4000A1680029B5D1C0E72846194690472046CA
:107D5000BDE8F0873D76020081682DE9F0470568AF
:107D6000044669B1284E2B680A685B68A260B3427A
:107D700008463DD140F056F9A1680029F3D12568A5
:107D8000238E04F10C0903B30027E36ADFF878A01F
:107D9000B8460BE040F046F9E36AC6F80080218E51
:107DA000C6F804800137BAB291420FD9BEB203EBD4
:107DB000C606716808460029EFD02B685B685345FA
:107DC000E8D028469847E36AE7E7E36A00214FF6E0
:107DD000FF7299452186A28607D02A680A4952680F
:107DE0008A420BD1184640F01DF92046BDE8F087C5
:107DF00028469847A1680029B5D1C0E7284619460A
:107E000090472046BDE8F0873D76020081682DE965
:107E1000F0470568044669B1284E2B680A685B681C
:107E2000A260B34208463DD140F0FCF8A1680029A9
:107E3000F3D12568238E04F10C0903B30027E36A0C
:107E4000DFF878A0B8460BE040F0ECF8E36AC6F83B
:107E50000080218EC6F804800137BAB291420FD952
:107E6000BEB203EBC606716808460029EFD02B6846
:107E70005B685345E8D028469847E36AE7E7E36A3A
:107E800000214FF6FF7299452186A28607D02A6805
:107E90000A4952688A420BD1184640F0C3F820467E
:107EA000BDE8F08728469847A1680029B5D1C0E70A
:107EB0002846194690472046BDE8F0873D760200E7
:107EC0002DE9F04F87B006AB03E90300049D002DB8
:107ED00000F00E812888059A4FF6FF73984200F053
:107EE0001081D2F82C90C10909EBC10100F07F028A
:107EF000486810EBC20000F004819B460379C688F5
:107F0000202B4FF0000840F0EE80B8F10A0F00F08F
:107F1000EE8007885F4500F0DE81FB0909EBC303B3
:107F200007F07F025D680292FB0915EBC20503931F
:107F300000F0EC80B5F806A00195434601272C46D9
:107F4000B04655461E468FB95D4500F0DC80EA0913
:107F500009EBC20205F07F05546814EBC50400F07C
:107F6000D28087F00107E588002FEDD02279042A1E
:107F700000F08681052A00F07F81022AE4D12046A4
:107F80004BF0C5FF0428DFD122786E2ADCD162785D
:107F9000612AD9D1A2786D2AD6D1E278652AD3D1C7
:107FA0002B4632465B454646019D904610D0D80987
:107FB00009EBC00003F07F03406810EBC30307D058
:107FC0001B79181F012840F2A680022B00F0A38025
:107FD000B34BB44A42F83830039B029A09EBC30A08
:107FE000DAF8043013EBC20764D0B7F806A00197A3
:107FF00001233C461F4643465546B0461E468FB9B0
:108000005D4500F0D080EA0909EBC20205F07F056A
:10801000546814EBC50400F0C68087F00107E588BA
:10802000002FEDD02279042A00F02181052A00F0EA
:108030001A81022AE4D120464BF069FF0C28DFD1D7
:108040002278642ADCD16278612AD9D1A278742A94
:10805000D6D1E278652AD3D122795F2AD0D162794C
:10806000632ACDD1A279722ACAD1E279652AC7D111
:10807000227A612AC4D1627A742AC1D1A27A652A8D
:10808000BED1E27A642ABBD132465D453B464646C4
:10809000019F90460ED0EA0909EBC20205F07F0568
:1080A000546814EBC50505D02A79111F01297ED922
:1080B000022A7CD07A4B7B4A02EBC8025E4508F16B
:1080C000010853605FFA88F512D0F30909EBC30386
:1080D00006F07F06586810EBC60009D00379C68801
:1080E000202B3FF412AFB8F10A0F40F0CE80454686
:1080F0006D4A6C48294615F0D7FB284607B0BDE805
:10810000F08F0025F4E7334646469846654B644AAF
:1081100043F8382060E79FB9DA4500F0CE804FEA97
:10812000DA1309EBC3030AF07F0A5D6815EBCA0591
:1081300000F0C38087F00107B5F806A0002FEBD050
:108140002B79042B00F0B280052B00F0A480022BC9
:10815000E2D128464BF0DBFE0428DDD12B786E2BD4
:10816000DAD16B78612BD7D1AB786D2BD4D1EB788A
:10817000652BD1D1DA4500F0A0804FEADA1309EB84
:10818000C3030AF07F02586810EBC2033FF421AF2B
:108190001979042900F0AF80052900F0A880022990
:1081A00018BF002315E733464646984682E71C462B
:1081B0009CB9DA4500F08D804FEADA1209EBC20271
:1081C0000AF07F0A576817EBCA0700F0828084F034
:1081D0000104B7F806A0002CEBD03B79042B72D039
:1081E000052B6CD0022BE4D138464BF090FE0C28C6
:1081F000DFD13B78642BDCD17B78612BD9D1BB7884
:10820000742BD6D1FB78652BD3D13B795F2BD0D1A2
:108210007B79632BCDD1BB79722BCAD1FB79652BCE
:10822000C7D13B7A612BC4D17B7A742BC1D1BB7A85
:10823000652BBED1FB7A642BBBD1DA4549D04FEA1E
:10824000DA1309EBC3030AF07F0A596811EBCA037A
:108250003FF431AF1A79042A46D0052A40D0022AC9
:1082600018BF002327E72468E0880834E6E624687E
:10827000002C7FF4E0AEC3E62468E088083481E691
:108280002468002C7FF47BAE5EE6064B044A43F87C
:10829000382013460FE72D68E88808355CE700BFF3
:1082A000C4A30700EC600020C06B00202D68002DE7
:1082B0007FF44FAFDA457FF432AF002389E63F68A1
:1082C000F888083793E73F68002F8DD1DA457FF4AF
:1082D00073AF0023EFE6094B094A43F83820E9E67B
:1082E00051F83A300833E6E651F83A30E3E650F810
:1082F000323008336DE650F832306AE6EC60002028
:10830000C4A307002DE9F84F07463FF049FE314D61
:10831000DFF8CC90DFF8CCB0DFF8CCA0064645F013
:108320000105D9F800301C68204643F0B9F903462E
:108330004FF003084FF4FA406BB9B8F1010F3CD08D
:10834000A847204643F0ACF9034608F1FF384FF444
:10835000FA40002BF1D0DBF80030D3F80080404623
:1083600043F09EF9034603244FF4FA405BB9012C15
:1083700023D0A847404643F093F90346013C4FF40D
:10838000FA40002BF3D0144B1B68D3F80080404612
:1083900043F086F9034603244FF4FA405BB9012CFD
:1083A0000BD0A847404643F07BF90346013C4FF40D
:1083B000FA40002BF3D0BDE8F88F3FF0F1FD801BB1
:1083C000B842F8D2054B0A20C3F800A63FF0F4FDEE
:1083D000A7E700BF60910700606100200000014036
:1083E000586100205C6100203546526E2DE9F04F47
:1083F000DFF8F490344AD9F800300026B34283B055
:1084000016702ADD4FF0FF33DFF8E080DFF8E0B0D0
:108410002E4F01934FF0000A97ED0A3B97ED082B82
:1084200098ED021B98ED000B16F0F6FA55EC104B88
:108430005B4610EE100A524629464AF061F838377A
:10844000D9F8003010B1A246AB4601960136B342CE
:10845000E2DC019B1A46013220D100211C4D1D4B4C
:10846000002428461C7014F0D5FC2A781A4B042AE4
:108470001C600ED9194C23685A1C1DD1184A236060
:10848000136803F59C5308330120136003B0BDE863
:10849000F08F6FF00A03114C9B1AEFE7C3EBC30A8E
:1084A0000A4B094803EBCA010C224BF04AFD064A6D
:1084B000002313730121D1E73FF072FD094A4FF009
:1084C000FF331060DAE700BF0C030120882E012083
:1084D00090610020040301209C200120986200206C
:1084E000E403012090200120485A012020060120A9
:1084F0000000144038B50B79042B0D4604460AD011
:10850000052B1CD0022B11D000230122C0E900331F
:108510000272204638BD0D6828460DB14BF0F7FCBD
:108520000123C4E900502372204638BD08464BF0B1
:10853000EEFC0023C4E900502372204638BD0B68CE
:108540000022D9884160083303600272204638BD9A
:108550002DE9F047054680682F6860B1284C3B68DC
:1085600002685B68AA60A3422AD13FF05BFDA8685D
:108570000028F4D12F682B8E05F10C093BB300269F
:10858000EB6ADFF87C80B2460BE03FF04BFDEB6A14
:10859000C4F800A0298EC4F804A00136B2B29142FA
:1085A00016D9B4B203EBC404616808460029EFD0C1
:1085B0003B685B684345E8D038469847EB6AE7E795
:1085C000014638469847A8680028C8D1D2E7EB6A28
:1085D00000214FF6FF7299452986AA8607D03A688E
:1085E000074952688A4205D118463FF01BFD2846CC
:1085F000BDE8F0873846194690472846BDE8F08721
:108600003D7602002DE9F047038E8146054659F874
:108610000CABFBB10026C36ADFF8A080374609E047
:108620003FF000FDEB6A2760298E67600136B2B229
:10863000914210D9B4B203EBC40461680846002922
:10864000F1D0DAF800305B684345E9D050469847EE
:10865000EB6AE8E7C36A00214FF6FF729945298665
:10866000AA860CD0DAF80020144C5268A24221D11C
:1086700018463FF0D7FC0423C5F82C906B86A868F9
:108680002E6800232B7158B10C4C336802685B686C
:10869000AA60A34206D13FF0C5FCA8680028F4D127
:1086A000BDE8F087014630469847A8680028ECD11D
:1086B000BDE8F087194650469047DCE73D7602005A
:1086C000008830B44FF6FF74A0421AD0CD6AC209B8
:1086D00005EBC20200F07F03506810EBC30011D01D
:1086E000C2880020D309A24205EBC30302F07F0138
:1086F00000F1010006D05B6813EBC10302D0DA88F9
:10870000F0E7002030BC70472DE9F0418B8E4FF62A
:10871000FF72934282B00C46054616D0CA6AD90948
:1087200002EBC10203F07F01526832F83100A086EB
:1087300002EBC10200204FF6FF71107128462A603B
:10874000AB80D18002B0BDE8F081098E2768002996
:1087500032D1638E002B00F085800123E66A5A4AED
:1087600023864FF480604FF080083B681B6893427B
:1087700074D13FF03DFC238EE76A7060013B9BB2F1
:1087800007EBC30100284A6808BF4FF0000800202B
:10879000A6F80080708022B137F83360488886429E
:1087A0002ED8012100224FF6FF73284621712A603E
:1087B000AB8002B0BDE8F081E66A4B1E9BB206EBCF
:1087C000C30E3046DEF804202AB1BEF802C036F8E7
:1087D0003380E0451CD8638E994223D03A4A4B1C23
:1087E0009BB2B3F5007F00EBC106238615BF4FF4A3
:1087F00080604FF47E704FF080084FF07F08B4E740
:1088000000EBC313441C9BB202EBC0024C8091E707
:108810000CEBC3130CF101019BB202EBCC02AEF8DE
:10882000021087E7B3F5007FBBD004F10C025B00B8
:1088300096421FFA83F83B6816D024489B6883420F
:108840004FEAC80135D130464BF056FA0028A8D07F
:108850001D4A218EE062A4F83280C0E70146384606
:10886000984788E7E66AE0E7174A1B680192934257
:108870004FEAC80022D13FF0BBFB019A002890D0FC
:10888000D6F800C07168B368D6F80CE0C0F80CE008
:10889000C0F800C041608360D6F810C07169B36948
:1088A000D6F81CE0C0F81CE0C0F810C0416183613C
:1088B000CFE70A46384631469847C7E7014638466B
:1088C0009847019ADAE700BF457602003576020044
:1088D0002DE9F0418B8E4FF6FF72934282B00C4629
:1088E000054611D0CA6AD90902EBC10203F07F0123
:1088F000526832F83100A08602EBC10228462A6095
:10890000AB8002B0BDE8F081098E2768002932D122
:10891000638E002B00F085800123E66A594A238686
:108920004FF480604FF080083B681B68934274D11D
:108930003FF05EFB238EE76A7060013B9BB207EB62
:10894000C30100284A6808BF4FF000080020A6F8BD
:108950000080708022B137F83360488886422ED874
:10896000012100224FF6FF73284621712A60AB8057
:1089700002B0BDE8F081E66A4B1E9BB206EBC30E67
:108980003046DEF804202AB1BEF802C036F8338043
:10899000E0451CD8638E994223D03A4A4B1C9BB2C7
:1089A000B3F5007F00EBC106238615BF4FF480604E
:1089B0004FF47E704FF080084FF07F08B4E700EB73
:1089C000C313441C9BB202EBC0024C8096E70CEB35
:1089D000C3130CF101019BB202EBCC02AEF8021002
:1089E0008CE7B3F5007FBBD004F10C025B0096422C
:1089F0001FFA83F83B6816D023489B6883424FEAEE
:108A0000C80135D130464BF077F90028A8D01D4A6F
:108A1000218EE062A4F83280C0E7014638469847CC
:108A200088E7E66AE0E7174A1B68019293424FEA3B
:108A3000C80022D13FF0DCFA019A002890D0D6F885
:108A400000C07168B368D6F80CE0C0F80CE0C0F85C
:108A500000C041608360D6F810C07169B369D6F870
:108A60001CE0C0F81CE0C0F810C041618361CFE792
:108A70000A46384631469847C7E701463846984780
:108A8000019ADAE745760200357602002DE9F04FCB
:108A9000958E4FF6FF739D4285B014460746884673
:108AA00002F10C0B3BD0D36AEA0903EBC20305F0D9
:108AB0007F025E6836F83230A38606EBC2064FF6B8
:108AC000FF73F380A28E00219A423171B1465CD0CF
:108AD000E36AD10903EBC10302F07F0A596831F858
:108AE0003A30A38601EBCA0100234FF6FF700B71E9
:108AF000C880C8F80010F2807B88834200F0838031
:108B0000E16AD80901EBC00103F07F03496801EB7A
:108B1000C3034846DD807A8005B0BDE8F08F118E32
:108B20001568002975D1528E002A00F01F8101239B
:108B3000E66AC24A23864FF480604FF080092B68B2
:108B40001B68934240F00A813FF052FA258EE36A97
:108B50007060013DADB203EBC5020028516808BF4B
:108B60004FF000090020A6F80090708029B133F87A
:108B700035305688B34200F297804FF00009012348
:108B80004846237105B0BDE8F08F208E236801931D
:108B9000002862D1628E002A00F0EA800123D4F816
:108BA0002CA0A64A23864FF480604FF0800B019BD7
:108BB0001B681B68934240F0D5803FF019FA228E63
:108BC000D4F82CC0CAF80400013A92B20CEBC203EC
:108BD0000028596808BF4FF0000B0020AAF800B029
:108BE000AAF802000029C8D03CF83200B3F802A06D
:108BF0005045C2D90AEBC2120AF1010092B201EB50
:108C0000CA01588070E748463D807A8005B0BDE8CB
:108C1000F08FE36A4A1E92B203EBC20E1846DEF8EA
:108C200004602EB1BEF802C033F83290E14543D85B
:108C3000628E914254D0814A4B1C9BB2B3F5007FA7
:108C400000EBC106238615BF4FF480604FF47E70A1
:108C50004FF080094FF07F0971E7E36A421E92B23C
:108C600003EBC20C9E46DCF804A0BAF1000F06D05C
:108C7000BCF80210029233F832208A4226D8628E63
:108C800090424AD06D4A431C9BB2B3F5007F0EEB75
:108C9000C00A238615BF4FF480604FF47E704FF0FA
:108CA000800B4FF07F0B82E706EBC515731CADB24E
:108CB00001EBC606538002E70CEBC2150CF1010371
:108CC000ADB206EBCC06AEF80230F8E6029A4B1CC9
:108CD00001EBC21292B20AEBC101ACF8023003E719
:108CE000B2F5007F3FF449AF52009B451FFA82F96D
:108CF00040D02A685248966886424FEAC90140F03F
:108D0000918018464AF0F8FF00283FF436AF4B4AEE
:108D1000218EE062A4F832908EE7B2F5007F3FF436
:108D20002CAF52001FFA82FA019A9B4511684AD073
:108D3000D1F808B0424A93454FEACA0177D11846A4
:108D40004AF0DAFF8646BEF1000F3FF416AF3B4A09
:108D5000208EC4F82CE0A4F832A094E701462846FF
:108D60009847F3E601460198984728E7E36ABBE78E
:108D7000E36AD6E72968314A0E689642CDE90132A6
:108D80004FEAC9005ED13FF033F9DDE90132002836
:108D90003FF4F3AED3F800C05E689968D3F80CE0F6
:108DA000C0F80CE0C0F800C046608160D3F810C085
:108DB0005E699969D3F81CE0C0F81CE0C0F810C0E7
:108DC00046618161A4E71D4AD1F800B09345CDE921
:108DD00002324FEACA003BD13FF00AF9DDE9023224
:108DE0008646BEF1000F3FF4C8AE18685968D3F844
:108DF00008B0D3F80CC0CEF80CC0CEF80000CEF806
:108E00000410CEF808B018695969D3F818B0D3F82F
:108E10001CC0CEF81CC0CEF81000CEF81410CEF84E
:108E200018B095E70A4628461946B0476CE70A4647
:108E300001981946D847864685E700BF4576020067
:108E40003576020001462846B047DDE901329EE74B
:108E500001460198D847DDE902328646C1E700BFE6
:108E60002DE9F84307464068BD68032D884600F1A8
:108E7000080613D85FFA85FC002D77D00CF1FF347B
:108E800056FA84F4C31D002213F8011F002908BFFD
:108E900042F00102A342F7D1002A40D000237355CB
:108EA000D7F80090BE68D9F80830A3B106F1070CD6
:108EB0008444DA8896420BD13EB3C21DDC1D01E02A
:108EC000944522D012F8011F14F8015FA942F7D08F
:108ED0001B68002BEDD1B6F5803F7D68D9F80040C6
:108EE00034D2236828489B68834206F1090140D1A7
:108EF00028464AF001FF034643B33A68DE80916892
:108F0000196000219360796002E09A8801329A80AA
:108F10000522C8F8003088F80420BDE8F883022351
:108F200088F80430037A88F80030BCF1010F08D0CB
:108F3000437A88F80130BCF1020F02D0837A88F8B6
:108F40000230002308F80530BDE8F88323680F4A93
:108F50005B68934213D02946204698473A6800231D
:108F60009268012189F804101A60FFDE02230B7158
:108F7000E7E70A462046294698470346BCE72846C5
:108F80003FF050F8EAE700BF357602003D76020078
:108F90002DE9F04745684DB18368EA88934204465D
:108FA0000E4605D01D440133A3602E72BDE8F08744
:108FB0005B00D0F800905F1CB7F5803FD9F80080C7
:108FC00012D2D8F800201549D2F808A08A4503F13A
:108FD0000A021CD1114628464AF08EFE20B1C780F5
:108FE000A36860600546DDE7D8F800300C4A5B688E
:108FF000934208D128463FF015F80122002389F852
:1090000004206360D2E7294640469847F5E72946A1
:109010004046D0470028E2D1E6E700BF357602009F
:109020003D76020003792DE9F0470C46D907054645
:1090300037D4DA0624D413F0600F1DD02E884FF6F3
:10904000FF77BE4215D0E36AF20903EBC20306F0D4
:109050007F09D3F8048008EBC900B246C6882146D0
:10906000FFF7E0FFA38E28F83930BE42A4F834A001
:10907000E9D14FF0FF332B6000232B71BDE8F0875F
:109080002A884FF6FF718A4237D0E16AA68ED0094E
:1090900001EBC00102F07F00496821F83060A28630
:1090A000C9E7A0682A6826680028C2D0824216D084
:1090B000014600680028BCD08242F9D18288013A7A
:1090C00092B28280002AB4D103680B6033680C4AE4
:1090D0005B6893420CD13EF0A5FF2B79A9E782880B
:1090E000013A92B28280002AA3D10368A360EDE71F
:1090F0000146304698472B799BE700231B80FFDE13
:109100003D7602002DE9F04F89B008AB03E903007A
:10911000069B0093002B53D01B8801939046079A1F
:109120000292DA0903F07F03DB000493019B4FF600
:10913000FF7AD200534503924FF0000540D0029BC6
:10914000D3F82C90039B09EB0302049B5768FB1890
:10915000059335D0DE8800243146CA09514509EB14
:10916000C20201F07F0004F1010405D0536813EB43
:10917000C00301D0D988F0E7AC4221D9009B1A790D
:10918000402A12D105B331462C4602E0013CD18879
:109190001BD0C1F3CF10514509EBC00001F07F0295
:1091A00003D0436813EBC202F0D19C4841464AF019
:1091B0008BFE002873D0019B534505F10105BED1FC
:1091C000002009B0BDE8F08F059A11792029ECD173
:1091D00014885445E9D0E20909EBC20204F07F018A
:1091E000546814EBC104E0D00127B4F806B08FB97D
:1091F000D345DAD04FEADB1309EBC3030BF07F0B47
:109200005C6814EBCB04D0D087F00107B4F806B04B
:10921000002FEDD02379042B5DD0052B5FD0022BDE
:10922000E6D120464AF073FE0428E1D123786E2B64
:10923000DED16378612BDBD1A3786D2BD8D1E378B5
:10924000652BD5D1D345B0D04FEADB1009EBC00078
:109250000BF07F01406810EBC101A6D00979081F0F
:10926000012801D90229A0D1002D00F0CA80304682
:109270002C4602E0013CD88835D0C0F3CF125045CF
:1092800009EBC20200F07F0103D0536813EBC10366
:10929000F0D1002041464AF017FE00288BD1CB4682
:1092A000002D00F0B080B0464FF6FF7103E0013DA5
:1092B000DA887AD09046C8F3CF1388450BEBC30306
:1092C00008F07F0203D05B6813EBC203EFD10120EB
:1092D00009B0BDE8F08F2468002CA2D188E724688B
:1092E000E0880834A0E7194608792028D1D10C88F5
:1092F0005445CED0E00909EBC00004F07F0144687A
:1093000014EBC104C5D0B4F806B08FB9D345C0D0B2
:109310004FEADB1309EBC3030BF07F0B5C6814EB24
:10932000CB04B6D087F00107B4F806B0002FEDD01B
:109330002379042B2ED0052B28D0022BE6D12046F2
:109340004AF0E5FD0428E1D123786E2BDED1637865
:10935000612BDBD1A3786D2BD8D1E378652BD5D1E8
:10936000D34596D04FEADB1209EBC2020BF07F0126
:10937000546814EBC1003FF419AF0279042A11D0EC
:10938000052A0BD0022A18BF00200FE72468E088C6
:109390000834D7E72468002CD1D1B7E754F831005E
:1093A000083003E754F8310000E7059D9D421C4654
:1093B0002CD0019F4FF6FF7107E05B6803EBC00301
:1093C000A34209D03746DE881D46F3098E420BEBD7
:1093D000C30306F07F00F0D10197EA804FF6FF73D8
:1093E0009A4208BFDDE90032029D08BF5A8020463C
:1093F0002946FFF717FEAB8E23800120A5F83480A5
:1094000066E7059970E7DDF80480059C009B1E80E7
:109410004FF6FF7332460193E0E700BFC4A3070095
:109420002DE9F04F0E46097885B02B29009000F009
:10943000FD802D2940F0B88071780120019006440C
:10944000A1F13000C0B2092800F2B680DFF8F8932D
:10945000C0B20021002400254FF0993816F801BF52
:109460002418ABF13007FFB241EB05054FEA850E3A
:10947000092F6FEA07024FF0FF334FEA840C4EEAE0
:10948000947EF8B24FF0000100F21E81A94508BF9A
:10949000A0450BD31CEB040C4EEB050E1CEB0C048F
:1094A0004EEB0E05AB4208BFA242D7D24FF0000AE6
:1094B0000023204629460A2249F056FAA946A0462A
:1094C0001FFA8AF3B9F5200F03F1010A08BFB8F1BA
:1094D000000F04460D460FFA8AFAE9D2092F0BD87D
:1094E00002339B1B06EB030A16F801BFABF13002F7
:1094F000092A0FFA8AFAF5D9BBF12E0F00F0B680CF
:109500000BF0DF03452B60D0BBF1000F56D10AF101
:1095100026034C2B00F2FC80002D08BFB4F5000F91
:1095200080F0F68007EE904ABAF1000FF8EEE77A85
:1095300040F36481BC4B1AF0010F1CBF93ED007A1D
:1095400067EE877A5FEA6A0223D0D00744BF93EDC3
:10955000017A67EE877A5FEAAA021AD0D10744BF80
:1095600093ED027A67EE877A5FEAEA0211D0D207BA
:1095700044BF93ED037A67EE877A5FEA2A1A08D030
:10958000BAF1010F0CBF93ED047A93ED057A67EE03
:10959000877A019B0BB1F1EE677A009A0123C2ED45
:1095A000027A137010460DE000200190A1F1300006
:1095B000C0B209287FF64AAF2E2953D0009A002363
:1095C0001370104605B0BDE8F08F96F801B0BBF1FE
:1095D0002D0F36D0BBF12B0F00F0F080ABF1300334
:1095E000DAB2092A06F101068ED80AEB0302B2F5B7
:1095F0009A7F00F3D780002706E002EB400303EBDD
:109600000A02B2F59A7F79DC16F801BFABF130029D
:10961000D1B2092903EB8300EFD9002F40F0C780B6
:109620009A44BBF1000F3FF472AFC7E77178002096
:109630000190A1F13000C0B2092806F10106BBD8A3
:1096400004E796F802B0ABF13003DAB2092A06F16A
:1096500002063FF659AF0AEB0302B2F59A7F4FDCE0
:109660000127D1E7002400254FF0000A96F801B049
:10967000ABF13000C0B2092806F101063FF640AF59
:109680006A4B4FF099329D424FEA850108BF9442E0
:109690004FEA840741EA94710ED23F1945EB01016C
:1096A00017EB070841EB01090AF1FF3A18EB000438
:1096B0000FFA8AFA49F1000516F801BFABF1300044
:1096C000C0B20928DFD91BE7BBF1000F40F0D28000
:1096D000019B8BB1B5F1004F08BF012CBFF4E6AE82
:1096E000644265EB45050223009A1046C2E9024533
:1096F000137005B0BDE8F08F0323F5E7002F51D0BC
:1097000000994FF00042012308468A600B7059E728
:109710002046294648F04CFCBAF1000F79DD444C54
:109720001AF0010F7AD15FEA6A032DD0DF0700F14A
:109730008D805FEAAA0327D0DE0700F18C805FEA04
:10974000EA0321D0DD0700F18B805FEA2A131BD0EA
:10975000DA0700F18A805FEA6A1315D0DB073ED48E
:109760005FEAAA1310D0DF073ED45FEAEA130BD0FA
:10977000DE073ED45FEA2A2306D0DD0744D45FEA41
:109780005A231CBF2B490020019B13B101F1004358
:109790001946009A0423C2E902011046137005B06D
:1097A000BDE8F08F019B0020BBB12349F1E7AAEB94
:1097B000030ABBF1000F3FF4AAAEFFE696F802B031
:1097C000ABF13003DAB2092A06F102067FF60DAFDB
:1097D000BBF1000F3FF49BAEF0E61849D9E7D4E99E
:1097E0000A2348F01BFCBBE7D4E90C2348F016FC25
:1097F000BBE7D4E90E2348F011FCBBE7CAF1000A2D
:109800003FF4C7AE0E4B96E6D4E9102348F006FCB1
:10981000B5E7CAF1000AB7D00A4C81E7D4E90023C2
:1098200048F0FCFB7FE700BFB88B07009999010067
:10983000188C07000000F87F0000F0FF0000F07FA8
:10984000A08B0700D08B070099999919D4E90223BE
:1098500048F0E4FB6DE7D4E9042348F0DFFB6EE752
:10986000D4E9062348F0DAFB6FE7D4E9082348F08F
:10987000D5FB70E7B5F5801F08BF002CBFF416AE0E
:109880004FF0000A38E600BF10B58AB000240A463F
:109890000123014601A8ADF804408DF8064029F0E7
:1098A0006BF808B90AB010BD01A82AF0BDF90AB0DA
:1098B00010BD00BF38B5234C206800BB224C206887
:1098C000E0B123F047FE002835D1206823F02CFEBC
:1098D000A0B1206823F028FE26F09CFF1B4A1368E5
:1098E000B3F57A7F0ADA48B119490C68A04205D06D
:1098F000184C086044F823000133136038BD27F08A
:10990000BDFF154B1A688242F8DA104D18603EF020
:1099100047FB2B68114AB3F57A7F1060EEDA2068B6
:109920000B4C27F0C5FF2B680A4920605A1C41F8F0
:1099300023002A6038BD206823F008FE28F0E0FCF0
:10994000CCE700BF382701201C0301204C16012062
:109950005C160120AC0601203427012014230120CD
:1099600010B5064C206838B123F0F4FD20B920680A
:10997000BDE8104023F0D8BD002010BD1C0301201D
:1099800010B5064C206838B123F0E4FD20B1206802
:10999000BDE8104023F0DABD002010BD1C030120FB
:1099A00070B5584B584D93F8322093F8300093F827
:1099B0002F1093F8314094B0049293F82E20CDE903
:1099C0000204CDE9002106A8504A9B8D18214AF0D7
:1099D000ABF92A68002A3DD04D4B4E491878002833
:1099E00008BF0B46002106ACCDE910114A480C9483
:1099F0000E934A4C4A4B13910D9412900F931046BC
:109A000027F05AFF2C681090002C50D0204627F0E9
:109A1000E3FF2A68434C444B1190002A08BF1C46C0
:109A2000424A434B126800924FF480610CAA4148AD
:109A3000139414F015FA00213F4829F0F5F93D4937
:109A40003D484FF4806229F0B9FB3B4829F052FBB6
:109A500014B070BD394C2068002837D023F04EFD7B
:109A6000374E03462068002B18BF1E4623F076FDB4
:109A7000002306A92A680C91CDE9103327491393D6
:109A8000254B0E960F900D911293002AB7D12068A6
:109A900000282CD023F05EFD48BB206823F044FD55
:109AA00028B326F0BBFE2C681090002CAED1234EBC
:109AB000306818B323F04EFDB0B9306823F034FDA0
:109AC000044688B126F024FF2A68A3E706AB1C4AA7
:109AD0000C931C4B114E10491090CDE90E231190A0
:109AE00013900D961291D2E72A68204692E7FFF76D
:109AF00047FF002886D028F005FC83E70A4C119028
:109B00008EE700BF2006012038270120D07707000C
:109B100024270120C8770700F8620020186300207E
:109B200090010120C0770700B87707004C1601208C
:109B3000AC06012098E90020680301201C030120E5
:109B4000A8770700C4A30700114B186808B127F0D5
:109B5000BBBE10B50F4C2068B8B123F0FBFC38B980
:109B6000206823F0E1FC18B1BDE8104026F036BEB5
:109B7000206850B123F0EEFC38B1206823F0E6FCF9
:109B800018B1BDE8104028F09FBB002010BD00BFF9
:109B9000382701201C030120034B186808B127F067
:109BA00069BEFFF7D1BF00BF38270120114B1868ED
:109BB00008B127F08DBE10B50F4C2068B8B123F066
:109BC000C9FC38B9206823F0AFFC18B1BDE81040DB
:109BD00026F008BE206850B123F0BCFC38B12068E4
:109BE00023F0B4FC18B1BDE8104028F071BB002090
:109BF00010BD00BF382701201C030120114B18683D
:109C000008B127F03BBE10B50F4C2068B8B123F067
:109C1000A1FC38B9206823F087FC18B1BDE81040DA
:109C200026F00ABE206850B123F094FC38B12068B9
:109C300023F08CFC18B1BDE8104028F04DBB00208B
:109C400010BD00BF382701201C030120114B1868EC
:109C500008B127F051BE10B50F4C2068B8B123F001
:109C600079FC38B9206823F05FFC18B1BDE81040DA
:109C700026F0E6BD206850B123F06CFC38B12068B6
:109C800023F064FC18B1BDE8104028F03FBB9FED05
:109C9000030A10BD382701201C030120000000002A
:109CA00038B51D4B1B68044663B1012821D002283A
:109CB00024D0032801D0002038BD1846BDE8384024
:109CC00027F07ABE154D28680028F4D023F042FC16
:109CD0000028F0D1286823F027FC0028EBD0012CC5
:109CE00011D0022C13D0032CE5D1BDE8384026F06A
:109CF0000BBE1846BDE8384027F056BE1846BDE8F2
:109D0000384027F055BEBDE8384026F0F5BDBDE827
:109D1000384026F0F5BD00BF382701201C03012084
:109D200038B51D4B1B68044663B1012821D00228B9
:109D300024D0032801D0002038BD1846BDE83840A3
:109D400027F046BE154D28680028F4D023F002FC09
:109D50000028F0D1286823F0E7FB0028EBD0012C85
:109D600011D0022C13D0032CE5D1BDE8384026F0E9
:109D7000BFBD1846BDE8384027F022BE1846BDE8F2
:109D8000384027F021BEBDE8384026F0A9BDBDE827
:109D9000384026F0A9BD00BF382701201C03012050
:109DA0002DE9F041604B196800298AB02DDD5F4B29
:109DB0000093012929D003F1A8020229019224D09D
:109DC00003F5A872032902921FD003F5FC7204293F
:109DD00003921AD003F528720529049215D003F5D1
:109DE00052720629059210D003F57C72072906925B
:109DF0000BD003F593620829079206D003F5A863F8
:109E0000092908931CBFA8330993684616F084FFFC
:109E1000061E5BDB464FA82303FB067393F89040B6
:109E2000002C4FD0434C206818B140F00BFC0023AD
:109E30002360414D286818B140F004FC00232B60DA
:109E40004FF44F5040F0FAFB3C4BA82404FB06743F
:109E500093ED000B0021804626F086FD94ED063B35
:109E600094ED042B94ED021B94ED000B4046C5F8D5
:109E7000008027F0E7FA94ED223B94ED202B94ED3F
:109E80001E1B94ED1C0B286827F056FB94F84030FD
:109E9000002B3DD1A82303FB067393F868205ABB1F
:109EA000286827F0CDFC286827F0B8FC20B1286886
:109EB00027F0B8FC044670B9286808B140F0C2FB2E
:109EC00000242C6020460AB0BDE8F0810024204622
:109ED0000AB0BDE8F0811A4D1A49C6EB06163144A6
:109EE00028460E224AF02DF8174A00232046AB736D
:109EF00013600AB0BDE8F08193ED183B93ED162B8B
:109F000093ED141B93ED120B286827F00BFCC7E7A9
:109F100094ED0E3B94ED0C2B94ED0A1B94ED080B85
:109F2000286827F085FBB5E7082301208928012050
:109F3000F82701201C03012038270120906200200F
:109F4000242701204C5A0120342701201B491C4A98
:109F500070B501231B4D0B70137004463EF020F8C2
:109F600019491A4A2B680C70106003B170BD184B68
:109F70001C68002CFAD1174E174A184BC6F88843B4
:109F800047F26000C6E9002340F058FB144B31460D
:109F900093ED000B2246044622F042FF114B2C6049
:109FA00093ED000A204623F0E3FA0F4B286893ED67
:109FB000000ABDE8704023F0F1BA00BF1123012070
:109FC000700401201C03012012230120142301200E
:109FD00038270120E0FD002094770700C4A3070084
:109FE00090620020486300204463002070B5284D33
:109FF000284C2B78002B41D0237C002B3CD1264CC5
:10A0000040F0D2F82068012116F0DEFC08B10023F0
:10A010002360224E40F0D2F8214B306800241C709F
:10A020002C7010B140F00EFB34601E4C206818B14B
:10A0300040F008FB002323601B4D1C4A1C481D4BAD
:10A040001D491E4E00242C60147004701C4D1D4AC6
:10A050001D481C701D4B0C702C6014600460214660
:10A060001B4834704FF0FF354FF47A621D6048F0A2
:10A0700065FF184B1C6070BDFFF792FC237C002B22
:10A08000BDD0154829F036F8134828F03FFAB6E756
:10A090001227012058030120500301201C03012036
:10A0A0007004012038270120342701208C2701204B
:10A0B0001123012012230120A806012024270120BA
:10A0C000A40601204C1601205C1601209C62002091
:10A0D000AC0601208827012068030120374B1B783C
:10A0E000002B4DD010B5364C2378013B012B86B0A8
:10A0F00047D90021334A344B127834481B68007822
:10A100008DF80410A2F10402B2FA82F252098DF81D
:10A1100005208DF806002BB12D4B1B68002BD4BFFA
:10A12000002301232B4A8DF8073001A913680293FD
:10A1300003A814F019FD9DF80C40FCB93DF030FF68
:10A14000254A264B1268801A984217D99DF80D307F
:10A150001BBB234B1A784AB33DF022FF214A049BD4
:10A160001268801A984209D39DF8143013B11E4B1F
:10A1700001221A70FFF73AFFFDF74CFD06B010BD43
:10A180007047134B186814F0E9FC58B9217801396D
:10A1900001298CBF00210121ACE7114A114B147039
:10A1A0001C60EBE7032323700021A3E701221A7050
:10A1B0003DF0F6FE0B4B1860E0E700BF11230120D5
:10A1C00012230120F8E40020382701206D06012029
:10A1D00040270120A0060120142301201FBF0200F8
:10A1E000A8060120A40601201791002038B5354D9E
:10A1F0002B6801335DD1344B1B78002B59D1334B85
:10A2000033491B68334A9B680C681268324992686C
:10A210000868191B0029C8BF1C46111B8368002948
:10A22000C8BF14461A1B002AC8BF1C463DF0B8FE22
:10A2300040F6B733001B98423BD9284B1B68B3F557
:10A24000FA7F1ADC264B93ED007AF2EE047AB4EE34
:10A25000E77AF1EE10FA2CDB2249234A01230B7036
:10A2600013703DF09DFE214B2149224A1B68086076
:10A2700002211170F3B1052314E01A491A4A01238F
:10A280000B7013703DF08CFE184B1949194A1B686E
:10A2900008600321117023B9174B1B680BB9FDF738
:10A2A0002BFB0623154A2B60136803F59C530833D8
:10A2B000136038BD104B1B68002BDCD1FDF71CFB75
:10A2C000D9E700BF98620020E40101205861002016
:10A2D000902001205C610020606100204027012067
:10A2E000A006012011230120700401201C0301207D
:10A2F000142301201223012038270120E403012028
:10A3000030B5374C23680F33042B87B001D907B021
:10A3100030BD3DF045FE334D0146284613F088F828
:10A320000028F4D0304A314B126819688A4204D0B0
:10A330002F4991F8280000282FD13DF031FE014629
:10A34000284813F075F80128E1D03DF029FE0146B8
:10A35000244813F09DF82A78042A11D821686FF058
:10A360000A039B1A8B4232D0224A00211160224AF2
:10A370002360136803F59C530833136007B030BDA6
:10A380002368013323D01B4B00221A603DF008FEE6
:10A390001A4A4FF0FF331060E9E791ED000B91EDA1
:10A3A000021B91ED082A1A608DED040B8DED001B48
:10A3B0008DED032A3DF0F4FD9DED001B01469DED62
:10A3C000040B9DED032A284612F0EEFFB5E70A4A7A
:10A3D000136803F59C530833136007B030BD00BF0A
:10A3E000986200209061002070060120080301207F
:10A3F000200601209C200120E40301209020012060
:10A4000070B51C4D8AB0002428460894CDE902445A
:10A41000CDE90444CDE90644CDF8234030F004FFF3
:10A4200002462846019230F001FF1F26019A01469C
:10A4300002A848F05BFD02A93246284630F0F8FE3B
:10A440003C352146324602A848F078FD284630F0D7
:10A45000EBFE0190284630F0E9FE019A014602A881
:10A4600048F044FD324602A9284630F0E1FE0AB029
:10A4700070BD00BF3C7201202DE9F0411E4D2B78CC
:10A480004BB901210C2041F069F8BDE8F0410121F0
:10A490000C2041F0E7B81948002130F003FF1748BD
:10A4A00030F0C6FF164833F0DBFEE0B9144EDFF89B
:10A4B0005880144F0524304633F0D2FE0346322034
:10A4C0002BB1C8F800763DF077FD013CF3D12B7835
:10A4D000002BD6D00A48002133F098FE084800210E
:10A4E00033F098FECDE7064833F0EEFE014604480F
:10A4F00033F0D4FEDAE700BF200201203C720120D5
:10A50000FC6B01203546526E000001402DE9F047FA
:10A51000544E554D3768D7F80080404641F0C0F89A
:10A52000034645F0010503244FF4FA405BB9012CC2
:10A5300074D0A847404641F0B3F80346013C4FF4BD
:10A54000FA40002BF3D001237B71484F464DD7F8DA
:10A550000080D8F80090484641F0A2F8034645F044
:10A56000010503244FF4FA405BB9012C66D0A847DB
:10A57000484641F095F80346013C4FF4FA40002B61
:10A58000F3D0012388F80530DFF8EC90364DD9F888
:10A590000080D8F800A0504641F082F8034645F00C
:10A5A000010503244FF4FA405BB9012C22D0A847DF
:10A5B000504641F075F80346013C4FF4FA40002B39
:10A5C000F3D0012388F8053033681B793BB1284A62
:10A5D000136803F59C5308331360BDE8F0873B68AC
:10A5E0001B79002BF3D1D9F800301B79002BEED169
:10A5F000BDE8F0873DF0D4FC98F80530002BE3D09F
:10A600001C4BD8F808201B68801A9842DCD33DF018
:10A61000C7FCA8F80440C8F80800D5E73DF0C0FC26
:10A620007B79002B91D0134BBA681B68801A984233
:10A630008BD33DF0B5FCBC80B86086E73DF0B0FC44
:10A6400098F80530002B9FD00A4BD8F808201B68DB
:10A65000801A984298D33DF0A3FCA8F80440C8F8AB
:10A66000080091E758610020609107005C610020BC
:10A67000E40301204C61002060610020424B1B6814
:10A680002DE9F0411E68414D304641F009F803467E
:10A6900045F0010503244FF4FA405BB9012C0BD0BF
:10A6A000A847304640F0FCFF0346013C4FF4FA4017
:10A6B000002BF3D0002600E02646354B334D1B68B7
:10A6C0001F68384640F0ECFF034645F001050324BF
:10A6D0004FF4FA405BB9012C0BD0A847384640F044
:10A6E000DFFF0346013C4FF4FA40002BF3D0002576
:10A6F00000E02546274B254F1B68D3F800804046D5
:10A7000040F0CEFF034647F0010703244FF4FA4020
:10A710005BB9012C0AD0B847404640F0C1FF034660
:10A72000013C4FF4FA40002BF3D000249EB11A4EA6
:10A730003378DBB165B1194D2B78F3B124B1184CE6
:10A7400023785BB1BDE8F081154B1C70BDE8F0814A
:10A75000124B1D70F2E7104B1E70EBE73DF020FC32
:10A76000104A012310602370BDE8F0813DF018FC11
:10A770000D4A012310603370DCE73DF011FC0B4AF9
:10A78000012310602B70D9E7586100206091070009
:10A790005C61002060610020E5020120EC020120E4
:10A7A000F4020120F8020120E8020120F002012059
:10A7B00038B50F4A0F4B126819688A4215D00E49F6
:10A7C0001A6000230B6001220C4C0D4B2046002523
:10A7D0001A70E57635F044FD2046012135F06CFA1B
:10A7E0004FF00113C4E9045338BD0022ECE700BF69
:10A7F00098620020641601209C2001208C03012017
:10A800001823012038B504460130094D07D0094A04
:10A810002C60136803F59C530833136038BD2B6814
:10A820000133F4D03DF0BCFB034B1860EFE700BFF1
:10A8300098620020E4030120902001201A4A136846
:10A840000E2B28D00D2B15D0083312D0174B1849DA
:10A8500093ED007A0B68F1EE047AB4EEE77AF1EE4C
:10A8600010FA03F59C5394BF0B200A2008331060A4
:10A870000B6070470F4B10491A680B68013A9A42F7
:10A880000B4A14BF013300230B60136803F59C537C
:10A8900008331360704706490B6803F59C5308336F
:10A8A0005A200B601060704798620020A0060120BB
:10A8B000E4030120E862002054030120F8B51B4D99
:10A8C0001B4F1C4E1C4C1D491D4A1E4800233B704B
:10A8D00033702B701C4D23700B701C4C13701C4973
:10A8E0001C4A2B701C4D236013600B801B4C1C49B1
:10A8F000027C2B604FF0FF3525600B8092B9194C1C
:10A90000237803B9F8BD184D3FF04EFC28680321A9
:10A9100016F05AF808B100232B603FF04FFC0023DB
:10A920002370F8BD103027F0F1FDE8E79D6C0020A2
:10A9300081D40020E66B0020C36D0020C26D002092
:10A94000E56B0020FCD3002080D400203CE50020F3
:10A9500040E50020A06C0020E88D0020B8600020B9
:10A96000BC6B0020DAD40020500301200378462B72
:10A9700001D00020704710B54378572B044627D1EB
:10A980001449082249F0CBFA08B9012010BD124938
:10A990000622204649F0C3FA0028F6D00F49204687
:10A9A00049F092FA0028F0D00D49204649F08CFA7F
:10A9B0000028EAD00B49204649F086FA0028E4D066
:10A9C0000949204649F080FAB0FA80F0400910BDEC
:10A9D000002010BDF0770700FC770700047807001F
:10A9E0000C780700147807001C7807002DE9F04365
:10A9F00062498DB00822044649F091FA00284CD1F2
:10AA00005F4F3B7803F0FF06002B51D108342046FE
:10AA10002C2149F04CFA00284AD000F1010948469F
:10AA20002C2149F044FA0546002841D020460A224C
:10AA300031464AF041FAA5EB0903082B80464AD17A
:10AA4000D9F80000D9F8041002AB03C302A801A989
:10AA50008DF8106013F008F900283CD008F1FF339E
:10AA6000B3F5CC2F56D26878013590B1DFF85C9100
:10AA70006E264AF02BFA044630464AF027FA844202
:10AA800007D115F8010F00285DD019F8016B002ED1
:10AA9000EFD13C48FCF7A4FD0DE03B4906222046DF
:10AAA00049F03DFA50B9364B1B78012BDDB218D076
:10AAB0003648FCF795FD0DB0BDE8F08334492046DB
:10AAC00049F002FAC8B92E4B1B78022BF0D1314B5A
:10AAD00001221A70EFE73048FCF782FD0DB0BDE8A7
:10AAE000F08301460A22A01D4AF0E6F92B4B1B68B1
:10AAF00083420FD12A4B1D70DDE72A49204649F0D9
:10AB0000E3F968B91E4B1B78032BD1D1264B0122E8
:10AB10001A70D0E72548FCF763FD0DB0BDE8F0835F
:10AB20002349204649F0D0F948B12249204649F04E
:10AB3000CBF90028BFD1204B01221A70BBE71F4B75
:10AB400001221A70B7E799F80030002BA1D1134BFE
:10AB50001B4A0198C3F8008005A901233B701060CF
:10AB600013F04CF8174A05AB08A8102149F0DCF89F
:10AB700008A982B2144831F08BF99CE7F0770700FE
:10AB800081D4002038780700FC770700247807007C
:10AB9000047807009D6C00202C780700C46D00200D
:10ABA000E66B00200C780700C36D002030780700AA
:10ABB000147807001C780700E56B0020C26D0020A8
:10ABC000A46C002040780700C80501204D780700DC
:10ABD00083490978012900D070472DE9F0411C46CE
:10ABE0009CB0804B1546CEB2412200210BA81E70AE
:10ABF00048F0A4F9402C2246294628BF40220BA841
:10AC000048F074F90BA849F082F9431E70B10BAA01
:10AC1000754F1A4412F801190A39C9B227FA01F01E
:10AC200016296FEA000003F1FF3310D96F4F3B780C
:10AC3000BBB16F490BA8052249F071F960BB062C26
:10AC40002AD86C4B01221A701CB0BDE8F08110F0BC
:10AC50000100EBD1591C5070DCD1644F3B78002BC4
:10AC6000E7D1DFF8E88198F80030022B73D0402C50
:10AC700000F28280604904220BA849F050F9B0B973
:10AC80005E4C237803F0FF05002B4BD05C495D48F8
:10AC9000042231F0FDF8D7E75B4E338814FA83F3D2
:10ACA000B3F5005F49DD594B01221A70CCE75849D2
:10ACB00004220BA849F033F9D8B1564907220BA852
:10ACC00049F02DF9002840F0C7809DF83330202B43
:10ACD0000DF1330003D110F8013F202BFBD01821D8
:10ACE00013F0AEFB98B94C494C48092231F0D0F82A
:10ACF000AAE79DF83030202B0CA803D110F8013FB3
:10AD0000202BFBD0182113F09BFB002834D03B4CA8
:10AD1000237803F0FF052BB139494048042231F074
:10AD2000B7F891E73E4B40220BA9184649F009F9C4
:10AD3000012280F84050227086E73A4B308829463D
:10AD400013FA80F0224648F0D1F8338814FA83F3DE
:10AD50009BB2338078E7082C14D833490BA849F00C
:10AD6000B3F820B131490BA849F0AEF850B92146EB
:10AD70000BA8FFF73BFE67E72D492848052231F075
:10AD800087F861E798F80030022B7FF45DAF294B1C
:10AD90001A7802F0FF00002A7FF456AFDFF8B08087
:10ADA000254AD8F8007012682744974200F2C48000
:10ADB000224A234ED2F800C0318814FA81F1B1F54D
:10ADC000805F40F2BF80DFF88CC0DCF800100131FA
:10ADD00000F0CA801B4A1C49116001221A7033E737
:10ADE000280201206AB1002009004000649100207F
:10ADF00058780700B9B3002070780700C16D0020B3
:10AE00005C7D07000005012068B10020059100204D
:10AE1000787807008078070088780700C805012047
:10AE20005C6C00206891002004780700147807000B
:10AE30006878070080D40020C46D00203CE5002025
:10AE400040E50020A06C00206078070081D400203D
:10AE5000E88D0020B8600020A7490BA849F034F81D
:10AE600000285CD0A54905220BA849F058F8002815
:10AE700055D0A34905220BA849F051F800284ED01F
:10AE8000A0490BA849F020F8002848D09E490BA8FB
:10AE900049F01AF800287AD09C490BA849F014F818
:10AEA000002874D09A4905220BA849F038F80028E8
:10AEB00000F0AA80974906220BA849F030F8002834
:10AEC00000F0A280944905220BA849F028F8002838
:10AED00000F0CD80914906220BA849F020F8002807
:10AEE00000F0C5808E4905220BA849F018F800280B
:10AEF00000F09D808B4906220BA849F010F800282D
:10AF000000F0958088490BA848F0DEFF00284BD060
:10AF10000BA8FFF72BFD00283FF496AE27E7834CE4
:10AF2000237803F0FF050BB9814BFCE68149824889
:10AF3000052230F0ADFF87E6804A81491160012289
:10AF40001A7081E67F4B03EB0C333088294613FAE5
:10AF500080F0224647F0CAFF3388C8F8007014FA20
:10AF600083F39BB233806FE63188DFF818E2754BCC
:10AF700089B2AEF800101168CCF80010116881F0A9
:10AF8000010111603080126803EB0233DDE76E4C83
:10AF9000237803F0FF05002B3FF4C4AE6B496648ED
:10AFA000092230F075FF4FE6694B186846F0DEFF66
:10AFB00003AE04460D4645EC104B324602210420F8
:10AFC0003CF0D8FF48A3D3E900232046294646F0A9
:10AFD0006DFE47A3D3E9002347F020F847F0CEFAEF
:10AFE0006428A8BF642020EAE0735A4A009618211A
:10AFF00005A848F099FE05A848F089FF05A982B286
:10B000004D4830F045FF1FE69DF82D30532B0CBF07
:10B01000062005200BAB1844182113F011FA002864
:10B02000B5D14D4944480D2230F032FF0CE64B4D6E
:10B030002B7803F0FF07002BB0D19DF82D30532B58
:10B040003ED00DF131042046182113F0F9F9002803
:10B05000E7D021463E46424B424C18221846267005
:10B0600048F06FFF0021012201762A70ECE53B7861
:10B07000002B93D13C4B1D78002D8FD19DF82D30A6
:10B08000532B27D00DF131042046182113F0D8F9A5
:10B090000028C6D021462E46344C354B354D1E7007
:10B0A0001822204648F04DFF334E344834490023DF
:10B0B0000122338023762B7003700A703A70C3E547
:10B0C0000DF132042046182113F0BAF90028A8D057
:10B0D0002146C0E70DF132042046182113F0B0F9E3
:10B0E00000289ED02146D7E76666666666660A40F7
:10B0F000721CC7711CC75B40947807009C780700DE
:10B10000A4780700AC780700BC780700C478070073
:10B11000D8780700E0780700F87807000079070082
:10B1200008790700107907001879070079B1002025
:10B1300018910020B4780700C8050120A06C0020F9
:10B1400030780700D8B30020C16D0020CC7807000C
:10B150005416012020790700E87807007CB300200E
:10B16000A0B30020F58D002029020120BCB30020EF
:10B17000F68D00200591002068B10020B9B30020B1
:10B1800006910020BC6B002008B5082209490A4836
:10B1900030F07EFEFFF792FBC8203CF00DFFFF2150
:10B1A0000020FCF7A7F857210020FCF7A1F8FCF7D6
:10B1B00089F800BF2C790700C8050120124B1349FC
:10B1C0000122002030B45A600325DA600424C3F859
:10B1D000040541F28830C3F80855C3F810454FF410
:10B1E0008035C3F8400560244FF08060C3F800222A
:10B1F000C3F8045381F81A43C1F880010860044978
:10B2000030BC0A701A60704700A0014000E100E005
:10B21000D96D002070B5304C304D314882B013F0FC
:10B2200035F940F24C43032201212E48C4F8005660
:10B230001FF0B4FE2C4BC4F8005640F24C4619786F
:10B24000284840F24C43032220F042FC33460322BC
:10B2500004212448C4F800561FF074FFC4F80056B7
:10B260000323002201211F4800961FF0ADFFC4F800
:10B2700000560323012200211A4800961FF0A4FF64
:10B28000C4F80056032302220021164800961FF03E
:10B290009BFF03231A46C4F800560021114800966C
:10B2A0001FF092FFC4F80056032300210D480096BA
:10B2B00006221FF089FF0D4BC4F80056197809B11A
:10B2C00002B070BD33460322064820F0A1FAC4F84C
:10B2D000005602B070BD00BF000001403546526EFE
:10B2E000C86D0020A0200120A4620020A5620020DB
:10B2F0004FF0102310B5D3F80C4214F0010453D1D1
:10B3000001211E2040F02AF921461E2040F0AAF912
:10B3100001211F2040F022F921461F2040F0A2F910
:10B32000314B1B7803B910BD304B9FED317AD3ED13
:10B33000007A304BF8EEE77A012127EE877A1E205B
:10B3400083ED027AC3ED017A40F08CF905203CF0E0
:10B3500033FE294835F07AFB274835F047FE26486A
:10B3600035F088FB254B264801241C7015F08AFB1C
:10B37000244B1C703CF014FE234A244B1060DB6805
:10B38000D90103D5224B1A68D2070AD43EF020F81F
:10B39000204BA0FB0301830A43EA81531E4A13603A
:10B3A00010BD5B689B09F9E71C4B0122C3F804251B
:10B3B000D3F80024002AFBD04FF010236FF00101D6
:10B3C000164AC3F80C12D2F80034002BFBD000232D
:10B3D0001249C2F80435D1F80034002BFBD00A2002
:10B3E0003CF0EAFDFBF76EFF3C6300204063002069
:10B3F000EC51783FD8600020E0E40020DCE400203D
:10B40000E86B00201591002074B10020F0ED00E001
:10B41000001000E040420F00F08D002000E00140ED
:10B42000104A114B114810B50021114C11704FF406
:10B430007A621960216047F081FD0E48037C6BB988
:10B440000D4C3EF0B1FE2068022115F0BDFA08B1A6
:10B4500000232360BDE810403EF0B0BE103027F05E
:10B4600055F8EDE7102701205C160120AC060120FD
:10B470004C1601201C230120500301202DE9F0432C
:10B480000024BDB0374B049401464FF47A75224630
:10B4900007A8ADF81C408DF81E400595039327F0D2
:10B4A00073FA20B9002528463DB0BDE8F0832E4947
:10B4B0004FF4806207A827F0C7FA064607A827F0CE
:10B4C00025F8B6F5806FEDDB284E009502A90191B5
:10B4D00025480294334610AA4FF4806112F088FD8B
:10B4E00005460028DFD0224BDFF89880214FDFF897
:10B4F000989010A91846172248F023FD03461F22F2
:10B50000404616A9DC7548F01CFD88F81F403846F7
:10B51000DFF878801F221EA948F013FDFC770F2268
:10B52000154F26A9484648F00CFD0F222AA940468F
:10B5300089F80F4048F005FD0F2238462EA988F8FB
:10B540000F4048F0FEFC029A0C4BFC731A6012B1DB
:10B55000013A56F822200A4B28461A603DB0BDE851
:10B56000F08300BF4C8B070098E50020AC0601205B
:10B5700018040120F8030120500401204C1601207A
:10B580005C1601203004012060040120E803012042
:10B5900070B50C4E05463EF007FE3068294615F0A2
:10B5A000FBF9044620B93EF009FE3368204670BD21
:10B5B0002946306815F000FA30603EF0FFFD204665
:10B5C00070BD00BF5003012030B5254B1C788BB0F7
:10B5D00004BB05460320FFF7DBFFD8B12149ADF8D6
:10B5E000044001A823462A468DF8064027F0C4F9F6
:10B5F000B8B11C49ADF804402A46012301A88DF8D2
:10B60000064027F0B9F9F8B917491848072230F071
:10B610003FFC0BE016491548042230F039FC0BB012
:10B6200030BD14491148092230F032FC124C3EF072
:10B63000BBFD2068032115F0C7F908B10023236082
:10B640003EF0BCFD0BB030BD01A828F0EDFA00289B
:10B65000DAD00A490548072230F01AFCE6E700BFB5
:10B6600029020120D466002038790700C80501208E
:10B670005C7D0700887807005003012040790700AF
:10B6800010B5084C82B001903EF08EFD2068019903
:10B6900015F09AF908B10023236002B0BDE810400C
:10B6A0003EF08CBD500301202DE9F0433E4B3F4C52
:10B6B0003F49D3F800803F4D3F4E0128BDB004BF45
:10B6C00025460E46B8F1000F54D107460320FFF778
:10B6D0005FFF00284ED0394B394A3A4C3A49CDF8F1
:10B6E0000480012F18BF1A4604A843464FF47A7706
:10B6F000ADF810808DF812800297009427F03CF985
:10B700009DF81030002B40D0DFF8C890DFF8C880DB
:10B710002E4F04E011A826F0F9FEC8F800760022AA
:10B720004FF47A7304A911A80F93CDE90D42ADF837
:10B7300044208DF8462027F045FC9DF844300BB39B
:10B7400013F0D00FE6D11AA9402211A828F090FEDC
:10B750001AAB2AA82A46462148F0E6FA431E442B93
:10B76000D8D882B22AA9484630F092FB0A203CF091
:10B7700023FCCFE7164917480C2230F089FB3DB077
:10B78000BDE8F08304A826F0C1FE0320FFF778FF90
:10B79000304648F0BCFB314682B20E4830F078FBB0
:10B7A0003DB0BDE8F08300BF500301205C79070085
:10B7B000687907004879070054790700B08C0700C2
:10B7C000249107004C8B0700D46600203546526E4A
:10B7D00070790700C8050120000001402DE9F047FD
:10B7E0003C4B1C68ADF5287D24B90320FFF7D0FE43
:10B7F000054640B938493948042230F049FB0DF577
:10B80000287DBDE8F0872346354E364A36490494F4
:10B810004FF47A7707A8ADF81C408DF81E400597C5
:10B82000039627F0A9F89DF81C30002B4ED0DFF8C6
:10B83000CC90DFF8CC802D4F05E014A826F066FEF2
:10B840002B4BC3F8007600224FF47A7307A914A893
:10B85000CDE91062ADF850208DF85220129327F0F8
:10B86000B1FB9DF8504014B314F0D004E5D10DF1B4
:10B87000740A51464FF4807214A828F0F9FD1B9AFF
:10B880000192002D14BF4B4643461A4ACDF800A042
:10B890004FF496715DA848F047FA5DA982B20F484F
:10B8A00030F0F6FA0A203CF087FB2546C5E707A8EA
:10B8B00026F02CFE0320FFF7E3FE0F490748032282
:10B8C00030F0E6FA0DF5287DBDE8F0870320FFF79C
:10B8D000D7FE8FE7500301205C7D070000050120A3
:10B8E0004C8B07009C770700D46600203546526ECB
:10B8F000000001408479070090790700C4A3070085
:10B9000080790700F0B52E4E337C8FB00446002BB3
:10B9100051D10320FFF73CFE002845D000272246E6
:10B92000284C294901943B464FF47A7505AC05A88B
:10B9300003950297ADF814708DF8167027F01CF877
:10B94000A446BCE80F00214D029C74600FC5BCE802
:10B950000F000FC5DDE90321337CDCF8000028600F
:10B96000C6E90221B3B11A48F36A1A4A1A490360B8
:10B97000012017600870194A202101A848F0D4F965
:10B9800001A848F0C4FA01A982B2154830F080FA43
:10B990000FB0F0BD0320FFF773FE124910480522D7
:10B9A00030F076FA0FB0F0BD0F490D48042230F0A8
:10B9B0006FFA0FB0F0BD06F1100026F0A7FDA8E762
:10B9C000E80101204C8B0700D4660020F80101201B
:10B9D0001C020120E00101202902012094790700C6
:10B9E000C8050120687807005C7D07002DE9F04F4D
:10B9F0001F4C85B004F26C4980464F4604F2444B1C
:10BA0000A246032501AEFF220023CDF80880ADF841
:10BA10000420039396E80E00384629F0C7FF94F8F7
:10BA20007E341348C4F8689401223946BBB928F023
:10BA3000D1FF60B1584626F069FD0E48514626F008
:10BA4000E5FF60B10C4B1C6005B0BDE8F08F03460C
:10BA500002463946064828F0BDFF0028EAD1642096
:10BA60003CF0AAFA013DCED1284605B0BDE8F08FE2
:10BA7000D4660020186B0020945F012038B5284858
:10BA8000284A037C0024147053BB274A274B002408
:10BA900014701C70FEF712FF254A264B26481470BE
:10BAA00021461C702FF0FEFB244832F0D9FB78BBF6
:10BAB00021482FF0BDFC224B1B7803BB01210C2039
:10BAC0003FF04CFD01210C203FF0CCFD1D491E4AEA
:10BAD0001E4800230B701370BDE83840FFF786BF87
:10BAE0001B4D103026F012FD3EF05EFB286803214E
:10BAF00014F06AFF00B12C603EF060FBC5E70F4810
:10BB0000002132F083FB0D48002132F083FBD5E7A2
:10BB10000A4832F0D9FB0146084832F0BFFBC7E7BC
:10BB2000E8010120DC010120290201206AB1002086
:10BB3000C16D002079B100203C720120FC6B012016
:10BB400020020120E40101202802012080841E003F
:10BB50005003012008B5054B1B780BB1FFF78EFF92
:10BB600064203CF029FAFBF7ADFB00BFDC010120AB
:10BB7000F0B5244D244F002387B028463B70FFF7D3
:10BB800035FF044610B1204607B0F0BD1F4E0495A6
:10BB9000FF230590ADF80C3006F26C4506AB13E9B7
:10BBA0000E00284629F002FF96F87E34C6F8685445
:10BBB000002BE8D1D6F86C3428469B6998470028BA
:10BBC000E1D0D6F86814019123460122304628F0CE
:10BBD00001FF019960B10E4826F098FC0B4901F273
:10BBE000444026F013FF50B10A4B04461E60CAE7DA
:10BBF00023462246304628F0EDFE0028EBD10123F3
:10BC00003B70C0E780841E0011270120D46600200D
:10BC1000186B0020945F012010B58AB000231A4AE7
:10BC20001A49ADF8043001A88DF8063026F0A4FEBC
:10BC300060B90446ADF80400134A15498DF8064072
:10BC4000012301A826F070FD044658B10023114AD3
:10BC50000E49ADF8043001A88DF8063026F08CFEB0
:10BC6000044610B120460AB010BD0A4A0849ADF892
:10BC7000044001A801238DF8064026F055FD01245B
:10BC800020460AB010BD00BFB08C0700D46600206B
:10BC9000186B0020249107002DE9F04F3D4E3E4DDA
:10BCA00096F800C015F80C308DB05BB302ABDFF82E
:10BCB00004A1DFF80491DFF80481DFF804B10193F7
:10BCC0000AEB0C130FCB019C19F80CE058F82C7000
:10BCD00084E80F008CF0010000233070714606AA42
:10BCE0002046CDE90633CDE90833CDE90A3305F81E
:10BCF0000C3014F069FF58B996F800C015F80C30F4
:10BD0000002BDDD1254B1B782BBB0DB0BDE8F08F90
:10BD10000DF1180EBEE80F00DFF8A8C0204CACE80B
:10BD20000F009EE803004CF8040B1E488CF800102E
:10BD300001230370BDF82A1027603A46584614F0D4
:10BD4000D5FF96F800C015F80C30002BB8D1134B76
:10BD50001B78002BD9D03CF023F9124B1A780346FC
:10BD6000A2B9024647F22F518A42CED90E4C226820
:10BD70009A1A8A42C9D90D48236030F0F1FD0B4868
:10BD8000002130F0CBFD0A4B1870BEE7044A126860
:10BD9000821AE7E7A06B0020D8D40020E46B0020D3
:10BDA0007CD40020C06D0020586C002098720120C7
:10BDB00008910020D8D30020F8D3002074D40020AC
:10BDC00030E50020A46B002070B5144C237813B923
:10BDD0009FED130A70BD134D2E683CF0E1F801464B
:10BDE000304614F06DFF0028F2D023781BB90E4BBB
:10BDF00093ED000A70BD2C683CF0D2F80146204655
:10BE000014F05EFF0028F2D03CF0CAF80146074863
:10BE100014F076FF0028EAD1DAE700BFC06D0020F9
:10BE20000000C07F7CD40020A46B002030E50020FF
:10BE30002DE9F041A94F3B7898B013B918B0BDE88F
:10BE4000F0813CF0ADF8A64A1368C31A202B0646D1
:10BE5000F4D9DFF8E4821060D8F80000002843D05D
:10BE600025F0E4FC8DF83800FDF76EFED8F80030C0
:10BE70008DF83900002B00F00281184625F08AFD6C
:10BE80000F90FDF7BBFED8F800301090002B00F0AB
:10BE9000F080184625F00CFD119012AD00240134FD
:10BEA0002046FDF7FDFE45F8040B2046FDF738FF60
:10BEB000032CA860F3D18B480EA914F0EFFD20B33A
:10BEC0003B7813B3884B01221A703CF069F8874A1B
:10BED000874B1060DB68D9010DD5864B1A68D207F5
:10BEE00009D55B689B090EE0FDF73AFD0028B9D043
:10BEF00024F032FDB6E73DF06BFA7F4BA0FB030167
:10BF0000830A43EA81537D4A13607D4C2378002BDA
:10BF100040F09780744C2378002B40F09E800EA850
:10BF200014F034F9774B1B78002B67D1764B1B78D4
:10BF3000002B63D1754B1D78002D5FD0FDF704FEFB
:10BF4000002800F0AC80FDF759FE002840F3A780E0
:10BF5000D8F8003023B1FDF71FFE002800F09F80C5
:10BF600007ACFDF773FE204614F0CCFA684F97ED4E
:10BF7000000A0FCCCDF83B00CDF83F1003CCCDF834
:10BF800047302388CDF84320A478CDF84B00B8EE95
:10BF9000C00ACDF84F10ADF853305E495E488DF8B9
:10BFA00055403346012214F0F3FBC0F30722C0F3DF
:10BFB00007438DF839208DF83A308DF83800FFF7B7
:10BFC00003FF10EE103A03F0FF42B2F1FF4F04D12D
:10BFD000C3F31603B3FA83F56D0933462A464F4976
:10BFE0004F4814F0D5FBC0F30722C0F307438DF888
:10BFF00056008DF857208DF8583004E04549474ADF
:10C0000000230B701370474B474E19780EA814F09D
:10C01000F9F80EAC0025284614F0B4F8A378009384
:10C020006378227881B20135304634F0B9FF0B2DA8
:10C0300004F10304EFD13C4834F01CFD18B0BDE816
:10C04000F0813A4A3A4B10681968301A0EAA13F078
:10C05000D1FD20700028D6D15CE7244A274B106818
:10C060001968301A0EAA13F0A1FE20700028CAD158
:10C0700055E7FDF775FC50B124F0CCFB0CE7FDF75C
:10C080006FFC00283FF4FCAE24F062FCF8E6FDF7FC
:10C0900077FC00283FF400AF26F032F9FCE6254B90
:10C0A0001B4FD3ED007A97ED000A0023F8EEE77AF4
:10C0B00007AC0593029306934FF07C52FF23B8EE32
:10C0C000C00A02A82146CDED037A04928DF81530FE
:10C0D0008DF8173014F082FA49E700BFDCE4002045
:10C0E000DC8D0020E86B0020F48D00200091002002
:10C0F000F0ED00E0001000E040420F00AC6C0020CA
:10C1000015910020DC010120E25A012011230120B9
:10C1100040270120D86B0020D8600020D46B00207D
:10C12000C46000203C630020E0E4002074B10020E3
:10C13000F08D0020406300203827012070B5144C9A
:10C14000237813B99FED130A70BD134D2E683BF091
:10C1500027FF0146304614F0B3FD0028F2D02378C3
:10C160001BB90E4B93ED010A70BD2C683BF018FF14
:10C170000146204614F0A4FD0028F2D03BF010FF49
:10C180000146074814F0BCFD0028EAD1DAE700BFF9
:10C19000C06D00200000C07F7CD40020A46B002074
:10C1A00030E5002070B5144C237813B99FED130AC5
:10C1B00070BD134D2E683BF0F3FE0146304614F07F
:10C1C0007FFD0028F2D023781BB90E4B93ED020AB5
:10C1D00070BD2C683BF0E4FE0146204614F070FD73
:10C1E0000028F2D03BF0DCFE0146074814F088FD41
:10C1F0000028EAD1DAE700BFC06D00200000C07F50
:10C200007CD40020A46B002030E50020000000005A
:10C210002DE9F04F9A4C9B4A94F828302DED0A8B6B
:10C220000021ADF5277D1170002B00F08980964D1F
:10C230002E68002E00F0E280944B94ED042A1978C9
:10C24000D4ED052A94ED000B94ED021B002940F07B
:10C25000EC8030468DED121B8DED100BCDED152AC7
:10C260008DED142A20F020FE9DED121B9DED100B8C
:10C27000DDED152A9DED142A286820F029FF94F899
:10C280002830002B5CD0824B1B78002B46D0814B92
:10C290001B78002B42D0804E3378002B59D0206978
:10C2A00045F064FE02460B46A06943EC182B45F0AE
:10C2B0005DFE02460B466069676A43EC1A2B45F047
:10C2C00055FE6DA3D3E9002345F0A8FE94ED00CB05
:10C2D00094ED02BB56AD41EC190B284685ED089B49
:10C2E00085ED048B85ED06AB85ED00CB85ED02BBBE
:10C2F000AF6212F0DDFA002840F0E080674D3BF0BD
:10C300004FFE2A6842F21073801A984206D93BF019
:10C3100047FE034662482B6026F0ECFE6069614CE4
:10C3200045F024FE54A3D3E9002345F077FE46F000
:10C330006DF920600DF5277DBDEC0A8BBDE8F08F0F
:10C34000534B1B78002BE9D0524B1B78002BE5D0C8
:10C35000514E3378002BE1D194F82930002BDDD0F9
:10C36000514D3BF01DFE2B68C01AB0F57A7FD5D336
:10C370003BF016FE034601202B60FFF709F9002869
:10C38000CCD094F82F2094F82E3094F8310094F803
:10C3900030100291CDE900320390444FA38D444AFE
:10C3A000502166A847F0C0FC66A907F1100040F2D2
:10C3B000016226F0E9FA3B7C002B00F0DA8156ADF1
:10C3C000284640220A2146F0B9FD07F110084FF433
:10C3D00080673F2F3A462946404640F2A0814022DE
:10C3E00026F0ECFE402840F0C181403FF1D13149B8
:10C3F0002E483AF045FE012333708FE72E4D2E680C
:10C40000002E3FF440AF214B197849BB304625F050
:10C4100015F894ED021B94ED000B2868D4ED052A65
:10C4200094ED042A24F060FB29E794F83110A38EE0
:10C4300094F8322094F83000CDED152A8DED121BC2
:10C440008DED100B8DED142A12F0BAF89DED100B46
:10C450009DED121B9DED142ADDED152A0146F8E62F
:10C4600094F83110A38E94F8322094F8300012F032
:10C47000A7F80146CAE700BF0B410E4A9869F23F90
:10C4800020060120580601201C0301206C06012013
:10C4900020270120700401201227012058160120B6
:10C4A00068030120A0060120601601205803012026
:10C4B000DC790700FC790700382701203AAA082117
:10C4C000B0EE4C0AF0EE6C0A01203BF053FDB0EEEA
:10C4D0004B0AF0EE6B0A40AA082101203BF04AFD0E
:10C4E000B0EE4A0AF0EE6A0A012117AA08463BF0AC
:10C4F00041FDB0EE490AF0EE690A32AA022101209C
:10C500003BF038FDB0EE480AF0EE680A36AA022188
:10C5100001203BF02FFDE06945F028FD1AAA41EC0F
:10C52000100B022101203BF025FD206A45F01EFD85
:10C530001DAA41EC100B022101203BF01BFD8F4B8B
:10C54000186845F013FD20AA41EC100B03210120CF
:10C550003BF010FD8A4B186845F008FD23AA41EC1A
:10C56000100B032101203BF005FD864B186845F0B8
:10C57000FDFC26AA41EC100B032101203BF0FAFC44
:10C58000FFF722FC10EE109AFFF7D8FD10EE10AA6C
:10C59000FFF708FE09F0FF42B2F1FF4F10EE10BAAC
:10C5A00000F0C380484645F0E1FC0DF1A40941ECE0
:10C5B000100B012108464A463BF0DCFC48460B21A3
:10C5C00012F00CFA002800F0B7800AF0FF42B2F136
:10C5D000FF4F00F0C080504645F0C8FC0DF1B00A96
:10C5E00041EC100B0121084652463BF0C3FC50467B
:10C5F0000B2112F0F3F9002800F0B4800BF0FF4299
:10C60000B2F1FF4F00F09C80584645F0AFFC0DF1B1
:10C61000BC0B41EC100B012108465A463BF0AAFC2A
:10C6200058460B2112F0DAF9002800F090803AAB5E
:10C630004C9340AB4D9317AB4E9332AB4F9336AB0D
:10C6400050931AAB51931DAB529320AB539323AB32
:10C65000549326AB0DF59878559358F8040B142194
:10C6600012F0BCF900283FF449AEA845F5D1464B7D
:10C670001B78002B3ED10020014646AA182312F059
:10C68000B9F8424B424D1A68089226A90B9123A98A
:10C690000A9120A909911DA907911AA9069136A905
:10C6A000059132A9049140A903913AA9029117A9D1
:10C6B000CDE90071CDE90C9A4FF48071354ACDF87F
:10C6C00038B046AB66A847F02FFB66A928463AF07B
:10C6D00047FD00287FF412AE2F4A2B7C107030707B
:10C6E0000BB1FDF75DF92D4825F010FF0120FEF795
:10C6F000C7FF03E694F8322094F83130A08DA18E64
:10C700000291CDE9003200F5FA6094F8303094F8E7
:10C710002F2094F82E1080B211F064FFADE726F0C0
:10C720004DFDB84222D1403F53E6C9F31603002B1A
:10C730003FF438AF0DF1A409194BC9F8003044E7B4
:10C74000CBF31603002B3FF45FAF0DF1BC0B144B82
:10C75000CBF800306BE7CAF31603002B3FF43BAF76
:10C760000DF1B00A0E4BCAF8003047E70B4825F030
:10C77000CDFE0120FEF784FFD0E500BFD0FD0020F4
:10C78000D4FD0020D8FD00206C06012040270120A8
:10C7900058030120AC7907007004012068030120D0
:10C7A0006E616E000D4B1B780BB9002070470C4B6F
:10C7B00010B51C683BF0F4FB0146204614F080FAEB
:10C7C00048B13BF0EDFB0146064814F099FA80F0C1
:10C7D0000100C0B210BD002010BD00BFC06D002020
:10C7E0007CD4002030E500202DE9F043B84EB94D4F
:10C7F00033782A789A42A1B0D8B200F28B812B7894
:10C80000C31ADBB2002B00F02B812978B24A01F069
:10C810000F01012B52F82110009100F08D80297832
:10C82000013101F00F01022B52F82110019100F0AB
:10C8300083802978023101F00F01032B52F8211077
:10C84000029179D02978033101F00F01042B52F8BD
:10C850002110039170D02978043101F00F01052BCC
:10C8600052F82110049167D02978053101F00F01A9
:10C87000062B52F8211005915ED02978063101F07F
:10C880000F01072B52F82110069155D02978073156
:10C8900001F00F01082B52F8211007914CD0297894
:10C8A000083101F00F01092B52F82110089143D0F3
:10C8B0002978093101F00F010A2B52F82110099152
:10C8C0003AD029780A3101F00F010B2B52F82110D0
:10C8D0000A9131D029780B3101F00F010C2B52F85D
:10C8E00021100B9128D029780C3101F00F010D2B6C
:10C8F00052F821100C911FD029780D3101F00F0151
:10C900000E2B52F821100D9116D029780E3101F01E
:10C910000F010F2B52F821100E910DD029780F31F5
:10C9200001F00F01102B52F821100F9104D02B7839
:10C9300003F00F0352F82330DFF8B4C1DFF8CCE185
:10C940009CF800402870013BDBB201AA02EB830790
:10C95000DEF80000614A6B46002C40F0F48010784D
:10C9600000F0FF01002840F0A98018680C4604334D
:10C97000BB421ED092F800801968B8F1000F40F059
:10C98000A080DFF88C81D8F80090A1EB0008C145A9
:10C9900000F292805248804500F28E8020A800EB81
:10C9A000840904330134BB42084649F8408CE4B2A0
:10C9B000E0D10123CEF800008CF80030002C4FD0DD
:10C9C000012C109B39D9119A022C134435D0129A9C
:10C9D000032C134431D0139A042C13442DD0149AF1
:10C9E000052C134429D0159A062C134425D0169AE9
:10C9F000072C134421D0179A082C13441DD0189AE1
:10CA0000092C134419D0199A0A2C134415D01A9AD8
:10CA10000B2C134411D01B9A0C2C13440DD01C9AD0
:10CA20000D2C134409D01D9A0E2C134405D01E9AC8
:10CA30000F2C13441CBF1F9A9B1807EE903A07EE69
:10CA4000104A284AF8EE677AB8EE470AD2ED000A93
:10CA500087EE800A14F0FAF92348214614F0C6F94B
:10CA6000224B1A781AB1224900220A701A70214A00
:10CA7000214B1468DB68D90103D5204B1A68D20713
:10CA80004ED43CF0A5FC1E4B1E4AA0FB0301830ABA
:10CA900043EA81531B1B934248D8134A1A4BD2EDE9
:10CAA000007AB6EE007A77EE877AFDEEE77AC3ED8C
:10CAB000007A21B0BDE8F083084658E71868147082
:10CAC00055E74FF00008084682F800804FE700BFA6
:10CAD0008427012086270120442701204861002067
