:020000022000DC
:107000000000042015FE050055FE050057FE050092
:1070100059FE05005BFE05005DFE05000000000056
:1070200000000000000000000000000091FD0500CD
:1070300061FE050000000000B1FD050065FE0500D1
:107040007100060067FE0500F9D4050055370400FD
:107050000938040067FE0500D1D7050067FE05006A
:1070600067FE050067FE050067FE050067FE050078
:1070700067FE050067FE050067FE050067FE050068
:1070800067FE0500E1FA050067FE050067FE0500E2
:1070900067FE050067FE05003142050067FE05003A
:1070A00067FE050067FE0500A953030067FE0500A3
:1070B00067FE050067FE05000000000000000000FC
:1070C00067FE050067FE050067FE0500590606001D
:1070D00067FE050067FE050067FE0500F5C80400B1
:1070E00067FE050067FE050067FE05000000000062
:1070F0000000000067FE050000000000D106060049
:10710000000000000000000000000000000000007F
:10711000000000000000000000000000000000006F
:10712000000000000000000000000000000000005F
:10713000000000000000000000000000000000004F
:10714000000000000000000000000000000000003F
:10715000000000000000000000000000000000002F
:10716000000000000000000000000000000000001F
:10717000000000000000000000000000000000000F
:1071800000000000000000000000000000000000FF
:1071900000000000000000000000000000000000EF
:1071A00000000000000000000000000000000000DF
:1071B00000000000000000000000000000000000CF
:1071C00000000000000000000000000000000000BF
:1071D00000000000000000000000000000000000AF
:1071E000000000000000000000000000000000009F
:1071F000000000000000000000000000000000008F
:10720000F1EE103A43F08073E1EE103A704700BFA0
:1072100010B5054C237833B9044B13B10448AFF3D0
:1072200000800123237010BD2C65002000000000A9
:10723000043E070008B5034B1BB103490348AFF3F5
:10724000008008BD0000000030650020043E0700FB
:10725000154B002B08BF134B9D46A3F5803A002128
:107260008B460F461348144A121A41F08FFA0F4BFF
:10727000002B00D098470E4B002B00D098470020E1
:10728000002104000D000D48002802D00C48AFF387
:10729000008041F0BFF92000290038F013FE41F0D2
:1072A00093F900BF00000800000004200000000067
:1072B000000000002C650020E461012000000000B7
:1072C00000000000BFF34F8F0549064BCA6802F467
:1072D000E0621343CB60BFF34F8F00BFFDE700BFF9
:1072E00000ED00E00400FA0535DF704733DF70473A
:1072F0003CDF70473DDF704741DF704711DF70476B
:1073000012DF70470020704701207047012070474E
:10731000704700BF704700BF704700BF704700BF95
:10732000024B02F001021A70704700BFF36900209F
:1073300038B50446C069524D40F08AFA46A3D3E9F5
:10734000002340F0EFFA02460B46A069C5E900238E
:1073500040F07EFA40A3D3E9002340F0E3FA02466E
:107360000B46606AC5E9022340F072FA3CA3D3E9F8
:10737000002340F0D7FA02460B46E06BC5E9042330
:1073800040F066FA38A3D3E9002340F0CBFA024676
:107390000B46B4F84C00C5E9062340F059FA34A373
:1073A000D3E9002340F0BEFA02460B46206CC5E943
:1073B000082340F04DFA30A3D3E9002340F0B2FA9D
:1073C00002460B46A06AC5E90A2340F031FA24A31D
:1073D000D3E9002340F0A6FAC5E90C01E37DAB63D5
:1073E000237DA1882748012B8ABF637D002303F0FA
:1073F000010385F83C30E27A234B02F00702A2F148
:107400000702B2FA82F25209A1F5FA61E98785F81A
:107410003D20A27985F84020E27985F84120227A42
:1074200085F84220627A85F84320A27A85F84420C4
:1074300021680268A3FB01439B094FF47A7404FBA3
:1074400013131249A5F846300132012302600B7074
:1074500038BD00BFAFF3008048AFBC9AF2D77A3E88
:10746000FCA9F1D24D62503F51601FEF14D95F3F2C
:107470007B14AE47E17A843FF168E388B5F8E43ED7
:1074800050E000209CE00020D34D621098E00020E6
:10749000024B034AC3F80026012070470000014058
:1074A0003546526E024B0349C3F80016104670472A
:1074B000000001403546526E0AB3C2F308032DE9BD
:1074C000F0471546A3B9DFF83C8006460F464FEA61
:1074D00052290324D8F8680403683A46D3F814A064
:1074E00031464B46D047013C30B914F0FF04F1D18E
:1074F0004FF0FF30BDE8F0872846BDE8F0874FF039
:10750000FF30704748650020704700BF037C13F0D0
:10751000080306D0C36A406A181A48BF6FF00040DB
:1075200070471846704700BF2AB3C2F308032DE91D
:10753000F0471546C3B906460F4636F0B5F90F4B6E
:10754000DFF83C8018604FEA55290324D8F8680416
:1075500003683A46D3F824A031464B46D047013C55
:1075600030B914F0FF04F1D14FF0FF30BDE8F087DF
:107570002846BDE8F0874FF0FF307047B47B00200D
:1075800048650020103021F055BD00BF103021F0BB
:10759000B5BD00BF00B583B00B4601220DF1070158
:1075A00010308DF8073021F0A9FD03B05DF804FB21
:1075B00000B587B00346064A6846182141F0DCFF53
:1075C000694682B203482AF003FC07B05DF804FB69
:1075D00078CD0600F4DF0020103021F08FBB00BF13
:1075E00000B583B001220DF10701103021F0B4FA8B
:1075F00001280CBF9DF807004FF0FF3003B05DF885
:1076000004FB00BF0846114641F09EBF084636F015
:107610008DB900BF084636F06FB900BF10B50E4CEB
:1076200084B0227801A8092111F09EF82378023352
:107630002370024670B1094B1B7803F0FF004BB179
:10764000074B1B7803F0FF0023B1064892B201A953
:107650002AF0BEFB04B010BD1EAF0020F56900206B
:10766000F3690020F46A00202DE9F0434779402FA8
:107670003946A1B028BF40219FB30023E9464A46BE
:107680009C461F46054603EB4304AE7A167000EB9A
:1076900084040133247C14F0080FC4F3C00818BF1D
:1076A000013782F801805FFA83FE05F10C0502F1D3
:1076B000020218BFFFB21EB10CF1010C5FFA8CFC84
:1076C0007145E0D8084B094C1F70094A84F800C086
:1076D0004846102311F07AFB064B187021B0BDE824
:1076E000F083BC46E946EDE7C1E00020C0E00020A1
:1076F000B0E00020AEE0002010B50C4CD4F86804D7
:107700000368DB69984794F82430DB0706D400222D
:107710004FF0FF3384F82420236310BD04F12400CC
:1077200024F0BEF90028F2D110BD00BF486500204A
:10773000F0B58BB01F2201460092194802ABFF2220
:107740002BF0BEF80D2804D815482BF09FF80BB08D
:10775000F0BD014602A811F057FC0028F4D0114EEC
:10776000114F347802AB07CBC4EBC40C07EB4C05CC
:107770001B8847F81C006960AA60AB8136F094F85A
:10778000E4B20A4D0A4A45F82400012184EA0103C3
:107790000348115533702BF079F80BB0F0BD00BFE2
:1077A00048410120EB6900208CAE002020AF002072
:1077B00084AF0020174BDB68D90110B503D5164BF9
:1077C0001A68D2071FD437F087FA144BA0FB0301C5
:1077D000830A43EA815312490A6840F6B7309A1A7D
:1077E00082420FD90F480B6002780F4901320978A5
:1077F00002F00F02914209D001780C4CC9B244F852
:107800002130027010BD5B689B09E4E7084B012240
:107810001A7010BDF0ED00E0001000E040420F00D3
:107820005C010120A4010120A601012064010120C6
:10783000A501012010B5034B0360044612F090FB34
:10784000204610BD30DD06000F49097802290AD113
:10785000F8B50E4E0E4F3578EDB21C467B5D0BB978
:10786000202C01D9F8BD70470A48114600EB45109D
:10787000224640F063FF0848E3B24355012185EA00
:10788000010279553270F8BD9CDC0020F2690020BD
:10789000B8BF0020DCAE00201CAF002070B5124C39
:1078A000124A134B2260002646F660706360C4F8EB
:1078B000886338F047FB0F4B0F4D93ED000B3246BA
:1078C000214604461CF0FCFE0C4B2C6093ED000A94
:1078D00020461DF0BDFA0A4B286893ED000ABDE86A
:1078E00070401DF0CBBA00BF58D8002084CD0600F0
:1078F000F40307001061002078DD0020BC61002047
:10790000B8610020F8B51A4B1B78022B044626D02C
:10791000184B194A19480027214601261F70167076
:107920002CF07EFC05462AF0CBFB2846F7212AF0F6
:10793000DBFB284602212AF0E7FB3A463946284677
:107940002AF0DAFB0E4B1E7035F0AEFF0D4B0E4ADF
:107950001C8010602846BDE8F8402AF0B3BB0B4AF3
:107960000B490C4B10800120002208701A70F8BDE2
:107970009CDC00202A8C002058DC0020AC3A01203E
:107980009EDC002096DC002098DC0020C4600020F3
:10799000F5690020F3690020214A13884FF6FF7132
:1079A0009BB28B42F0B403D013889BB2984228D08C
:1079B0001C4B1B78022B24D01B4B1C481C4F1D4E0C
:1079C0001D4D1E4C1E491A7800233B703370037006
:1079D0001C482B7023701C4D0B701C4C1C490370F1
:1079E00017202B70237008801A4B1AB900221A70C6
:1079F000F0BC70471A78002AF8D0174A012111709C
:107A0000F4E713889BB29842F2D1144C1449002336
:107A10004FF6FF7023701080F0BC0B70704700BFF2
:107A2000C46000209CDC002050DC00206D8E002013
:107A3000247C0020CB7B0020CA7B0020308E0020DD
:107A4000A96B002058DC00209DDC00202D8C00203C
:107A5000D06000202A8C00208B8E0020F569002049
:107A6000F369002010B5054B1C6835F01DFF014679
:107A70002046BDE8104011F033BB00BF28AF002006
:107A80002DE9F04F4948037CABB0002B40F08A80D1
:107A90004748037C002B40F081804648037C002B44
:107AA00078D14548037C002B70D10024322035F07A
:107AB00007FF424E424A43490194234604A84FF42B
:107AC0007A75ADF810408DF812400295009620F0BE
:107AD000DBFF9DF81000002855D03B4D2B68132B81
:107AE00049DC3A4FDFF8E88005E011A820F096FD68
:107AF0002B68132B3FDC4FF47A73002204A911A8E2
:107B00000F930E94ADF844408DF846400D9621F049
:107B1000F9F99DF8443040221AA911A85BB322F06C
:107B200047FC9DF8443013F0D00F1AA8DDD141F086
:107B300016FE03461AAA0638062B39461044D4D935
:107B400041F0B2FD81460028CFD1D5F800A00AEB64
:107B50004A0B08EB0B1B1AA92F22584641F019FEBD
:107B60000AF1010311A82B608BF82F9020F056FD2D
:107B70002B68132BBFDD04A820F050FD28680028D7
:107B8000D4BF002001202BB0BDE8F08F103020F0D2
:107B900045FD8AE7103020F041FD82E7103020F0EB
:107BA0003DFD7AE7103020F039FD71E754FD0020EB
:107BB000A0DE0020B0010120E40101204CDD060020
:107BC0008CCD06004865002044FD002090CD0600C5
:107BD00088FD002081682DE9F0470568044669B1F9
:107BE000284E2B680A685B68A260B34208463DD104
:107BF00035F09CFEA1680029F3D12568238E04F19D
:107C00000C0903B30027E36ADFF878A0B8460BE05D
:107C100035F08CFEE36AC6F80080218EC6F8048039
:107C20000137BAB291420FD9BEB203EBC6067168F2
:107C300008460029EFD02B685B685345E8D02846FA
:107C40009847E36AE7E7E36A00214FF6FF72994538
:107C50002186A28607D02A680A4952688A420BD137
:107C6000184635F063FE2046BDE8F0872846984761
:107C7000A1680029B5D1C0E728461946904720469B
:107C8000BDE8F0870D76020081682DE9F0470568B0
:107C9000044669B1284E2B680A685B68A260B3424B
:107CA00008463DD135F042FEA1680029F3D1256890
:107CB000238E04F10C0903B30027E36ADFF878A0F0
:107CC000B8460BE035F032FEE36AC6F80080218E3C
:107CD000C6F804800137BAB291420FD9BEB203EBA5
:107CE000C606716808460029EFD02B685B685345CB
:107CF000E8D028469847E36AE7E7E36A00214FF6B1
:107D0000FF7299452186A28607D02A680A495268DF
:107D10008A420BD1184635F009FE2046BDE8F087AF
:107D200028469847A1680029B5D1C0E728461946DA
:107D300090472046BDE8F0870D7602002DE9F84F08
:107D4000074635F0B1FD314DDFF8CC90DFF8CCB00F
:107D5000DFF8CCA0064645F00105D9F800301C68D4
:107D6000204639F021F903464FF003084FF4FA405A
:107D70006BB9B8F1010F3CD0A847204639F014F98F
:107D8000034608F1FF384FF4FA40002BF1D0DBF83E
:107D90000030D3F80080404639F006F9034603244A
:107DA0004FF4FA405BB9012C23D0A847404639F084
:107DB000FBF80346013C4FF4FA40002BF3D0144B80
:107DC0001B68D3F80080404639F0EEF803460324E0
:107DD0004FF4FA405BB9012C0BD0A847404639F06C
:107DE000E3F80346013C4FF4FA40002BF3D0BDE822
:107DF000F88F35F059FD801BB842F8D2054B0A20A8
:107E0000C3F800A635F05CFDA7E700BFB0EB0600A5
:107E1000DC60002000000140D4600020D860002019
:107E20003546526E30B5434B434C93F8442093F89B
:107E3000420093F8411093F8435095B0049293F8A0
:107E40004020CDE90205CDE9002107A8DB8F3B4AA0
:107E5000182141F091FB206800284DD01CF0BEFF96
:107E6000374D03462068002B18BF1D461CF0E6FF67
:107E700007A923681090002232480D9132490F95CE
:107E8000CDE911220E901391002B3FD018461CF023
:107E9000D1FF00283ED120681CF0B6FF002839D061
:107EA0001FF062FD23681190002B31D018461CF0A2
:107EB000C1FF00282CD120681CF0A6FF40B31FF0A2
:107EC000A1FD0446214A224B126800924FF48061C2
:107ED0000DAA204812940FF0EBFC00211E4820F060
:107EE00043FF1C491C484FF4806221F007F91A48EF
:107EF00021F0A0F815B030BD1248114A174B1249B5
:107F0000139107ACCDE90D40CDE90F230023119368
:107F10000024D7E720680028F8D01CF08BFF28B198
:107F200020681CF083FF18B120F070FA2368BAE7CC
:107F30002368B8E750E0002078DD0020A8CD0600D7
:107F400098CD0600946100207461002084F0002028
:107F5000E4E0002018C4002094DD0020F4030700B2
:107F600010B5134C2068B8B11CF064FFA8B12068AC
:107F70001CF05CFF20F048FA0E4A1368B3F57A7FD4
:107F80000ADA48B10C490C68844205D00B4C0860F1
:107F900044F823000133136010BD20681CF034FF47
:107FA0000028F9D020681CF02FFF1FF0DBFCE3E76E
:107FB00078DD002084F0002094F00020E4E0002030
:107FC0002DE9F047054680682F6860B1284C3B6872
:107FD00002685B68AA60A3422AD135F0A7FCA868B2
:107FE0000028F4D12F682B8E05F10C093BB3002635
:107FF000EB6ADFF87C80B2460BE035F097FCEB6A69
:10800000C4F800A0298EC4F804A00136B2B291428F
:1080100016D9B4B203EBC404616808460029EFD056
:108020003B685B684345E8D038469847EB6AE7E72A
:10803000014638469847A8680028C8D1D2E7EB6ABD
:1080400000214FF6FF7299452986AA8607D03A6823
:10805000074952688A4205D1184635F067FC284620
:10806000BDE8F0873846194690472846BDE8F087B6
:108070000D7602002DE9F047038E8146054659F83A
:108080000CABFBB10026C36ADFF8A080374609E0DD
:1080900035F04CFCEB6A2760298E67600136B2B27E
:1080A000914210D9B4B203EBC404616808460029B8
:1080B000F1D0DAF800305B684345E9D05046984784
:1080C000EB6AE8E7C36A00214FF6FF7299452986FB
:1080D000AA860CD0DAF80020144C5268A24221D1B2
:1080E000184635F023FC0423C5F82C906B86A8684D
:1080F0002E6800232B7158B10C4C336802685B6802
:10810000AA60A34206D135F011FCA8680028F4D17A
:10811000BDE8F087014630469847A8680028ECD1B2
:10812000BDE8F087194650469047DCE70D7602001F
:108130002DE9F0418B8E4FF6FF72934282B00C46D0
:10814000054616D0CA6AD90902EBC10203F07F01C5
:10815000526832F83100A08602EBC10200204FF6CF
:10816000FF71107128462A60AB80D18002B0BDE853
:10817000F081098E2768002932D1638E002B00F030
:1081800085800123E66A5A4A23864FF480604FF0C7
:1081900080083B681B68934274D135F0ADFB238E99
:1081A000E76A7060013B9BB207EBC30100284A6895
:1081B00008BF4FF000080020A6F80080708022B1B0
:1081C00037F83360488886422ED8012100224FF6C6
:1081D000FF73284621712A60AB8002B0BDE8F081B0
:1081E000E66A4B1E9BB206EBC30E3046DEF8042057
:1081F0002AB1BEF802C036F83380E0451CD8638E41
:10820000994223D03A4A4B1C9BB2B3F5007F00EB56
:10821000C106238615BF4FF480604FF47E704FF087
:1082200080084FF07F08B4E700EBC313441C9BB2F7
:1082300002EBC0024C8091E70CEBC3130CF101017F
:108240009BB202EBCC02AEF8021087E7B3F5007FD9
:10825000BBD004F10C025B0096421FFA83F83B6826
:1082600016D024489B6883424FEAC80135D1304676
:1082700041F06AF90028A8D01D4A218EE062A4F8D6
:108280003280C0E701463846984788E7E66AE0E76B
:10829000174A1B68019293424FEAC80022D135F079
:1082A0002BFB019A002890D0D6F800C07168B36803
:1082B000D6F80CE0C0F80CE0C0F800C04160836064
:1082C000D6F810C07169B369D6F81CE0C0F81CE09C
:1082D000C0F810C041618361CFE70A463846314695
:1082E0009847C7E7014638469847019ADAE700BF42
:1082F00015760200057602002DE9F0418B8E4FF6CF
:10830000FF72934282B00C46054611D0CA6AD90961
:1083100002EBC10203F07F01526832F83100A086FF
:1083200002EBC10228462A60AB8002B0BDE8F081B2
:10833000098E2768002932D1638E002B00F08580DA
:108340000123E66A594A23864FF480604FF0800883
:108350003B681B68934274D135F0CEFA238EE76AEE
:108360007060013B9BB207EBC30100284A6808BF5D
:108370004FF000080020A6F80080708022B137F886
:108380003360488886422ED8012100224FF6FF73C1
:10839000284621712A60AB8002B0BDE8F081E66A10
:1083A0004B1E9BB206EBC30E3046DEF804202AB10A
:1083B000BEF802C036F83380E0451CD8638E99427F
:1083C00023D03A4A4B1C9BB2B3F5007F00EBC106A9
:1083D000238615BF4FF480604FF47E704FF0800805
:1083E0004FF07F08B4E700EBC313441C9BB202EBD1
:1083F000C0024C8096E70CEBC3130CF101019BB259
:1084000002EBCC02AEF802108CE7B3F5007FBBD0D4
:1084100004F10C025B0096421FFA83F83B6816D009
:1084200023489B6883424FEAC80135D1304641F06A
:108430008BF80028A8D01D4A218EE062A4F8328073
:10844000C0E701463846984788E7E66AE0E7174AFA
:108450001B68019293424FEAC80022D135F04CFAD2
:10846000019A002890D0D6F800C07168B368D6F899
:108470000CE0C0F80CE0C0F800C041608360D6F8A2
:1084800010C07169B369D6F81CE0C0F81CE0C0F8F0
:1084900010C041618361CFE70A46384631469847AC
:1084A000C7E7014638469847019ADAE71576020091
:1084B000057602002DE9F84307464068BD68032DA4
:1084C000884600F1080613D85FFA85FC002D77D0A6
:1084D0000CF1FF3456FA84F4C31D002213F8011F77
:1084E000002908BF42F00102A342F7D1002A40D080
:1084F00000237355D7F80090BE68D9F80830A3B1AF
:1085000006F1070C8444DA8896420BD13EB3C21DB3
:10851000DC1D01E0944522D012F8011F14F8015F20
:10852000A942F7D01B68002BEDD1B6F5803F7D68DE
:10853000D9F8004034D2236828489B68834206F16A
:10854000090140D1284640F0FFFF034643B33A6893
:10855000DE809168196000219360796002E09A885A
:1085600001329A800522C8F8003088F80420BDE85E
:10857000F883022388F80430037A88F80030BCF1CD
:10858000010F08D0437A88F80130BCF1020F02D005
:10859000837A88F80230002308F80530BDE8F883B4
:1085A00023680F4A5B68934213D0294620469847B8
:1085B0003A6800239268012189F804101A60FFDEEE
:1085C00002230B71E7E70A462046294698470346EF
:1085D000BCE7284635F0AAF9EAE700BF05760200B5
:1085E0000D7602002DE9F04745684DB18368EA88B1
:1085F000934204460E4605D01D440133A3602E72FB
:10860000BDE8F0875B00D0F800905F1CB7F5803FB5
:10861000D9F8008012D2D8F800201549D2F808A065
:108620008A4503F10A021CD11146284640F08CFF0E
:1086300020B1C780A36860600546DDE7D8F8003048
:108640000C4A5B68934208D1284635F06FF9012245
:10865000002389F804206360D2E729464046984702
:10866000F5E729464046D0470028E2D1E6E700BFBB
:10867000057602000D76020003792DE9F0470C46DD
:10868000D907054637D4DA0624D413F0600F1DD07D
:108690002E884FF6FF77BE4215D0E36AF20903EB4E
:1086A000C20306F07F09D3F8048008EBC900B24684
:1086B000C6882146FFF7E0FFA38E28F83930BE4276
:1086C000A4F834A0E9D14FF0FF332B6000232B71C5
:1086D000BDE8F0872A884FF6FF718A4237D0E16AF9
:1086E000A68ED00901EBC00102F07F00496821F895
:1086F0003060A286C9E7A0682A6826680028C2D030
:10870000824216D0014600680028BCD08242F9D1CE
:108710008288013A92B28280002AB4D103680B6049
:1087200033680C4A5B6893420CD135F0FFF82B7923
:10873000A9E78288013A92B28280002AA3D1036815
:10874000A360EDE70146304698472B799BE700236D
:108750001B80FFDE0D7602002DE9F04F0E460978F2
:1087600085B02B29009000F0FD802D2940F0B880C5
:108770007178012001900644A1F13000C0B20928AF
:1087800000F2B680DFF8F893C0B200210024002583
:108790004FF0993816F801BF2418ABF13007FFB23B
:1087A00041EB05054FEA850E092F6FEA07024FF0EE
:1087B000FF334FEA840C4EEA947EF8B24FF000018A
:1087C00000F21E81A94508BFA0450BD31CEB040C89
:1087D0004EEB050E1CEB0C044EEB0E05AB4208BF36
:1087E000A242D7D24FF0000A0023204629460A228F
:1087F0003FF0EEFCA946A0461FFA8AF3B9F5200F18
:1088000003F1010A08BFB8F1000F04460D460FFA44
:108810008AFAE9D2092F0BD802339B1B06EB030A15
:1088200016F801BFABF13002092A0FFA8AFAF5D91E
:10883000BBF12E0F00F0B6800BF0DF03452B60D0AC
:10884000BBF1000F56D10AF126034C2B00F2FC803D
:10885000002D08BFB4F5000F80F0F68007EE904AB7
:10886000BAF1000FF8EEE77A40F36481BC4B1AF0DE
:10887000010F1CBF93ED007A67EE877A5FEA6A0208
:1088800023D0D00744BF93ED017A67EE877A5FEA81
:10889000AA021AD0D10744BF93ED027A67EE877A15
:1088A0005FEAEA0211D0D20744BF93ED037A67EE84
:1088B000877A5FEA2A1A08D0BAF1010F0CBF93ED4C
:1088C000047A93ED057A67EE877A019B0BB1F1EE9E
:1088D000677A009A0123C2ED027A137010460DE008
:1088E00000200190A1F13000C0B209287FF64AAF04
:1088F0002E2953D0009A00231370104605B0BDE80E
:10890000F08F96F801B0BBF12D0F36D0BBF12B0FD5
:1089100000F0F080ABF13003DAB2092A06F101066B
:108920008ED80AEB0302B2F59A7F00F3D7800027B6
:1089300006E002EB400303EB0A02B2F59A7F79DC12
:1089400016F801BFABF13002D1B2092903EB830065
:10895000EFD9002F40F0C7809A44BBF1000F3FF4DD
:1089600072AFC7E7717800200190A1F13000C0B26A
:10897000092806F10106BBD804E796F802B0ABF16E
:108980003003DAB2092A06F102063FF659AF0AEBC4
:108990000302B2F59A7F4FDC0127D1E700240025BE
:1089A0004FF0000A96F801B0ABF13000C0B20928D0
:1089B00006F101063FF640AF6A4B4FF099329D42F7
:1089C0004FEA850108BF94424FEA840741EA947157
:1089D0000ED23F1945EB010117EB070841EB0109E6
:1089E0000AF1FF3A18EB00040FFA8AFA49F1000580
:1089F00016F801BFABF13000C0B20928DFD91BE780
:108A0000BBF1000F40F0D280019B8BB1B5F1004F5C
:108A100008BF012CBFF4E6AE644265EB45050223B6
:108A2000009A1046C2E90245137005B0BDE8F08F08
:108A30000323F5E7002F51D000994FF000420123A6
:108A400008468A600B7059E7204629463EF034FFFD
:108A5000BAF1000F79DD444C1AF0010F7AD15FEAC8
:108A60006A032DD0DF0700F18D805FEAAA0327D0CB
:108A7000DE0700F18C805FEAEA0321D0DD0700F118
:108A80008B805FEA2A131BD0DA0700F18A805FEA45
:108A90006A1315D0DB073ED45FEAAA1310D0DF07B4
:108AA0003ED45FEAEA130BD0DE073ED45FEA2A2306
:108AB00006D0DD0744D45FEA5A231CBF2B490020AF
:108AC000019B13B101F100431946009A0423C2E946
:108AD00002011046137005B0BDE8F08F019B002025
:108AE000BBB12349F1E7AAEB030ABBF1000F3FF446
:108AF000AAAEFFE696F802B0ABF13003DAB2092A6B
:108B000006F102067FF60DAFBBF1000F3FF49BAEFE
:108B1000F0E61849D9E7D4E90A233EF003FFBBE7A2
:108B2000D4E90C233EF0FEFEBBE7D4E90E233EF071
:108B3000F9FEBBE7CAF1000A3FF4C7AE0E4B96E65A
:108B4000D4E910233EF0EEFEB5E7CAF1000AB7D033
:108B50000A4C81E7D4E900233EF0E4FE7FE700BF42
:108B6000CCDD06009999010030DE06000000F87F98
:108B70000000F0FF0000F07FB4DD0600E8DD060035
:108B800099999919D4E902233EF0CCFE6DE7D4E916
:108B900004233EF0C7FE6EE7D4E906233EF0C2FE92
:108BA0006FE7D4E908233EF0BDFE70E7B5F5801FFE
:108BB00008BF002CBFF416AE4FF0000A38E600BF25
:108BC00010B50E4C2068B8B11CF034F938B92068E3
:108BD0001CF01AF918B1BDE810401EF0A9BE2068BB
:108BE00050B11CF027F938B120681CF01FF918B1FA
:108BF000BDE810401FF0ECBB002010BD78DD002068
:108C000010B50E4C2068B8B11CF014F938B92068C2
:108C10001CF0FAF818B1BDE810401EF08DBE2068B7
:108C200050B11CF007F938B120681CF0FFF818B1FA
:108C3000BDE810401FF0D0BB002010BD78DD002043
:108C400070B5224D224C2B78002B34D0237C002B86
:108C50002FD1204C36F02CFF2068012110F076F93E
:108C600008B1002323601C4E36F02CFF1B4B3068EC
:108C700000241C702C7010B137F068F93460184B68
:108C80001849194D194A1A481A4E00241C701A4BDB
:108C90000C702C60146004602146184834704FF04A
:108CA000FF354FF47A621D603FF070FD144B1C607D
:108CB00070BDFFF7B7F8237C002BCAD0114820F015
:108CC000B9F910481FF0AAFCC3E700BF4A01012010
:108CD00084DD00207CDD002078DD00209CDE00208B
:108CE00049FD0020E0E00020DCE0002084F00020CE
:108CF00094F00020AC0101201C610020E4E0002081
:108D0000A801012094DD002008B5204B1B780BB38F
:108D10001F4B1B78042B1DD034F0C6FD1D4A1E4B83
:108D20001268801A984215D91C4B93ED007AF0EE28
:108D3000007AB4EEE77AF1EE10FA0CDA184B1A78F2
:108D40007AB134F0B1FD174B1A684EF65F23801AE2
:108D500098420DD808BD1249124A00230B701360C7
:108D600008BD01221A7034F09FFD0E4B186008BD3B
:108D7000FFF766FF0C4A0D49136803F59C5308334F
:108D80004FF0FF301360086008BD00BF49FD0020B0
:108D900088BF00204CFD00201FBF0200D8E000204B
:108DA000E0E00020DCE0002010DE00201861002060
:108DB00070B51C4D8AB0002428460894CDE90244C1
:108DC000CDE90444CDE90644CDF8234028F0CCF9A0
:108DD00002462846019228F0C9F91F26019A014649
:108DE00002A83FF0ABFC02A93246284628F0C0F9A1
:108DF0003C352146324602A83FF0C8FC284628F000
:108E0000B3F90190284628F0B1F9019A014602A869
:108E10003FF094FC324602A9284628F0A9F90AB08E
:108E200070BD00BFEC400120284B294A294870B58D
:108E3000C3F800261AF0D6FB0021042038F012F8FF
:108E400001210520244D38F00DF8092445F00105D5
:108E50000021052038F08AF84FF4A070A8470121BE
:108E6000052038F083F84FF4A070A847013CEFD1FB
:108E70000121042037F0F6FF2146042038F076F86F
:108E80004FF4A070A8470121052038F06FF84FF487
:108E9000A070A8470D4C0E4E0121042038F066F852
:108EA0004FF4A070A8470B48C4F800661AF020FBE6
:108EB0000A4908481AF078FB0948C4F800660122FC
:108EC0003C212DF003FCC4F8006670BD0000014099
:108ED0003546526ECC2C0120B0EB0600801A0600FD
:108EE000B8DD00202DE9F047544E554D3768D7F8CE
:108EF0000080404638F058F8034645F00105032449
:108F00004FF4FA405BB9012C74D0A847404638F0C2
:108F10004BF80346013C4FF4FA40002BF3D00123F9
:108F20007B71484F464DD7F80080D8F800904846EE
:108F300038F03AF8034645F0010503244FF4FA40AF
:108F40005BB9012C66D0A847484638F02DF8034697
:108F5000013C4FF4FA40002BF3D0012388F8053090
:108F6000DFF8EC90364DD9F80080D8F800A05046D4
:108F700038F01AF8034645F0010503244FF4FA408F
:108F80005BB9012C22D0A847504638F00DF80346B3
:108F9000013C4FF4FA40002BF3D0012388F8053050
:108FA00033681B793BB1284A136803F59C53083397
:108FB0001360BDE8F0873B681B79002BF3D1D9F82B
:108FC00000301B79002BEED1BDE8F08734F06CFC4B
:108FD00098F80530002BE3D01C4BD8F808201B680C
:108FE000801A9842DCD334F05FFCA8F80440C8F83B
:108FF0000800D5E734F058FC7B79002B91D0134B57
:10900000BA681B68801A98428BD334F04DFCBC8040
:10901000B86086E734F048FC98F80530002B9FD004
:109020000A4BD8F808201B68801A984298D334F06D
:109030003BFCA8F80440C8F8080091E7D460002081
:10904000B0EB0600D860002010DE0020C8600020D1
:10905000DC600020424B1B682DE9F0411E68414D49
:10906000304637F0A1FF034645F0010503244FF4D5
:10907000FA405BB9012C0BD0A847304637F094FF7B
:109080000346013C4FF4FA40002BF3D0002600E0E9
:109090002646354B334D1B681F68384637F084FF32
:1090A000034645F0010503244FF4FA405BB9012C57
:1090B0000BD0A847384637F077FF0346013C4FF402
:1090C000FA40002BF3D0002500E02546274B254F22
:1090D0001B68D3F80080404637F066FF034647F030
:1090E000010703244FF4FA405BB9012C0AD0B847BA
:1090F000404637F059FF0346013C4FF4FA40002B3D
:10910000F3D000249EB11A4E3378DBB165B1194D0E
:109110002B78F3B124B1184C23785BB1BDE8F08112
:10912000154B1C70BDE8F081124B1D70F2E7104B1F
:109130001E70EBE734F0B8FB104A01231060237077
:10914000BDE8F08134F0B0FB0D4A012310603370AC
:10915000DCE734F0A9FB0B4A012310602B70D9E740
:10916000D4600020B0EB0600D8600020DC60002056
:1091700059DD002060DD002068DD00206CDD00206E
:109180005CDD002064DD002038B50F4A0F4B12680B
:1091900019688A4215D00E491A6000230B6001221B
:1091A0000C4C0D4B204600251A70E5762CF0F8FF8C
:1091B000204601212CF020FD4FF00113C4E9045397
:1091C00038BD0022ECE700BF186100209CF00020B1
:1091D000D0FA0020B8DD002050FD00201A4A1368A4
:1091E0000D2B28D00C2B15D0083312D0174B184953
:1091F00093ED007A0B68F1EE047AB4EEE77AF1EEC3
:1092000010FA03F59C5394BF0A200920083310601C
:109210000B6070470F4B10491A680B68013A9A426D
:109220000B4A14BF013300230B60136803F59C53F2
:1092300008331360704706490B6803F59C530833E5
:109240005A200B601060704718610020D8E00020A1
:1092500010DE00206861002080DD00200378462BAE
:1092600001D00020704710B54378572B044621D118
:109270001149082240F07BFA08B9012010BD0F49BE
:109280000622204640F073FA0028F6D00C4920460A
:1092900040F042FA0028F0D00A49204640F03CFA5B
:1092A0000028EAD00849204640F036FAB0FA80F0AB
:1092B000400910BD002010BDC8CD0600D4CD060069
:1092C000DCCD0600E4CD0600ECCD06002DE9F04330
:1092D0005E498DB00822044640F049FA00284CD17E
:1092E0005B4F3B7803F0FF06002B51D1083420463A
:1092F0002C2140F004FA00284AD000F10109484628
:109300002C2140F0FCF90546002841D020460A22D5
:10931000314641F075F9A5EB0903082B80464AD187
:10932000D9F80000D9F8041002AB03C302A801A9C0
:109330008DF810600EF006FA00283CD008F1FF33DB
:10934000B3F5A02F56D26878013590B1DFF844917B
:10935000732641F05FF90446304641F05BF98442E0
:1093600007D115F8010F002854D019F8016B002E11
:10937000EFD13848FEF71CF90DE0374906222046A8
:1093800040F0F5F950B9324B1B78012BDDB218D003
:109390003248FEF70DF90DB0BDE8F08330492046A4
:1093A00040F0BAF9C8B92A4B1B78022BF0D12D4BEB
:1093B00001221A70EFE72C48FEF7FAF80DB0BDE86D
:1093C000F08301460A22A01D41F01AF9274B1B68C1
:1093D00083420FD1264B1D70DDE72649204640F021
:1093E0009BF968B91A4B1B78032BD1D1224B012270
:1093F0001A70D0E72148FEF7DBF80DB0BDE8F08326
:109400001F49204640F088F90028C4D11D4B012295
:109410001A70C0E799F80030002BAAD1134B1A4AF2
:109420000198C3F8008005A901233B7010600EF07D
:1094300053F9164A05AB08A8102140F09DF808A979
:1094400082B2134828F0C4FCA5E700BFC8CD0600CF
:109450002DAF002008CE0600D4CD0600F4CD0600C6
:10946000DCCD06008D6A0020FCCD0600AC6B002030
:10947000F4690020E4CD0600AB6B002000CE0600AE
:10948000ECCD0600AA6B0020946A002010CE0600E6
:10949000F4DF00201DCE060085490978012900D09F
:1094A00070472DE9F0411C46CBB282499CB00B704D
:1094B0001546002141220BA83FF068F9402C2246B6
:1094C000294628BF40220BA83FF038F90BA840F0EE
:1094D00046F9431E70B10BAA774E1A4412F80119CF
:1094E0000A39C9B226FA01F016296FEA000003F121
:1094F000FF3310D9714E3378BBB171490BA80522E7
:1095000040F035F950BB062C28D86E4B01221A705A
:109510001CB0BDE8F08110F00100EBD1591C507077
:10952000DCD1664E3378002BE7D1674F3B78022BB6
:109530007AD0402C00F28980644904220BA840F0C4
:1095400016F9B0B9624C237803F0FF05002B52D016
:1095500060496148042228F03BFCD9E75F4E33881C
:1095600014FA83F3B3F5805F50DD5D4B01221A706E
:10957000CEE75C4904220BA840F0F9F8D8B15A496B
:1095800007220BA840F0F3F8002840F0CD809DF8AA
:109590003330202B0DF1330003D110F8013F202B85
:1095A000FBD018210EF0A4FB98B95049504809226D
:1095B00028F00EFCACE79DF83030202B0CA803D12E
:1095C00010F8013F202BFBD018210EF091FB002852
:1095D0003BD03F4C237803F0FF0563B13D4944483D
:1095E000042228F0F5FB93E7394C237803F0FF05BC
:1095F000002B40F022813F4B40220BA9184640F03F
:10960000C8F8012280F84050227081E73A4B308838
:10961000294613FA80F022463FF090F8338814FA76
:1096200083F39BB2338073E7082C14D833490BA81B
:1096300040F072F820B132490BA840F06DF850B9F3
:1096400021460BA8FFF742FE62E72E492848052273
:1096500028F0BEFB5CE73B78022B7FF459AF2A4B26
:109660001A7802F0FF00002A7FF452AFDFF8B080D2
:10967000264AD8F8007012682744974200F2B28058
:10968000234A244ED2F800C0318814FA81F1B1F592
:10969000805F40F2AD80DFF88CC0DCF80010013153
:1096A00000F0B8801C4A1D49116001221A702FE792
:1096B0009CDC00202A8C002009004000247C002033
:1096C00024CE06006D8E00202DAF00203CCE06007B
:1096D000A96B002064D206002CDF0020288C00201B
:1096E000CA7B002044CE06004CCE060054CE0600B5
:1096F000F4DF00204C6A0020287C0020DCCD06002E
:10970000ECCD060034CE06002CAF0020AC6B002060
:10971000BCBF0020C0BF0020906A00202CCE0600F5
:10972000C07B0020B86000207F490BA83FF0F4FF09
:1097300000284AD07D4905220BA840F018F80028DF
:1097400043D07B4905220BA840F011F800283CD0FB
:1097500078490BA83FF0E0FF002836D076490BA8E7
:109760003FF0DAFF00283FF43FAF744905220BA811
:109770003FF0FDFF002866D0714905220BA83FF09D
:10978000F6FF00286DD13378002B56D16D4B1C7835
:10979000002C52D10DF1310018210EF0A9FA002849
:1097A00059D0694B694D0DF13101184618223FF02F
:1097B000F0FF034666496748674A1C7601232C8000
:1097C00004700C7013703370A2E6644C237803F0BD
:1097D000FF050BB9624B0FE762496348052228F089
:1097E000F7FA95E6614A6249116001221A708FE624
:1097F000604B03EB0C333088294613FA80F0224685
:109800003EF09CFF3388C8F8007014FA83F39BB2D3
:1098100033807DE63188DFF880E1564B89B2AEF8BF
:1098200000101168CCF80010116881F0010111607E
:109830003080126803EB0233DDE74F494A480922C2
:1098400028F0C6FA64E618210DF131000EF050FA46
:1098500000287FF4C9AE494943480D2228F0B8FAE0
:1098600056E6474905220BA83FF081FFB8B9454CA1
:10987000237803F0FF05002BDFD10DF13100182113
:109880000EF036FA0028E6D03F4B18220DF13101D8
:1098900018463FF07EFF01220576227038E63B49EC
:1098A0000BA83FF039FF30B10BA8FFF7D7FC002819
:1098B0003FF42EAEC4E6364B18683DF0DBFF03AE36
:1098C00004460D4645EC104B32460221042033F08D
:1098D000D5FF11A3D3E90023204629463DF06AFEB7
:1098E0000FA3D3E900233EF01DF83EF0CBFA642825
:1098F000A8BF642020EAE073264A0096182105A834
:109900003FF03AFE05A83FF02AFF05A982B21648AB
:1099100028F05EFAFCE500BF6666666666660A4089
:10992000721CC7711CC75B4060CE060068CE060083
:1099300070CE060078CE060088CE06009CCE0600CB
:10994000B4CE06009DDC0020708E0020288C002004
:109950006D8E0020CA7B0020CB7B00202D8C002048
:10996000D87B002080CE0600F4DF0020906A002023
:1099700000CE06008C8E002090CE0600A4CE0600FD
:10998000BCCE0600308E0020548E0020C4CE0600CF
:109990008CF00020CCCE0600E8690020124B134961
:1099A0000122002030B45A600325DA600424C3F891
:1099B000040542F21070C3F80855C3F810454FF47F
:1099C0008035C3F8400560244FF08060C3F8002262
:1099D000C3F8045381F81A43C1F8800108600449B0
:1099E00030BC0A701A60704700A0014000E100E03E
:1099F000B16B002070B52E4C2E4D2F48C4F8005688
:109A000082B040F24C430322012118F01DFF2B4B82
:109A1000C4F8005640F24C461978274840F24C43AF
:109A2000032219F0ABFC3346032204212248C4F878
:109A3000005618F0DDFFC4F8005603230022012170
:109A40001D48009619F016F8C4F8005603230122A9
:109A500000211948009619F00DF8C4F800560323A8
:109A6000022200211448009619F004F803231A4634
:109A7000C4F8005600211048009618F0FBFFC4F807
:109A80000056032300210C480096062218F0F2FF2E
:109A90000B4BC4F80056197809B102B070BD3346BB
:109AA0000322054819F00AFBC4F8005602B070BD45
:109AB000000001403546526ED8FA00202461002093
:109AC00025610020104A114B114810B50021114C9E
:109AD00011704FF47A62196021603EF057FE0E4813
:109AE000037C6BB90D4C35F0E3FF206802210FF0C9
:109AF0002DFA08B100232360BDE8104035F0E2BF25
:109B000010301EF08BFDEDE74801012094F000209D
:109B1000E4E0002084F0002054FD00207CDD0020E3
:109B20002DE9F0430024BBB0374B049401464FF4B9
:109B30007A75224607A8ADF81C408DF81E400595A1
:109B400003931EF0A9FF20B9002528463BB0BDE8CD
:109B5000F0832E494FF4806207A81EF0FDFF0646F1
:109B600007A81EF05BFDB6F5806FEDDB284E009573
:109B700002A9019125480294334610AA4FF480614E
:109B80000DF056FF05460028DFD0224BDFF8988005
:109B9000214FDFF8989010A9184617223FF0F9FDE1
:109BA00003461F22404616A9DC753FF0F2FD88F8F7
:109BB0001F403846DFF878801F221EA93FF0E9FDDC
:109BC000FC770F22154F26A948463FF0E2FD0F22F1
:109BD0002AA9404689F80F403FF0DBFD0F223846A6
:109BE0002EA988F80F403FF0D4FD029A0C4BFC736D
:109BF0001A6012B1013A56F822200A4B28461A6020
:109C00003BB0BDE8F08300BF4CDD060018C000206B
:109C1000E4E0002044DE002024DE00207CDE002082
:109C200084F0002094F000205CDE00208CDE002018
:109C300014DE002070B50A4E054635F039FF306855
:109C400029460FF079F9044620B1356035F03AFF26
:109C5000204670BD35F036FF3368204670BD00BF2A
:109C60007CDD002010B5084C82B0019035F020FF5B
:109C7000206801990FF06AF908B10023236002B04F
:109C8000BDE8104035F01EBF7CDD002070B5294BCB
:109C90001C788AB094BB284E054635F009FF306821
:109CA00003210FF049F9F8B10323336035F00AFFBF
:109CB0002249ADF8044001A823462A468DF8064003
:109CC0001EF0E2FE08B31D49ADF804402A46012308
:109CD00001A88DF806401EF0D7FE00BB18491948B0
:109CE000072228F075F815E035F0ECFE1649154806
:109CF0003368042228F06CF80AB070BD124911488C
:109D0000042228F065F80AB070BD10490D480922F8
:109D100028F05EF80320FFF7A5FF0AB070BD01A888
:109D20001FF022FF0028D9D009490648072228F051
:109D30004FF8EFE79DDC00207CDD00204865002027
:109D4000D8CE0600F4DF002064D2060054CE060010
:109D5000E0CE0600F8B51649164C174A174F184EB4
:109D6000184D194800233B70337023700B70174C4B
:109D700013701749174A2B70174D236013600B801F
:109D8000164C1749027C2B604FF0FF3525600B8085
:109D90004AB9144C237803B9F8BD0320FFF762FFDA
:109DA00000232370F8BD10301EF038FCF1E700BF2F
:109DB000AB6B00208D6A0020AA6B00202DAF002025
:109DC000F46900202CAF0020A8AE0020BCBF00200A
:109DD000C0BF0020906A0020C07B0020B860002037
:109DE000E869002086AF0020F0B52E4B1C68BDB09E
:109DF0001CB90320FFF71EFF30B92B492B480C225A
:109E000027F0E6FF3DB0F0BD2346294D294A2A49F7
:109E1000019404A84FF47A76ADF810408DF8124002
:109E2000029600951EF030FE9DF8103083B3234F4C
:109E30001E4E02E011A81EF0F1FB4FF47A730022CF
:109E400004A911A80F930E94ADF844408DF8464034
:109E50000D951FF057F89DF84430B3B113F0D00FB3
:109E6000E8D11AA9402211A820F0A2FA1AAB3A466A
:109E70002AA846213FF080FB2AA982B2304627F06B
:109E8000A7FF0A2033F01CFDD4E704A81EF0C6FB90
:109E90000320FFF7E7FE0A490448042227F098FF51
:109EA0003DB0F0BD7CDD0020E8CE0600F4DF0020F0
:109EB0004CDD0600F8CE0600486500200CCF0600F9
:109EC00004CF06002DE9F0473B4B1C68ADF5287D1B
:109ED00024B90320FFF7AEFE054640B9374938489C
:109EE000042227F075FF0DF5287DBDE8F087234695
:109EF000344E354A354904944FF47A7707A8ADF8C3
:109F00001C408DF81E40059703961EF0BDFD9DF880
:109F10001C30002B4BD0DFF8C090DFF8C0802C4FF6
:109F200002E014A81EF07AFB00224FF47A7307A90E
:109F300014A8CDE91062ADF850208DF8522012938C
:109F40001EF0E0FF9DF8504014B314F0D004E8D1A7
:109F50000DF1740A51464FF4807214A820F028FACB
:109F60001B9A0192002D14BF4B4643463A464FF4CC
:109F70009671CDF800A05DA83FF0FEFA5DA982B20F
:109F80000F4827F025FF0A2033F09AFC2546C8E742
:109F900007A81EF043FB0320FFF764FE0D490848A5
:109FA000032227F015FF0DF5287DBDE8F08703207B
:109FB000FFF758FE92E700BF7CDD002064D2060068
:109FC0002CDF00204CDD06008CCD0600486500200B
:109FD0001CCF060028CF0600F403070018CF0600A8
:109FE0002DE9F042354E337C8EB00446002B60D113
:109FF000334D35F05DFD286803210EF09DFF50B90B
:10A0000035F060FD2F4930482B68042227F0E0FE30
:10A010000EB0BDE8F0824FF003090027C5F80090AC
:10A0200035F050FD2246294C294901943B464FF416
:10A030007A7505AC05A803950297ADF814708DF8F4
:10A0400016701EF021FDA446BCE80F00214D029CB5
:10A0500074600FC5BCE80F000FC5DDE90321337C38
:10A06000DCF800002860C6E90221BBB11A48F36A97
:10A070001A4A1B490360012017600870194A202101
:10A0800001A83FF079FA01A83FF069FB01A982B26B
:10A090000D4827F09DFE0EB0BDE8F0824846FFF760
:10A0A000E1FD11490848052227F092FE0EB0BDE8F7
:10A0B000F08206F110001EF0B1FA99E75CDC002096
:10A0C0007CDD002064D20600F4DF00204CDD0600B9
:10A0D000486500206CDC002090DC002054DC00206F
:10A0E0009DDC00202CCF060034CE060000000000CE
:10A0F0002DE9F047864C874A94F83C302DED0A8BC9
:10A100000021ADF51E7D1170002B00F08980824D7D
:10A11000D5F800A0BAF1000F2DD0804B197894ED3E
:10A12000000B94ED021BD4E90467D4E906890029E9
:10A1300040F0D48050468DED101B8DED0E0B1AF0C3
:10A1400003FB494640463DF0E5FE394603463046AE
:10A1500008EE103A3DF0DEFE9DED101B02EE100AF7
:10A160009DED0E0B2868F0EE482A1AF045FC94F895
:10A170003C30002B54D06A4B1B78002B3FD0DFF8CB
:10A18000B48198F80030002B39D0664F3B78002B13
:10A190004FD05DA3D3E90023D4E906013DF0C2FB13
:10A1A00094ED00CB94ED02BB94ED049B94ED08ABD1
:10A1B0004EAD41EC180BD4F83890C5F828902846DD
:10A1C00085ED088B85ED00CB85ED02BB85ED049B0D
:10A1D00085ED06AB0DF088FF002840F0B580524DAC
:10A1E00033F062FB2A6842F21073801A984206D953
:10A1F00033F05AFB03464D482B601EF01BFF42A371
:10A20000D3E90023D4E906013DF08CFB3DF082FE4A
:10A21000474B18600DF51E7DBDEC0A8BBDE8F0873D
:10A220003F4B1B78002BEAD0424B1B78002BE6D02B
:10A230003C4F3B78002BE2D194F83D30002BDED030
:10A240003D4D33F031FB2B68C01AB0F57A7FD6D381
:10A2500033F02AFB034601202B60FFF7EBFC0028BC
:10A26000CDD094F8412094F8403094F8430094F80D
:10A270004210324E0390CDE900320291E38F304A12
:10A2800050215EA83FF078F95EA906F1100040F277
:10A2900001621EF001FC337C002B00F077814EAD93
:10A2A000284640220A213EF071FA06F110084FF4C8
:10A2B00080663F2E32462946404640F24381402286
:10A2C0001EF01CFF402840F05E81403EF1D11D4948
:10A2D0001A4832F05DFB01233B7090E794F843107D
:10A2E000B4F8463094F8442094F842008DED101BE9
:10A2F0008DED0E0B0DF080FD9DED0E0B9DED101BF9
:10A30000014617E7AFF300800B410E4A9869F23F10
:10A3100050E0002098E0002078DD0020ACE0002034
:10A32000580101204A01012090F0002094DD002016
:10A33000D8E000209CDE002098F0002084DD002082
:10A3400068CF060088CF060032AA0821B0EE4C0A7A
:10A35000F0EE6C0A012033F091FAB0EE4B0AF0EE09
:10A360006B0A38AA0821012033F088FAB0EE4A0AB5
:10A37000F0EE6A0A012112AA084633F07FFAB0EE25
:10A38000480AF0EE680A2AAA0221012033F076FA80
:10A39000B0EE490AF0EE690A2EAA0221012033F03C
:10A3A0006DFA94ED0A0B15AA0221012033F066FA2A
:10A3B00094ED0C0B18AA0221012033F05FFA7A4BBE
:10A3C0007A4E18683DF056FA1BAA41EC100B032197
:10A3D000012033F053FA764B18683DF04BFA1EAA71
:10A3E00041EC100B0321012033F048FA714B18683F
:10A3F0003DF040FA21AA41EC100B0321012033F07B
:10A400003DFA3378002B40F0A9809FED658BB0EECC
:10A41000489AF0EE689A0121084624AAB0EE490A4B
:10A42000F0EE690A33F02AFA24A80B210DF0F2FEAF
:10A43000002800F09080B0EE480AF0EE680A012192
:10A44000084627AA33F01AFA27A80B210DF0E2FEDE
:10A4500000287DD032AB449338AB459312AB469382
:10A460002AAB47932EAB489315AB499318AB4A934D
:10A470001BAB4B931EAB4C9321AB44AE4D9356F8A4
:10A48000040B14210DF0C6FE00283FF4A8AEAE4226
:10A49000F5D1494B1B78002B3ED1002001463EAA46
:10A4A00018230DF0C3FD454B454D1A68089224A9A9
:10A4B0000C9121A90B911EA90A911BA9099118A918
:10A4C000079115A906912EA905912AA9049138A9E9
:10A4D000039132A927AB029112A9CDE900910D9306
:10A4E0004FF48071374A3EAB5EA83FF045F85EA955
:10A4F000284632F0BDFA00287FF471AE2B7C88F834
:10A50000000038700BB1FDF78DFC2F481EF086F867
:10A510000120FFF7A7FB62E6E08F94F8442094F84F
:10A520004330B4F84610029100F5FA60CDE90032EC
:10A5300094F8401094F8423094F8412080B20DF025
:10A540006DFCACE71EF0DAFDB0421CD1403EB0E637
:10A550001E4B27937EE71D4B24936CE7FDF782FA91
:10A56000D8B11B4B18683DF085F941EC190B3378D5
:10A5700083B1FDF777FA68B1154B58683DF07AF969
:10A5800041EC180B47E710481EF048F80120FFF790
:10A5900069FB34E69FED028B3DE79FED019BE6E70B
:10A5A000000000000000F87F4CD80020A86B0020BD
:10A5B00050D8002054D80020ACE0002060010120D9
:10A5C00084DD002038CF060094DD00206E616E002F
:10A5D000D86900202DE9F04F1F4C85B004F26C497A
:10A5E00080464F4604F2444BA246032501AEFF22AB
:10A5F0000023CDF80880ADF80420039396E80E0000
:10A60000384621F073F994F87E341348C4F86894FE
:10A6100001223946BBB920F07DF960B158461DF0E2
:10A62000FDFF0E4851461EF079FA60B10C4B1C60DC
:10A6300005B0BDE8F08F034602463946064820F0D3
:10A6400069F90028EAD1642033F03AF9013DCED10E
:10A65000284605B0BDE8F08F486500208C690020D1
:10A66000442E012010B52048204A037C002111709F
:10A670005BBB1F4A1F4B002414701C70FFF76AFB62
:10A680001D4A1E4B1E48147021461C7026F0AAFD60
:10A690001C4829F085FDF8B9194826F069FE1948CB
:10A6A000002129F053FD1748002129F053FD012115
:10A6B0000C2036F05BFC1449144A15480023BDE811
:10A6C00010400B701370FFF785BF10301DF0A6FF10
:10A6D0000320FFF7C7FACCE70A4829F095FD0146A9
:10A6E000084829F07BFDD7E75CDC002050DC002027
:10A6F0009DDC00202A8C0020A96B00202D8C0020DE
:10A70000EC400120AC3A012058DC00209CDC002009
:10A7100080841E00F0B5244D244F002387B02846C6
:10A720003B70FFF757FF044610B1204607B0F0BD5D
:10A730001F4E0495FF230590ADF80C3006F26C45D2
:10A7400006AB13E90E00284621F0D0F896F87E34C7
:10A75000C6F86854002BE8D1D6F86C3428469B69BB
:10A7600098470028E1D0D6F86814019123460122C9
:10A77000304620F0CFF8019960B10E481DF04EFF31
:10A780000B4901F244401EF0C9F950B10A4B04468E
:10A790001E60CAE723462246304620F0BBF8002858
:10A7A000EBD101233B70C0E780841E0049010120EA
:10A7B000486500208C690020442E012010B58AB025
:10A7C00000230C4A0C49ADF8043001A88DF806307E
:10A7D0001EF05AF9044650B9064A0849ADF804403B
:10A7E00001A801238DF806401EF026F804462046F5
:10A7F0000AB010BD24DF0600486500208C690020E7
:10A800002DE9F04F364F374B3C781B5D89B0002B5C
:10A8100039D0DFF8EC80DFF8ECA004ADC4EBC40263
:10A8200008EB420358F8120059689A68B3F80CB064
:10A830005AF824906B4607C3A3F800B0294B4FF099
:10A84000000C84F0010E2A460E216846C5E900CCB2
:10A85000C5E902CC03F804C087F800E00EF0EAFB7B
:10A860004FF0010CA8B195E80F001F4E1F4C86F861
:10A8700000C01F4EC4F8009086E80F003C78194BCA
:10A880001B5D002BCAD11B4B1B785BB909B0BDE81F
:10A89000F08F3C78134B1B5D002BBFD1154B1B7801
:10A8A000002BF3D033F000F80F4B1A78034692B91F
:10A8B000024647F22F518A42E8D90F4C22689A1A71
:10A8C0008A42E3D90D48236027F0EAFF00210B48B4
:10A8D00027F0C4FFDAE7054A1268821AE9E700BFE9
:10A8E000D469002084AF0020A86B002028AF00208E
:10A8F000D8690020CD7B0020486A00204841012013
:10A900008CAE002020AF00202DE9F043B84EB94DA9
:10A9100033782A789A42A1B0D8B200F262812B78BB
:10A92000C31ADBB2002B00F025812978B24A01F06E
:10A930000F01012B52F82110009100F08D80297831
:10A94000013101F00F01022B52F82110019100F0AA
:10A9500083802978023101F00F01032B52F8211076
:10A96000029179D02978033101F00F01042B52F8BC
:10A970002110039170D02978043101F00F01052BCB
:10A9800052F82110049167D02978053101F00F01A8
:10A99000062B52F8211005915ED02978063101F07E
:10A9A0000F01072B52F82110069155D02978073155
:10A9B00001F00F01082B52F8211007914CD0297893
:10A9C000083101F00F01092B52F82110089143D0F2
:10A9D0002978093101F00F010A2B52F82110099151
:10A9E0003AD029780A3101F00F010B2B52F82110CF
:10A9F0000A9131D029780B3101F00F010C2B52F85C
:10AA000021100B9128D029780C3101F00F010D2B6A
:10AA100052F821100C911FD029780D3101F00F014F
:10AA20000E2B52F821100D9116D029780E3101F01D
:10AA30000F010F2B52F821100E910DD029780F31F4
:10AA400001F00F01102B52F821100F9104D02B7838
:10AA500003F00F0352F82330DFF8B0C1DFF8C8E18C
:10AA60009CF800402870013BDBB201AA02EB83078F
:10AA7000DEF80000614A6B46002C40F0EA80107856
:10AA800000F0FF01002840F0A18018680C46043354
:10AA9000BB4219D092F800801968B8F1000F40F05D
:10AAA0009A80A1EB00085648A8F6B839814500F213
:10AAB000908020A800EB840904330134BB4208468F
:10AAC00049F8408CE4B2E5D10123CEF800008CF8BF
:10AAD0000030002C4ED0012C109B39D9119A022C39
:10AAE000134435D0129A032C134431D0139A042CFA
:10AAF00013442DD0149A052C134429D0159A062CF2
:10AB0000134425D0169A072C134421D0179A082CE9
:10AB100013441DD0189A092C134419D0199A0A2CE1
:10AB2000134415D01A9A0B2C134411D01B9A0C2CD9
:10AB300013440DD01C9A0D2C134409D01D9A0E2CD1
:10AB4000134405D01E9A0F2C13441CBF1F9A9B1848
:10AB500007EE903A07EE104AF8EE677AB8EE470A29
:10AB6000F7EE000A87EE800A0EF0FAFA2548214631
:10AB70000EF0C6FA244B1A781AB1244900220A7042
:10AB80001A70234A234B1468DB68D90103D5224B82
:10AB90001A68D2074AD434F09FF8204B204AA0FB11
:10ABA0000301830A43EA81531B1B934244D8154A8D
:10ABB0001C4BD2ED007AB6EE007A77EE877AFDEE86
:10ABC000E77AC3ED007A21B0BDE8F083186814700D
:10ABD0005DE708465BE74FF00008084682F8008012
:10ABE00055E72A7800F110039B1ADBB29AE600BF02
:10ABF000A4010120A601012064010120C6600020FB
:10AC0000C8781E00BC600020A5010120898E0020AC
:10AC10005C010120F0ED00E0001000E040420F0078
:10AC200020A10700600101201C7C00205B680A4A0B
:10AC30009B091B1B9342BAD908480EF059FA084BDE
:10AC4000084A0121197033780021DBB22B70117092
:10AC5000ADE700241EE700BF20A10700BC60002074
:10AC6000C6600020898E002070B5294D2C782CB943
:10AC70004FF08043D3F83834DB0701D4204670BD51
:10AC8000244E34F015FF306805210EF055F970B3ED
:10AC90000523336034F016FF1F48FFF79BFC10B903
:10ACA0001E48FFF797FC1E4BD3F8680403689B69A6
:10ACB0009847024628B34FF400731A48002121F048
:10ACC000F9FC18480122002121F0FCFC154821F074
:10ACD0000BFD044680B1144821F094FA322032F082
:10ACE000EFFD114821F090FA01232B70C6E734F0F4
:10ACF000E9FE3368204670BD02460146094821F04E
:10AD0000E1FC0648FFF766FC0520FEF7ABFFB5E760
:10AD1000922C01207CDD002000127A0080841E002D
:10AD20004865002030AF00206C2E0120002238B58D
:10AD30001148124D114621F0C5FC32F0B5FD044614
:10AD400008E032F0B1FD2B68C01A632808D805204E
:10AD500032F0B6FD32F0A8FD001BB0F57A7FF0D3DB
:10AD6000074BD3F868040368DB699847322032F058
:10AD7000A7FDFCF7A7FA00BF30AF0020B47B00208E
:10AD8000486500202DE9F04F80468B4658F8043B7B
:10AD900098E8070093F83C4093B006AF0DF1240902
:10ADA000202C87E8070089E8070062D10CAC84E812
:10ADB000070094E807000FAC84E807000090044601
:10ADC000002856D01D8F4FF6FF72954251D0DB6A96
:10ADD000E90903EBC10105F07F05496811EBC505E1
:10ADE00047D01099EE880292481E22184FF0010AAF
:10ADF0002C46039504963546CDF8148001921E46E4
:10AE00008846BAF1000F11D1029B9D4231D0E8096A
:10AE100006EBC00005F07F05446814EBC50428D09C
:10AE20008AF0010AE588BAF1000FEDD020790428F4
:10AE30003CD0052836D002281FD0B8F1000FE3D14E
:10AE40002A464FF6FF718A423346DDF81480DDE969
:10AE500003560ED0D00903EBC00002F07F02416818
:10AE600011EBC20105D00A79111F012925D9022A47
:10AE700023D0584613B0BDE8F08F20463EF06FFC5B
:10AE80004045C1D1B8F1000FDAD0009B013C581EFB
:10AE900010F8012F14F8013F9A42B5D1019B83426B
:10AEA000F6D1CDE72468E0880834E9E72468204635
:10AEB000002CE5D03EF053FCE2E798E807000CAC2C
:10AEC00084E8070087E8070089E8070094E807009E
:10AED0000FAC84E80700804600283ED0109C671E17
:10AEE0000744BB46274654464FF6FF799A467CB93D
:10AEF0004E4532D0F3090AEBC30306F07F065D68C6
:10AF000015EBC60529D084F00104EE88002CEFD0A3
:10AF10002B79042B27D0052B3ED0022B38D0002FC5
:10AF2000E6D14FF6FF729642534616D0F20903EB74
:10AF3000C20306F07F065A6812EBC60B99D09BF845
:10AF40000430042B2CD0052B2DD0022B18BF4FF032
:10AF5000000B584613B0BDE8F08F4FF0000B584679
:10AF600013B0BDE8F08F2D6828460DB13EF0F7FB19
:10AF7000B842BDD1002FD4D0681E08F1FF3313F8BA
:10AF8000011F10F8012F9142B2D15B45F7D1C8E7FC
:10AF900028463EF0E4FBEBE72D68E8880835E7E754
:10AFA00052F836B065E752F8363003F1080B60E727
:10AFB0002DE9F047056804460E46002972D0084680
:10AFC0003EF0CDFB8046002D58D02B79202B55D15B
:10AFD000002E53D02B884FF6FF77BB424ED06268CD
:10AFE000D2F82C90D90909EBC10103F07F024B681C
:10AFF00013EBC20342D04FF0010ADD88BAF1000F13
:10B0000010D1BD423AD0EA0909EBC20205F07F0532
:10B01000536813EBC50331D08AF0010ADD88BAF119
:10B02000000FEED01A79042A35D0052A2ED0022A34
:10B0300027D0002004468045E3D1B8F1000F0BD0A3
:10B04000721E631E02EB080112F8014F13F8010F84
:10B050008442D6D18A42F7D14FF6FF739D420DD07C
:10B06000EB0909EBC30905F07F05D9F8040000EBF3
:10B07000C505281E18BF0120BDE8F0870020BDE8E7
:10B08000F08718461C463EF06AFBD4E71B68D88858
:10B0900003F10804CFE71C682046002CCBD03EF01B
:10B0A0005EFBC8E788468EE78368002B00F0F680D9
:10B0B0001A79402A40F0F2802DE9F04F1B884FF6B4
:10B0C000FF77BB428FB01CD0D0E90324D56ADA09E0
:10B0D00005EBC20203F07F03526812EBC30310D0EA
:10B0E000DA881CB912E0013CDA880FD0D109BA42E3
:10B0F00005EBC10102F07F0603D04B6813EBC603DA
:10B10000F1D19FED950B0FB0BDE8F08F143007C85B
:10B110001E7901AC84E80700202E04AC84E8070007
:10B12000EFD194E8070007AC84E807000AAC84E894
:10B13000070082460028E4D018884FF6FF77B8420F
:10B14000DFD0C20905EBC20200F07F03506810EBAC
:10B15000C300D6D0DDF82C90C68809F1FF384FF037
:10B16000010BD044BBF1000F10D1BE42C9D0F2098F
:10B1700005EBC20206F07F03506810EBC300C0D09D
:10B180008BF0010BC688BBF1000FEED00279042AC8
:10B190007DD0052A77D0022A60D0B9F1000FE4D122
:10B1A0004FF6FF708642ACD0F20905EBC20206F002
:10B1B0007F03576817EBC301A3D00A7912F010047C
:10B1C0000CD037F83340844200F0C180E00905EB31
:10B1D000C00504F07F006C6804EBC004023A1C2A2E
:10B1E0008FD801A050F822F0A7B2020003B10200EC
:10B1F000A3B2020025B30200EFB2020003B10200C5
:10B2000003B1020003B10200FDB2020003B102006B
:10B210000BB3020003B1020019B3020003B1020034
:10B2200003B1020003B1020003B1020003B1020046
:10B2300003B1020003B1020003B1020003B1020036
:10B2400003B1020003B1020033B3020003B10200F4
:10B2500041B3020003B102002DB3020004463EF0E8
:10B260007EFA484581D1B9F1000F99D0601E0AF1EC
:10B27000FF3212F8014F10F8011F8C427FF475AFB6
:10B280009045F6D18CE70468E0880834E9E7046863
:10B290002046002CE5D03EF062FAE2E79FED2E0B4F
:10B2A000704757F833100AA8FDF756FA9DF8283072
:10B2B000013B032B3FF625AFDFE803F0130C05023B
:10B2C0009DED0C0B1FE7DDE90C013CF0F5FA41ECBC
:10B2D000100B18E7DDE90C013CF0F6FA41EC100B1D
:10B2E00011E70C983CF0C6FA41EC100B0BE717F88D
:10B2F00033003CF09DFA41EC100B04E757F83300A3
:10B300003CF096FA41EC100BFDE657F833003CF0A8
:10B310009FFA41EC100BF6E608683CF0ABFA41EC02
:10B32000100BF0E657F833100831BCE794ED000B32
:10B33000E9E6D4E900013CF0BFFA41EC100BE2E68B
:10B34000D4E900013CF0C0FA41EC100BDBE600242C
:10B3500044E700BFAFF300800000000000000000E1
:10B360002DE9F04F00F10C02034607CAD3E901466C
:10B370008FB001AB83E80700002C74D093E807007E
:10B38000257904AB202D83E807006CD107AB0AAF09
:10B3900083E8070087E807008246002863D02088FA
:10B3A0004FF6FF7840455ED0D6F82C90C20909EBE5
:10B3B000C20200F07F03506810EBC30053D04FF07F
:10B3C000010B0B9EC588BBF1000F10D145454AD03B
:10B3D000EB0909EBC30305F07F05586810EBC500C6
:10B3E00041D08BF0010BC588BBF1000FEED0037983
:10B3F000042B56D0052B50D0022B39D0002EE5D18E
:10B400004FF6FF7085422ED0EB0909EBC30305F020
:10B410007F055C6814EBC50125D00B7913F0100291
:10B420000DD034F83520824200F09780D00909EB26
:10B43000C00902F07F00D9F8042002EBC002023BF1
:10B440001C2B10D8DFE803F0360F34595D0F0F0FB7
:10B45000640F6B0F720F0F0F0F0F0F0F0F0F0F0FE8
:10B46000780F7F0F86009FED3E0B0FB0BDE8F08F89
:10B4700004463EF074F98642A8D1002EC0D00AF1ED
:10B48000FF33601E9A1901E09A42B9D013F8014FB8
:10B4900010F8011F8C42F7D098E70468E088083460
:10B4A000E9E70468002CA9D020463EF058F9E2E70D
:10B4B00054F835103846FDF74FF99DF82830013B18
:10B4C000032BD0D8DFE803F0130C05029DED0C0B25
:10B4D000CBE7DDE90C013CF0EFF941EC100BC4E7E0
:10B4E000DDE90C013CF0F0F941EC100BBDE70C98E4
:10B4F0003CF0C0F941EC100BB7E754F835100831B7
:10B50000D8E714F835003CF093F941EC100BACE7A8
:10B5100054F835003CF08CF941EC100BA5E754F8D9
:10B5200035003CF095F941EC100B9EE708683CF0C3
:10B53000A1F941EC100B98E7D2E900013CF0BCF90D
:10B5400041EC100B91E7D2E900013CF0BDF941EC70
:10B55000100B8AE792ED000B87E700226FE700BF30
:10B5600000000000000000002DE9F04F85B004ACA1
:10B5700004E90E00DDF80480B8F1000F47D0008820
:10B580004FF6FF76B04242D00E9BD3F82C90C20902
:10B5900009EBC20200F07F03506810EBC30036D005
:10B5A000029DB0F806B06F1E4FF0010A4744BAF191
:10B5B000000F12D1B3452AD04FEADB1309EBC303C6
:10B5C0000BF07F0B586810EBCB0020D08AF0010AFB
:10B5D000B0F806B0BAF1000FECD00379042B31D0EB
:10B5E000052B2BD0022B16D0002DE3D14FF6FF7385
:10B5F0009B450CD04FEADB1309EBC3090BF07F0B23
:10B60000D9F8040000EBCB0005B0BDE8F08F0020B6
:10B6100005B0BDE8F08F04463EF0A1F8A842C9D1BC
:10B62000002DE3D0601E08F1FF3313F8011F10F85E
:10B63000012F9142BED19F42F7D1D7E70468E0883D
:10B640000834EBE704682046002CE7D03EF087F88A
:10B65000E4E700BF2DE9F04184B0064604A800E904
:10B660000E003068DDE90187A8B17D1E4544C3881E
:10B67000BB420DD1002F56D008F1FF33C21D01E0AF
:10B68000AB4250D013F8014F12F8011F8C42F7D093
:10B6900000680028EBD1B7F5803F4AD20A9B2E4ABA
:10B6A0001B681B68934207F1090046D132F024F968
:10B6B00000283ED00123C780838000F108054FB3E6
:10B6C00000F10C0108F10402954238BF884507F1EA
:10B6D000FF3336D3072B34D927F0030444444346C1
:10B6E0002A4653F8041B42F8041BA342F9D1BA07B7
:10B6F00027F003030ED018F80320EA545A1C97428F
:10B7000008D9023318F80210A9549F4202D918F838
:10B710000320EA54074400233B723368036030601F
:10B7200004B0BDE8F08183880133838004B0BDE8B4
:10B73000F081002004B0BDE8F08101460A989847E6
:10B74000B6E74344C21D08F1FF3818F8011F02F89C
:10B75000011F9845F9D1DDE715760200437DDBB185
:10B76000037D202B12D8DFE803F01F1111111111F6
:10B7700011111115151111151111111111111111AD
:10B780001111111111111111111115000123037360
:10B79000002070470023437503695A1C02611B781F
:10B7A000037501224275DCE7037B002B14BF0220E6
:10B7B000012070472DE9F04F437D85B00446002BF2
:10B7C00000F0FD80057DDFF878B300221346627536
:10B7D0000092CBB1267D0023B54263751DD0002EAB
:10B7E00000F0E9805C2E20D067686FB1A168FB880B
:10B7F000994200F0B0800F440131A1603E72637D38
:10B80000E7E7C2F30903009323695A1C22611E78FB
:10B8100026750023B5426375E1D16368002B14BF20
:10B820000020042005B0BDE8F08F2269511C216181
:10B830001178217501206075002900F0BC80752900
:10B8400010D0BD4A2F2304E012F8023F002B00F075
:10B85000AE808B42F8D15678002E00F0A8800023ED
:10B860006375C1E7911C6375216153782375607519
:10B87000002B00F0A080402B86BF23F02003A3F113
:10B880003701A3F13001C8B20F2800F290800021E7
:10B89000D31C61752361917821750123637500299B
:10B8A00000F08980402986BF21F0200137393039E6
:10B8B000C9B20F297BD80026131D66752361D37882
:10B8C0002375012641EA00116675002B73D0402BC9
:10B8D00086BF23F02003373B303BDBB20F2B66D80B
:10B8E00000206075501D20611279227543EA011312
:10B8F00001211BB26175002A5DD0402A86BF22F06B
:10B900002002373A303AD2B20F2A50D842EA031313
:10B910009AB202F5205189B20020B1F5806F1EB2B3
:10B920006075FFF46EAF02F510539BB2B3F5806FF4
:10B930004FD37F2A00F2A1806768002F3FF464AFE5
:10B94000A368FA88934200F0DA801F440133A360B1
:10B950003E72637D3DE7D4F800A04900DAF800901C
:10B9600001F10108B8F5803FD9F8003012D29B6888
:10B97000724A934201F10A0140F0A28038463DF03C
:10B98000E3FD28B1A0F80680A1686060074632E7B1
:10B99000D9F800305B685B4517D1384631F0C6FFF7
:10B9A00001238AF804300022637D626011E70320DE
:10B9B00005B0BDE8F08F022005B0BDE8F08F036947
:10B9C0005A1C02611D780575FDE6394648469847C0
:10B9D000E6E7C2F30903009A8DF8080043EA8223E0
:10B9E00003F58032C2F30531C2F3874242F0F0071B
:10B9F00003F03F02C3F3851361F07F0162F07F0221
:10BA000063F07F038DF80B108DF80C708DF8092012
:10BA10008DF80A300DF10D0808F1FF3808E01E44DA
:10BA20000133A360377218F8017D002F3FF4E7AEB1
:10BA30006668002EF7D0A368F2889342EFD15A00CF
:10BA4000D4F800A002F10109B9F5803FDAF800301E
:10BA500028D21968886802F10A01384A904284465F
:10BA600045D1304601933DF06FFD019BD0B1A0F868
:10BA70000690A36860600646D1E706F03F0363F0D6
:10BA80007F03B2F5006F8DF809308DF808004FEA9A
:10BA900092131AD263F03F03DFB28DF80A700DF1F2
:10BAA0000B08B9E71A6852685A451CD1304631F084
:10BAB0003DFF00234FF001028AF804206360B2E7E3
:10BAC0000A464846394698475BE703F03F029B1118
:10BAD00062F07F0243F0E0078DF80A208DF80B70CA
:10BAE0000DF10C0898E7314618469047E1E70A4601
:10BAF00018460193314663469847019BB6E7D4F850
:10BB000000905A00D9F8008002F1010ABAF5803F8E
:10BB1000D8F8003018D29B6808498B4202F10A021B
:10BB20001FD1114638463DF00FFD58B1A0F806A0D0
:10BB3000A3686060074608E724D006000576020087
:10BB40000D760200D8F800305B685B450DD13846B1
:10BB500031F0ECFE012389F804300022637D62603D
:10BB600037E6394640469847DFE73946404698472A
:10BB7000F0E700BF2DE9F04F427D8DB004460D4641
:10BB8000002A76D0027D202A12D8DFE802F07A114E
:10BB90001111111111111170701111701111111178
:10BBA0001111111111111111111111111111700037
:10BBB00001217B2A217300F260815A2A42D9A2F125
:10BBC0005B01202900F25981DFE811F0C000570124
:10BBD00057015701570157015701570157015701A5
:10BBE00057011C01570157015701570157015701D0
:10BBF00057012100570157015701570157013A01D9
:10BC00005701570157015701570157016400CF49A8
:10BC10001346002001259A4240F0718111F8013F3E
:10BC20006075002B00F088812269561C266112780D
:10BC300022756575002AEED14FF0020840460DB01E
:10BC4000BDE8F08F222A02D0272A40F016816368CF
:10BC50000022A260002B00F047822046FFF7AAFDD9
:10BC6000804698B929462046FCF724FC0EE00022C5
:10BC700062752269511C216112782275012161755A
:10BC800081E7237B002BD7D14FF0010840460DB050
:10BC9000BDE8F08FDEB220224FF0FF332A712B6017
:10BCA000002E00F04F8100232269637519460120A0
:10BCB0001346013222611B7823756075202B00F238
:10BCC0008D8101A757F823F039BC0200DDBF0200C7
:10BCD000DDBF0200DDBF0200DDBF0200DDBF0200EC
:10BCE000DDBF0200DDBF0200DDBF020055C1020062
:10BCF00055C10200DDBF0200DDBF020055C10200D8
:10BD0000DDBF0200DDBF0200DDBF0200DDBF0200BB
:10BD1000DDBF0200DDBF0200DDBF0200DDBF0200AB
:10BD2000DDBF0200DDBF0200DDBF0200DDBF02009B
:10BD3000DDBF0200DDBF0200DDBF0200DDBF02008B
:10BD4000DDBF0200DDBF020055C1020040214FF0FF
:10BD5000FF32DBB229712A60002B00F0F380002152
:10BD6000226961750846012611460132226109786F
:10BD700021756675202900F2EF8001A757F821F0A0
:10BD800039BC020059BF020059BF020059BF02006E
:10BD900059BF020059BF020059BF020059BF02003B
:10BDA00059BF020059C1020059C1020059BF020027
:10BDB00059BF020059C1020059BF020059BF020019
:10BDC00059BF020059BF020059BF020059BF02000B
:10BDD00059BF020059BF020059BF020059BF0200FB
:10BDE00059BF020059BF020059BF020059BF0200EB
:10BDF00059BF020059BF020059BF020059BF0200DB
:10BE000059C1020000232B70637D06212971002B8C
:10BE100000F0BC81237D4E49002B3FF40DAF9A42C8
:10BE20006DD111F8012F00236375002A00F0848082
:10BE30002369581C20611B78237501206075EBE78E
:10BE400001232B70637D06212971002B00F0A08156
:10BE5000237D4049002B3FF4EFAE9A424FD111F8B9
:10BE6000012F00236375002A66D02369581C2061C6
:10BE70001B78237501206075ECE700239E4604F1D2
:10BE80001B014FF0010C15E0392A03D902F0DF0045
:10BE9000452817D13F2B03F1010013D084F815E09A
:10BEA00001F8012F2269C3B2501C2061127822755B
:10BEB00084F815C02F2AE7D82B2AA2F12D00E9D04B
:10BEC0000128E7D9234400221A7704F11C0108A8AD
:10BED000FCF742FC9DF8208008F1FF33032B0ED8BD
:10BEE000DFE813F0130127011A011300392940F28A
:10BEF00096805E2940F28E807A2940F290804FF041
:10BF0000030840460DB0BDE8F08FDDE90A67394609
:10BF100030463BF0FFFF82463BF0ACFC02460B464E
:10BF2000304639463BF066FF8146002800F06781C5
:10BF30000E23C5F800A02B714FF0000840460DB04D
:10BF4000BDE8F08F4FF00508A0E600BF48D006001E
:10BF500040D0060038D0060001225D29227339D076
:10BF60005E1E17464FF6FF79D4F8188008A84146A0
:10BF7000FCF7DEF80899002900F072816B88BDF8A3
:10BF800024204B4500F00981D8F82C004FEAD31C3F
:10BF900000EBCC0003F07F03406800EBC303DA80C2
:10BFA0006A8033464FF000022046FFF7E3FD8046EB
:10BFB00000287FF46BAE2046FFF7D0FB80460028B8
:10BFC0007FF464AE637D002B00F0EE80237D5D2B5B
:10BFD00040F0D68000206075804657E601227D2B18
:10BFE0002273F7D0DFF81493DFF814A300276368F7
:10BFF000A760002B00F0F180637D002B00F0AE8085
:10C00000217D272900F0B480222900F0B1802F295A
:10C010003FF66CAFA1F14103192B3FF670AF4FF023
:10C02000010867752046FCF7DDFA637D002B00F000
:10C030001D81217D2F29A1F1410300F2C480192B1C
:10C04000EFD96368002B00F00B812046FFF786FBD9
:10C05000804600287FF41AAE637D002B00F0AB8091
:10C06000237D3A2B7FF44BAFD4E90132134467753B
:10C070001F72D4E90132D4F818B08DF82870083353
:10C0800008930992CDF800B008AB0ECB2846FFF715
:10C090006BFA59468046002800F0F880FCF7ECFA6D
:10C0A0004146731E4FF000022046FFF763FD8046B5
:10C0B00000287FF4EBAD2046FFF750FB80460028B8
:10C0C0007FF4E4AD637D002B00F0D880237D7D2BD1
:10C0D00080D02C2B7FF413AF67752046FFF73EFB13
:10C0E0008046002883D0D1E52668844A30680368FA
:10C0F0001B68934240F0B780282031F0FDFB0028F8
:10C1000048D07F4B43606060A7E50A9A2A600E23FF
:10C110002B714FF00008B9E5DDE90A67012F08BF70
:10C12000002E80F08D800A232E602B714FF00008C6
:10C13000ACE5DDE90A9A19F100464AF10007012F42
:10C1400008BF002E6CD20C23C5F800902B714FF065
:10C1500000089BE56175ABE5607505E623695A1C2F
:10C160002261197821750123272963757FF44CAF6B
:10C170002046FFF71FFB804600283FF466AF85E5A9
:10C180002C2B7FF4BCAE00236375EDE65D494FE6D2
:10C190005D496AE601233371B5E7002362F30F03BB
:10C1A00062F31F432B60FCE623695A1C22611B7853
:10C1B000237567750BE723695A1C22611B78237569
:10C1C000012262754DE739297FF62BAF5E297FF694
:10C1D00036AF7A297FF625AF33E7D4F80080D8F858
:10C1E000000003681B684B4540F08280282031F036
:10C1F00083FB002878D0C0F804A06060FCE6A16949
:10C2000006A8FCF779F8069B002B3FF43FADBDF87C
:10C210001C202A801E212971C846C3E9006735E524
:10C22000A16906A8FCF768F8069BCBB1BDF81C20F5
:10C230002A801C2129714FF00008C3E9009A25E5E6
:10C24000A16906A8FCF758F8069B4BB1BDF81C2065
:10C250002A801A2129714FF00008C3E9006715E50B
:10C260004FF0040812E52821984748E723695A1C33
:10C2700022611978217584F81580DBE623695A1C40
:10C2800022611B7823750122627520E704A8FBF761
:10C290004FFF049B002BE3D0594606A80393FBF7FE
:10C2A00047FFDDF81880B8F1000FD9D0039BBDF827
:10C2B0001C10D9806A88BDF814004FF6FF7C6245D7
:10C2C00019D0DBF82CC04FEAD21E0CEBCE0C02F0DA
:10C2D0007F02DCF804C00CEBC202D08069801946F2
:10C2E0002046FCF7E7F8DBE6012388F8043084E712
:10C2F000282198477DE728806980F0E715760200BD
:10C3000001001F0040D0060038D006002DE9F04F94
:10C31000038E9BB00746044657F80CBBADF80420CB
:10C32000884600F1380903B30026C36AB2460BE021
:10C3300031F0FCFAE36AC5F800A0208EC5F804A02D
:10C340000136B1B2884211D9B5B203EBC5056968AF
:10C3500008460029EFD0DBF80030374A5B6893428B
:10C36000E6D058469847E36AE5E7C36A00204FF6EF
:10C37000FF719F422086A1860BD0DBF800102E4D66
:10C380004E68AE424DD1184631F0D0FA0423E76230
:10C390006386A16826680023237161B1264D336846
:10C3A0000A685B68A260AB4208462DD131F0BEFA44
:10C3B000A1680029F3D1002584F83C509DF8053090
:10C3C0008DF8185049464FF0000203A8CDE90455F6
:10C3D0008DF821500394CDF81C800994FFF7CAFB17
:10C3E000054610B99DF82050A5B9049840B1039BAB
:10C3F00011491A6813685B688B4216D131F096FABE
:10C4000028461BB0BDE8F08F30469847A168002948
:10C41000C5D1D0E794F83C5015F0080518BF0325A6
:10C42000E3E719465846B047B0E70146104698473B
:10C4300028461BB0BDE8F08F0D7602002DE9F04FC5
:10C44000002193B09448DFF878A21CF08DFC04E042
:10C45000013492482C601CF0E1F88F498F4800228B
:10C460001CF050FD8046002800F00C818C4D2B689C
:10C47000C72B00F3048103A9884819221DF098FFF7
:10C4800003A82E213DF098F908B1002303702C6811
:10C49000844BDFF830B204EB440204EB8202134415
:10C4A0000C220DEB020118463DF073F9DBF8002079
:10C4B0000026C72A0673CBDC7B4C7848214640F621
:10C4C000FF721CF049FB002801DC2C68C0E7774FA5
:10C4D00026543B8E3A68002B00F08D81CDF8048005
:10C4E000FB6A3446B14690460BE031F01FFAFB6A16
:10C4F000C6F80090388EC6F804900134A1B2884284
:10C500000FD9A6B203EBC606716808460029EFD022
:10C51000D8F800305B685345E7D040469847FB6A3F
:10C52000E6E74246DDF80480614C00213986A342EB
:10C530004FF6FF71B9860AD011684E68564540F033
:10C540004981184631F0F2F90423FC627B86B86811
:10C550003C6800233B7158B1236802685B68BA608D
:10C56000534540F0848031F0E1F9B8680028F3D1F8
:10C570000A238DF809300023029A4B494B4887F86B
:10C580003C30FFF7C3FEC0B200289ED197F83C3084
:10C59000202B00F09B80402B97D13B8F4FF6FF74F0
:10C5A000A34292D0FE6ADA0906EBC20203F07F03CF
:10C5B000526812EBC30388D0DA88D309A24206EB93
:10C5C000C30302F07F0100F1010003D05B6813EBAD
:10C5D000C103F1D100283FF478AF364BDFF8E89083
:10C5E0000D970AA84FF000080B260124CDE90E8311
:10C5F000CDF8309010968DF84440FEF755FD2E4B47
:10C60000CDF830900AA8CDF8388010968DF84440C7
:10C610000D970F9357EC106BFEF746FD0022002399
:10C620003046394659EC108B3BF0E4FB40B1002218
:10C630000023404649463BF0DDFB00287FF445AF30
:10C64000DBF800401D4B04EB440203EB021303A98B
:10C650001F2218463DF09DF8621C0021C0E90867C2
:10C66000C0E90A892C68CBF80020C177F0E60146C2
:10C6700020469847B86800287FF46EAF78E70748EF
:10C680001BF0CCFF04481BF0C9FF0420FDF7EAFAB9
:10C69000012013B0BDE8F08FC0010120B0DE002002
:10C6A0003CFD0020A0F00020B46B0020D8BF00208B
:10C6B000E4BF002050D006005CD0060078060120C0
:10C6C0000D760200F82B012010C000203B8F4FF6A2
:10C6D000FF7293423FF4F9AED7F82C90D80909EBDA
:10C6E000C00003F07F01436813EBC1033FF4EDAEDC
:10C6F000DE88B8F1000F14D196423FF4E6AEF1099E
:10C7000009EBC10106F07F064B6813EBC6033FF44B
:10C71000DCAE88F001085FFA88F8DE88B8F1000F17
:10C72000EAD0197904295DD0052957D00229E3D12F
:10C7300018461C463DF013F84FF6FF720728DBD170
:10C740002378632BD8D163786F2BD5D1A378752B41
:10C75000D2D1E378722BCFD12379732BCCD16379EB
:10C76000652BC9D1A379732BC6D14FF6FF739E42B7
:10C770003FF4ABAEF30909EBC30306F07F065B6839
:10C7800013EBC6043FF4A1AE2279402A7FF49DAE9C
:10C7900033F836304FF6FF7C63453FF496AEDA0946
:10C7A00009EBC20203F07F03526812EBC3033FF4AC
:10C7B0008CAED9880026CA09614509EBC20201F096
:10C7C0007F0006F1010618D0536813EBC00314D0A4
:10C7D000D988F0E719461046B047B5E61C68E088EE
:10C7E0000834ABE71C68002C86D020463CF0B7FF2D
:10C7F0004FF6FF72A2E7FB6A96E6002E3FF465AEA5
:10C800000C4B0C940AA84FF000094FF00B080126BE
:10C81000CDE90F38CDE90D798DF84460FEF744FC81
:10C82000054BCDF838900AA8CDF840808DF84460CB
:10C830000C94EDE650D006005CD0060030B5214DDA
:10C840008BB033F035F9286804210CF075FBF8B192
:10C8500004232B6033F036F900231B4A1B49ADF843
:10C86000043001A88DF806301CF00EF90446B0B172
:10C87000174C184B14491848002222601A601CF00B
:10C880000BF9C0B1FFF7DAFD044620460BB030BD0E
:10C89000044633F017F92B6820460BB030BD0A4A26
:10C8A0000E49ADF8044001A801238DF806401BF0A5
:10C8B000C3FF0028DCD10420FDF7D4F90024204672
:10C8C0000BB030BD7CDD002024DF06004865002071
:10C8D0003CFD0020F82B0120C00101208C690020C4
:10C8E000F0B54D4E4D4D33882B789BB0002B68D161
:10C8F000032003F0FF07FDF79DF90446002855D0FB
:10C90000474B484A322168463CF036FE464A474982
:10C91000ADF834703B460DA88DF836701CF0B4F8B5
:10C92000044648B9ADF834003F4A41498DF83640D5
:10C9300001230DA81BF080FF00243C49ADF83440D2
:10C9400023466A460DA88DF836401CF09DF8002855
:10C9500052D100234FF47A71364C0E93ADF8443027
:10C960008DF846300F916A4630490D9411A844F273
:10C9700002231CF089F89DF84440002C36D0328800
:10C980002D4992B211A81CF0B9FB044611A81BF066
:10C9900045FE0320FDF766F933889BB2A3421DD004
:10C9A000264927480F2225F013FA0FE025490C22CB
:10C9B000234825F00DFA244A244B14701C701BB038
:10C9C000F0BD23491E480E2225F002FA1E491F4AD7
:10C9D00000230B7013702B701BB0F0BD1D4918485D
:10C9E000032225F0F5F9FFF729FFEFE70320FDF714
:10C9F00039F912490F22DBE70C49ADF83440012325
:10CA00006A460DA88DF836401CF03EF80028A0D0EC
:10CA10000DA81DF0A9F89CE7288C0020CA7B0020F7
:10CA2000708E002078D0060024DF060048650020C4
:10CA30008C6900204CDD0600287C002084D0060094
:10CA4000F4DF0020E8CE0600247C00206D8E00205C
:10CA500068D0060094D0060070B5304D96B033F023
:10CA600027F8286803210CF067FA60B9044633F010
:10CA700029F82B492B482B680C2225F0A9F92A4BC1
:10CA80001C7016B070BD032600242E6033F01AF817
:10CA9000264B274A322109A83CF06EFD2549ADF806
:10CAA000004009AA234668468DF802401BF0ECFFBF
:10CAB0000546B8B11F49ADF8004009AA01236846F0
:10CAC0008DF802401BF0E0FFC0B90320FDF7CAF863
:10CAD000194914480F2225F07BF9134B00221A70D4
