:020000022000DC
:10700000000004201DA505005DA505005FA5050085
:1070100061A5050063A5050065A505000000000049
:1070200000000000000000000000000099A405001E
:1070300069A5050000000000B9A405006DA50500C4
:1070400079A705006FA50500017C0500F9E903009B
:10705000ADEA03006FA50500D97E05006FA5050008
:107060006FA505006FA505006FA505006FA50500BC
:107070006FA505006FA505006FA505006FA50500AC
:107080006FA50500E9A105006FA505006FA5050026
:107090006FA505006FA5050085A004006FA505007C
:1070A0006FA505006FA50500B52303006FA50500BA
:1070B0006FA505006FA5050000000000000000009E
:1070C0006FA505006FA505006FA5050061AD050062
:1070D0006FA505006FA505006FA5050021B8040088
:1070E0006FA505006FA505006FA505000000000055
:1070F000000000006FA5050000000000D9AD0500EC
:10710000000000000000000000000000000000007F
:10711000000000000000000000000000000000006F
:10712000000000000000000000000000000000005F
:10713000000000000000000000000000000000004F
:10714000000000000000000000000000000000003F
:10715000000000000000000000000000000000002F
:10716000000000000000000000000000000000001F
:10717000000000000000000000000000000000000F
:1071800000000000000000000000000000000000FF
:1071900000000000000000000000000000000000EF
:1071A00000000000000000000000000000000000DF
:1071B00000000000000000000000000000000000CF
:1071C00000000000000000000000000000000000BF
:1071D00000000000000000000000000000000000AF
:1071E000000000000000000000000000000000009F
:1071F000000000000000000000000000000000008F
:10720000F1EE103A43F08073E1EE103A704700BFA0
:1072100010B5054C237833B9044B13B10448AFF3D0
:1072200000800123237010BD2465002000000000B1
:10723000C4DD060008B5034B1BB103490348AFF397
:10724000008008BD0000000028650020C4DD0600A5
:10725000154B002B08BF134B9D46A3F5803A002128
:107260008B460F461348144A121A3BF03FFD0F4B52
:10727000002B00D098470E4B002B00D098470020E1
:10728000002104000D000D48002802D00C48AFF387
:1072900000803BF071FC2000290033F097F93BF0AF
:1072A00045FC00BF000008000000042000000000B2
:1072B0000000000024650020445F01200000000061
:1072C00000000000BFF34F8F0549064BCA6802F467
:1072D000E0621343CB60BFF34F8F00BFFDE700BFF9
:1072E00000ED00E00400FA053CDF70473DDF704729
:1072F00041DF704711DF7047002070470120704761
:1073000001207047704700BF704700BF704700BF43
:107310000F4B104810491A78F0B4104F104E114D11
:10732000114C00233B703370037010482B70237096
:107330000F4D0B700F4C1049037017202B702370EA
:10734000088012B10D4B01221A70F0BC704700BFCB
:10735000D0D90020E18C00205C6A0020BC7A00209B
:10736000717A0020707A0020C48C0020D8D90020C7
:107370001CDA0020C28A0020D0600020FE8C002091
:1073800038B50446C069524D3AF04AFD46A3D3E9E8
:1073900000233AF0AFFD02460B46A069C5E9002381
:1073A0003AF03EFD40A3D3E900233AF0A3FD0246A4
:1073B0000B46606AC5E902233AF032FD3CA3D3E9EB
:1073C00000233AF097FD02460B46E06BC5E9042323
:1073D0003AF026FD38A3D3E900233AF08BFD0246AC
:1073E0000B46B4F84C00C5E906233AF019FD34A366
:1073F000D3E900233AF07EFD02460B46206CC5E936
:1074000008233AF00DFD30A3D3E900233AF072FDD2
:1074100002460B46A06AC5E90A233AF0F1FC24A310
:10742000D3E900233AF066FDC5E90C01E37DAB63C7
:10743000237DA1882748012B8ABF637D002303F0A9
:10744000010385F83C30E27A234B02F00702A2F1F7
:107450000702B2FA82F25209A1F5FA61E98785F8CA
:107460003D20A27985F84020E27985F84120227AF2
:1074700085F84220627A85F84320A27A85F8442074
:1074800021680268A3FB01439B094FF47A7404FB53
:1074900013131249A5F846300132012302600B7024
:1074A00038BD00BFAFF3008048AFBC9AF2D77A3E38
:1074B000FCA9F1D24D62503F51601FEF14D95F3FDC
:1074C0007B14AE47E17A843FF168E388B5F8E43E87
:1074D000D0DD00201CDE0020D34D621018DE00201D
:1074E000704700BF037C13F0080306D0C36A406AEC
:1074F000181A48BF6FF0004070471846704700BF29
:1075000010301CF0EBBE00BF10301CF04BBF00BFB2
:1075100000B583B00B4601220DF1070110308DF844
:1075200007301CF03FFF03B05DF804FB70B5134B50
:1075300005462946012612481E7022F09BFD04468E
:1075400020F07EFD2046F72120F08EFD204602210E
:1075500020F09AFD00221146204620F08DFD094BB7
:107560001E7030F025FD0849084B0D80024620466C
:10757000BDE870401A6020F065BD00BFD8D900207A
:10758000C42B01201DDA002016DA002018DA0020B2
:1075900000B587B00346064A684618213CF09CFABD
:1075A000694682B2034820F0D3FB07B05DF804FBC4
:1075B0004073060078DD002010301CF0F3BC00BFE3
:1075C00000B583B001220DF1070110301CF018FC4A
:1075D00001280CBF9DF807004FF0FF3003B05DF8A5
:1075E00004FB00BF00B583B001903CF068FB01993B
:1075F00082B2034803B05DF804EB20F0A9BB00BFE2
:1076000078DD0020084611463CF04EBA084630F0BE
:1076100011BD00BF084630F0F3BC00BF184BDB685B
:10762000D90110B503D5174B1A68D20722D431F00F
:10763000D7FE154BA0FB0301830A43EA815313498C
:107640000A6840F6B7309A1A824212D9104A0B6083
:107650001048114C01211170027824780A4402F07C
:107660000F02944209D001780C4CC9B244F8213081
:10767000027010BD5B689B09E1E7094B197010BDF2
:10768000F0ED00E0001000E040420F00B8FE0020E6
:10769000B5FE002000FF002002FF0020C0FE0020F9
:1076A00001FF002010B5034B036004460DF00AFFF4
:1076B000204610BDB47E060070B5124C124A134B22
:1076C0002260002646F660706360C4F8886332F07A
:1076D000BDFF0F4B0F4D93ED000B32462146044684
:1076E00018F042F90C4B2C6093ED000A204618F07C
:1076F00003FD0A4B286893ED000ABDE8704018F0BE
:1077000011BD00BFD8D500204C730600FCB70600A1
:1077100008610020FCDA0020B4610020B061002084
:107720002DE9F04F4948037CABB0002B40F08A8034
:107730004748037C002B40F081804648037C002BA7
:1077400078D14548037C002B70D10024322030F0E2
:107750003BFC424E424A43490194234604A84FF45D
:107760007A75ADF810408DF81240029500961CF025
:10777000DFFA9DF81000002855D03B4D2B68132BE5
:1077800049DC3A4FDFF8E88005E011A81CF09AF8D0
:107790002B68132B3FDC4FF47A73002204A911A845
:1077A0000F930E94ADF844408DF846400D961CF0B2
:1077B000FDFC9DF8443040221AA911A85BB31DF0CE
:1077C00049FC9DF8443013F0D00F1AA8DDD13CF0ED
:1077D00076FA03461AAA0638062B39461044D4D93D
:1077E0003CF012FA81460028CFD1D5F800A00AEB70
:1077F0004A0B08EB0B1B1AA92F2258463CF079FACA
:107800000AF1010311A82B608BF82F901CF05AF895
:107810002B68132BBFDD04A81CF054F8286800283F
:10782000D4BF002001202BB0BDE8F08F10301CF039
:1078300049F88AE710301CF045F882E710301CF058
:1078400041F87AE710301CF03DF871E7ACFA0020FF
:1078500024DC00200CFF002040FF0020D07E06002A
:1078600054730600406500209CFA002058730600FF
:10787000E0FA002081682DE9F0470568044669B107
:10788000284E2B680A685B68A260B34208463DD167
:1078900030F0D0FBA1680029F3D12568238E04F1D4
:1078A0000C0903B30027E36ADFF878A0B8460BE0C1
:1078B00030F0C0FBE36AC6F80080218EC6F8048071
:1078C0000137BAB291420FD9BEB203EBC606716856
:1078D00008460029EFD02B685B685345E8D028465E
:1078E0009847E36AE7E7E36A00214FF6FF7299459C
:1078F0002186A28607D02A680A4952688A420BD19B
:10790000184630F097FB2046BDE8F0872846984798
:10791000A1680029B5D1C0E72846194690472046FE
:10792000BDE8F0870D76020081682DE9F047056813
:10793000044669B1284E2B680A685B68A260B342AE
:1079400008463DD130F076FBA1680029F3D12568C7
:10795000238E04F10C0903B30027E36ADFF878A053
:10796000B8460BE030F066FBE36AC6F80080218E73
:10797000C6F804800137BAB291420FD9BEB203EB08
:10798000C606716808460029EFD02B685B6853452E
:10799000E8D028469847E36AE7E7E36A00214FF614
:1079A000FF7299452186A28607D02A680A49526843
:1079B0008A420BD1184630F03DFB2046BDE8F087E7
:1079C00028469847A1680029B5D1C0E7284619463E
:1079D00090472046BDE8F0870D76020030B5434B56
:1079E000434C93F8442093F8420093F8411093F8E5
:1079F000435095B0049293F84020CDE90205CDE9BB
:107A0000002107A8DB8F3B4A18213CF065F820686D
:107A100000284DD018F036FB374D03462068002B68
:107A200018BF1D4618F05EFB07A9236810900022BE
:107A300032480D9132490F95CDE911220E901391E4
:107A4000002B3FD0184618F049FB00283ED1206893
:107A500018F02EFB002839D01BF0DAF823681190BB
:107A6000002B31D0184618F039FB00282CD12068A3
:107A700018F01EFB40B31BF019F90446214A224BB3
:107A8000126800924FF480610DAA204812940CF005
:107A90008FF800211E481CF0BBFA1C491C484FF40B
:107AA00080621CF07FFC1A481CF018FC15B030BD39
:107AB0001248114A174B1249139107ACCDE90D40FA
:107AC000CDE90F23002311930024D7E72068002875
:107AD000F8D018F003FB28B1206818F0FBFA18B1B1
:107AE0001BF0E8FD2368BAE72368B8E7D0DD002083
:107AF000FCDA002070730600607306008C610020C1
:107B00006C610020E0ED002040DE002094C10020E8
:107B100018DB0020FCB7060010B5134C2068B8B184
:107B200018F0DCFAA8B1206818F0D4FA1BF0C0FDF8
:107B30000E4A1368B3F57A7F0ADA48B10C490C682B
:107B4000844205D00B4C086044F8230001331360D5
:107B500010BD206818F0ACFA0028F9D0206818F0A1
:107B6000A7FA1BF053F8E3E7FCDA0020E0ED002071
:107B7000F0ED002040DE00202DE9F047054680684A
:107B80002F6860B1284C3B6802685B68AA60A3421A
:107B90002AD130F04FFAA8680028F4D12F682B8E34
:107BA00005F10C093BB30026EB6ADFF87C80B24696
:107BB0000BE030F03FFAEB6AC4F800A0298EC4F85D
:107BC00004A00136B2B2914216D9B4B203EBC40498
:107BD000616808460029EFD03B685B684345E8D000
:107BE00038469847EB6AE7E7014638469847A86861
:107BF0000028C8D1D2E7EB6A00214FF6FF72994501
:107C00002986AA8607D03A68074952688A4205D170
:107C1000184630F00FFA2846BDE8F0873846194676
:107C200090472846BDE8F0870D7602002DE9F04721
:107C3000038E8146054659F80CABFBB10026C36A9A
:107C4000DFF8A080374609E030F0F4F9EB6A2760EE
:107C5000298E67600136B2B2914210D9B4B203EBFB
:107C6000C404616808460029F1D0DAF800305B6886
:107C70004345E9D050469847EB6AE8E7C36A0021DC
:107C80004FF6FF7299452986AA860CD0DAF80020B3
:107C9000144C5268A24221D1184630F0CBF904238B
:107CA000C5F82C906B86A8682E6800232B7158B1FC
:107CB0000C4C336802685B68AA60A34206D130F0BE
:107CC000B9F9A8680028F4D1BDE8F087014630462C
:107CD0009847A8680028ECD1BDE8F08719465046BF
:107CE0009047DCE70D7602002DE9F0418B8E4FF6D0
:107CF000FF72934282B00C46054616D0CA6AD90973
:107D000002EBC10203F07F01526832F83100A08615
:107D100002EBC10200204FF6FF71107128462A6065
:107D2000AB80D18002B0BDE8F081098E27680029C0
:107D300032D1638E002B00F085800123E66A5A4A17
:107D400023864FF480604FF080083B681B689342A5
:107D500074D130F055F9238EE76A7060013B9BB215
:107D600007EBC30100284A6808BF4FF00008002055
:107D7000A6F80080708022B137F8336048888642C8
:107D80002ED8012100224FF6FF73284621712A6068
:107D9000AB8002B0BDE8F081E66A4B1E9BB206EBF9
:107DA000C30E3046DEF804202AB1BEF802C036F811
:107DB0003380E0451CD8638E994223D03A4A4B1C4D
:107DC0009BB2B3F5007F00EBC106238615BF4FF4CD
:107DD00080604FF47E704FF080084FF07F08B4E76A
:107DE00000EBC313441C9BB202EBC0024C8091E732
:107DF0000CEBC3130CF101019BB202EBCC02AEF809
:107E0000021087E7B3F5007FBBD004F10C025B00E2
:107E100096421FFA83F83B6816D024489B68834239
:107E20004FEAC80135D130463BF03EFE0028A8D0CD
:107E30001D4A218EE062A4F83280C0E70146384630
:107E4000984788E7E66AE0E7174A1B680192934281
:107E50004FEAC80022D130F0D3F8019A002890D020
:107E6000D6F800C07168B368D6F80CE0C0F80CE032
:107E7000C0F800C041608360D6F810C07169B36972
:107E8000D6F81CE0C0F81CE0C0F810C04161836166
:107E9000CFE70A46384631469847C7E70146384695
:107EA0009847019ADAE700BF1576020005760200CE
:107EB0002DE9F0418B8E4FF6FF72934282B00C4653
:107EC000054611D0CA6AD90902EBC10203F07F014D
:107ED000526832F83100A08602EBC10228462A60BF
:107EE000AB8002B0BDE8F081098E2768002932D14D
:107EF000638E002B00F085800123E66A594A2386B1
:107F00004FF480604FF080083B681B68934274D147
:107F100030F076F8238EE76A7060013B9BB207EB86
:107F2000C30100284A6808BF4FF000080020A6F8E7
:107F30000080708022B137F83360488886422ED89E
:107F4000012100224FF6FF73284621712A60AB8081
:107F500002B0BDE8F081E66A4B1E9BB206EBC30E91
:107F60003046DEF804202AB1BEF802C036F833806D
:107F7000E0451CD8638E994223D03A4A4B1C9BB2F1
:107F8000B3F5007F00EBC106238615BF4FF4806078
:107F90004FF47E704FF080084FF07F08B4E700EB9D
:107FA000C313441C9BB202EBC0024C8096E70CEB5F
:107FB000C3130CF101019BB202EBCC02AEF802102C
:107FC0008CE7B3F5007FBBD004F10C025B00964256
:107FD0001FFA83F83B6816D023489B6883424FEA18
:107FE000C80135D130463BF05FFD0028A8D01D4ABE
:107FF000218EE062A4F83280C0E7014638469847F7
:1080000088E7E66AE0E7174A1B68019293424FEA65
:10801000C80022D12FF0F4FF019A002890D0D6F8A2
:1080200000C07168B368D6F80CE0C0F80CE0C0F886
:1080300000C041608360D6F810C07169B369D6F89A
:108040001CE0C0F81CE0C0F810C041618361CFE7BC
:108050000A46384631469847C7E7014638469847AA
:10806000019ADAE715760200057602002DE9F84359
:1080700007464068BD68032D884600F1080613D8FE
:108080005FFA85FC002D77D00CF1FF3456FA84F4AA
:10809000C31D002213F8011F002908BF42F001028E
:1080A000A342F7D1002A40D000237355D7F800909F
:1080B000BE68D9F80830A3B106F1070C8444DA8809
:1080C00096420BD13EB3C21DDC1D01E0944522D087
:1080D00012F8011F14F8015FA942F7D01B68002BAA
:1080E000EDD1B6F5803F7D68D9F8004034D22368E1
:1080F00028489B68834206F1090140D128463BF09D
:10810000D3FC034643B33A68DE80916819600021CE
:108110009360796002E09A8801329A800522C8F85B
:10812000003088F80420BDE8F883022388F8043082
:10813000037A88F80030BCF1010F08D0437A88F840
:108140000130BCF1020F02D0837A88F8023000239C
:1081500008F80530BDE8F88323680F4A5B6893424E
:1081600013D02946204698473A6800239268012197
:1081700089F804101A60FFDE02230B71E7E70A4654
:108180002046294698470346BCE728462FF052FF71
:10819000EAE700BF057602000D7602002DE9F04700
:1081A00045684DB18368EA88934204460E4605D07F
:1081B0001D440133A3602E72BDE8F0875B00D0F848
:1081C00000905F1CB7F5803FD9F8008012D2D8F834
:1081D00000201549D2F808A08A4503F10A021CD1F3
:1081E000114628463BF060FC20B1C780A368606060
:1081F0000546DDE7D8F800300C4A5B68934208D1A9
:1082000028462FF017FF0122002389F8042063601D
:10821000D2E7294640469847F5E729464046D047E9
:108220000028E2D1E6E700BF057602000D760200E5
:1082300003792DE9F0470C46D907054637D4DA060D
:1082400024D413F0600F1DD02E884FF6FF77BE4266
:1082500015D0E36AF20903EBC20306F07F09D3F8F5
:10826000048008EBC900B246C6882146FFF7E0FF4C
:10827000A38E28F83930BE42A4F834A0E9D14FF0DB
:10828000FF332B6000232B71BDE8F0872A884FF65F
:10829000FF718A4237D0E16AA68ED00901EBC00196
:1082A00002F07F00496821F83060A286C9E7A06823
:1082B0002A6826680028C2D0824216D0014600688B
:1082C0000028BCD08242F9D18288013A92B28280E1
:1082D000002AB4D103680B6033680C4A5B68934290
:1082E0000CD12FF0A7FE2B79A9E78288013A92B230
:1082F0008280002AA3D10368A360EDE701463046DF
:1083000098472B799BE700231B80FFDE0D76020048
:108310002DE9F04F0E46097885B02B29009000F02A
:10832000FD802D2940F0B88071780120019006442D
:10833000A1F13000C0B2092800F2B680DFF8F8934E
:10834000C0B20021002400254FF0993816F801BF73
:108350002418ABF13007FFB241EB05054FEA850E5B
:10836000092F6FEA07024FF0FF334FEA840C4EEA01
:10837000947EF8B24FF0000100F21E81A94508BFBB
:10838000A0450BD31CEB040C4EEB050E1CEB0C04B0
:108390004EEB0E05AB4208BFA242D7D24FF0000A07
:1083A0000023204629460A223AF0FAF9A946A046B7
:1083B0001FFA8AF3B9F5200F03F1010A08BFB8F1DB
:1083C000000F04460D460FFA8AFAE9D2092F0BD89E
:1083D00002339B1B06EB030A16F801BFABF1300218
:1083E000092A0FFA8AFAF5D9BBF12E0F00F0B680F0
:1083F0000BF0DF03452B60D0BBF1000F56D10AF123
:1084000026034C2B00F2FC80002D08BFB4F5000FB2
:1084100080F0F68007EE904ABAF1000FF8EEE77AA6
:1084200040F36481BC4B1AF0010F1CBF93ED007A3E
:1084300067EE877A5FEA6A0223D0D00744BF93EDE4
:10844000017A67EE877A5FEAAA021AD0D10744BFA1
:1084500093ED027A67EE877A5FEAEA0211D0D207DB
:1084600044BF93ED037A67EE877A5FEA2A1A08D051
:10847000BAF1010F0CBF93ED047A93ED057A67EE24
:10848000877A019B0BB1F1EE677A009A0123C2ED66
:10849000027A137010460DE000200190A1F1300027
:1084A000C0B209287FF64AAF2E2953D0009A002384
:1084B0001370104605B0BDE8F08F96F801B0BBF11F
:1084C0002D0F36D0BBF12B0F00F0F080ABF1300355
:1084D000DAB2092A06F101068ED80AEB0302B2F5D8
:1084E0009A7F00F3D780002706E002EB400303EBFE
:1084F0000A02B2F59A7F79DC16F801BFABF13002BF
:10850000D1B2092903EB8300EFD9002F40F0C780D7
:108510009A44BBF1000F3FF472AFC7E771780020B7
:108520000190A1F13000C0B2092806F10106BBD8C4
:1085300004E796F802B0ABF13003DAB2092A06F18B
:1085400002063FF659AF0AEB0302B2F59A7F4FDC01
:108550000127D1E7002400254FF0000A96F801B06A
:10856000ABF13000C0B2092806F101063FF640AF7A
:108570006A4B4FF099329D424FEA850108BF944201
:108580004FEA840741EA94710ED23F1945EB01018D
:1085900017EB070841EB01090AF1FF3A18EB000459
:1085A0000FFA8AFA49F1000516F801BFABF1300065
:1085B000C0B20928DFD91BE7BBF1000F40F0D28021
:1085C000019B8BB1B5F1004F08BF012CBFF4E6AEA3
:1085D000644265EB45050223009A1046C2E9024554
:1085E000137005B0BDE8F08F0323F5E7002F51D0DD
:1085F00000994FF00042012308468A600B7059E74A
:108600002046294639F040FCBAF1000F79DD444C90
:108610001AF0010F7AD15FEA6A032DD0DF0700F16B
:108620008D805FEAAA0327D0DE0700F18C805FEA25
:10863000EA0321D0DD0700F18B805FEA2A131BD00B
:10864000DA0700F18A805FEA6A1315D0DB073ED4AF
:108650005FEAAA1310D0DF073ED45FEAEA130BD01B
:10866000DE073ED45FEA2A2306D0DD0744D45FEA62
:108670005A231CBF2B490020019B13B101F1004379
:108680001946009A0423C2E902011046137005B08E
:10869000BDE8F08F019B0020BBB12349F1E7AAEBB5
:1086A000030ABBF1000F3FF4AAAEFFE696F802B052
:1086B000ABF13003DAB2092A06F102067FF60DAFFC
:1086C000BBF1000F3FF49BAEF0E61849D9E7D4E9BF
:1086D0000A2339F00FFCBBE7D4E90C2339F00AFC7C
:1086E000BBE7D4E90E2339F005FCBBE7CAF1000A69
:1086F0003FF4C7AE0E4B96E6D4E9102339F0FAFBEF
:10870000B5E7CAF1000AB7D00A4C81E7D4E90023E3
:1087100039F0F0FB7FE700BF3C7F0600999901002C
:10872000A07F06000000F87F0000F0FF0000F07F4F
:10873000247F0600587F060099999919D4E90223ED
:1087400039F0D8FB6DE7D4E9042339F0D3FB6EE7A9
:10875000D4E9062339F0CEFB6FE7D4E9082339F0DA
:10876000C9FB70E7B5F5801F08BF002CBFF416AE3B
:108770004FF0000A38E600BF10B5064C206838B14B
:1087800017F0ACFC20B12068BDE8104017F0A2BC87
:10879000002010BDFCDA002010B50E4C2068B8B1E6
:1087A00017F09CFC38B9206817F082FC18B1BDE8BE
:1087B00010401AF011BA206850B117F08FFC38B190
:1087C000206817F087FC18B1BDE810401AF054BFBC
:1087D000002010BDFCDA002010B50E4C2068B8B1A6
:1087E00017F07CFC38B9206817F062FC18B1BDE8BE
:1087F00010401AF0F5B9206850B117F06FFC38B18D
:10880000206817F067FC18B1BDE810401AF038BFB7
:10881000002010BDFCDA002038B52348234D16F0A7
:1088200033F80021042032F0A1FE0121052032F0AE
:108830009DFE092445F001050021052032F01AFFB4
:108840004FF4A070A8470121052032F013FF4FF428
:10885000A070A847013CEFD10121042032F086FE30
:108860002146042032F006FF4FF4A070A8470121F2
:10887000052032F0FFFE4FF4A070A847012104202C
:1088800032F0F8FE4FF4A070A847074815F082FFB9
:108890000749054815F0DAFFBDE8384005480122D0
:1088A0003C2128F0A3BA00BF2C2A0120908C06009E
:1088B000801A06003CDB00202DE9F047544E554D50
:1088C0003768D7F80080404632F0F2FE034645F0A4
:1088D000010503244FF4FA405BB9012C74D0A8477A
:1088E000404632F0E5FE0346013C4FF4FA40002BCF
:1088F000F3D001237B71484F464DD7F80080D8F85C
:108900000090484632F0D4FE034645F001050324AA
:108910004FF4FA405BB9012C66D0A847484632F0C4
:10892000C7FE0346013C4FF4FA40002BF3D001236D
:1089300088F80530DFF8EC90364DD9F80080D8F88B
:1089400000A0504632F0B4FE034645F00105032472
:108950004FF4FA405BB9012C22D0A847504632F0C0
:10896000A7FE0346013C4FF4FA40002BF3D001234D
:1089700088F8053033681B793BB1284A136803F542
:108980009C5308331360BDE8F0873B681B79002BCC
:10899000F3D1D9F800301B79002BEED1BDE8F08778
:1089A0002FF006FB98F80530002BE3D01C4BD8F8CD
:1089B00008201B68801A9842DCD32FF0F9FAA8F837
:1089C0000440C8F80800D5E72FF0F2FA7B79002BB5
:1089D00091D0134BBA681B68801A98428BD32FF042
:1089E000E7FABC80B86086E72FF0E2FA98F8053025
:1089F000002B9FD00A4BD8F808201B68801A984299
:108A000098D32FF0D5FAA8F80440C8F8080091E7E9
:108A1000D4600020908C0600D860002094DB0020F9
:108A2000C8600020DC600020424B1B682DE9F0414B
:108A30001E68414D304632F03BFE034645F00105CD
:108A400003244FF4FA405BB9012C0BD0A847304601
:108A500032F02EFE0346013C4FF4FA40002BF3D0D7
:108A6000002600E02646354B334D1B681F6838460C
:108A700032F01EFE034645F0010503244FF4FA4090
:108A80005BB9012C0BD0A847384632F011FE0346E3
:108A9000013C4FF4FA40002BF3D0002500E02546BE
:108AA000274B254F1B68D3F80080404632F000FE6C
:108AB000034647F0010703244FF4FA405BB9012C49
:108AC0000AD0B847404632F0F3FD0346013C4FF46C
:108AD000FA40002BF3D000249EB11A4E3378DBB15C
:108AE00065B1194D2B78F3B124B1184C23785BB1E3
:108AF000BDE8F081154B1C70BDE8F081124B1D7074
:108B0000F2E7104B1E70EBE72FF052FA104A0123E8
:108B100010602370BDE8F0812FF04AFA0D4A01235E
:108B200010603370DCE72FF043FA0B4A012310602A
:108B30002B70D9E7D4600020908C0600D86000200C
:108B4000DC600020D8DA0020E0DA0020E8DA00203B
:108B5000ECDA0020DCDA0020E4DA0020294B1B6884
:108B600070B51E68284D304632F0A2FD034645F030
:108B7000010503244FF4FA405BB9012C3FD0A8470C
:108B8000304632F095FD0346013C4FF4FA40002B8D
:108B9000F3D01E4B1C4D1B681E68304632F088FD1A
:108BA000034645F0010503244FF4FA405BB9012C5C
:108BB00025D0A847304632F07BFD0346013C4FF4F8
:108BC000FA40002BF3D0124B0F4D1B681E68304645
:108BD00032F06EFD034645F0010503244FF4FA40E0
:108BE0005BB9012C0BD0A847304632F061FD03463B
:108BF000013C4FF4FA40002BF3D0002070BD01205F
:108C000070BD00BFD4600020908C0600D8600020AA
:108C1000DC60002038B50F4A0F4B126819688A4291
:108C200015D00E491A6000230B6001220C4C0D4B2D
:108C3000204600251A70E57627F042FE20460121E5
:108C400027F06AFB4FF00113C4E9045338BD00223A
:108C5000ECE700BF10610020F8ED00202CF80020A8
:108C60003CDB0020A8FA00201A4A13680C2B28D0FD
:108C70000B2B15D0083312D0174B184993ED007AFF
:108C80000B68F1EE047AB4EEE77AF1EE10FA03F530
:108C90009C5394BF09200820083310600B60704774
:108CA0000F4B10491A680B68013A9A420B4A14BFDD
:108CB000013300230B60136803F59C5308331360E2
:108CC000704706490B6803F59C5308335A200B6024
:108CD000106070471061002034DE002094DB00201B
:108CE0006061002004DB00200378462B01D00020C7
:108CF000704710B54378572B044621D111490822FB
:108D00003AF0E5FF08B9012010BD0F4906222046C0
:108D10003AF0DDFF0028F6D00C4920463AF0ACFFCF
:108D20000028F0D00A4920463AF0A6FF0028EAD0F1
:108D3000084920463AF0A0FFB0FA80F0400910BD83
:108D4000002010BD907306009C730600A4730600FB
:108D5000AC730600B47306002DE9F0435E498DB094
:108D6000082204463AF0B3FF00284CD15B4F3B7811
:108D700003F0FF06002B51D1083420462C213AF095
:108D80006EFF00284AD000F1010948462C213AF034
:108D900066FF0546002841D020460A2231463BF0B6
:108DA000DFFEA5EB0903082B80464AD1D9F8000065
:108DB000D9F8041002AB03C302A801A98DF8106012
:108DC0000AF040FE00283CD008F1FF33B3F5A02F95
:108DD00056D26878013590B1DFF844916E263BF0A9
:108DE000C9FE044630463BF0C5FE844207D115F863
:108DF000010F002854D019F8016B002EEFD138482C
:108E0000FEF7C6FB0DE03749062220463AF05FFF29
:108E100050B9324B1B78012BDDB218D03248FEF727
:108E2000B7FB0DB0BDE8F083304920463AF024FF8F
:108E3000C8B92A4B1B78022BF0D12D4B01221A7096
:108E4000EFE72C48FEF7A4FB0DB0BDE8F083014628
:108E50000A22A01D3BF084FE274B1B6883420FD1E2
:108E6000264B1D70DDE7264920463AF005FF68B91C
:108E70001A4B1B78032BD1D1224B01221A70D0E759
:108E80002148FEF785FB0DB0BDE8F0831F49204661
:108E90003AF0F2FE0028C4D11D4B01221A70C0E73F
:108EA00099F80030002BAAD1134B1A4A0198C3F845
:108EB000008005A901233B7010600AF08DFD164A61
:108EC00005AB08A810213AF007FE08A982B21348A2
:108ED0001EF03EFFA5E700BF9073060035AD0020F1
:108EE000D07306009C730600BC730600A4730600D2
:108EF000516A0020C4730600606A0020CE69002019
:108F0000AC7306005E6A0020C8730600B4730600E6
:108F10005D6A0020586A0020D873060078DD0020C2
:108F2000E5730600000000002DE9F0419CB01C46EE
:108F30001546002141220BA839F0D8FE402C2246CC
:108F4000294628BF40220BA839F0A8FE0BA83AF00A
:108F5000B6FE78B1431E0BAAAD4E1A4412F80119A1
:108F60000A39C9B226FA01F016296FEA000003F1A6
:108F7000FF3317D9A74E3378F3B1A7490BA80522C1
:108F80003AF0A5FE08B9062C4ED9A44E338814FA3F
:108F900083F3B3F5805F6EDDA14B01221A701CB024
:108FA000BDE8F08110F00100E4D1591C5070D5D11A
:108FB000984E3378002BE0D19A4F3B78022B39D072
:108FC000994904220BA83AF082FE00B39749042283
:108FD0000BA83AF07CFE00285DD19DF83030202BA4
:108FE0000CA803D110F8013F202BFBD018210AF068
:108FF000FFFF002800F0F9808D4C237803F0FF0577
:1090000063B38C498C4804221EF0A2FEC7E7884C4B
:10901000237803F0FF050BB38649884804221EF02D
:1090200097FE1CB0BDE8F081854B01221A701CB080
:10903000BDE8F081082C00F28F8082490BA83AF03D
:109040001BFE30B180490BA83AF016FE002840F014
:10905000838021460BA8FFF77FFEA0E77B4B0BA97F
:10906000184640223AF045FE012280F84050227016
:109070001CB0BDE8F0813088754B294613FA80F0AA
:10908000224639F00BFE338814FA83F39BB2338007
:109090001CB0BDE8F0816F4907220BA83AF017FE1B
:1090A000002800F085806C490BA83AF0E5FD002807
:1090B00000F09480694905220BA83AF008FE0028C8
:1090C00000F08C80664905220BA83AF000FE0028CB
:1090D00000F0848063490BA83AF0CEFD00287DD0D3
:1090E00061490BA83AF0C8FD002800F010815F49E3
:1090F00005220BA83AF0EBFD002800F002815C4944
:1091000005220BA83AF0E3FD002840F013813378E4
:10911000002B40F00381574B1C78002C40F0FE8060
:109120000DF1310018210AF063FF002800F0FC80E7
:10913000514B3A4D0DF13101184618223AF0D9FD44
:1091400003463F4936484D4A1C7601232C80047063
:109150000C701370337022E73B78022B7FF41FAF43
:10916000474B1A7802F0FF00002A7FF418AFDFF8AF
:109170004081444AD8F8007012682744974240D88A
:10918000414A424ED2F800C0318814FA81F1B1F55B
:10919000805F40F29180DFF81CC1DCF800100131E3
:1091A00000F09C803A4A3B49116001221A70F6E6B1
:1091B0009DF83330202B0DF1330003D110F8013F1F
:1091C000202BFBD018210AF013FF00287FF414AFE6
:1091D0003149194809221EF0BBFDE0E62F4C2378E7
:1091E00003F0FF053BB92E4B39E72E491248052203
:1091F0001EF0AEFDD3E62C490F4805221EF0A8FD57
:10920000CDE6234A2949116001221A70C7E600BF42
:1092100009004000BC7A0020F0730600C08A0020DC
:10922000707A002035AD0020007406000874060036
:109230005C6A0020E077060078DD0020B0DC0020CA
:10924000E18C0020A4730600B4730600106A0020AD
:10925000C07A0020187406002C74060034740600CE
:109260003C740600447406005474060068740600DA
:10927000807406001CDA0020E48C0020717A002043
:1092800034AD0020606A002038BD00203CBD0020C5
:10929000546A0020F873060020740600C28A002079
:1092A000747A0020107406004C740600C87306001F
:1092B0006C7A0020B86000204F4B03EB0C333088F1
:1092C000294613FA80F0224639F0E8FC3388C8F8C2
:1092D000007014FA83F39BB2338060E63188DFF8C4
:1092E00044E1454B89B2AEF800101168CCF800108B
:1092F000116881F0010111603080126803EB0233C4
:10930000DDE718210DF131000AF072FE60B13B4C2F
:10931000237803F0FF05002B3FF4A0AE384939480D
:1093200009221EF015FD3AE6374936480D221EF097
:109330000FFD34E6354905220BA83AF0C8FCB8B950
:10934000334C237803F0FF05002BE7D10DF13100FA
:1093500018210AF04DFE0028E6D02E4B18220DF100
:10936000310118463AF0C5FC01220576227016E656
:1093700029490BA83AF080FC30B10BA8FFF7B4FCE8
:1093800000283FF40CAE64E6244B186838F05AFD10
:1093900003AE04460D4645EC104B32460221042034
:1093A0002EF0F0FD10A3D3E900232046294638F023
:1093B000E9FB0FA3D3E9002338F09CFD39F04AF80C
:1093C0006428A8BF642020EAE073154A009618219B
:1093D00005A83AF081FB05A83AF071FC05A982B214
:1093E00008481EF0B5FCDAE56666666666660A4001
:1093F000721CC7711CC75B40008D00205C6A002096
:109400005C74060078DD0020707406008874060025
:10941000C48C0020C88C002090740600E8ED002069
:1094200098740600CC690020124B134901220020D9
:1094300030B45A600325DA600424C3F8040542F20C
:109440001070C3F80855C3F810454FF48035C3F8C1
:10945000400560244FF08060C3F80022C3F8045335
:1094600081F81A43C1F880010860044930BC0A70D1
:109470001A60704700A0014000E100E0646A00202B
:1094800030B51E4C83B040F24C43204603220121EC
:1094900040F24C4514F08AFC204640F24C43032233
:1094A000192115F0BDF82B4620460322042114F0A3
:1094B00051FD2046009503230022012114F08CFD6C
:1094C0000095204603230122002114F085FD00951C
:1094D000204603230222002114F07EFD03231A46B6
:1094E00000952046002114F077FD009520460323C7
:1094F0000622002114F070FD03B030BD30F80020CA
:10950000104A114B114810B50021114C11704FF445
:109510007A621960216039F0E9FB0E48037C6BB96F
:109520000D4C30F049FE206802210BF0B1F808B173
:1095300000232360BDE8104030F048BE10301AF020
:10954000C1F9EDE7A0FE0020F0ED002040DE002094
:10955000E0ED0020ACFA002000DB00202DE9F04314
:109560000024BBB0374B049401464FF47A75224671
:1095700007A8ADF81C408DF81E40059503931AF01E
:10958000DFFB20B9002528463BB0BDE8F0832E491B
:109590004FF4806207A81AF033FC064607A81AF0B9
:1095A00091F9B6F5806FEDDB284E009502A9019187
:1095B00025480294334610AA4FF480610AF0B8FBA4
:1095C00005460028DFD0224BDFF89880214FDFF8D6
:1095D000989010A9184617223AF08BFB03461F22D9
:1095E000404616A9DC753AF084FB88F81F403846DF
:1095F000DFF878801F221EA93AF07BFBFC770F2250
:10960000154F26A948463AF074FB0F222AA9404676
:1096100089F80F403AF06DFB0F2238462EA988F8E2
:109620000F403AF066FB029A0C4BFC731A6012B1C1
:10963000013A56F822200A4B28461A603BB0BDE892
:10964000F08300BFD07E060094BD002040DE0020E5
:10965000C8DB0020A8DB002000DC0020E0ED0020BB
:10966000F0ED0020E0DB002010DC002098DB002083
:1096700070B50A4E054630F09FFD306829460AF065
:10968000FDFF044620B1356030F0A0FD204670BDDE
:1096900030F09CFD3368204670BD00BF00DB002029
:1096A00010B5084C82B0019030F086FD2068019919
:1096B0000AF0EEFF08B10023236002B0BDE81040BD
:1096C00030F084BD00DB002070B51C4D1C4C2B78A5
:1096D00053B3237C33BB1B4E0120FFF7E1FF1A4B32
:1096E000306800241C702C7010B130F0B3FF34606F
:1096F000164B1749174D184A1848194E00241C706C
:10970000184B0C702C6014600460214616483470AD
:109710004FF0FF354FF47A621D6039F0E7FA134BD2
:109720001C6070BDFEF75AF9237C002BD3D0104883
:109730001AF0D4FD0E481AF0C5F8CCE7A1FE0020BF
:1097400008DB0020FCDA002020DC0020A1FA002049
:109750003CDE002038DE0020E0ED0020F0ED0020AF
:1097600008FF00201461002040DE002004FF0020DC
:1097700018DB002008B51E4B1B7803B908BD2EF07E
:1097800017FC1C4A1C4B1268801A9842F6D91B4BD6
:1097900093ED007AF0EE007AB4EEE77AF1EE10FA8B
:1097A0001FDA174B1A78AAB12EF002FC154B1A6873
:1097B0004EF65F23801A9842E0D9FFF785FF124AE0
:1097C0001249136803F59C5308334FF0FF301360C0
:1097D000086008BD01221A702EF0EAFB094B1860E0
:1097E00008BD0749074A00230B70136008BD00BF7E
:1097F000A1FA0020A4FA00201FBF020034DE0020DE
:109800003CDE002038DE002094DB002010610020C8
:1098100070B5294B1C788AB094BB284E054630F0B1
:10982000CBFC306803210AF029FFF8B10323336031
:1098300030F0CCFC2249ADF8044001A823462A466A
:109840008DF806401AF074FA08B31D49ADF80440CB
:109850002A46012301A88DF806401AF069FA00BBD8
:109860001849194807221EF073FA15E030F0AEFCD3
:1098700016491548336804221EF06AFA0AB070BD12
:109880001249114804221EF063FA0AB070BD104953
:109890000D4809221EF05CFA0320FFF701FF0AB011
:1098A00070BD01A81BF0B4FA0028D9D009490648B8
:1098B00007221EF04DFAEFE71CDA002000DB002043
:1098C00040650020A474060078DD0020E0770600E3
:1098D00020740600AC740600F8B51649164C174AF9
:1098E000174F184E184D194800233B7033702370E2
:1098F0000B70174C13701749174A2B70174D2360C4
:1099000013600B80164C1749027C2B604FF0FF351B
:1099100025600B804AB9144C237803B9F8BD0320A5
:10992000FFF7BEFE00232370F8BD103019F0CAFF08
:10993000F1E700BF5E6A0020516A00205D6A0020E6
:1099400035AD0020CE69002034AD002000AD0020F0
:1099500038BD00203CBD0020546A00206C7A0020F5
:10996000B8600020CC69002036AD002010B51A4840
:109970001A4A037C00211170FBB9194B00241C709A
:10998000FFF7AAFF174A184B184814701C7020F0F4
:1099900031FBC8B916481DF0EBFC1448002120F03B
:1099A000FFFA1248002120F0FFFA01210C2031F0CB
:1099B00061FE104B00221A7010BD103019F082FFAA
:1099C0000320FFF76DFED8E7084820F047FB01466B
:1099D000064820F02DFBDDE7DCD90020D0D900209F
:1099E0001CDA00205C6A0020C28A0020C42B0120FF
:1099F00004320120D8D9002038B52E4B1B78002B1B
:109A00004BD12D4B1B78002B44D12C48AE2126F096
:109A10009DFE2B4B1B78DBB12A492B4B01244FF4C5
:109A200080304FF080624C60C1F80803C3F880209A
:109A3000BFF34F8FBFF36F8FC3F88021BFF34F8FFA
:109A4000224B2348002140F24C42197014F016FAC0
:109A5000204B1B7823BB204A204B2148214D224913
:109A6000002414701B78214A2C70DBB2037001258E
:109A70001F480C7015700AF013FE1E4A1E4B14602E
:109A80001D702EF095FA1D4B18602EF091FA1C4BAC
:109A9000186038BDFFF76AFFB7E7FFF715FEB0E7BC
:109AA00001210F2031F062FD01210F2031F0E2FD94
:109AB000D1E700BFA1FA0020D0D900203CDB002074
:109AC0002CDE002000A0014000E100E0646A0020DC
:109AD00030F8002098D50020B5FE002000FF0020BF
:109AE00002FF0020FD8C002001FF0020C460002048
:109AF000BC600020BCFE0020B4FE0020A4FE0020BC
:109B0000B0FE0020F0B52E4B1C68BDB01CB9032080
:109B1000FFF7AEFD30B92B492B480C221EF018F987
:109B20003DB0F0BD2346294D294A2A49019404A895
:109B30004FF47A76ADF810408DF8124002960095F9
:109B40001AF0F6F89DF8103083B3234F1E4E02E052
:109B500011A819F0B7FE4FF47A73002204A911A8D6
:109B60000F930E94ADF844408DF846400D951AF0D1
:109B70001DFB9DF84430B3B113F0D00FE8D11AA902
:109B8000402211A81BF066FA1AAB3A462AA84621D1
:109B900039F0A2FF2AA982B230461EF0D9F80A2075
:109BA0002EF012FAD4E704A819F08CFE0320FFF778
:109BB00077FD0A49044804221EF0CAF83DB0F0BD02
:109BC00000DB0020B474060078DD0020D07E0600A3
:109BD000C474060040650020D8740600D0740600E6
:109BE0002DE9F0473B4B1C68ADF5287D24B90320D7
:109BF000FFF73EFD054640B93749384804221EF0BC
:109C0000A7F80DF5287DBDE8F0872346344E354A88
:109C1000354904944FF47A7707A8ADF81C408DF8C5
:109C20001E40059703961AF083F89DF81C30002B10
:109C30004BD0DFF8C090DFF8C0802C4F02E014A8B2
:109C400019F040FE00224FF47A7307A914A8CDE959
:109C50001062ADF850208DF8522012931AF0A6FA37
:109C60009DF8504014B314F0D004E8D10DF1740AFB
:109C700051464FF4807214A81BF0ECF91B9A019224
:109C8000002D14BF4B4643463A464FF49671CDF82B
:109C900000A05DA839F020FF5DA982B20F481EF038
:109CA00057F80A202EF090F92546C8E707A819F0C2
:109CB00009FE0320FFF7F4FC0D49084803221EF0BB
:109CC00047F80DF5287DBDE8F0870320FFF7E8FC95
:109CD00092E700BF00DB0020E0770600B0DC002048
:109CE000D07E06005473060040650020E87406002C
:109CF000F4740600FCB70600E47406002DE9F04297
:109D0000354E337C8EB00446002B60D1334D30F09D
:109D100053FA286803210AF0B1FC50B930F056FA22
:109D20002F4930482B6804221EF012F80EB0BDE80F
:109D3000F0824FF003090027C5F8009030F046FA92
:109D40002246294C294901943B464FF47A7505ACCB
:109D500005A803950297ADF814708DF8167019F0E8
:109D6000E7FFA446BCE80F00214D029C74600FC5BC
:109D7000BCE80F000FC5DDE90321337CDCF80000EF
:109D80002860C6E90221BBB11A48F36A1A4A1B4986
:109D90000360012017600870194A202101A839F0DA
:109DA0009BFE01A839F08BFF01A982B20D481DF07E
:109DB000CFFF0EB0BDE8F0824846FFF771FC1149B5
:109DC000084805221DF0C4FF0EB0BDE8F08206F180
:109DD000100019F077FD99E7DCD9002000DB0020A6
:109DE000E077060078DD0020D07E06004065002088
:109DF000ECD9002010DA0020D4D900201CDA002091
:109E0000F8740600107406002DE9F047784C794A82
:109E100094F83C302DED0A8B0021ADF5167D1170C4
:109E2000002B00F08980744DD5F800A0BAF1000F26
:109E30002DD0724B197894ED000B94ED021BD4E9F0
:109E40000467D4E90689002940F0B98050468DEDB9
:109E50000E1B8DED0C0B15F0CBFD4946404638F03E
:109E600041FB39460346304608EE103A38F03AFBDB
:109E70009DED0E1B02EE100A9DED0C0B2868F0EE16
:109E8000482A15F00DFF94F83C30002B54D05C4B61
:109E90001B78002B3FD0DFF87C8198F80030002B36
:109EA00039D0584F3B78002B4FD04FA3D3E9002334
:109EB000D4E9060138F01EF894ED00CB94ED02BB16
:109EC00094ED049B94ED08AB46AD41EC180BD4F82F
:109ED0003890C5F82890284685ED088B85ED00CB95
:109EE00085ED02BB85ED049B85ED06AB0AF020FAFB
:109EF000002840F09780444D2EF05AF82A6842F22C
:109F00001073801A984206D92EF052F803463F4843
:109F10002B601AF0E3F934A3D3E90023D4E9060156
:109F200037F0E8FF38F0DEFA394B18600DF5167D92
:109F3000BDEC0A8BBDE8F087314B1B78002BEAD0D3
:109F4000344B1B78002BE6D02E4F3B78002BE2D110
:109F500094F83D30002BDED02F4D2EF029F82B68E1
:109F6000C01AB0F57A7FD6D32EF022F8034601202E
:109F70002B60FFF77DFB0028CDD094F8412094F8AA
:109F8000403094F8430094F84210244E0390CDE9F9
:109F900000320291E38F224A502156A839F09CFDED
:109FA00056A906F1100040F2016219F0C9FE337C97
:109FB000002B40F003810120FFF772FBABE794F820
:109FC0004310B4F8463094F8442094F842008DEDE4
:109FD0000E1B8DED0C0B0AF031F89DED0C0B9DED79
:109FE0000E1B014632E700BF0B410E4A9869F23F53
:109FF000D0DD002018DE0020FCDA00202CDE00205E
:10A00000A2FE0020A1FE0020ECED002018DB0020C5
:10A0100034DE002020DC0020F4ED002008DB0020EE
:10A020002C7506002AAA0821B0EE4C0AF0EE6C0A44
:10A0300001202DF0A7FFB0EE4B0AF0EE6B0A30AA1C
:10A04000082101202DF09EFFB0EE4A0AF0EE6A0AC8
:10A05000012110AA08462DF095FFB0EE480AF0EE57
:10A06000680A22AA022101202DF08CFFB0EE490AD5
:10A07000F0EE690A26AA022101202DF083FF94ED5B
:10A080000A0B13AA022101202DF07CFF94ED0C0B8A
:10A0900016AA022101202DF075FF5B4B186837F0DE
:10A0A000D1FE19AA41EC100B032101202DF06AFF0B
:10A0B000564B186837F0C6FE1CAA41EC100B032162
:10A0C00001202DF05FFF524B186837F0BBFE1FAA2E
:10A0D00041EC100B032101202DF054FF2AAB3C93DF
:10A0E00030AB3D9310AB3E9322AB3F9326AB4093F6
:10A0F00013AB419316AB429319AB43931CAB449300
:10A100001FAB3CAE459356F8040B14210AF0A6F998
:10A1100000283FF4F0AEAE42F5D13E4B1B78002B49
:10A1200036D10020014636AA18230AF0A1F83A4B8E
:10A130001FAA0B9219A91A68099116A9079113A9C8
:10A14000069126A9059122A9049130A903912AA973
:10A150001CAB029110A9CDE900910A93089236AB8D
:10A160002E4A4FF4807156A839F0B6FC2C4856A9F7
:10A170002DF00AF8034600287FF4BDAE294888F880
:10A1800000303B7019F09EFB0120FFF789FAB2E620
:10A19000E08F94F8442094F84330B4F846100291CC
:10A1A00000F5FA60CDE9003294F8401094F842309E
:10A1B00094F8412080B209F053FFB4E746AD284639
:10A1C00040220A2138F092FD06F110084FF4806613
:10A1D0003F2E4FF040022946404609D83246403EC5
:10A1E0001AF0E0F83F2E4FF0400229464046F5D9DC
:10A1F0001AF0D8F8403EEBD10B4909482CF054FF37
:10A2000001233B7087E600BFC8D50020CCD50020D5
:10A21000D0D500202CDE0020BCFE002004750600F6
:10A2200008DB002018DB00204C7506002DE9F04704
:10A23000204EDFF8889084B006F26C48474606F25C
:10A24000444A032401ADFF220023CDF80890ADF865
:10A250000420039395E80E0038461CF099F996F80F
:10A260007E341448C6F8688439460122C3B91BF00D
:10A27000A3F968B1504619F025FB0E4901F244409C
:10A2800019F0A0FD60B10C4B1E6004B0BDE8F08772
:10A2900003460246394607481BF08EF90028E9D1EB
:10A2A00064202DF091FE013CCDD1204604B0BDE8E4
:10A2B000F08700BF40650020A42B012080841E0091
:10A2C0002DE9F043B84EB94D33782A789A42A1B0BF
:10A2D000D8B200F262812B78C31ADBB2002B00F0F7
:10A2E00025812978B24A01F00F01012B52F8211083
:10A2F000009100F08D802978013101F00F01022BCF
:10A3000052F82110019100F083802978023101F088
:10A310000F01032B52F82110029179D029780331D3
:10A3200001F00F01042B52F82110039170D029780D
:10A33000043101F00F01052B52F82110049167D070
:10A340002978053101F00F01062B52F821100591F3
:10A350005ED02978063101F00F01072B52F8211049
:10A36000069155D02978073101F00F01082B52F8DA
:10A37000211007914CD02978083101F00F01092BE9
:10A3800052F82110089143D02978093101F00F01CA
:10A390000A2B52F8211009913AD029780A3101F09C
:10A3A0000F010B2B52F821100A9131D029780B3173
:10A3B00001F00F010C2B52F821100B9128D02978B5
:10A3C0000C3101F00F010D2B52F821100C911FD010
:10A3D00029780D3101F00F010E2B52F821100D914B
:10A3E00016D029780E3101F00F010F2B52F82110F1
:10A3F0000E910DD029780F3101F00F01102B52F87A
:10A4000021100F9104D02B7803F00F0352F8233062
:10A41000DFF8B0C1DFF8C8E19CF800402870013BCC
:10A42000DBB201AA02EB8307DEF80000614A6B464B
:10A43000002C40F0EA80107800F0FF01002840F086
:10A44000A18018680C460433BB4219D092F80080F2
:10A450001968B8F1000F40F09A80A1EB0008564847
:10A46000A8F6B839814500F2908020A800EB840955
:10A4700004330134BB42084649F8408CE4B2E5D1CC
:10A480000123CEF800008CF80030002C4ED0012CB7
:10A49000109B39D9119A022C134435D0129A032CEF
:10A4A000134431D0139A042C13442DD0149A052C44
:10A4B000134429D0159A062C134425D0169A072C3C
:10A4C000134421D0179A082C13441DD0189A092C34
:10A4D000134419D0199A0A2C134415D01A9A0B2C2C
:10A4E000134411D01B9A0C2C13440DD01C9A0D2C24
:10A4F000134409D01D9A0E2C134405D01E9A0F2C1C
:10A5000013441CBF1F9A9B1807EE903A07EE104A9F
:10A51000F8EE677AB8EE470AF7EE000A87EE800A8F
:10A520000AF0F6F8254821460AF0C2F8244B1A78BA
:10A530001AB1244900220A701A70234A234B146866
:10A54000DB68D90103D5224B1A68D2074AD42EF012
:10A5500047FF204B204AA0FB0301830A43EA8153B3
:10A560001B1B934244D8154A1C4BD2ED007AB6EE21
:10A57000007A77EE877AFDEEE77AC3ED007A21B0B4
:10A58000BDE8F083186814705DE708465BE74FF09C
:10A590000008084682F8008055E72A7800F1100389
:10A5A0009B1ADBB29AE600BF00FF002002FF0020EA
:10A5B000C0FE0020C4600020C8781E00BC600020DF
:10A5C00001FF0020FD8C0020B8FE0020F0ED00E02F
:10A5D000001000E040420F0020A10700BCFE002058
:10A5E000B87A00205B680A4A9B091B1B9342BAD9C0
:10A5F00008480AF055F8084B084A012119703378C9
:10A600000021DBB22B701170ADE700241EE700BF04
:10A6100020A10700BC600020C4600020FD8C002049
:10A620002DE9F04F80468B4658F8043B98E8070028
:10A6300093F83C4093B006AF0DF12409202C87E835
:10A64000070089E8070062D10CAC84E8070094E8B1
:10A6500007000FAC84E8070000900446002856D09D
:10A660001D8F4FF6FF72954251D0DB6AE90903EB6B
:10A67000C10105F07F05496811EBC50547D0109968
:10A68000EE880292481E22184FF0010A2C460395CC
:10A6900004963546CDF8148001921E468846BAF1DC
:10A6A000000F11D1029B9D4231D0E80906EBC0009A
:10A6B00005F07F05446814EBC50428D08AF0010A30
:10A6C000E588BAF1000FEDD0207904283CD00528A8
:10A6D00036D002281FD0B8F1000FE3D12A464FF63A
:10A6E000FF718A423346DDF81480DDE903560ED04F
:10A6F000D00903EBC00002F07F02416811EBC201F8
:10A7000005D00A79111F012925D9022A23D05846DC
:10A7100013B0BDE8F08F204639F0D1FA4045C1D1E1
:10A72000B8F1000FDAD0009B013C581E10F8012F41
:10A7300014F8013F9A42B5D1019B8342F6D1CDE78F
:10A740002468E0880834E9E724682046002CE5D036
:10A7500039F0B5FAE2E798E807000CAC84E80700A6
:10A7600087E8070089E8070094E807000FAC84E851
:10A770000700804600283ED0109C671E0744BB4659
:10A78000274654464FF6FF799A467CB94E4532D05B
:10A79000F3090AEBC30306F07F065D6815EBC605F7
:10A7A00029D084F00104EE88002CEFD02B79042B03
:10A7B00027D0052B3ED0022B38D0002FE6D14FF604
:10A7C000FF729642534616D0F20903EBC20306F01D
:10A7D0007F065A6812EBC60B99D09BF80430042B05
:10A7E0002CD0052B2DD0022B18BF4FF0000B584654
:10A7F00013B0BDE8F08F4FF0000B584613B0BDE822
:10A80000F08F2D6828460DB139F059FAB842BDD104
:10A81000002FD4D0681E08F1FF3313F8011F10F881
:10A82000012F9142B2D15B45F7D1C8E7284639F0F4
:10A8300046FAEBE72D68E8880835E7E752F836B0C6
:10A8400065E752F8363003F1080B60E72DE9F04771
:10A85000056804460E46002972D0084639F02FFAE2
:10A860008046002D58D02B79202B55D1002E53D067
:10A870002B884FF6FF77BB424ED06268D2F82C90FF
:10A88000D90909EBC10103F07F024B6813EBC20346
:10A8900042D04FF0010ADD88BAF1000F10D1BD425D
:10A8A0003AD0EA0909EBC20205F07F05536813EBC1
:10A8B000C50331D08AF0010ADD88BAF1000FEED06D
:10A8C0001A79042A35D0052A2ED0022A27D0002052
:10A8D00004468045E3D1B8F1000F0BD0721E631E11
:10A8E00002EB080112F8014F13F8010F8442D6D190
:10A8F0008A42F7D14FF6FF739D420DD0EB0909EB69
:10A90000C30905F07F05D9F8040000EBC505281E32
:10A9100018BF0120BDE8F0870020BDE8F087184689
:10A920001C4639F0CCF9D4E71B68D88803F1080439
:10A93000CFE71C682046002CCBD039F0C0F9C8E71F
:10A9400088468EE7000000008368002B00F0F68048
:10A950001A79402A40F0F2802DE9F04F1B884FF61B
:10A96000FF77BB428FB01CD0D0E90324D56ADA0947
:10A9700005EBC20203F07F03526812EBC30310D051
:10A98000DA881CB912E0013CDA880FD0D109BA424A
:10A9900005EBC10102F07F0603D04B6813EBC60341
:10A9A000F1D19FED950B0FB0BDE8F08F143007C8C3
:10A9B0001E7901AC84E80700202E04AC84E807006F
:10A9C000EFD194E8070007AC84E807000AAC84E8FC
:10A9D000070082460028E4D018884FF6FF77B84277
:10A9E000DFD0C20905EBC20200F07F03506810EB14
:10A9F000C300D6D0DDF82C90C68809F1FF384FF09F
:10AA0000010BD044BBF1000F10D1BE42C9D0F209F6
:10AA100005EBC20206F07F03506810EBC300C0D004
:10AA20008BF0010BC688BBF1000FEED00279042A2F
:10AA30007DD0052A77D0022A60D0B9F1000FE4D189
:10AA40004FF6FF708642ACD0F20905EBC20206F069
:10AA50007F03576817EBC301A3D00A7912F01004E3
:10AA60000CD037F83340844200F0C180E00905EB98
:10AA7000C00504F07F006C6804EBC004023A1C2A95
:10AA80008FD801A050F822F047AB0200A3A9020022
:10AA900043AB0200C5AB02008FAB0200A3A90200CA
:10AAA000A3A90200A3A902009DAB0200A3A9020072
:10AAB000ABAB0200A3A90200B9AB0200A3A902003C
:10AAC000A3A90200A3A90200A3A90200A3A902004E
:10AAD000A3A90200A3A90200A3A90200A3A902003E
:10AAE000A3A90200A3A90200D3AB0200A3A90200FC
:10AAF000E1AB0200A3A90200CDAB0200044639F08D
:10AB0000DEF8484581D1B9F1000F99D0601E0AF1F5
:10AB1000FF3212F8014F10F8011F8C427FF475AF1D
:10AB20009045F6D18CE70468E0880834E9E70468CA
:10AB30002046002CE5D039F0C2F8E2E79FED2E0B5D
:10AB4000704757F833100AA8FDF7E2FB9DF828304C
:10AB5000013B032B3FF625AFDFE803F0130C0502A2
:10AB60009DED0C0B1FE7DDE90C0137F08DF941EC91
:10AB7000100B18E7DDE90C0137F08EF941EC100BF2
:10AB800011E70C9837F05EF941EC100B0BE717F862
:10AB9000330037F035F941EC100B04E757F8330078
:10ABA00037F02EF941EC100BFDE657F8330037F083
:10ABB00037F941EC100BF6E6086837F043F941EC41
:10ABC000100BF0E657F833100831BCE794ED000B9A
:10ABD000E9E6D4E9000137F057F941EC100BE2E661
:10ABE000D4E9000137F058F941EC100BDBE6002402
:10ABF00044E700BFAFF30080000000000000000049
:10AC00002DE9F04F00F10C02034607CAD3E90146D3
:10AC10008FB001AB83E80700002C74D093E80700E5
:10AC2000257904AB202D83E807006CD107AB0AAF70
:10AC300083E8070087E807008246002863D0208861
:10AC40004FF6FF7840455ED0D6F82C90C20909EB4C
:10AC5000C20200F07F03506810EBC30053D04FF0E6
:10AC6000010B0B9EC588BBF1000F10D145454AD0A2
:10AC7000EB0909EBC30305F07F05586810EBC5002D
:10AC800041D08BF0010BC588BBF1000FEED00379EA
:10AC9000042B56D0052B50D0022B39D0002EE5D1F5
:10ACA0004FF6FF7085422ED0EB0909EBC30305F088
:10ACB0007F055C6814EBC50125D00B7913F01002F9
:10ACC0000DD034F83520824200F09780D00909EB8E
:10ACD000C00902F07F00D9F8042002EBC002023B59
:10ACE0001C2B10D8DFE803F0360F34595D0F0F0F1F
:10ACF000640F6B0F720F0F0F0F0F0F0F0F0F0F0F50
:10AD0000780F7F0F86009FED3E0B0FB0BDE8F08FF0
:10AD1000044638F0D4FF8642A8D1002EC0D00AF1F4
:10AD2000FF33601E9A1901E09A42B9D013F8014F1F
:10AD300010F8011F8C42F7D098E70468E0880834C7
:10AD4000E9E70468002CA9D0204638F0B8FFE2E714
:10AD500054F835103846FDF7DBFA9DF82830013BF2
:10AD6000032BD0D8DFE803F0130C05029DED0C0B8C
:10AD7000CBE7DDE90C0137F087F841EC100BC4E7B5
:10AD8000DDE90C0137F088F841EC100BBDE70C98B9
:10AD900037F058F841EC100BB7E754F8351008318C
:10ADA000D8E714F8350037F02BF841EC100BACE77E
:10ADB00054F8350037F024F841EC100BA5E754F8AF
:10ADC000350037F02DF841EC100B9EE7086837F09E
:10ADD00039F841EC100B98E7D2E9000137F054F84C
:10ADE00041EC100B91E7D2E9000137F055F841EC46
:10ADF000100B8AE792ED000B87E700226FE700BF98
:10AE000000000000000000002DE9F04F0546007929
:10AE10008BB001AC202884E80E0055D194E80700DF
:10AE200004AA82E80B0007CA0AAA02E90B00DDF8AF
:10AE30001C80B8F1000F47D028884FF6FF76B0424B
:10AE400042D0149BD3F82C90C20909EBC20200F047
:10AE50007F03506810EBC30036D0089DB0F806B0F1
:10AE60006F1E4FF0010A4744BAF1000F12D1B345EB
:10AE70002AD04FEADB1309EBC3030BF07F0B5868B2
:10AE800010EBCB0020D08AF0010AB0F806B0BAF17E
:10AE9000000FECD00379042B31D0052B2BD0022BE3
:10AEA00016D0002DE3D14FF6FF739B450CD04FEA2F
:10AEB000DB1309EBC3090BF07F0BD9F8040000EB9F
:10AEC000CB000BB0BDE8F08F00200BB0BDE8F08FD9
:10AED000044638F0F4FEA842C9D1002DE3D0601E2C
:10AEE00008F1FF3313F8011F10F8012F9142BED172
:10AEF0009F42F7D1D7E70468E0880834EBE704689D
:10AF00002046002CE7D038F0DAFEE4E72DE9F04FD8
:10AF100085B004AC04E90E00DDF80480B8F1000F40
:10AF200047D000884FF6FF76B04242D00E9BD3F850
:10AF30002C90C20909EBC20200F07F03506810EBAD
:10AF4000C30036D0029DB0F806B06F1E4FF0010A64
:10AF50004744BAF1000F12D1B3452AD04FEADB13B0
:10AF600009EBC3030BF07F0B586810EBCB0020D02C
:10AF70008AF0010AB0F806B0BAF1000FECD00379FC
:10AF8000042B31D0052B2BD0022B16D0002DE3D172
:10AF90004FF6FF739B450CD04FEADB1309EBC30957
:10AFA0000BF07F0BD9F8040000EBCB0005B0BDE837
:10AFB000F08F002005B0BDE8F08F044638F07FFE2A
:10AFC000A842C9D1002DE3D0601E08F1FF3313F869
:10AFD000011F10F8012F9142BED19F42F7D1D7E750
:10AFE0000468E0880834EBE704682046002CE7D0CA
:10AFF00038F065FEE4E700BF2DE9F04184B0064675
:10B0000004A800E90E003068DDE90187A8B17D1EC3
:10B010004544C388BB420DD1002F56D008F1FF3301
:10B02000C21D01E0AB4250D013F8014F12F8011FCE
:10B030008C42F7D000680028EBD1B7F5803F4AD2A8
:10B040000A9B2E4A1B681B68934207F1090046D1F0
:10B050002CF0D6FF00283ED00123C780838000F16A
:10B0600008054FB300F10C0108F10402954238BF06
:10B07000884507F1FF3336D3072B34D927F0030473
:10B08000444443462A4653F8041B42F8041BA34297
:10B09000F9D1BA0727F003030ED018F80320EA54B9
:10B0A0005A1C974208D9023318F80210A9549F423B
:10B0B00002D918F80320EA54074400233B7233688E
:10B0C0000360306004B0BDE8F08183880133838081
:10B0D00004B0BDE8F081002004B0BDE8F081014675
:10B0E0000A989847B6E74344C21D08F1FF3818F89C
:10B0F000011F02F8011F9845F9D1DDE7157602001E
:10B10000437DDBB1037D202B12D8DFE803F01F1154
:10B110001111111111111115151111151111111113
:10B12000111111111111111111111111111115001C
:10B1300001230373002070470023437503695A1CE1
:10B1400002611B78037501224275DCE7037B002B4B
:10B1500014BF0220012070472DE9F04F437D85B0D8
:10B160000446002B00F0FD80057DDFF878B3002257
:10B17000134662750092CBB1267D0023B5426375FC
:10B180001DD0002E00F0E9805C2E20D067686FB1E2
:10B19000A168FB88994200F0B0800F440131A160A2
:10B1A0003E72637DE7E7C2F30903009323695A1CEB
:10B1B00022611E7826750023B5426375E1D163686C
:10B1C000002B14BF0020042005B0BDE8F08F2269D9
:10B1D000511C21611178217501206075002900F052
:10B1E000BC80752910D0BD4A2F2304E012F8023F1D
:10B1F000002B00F0AE808B42F8D15678002E00F084
:10B20000A88000236375C1E7911C637521615378A1
:10B2100023756075002B00F0A080402B86BF23F0C3
:10B220002003A3F13701A3F13001C8B20F2800F2C7
:10B2300090800021D31C61752361917821750123D1
:10B240006375002900F08980402986BF21F0200124
:10B2500037393039C9B20F297BD80026131D6675DE
:10B260002361D3782375012641EA00116675002B0E
:10B2700073D0402B86BF23F02003373B303BDBB23B
:10B280000F2B66D800206075501D20611279227541
:10B2900043EA011301211BB26175002A5DD0402AE7
:10B2A00086BF22F02002373A303AD2B20F2A50D865
:10B2B00042EA03139AB202F5205189B20020B1F597
:10B2C000806F1EB26075FFF46EAF02F510539BB233
:10B2D000B3F5806F4FD37F2A00F2A1806768002FFB
:10B2E0003FF464AFA368FA88934200F0DA801F4409
:10B2F0000133A3603E72637D3DE7D4F800A04900AE
:10B30000DAF8009001F10108B8F5803FD9F8003073
:10B3100012D29B68724A934201F10A0140F0A28066
:10B32000384638F0C1FB28B1A0F80680A1686060FB
:10B33000074632E7D9F800305B685B4517D13846DD
:10B340002CF078FE01238AF804300022637D6260CD
:10B3500011E7032005B0BDE8F08F022005B0BDE87D
:10B36000F08F03695A1C02611D780575FDE63946A8
:10B3700048469847E6E7C2F30903009A8DF80800AB
:10B3800043EA822303F58032C2F30531C2F38742D8
:10B3900042F0F00703F03F02C3F3851361F07F0131
:10B3A00062F07F0263F07F038DF80B108DF80C7054
:10B3B0008DF809208DF80A300DF10D0808F1FF38DD
:10B3C00008E01E440133A360377218F8017D002F96
:10B3D0003FF4E7AE6668002EF7D0A368F288934288
:10B3E000EFD15A00D4F800A002F10109B9F5803F6D
:10B3F000DAF8003028D21968886802F10A01384A60
:10B400009042844645D13046019338F04DFB019B74
:10B41000D0B1A0F80690A36860600646D1E706F0B8
:10B420003F0363F07F03B2F5006F8DF809308DF8AC
:10B4300008004FEA92131AD263F03F03DFB28DF88F
:10B440000A700DF10B08B9E71A6852685A451CD109
:10B4500030462CF0EFFD00234FF001028AF8042063
:10B460006360B2E70A464846394698475BE703F00F
:10B470003F029B1162F07F0243F0E0078DF80A2043
:10B480008DF80B700DF10C0898E73146184690477F
:10B49000E1E70A4618460193314663469847019B07
:10B4A000B6E7D4F800905A00D9F8008002F1010AFA
:10B4B000BAF5803FD8F8003018D29B6808498B4213
:10B4C00002F10A021FD11146384638F0EDFA58B1A0
:10B4D000A0F806A0A3686060074608E7C0750600EC
:10B4E000057602000D760200D8F800305B685B45F7
:10B4F0000DD138462CF09EFD012389F8043000223E
:10B50000637D626037E6394640469847DFE7394653
:10B5100040469847F0E700BF2DE9F04F427D8DB0DF
:10B5200004460D46002A76D0027D202A12D8DFE894
:10B5300002F07A11111111111111117070111170A5
:10B5400011111111111111111111111111111111EB
:10B550001111700001217B2A217300F258815A2AAF
:10B5600042D9A2F15B01202900F25181DFE811F0FC
:10B57000C0004F014F014F014F014F014F014F01DB
:10B580004F014F014F0114014F014F014F014F0176
:10B590004F014F014F0121004F014F014F014F015A
:10B5A0004F0132014F014F014F014F014F014F0138
:10B5B0006400C8491346002001259A4240F0668184
:10B5C00011F8012F6075002A00F07D8123695E1C4F
:10B5D00026611B7823756575002BEED14FF00208AC
:10B5E00040460DB0BDE8F08F222A02D0272A40F055
:10B5F0000E8163680022A260002B00F0F1812046DA
:10B60000FFF7AAFD804698B929462046FCF72EFD93
:10B610000EE0002262752269511C216112782275A8
:10B620000121617581E7237B002BD7D14FF0010801
:10B6300040460DB0BDE8F08FDEB220224FF0FF3360
:10B640002A712B60002E00F04B8100232269637564
:10B65000194601201346013222611B78237560755B
:10B66000202B00F2408101A757F823F0DDB502003E
:10B67000E7B80200E7B80200E7B80200E7B8020046
:10B68000E7B80200E7B80200E7B80200E7B8020036
:10B690004FBA02004FBA0200E7B80200E7B8020052
:10B6A0004FBA0200E7B80200E7B80200E7B80200AC
:10B6B000E7B80200E7B80200E7B80200E7B8020006
:10B6C000E7B80200E7B80200E7B80200E7B80200F6
:10B6D000E7B80200E7B80200E7B80200E7B80200E6
:10B6E000E7B80200E7B80200E7B802004FBA02006C
:10B6F000DEB240224FF0FF332A712B60002E00F0A3
:10B70000EF80002363752046FFF7FAFC804600288F
:10B710008ED1637D002B00F09C81237D5D2B38D082
:10B72000013E4FF6FF774FF00109D4F818A008A8A2
:10B730005146FCF7D9FA0899002900F019826B8864
:10B74000BDF82420BB4200F0AB81DAF82C004FEAB0
:10B75000D31C00EBCC0003F07F03406800EBC30375
:10B76000DA806A8033464FF000022046FFF7D4FEAD
:10B77000002840F033812046FFF7C2FC002840F04B
:10B780002D81637D002B00F09281237D5D2B40F0A5
:10B790007A81002363754BE700232B70637D0621BC
:10B7A0002971002B00F07781237D4B49002B3FF45A
:10B7B00015AF9A426AD111F8012F00236375002A50
:10B7C00000F081802369581C20611B7823750120BB
:10B7D0006075EBE701232B70637D06212971002B37
:10B7E00000F05781237D3D49002B3FF4F7AE9A428C
:10B7F0004CD111F8012F00236375002A63D023690F
:10B80000581C20611B78237501206075ECE700232C
:10B810009E4604F11B014FF0010C15E0392A03D9B3
:10B8200002F0DF00452817D13F2B03F1010013D0B0
:10B8300084F815E001F8012F2269C3B2501C206181
:10B840001278227584F815C02F2AE7D82B2AA2F186
:10B850002D00E9D00128E7D9234400221A7704F10A
:10B860001C0108A8FCF754FD9DF8208008F1FF3367
:10B87000032B0BD8DFE813F0E400D200C500100062
:10B8800039294FD95E2949D97A294BD94FF0030874
:10B8900040460DB0BDE8F08FDDE90A673946304615
:10B8A00036F020FE824636F0CDFA02460B46304690
:10B8B000394636F087FD8146002800F025810E23A9
:10B8C000C5F800A02B714FF0000840460DB0BDE850
:10B8D000F08F00BFE4750600DC750600D475060025
:10B8E0004FF00508A4E601227D2B227374D0DFF807
:10B8F0003093DFF830A300276368A760002B00F0C7
:10B90000E680637D002B00F0AC80217D272900F0CC
:10B91000B280222900F0AF802F29B1D8A1F14103D4
:10B92000192BB3D84FF0010867752046FCF736FC99
:10B93000637D002B00F02B81217D2F29A1F1410394
:10B9400000F2D880192BEFD96368002B00F010812A
:10B950002046FFF7D5FB804600287FF469AE637D63
:10B96000002B00F0AC80237D3A2B8FD1D4E901323B
:10B97000134467751F72D4E90132D4F818B08DF8FA
:10B980002870083308930992CDF800B008AB0ECBAD
:10B990002846FFF7BBFA59468046002800F0078189
:10B9A000FCF746FC4146731E4FF000022046FFF7AD
:10B9B000B3FD804600287FF43BAE2046FFF7A0FB96
:10B9C000804600287FF434AE637D002B00F0E780D2
:10B9D000237D7D2B40F0CF8000206075804627E6D8
:10B9E00026688F4A306803681B68934240F0BD8028
:10B9F00028202CF005FB00284FD08A4B4360606064
:10BA0000FDE5DDE90A67012F08BF002E80F08D807B
:10BA10000A232E602B714FF0000809E6DDE90A9A2F
:10BA200019F100464AF10007012F08BF002E80F0EF
:10BA30008C800C23C5F800902B714FF00008F7E5BF
:10BA40000A9A2A600E232B714FF00008F0E5617509
:10BA500000E623695A1C22611B7823750122627556
:10BA60005CE623695A1C2261197821750123272974
:10BA700063757FF44EAF2046FFF76EFB80460028CB
:10BA80003FF466AFD4E52C2B7FF400AF0023637541
:10BA90004BE66549B3E6654994E601233371AEE7A9
:10BAA000002362F30F0362F31F432B605AE62369FE
:10BAB0005A1C22611B78237584F8159066E6236969
:10BAC0005A1C22611B782375012262754CE7D4F859
:10BAD0000080D8F8000003681B684B4540F099804F
:10BAE00028202CF08DFA002800F08F80C0F804A0E8
:10BAF000606006E739297FF617AF5E297FF622AF2F
:10BB00007A297FF611AF1FE7A16906A8FCF7D0F9E3
:10BB1000069B002B3FF48CADBDF81C202A801E2113
:10BB20002971C846C3E9006782E5A16906A8FCF748
:10BB3000BFF9069BE3B1BDF81C202A801A212971A8
:10BB40004FF00008C3E9006772E5A16906A8FCF799
:10BB5000AFF9069B63B1BDF81C202A801C21297116
:10BB60004FF00008C3E9009A62E52821984742E7B0
:10BB70004FF004085CE52C2B7FF488AE67752046F7
:10BB8000FFF7BEFA804600283FF4B6AE50E52369C1
:10BB90005A1C22611978217584F81580CDE6236935
:10BBA0005A1C22611B7823750122627511E704A8D3
:10BBB000FCF79AF8049B002BDAD0594606A80393A9
:10BBC000FCF792F8DDF81880B8F1000FD0D0039B95
:10BBD000BDF81C10D9806A88BDF814004FF6FF7CB0
:10BBE000624519D0DBF82CC04FEAD21E0CEBCE0C0C
:10BBF00002F07F02DCF804C00CEBC202D080698046
:10BC000019462046FCF732FACCE6012388F80430C6
:10BC10006EE72821984766E728806980F0E700BF33
:10BC20001576020001001F00D4750600DC750600C1
:10BC30002DE9F04F038E9BB00746044657F80CBB26
:10BC4000ADF80420884600F1380903B30026C36A22
:10BC5000B2460BE02CF0EEF9E36AC5F800A0208EA6
:10BC6000C5F804A00136B1B2884211D9B5B203EBD0
:10BC7000C505696808460029EFD0DBF80030374A6F
:10BC80005B689342E6D058469847E36AE5E7C36AA3
:10BC900000204FF6FF719F422086A1860BD0DBF873
:10BCA00000102E4D4E68AE424DD118462CF0C2F910
:10BCB0000423E7626386A16826680023237161B1CB
:10BCC000264D33680A685B68A260AB4208462DD1F6
:10BCD0002CF0B0F9A1680029F3D1002584F83C507C
:10BCE0009DF805308DF8185049464FF0000203A822
:10BCF000CDE904558DF821500394CDF81C800994AA
:10BD0000FFF70AFC054610B99DF82050A5B9049824
:10BD100040B1039B11491A6813685B688B4216D1C6
:10BD20002CF088F928461BB0BDE8F08F30469847C4
:10BD3000A1680029C5D1D0E794F83C5015F008055A
:10BD400018BF0325E3E719465846B047B0E7014658
:10BD50001046984728461BB0BDE8F08F0D760200CC
:10BD60002DE9F04F0024964DDFF884B295499648AE
:10BD70002C6093B02246CBF8004017F0E1FF21463B
:10BD80009148DFF870A218F043F904E001348F48BD
:10BD90002C6017F097FD8C498C48002218F006FAA9
:10BDA000002800F005812B68C72B00F3FE8003A953
:10BDB0008648192219F04EF903A82E2137F0ACFF5E
:10BDC00008B1002303702C68814B04EB440204EBA0
:10BDD000820213440C220DEB0201184637F089FF52
:10BDE000DBF800200027C72A0773CFDC794C77489F
:10BDF000214640F6FF7218F003F8002801DC2C6899
:10BE0000C4E7754E2754338ED6F8008003B3F36A27
:10BE10003C460BE02CF00EF9F36AC9F80070318E45
:10BE2000C9F804700134A2B2914212D91FFA84F900
:10BE300003EBC909D9F8041008460029EDD0D8F859
:10BE400000305B685345E5D040469847F36AE4E725
:10BE5000F36A624C00223286A3424FF6FF72B2862A
:10BE60000BD0D8F800205268524540F01F81184688
:10BE70002CF0E0F80423F4627386B0683468002381
:10BE8000337158B1236802685B68B260534540F073
:10BE900084802CF0CFF8B0680028F3D10A238DF805
:10BEA00009300023029A4B494B4886F83C30FFF793
:10BEB000BFFEC4B2002CA2D196F83C30202B00F07B
:10BEC0009B80402B9BD1338F4FF6FF70834296D0DF
:10BED000F76ADA0907EBC20203F07F03526812EB3C
:10BEE000C3038CD0DA88D309824207EBC30302F084
:10BEF0007F0104F1010403D05B6813EBC103F1D1AE
:10BF0000002C3FF47CAF364BDFF8E0900D964FF0FD
:10BF100000080B270AA80124CDE90E83CDF8309044
:10BF200010978DF84440FEF70FFD2E4BCDF8309062
:10BF30000AA8CDF8388010970D968DF8444057EC3C
:10BF4000106B0F93FEF700FD59EC108B00220023BD
:10BF50003046394636F036FA40B1002200234046DA
:10BF6000494636F02FFA00287FF449AFDBF800404D
:10BF70001D4B04EB440203EB021303A91F221846D6
:10BF800037F0B7FE621C0021C0E90867C0E90A89E2
:10BF90002C68CBF80020C177F8E601462046984788
:10BFA000B06800287FF46EAF78E7084817F08AFC85
:10BFB000054817F087FC012013B0BDE8F08F00BFE3
:10BFC00094FA0020488006001CFF002034DC00208A
:10BFD000FCED0020686A002054BD002060BD0020F8
:10BFE000F475060000760600D80301208CBD002001
:10BFF000582901200D7602002E4B0A9307220123B7
:10C000000B928DF8303000960AAF97E80E002A4860
:10C01000FEF7FAFE804600283FF4F1AE0379402B8C
:10C020007FF4EDAE03884FF6FF7083423FF4E7AE36
:10C03000F16ADA0901EBC20203F07F03526812EBE6
:10C04000C3033FF4DCAEDA88D309824201EBC303B9
:10C0500002F07F0C04F1010403D05B6813EBCC0306
:10C06000F1D1002C3FF4CBAE144ACDF83080002340
:10C070004FF00B0938460124CDE90D63CDE90F29B6
:10C080008DF84440FEF760FC0D4ACDF840903846EC
:10C090000023CDE90C860E9357EC106B8DF84440CD
:10C0A0000F92FEF751FC59EC108B4FE719464046B2
:10C0B0009047DFE6EC7506008CBD0020F4750600A5
:10C0C0000076060000B58BB00023074A0749ADF89B
:10C0D000043001A88DF8063017F02AFE08B1FFF7EA
:10C0E0003FFE0BB05DF804FB488006004065002071
:10C0F000F0B5424F424D3B882B789BB0002B51D17D
:10C10000032003F0FF06FDF7B3FA044600283ED0F3
:10C110003C4B3D4A3221684637F0DEFC3B49ADF8E6
:10C1200034606A460DA833468DF8366017F000FE7D
:10C13000002852D100234FF47A71354C0E93ADF89C
:10C1400044308DF846300F916A4630490D9411A85D
:10C1500044F2022317F0ECFD9DF84440002C36D049
:10C160003A882C4992B211A818F01CF9044611A87B
:10C1700017F0A8FB0320FDF793FA3B889BB2A3427C
:10C180001DD0254925480F221BF0E2FD0FE0244970
:10C190000C2222481BF0DCFD224A234B14701C7039
:10C1A0001BB0F0BD21491D480E221BF0D1FD1D49D9
:10C1B0001D4A00230B7013702B701BB0F0BD1C497F
:10C1C000164803221BF0C4FDFFF77CFFEFE70320B6
:10C1D000FDF766FA10490F22DBE70C49ADF8346031
:10C1E00001236A460DA88DF8366017F0A1FD0028DE
:10C1F000A0D00DA818F00CFE9CE700BFC08A00205C
:10C20000707A0020E48C00201C7606004065002037
:10C21000D07E0600C07A00202876060078DD002057
:10C22000B4740600BC7A0020E18C00200C76060075
:10C230003876060070B5364D96B02DF0BDFF2868F3
:10C24000032108F01BFA60B904462DF0BFFF314905
:10C2500031482B680C221BF07BFD304B1C7016B054
:10C2600070BD032600242E602DF0B0FF2C4B2D4A0C
:10C27000322109A837F030FC2B49ADF8004009AA5B
:10C28000234668468DF8024017F052FD0546B8B1C6
:10C290002549ADF8004009AA012368468DF80240FF
:10C2A00017F046FDC0B90320FDF7FAF91F491A48F7
:10C2B0000F221BF04DFD194B00221A7016B070BDF5
:10C2C0003046FDF7EDF91A4913480C221BF040FDEA
:10C2D000124B1D7016B070BD684618F099FD00280D
:10C2E000E1D03046FDF7DCF912490B4832461BF02D
:10C2F0002FFD114A0C49ADF80040684623468DF8E1
:10C30000024017F015FD0028D5D0FFF729FDD2E730
:10C3100000DB0020B474060078DD0020C48C00200F
:10C32000C88C00201C760600406500202876060098
:10C330003C76060038760600488006002DE9F04F6E
:10C34000038E9BB00746044657F80CBBADF804209B
:10C35000884600F1380903B30026C36AB2460BE0F1
:10C360002BF068FEE36AC5F800A0208EC5F804A093
:10C370000136B1B2884211D9B5B203EBC50569687F
:10C3800008460029EFD0DBF80030374A5B6893425B
:10C39000E6D058469847E36AE5E7C36A00204FF6BF
:10C3A000FF719F422086A1860BD0DBF800102E4D36
:10C3B0004E68AE424DD118462BF03CFE0423E76296
:10C3C0006386A16826680023237161B1264D336816
:10C3D0000A685B68A260AB4208462DD12BF02AFEAA
:10C3E000A1680029F3D1002584F83C509DF8053060
:10C3F0008DF8185049464FF0000203A8CDE90455C6
:10C400008DF821500394CDF81C800994FFF784F82F
:10C41000054610B99DF82050A5B9049840B1039B7A
:10C4200011491A6813685B688B4216D12BF002FE23
:10C4300028461BB0BDE8F08F30469847A168002918
:10C44000C5D1D0E794F83C5015F0080518BF032576
:10C45000E3E719465846B047B0E70146104698470B
:10C4600028461BB0BDE8F08F0D7602002DE9F04F95
:10C47000002591B0B94B049516464FF47A74814665
:10C480002A4607A88A46B64905940096ADF81C507E
:10C490008DF81E50039317F053FC9DF81C40002CA0
:10C4A00000F01481AF4F40F2FF12394607A817F091
:10C4B000A7FC064607A817F005FA0420FDF7F0F8D8
:10C4C000002E54DDA84CBD55238ED4F800B0002BAF
:10C4D00052D0E36ADFF898822F4609E02BF0AAFDDC
:10C4E000E36A3760218E77600135AAB2914244D960
:10C4F000AEB203EBC606716808460029F1D0DBF83E
:10C5000000305B684345E9D058469847E36AE8E75E
:10C51000366830460EB137F0D2FB874240F0B0802B
:10C5200067B109F1FF33701EDE1913F8011F10F80F
:10C53000012F914240F0A480B342F6D14FF6FF7331
:10C54000984514D04FEAD8130BEBC30B08F07F08C3
:10C55000DBF8042012EBC80109D00B79042B00F0A2
:10C56000BC80052B00F00681022B00F0BB8000246C
:10C57000204611B0BDE8F08FE36A7C4E002222868F
:10C58000B3424FF6FF72A2860CD0DBF80020784D44
:10C590005268AA4240F0DD8018462BF04BFD042380
:10C5A000E6626386A16826680023237161B1704D3D
:10C5B00033680A685B68A260AB4208467FD12BF003
:10C5C00039FDA1680029F3D10A238DF80930002331
:10C5D000029A6449644884F83C30FFF7AFFE10F0DB
:10C5E000FF0FC4D1B9F1000FC1D0484637F067FB47
:10C5F00094F83C30202BBAD1268F4FF6FF718E4233
:10C60000B5D0D4F82CB0F3090BEBC30306F07F06CA
:10C610005B6813EBC606AAD0B6F806800196012423
:10C620004746334605467CB98F42A0D0FA090BEB4A
:10C63000C20207F07F07536813EBC70397D084F05B
:10C640000104DF88002CEFD01A79042A70D0052A63
:10C650006AD0022A50D0002DE6D12A464FF6FF7547
:10C66000AF42019E83D0FB090BEBC30307F07F07AA
:10C670005B6803EBC707002F3FF479AF17469CB9FF
:10C68000A8453FF474AF4FEAD8120BEBC20208F092
:10C690007F06536813EBC6063FF469AF84F00104CC
:10C6A000B6F80680002CEBD03379042B3FF430AF82
:10C6B000052B4AD0022B44D0002FE1D13EE7304673
:10C6C0009847A16800297FF473AF7DE70420FCF749
:10C6D000E7FF204611B0BDE8F08F52F8381000296E
:10C6E0003FF445AF009B5D1E2A46504637F001FBE4
:10C6F00000230AF805303BE718461E4637F0DFFAFC
:10C700004FF6FF7185428FD1002DA6D009F1FF327F
:10C71000701E02EB050E12F8016F10F8013F9E42E9
:10C7200082D19645F7D198E71E68F0880836E9E788
:10C730001E683046002EE5D037F0C1FA4FF6FF7183
:10C74000E0E7304637F0BBFAE7E63668F0880836AF
:10C75000E3E619465846904721E700BFD07E060021
:10C7600080840600C48A0020D0690020DC69002093
:10C770000D76020052F838100831B3E72DE9F04F7A
:10C7800000F10C03044693E80700D4E901378DB0AB
:10C790006C4684E80700002B59D01D7903AC202D8E
:10C7A00084E8070052D106AC84E807000CAC04E929
:10C7B0000700DDF82480B8F1000F47D018884FF645
:10C7C000FF76B04242D0D7F82C90C20909EBC202E2
:10C7D00000F07F03506810EBC30037D00A9DB0F81B
:10C7E00006B06F1E4FF0010A4744BAF1000F12D194
:10C7F000B3452BD04FEADB1309EBC3030BF07F0BE0
:10C80000586810EBCB0021D08AF0010AB0F806B0CE
:10C81000BAF1000FECD00379042B33D0052B2DD0C7
:10C82000022B18D0002DE3D14FF6FF739B450DD09E
:10C830004FEADB1309EBC3090BF07F0BD9F8043087
:10C8400003EBCB0318460DB0BDE8F08F002318466C
:10C850000DB0BDE8F08F044637F031FAA842C7D1D9
:10C86000002DE1D0601E08F1FF3313F8011F10F80E
:10C87000012F9142BCD19F42F7D1D5E70468E088EF
:10C880000834EBE704682046002CE7D037F017FAAD
:10C89000E4E700BF2DE9F04FAA4BAB4F1B782DED1D
:10C8A000028B00258FB03D60002B4DD00446042044
:10C8B000FCF7DEFE002847D0A44E214606F110000A
:10C8C0002A4617F03DFA337C002B3AD0A04C4FF4A7
:10C8D0008052214606F1100017F092FA411C2CD02C
:10C8E0009C4EB0F5805FB8BF25543046A8BF84F891
:10C8F000FF5FFBF79BF90A238DF815300023059A9B
:10C90000934986F83C303046FFF792F910F0FF0F5C
:10C91000044606D196F83C30202B1BD0402B00F06B
:10C920008B828D4816F0CEFF0420FCF7B9FE0A205A
:10C930000FB0BDEC028BBDE8F08F06F1100016F0D1
:10C94000C1FF0420FCF7ACFE05200FB0BDEC028B4C
:10C95000BDE8F08F814A8249089608AD0823284631
:10C960004FF0010ACDE909238DF82CA0FDF758FE00
:10C970007C4B7B4909938346092328460A93FDF79C
:10C980004FFE794B7649099381460D2328460A9339
:10C99000FDF746FE5946DFF8E8B180461F225846AB
:10C9A00037F0A7F949460F220BF12000CDF808B067
:10C9B0008BF81F4037F09DF9029B414603F1300090
:10C9C0000E2283F82F4037F094F9684A0096072327
:10C9D000CDE908238DF828A095E80E00029D06F108
:10C9E000380085F83E40FEF791FA002800F09E805E
:10C9F0000379402B40F09A8004884FF6FF739C42E5
:10CA000000F09480D6F82C80E30908EBC30304F00F
:10CA10007F045B6813EBC40400F08880D7F800B093
:10CA2000E5889FED538ABBF1090FCDE9064616DD77
:10CA30004FF6FF739D4279D0D6F82C80EB0908EBB6
:10CA4000C30305F07F055C6814EBC5046ED0D7F80E
:10CA500000B0E588BBF1090FCDE90646E8DC4549A1
:10CA60000B9145490422012308A8CBEB0B1A8A44F9
:10CA7000CDE909460C928DF83430FFF77FFE4FEA7E
:10CA80000B19014648B10379042B00F0D381052B23
:10CA900000F0CD81022B18BF002150460E2237F046
:10CAA00028F9354B35490994A9EB0B0999444FF006
:10CAB000000A0822012308A8CDE90B120A9689F87A
:10CAC0000EA08DF83430FFF759FE00285AD00379B4
:10CAD0001A0757D513F0100200F0DA8102884FF6DA
