:020000022000DC
:10700000000004200D6806004D6806004F68060069
:10701000516806005368060055680600000000002D
:10702000000000000000000000000000896706006A
:107030005968060000000000A96706005D680600A8
:10704000696A06005F680600F13E06005D8804007C
:10705000158904005F680600C94106005F680600E4
:107060005F6806005F6806005F6806005F680600EC
:107070005F6806005F6806005F6806005F680600DC
:107080005F680600D96406005F6806005F68060056
:107090005F6806005F68060021AC05005F680600B7
:1070A0005F6806005F680600F98903005F680600F4
:1070B0005F6806005F680600000000000000000036
:1070C0005F6806005F6806005F6806005170060092
:1070D0005F6806005F6806005F680600E53205002D
:1070E0005F6806005F6806005F6806000000000039
:1070F000000000005F68060000000000C970060084
:10710000000000000000000000000000000000007F
:10711000000000000000000000000000000000006F
:10712000000000000000000000000000000000005F
:10713000000000000000000000000000000000004F
:10714000000000000000000000000000000000003F
:10715000000000000000000000000000000000002F
:10716000000000000000000000000000000000001F
:10717000000000000000000000000000000000000F
:1071800000000000000000000000000000000000FF
:1071900000000000000000000000000000000000EF
:1071A00000000000000000000000000000000000DF
:1071B00000000000000000000000000000000000CF
:1071C00000000000000000000000000000000000BF
:1071D00000000000000000000000000000000000AF
:1071E000000000000000000000000000000000009F
:1071F000000000000000000000000000000000008F
:10720000F1EE103A43F08073E1EE103A704700BFA0
:1072100010B5054C237833B9044B13B10448AFF3D0
:1072200000800123237010BD3466002000000000A0
:10723000949F070008B5034B1BB103490348AFF304
:10724000008008BD0000000038660020949F070001
:10725000154B002B08BF134B9D46A3F5803A002128
:107260008B460F461348144A121A47F0DFFF0F4BA4
:10727000002B00D098470E4B002B00D098470020E1
:10728000002104000D000D48002802D00C48AFF387
:10729000008047F00FFF200029003FF00FFB47F070
:1072A000E3FE00BF00000800000004200000000012
:1072B00000000000346600208473012000000000FC
:1072C00000000000BFF34F8F0549064BCA6802F467
:1072D000E0621343CB60BFF34F8F00BFFDE700BFF9
:1072E00000ED00E00400FA0535DF704733DF70473A
:1072F0003CDF70473DDF704741DF704711DF70476B
:1073000012DF70470020704701207047012070474E
:10731000704700BF704700BF704700BF704700BF95
:10732000024B02F001021A70704700BF436B00204D
:1073300070B50446C0694E4D46F086FF4AA3D3E9B6
:10734000002346F0EBFF02460B46A069C5E9002387
:1073500046F07AFF44A3D3E9002346F0DFFF94ED23
:107360000F7AB4F84C30DFED437A9FED435A9FED2E
:10737000434ADFED434AF8EEC75A94ED107A06EE21
:10738000103AF8EEC76A94ED0A7AB8EE466AB8EE9B
:10739000477A66EEA76A65EE845A26EE246A27EEDF
:1073A000057AC5ED055A85ED066AC5ED076A85EDD6
:1073B000087AE37DD4ED097A6B62237DF8EEE77AF3
:1073C000012B88BF637DC5E9020167EE857A8CBF1A
:1073D00003F001030023C5ED047A85F82830E37A31
:1073E00003F00302A2F10300B0FA80F0C3F38001BE
:1073F0004009032A85F82A0085F82B1003F00403BE
:107400002DD1003B18BF0123A28885F82930A2F5B1
:10741000FA63AB85A37985F82E30E37985F82F30B0
:10742000237A85F83030637A85F83130A37A85F88D
:1074300032302268134B1449144C1548A3FB0263E5
:1074400001260E709B094FF47A7101FB132321680A
:107450000268AB86314432442160026070BD002373
:10746000D2E700BFAFF3008048AFBC9AF2D77A3EB4
:10747000F0E40020ACC527376F12833AA8C8FE3A63
:107480000AD7233CD34D621028E5002040E50020B8
:107490002CE50020024B034AC3F800260120704768
:1074A000000001403546526E024B0349C3F80016F6
:1074B00010467047000001403546526E0AB3C2F3D1
:1074C00008032DE9F0471546A3B9DFF83C800646CE
:1074D0000F464FEA52290324D8F8680403683A4655
:1074E000D3F814A031464B46D047013C30B914F0D4
:1074F000FF04F1D14FF0FF30BDE8F0872846BDE82A
:10750000F0874FF0FF30704750660020704700BF93
:10751000037C13F0080306D0C36A406A181A48BFF8
:107520006FF0004070471846704700BF2AB3C2F39F
:1075300008032DE9F0471546C3B906460F463CF04F
:10754000AFFE0F4BDFF83C8018604FEA552903244B
:10755000D8F8680403683A46D3F824A031464B466D
:10756000D047013C30B914F0FF04F1D14FF0FF30A7
:10757000BDE8F0872846BDE8F0874FF0FF30704740
:10758000147D002050660020103028F04BBA00BF58
:10759000103028F0ABBA00BF00B583B00B46012213
:1075A0000DF1070110308DF8073028F09FFA03B075
:1075B0005DF804FB00B587B00346064A684618210B
:1075C00048F02AFD694682B2034831F0F9F807B065
:1075D0005DF804FB5C3A070098E40020103027F0C7
:1075E0009DBF00BF00B583B001220DF1070110302F
:1075F00027F0C2FE01280CBF9DF807004FF0FF30B6
:1076000003B05DF804FB00BF0846114648F0ECBC2F
:1076100008463CF087BE00BF08463CF069BE00BF8C
:1076200010B50E4C84B0227801A8092115F030FB6A
:10763000237802332370024670B1094B1B7803F0A4
:10764000FF004BB1074B1B7803F0FF0023B1064846
:1076500092B201A931F0B4F804B010BD96B3002085
:10766000466B0020436B0020446C00202DE9F04362
:107670004779402F3946A1B028BF40219FB300234E
:10768000E9464A469C461F46054603EB4304AE7A4C
:10769000167000EB84040133247C14F0080FC4F34B
:1076A000C00818BF013782F801805FFA83FE05F138
:1076B0000C0502F1020218BFFFB21EB10CF1010C61
:1076C0005FFA8CFC7145E0D8084B094C1F70094AE1
:1076D00084F800C04846102315F00CFE064B1870C5
:1076E00021B0BDE8F083BC46E946EDE759E500204E
:1076F00058E5002048E5002044E5002010B50C4C7A
:10770000D4F868040368DB69984794F82430DB07F1
:1077100006D400224FF0FF3384F82420236310BDE9
:1077200004F124002AF0B4FE0028F2D110BD00BFFD
:107730005066002070B58AB01F2201460092194899
:1077400002ABFF2231F0B4FD0D2804D8154831F00A
:1077500095FD0AB070BD0446014602A815F0F6FE7C
:107760000028F3D0104E11483578102C28BF102473
:10777000E4B202A9224600EB051047F02FFDEDB25E
:107780000B4B5C553CF08CFD0A4C0B4A44F8250031
:10779000012185EA010303485155337031F06EFD34
:1077A0000AB070BD685101203B6B0020FCB2002084
:1077B0001CB3002098B30020FCB30020174BDB68FB
:1077C000D90110B503D5164B1A68D2071FD43DF066
:1077D0007FFF144BA0FB0301830A43EA8153124944
:1077E00012480A6800689A1A90420FD810480B6035
:1077F000027810490132097802F00F02914209D053
:1078000001780D4CC9B244F82130027010BD5B689C
:107810009B09E4E7094B01221A7010BDF0ED00E06E
:10782000001000E040420F000C060120CC60002058
:107830005406012056060120140601205506012099
:1078400010B5034B0360044617F00CFC204610BD36
:10785000244D07000F49097802290AD1F8B50E4EC8
:107860000E4F3578EDB21C467B5D0BB9202C01D94B
:10787000F8BD70470A48114600EB4510224647F014
:10788000ADFC0848E3B24355012185EA0102795570
:107890003270F8BD28E10020426B002030C4002087
:1078A00054B3002094B3002070B5124C124A134B0D
:1078B0002260002647F260006360C4F888633FF0EE
:1078C0003DF80F4B0F4D93ED000B32462146044619
:1078D00021F07EFF0C4B2C6093ED000A204622F035
:1078E0001FFB0A4B286893ED000ABDE8704022F0A8
:1078F0002DBB00BFE0DC0020683A07008C65070064
:10790000186200201CE20020C4620020C062002037
:10791000F8B51A4B1B78022B044626D0184B194A8F
:1079200019480027214601261F70167033F070F9A0
:10793000054631F0BDF82846F72131F0CDF828464C
:10794000022131F0D9F83A463946284631F0CCF8D0
:107950000E4B1E703CF0A4FC0D4B0E4A1C801060B8
:107960002846BDE8F84031F0A5B80B4A0B490C4B4E
:1079700010800120002208701A70F8BD28E1002054
:1079800096900020E4E00020CC4A01202AE100206B
:1079900022E1002024E10020C4600020466B00208A
:1079A000436B0020214A13884FF6FF719BB28B4234
:1079B000F0B403D013889BB2984228D01C4B1B789C
:1079C000022B24D01B4B1C481C4F1D4E1D4D1E4C22
:1079D0001E491A7800233B70337003701C482B70CB
:1079E00023701C4D0B701C4C1C49037017202B700E
:1079F000237008801A4B1AB900221A70F0BC704725
:107A00001A78002AF8D0174A01211170F4E7138878
:107A10009BB29842F2D1144C144900234FF6FF70E8
:107A200023701080F0BC0B70704700BFC460002052
:107A300028E10020DCE00020DD9200209080002082
:107A40003480002033800020A0920020F96C0020B8
:107A5000E4E0002029E100209E900020DC6000206E
:107A600096900020FB920020466B0020436B002084
:107A70002DE9F04F4948037CABB0002B40F08A80E1
:107A80004748037C002B40F081804648037C002B54
:107A900078D14548037C002B70D1002432203CF083
:107AA0000BFC424E424A43490194234604A84FF43A
:107AB0007A75ADF810408DF812400295009627F0C7
:107AC000F3FB9DF81000002855D03B4D2B68132B7D
:107AD00049DC3A4FDFF8E88005E011A827F0AEF95D
:107AE0002B68132B3FDC4FF47A73002204A911A8F2
:107AF0000F930E94ADF844408DF846400D9627F054
:107B0000F9FE9DF8443040221AA911A85BB329F070
:107B100047F99DF8443013F0D00F1AA8DDD148F092
:107B20006EFB03461AAA0638062B39461044D4D9F0
:107B300048F00AFB81460028CFD1D5F800A00AEB17
:107B40004A0B08EB0B1B1AA92F22584648F071FB71
:107B50000AF1010311A82B608BF82F9027F06EF922
:107B60002B68132BBFDD04A827F068F928680028CC
:107B7000D4BF002001202BB0BDE8F08F103027F0DB
:107B80005DF98AE7103027F059F982E7103027F0C5
:107B900055F97AE7103027F051F971E7EC0101202F
:107BA00044E300206006012094060120404D0700B8
:107BB000703A070050660020DC010120743A07008B
:107BC0002002012010B5094C2368013309D1084A6D
:107BD000136803F59C5308334FF0FF3113602160A5
:107BE00010BD3CF05DFB034B1860F0E72062002005
:107BF000B4E2002060FF002038B505680A4A044658
:107C0000286803681B6893420BD128203CF070FB66
:107C100018B1064B4360606038BD01232B71606072
:107C200038BD28219847F3E71976020001001F00AC
:107C300081682DE9F0470568044669B1284E2B6834
:107C40000A685B68A260B34208463DD13CF06AFB1B
:107C5000A1680029F3D12568238E04F10C0903B330
:107C60000027E36ADFF878A0B8460BE03CF05AFB47
:107C7000E36AC6F80080218EC6F804800137BAB2E4
:107C800091420FD9BEB203EBC606716808460029BF
:107C9000EFD02B685B685345E8D028469847E36AE5
:107CA000E7E7E36A00214FF6FF7299452186A28635
:107CB00007D02A680A4952688A420BD118463CF01C
:107CC00031FB2046BDE8F08728469847A168002987
:107CD000B5D1C0E72846194690472046BDE8F08751
:107CE0001176020081682DE9F0470568044669B104
:107CF000284E2B680A685B68A260B34208463DD1F3
:107D00003CF010FBA1680029F3D12568238E04F113
:107D10000C0903B30027E36ADFF878A0B8460BE04C
:107D20003CF000FBE36AC6F80080218EC6F80480B0
:107D30000137BAB291420FD9BEB203EBC6067168E1
:107D400008460029EFD02B685B685345E8D02846E9
:107D50009847E36AE7E7E36A00214FF6FF72994527
:107D60002186A28607D02A680A4952688A420BD126
:107D700018463CF0D7FA2046BDE8F08728469847D9
:107D8000A1680029B5D1C0E728461946904720468A
:107D9000BDE8F0871176020081682DE9F04705689B
:107DA000044669B1284E2B680A685B68A260B3423A
:107DB00008463DD13CF0B6FAA1680029F3D1256808
:107DC000238E04F10C0903B30027E36ADFF878A0DF
:107DD000B8460BE03CF0A6FAE36AC6F80080218EB4
:107DE000C6F804800137BAB291420FD9BEB203EB94
:107DF000C606716808460029EFD02B685B685345BA
:107E0000E8D028469847E36AE7E7E36A00214FF69F
:107E1000FF7299452186A28607D02A680A495268CE
:107E20008A420BD118463CF07DFA2046BDE8F08727
:107E300028469847A1680029B5D1C0E728461946C9
:107E400090472046BDE8F087117602002DE9F84FF3
:107E500007463CF025FA314DDFF8CC90DFF8CCB086
:107E6000DFF8CCA0064645F00105D9F800301C68C3
:107E700020463FF095FD03464FF003084FF4FA40CB
:107E80006BB9B8F1010F3CD0A84720463FF088FD00
:107E9000034608F1FF384FF4FA40002BF1D0DBF82D
:107EA0000030D3F8008040463FF07AFD03460324BB
:107EB0004FF4FA405BB9012C23D0A84740463FF06D
:107EC0006FFD0346013C4FF4FA40002BF3D0144BF6
:107ED0001B68D3F8008040463FF062FD0346032450
:107EE0004FF4FA405BB9012C0BD0A84740463FF055
:107EF00057FD0346013C4FF4FA40002BF3D0BDE898
:107F0000F88F3CF0CDF9801BB842F8D2054B0A201F
:107F1000C3F800A63CF0D0F9A7E700BF5053070014
:107F2000E860002000000140E0600020E4600020E4
:107F30003546526E2DE9F04FDFF8F490344AD9F807
:107F400000300026B34283B016702ADD4FF0FF33B5
:107F5000DFF8E080DFF8E0B02E4F01934FF0000A29
:107F600097ED0A3B97ED082B98ED021B98ED000B5F
:107F700014F002FC55EC104B5B4610EE100A524612
:107F8000294646F03DFC3837D9F8003010B1A246FA
:107F9000AB4601960136B342E2DC019B1A46013240
:107FA00020D100211C4D1D4B002428461C7012F0CE
:107FB00051FF2A781A4B042A1C600ED9194C2368E9
:107FC0005A1C1DD1184A2360136803F59C530833CB
:107FD0000120136003B0BDE8F08F6FF00A03114C6D
:107FE0009B1AEFE7C3EBC30A0A4B094803EBCA012C
:107FF0000C2248F01EF9064A002313730121D1E731
:108000003CF04EF9094A4FF0FF331060DAE700BF49
:108010000CE20020580D01201861002004E200202D
:108020006CFF002020620020B4E2002060FF0020EE
:1080300018390120F0E400200000144010B58AB087
:1080400000240A460123014601A8ADF804408DF83A
:10805000064027F029F908B90AB010BD01A828F098
:108060007BFA0AB010BD00BF38B5234C206800BBB6
:10807000224C2068E0B121F045FF002835D120686E
:1080800021F02AFFA0B1206821F026FF25F09AF800
:108090001B4A1368B3F57A7F0ADA48B119490C68AC
:1080A000A04205D0184C086044F823000133136047
:1080B00038BD26F09FF8154B1A688242F8DA104D49
:1080C00018603CF0EDF82B68114AB3F57A7F106028
:1080D000EEDA20680B4C26F0A7F82B680A492060DE
:1080E0005A1C41F823002A6038BD206821F006FFA1
:1080F00026F09EFDCCE700BF080601201CE2002010
:108100001CF500202CF500207CE500200406012051
:10811000E40101202DE9F047054680682F6860B131
:10812000284C3B6802685B68AA60A3422AD13CF0F5
:10813000F9F8A8680028F4D12F682B8E05F10C09F6
:108140003BB30026EB6ADFF87C80B2460BE03CF0E4
:10815000E9F8EB6AC4F800A0298EC4F804A001363F
:10816000B2B2914216D9B4B203EBC40461680846B6
:108170000029EFD03B685B684345E8D03846984714
:10818000EB6AE7E7014638469847A8680028C8D157
:10819000D2E7EB6A00214FF6FF7299452986AA863D
:1081A00007D03A68074952688A4205D118463CF020
:1081B000B9F82846BDE8F087384619469047284662
:1081C000BDE8F087117602002DE9F047038E814665
:1081D000054659F80CABFBB10026C36ADFF8A08056
:1081E000374609E03CF09EF8EB6A2760298E67600D
:1081F0000136B2B2914210D9B4B203EBC404616843
:1082000008460029F1D0DAF800305B684345E9D030
:1082100050469847EB6AE8E7C36A00214FF6FF72C1
:1082200099452986AA860CD0DAF80020144C5268A9
:10823000A24221D118463CF075F80423C5F82C90D1
:108240006B86A8682E6800232B7158B10C4C3368DC
:1082500002685B68AA60A34206D13CF063F8A86894
:108260000028F4D1BDE8F087014630469847A86859
:108270000028ECD1BDE8F087194650469047DCE76E
:1082800011760200008830B44FF6FF74A0421AD075
:10829000CD6AC20905EBC20200F07F03506810EB03
:1082A000C30011D0C2880020D309A24205EBC3034A
:1082B00002F07F0100F1010006D05B6813EBC103FF
:1082C00002D0DA88F0E7002030BC70472DE9F04199
:1082D0008B8E4FF6FF72934282B00C46054616D045
:1082E000CA6AD90902EBC10203F07F01526832F871
:1082F0003100A08602EBC10200204FF6FF71107121
:1083000028462A60AB80D18002B0BDE8F081098E9A
:108310002768002932D1638E002B00F0858001236D
:10832000E66A5A4A23864FF480604FF080083B6823
:108330001B68934274D13BF0DBFF238EE76A7060C9
:10834000013B9BB207EBC30100284A6808BF4FF00E
:1083500000080020A6F80080708022B137F8336052
:10836000488886422ED8012100224FF6FF73284606
:1083700021712A60AB8002B0BDE8F081E66A4B1E35
:108380009BB206EBC30E3046DEF804202AB1BEF8DD
:1083900002C036F83380E0451CD8638E994223D062
:1083A0003A4A4B1C9BB2B3F5007F00EBC106238613
:1083B00015BF4FF480604FF47E704FF080084FF08F
:1083C0007F08B4E700EBC313441C9BB202EBC0026E
:1083D0004C8091E70CEBC3130CF101019BB202EB53
:1083E000CC02AEF8021087E7B3F5007FBBD004F1F2
:1083F0000C025B0096421FFA83F83B6816D02448B3
:108400009B6883424FEAC80135D1304647F0ECFD06
:108410000028A8D01D4A218EE062A4F83280C0E76F
:1084200001463846984788E7E66AE0E7174A1B683E
:10843000019293424FEAC80022D13BF059FF019AC2
:10844000002890D0D6F800C07168B368D6F80CE068
:10845000C0F80CE0C0F800C041608360D6F810C0DE
:108460007169B369D6F81CE0C0F81CE0C0F810C010
:1084700041618361CFE70A46384631469847C7E7EE
:10848000014638469847019ADAE700BF197602009C
:10849000097602002DE9F0418B8E4FF6FF72934270
:1084A00082B00C46054611D0CA6AD90902EBC10256
:1084B00003F07F01526832F83100A08602EBC1025E
:1084C00028462A60AB8002B0BDE8F081098E27689B
:1084D000002932D1638E002B00F085800123E66AEB
:1084E000594A23864FF480604FF080083B681B6830
:1084F000934274D13BF0FCFE238EE76A7060013B2F
:108500009BB207EBC30100284A6808BF4FF0000880
:108510000020A6F80080708022B137F833604888C8
:1085200086422ED8012100224FF6FF732846217182
:108530002A60AB8002B0BDE8F081E66A4B1E9BB2B8
:1085400006EBC30E3046DEF804202AB1BEF802C0A6
:1085500036F83380E0451CD8638E994223D03A4ADE
:108560004B1C9BB2B3F5007F00EBC106238615BF01
:108570004FF480604FF47E704FF080084FF07F081A
:10858000B4E700EBC313441C9BB202EBC0024C8067
:1085900096E70CEBC3130CF101019BB202EBCC028A
:1085A000AEF802108CE7B3F5007FBBD004F10C02EB
:1085B0005B0096421FFA83F83B6816D023489B68FD
:1085C00083424FEAC80135D1304647F00DFD0028FF
:1085D000A8D01D4A218EE062A4F83280C0E701468F
:1085E0003846984788E7E66AE0E7174A1B68019231
:1085F00093424FEAC80022D13BF07AFE019A00284C
:1086000090D0D6F800C07168B368D6F80CE0C0F816
:108610000CE0C0F800C041608360D6F810C07169FA
:10862000B369D6F81CE0C0F81CE0C0F810C0416186
:108630008361CFE70A46384631469847C7E7014687
:1086400038469847019ADAE719760200097602005F
:108650002DE9F04F958E4FF6FF739D4285B014467D
:108660000746884602F10C0B3BD0D36AEA0903EBBC
:10867000C20305F07F025E6836F83230A38606EB4F
:10868000C2064FF6FF73F380A28E00219A42317129
:10869000B1465CD0E36AD10903EBC10302F07F0A63
:1086A000596831F83A30A38601EBCA0100234FF62E
:1086B000FF700B71C880C8F80010F2807B8883427D
:1086C00000F08380E16AD80901EBC00103F07F0369
:1086D000496801EBC3034846DD807A8005B0BDE8F8
:1086E000F08F118E1568002975D1528E002A00F086
:1086F0001F810123E66AC24A23864FF480604FF04F
:1087000080092B681B68934240F00A813BF0F0FD22
:10871000258EE36A7060013DADB203EBC50200280F
:10872000516808BF4FF000090020A6F80090708043
:1087300029B133F835305688B34200F297804FF0B4
:10874000000901234846237105B0BDE8F08F208E53
:1087500023680193002862D1628E002A00F0EA802B
:108760000123D4F82CA0A64A23864FF480604FF052
:10877000800B019B1B681B68934240F0D5803BF047
:10878000B7FD228ED4F82CC0CAF80400013A92B288
:108790000CEBC2030028596808BF4FF0000B002003
:1087A000AAF800B0AAF802000029C8D03CF83200AC
:1087B000B3F802A05045C2D90AEBC2120AF1010077
:1087C00092B201EBCA01588070E748463D807A803A
:1087D00005B0BDE8F08FE36A4A1E92B203EBC20E09
:1087E0001846DEF804602EB1BEF802C033F83290AD
:1087F000E14543D8628E914254D0814A4B1C9BB2D2
:10880000B3F5007F00EBC106238615BF4FF48060EF
:108810004FF47E704FF080094FF07F0971E7E36AF3
:10882000421E92B203EBC20C9E46DCF804A0BAF1E1
:10883000000F06D0BCF80210029233F832208A42B0
:1088400026D8628E90424AD06D4A431C9BB2B3F543
:10885000007F0EEBC00A238615BF4FF480604FF4F3
:108860007E704FF0800B4FF07F0B82E706EBC51553
:10887000731CADB201EBC606538002E70CEBC215C8
:108880000CF10103ADB206EBCC06AEF80230F8E60F
:10889000029A4B1C01EBC21292B20AEBC101ACF876
:1088A000023003E7B2F5007F3FF449AF52009B4529
:1088B0001FFA82F940D02A685248966886424FEAE9
:1088C000C90140F09180184647F08EFB00283FF424
:1088D00036AF4B4A218EE062A4F832908EE7B2F5B3
:1088E000007F3FF42CAF52001FFA82FA019A9B4599
:1088F00011684AD0D1F808B0424A93454FEACA01FC
:1089000077D1184647F070FB8646BEF1000F3FF462
:1089100016AF3B4A208EC4F82CE0A4F832A094E7AE
:10892000014628469847F3E601460198984728E70C
:10893000E36ABBE7E36AD6E72968314A0E689642E4
:10894000CDE901324FEAC9005ED13BF0D1FCDDE94F
:10895000013200283FF4F3AED3F800C05E68996896
:10896000D3F80CE0C0F80CE0C0F800C046608160AD
:10897000D3F810C05E699969D3F81CE0C0F81CE018
:10898000C0F810C046618161A4E71D4AD1F800B06B
:108990009345CDE902324FEACA003BD13BF0A8FC37
:1089A000DDE902328646BEF1000F3FF4C8AE18681A
:1089B0005968D3F808B0D3F80CC0CEF80CC0CEF884
:1089C0000000CEF80410CEF808B018695969D3F841
:1089D00018B0D3F81CC0CEF81CC0CEF81000CEF8EA
:1089E0001410CEF818B095E70A4628461946B04745
:1089F0006CE70A4601981946D847864685E700BFC6
:108A0000197602000976020001462846B047DDE9E2
:108A100001329EE701460198D847DDE902328646D9
:108A2000C1E700BF2DE9F84307464068BD68032D44
:108A3000884600F1080613D85FFA85FC002D77D030
:108A40000CF1FF3456FA84F4C31D002213F8011F01
:108A5000002908BF42F00102A342F7D1002A40D00A
:108A600000237355D7F80090BE68D9F80830A3B139
:108A700006F1070C8444DA8896420BD13EB3C21D3E
:108A8000DC1D01E0944522D012F8011F14F8015FAB
:108A9000A942F7D01B68002BEDD1B6F5803F7D6869
:108AA000D9F8004034D2236828489B68834206F1F5
:108AB000090140D1284647F097FA034643B33A6884
:108AC000DE809168196000219360796002E09A88E5
:108AD00001329A800522C8F8003088F80420BDE8E9
:108AE000F883022388F80430037A88F80030BCF158
:108AF000010F08D0437A88F80130BCF1020F02D090
:108B0000837A88F80230002308F80530BDE8F8833E
:108B100023680F4A5B68934213D029462046984742
:108B20003A6800239268012189F804101A60FFDE78
:108B300002230B71E7E70A46204629469847034679
:108B4000BCE728463BF0EEFBEAE700BF09760200EF
:108B5000117602002DE9F04745684DB18368EA8837
:108B6000934204460E4605D01D440133A3602E7285
:108B7000BDE8F0875B00D0F800905F1CB7F5803F40
:108B8000D9F8008012D2D8F800201549D2F808A0F0
:108B90008A4503F10A021CD11146284647F024FAFF
:108BA00020B1C780A36860600546DDE7D8F80030D3
:108BB0000C4A5B68934208D128463BF0B3FB012284
:108BC000002389F804206360D2E72946404698478D
:108BD000F5E729464046D0470028E2D1E6E700BF46
:108BE000097602001176020003792DE9F0470C4660
:108BF000D907054637D4DA0624D413F0600F1DD008
:108C00002E884FF6FF77BE4215D0E36AF20903EBD8
:108C1000C20306F07F09D3F8048008EBC900B2460E
:108C2000C6882146FFF7E0FFA38E28F83930BE4200
:108C3000A4F834A0E9D14FF0FF332B6000232B714F
:108C4000BDE8F0872A884FF6FF718A4237D0E16A83
:108C5000A68ED00901EBC00102F07F00496821F81F
:108C60003060A286C9E7A0682A6826680028C2D0BA
:108C7000824216D0014600680028BCD08242F9D159
:108C80008288013A92B28280002AB4D103680B60D4
:108C900033680C4A5B6893420CD13BF043FB2B7961
:108CA000A9E78288013A92B28280002AA3D10368A0
:108CB000A360EDE70146304698472B799BE70023F8
:108CC0001B80FFDE117602002DE9F04F0E46097879
:108CD00085B02B29009000F0FD802D2940F0B88050
:108CE0007178012001900644A1F13000C0B209283A
:108CF00000F2B680DFF8F893C0B20021002400250E
:108D00004FF0993816F801BF2418ABF13007FFB2C5
:108D100041EB05054FEA850E092F6FEA07024FF078
:108D2000FF334FEA840C4EEA947EF8B24FF0000114
:108D300000F21E81A94508BFA0450BD31CEB040C13
:108D40004EEB050E1CEB0C044EEB0E05AB4208BFC0
:108D5000A242D7D24FF0000A0023204629460A2219
:108D600045F082FFA946A0461FFA8AF3B9F5200F05
:108D700003F1010A08BFB8F1000F04460D460FFACF
:108D80008AFAE9D2092F0BD802339B1B06EB030AA0
:108D900016F801BFABF13002092A0FFA8AFAF5D9A9
:108DA000BBF12E0F00F0B6800BF0DF03452B60D037
:108DB000BBF1000F56D10AF126034C2B00F2FC80C8
:108DC000002D08BFB4F5000F80F0F68007EE904A42
:108DD000BAF1000FF8EEE77A40F36481BC4B1AF069
:108DE000010F1CBF93ED007A67EE877A5FEA6A0293
:108DF00023D0D00744BF93ED017A67EE877A5FEA0C
:108E0000AA021AD0D10744BF93ED027A67EE877A9F
:108E10005FEAEA0211D0D20744BF93ED037A67EE0E
:108E2000877A5FEA2A1A08D0BAF1010F0CBF93EDD6
:108E3000047A93ED057A67EE877A019B0BB1F1EE28
:108E4000677A009A0123C2ED027A137010460DE092
:108E500000200190A1F13000C0B209287FF64AAF8E
:108E60002E2953D0009A00231370104605B0BDE898
:108E7000F08F96F801B0BBF12D0F36D0BBF12B0F60
:108E800000F0F080ABF13003DAB2092A06F10106F6
:108E90008ED80AEB0302B2F59A7F00F3D780002741
:108EA00006E002EB400303EB0A02B2F59A7F79DC9D
:108EB00016F801BFABF13002D1B2092903EB8300F0
:108EC000EFD9002F40F0C7809A44BBF1000F3FF468
:108ED00072AFC7E7717800200190A1F13000C0B2F5
:108EE000092806F10106BBD804E796F802B0ABF1F9
:108EF0003003DAB2092A06F102063FF659AF0AEB4F
:108F00000302B2F59A7F4FDC0127D1E70024002548
:108F10004FF0000A96F801B0ABF13000C0B209285A
:108F200006F101063FF640AF6A4B4FF099329D4281
:108F30004FEA850108BF94424FEA840741EA9471E1
:108F40000ED23F1945EB010117EB070841EB010970
:108F50000AF1FF3A18EB00040FFA8AFA49F100050A
:108F600016F801BFABF13000C0B20928DFD91BE70A
:108F7000BBF1000F40F0D280019B8BB1B5F1004FE7
:108F800008BF012CBFF4E6AE644265EB4505022341
:108F9000009A1046C2E90245137005B0BDE8F08F93
:108FA0000323F5E7002F51D000994FF00042012331
:108FB00008468A600B7059E72046294645F078F943
:108FC000BAF1000F79DD444C1AF0010F7AD15FEA53
:108FD0006A032DD0DF0700F18D805FEAAA0327D056
:108FE000DE0700F18C805FEAEA0321D0DD0700F1A3
:108FF0008B805FEA2A131BD0DA0700F18A805FEAD0
:109000006A1315D0DB073ED45FEAAA1310D0DF073E
:109010003ED45FEAEA130BD0DE073ED45FEA2A2390
:1090200006D0DD0744D45FEA5A231CBF2B49002039
:10903000019B13B101F100431946009A0423C2E9D0
:1090400002011046137005B0BDE8F08F019B0020AF
:10905000BBB12349F1E7AAEB030ABBF1000F3FF4D0
:10906000AAAEFFE696F802B0ABF13003DAB2092AF5
:1090700006F102067FF60DAFBBF1000F3FF49BAE89
:10908000F0E61849D9E7D4E90A2345F047F9BBE7E8
:10909000D4E90C2345F042F9BBE7D4E90E2345F0AF
:1090A0003DF9BBE7CAF1000A3FF4C7AE0E4B96E6A6
:1090B000D4E9102345F032F9B5E7CAF1000AB7D078
:1090C0000A4C81E7D4E9002345F028F97FE700BF87
:1090D000C04D070099990100204E07000000F87F5D
:1090E0000000F0FF0000F07FA84D0700D84D0700FA
:1090F00099999919D4E9022345F010F96DE7D4E95B
:10910000042345F00BF96EE7D4E9062345F006F990
:109110006FE7D4E9082345F001F970E7B5F5801F42
:1091200008BF002CBFF416AE4FF0000A38E600BFAF
:1091300010B5064C206838B120F0E4FE20B120685C
:10914000BDE8104020F0DABE002010BD1CE2002077
:1091500070B5584B584D93F8322093F8300093F87F
:109160002F1093F8314094B0049293F82E20CDE95B
:109170000204CDE9002106A8504A9B8D182146F033
:109180004BFF2A68002A3DD04D4B4E4918780028E5
:1091900008BF0B46002106ACCDE910114A480C94DB
:1091A0000E934A4C4A4B13910D9412900F93104614
:1091B00025F03EF82C681090002C50D0204625F069
:1091C000A5F82A68434C444B1190002A08BF1C465E
:1091D000424A434B126800924FF480610CAA414806
:1091E000139412F0EDFC00213F4826F0B5FA3D49FA
:1091F0003D484FF4806226F079FC3B4826F012FC93
:1092000014B070BD394C2068002837D020F04EFED5
:10921000374E03462068002B18BF1E4620F076FE0E
:10922000002306A92A680C91CDE91033274913932E
:10923000254B0E960F900D911293002AB7D12068FE
:1092400000282CD020F05EFE48BB206820F044FEB1
:1092500028B323F0BBFF2C681090002CAED1234E16
:10926000306818B320F04EFEB0B9306820F034FEFC
:10927000044688B124F00CF82A68A3E706AB1C4A20
:109280000C931C4B114E10491090CDE90E231190F8
:1092900013900D961291D2E72A68204692E7FFF7C5
:1092A00047FF002886D025F0C5FC83E70A4C1190C3
:1092B0008EE700BFF0E4002008060120A43A070072
:1092C000F40501209C3A07007C6200209C6200208B
:1092D00090E00020943A07008C3A07001CF500202B
:1092E0007CE500209CC8002038E200201CE2002021
:1092F0007C3A07008C650700114B186808B124F010
:109300009FBF10B50F4C2068B8B120F0FBFD38B9F5
:10931000206820F0E1FD18B1BDE8104023F036BF11
:10932000206850B120F0EEFD38B1206820F0E6FD55
:1093300018B1BDE8104025F05FBC002010BD00BF93
:10934000080601201CE20020114B186808B124F027
:109350007BBF10B50F4C2068B8B120F0D3FD38B9F1
:10936000206820F0B9FD18B1BDE8104023F012BF0D
:10937000206850B120F0C6FD38B1206820F0BEFD55
:1093800018B1BDE8104025F03BBC002010BD00BF67
:10939000080601201CE20020114B186808B124F0D7
:1093A00029BF10B50F4C2068B8B120F0ABFD38B91B
:1093B000206820F091FD18B1BDE8104023F014BFE3
:1093C000206850B120F09EFD38B1206820F096FD55
:1093D00018B1BDE8104025F017BC002010BD00BF3B
:1093E000080601201CE200202DE9F041604B1968BD
:1093F00000298AB02DDD5F4B0093012929D003F1AC
:10940000A8020229019224D003F5A872032902922E
:109410001FD003F5FC72042903921AD003F52872B9
:109420000529049215D003F552720629059210D031
:1094300003F57C72072906920BD003F59362082985
:10944000079206D003F5A863092908931CBFA83327
:109450000993684614F038F9061E5BDB464FA823D3
:1094600003FB067393F89040002C4FD0434C2068C8
:1094700018B13DF067FA00232360414D286818B108
:109480003DF060FA00232B604FF44F503DF056FA48
:109490003C4BA82404FB067493ED000B002180468E
:1094A00023F01EFF94ED063B94ED042B94ED021B7C
:1094B00094ED000B4046C5F8008024F07FFC94ED4D
:1094C000223B94ED202B94ED1E1B94ED1C0B286881
:1094D00024F0EEFC94F84030002B3DD1A82303FB90
:1094E000067393F868205ABB286824F065FE286844
:1094F00024F050FE20B1286824F050FE044670B9D4
:10950000286808B13DF01EFA00242C6020460AB0FD
:10951000BDE8F081002420460AB0BDE8F0811A4D74
:109520001A49C6EB0616314428460E2246F081FE43
:10953000174A00232046AB7313600AB0BDE8F081E0
:1095400093ED183B93ED162B93ED141B93ED120B3B
:10955000286824F0A3FDC7E794ED0E3B94ED0C2B97
:1095600094ED0A1B94ED080B286824F01DFDB5E767
:10957000D801012059070120C80601201CE2002063
:109580000806012018620020F40501201C39012082
:109590000406012070B5274D274C2B78002B3FD0B7
:1095A000237C002B3AD1254C3CF07EFF2068012122
:1095B00013F06EFF08B100232360214E3CF07EFFC4
:1095C000204B306800241C702C7010B13DF0BAF9AB
:1095D00034601D4C206818B13DF0B4F900232360BD
:1095E0001A4A1B481B4B1C491C4D1D4E002414607D
:1095F00004701C4A1C481C701C4B0C702C601460BE
:10960000046021461A4834704FF0FF354FF47A62F7
:109610001D6045F00BFE174B1C6070BDFFF798FDF9
:10962000237C002BBFD0144826F0FCF9124825F00B
:1096300005FCB8E7E205012028E2002020E2002036
:109640001CE2002040E3002008060120040601205F
:109650005C060120E101012078E5002074E500208E
:10966000F40501201CF500202CF5002024620020C8
:109670007CE500205806012038E2002008B5214B87
:109680001B785BB3204B1B78042B02D11F4B1B783C
:1096900023B33AF005FE1E4A1E4B1268801A984208
:1096A0001CD91D4B1B681BB11C4B1B68002B16DC07
:1096B0001B4B93ED007AF0EE007AB4EEE77AF1EE10
:1096C00010FA0CDA174B1A787AB13AF0E9FD164B1A
:1096D0001A684EF65F23801A98420DD808BD1149CA
:1096E000114A00230B70136008BD01221A703AF072
:1096F000D7FD0D4B186008BDFFF74CFFBDE80840D3
:10970000FEF760BAE101012000C400203DE5002021
:10971000E40101201FBF02000806012010060120FD
:1097200070E5002078E5002074E5002038B5334D61
:109730002B68013344D1324B1B78002B40D1314B85
:1097400031491B68314A9B680C681268304992683D
:109750000868191B0029C8BF1C46111B8368002913
:10976000C8BF14461A1B002AC8BF1C463AF098FD11
:1097700040F6B733001B984222D9264B1B68B3F53D
:10978000FA7F1EDC244B93ED007AF2EE047AB4EEFD
:10979000E77AF1EE10FA13DB204A21490123137016
:1097A0000B703AF07DFD1F4B1F4A1B681060B3B170
:1097B00005231E4A2B60136803F59C53083313607E
:1097C00038BD164A1649012313700B703AF068FD34
:1097D000144B154A1B68106043B10623E9E7144B8C
:1097E0001B68002BE4D1FEF75FF8E1E7104B1B6824
:1097F000002BF2D1FEF758F8EFE700BF20620020FF
:10980000E4E00020E060002060FF0020E460002031
:10981000E86000201006012070E5002040E30020F1
:10982000E10101201CE20020E4010120B4E200205B
:109830000806012030B5374C23680F33042B87B05E
:1098400001D907B030BD3AF02BFD334D0146284613
:1098500011F00EFE0028F4D0304A314B126819681E
:109860008A4204D02F4991F8280000282FD13AF0DD
:1098700017FD0146284811F0FBFD0128E1D03AF020
:109880000FFD0146244811F023FE2A78042A11D83E
:1098900021686FF00A039B1A8B4232D0224A0021C2
:1098A0001160224A2360136803F59C530833136048
:1098B00007B030BD2368013323D01B4B00221A6050
:1098C0003AF0EEFC1A4A4FF0FF331060E9E791EDF1
:1098D000000B91ED021B91ED082A1A608DED040B2F
:1098E0008DED001B8DED032A3AF0DAFC9DED001B97
:1098F00001469DED040B9DED032A284611F074FDF1
:10990000B5E70A4A136803F59C530833136007B0A0
:1099100030BD00BF206200201861002040E500201B
:1099200008E20020F0E400206CFF0020B4E20020F8
:1099300060FF002070B51C4D8AB0002428460894B2
:10994000CDE90244CDE90444CDE90644CDF82340F5
:109950002EF002F90246284601922EF0FFF81F264B
:10996000019A014602A845F039FC02A93246284670
:109970002EF0F6F83C352146324602A845F056FC5A
:1099800028462EF0E9F8019028462EF0E7F8019AD3
:10999000014602A845F022FC324602A928462EF0D4
:1099A000DFF80AB070BD00BF0C510120284B294AD6
:1099B000294870B5C3F800261EF096FE0021042049
:1099C0003DF04CFF01210520244D3DF047FF0924C7
:1099D00045F00105002105203DF0C4FF4FF4A070C3
:1099E000A847012105203DF0BDFF4FF4A070A84716
:1099F000013CEFD1012104203DF030FF214604203D
:109A00003DF0B0FF4FF4A070A847012105203DF0C4
:109A1000A9FF4FF4A070A8470D4C0E4E0121042061
:109A20003DF0A0FF4FF4A070A8470B48C4F80066B3
:109A30001EF0E0FD0A4908481EF038FE0948C4F847
:109A4000006601223C2133F039FBC4F8006670BD8A
:109A5000000001403546526EEC390120505307009A
:109A6000801A06005CE200202DE9F047544E554D67
:109A70003768D7F8008040463DF092FF034645F036
:109A8000010503244FF4FA405BB9012C74D0A847B8
:109A900040463DF085FF0346013C4FF4FA40002B61
:109AA000F3D001237B71484F464DD7F80080D8F89A
:109AB000009048463DF074FF034645F0010503243D
:109AC0004FF4FA405BB9012C66D0A84748463DF0F8
:109AD00067FF0346013C4FF4FA40002BF3D001230B
:109AE00088F80530DFF8EC90364DD9F80080D8F8CA
:109AF00000A050463DF054FF034645F00105032405
:109B00004FF4FA405BB9012C22D0A84750463DF0F3
:109B100047FF0346013C4FF4FA40002BF3D00123EA
:109B200088F8053033681B793BB1284A136803F580
:109B30009C5308331360BDE8F0873B681B79002B0A
:109B4000F3D1D9F800301B79002BEED1BDE8F087B6
:109B50003AF0A6FB98F80530002BE3D01C4BD8F860
:109B600008201B68801A9842DCD33AF099FBA8F8C9
:109B70000440C8F80800D5E73AF092FB7B79002B47
:109B800091D0134BBA681B68801A98428BD33AF075
:109B900087FBBC80B86086E73AF082FB98F8053016
:109BA000002B9FD00A4BD8F808201B68801A9842D7
:109BB00098D33AF075FBA8F80440C8F8080091E77C
:109BC000E060002050530700E4600020B4E2002071
:109BD000D4600020E8600020424B1B682DE9F04172
:109BE0001E68414D30463DF0DBFE034645F0010561
:109BF00003244FF4FA405BB9012C0BD0A847304640
:109C00003DF0CEFE0346013C4FF4FA40002BF3D06A
:109C1000002600E02646354B334D1B681F6838464A
:109C20003DF0BEFE034645F0010503244FF4FA4023
:109C30005BB9012C0BD0A84738463DF0B1FE034676
:109C4000013C4FF4FA40002BF3D0002500E02546FC
:109C5000274B254F1B68D3F8008040463DF0A0FEFF
:109C6000034647F0010703244FF4FA405BB9012C87
:109C70000AD0B84740463DF093FE0346013C4FF4FE
:109C8000FA40002BF3D000249EB11A4E3378DBB19A
:109C900065B1194D2B78F3B124B1184C23785BB121
:109CA000BDE8F081154B1C70BDE8F081124B1D70B2
:109CB000F2E7104B1E70EBE73AF0F2FA104A01237C
:109CC00010602370BDE8F0813AF0EAFA0D4A0123F2
:109CD00010603370DCE73AF0E3FA0B4A01231060BE
:109CE0002B70D9E7E060002050530700E4600020AB
:109CF000E8600020E5E10020ECE10020F4E1002034
:109D0000F8E10020E8E10020F0E1002038B50F4A3A
:109D10000F4B126819688A4215D00E491A60002349
:109D20000B6001220C4C0D4B204600251A70E57685
:109D300032F02EFF2046012132F056FC4FF0011385
:109D4000C4E9045338BD0022ECE700BF20620020C4
:109D500034F500206CFF00205CE20020E8010120C7
:109D600038B504460130094D07D0094A2C60136804
:109D700003F59C530833136038BD2B680133F4D0CE
:109D80003AF08EFA034B1860EFE700BF2062002024
:109D9000B4E2002060FF00201A4A13680E2B28D07E
:109DA0000D2B15D0083312D0174B184993ED007ABC
:109DB0000B68F1EE047AB4EEE77AF1EE10FA03F5EF
:109DC0009C5394BF0B200A20083310600B6070472F
:109DD0000F4B10491A680B68013A9A420B4A14BF9C
:109DE000013300230B60136803F59C5308331360A1
:109DF000704706490B6803F59C5308335A200B60E3
:109E0000106070472062002070E50020B4E200205E
:109E10007062002024E200200378462B01D000204D
:109E2000704710B54378572B044627D114490822B0
:109E300046F0EDF908B9012010BD1249062220466E
:109E400046F0E5F90028F6D00F49204646F0B4F96F
:109E50000028F0D00D49204646F0AEF90028EAD09F
:109E60000B49204646F0A8F90028E4D009492046CD
:109E700046F0A2F9B0FA80F0400910BD002010BDF4
:109E8000C43A0700D03A0700D83A0700E03A070082
:109E9000E83A0700F03A07002DE9F04362498DB037
:109EA0000822044646F0B3F900284CD15F4F3B78B6
:109EB00003F0FF06002B51D1083420462C2146F038
:109EC0006EF900284AD000F1010948462C2146F0DD
:109ED00066F90546002841D020460A22314647F05F
:109EE00063F9A5EB0903082B80464AD1D9F8000095
:109EF000D9F8041002AB03C302A801A98DF81060C1
:109F000011F062FD00283CD008F1FF33B3F5CC2FEF
:109F100056D26878013590B1DFF85C91732647F02E
:109F20004DF90446304647F049F9844207D115F807
:109F3000010F00285DD019F8016B002EEFD13C48CD
:109F4000FDF738FB0DE03B490622204646F05FF95D
:109F500050B9364B1B78012BDDB218D03648FDF7CF
:109F600029FB0DB0BDE8F0833449204646F024F9C2
:109F7000C8B92E4B1B78022BF0D1314B01221A703D
:109F8000EFE73048FDF716FB0DB0BDE8F083014662
:109F90000A22A01D47F008F92B4B1B6883420FD102
:109FA0002A4B1D70DDE72A49204646F005F968B9BD
:109FB0001E4B1B78032BD1D1264B01221A70D0E700
:109FC0002548FDF7F7FA0DB0BDE8F0832349204698
:109FD00046F0F2F848B12249204646F0EDF8002854
:109FE000BFD1204B01221A70BBE71F4B01221A7010
:109FF000B7E799F80030002BA1D1134B1B4A019809
:10A00000C3F8008005A901233B70106011F0A6FC85
:10A01000174A05AB08A8102145F0FEFF08A982B237
:10A0200014482EF0CDFB9CE7C43A0700A5B30020EE
:10A030000C3B0700D03A0700F83A0700D83A07006F
:10A04000DD6B0020003B0700FC6C0020456B00200E
:10A05000E03A0700FB6C0020043B0700E83A0700E9
:10A06000F03A0700446B0020FA6C0020E46B0020FB
:10A07000143B070098E40020213B0700000000008B
:10A0800083490978012900D070472DE9F0411C4629
:10A090009CB0804B1546CEB2412200210BA81E7009
:10A0A00045F0C4F8402C2246294628BF40220BA880
:10A0B00045F094F80BA846F0A2F8431E70B10BAA25
:10A0C000754F1A4412F801190A39C9B227FA01F07A
:10A0D00016296FEA000003F1FF3310D96F4F3B7868
:10A0E000BBB16F490BA8052246F091F860BB062C66
:10A0F0002AD86C4B01221A701CB0BDE8F08110F018
:10A100000100EBD1591C5070DCD1644F3B78002B1F
:10A11000E7D1DFF8E88198F80030022B73D0402CAB
:10A1200000F28280604904220BA846F070F8B0B9B2
:10A130005E4C237803F0FF05002B4BD05C495D4853
:10A1400004222EF03DFBD7E75B4E338814FA83F3ED
:10A15000B3F5805F49DD594B01221A70CCE75849AD
:10A1600004220BA846F053F8D8B1564907220BA891
:10A1700046F04DF8002840F0C7809DF83330202B82
:10A180000DF1330003D110F8013F202BFBD0182133
:10A1900012F006F898B94C494C4809222EF010FBF1
:10A1A000AAE79DF83030202B0CA803D110F8013F0E
:10A1B000202BFBD0182111F0F3FF002834D03B4CAA
:10A1C000237803F0FF052BB13949404804222EF0D3
:10A1D000F7FA91E73E4B40220BA9184646F029F8C2
:10A1E000012280F84050227086E73A4B3088294699
:10A1F00013FA80F0224644F0F1FF338814FA83F317
:10A200009BB2338078E7082C14D833490BA845F06B
:10A21000D3FF20B131490BA845F0CEFF50B92146FC
:10A220000BA8FFF739FE67E72D49284805222EF0D5
:10A23000C7FA61E798F80030022B7FF45DAF294B35
:10A240001A7802F0FF00002A7FF456AFDFF8B080E2
:10A25000254AD8F8007012682744974200F2C4805B
:10A26000224A234ED2F800C0318814FA81F1B1F5A8
:10A27000805F40F2BF80DFF88CC0DCF80010013155
:10A2800000F0CA801B4A1C49116001221A7033E792
:10A2900028E10020969000200900400090800020D6
:10A2A000283B0700DD920020403B0700F96C0020AE
:10A2B00024400700D0E30020949000203380002049
:10A2C000483B0700503B0700583B070098E400203C
:10A2D0009C6B002094800020D83A0700E83A0700E1
:10A2E000383B0700A4B30020FC6C002040C40020D1
:10A2F00044C40020E06B0020303B0700A5B30020E1
:10A30000207D0020B8600020A7490BA845F054FF2D
:10A3100000285CD0A54905220BA845F078FF00284D
:10A3200055D0A34905220BA845F071FF00284ED057
:10A33000A0490BA845F040FF002848D09E490BA833
:10A3400045F03AFF00287AD09C490BA845F034FF2D
:10A35000002874D09A4905220BA845F058FF002820
:10A3600000F0AA80974906220BA845F050FF00286C
:10A3700000F0A280944905220BA845F048FF002870
:10A3800000F0CD80914906220BA845F040FF00283F
:10A3900000F0C5808E4905220BA845F038FF002843
:10A3A00000F09D808B4906220BA845F030FF002865
:10A3B00000F0958088490BA845F0FEFE00284BD0A0
:10A3C0000BA8FFF729FD00283FF496AE27E7834C42
:10A3D000237803F0FF050BB9814BFCE681498248E5
:10A3E00005222EF0EDF987E6804A814911600122AD
:10A3F0001A7081E67F4B03EB0C333088294613FA41
:10A4000080F0224644F0EAFE3388C8F8007014FA5F
:10A4100083F39BB233806FE63188DFF818E2754B27
:10A4200089B2AEF800101168CCF80010116881F004
:10A43000010111603080126803EB0233DDE76E4CDE
:10A44000237803F0FF05002B3FF4C4AE6B49664848
:10A4500009222EF0B5F94FE6694B186843F006FF64
:10A4600003AE04460D4645EC104B32460221042053
:10A4700039F000FF48A3D3E900232046294643F0E2
:10A4800095FD47A3D3E9002343F048FF44F0F6F9D4
:10A490006428A8BF642020EAE0735A4A0096182175
:10A4A00005A845F0B9FD05A845F0A9FE05A982B2A9
:10A4B0004D482EF085F91FE69DF82D30532B0CBF2B
:10A4C000062005200BAB1844182111F069FE002866
:10A4D000B5D14D4944480D222EF072F90CE64B4D92
:10A4E0002B7803F0FF07002BB0D19DF82D30532BB4
:10A4F0003ED00DF131042046182111F051FE002804
:10A50000E7D021463E46424B424C18221846267060
:10A5100045F08FFE0021012201762A70ECE53B78A0
:10A52000002B93D13C4B1D78002D8FD19DF82D3001
:10A53000532B27D00DF131042046182111F030FEA5
:10A540000028C6D021462E46344C354B354D1E7062
:10A550001822204645F06DFE334E3448344900231E
:10A560000122338023762B7003700A703A70C3E5A2
:10A570000DF132042046182111F012FE0028A8D057
:10A580002146C0E70DF132042046182111F008FEE3
:10A5900000289ED02146D7E76666666666660A4052
:10A5A000721CC7711CC75B40643B07006C3B070013
:10A5B000743B07007C3B07008C3B0700943B070083
:10A5C000A83B0700B03B0700C83B0700D03B070093
:10A5D000D83B0700E03B0700E83B07009E900020C7
:10A5E00044800020843B070098E40020E06B0020BA
:10A5F000043B0700FC920020F96C00209C3B070004
:10A6000024F50020F03B0700B83B0700A092002093
:10A61000C4920020287D002029E10020E092002043
:10A62000297D00203380002094900020DD920020BE
:10A6300034800020386B0020124B13490122002087
:10A6400030B45A600325DA600424C3F8040541F2EB
:10A650008830C3F80855C3F810454FF48035C3F867
:10A66000400560244FF08060C3F80022C3F8045313
:10A6700081F81A43C1F880010860044930BC0A70AF
:10A680001A60704700A0014000E100E0116D002059
:10A6900070B5304C304D314882B011F0A7FD40F21A
:10A6A0004C43032201212E48C4F800561DF04EF9F8
:10A6B0002C4BC4F8005640F24C461978284840F21A
:10A6C0004C4303221DF0DCFE3346032204212448C0
:10A6D000C4F800561DF00EFAC4F8005603230022F9
:10A6E00001211F4800961DF047FAC4F800560323C5
:10A6F000012200211A4800961DF03EFAC4F80056C7
:10A70000032302220021164800961DF035FA032388
:10A710001A46C4F800560021114800961DF02CFA84
:10A72000C4F80056032300210D48009606221DF0B0
:10A7300023FA0D4BC4F80056197809B102B070BD68
:10A740003346032206481DF03BFDC4F8005602B014
:10A7500070BD00BF000001403546526E006D002004
:10A7600070FF00202C6200202D620020104A114B47
:10A77000114810B50021114C11704FF47A62196024
:10A78000216044F053FD0E48037C6BB90D4C3BF047
:10A790008BFE2068022112F07BFE08B100232360AB
:10A7A000BDE810403BF08ABE103024F047FBEDE7D7
:10A7B000E00501202CF500207CE500201CF50020A0
:10A7C000EC01012020E200202DE9F0430024BDB07F
:10A7D000374B049401464FF47A75224607A8ADF82A
:10A7E0001C408DF81E400595039324F065FD20B9AB
:10A7F000002528463DB0BDE8F0832E494FF4806225
:10A8000007A824F0B9FD064607A824F017FBB6F503
:10A81000806FEDDB284E009502A901912548029436
:10A82000334610AA4FF4806111F092FA05460028D1
:10A83000DFD0224BDFF89880214FDFF8989010A9E5
:10A840001846172245F0F5FC03461F22404616A97C
:10A85000DC7545F0EEFC88F81F403846DFF878805C
:10A860001F221EA945F0E5FCFC770F22154F26A9F3
:10A87000484645F0DEFC0F222AA9404689F80F40E1
:10A8800045F0D7FC0F2238462EA988F80F4045F036
:10A89000D0FC029A0C4BFC731A6012B1013A56F8C4
:10A8A00022200A4B28461A603DB0BDE8F08300BF65
:10A8B000404D07009CC400207CE50020E8E2002019
:10A8C000C8E2002020E300201CF500202CF5002029
:10A8D00000E3002030E30020B8E2002070B50C4E09
:10A8E00005463BF0E1FD3068294612F0B9FD04460B
:10A8F00020B93BF0E3FD3368204670BD294630683F
:10A9000012F0BEFD30603BF0D9FD204670BD00BFA7
:10A9100020E2002030B5254B1C788BB004BB0546E7
:10A920000320FFF7DBFFD8B12149ADF8044001A8AF
:10A9300023462A468DF8064024F0B6FCB8B11C49DF
:10A94000ADF804402A46012301A88DF8064024F002
:10A95000ABFCF8B91749184807222DF031FF0BE07E
:10A960001649154804222DF02BFF0BB030BD1449B9
:10A97000114809222DF024FF124C3BF095FD206870
:10A98000032112F085FD08B1002323603BF096FD02
:10A990000BB030BD01A825F0DFFD0028DAD00A4950
:10A9A000054807222DF00CFFE6E700BF29E1002053
:10A9B00050660020FC3B070098E40020244007007C
:10A9C000583B070020E20020043C070010B5084C6B
:10A9D00082B001903BF068FD2068019912F058FDAB
:10A9E00008B10023236002B0BDE810403BF066BD13
:10A9F00020E20020F8B51649164C174A174F184E9A
:10AA0000184D194800233B70337023700B70174C9E
:10AA100013701749174A2B70174D236013600B8072
:10AA2000164C1749027C2B604FF0FF3525600B80D8
:10AA30004AB9144C237803B9F8BD0320FFF7C6FFC9
:10AA400000232370F8BD103024F0F8F9F1E700BFBF
:10AA5000FB6C0020DD6B0020FA6C0020A5B3002009
:10AA6000456B0020A4B3002020B3002040C4002088
:10AA700044C40020E06B0020207D0020B86000204E
:10AA8000386B0020FEB3002008B5082209490A48A7
:10AA90002DF096FEFFF7AEFFC82039F00DFCFF2128
:10AAA0000020FCF727FC57210020FCF721FCFCF7D5
:10AAB00009FC00BF0C3C070098E400202DE9F0439E
:10AAC000394B3A4E3A491C683A4B3B4F0128BDB0CE
:10AAD0000ABF374688469846002C4CD105460320CD
:10AAE000FFF7FCFE002846D0344B354A354E364938
:10AAF0000194012D18BF1A4604A823464FF47A7515
:10AB0000ADF810408DF812400295009624F0CCFB71
:10AB10009DF81030002B39D0DFF8B49002E011A876
:10AB200024F08CF9002204A911A8CDE90E45ADF856
:10AB300044408DF846400D9624F0DCFE9DF84430EC
:10AB40000BB313F0D00FEAD11AA9402211A826F0B6
:10AB500027F91AAB2AA83A46462145F05DFA431E6A
:10AB6000442BDCD882B22AA948462DF029FE0A20BF
:10AB700039F0A2FBD3E7154915480C222DF020FE31
:10AB80003DB0BDE8F08304A824F058F90320FFF796
:10AB90001DFF404645F033FB414682B20C482DF084
:10ABA0000FFE3DB0BDE8F08320E200202C3C070002
:10ABB000243C0700383C0700183C0700B84E07004B
:10ABC00018530700404D070050660020403C070026
:10ABD00098E400202DE9F0473F4F3C68ADF5287D13
:10ABE00024B90320FFF77AFE054640B93B493C48AB
:10ABF00004222DF0E5FD0DF5287DBDE8F087234604
:10AC00004FF47A7C374E384A3849049407A8ADF897
:10AC10001C408DF81E40CDF814C0039624F044FB70
:10AC20009DF81C40002C4BD0DFF8CC90DFF8CC8096
:10AC30002F4F02E014A824F001F900224FF47A7398
:10AC400007A914A8CDE91062ADF850208DF8522064
:10AC5000129324F04FFE9DF8504014B314F0D0042A
:10AC6000E8D10DF1740A51464FF4807214A826F011
:10AC700097F81B9A0192002D14BF4B4643463A4663
:10AC80004FF49671CDF800A05DA845F0C5F95DA917
:10AC900082B213482DF094FD0A2039F00DFB2546B1
:10ACA000C8E707A824F0CAF80320FFF78FFE114970
:10ACB0000B4803222DF084FD0DF5287DBDE8F087BB
:10ACC0003BF0F2FB3868032112F0E2FB00B13C607C
:10ACD0003BF0F4FB8AE700BF20E20020244007009D
:10ACE000D0E30020404D0700703A07005066002076
:10ACF000543C0700603C07008C650700503C07008F
:10AD0000F0B52E4E337C8FB00446002B51D103207A
:10AD1000FFF7E4FD002845D000272246284C2949AA
:10AD200001943B464FF47A7505AC05A8039502974C
:10AD3000ADF814708DF8167024F0B6FAA446BCE88D
:10AD40000F00214D029C74600FC5BCE80F000FC5B9
:10AD5000DDE90321337CDCF800002860C6E902212C
:10AD6000B3B11A48F36A1A4A1A49036001201760FE
:10AD70000870194A202101A845F04EF901A845F0B4
:10AD80003EFA01A982B215482DF01AFD0FB0F0BDB0
:10AD90000320FFF71BFE1249104805222DF010FD7D
:10ADA0000FB0F0BD0F490D4804222DF009FD0FB082
:10ADB000F0BD06F1100024F041F8A8E7E8E000201B
:10ADC000404D070050660020F8E000201CE1002004
:10ADD000E0E0002029E10020643C070098E4002026
:10ADE000383B0700244007002DE9F04F1F4C85B089
:10ADF00004F26C4980464F4604F2444BA2460325B8
:10AE000001AEFF220023CDF80880ADF804200393A3
:10AE100096E80E00384627F061FA94F87E3413481D
:10AE2000C4F8689401223946BBB926F06BFA60B1C8
:10AE3000584624F003F80E48514624F07FFA60B1DA
:10AE40000C4B1C6005B0BDE8F08F03460246394646
:10AE5000064826F057FA0028EAD1642039F02CFA87
:10AE6000013DCED1284605B0BDE8F08F50660020E8
:10AE7000946A0020643E012010B52048204A037CDB
:10AE8000002111705BBB1F4A1F4B002414701C7003
:10AE9000FFF7B0FD1D4A1E4B1E48147021461C7062
:10AEA0002CF098FE1C482FF073FEF8B919482CF0CE
:10AEB00057FF194800212FF041FE174800212FF0BD
:10AEC00041FE01210C203CF04DFD1449144A154867
:10AED0000023BDE810400B701370FFF785BF1030E2
:10AEE00023F0ACFF0320FFF771FDCCE70A482FF0F9
:10AEF00083FE014608482FF069FED7E7E8E000200E
:10AF0000DCE0002029E1002096900020F96C002070
:10AF10009E9000200C510120CC4A0120E4E000204A
:10AF200028E1002080841E00F0B5244D244F00232A
:10AF300087B028463B70FFF757FF044610B1204604
:10AF400007B0F0BD1F4E0495FF230590ADF80C30FF
:10AF500006F26C4506AB13E90E00284627F0BEF951
:10AF600096F87E34C6F86854002BE8D1D6F86C34D5
:10AF700028469B6998470028E1D0D6F868140191CB
:10AF800023460122304626F0BDF9019960B10E48F2
:10AF900023F054FF0B4901F2444024F0CFF950B1A3
:10AFA0000A4B04461E60CAE723462246304626F076
:10AFB000A9F90028EBD101233B70C0E780841E0073
:10AFC000E105012050660020946A0020643E0120C3
:10AFD00010B58AB000231A4A1A49ADF8043001A806
:10AFE0008DF8063024F060F960B90446ADF804002D
:10AFF000134A15498DF80640012301A824F02CF8C6
:10B00000044658B10023114A0E49ADF8043001A896
:10B010008DF8063024F048F9044610B120460AB0F5
:10B0200010BD0A4A0849ADF8044001A801238DF873
:10B03000064024F011F8012420460AB010BD00BFDC
:10B04000B84E070050660020946A0020185307008D
:10B050002DE9F04F3C4D3D4E95F800C016F80C30F0
:10B060008DB05BB302ABDFF8FCA0DFF8FC90DFF83B
:10B07000FC80DFF8FCB001930AEB0C130FCB019CB2
:10B0800019F80CE058F82C7084E80F008CF00100DF
:10B0900000232870714606AA2046CDE90633CDE983
:10B0A0000833CDE90A3306F80C3012F065FA58B9C6
:10B0B00095F800C016F80C30002BDDD1244B1B781E
:10B0C0002BBB0DB0BDE8F08F0DF1180EBEE80F00E0
:10B0D000DFF8A0C01F4CACE80F009EE803004CF85E
:10B0E000040B1D488CF8001001230370BDF82A10D2
:10B0F00027603A46584612F0D1FA95F800C016F883
:10B100000C30002BB8D1124B1B78002BD9D039F062
:10B11000C7F8114B1A78034692B9024647F22F51ED
:10B120008A42CED90D4C22689A1A8A42C9D90C4853
:10B1300023602EF0ADF8002109482EF087F8C0E713
:10B14000044A1268821AE9E71C6B0020FCB3002055
:10B1500036800020A0B30020F86C0020986B0020FF
:10B1600068510120FCB200201CB3002098B30020DD
:10B1700034C40020206B002070B5144C237813B920
:10B180009FED130A70BD134D2E6839F089F8014602
:10B19000304612F06DFA0028F2D023781BB90E4B1E
:10B1A00093ED000A70BD2C6839F07AF8014620460C
:10B1B00012F05EFA0028F2D039F072F80146074822
:10B1C00012F076FA0028EAD1DAE700BFF86C002026
:10B1D0000000C07FA0B30020206B002034C40020FA
:10B1E00070B5144C237813B99FED130A70BD134D3D
:10B1F0002E6839F055F80146304612F039FA002829
:10B20000F2D023781BB90E4B93ED010A70BD2C6868
:10B2100039F046F80146204612F02AFA0028F2D00A
:10B2200039F03EF80146074812F042FA0028EAD108
:10B23000DAE700BFF86C00200000C07FA0B3002058
:10B24000206B002034C4002070B5144C237813B94F
:10B250009FED130A70BD134D2E6839F021F8014699
:10B26000304612F005FA0028F2D023781BB90E4BB5
:10B2700093ED020A70BD2C6839F012F801462046A1
:10B2800012F0F6F90028F2D039F00AF80146074822
:10B2900012F00EFA0028EAD1DAE700BFF86C0020BD
:10B2A0000000C07FA0B30020206B002034C4002029
:10B2B0002DE9F04F9A4C9B4A94F828302DED0A8BDB
:10B2C0000021ADF5277D1170002B00F08980964D8F
:10B2D0002E68002E00F0E280944B94ED042A197839
:10B2E000D4ED052A94ED000B94ED021B002940F0EB
:10B2F000EC8030468DED121B8DED100BCDED152A37
:10B300008DED142A1EF0A8FA9DED121B9DED100B79
:10B31000DDED152A9DED142A28681EF0B1FB94F886
:10B320002830002B5CD0824B1B78002B46D0814B01
:10B330001B78002B42D0804E3378002B59D02069E7
:10B3400042F094FF02460B46A06943EC182B42F0F2
:10B350008DFF02460B466069676A43EC1A2B42F088
:10B3600085FF6DA3D3E9002342F0D8FF94ED00CB15
:10B3700094ED02BB56AD41EC190B284685ED089BB8
:10B3800085ED048B85ED06AB85ED00CB85ED02BB2D
:10B39000AF6211F03DF9002840F0E080674D38F0D1
:10B3A0007FFF2A6842F21073801A984206D938F05B
:10B3B00077FF034662482B6024F034FB6069614CE0
:10B3C00042F054FF54A3D3E9002342F0A7FF43F017
:10B3D0009DFA20600DF5277DBDEC0A8BBDE8F08F4E
:10B3E000534B1B78002BE9D0524B1B78002BE5D038
:10B3F000514E3378002BE1D194F82930002BDDD069
:10B40000514D38F04DFF2B68C01AB0F57A7FD5D377
:10B4100038F046FF034601202B60FFF75FFA002853
:10B42000CCD094F82F2094F82E3094F8310094F872
:10B4300030100291CDE900320390444FA38D444A6D
:10B44000502166A844F0E8FD66A907F1100040F21B
:10B45000016223F031FF3B7C002B00F0DA8156AD16
:10B46000284640220A2143F0E1FE07F110084FF47C
:10B4700080673F2F3A462946404640F2A08140224D
:10B4800024F034FB402840F0C181403FF1D13149E4
:10B490002E4837F075FF012333708FE72E4D2E684D
:10B4A000002E3FF440AF214B197849BB304622F0C3
:10B4B00081FC94ED021B94ED000B2868D4ED052A65
:10B4C00094ED042A21F0CCFF29E794F83110A38EE3
:10B4D00094F8322094F83000CDED152A8DED121B32
:10B4E0008DED100B8DED142A10F01AFF9DED100B51
:10B4F0009DED121B9DED142ADDED152A0146F8E69F
:10B5000094F83110A38E94F8322094F8300010F0A3
:10B5100007FF0146CAE700BF0B410E4A9869F23F98
:10B52000F0E4002028E500201CE200203CE500209B
:10B53000F005012040E30020E205012028F500206D
:10B5400038E2002070E5002030F5002028E20020DD
:10B55000AC3C0700CC3C0700080601203AAA0821B1
:10B56000B0EE4C0AF0EE6C0A012038F083FEB0EE2B
:10B570004B0AF0EE6B0A40AA0821012038F07AFE4F
:10B58000B0EE4A0AF0EE6A0A012117AA084638F01E
:10B5900071FEB0EE490AF0EE690A32AA02210120DA
:10B5A00038F068FEB0EE480AF0EE680A36AA0221CA
:10B5B000012038F05FFEE06942F058FE1AAA41EC23
:10B5C000100B0221012038F055FE206A42F04EFE99
:10B5D0001DAA41EC100B0221012038F04BFE8F4BCD
:10B5E000186842F043FE20AA41EC100B0321012011
:10B5F00038F040FE8A4B186842F038FE23AA41EC2E
:10B60000100B0321012038F035FE864B186842F0FC
:10B610002DFE26AA41EC100B0321012038F02AFE52
:10B62000FFF7AAFD10EE109AFFF7DAFD10EE10AA50
:10B63000FFF70AFE09F0FF42B2F1FF4F10EE10BA19
:10B6400000F0C380484642F011FE0DF1A40941EC20
:10B65000100B012108464A4638F00CFE48460B21E3
:10B6600011F06CF8002800F0B7800AF0FF42B2F148
:10B67000FF4F00F0C080504642F0F8FD0DF1B00AD7
:10B6800041EC100B01210846524638F0F3FD5046BC
:10B690000B2111F053F8002800F0B4800BF0FF42AA
:10B6A000B2F1FF4F00F09C80584642F0DFFD0DF1F3
:10B6B000BC0B41EC100B012108465A4638F0DAFD6C
:10B6C00058460B2111F03AF8002800F090803AAB70
:10B6D0004C9340AB4D9317AB4E9332AB4F9336AB7D
:10B6E00050931AAB51931DAB529320AB539323ABA2
:10B6F000549326AB0DF59878559358F8040B142104
:10B7000011F01CF800283FF449AEA845F5D1464B8E
:10B710001B78002B3ED10020014646AA182310F0CA
:10B7200019FF424B424D1A68089226A90B9123A992
:10B730000A9120A909911DA907911AA9069136A974
:10B74000059132A9049140A903913AA9029117A940
:10B75000CDE90071CDE90C9A4FF48071354ACDF8EE
:10B7600038B046AB66A844F057FC66A9284637F0C7
:10B7700077FE00287FF412AE2F4A2B7C10703070B9
:10B780000BB1FDF7E5FC2D4823F058FB0120FFF736
:10B790001DF903E694F8322094F83130A08DA18E83
:10B7A0000291CDE9003200F5FA6094F8303094F857
:10B7B0002F2094F82E1080B210F0C4FDADE724F0D5
:10B7C00095F9B84222D1403F53E6C9F31603002B46
:10B7D0003FF438AF0DF1A409194BC9F8003044E724
:10B7E000CBF31603002B3FF45FAF0DF1BC0B144BF2
:10B7F000CBF800306BE7CAF31603002B3FF43BAFE6
:10B800000DF1B00A0E4BCAF8003047E70B4823F0A1
:10B8100015FB0120FFF7DAF8D0E500BFD4DC0020EB
:10B82000D8DC0020DCDC00203CE5002010060120F4
:10B8300028E200207C3C070040E3002038E20020A2
:10B840006E616E000D4B1B780BB9002070470C4BDE
:10B8500010B51C6838F024FD0146204611F008FFA1
:10B8600048B138F01DFD0146064811F021FF80F077
:10B870000100C0B210BD002010BD00BFF86C002058
:10B88000A0B3002034C400202DE9F043B84EB94DD8
:10B8900033782A789A42A1B0D8B200F28B812B7803
:10B8A000C31ADBB2002B00F02B812978B24A01F0D9
:10B8B0000F01012B52F82110009100F08D802978A2
:10B8C000013101F00F01022B52F82110019100F01B
:10B8D00083802978023101F00F01032B52F82110E7
:10B8E000029179D02978033101F00F01042B52F82D
:10B8F0002110039170D02978043101F00F01052B3C
:10B9000052F82110049167D02978053101F00F0118
:10B91000062B52F8211005915ED02978063101F0EE
:10B920000F01072B52F82110069155D029780731C5
:10B9300001F00F01082B52F8211007914CD0297803
:10B94000083101F00F01092B52F82110089143D062
:10B950002978093101F00F010A2B52F821100991C1
:10B960003AD029780A3101F00F010B2B52F821103F
:10B970000A9131D029780B3101F00F010C2B52F8CC
:10B9800021100B9128D029780C3101F00F010D2BDB
:10B9900052F821100C911FD029780D3101F00F01C0
:10B9A0000E2B52F821100D9116D029780E3101F08E
:10B9B0000F010F2B52F821100E910DD029780F3165
:10B9C00001F00F01102B52F821100F9104D02B78A9
:10B9D00003F00F0352F82330DFF8B4C1DFF8CCE1F5
:10B9E0009CF800402870013BDBB201AA02EB830700
:10B9F000DEF80000614A6B46002C40F0F4801078BD
:10BA000000F0FF01002840F0A98018680C460433BC
:10BA1000BB421ED092F800801968B8F1000F40F0C8
:10BA2000A080DFF88C81D8F80090A1EB0008C14518
:10BA300000F292805248804500F28E8020A800EBF0
:10BA4000840904330134BB42084649F8408CE4B20F
:10BA5000E0D10123CEF800008CF80030002C4FD04C
:10BA6000012C109B39D9119A022C134435D0129A0B
:10BA7000032C134431D0139A042C13442DD0149A60
:10BA8000052C134429D0159A062C134425D0169A58
:10BA9000072C134421D0179A082C13441DD0189A50
:10BAA000092C134419D0199A0A2C134415D01A9A48
:10BAB0000B2C134411D01B9A0C2C13440DD01C9A40
:10BAC0000D2C134409D01D9A0E2C134405D01E9A38
:10BAD0000F2C13441CBF1F9A9B1807EE903A07EED9
:10BAE000104A284AF8EE677AB8EE470AD2ED000A03
:10BAF00087EE800A11F082FE2348214611F04EFEA7
:10BB0000224B1A781AB1224900220A701A70214A6F
:10BB1000214B1468DB68D90103D5204B1A68D20782
:10BB20004ED439F0D5FD1E4B1E4AA0FB0301830AFB
:10BB300043EA81531B1B934248D8134A1A4BD2ED58
:10BB4000007AB6EE007A77EE877AFDEEE77AC3EDFB
:10BB5000007A21B0BDE8F083084658E718681470F1
:10BB600055E74FF00008084682F800804FE700BF15
:10BB7000540601205606012014060120D060002042
:10BB800080841E00C8600020BC6000205506012093
:10BB9000F99200200C060120F0ED00E0001000E01A
:10BBA00040420F0020A107001006012088800020DD
:10BBB000CC6000202A7800F110039B1ADBB271E6FA
:10BBC0005B680A4A9B091B1B9342B6D9084811F0CF
:10BBD000DDFD084B084A0121197033780021DBB2E2
:10BBE0002B701170A9E7002414E700BF20A1070003
:10BBF000BC600020D0600020F992002038B5234DB1
:10BC00002C782CB94FF08043D3F83834DB0701D4BB
:10BC1000204638BD0520FEF761FE0028F8D01C48FC
:10BC2000FFF7E2F810B91B48FFF7DEF81A4BD3F81C
:10BC3000680403689B699847024600B34FF4007399
:10BC40001648002127F02EFA14480122002127F07F
:10BC500031FA124827F040FA044658B1104826F04D
:10BC6000C9FF322038F028FB0D4826F0C5FF01231C
:10BC70002B70CDE702460146084827F01BFA05481D
:10BC8000FFF7B2F80520FEF7A1FEC1E7B2390120A7
:10BC900000127A0080841E0050660020A8B30020A5
:10BCA0008C3E0120002238B51148124D114627F074
:10BCB00001FA38F0F5FA044608E038F0F1FA2B689A
:10BCC000C01A632808D8052038F0F6FA38F0E8FAE8
:10BCD000001BB0F57A7FF0D3074BD3F868040368F4
:10BCE000DB699847322038F0E7FAFBF7EBFA00BF40
:10BCF000A8B30020147D0020506600202DE9F843F1
:10BD00000B8D0C464FF6FF718B42054610D0226A10
:10BD10008380D90902EBC10203F07F03526802EB72
:10BD2000C30132F83330016023852846BDE8F8832B
:10BD30001646A28C002A30D1E38C002B00F08980BB
:10BD40000123276ADFF87491A3844FF480604FF0D9
:10BD5000800833681B684B4577D138F0C9FAA38C4B
:10BD6000246A7860013B9BB204EBC30100284A6857
:10BD700008BF4FF000080020A7F80080788022B1AB
:10BD800034F83340488884422CD800224FF6FF73A1
:10BD90002A60AB802846BDE8F883276A531E9BB211
:10BDA00007EBC30CBE46DCF8040028B1BCF8021057
:10BDB00037F8338088451ED8E38C9A4227D0DFF8C5
:10BDC000FC90531C9BB2B3F5007F0EEBC207A3841B
:10BDD00015BF4FF480604FF47E704FF080084FF035
:10BDE0007F08B6E702EBC00200EBC31301302A6004
:10BDF000AB80488099E700EBC10001EBC313013130
:10BE00002860AB80ACF802102846BDE8F883B3F593
:10BE1000007FBAD05B00A7421FFA83F833681AD0BC
:10BE200025489B6883424FEAC8013AD1384644F01E
:10BE3000DBF88646BEF1000FA7D0DFF88090A28C19
:10BE4000C4F820E0A4F82680BBE7014630469847B6
:10BE500085E7276ADEE7DFF864901B684B454FEA09
:10BE6000C80024D138F044FA8646BEF1000F8CD0C9
:10BE700021686268A368E068CEF80C00CEF8001074
:10BE8000CEF80420CEF8083021696269A369E06920
:10BE9000CEF81C00CEF81010CEF81420CEF81830D2
:10BEA000CDE70A463046394698478646C2E70146FE
:10BEB000304698478646D8E7097602001976020090
:10BEC0002DE9F04F80468B4658F8043B98E8070070
:10BED00093F83C4093B006AF0DF12409202C87E87D
:10BEE000070089E8070062D10CAC84E8070094E8F9
:10BEF00007000FAC84E8070000900446002856D0E5
:10BF00001D8F4FF6FF72954251D0DB6AE90903EBB2
:10BF1000C10105F07F05496811EBC50547D01099AF
:10BF2000EE880292481E22184FF0010A2C46039513
:10BF300004963546CDF8148001921E468846BAF123
:10BF4000000F11D1029B9D4231D0E80906EBC000E1
:10BF500005F07F05446814EBC50428D08AF0010A77
:10BF6000E588BAF1000FEDD0207904283CD00528EF
:10BF700036D002281FD0B8F1000FE3D12A464FF681
:10BF8000FF718A423346DDF81480DDE903560ED096
:10BF9000D00903EBC00002F07F02416811EBC2013F
:10BFA00005D00A79111F012925D9022A23D0584624
:10BFB00013B0BDE8F08F204644F021F94045C1D1CF
:10BFC000B8F1000FDAD0009B013C581E10F8012F89
:10BFD00014F8013F9A42B5D1019B8342F6D1CDE7D7
:10BFE0002468E0880834E9E724682046002CE5D07E
:10BFF00044F005F9E2E798E807000CAC84E8070094
:10C0000087E8070089E8070094E807000FAC84E898
:10C010000700804600283ED0109C671E0744BB46A0
:10C02000274654464FF6FF799A467CB94E4532D0A2
:10C03000F3090AEBC30306F07F065D6815EBC6053E
:10C0400029D084F00104EE88002CEFD02B79042B4A
:10C0500027D0052B3ED0022B38D0002FE6D14FF64B
:10C06000FF729642534616D0F20903EBC20306F064
:10C070007F065A6812EBC60B99D09BF80430042B4C
:10C080002CD0052B2DD0022B18BF4FF0000B58469B
:10C0900013B0BDE8F08F4FF0000B584613B0BDE869
:10C0A000F08F2D6828460DB144F0A9F8B842BDD1F3
:10C0B000002FD4D0681E08F1FF3313F8011F10F8C9
:10C0C000012F9142B2D15B45F7D1C8E7284644F031
:10C0D00096F8EBE72D68E8880835E7E752F836B0C0
:10C0E00065E752F8363003F1080B60E72DE9F047B9
:10C0F000056804460E46002972D0084644F07FF8D1
:10C100008046002D58D02B79202B55D1002E53D0AE
:10C110002B884FF6FF77BB424ED06268D2F82C9046
:10C12000D90909EBC10103F07F024B6813EBC2038D
:10C1300042D04FF0010ADD88BAF1000F10D1BD42A4
:10C140003AD0EA0909EBC20205F07F05536813EB08
:10C15000C50331D08AF0010ADD88BAF1000FEED0B4
:10C160001A79042A35D0052A2ED0022A27D0002099
:10C1700004468045E3D1B8F1000F0BD0721E631E58
:10C1800002EB080112F8014F13F8010F8442D6D1D7
:10C190008A42F7D14FF6FF739D420DD0EB0909EBB0
:10C1A000C30905F07F05D9F8040000EBC505281E7A
:10C1B00018BF0120BDE8F0870020BDE8F0871846D1
:10C1C0001C4644F01CF8D4E71B68D88803F1080427
:10C1D000CFE71C682046002CCBD044F010F8C8E70D
:10C1E00088468EE7000000008368002B00F0F68090
:10C1F0001A79402A40F0F2802DE9F04F1B884FF663
:10C20000FF77BB428FB01CD0D0E90324D56ADA098E
:10C2100005EBC20203F07F03526812EBC30310D098
:10C22000DA881CB912E0013CDA880FD0D109BA4291
:10C2300005EBC10102F07F0603D04B6813EBC60388
:10C24000F1D19FED950B0FB0BDE8F08F143007C80A
:10C250001E7901AC84E80700202E04AC84E80700B6
:10C26000EFD194E8070007AC84E807000AAC84E843
:10C27000070082460028E4D018884FF6FF77B842BE
:10C28000DFD0C20905EBC20200F07F03506810EB5B
:10C29000C300D6D0DDF82C90C68809F1FF384FF0E6
:10C2A000010BD044BBF1000F10D1BE42C9D0F2093E
:10C2B00005EBC20206F07F03506810EBC300C0D04C
:10C2C0008BF0010BC688BBF1000FEED00279042A77
:10C2D0007DD0052A77D0022A60D0B9F1000FE4D1D1
:10C2E0004FF6FF708642ACD0F20905EBC20206F0B1
:10C2F0007F03576817EBC301A3D00A7912F010042B
:10C300000CD037F83340844200F0C180E00905EBDF
:10C31000C00504F07F006C6804EBC004023A1C2ADC
:10C320008FD801A050F822F0E7C3020043C20200F8
:10C33000E3C3020065C402002FC4020043C202002E
:10C3400043C2020043C202003DC4020043C20200D5
:10C350004BC4020043C2020059C4020043C202009F
:10C3600043C2020043C2020043C2020043C20200B1
:10C3700043C2020043C2020043C2020043C20200A1
:10C3800043C2020043C2020073C4020043C202005F
:10C3900081C4020043C202006DC40200044643F09F
:10C3A0002EFF484581D1B9F1000F99D0601E0AF1E6
:10C3B000FF3212F8014F10F8011F8C427FF475AF65
:10C3C0009045F6D18CE70468E0880834E9E7046812
:10C3D0002046002CE5D043F012FFE2E79FED2E0B44
:10C3E000704757F833100AA8FCF76EFC9DF8283008
:10C3F000013B032B3FF625AFDFE803F0130C0502EA
:10C400009DED0C0B1FE7DDE90C0141F051FF41EC04
:10C41000100B18E7DDE90C0141F052FF41EC100B65
:10C4200011E70C9841F022FF41EC100B0BE717F8D5
:10C43000330041F0F9FE41EC100B04E757F83300EC
:10C4400041F0F2FE41EC100BFDE657F8330041F0ED
:10C45000FBFE41EC100BF6E6086841F007FF41ECEB
:10C46000100BF0E657F833100831BCE794ED000BE1
:10C47000E9E6D4E9000141F01BFF41EC100BE2E6D4
:10C48000D4E9000141F01CFF41EC100BDBE6002475
:10C4900044E700BFAFF30080000000000000000090
:10C4A0002DE9F04F00F10C02034607CAD3E901461B
:10C4B0008FB001AB83E80700002C74D093E807002D
:10C4C000257904AB202D83E807006CD107AB0AAFB8
:10C4D00083E8070087E807008246002863D02088A9
:10C4E0004FF6FF7840455ED0D6F82C90C20909EB94
:10C4F000C20200F07F03506810EBC30053D04FF02E
:10C50000010B0B9EC588BBF1000F10D145454AD0E9
:10C51000EB0909EBC30305F07F05586810EBC50074
:10C5200041D08BF0010BC588BBF1000FEED0037931
:10C53000042B56D0052B50D0022B39D0002EE5D13C
:10C540004FF6FF7085422ED0EB0909EBC30305F0CF
:10C550007F055C6814EBC50125D00B7913F0100240
:10C560000DD034F83520824200F09780D00909EBD5
:10C57000C00902F07F00D9F8042002EBC002023BA0
:10C580001C2B10D8DFE803F0360F34595D0F0F0F66
:10C59000640F6B0F720F0F0F0F0F0F0F0F0F0F0F97
:10C5A000780F7F0F86009FED3E0B0FB0BDE8F08F38
:10C5B000044643F024FE8642A8D1002EC0D00AF1E2
:10C5C000FF33601E9A1901E09A42B9D013F8014F67
:10C5D00010F8011F8C42F7D098E70468E08808340F
:10C5E000E9E70468002CA9D0204643F008FEE2E702
:10C5F00054F835103846FCF767FB9DF82830013BAE
:10C60000032BD0D8DFE803F0130C05029DED0C0BD3
:10C61000CBE7DDE90C0141F04BFE41EC100BC4E728
:10C62000DDE90C0141F04CFE41EC100BBDE70C982C
:10C6300041F01CFE41EC100BB7E754F835100831FF
:10C64000D8E714F8350041F0EFFD41EC100BACE7F2
:10C6500054F8350041F0E8FD41EC100BA5E754F823
:10C66000350041F0F1FD41EC100B9EE7086841F008
:10C67000FDFD41EC100B98E7D2E9000141F018FEF6
:10C6800041EC100B91E7D2E9000141F019FE41ECB9
:10C69000100B8AE792ED000B87E700226FE700BFDF
:10C6A00000000000000000002DE9F04F85B004AC50
:10C6B00004E90E00DDF80480B8F1000F47D00088CF
:10C6C0004FF6FF76B04242D00E9BD3F82C90C209B1
:10C6D00009EBC20200F07F03506810EBC30036D0B4
:10C6E000029DB0F806B06F1E4FF0010A4744BAF140
:10C6F000000F12D1B3452AD04FEADB1309EBC30375
:10C700000BF07F0B586810EBCB0020D08AF0010AA9
:10C71000B0F806B0BAF1000FECD00379042B31D099
:10C72000052B2BD0022B16D0002DE3D14FF6FF7333
:10C730009B450CD04FEADB1309EBC3090BF07F0BD1
:10C74000D9F8040000EBCB0005B0BDE8F08F002065
:10C7500005B0BDE8F08F044643F051FDA842C9D1B1
:10C76000002DE3D0601E08F1FF3313F8011F10F80D
:10C77000012F9142BED19F42F7D1D7E70468E088EC
:10C780000834EBE704682046002CE7D043F037FD7F
:10C79000E4E700BF2DE9F04184B0064604A800E9B3
:10C7A0000E003068DDE90187A8B17D1E4544C388CD
:10C7B000BB420DD1002F56D008F1FF33C21D01E05E
:10C7C000AB4250D013F8014F12F8011F8C42F7D042
:10C7D00000680028EBD1B7F5803F4AD20A9B2E4A69
:10C7E0001B681B68934207F1090046D137F080FDB2
:10C7F00000283ED00123C780838000F108054FB395
:10C8000000F10C0108F10402954238BF884507F198
:10C81000FF3336D3072B34D927F00304444443466F
:10C820002A4653F8041B42F8041BA342F9D1BA0765
:10C8300027F003030ED018F80320EA545A1C97423D
:10C8400008D9023318F80210A9549F4202D918F8E7
:10C850000320EA54074400233B72336803603060CE
:10C8600004B0BDE8F08183880133838004B0BDE863
:10C87000F081002004B0BDE8F08101460A98984795
:10C88000B6E74344C21D08F1FF3818F8011F02F84B
:10C89000011F9845F9D1DDE719760200437DDBB130
:10C8A000037D202B12D8DFE803F01F1111111111A5
:10C8B000111111151511111511111111111111115C
:10C8C000111111111111111111111500012303730F
:10C8D000002070470023437503695A1C02611B78CE
:10C8E000037501224275DCE7037B002B14BF022095
:10C8F00001207047437DDBB1037D202B12D8DFE898
:10C9000003F01F111111111111111115151111152C
:10C910001111111111111111111111111111111107
:10C920001111150001230373002070470023437584
:10C9300003695A1C02611B78037501224275DCE70A
:10C94000037B002B14BF0220012070472DE9F04F1C
:10C95000437D85B00446002B00F0E280057DDFF8C2
:10C9600014830022134662750092002B7ED0267D30
:10C970000023AE42637500F08380002E00F0D68065
:10C980005C2E00F085806768002F6FD0A168FB885F
:10C99000994200F096800F440131A1603E72637DA0
:10C9A000E3E7911C63752161537823756075002B53
:10C9B00000F0BC80402B86BF23F02003A3F1370199
:10C9C000A3F13001C8B20F2800F2A6800021D31CC9
:10C9D000617523619178217501236375002900F049
:10C9E000A580402986BF21F0200137393039C9B2EE
:10C9F0000F2900F291800026131D66752361D378FC
:10CA00002375012641EA00116675002B00F08E8027
:10CA1000402B86BF23F02003373B303BDBB20F2B8C
:10CA20007AD800206075501D20611279227543EA82
:10CA3000011301211BB26175002A77D0402A86BFFD
:10CA400022F02002373A303AD2B20F2A64D842EAB2
:10CA500003139AB202F5205189B20020B1F5806F1C
:10CA60001BB2607566D2C2F30903009323695A1C96
:10CA700022611E7826750023AE4263757FF47DAF78
:10CA80006368002B14BF0020042005B0BDE8F08FC0
:10CA90002269511C216111782175012060750029DE
:10CAA00044D075293FF47DAF704A2F2302E012F87D
:10CAB000023F8BB38B42FAD156786EB30023637575
:10CAC00061E7D4F800B04900DBF800A001F10109EA
:10CAD000B9F5803FDAF8003011D29B68644A93427E
