:020000022000DC
:10700000000004208D000600CD000600CF00060021
:10701000D1000600D3000600D500060000000000E5
:107020000000000000000000000000000900060051
:10703000D90006000000000029000600DD0006005F
:10704000E9020600DF00060071D70500C53904001B
:107050007D3A0400DF00060049DA0500DF00060083
:10706000DF000600DF000600DF000600DF0006008C
:10707000DF000600DF000600DF000600DF0006007C
:10708000DF00060059FD0500DF000600DF000600F6
:10709000DF000600DF000600A1440500DF00060057
:1070A000DF000600DF000600B9540300DF00060021
:1070B000DF000600DF000600000000000000000006
:1070C000DF000600DF000600DF000600D108060032
:1070D000DF000600DF000600DF00060065CB0400CD
:1070E000DF000600DF000600DF00060000000000F1
:1070F00000000000DF000600000000004909060053
:10710000000000000000000000000000000000007F
:10711000000000000000000000000000000000006F
:10712000000000000000000000000000000000005F
:10713000000000000000000000000000000000004F
:10714000000000000000000000000000000000003F
:10715000000000000000000000000000000000002F
:10716000000000000000000000000000000000001F
:10717000000000000000000000000000000000000F
:1071800000000000000000000000000000000000FF
:1071900000000000000000000000000000000000EF
:1071A00000000000000000000000000000000000DF
:1071B00000000000000000000000000000000000CF
:1071C00000000000000000000000000000000000BF
:1071D00000000000000000000000000000000000AF
:1071E000000000000000000000000000000000009F
:1071F000000000000000000000000000000000008F
:10720000F1EE103A43F08073E1EE103A704700BFA0
:1072100010B5054C237833B9044B13B10448AFF3D0
:1072200000800123237010BD2C65002000000000A9
:10723000B440070008B5034B1BB103490348AFF343
:10724000008008BD0000000030650020B440070049
:10725000154B002B08BF134B9D46A3F5803A002128
:107260008B460F461348144A121A41F0CFFB0F4BBE
:10727000002B00D098470E4B002B00D098470020E1
:10728000002104000D000D48002802D00C48AFF387
:10729000008041F0FBFA2000290038F04FFF41F058
:1072A000CFFA00BF0000080000000420000000002A
:1072B000000000002C650020846601200000000012
:1072C00000000000BFF34F8F0549064BCA6802F467
:1072D000E0621343CB60BFF34F8F00BFFDE700BFF9
:1072E00000ED00E00400FA0535DF704733DF70473A
:1072F0003CDF70473DDF704741DF704711DF70476B
:1073000012DF70470020704701207047012070474E
:10731000704700BF704700BF704700BF704700BF95
:10732000024B02F001021A70704700BFF36900209F
:1073300038B50446C069444D40F0C6FB40A3D3E9CC
:10734000002340F02BFC02460B46A069C5E9002350
:1073500040F0BAFB3AA3D3E9002340F01FFC94EDC0
:107360000F7AB4F84C30DFED397A9FED395A9FED42
:10737000394ADFED394AF8EEC75A94ED107A06EE35
:10738000103AF8EEC76A94ED0A7AB8EE466AB8EE9B
:10739000477A66EEA76A65EE845A26EE246A27EEDF
:1073A000057AC5ED055A85ED066AC5ED076A85EDD6
:1073B000087AE37DD4ED097A6B62237DF8EEE77AF3
:1073C000012B88BF637DC5E9020167EE857A8CBF1A
:1073D00003F00103002385F82830C5ED047AE27A32
:1073E000A1881E4B1E4802F00702A2F10702B2FA62
:1073F00082F25209A1F5FA61698585F82920A279FE
:1074000085F82C20E27985F82D20227A85F82E2027
:10741000627A85F82F20A27A85F8302021680268E8
:10742000A3FB01439B094FF47A7404FB13130D492A
:107430006B860132012302600B7038BDAFF3008010
:1074400048AFBC9AF2D77A3E80E00020ACC527371F
:107450006F12833AA8C8FE3A0AD7233CD34D621074
:10746000BCE00020B8E00020024B034AC3F800262D
:1074700001207047000001403546526E024B03491F
:10748000C3F8001610467047000001403546526EA2
:107490000AB3C2F308032DE9F0471546A3B9DFF894
:1074A0003C8006460F464FEA52290324D8F8680468
:1074B00003683A46D3F814A031464B46D047013C06
:1074C00030B914F0FF04F1D14FF0FF30BDE8F08780
:1074D0002846BDE8F0874FF0FF3070474865002030
:1074E000704700BF037C13F0080306D0C36A406AEC
:1074F000181A48BF6FF0004070471846704700BF29
:107500002AB3C2F308032DE9F0471546C3B906466E
:107510000F4636F005FB0F4BDFF83C8018604FEA52
:1075200055290324D8F8680403683A46D3F824A000
:1075300031464B46D047013C30B914F0FF04F1D13D
:107540004FF0FF30BDE8F0872846BDE8F0874FF0E8
:10755000FF307047C47B002048650020103021F0C8
:10756000A1BE00BF103021F001BF00BF00B583B045
:107570000B4601220DF1070110308DF8073021F084
:10758000F5FE03B05DF804FB00B587B00346064A7C
:107590006846182142F030F9694682B203482AF061
:1075A0004FFD07B05DF804FBF8CF060024E0002093
:1075B000103021F0DBBC00BF00B583B001220DF11B
:1075C0000701103021F000FC01280CBF9DF80700D6
:1075D0004FF0FF3003B05DF804FB00BF08461146D2
:1075E00042F0F2B8084636F0DDBA00BF084636F081
:1075F000BFBA00BF10B50E4C84B0227801A8092193
:1076000011F0B6F9237802332370024670B1094BAA
:107610001B7803F0FF004BB1074B1B7803F0FF0012
:1076200023B1064892B201A92AF00AFD04B010BDA8
:107630003EAF0020F5690020F3690020F46A0020C5
:107640002DE9F0434779402F3946A1B028BF4021AA
:107650009FB30023E9464A469C461F46054603EB76
:107660004304AE7A167000EB84040133247C14F0DA
:10767000080FC4F3C00818BF013782F801805FFA11
:1076800083FE05F10C0502F1020218BFFFB21EB124
:107690000CF1010C5FFA8CFC7145E0D8084B094CE9
:1076A0001F70094A84F800C04846102311F092FC6C
:1076B000064B187021B0BDE8F083BC46E946EDE703
:1076C000E1E00020E0E00020D0E00020CEE000205B
:1076D00010B50C4CD4F868040368DB69984794F83B
:1076E0002430DB0706D400224FF0FF3384F8242037
:1076F000236310BD04F1240024F00AFB0028F2D11A
:1077000010BD00BF48650020F0B58BB01F220146B8
:107710000092194802ABFF222BF00AFA0D2804D878
:1077200015482BF0EBF90BB0F0BD014602A811F0A3
:107730007DFD0028F4D0114E114F347802AB07CBF9
:10774000C4EBC40C07EB4C051B8847F81C006960B0
:10775000AA60AB8136F0E4F9E4B20A4D0A4A45F872
:107760002400012184EA01030348115533702BF0F2
:10777000C5F90BB0F0BD00BF68440120EB690020E3
:10778000ACAE002040AF0020A4AF0020174BDB6858
:10779000D90110B503D5164B1A68D2071FD437F09C
:1077A000D7FB144BA0FB0301830A43EA8153124920
:1077B0000A6840F6B7309A1A82420FD90F480B6018
:1077C00002780F490132097802F00F02914209D084
:1077D00001780C4CC9B244F82130027010BD5B68CE
:1077E0009B09E4E7084B01221A7010BDF0ED00E0A0
:1077F000001000E040420F007C010120C401012084
:10780000C601012084010120C501012010B5034BF0
:107810000360044612F0DAFC204610BDE8DF0600E3
:107820000F49097802290AD1F8B50E4E0E4F357866
:10783000EDB21C467B5D0BB9202C01D9F8BD704719
:107840000A48114600EB4510224641F0B7F80848B7
:10785000E3B24355012185EA010279553270F8BD42
:10786000CCDC0020F2690020D8BF0020FCAE002054
:107870003CAF002070B5124C124A134B2260002618
:1078800046F660706360C4F8886338F097FC0F4B6D
:107890000F4D93ED000B3246214604461DF04CF887
:1078A0000C4B2C6093ED000A20461DF00DFC0A4B9A
:1078B000286893ED000ABDE870401DF01BBC00BFB6
:1078C00088D8002004D00600A4060700106100201C
:1078D000A8DD0020BC610020B8610020F8B51A4B7B
:1078E0001B78022B044626D0184B194A194800274A
:1078F000214601261F7016702CF0CAFD05462AF09D
:1079000017FD2846F7212AF027FD284602212AF0F4
:1079100033FD3A46394628462AF026FD0E4B1E70A6
:1079200036F0FEF80D4B0E4A1C8010602846BDE86C
:10793000F8402AF0FFBC0B4A0B490C4B1080012089
:10794000002208701A70F8BDCCDC0020468C0020A4
:1079500088DC0020CC3D0120CEDC0020C6DC0020ED
:10796000C8DC0020C4600020F5690020F369002015
:10797000214A13884FF6FF719BB28B42F0B403D0BB
:1079800013889BB2984228D01C4B1B78022B24D022
:107990001B4B1C481C4F1D4E1D4D1E4C1E491A787A
:1079A00000233B70337003701C482B7023701C4DF8
:1079B0000B701C4C1C49037017202B70237008801F
:1079C0001A4B1AB900221A70F0BC70471A78002AB4
:1079D000F8D0174A01211170F4E713889BB298423E
:1079E000F2D1144C144900234FF6FF70237010801D
:1079F000F0BC0B70704700BFC4600020CCDC0020DE
:107A000080DC00208D8E0020407C0020E47B002064
:107A1000E37B0020508E0020A96B002088DC002032
:107A2000CDDC00204E8C0020D0600020468C002051
:107A3000AB8E0020F5690020F36900202DE9F04F9E
:107A40004948037CABB0002B40F08A804748037C58
:107A5000002B40F081804648037C002B78D14548BC
:107A6000037C002B70D10024322036F065F8424EA2
:107A7000424A43490194234604A84FF47A75ADF86D
:107A800010408DF812400295009621F035F99DF8CE
:107A90001000002855D03B4D2B68132B49DC3A4F82
:107AA000DFF8E88005E011A820F0F0FE2B68132B2A
:107AB0003FDC4FF47A73002204A911A80F930E94AF
:107AC000ADF844408DF846400D9621F053FB9DF8EB
:107AD000443040221AA911A85BB322F0A1FD9DF801
:107AE000443013F0D00F1AA8DDD141F078FF0346DF
:107AF0001AAA0638062B39461044D4D941F014FF8F
:107B000081460028CFD1D5F800A00AEB4A0B08EB3C
:107B10000B1B1AA92F22584641F07BFF0AF10103E3
:107B200011A82B608BF82F9020F0B0FE2B68132B40
:107B3000BFDD04A820F0AAFE28680028D4BF0020DA
:107B400001202BB0BDE8F08F103020F09FFE8AE7B7
:107B5000103020F09BFE82E7103020F097FE7AE78D
:107B6000103020F093FE71E774FD0020D0DE00207D
:107B7000D00101200402012004E006000CD0060020
:107B80004865002064FD002010D00600A8FD0020FC
:107B900081682DE9F0470568044669B1284E2B68D5
:107BA0000A685B68A260B34208463DD135F0FAFF2F
:107BB000A1680029F3D12568238E04F10C0903B3D1
:107BC0000027E36ADFF878A0B8460BE035F0EAFF5B
:107BD000E36AC6F80080218EC6F804800137BAB285
:107BE00091420FD9BEB203EBC60671680846002960
:107BF000EFD02B685B685345E8D028469847E36A86
:107C0000E7E7E36A00214FF6FF7299452186A286D5
:107C100007D02A680A4952688A420BD1184635F0C3
:107C2000C1FF2046BDE8F08728469847A168002993
:107C3000B5D1C0E72846194690472046BDE8F087F1
:107C4000E575020081682DE9F0470568044669B1D1
:107C5000284E2B680A685B68A260B34208463DD193
:107C600035F0A0FFA1680029F3D12568238E04F127
:107C70000C0903B30027E36ADFF878A0B8460BE0ED
:107C800035F090FFE36AC6F80080218EC6F80480C4
:107C90000137BAB291420FD9BEB203EBC606716882
:107CA00008460029EFD02B685B685345E8D028468A
:107CB0009847E36AE7E7E36A00214FF6FF729945C8
:107CC0002186A28607D02A680A4952688A420BD1C7
:107CD000184635F067FF2046BDE8F08728469847EC
:107CE000A1680029B5D1C0E728461946904720462B
:107CF000BDE8F087E57502002DE9F84F074635F03D
:107D00000FFF314DDFF8CC90DFF8CCB0DFF8CCA01E
:107D1000064645F00105D9F800301C68204639F0C8
:107D20007FFA03464FF003084FF4FA406BB9B8F1FD
:107D3000010F3CD0A847204639F072FA034608F1FB
:107D4000FF384FF4FA40002BF1D0DBF80030D3F8C5
:107D50000080404639F064FA034603244FF4FA40A9
:107D60005BB9012C23D0A847404639F059FA0346A5
:107D7000013C4FF4FA40002BF3D0144B1B68D3F8AE
:107D80000080404639F04CFA034603244FF4FA4091
:107D90005BB9012C0BD0A847404639F041FA0346A5
:107DA000013C4FF4FA40002BF3D0BDE8F88F35F0DA
:107DB000B7FE801BB842F8D2054B0A20C3F800A6D4
:107DC00035F0BAFEA7E700BF60EE0600DC600020D9
:107DD00000000140D4600020D86000203546526E7B
:107DE00030B5434B434C93F8302093F82E0093F872
:107DF0002D1093F82F5095B0049293F82C20CDE9D4
:107E00000205CDE9002107A85B8D3B4A182141F00E
:107E1000F3FC206800284DD01DF01CF9374D0346B7
:107E20002068002B18BF1D461DF044F907A92368E0
:107E30001090002232480D9132490F95CDE9112260
:107E40000E901391002B3FD018461DF02FF90028FB
:107E50003ED120681DF014F9002839D01FF0C0FE73
:107E600023681190002B31D018461DF01FF900280F
:107E70002CD120681DF004F940B31FF0FFFE04462A
:107E8000214A224B126800924FF480610DAA2048CB
:107E900012940FF0DBFD00211E4821F09DF81C49D3
:107EA0001C484FF4806221F061FA1A4821F0FAF977
:107EB00015B030BD1248114A174B1249139107AC47
:107EC000CDE90D40CDE90F23002311930024D7E71E
:107ED00020680028F8D01DF0E9F828B120681DF0CE
:107EE000E1F818B120F0CEFB2368BAE72368B8E7C1
:107EF00080E00020A8DD002028D0060018D0060071
:107F00009461002074610020A4F0002004E10020AE
:107F100044C40020C4DD0020A406070010B5134CA3
:107F20002068B8B11DF0C2F8A8B120681DF0BAF8F9
:107F300020F0A6FB0E4A1368B3F57A7F0ADA48B13F
:107F40000C490C68844205D00B4C086044F82300AF
:107F50000133136010BD20681DF092F80028F9D09D
:107F600020681DF08DF81FF039FEE3E7A8DD002042
:107F7000A4F00020B4F0002004E100202DE9F04737
:107F8000054680682F6860B1284C3B6802685B68D2
:107F9000AA60A3422AD135F005FEA8680028F4D1D2
:107FA0002F682B8E05F10C093BB30026EB6ADFF836
:107FB0007C80B2460BE035F0F5FDEB6AC4F800A01A
:107FC000298EC4F804A00136B2B2914216D9B4B2D7
:107FD00003EBC404616808460029EFD03B685B6886
:107FE0004345E8D038469847EB6AE7E7014638460C
:107FF0009847A8680028C8D1D2E7EB6A00214FF65D
:10800000FF7299452986AA8607D03A6807495268BF
:108010008A4205D1184635F0C5FD2846BDE8F087EF
:108020003846194690472846BDE8F087E5750200B6
:108030002DE9F047038E8146054659F80CABFBB19C
:108040000026C36ADFF8A080374609E035F0AAFDB4
:10805000EB6A2760298E67600136B2B2914210D96F
:10806000B4B203EBC404616808460029F1D0DAF821
:1080700000305B684345E9D050469847EB6AE8E733
:10808000C36A00214FF6FF7299452986AA860CD053
:10809000DAF80020144C5268A24221D1184635F07B
:1080A00081FD0423C5F82C906B86A8682E680023F8
:1080B0002B7158B10C4C336802685B68AA60A3420C
:1080C00006D135F06FFDA8680028F4D1BDE8F0872F
:1080D000014630469847A8680028ECD1BDE8F087F3
:1080E000194650469047DCE7E57502002DE9F0415E
:1080F0008B8E4FF6FF72934282B00C46054616D027
:10810000CA6AD90902EBC10203F07F01526832F852
:108110003100A08602EBC10200204FF6FF71107102
:1081200028462A60AB80D18002B0BDE8F081098E7C
:108130002768002932D1638E002B00F0858001234F
:10814000E66A5A4A23864FF480604FF080083B6805
:108150001B68934274D135F00BFD238EE76A706083
:10816000013B9BB207EBC30100284A6808BF4FF0F0
:1081700000080020A6F80080708022B137F8336034
:10818000488886422ED8012100224FF6FF732846E8
:1081900021712A60AB8002B0BDE8F081E66A4B1E17
:1081A0009BB206EBC30E3046DEF804202AB1BEF8BF
:1081B00002C036F83380E0451CD8638E994223D044
:1081C0003A4A4B1C9BB2B3F5007F00EBC1062386F5
:1081D00015BF4FF480604FF47E704FF080084FF071
:1081E0007F08B4E700EBC313441C9BB202EBC00250
:1081F0004C8091E70CEBC3130CF101019BB202EB35
:10820000CC02AEF8021087E7B3F5007FBBD004F1D3
:108210000C025B0096421FFA83F83B6816D0244894
:108220009B6883424FEAC80135D1304641F0CCFA11
:108230000028A8D01D4A218EE062A4F83280C0E751
:1082400001463846984788E7E66AE0E7174A1B6820
:10825000019293424FEAC80022D135F089FC019A7D
:10826000002890D0D6F800C07168B368D6F80CE04A
:10827000C0F80CE0C0F800C041608360D6F810C0C0
:108280007169B369D6F81CE0C0F81CE0C0F810C0F2
:1082900041618361CFE70A46384631469847C7E7D0
:1082A000014638469847019ADAE700BFED750200AB
:1082B000DD7502002DE9F0418B8E4FF6FF7293427F
:1082C00082B00C46054611D0CA6AD90902EBC10238
:1082D00003F07F01526832F83100A08602EBC10240
:1082E00028462A60AB8002B0BDE8F081098E27687D
:1082F000002932D1638E002B00F085800123E66ACD
:10830000594A23864FF480604FF080083B681B6811
:10831000934274D135F02CFC238EE76A7060013BE8
:108320009BB207EBC30100284A6808BF4FF0000862
:108330000020A6F80080708022B137F833604888AA
:1083400086422ED8012100224FF6FF732846217164
:108350002A60AB8002B0BDE8F081E66A4B1E9BB29A
:1083600006EBC30E3046DEF804202AB1BEF802C088
:1083700036F83380E0451CD8638E994223D03A4AC0
:108380004B1C9BB2B3F5007F00EBC106238615BFE3
:108390004FF480604FF47E704FF080084FF07F08FC
:1083A000B4E700EBC313441C9BB202EBC0024C8049
:1083B00096E70CEBC3130CF101019BB202EBCC026C
:1083C000AEF802108CE7B3F5007FBBD004F10C02CD
:1083D0005B0096421FFA83F83B6816D023489B68DF
:1083E00083424FEAC80135D1304641F0EDF900280B
:1083F000A8D01D4A218EE062A4F83280C0E7014671
:108400003846984788E7E66AE0E7174A1B68019212
:1084100093424FEAC80022D135F0AAFB019A002806
:1084200090D0D6F800C07168B368D6F80CE0C0F8F8
:108430000CE0C0F800C041608360D6F810C07169DC
:10844000B369D6F81CE0C0F81CE0C0F810C0416168
:108450008361CFE70A46384631469847C7E7014669
:1084600038469847019ADAE7ED750200DD7502009B
:108470002DE9F84307464068BD68032D884600F1A2
:10848000080613D85FFA85FC002D77D00CF1FF3475
:1084900056FA84F4C31D002213F8011F002908BFF7
:1084A00042F00102A342F7D1002A40D000237355C5
:1084B000D7F80090BE68D9F80830A3B106F1070CD0
:1084C0008444DA8896420BD13EB3C21DDC1D01E024
:1084D000944522D012F8011F14F8015FA942F7D089
:1084E0001B68002BEDD1B6F5803F7D68D9F80040C0
:1084F00034D2236828489B68834206F1090140D1A1
:10850000284641F061F9034643B33A68DE8091683A
:10851000196000219360796002E09A8801329A80A4
:108520000522C8F8003088F80420BDE8F88302234B
:1085300088F80430037A88F80030BCF1010F08D0C5
:10854000437A88F80130BCF1020F02D0837A88F8B0
:108550000230002308F80530BDE8F88323680F4A8D
:108560005B68934213D02946204698473A68002317
:108570009268012189F804101A60FFDE02230B7152
:10858000E7E70A462046294698470346BCE72846BF
:1085900035F008FBEAE700BFDD750200E575020073
:1085A0002DE9F04745684DB18368EA889342044657
:1085B0000E4605D01D440133A3602E72BDE8F0873E
:1085C0005B00D0F800905F1CB7F5803FD9F80080C1
:1085D00012D2D8F800201549D2F808A08A4503F134
:1085E0000A021CD11146284641F0EEF820B1C7809E
:1085F000A36860600546DDE7D8F800300C4A5B6888
:10860000934208D1284635F0CDFA0122002389F89B
:1086100004206360D2E7294640469847F5E729469B
:108620004046D0470028E2D1E6E700BFDD750200F2
:10863000E575020003792DE9F0470C46D907054698
:1086400037D4DA0624D413F0600F1DD02E884FF6ED
:10865000FF77BE4215D0E36AF20903EBC20306F0CE
:108660007F09D3F8048008EBC900B246C6882146CA
:10867000FFF7E0FFA38E28F83930BE42A4F834A0FB
:10868000E9D14FF0FF332B6000232B71BDE8F08759
:108690002A884FF6FF718A4237D0E16AA68ED00948
:1086A00001EBC00102F07F00496821F83060A2862A
:1086B000C9E7A0682A6826680028C2D0824216D07E
:1086C000014600680028BCD08242F9D18288013A74
:1086D00092B28280002AB4D103680B6033680C4ADE
:1086E0005B6893420CD135F05DFA2B79A9E782885B
:1086F000013A92B28280002AA3D10368A360EDE719
:108700000146304698472B799BE700231B80FFDE0C
:10871000E57502002DE9F04F0E46097885B02B294A
:10872000009000F0FD802D2940F0B8807178012084
:1087300001900644A1F13000C0B2092800F2B680D1
:10874000DFF8F893C0B20021002400254FF09938DB
:1087500016F801BF2418ABF13007FFB241EB050555
:108760004FEA850E092F6FEA07024FF0FF334FEAF9
:10877000840C4EEA947EF8B24FF0000100F21E81A4
:10878000A94508BFA0450BD31CEB040C4EEB050E0E
:108790001CEB0C044EEB0E05AB4208BFA242D7D235
:1087A0004FF0000A0023204629460A223FF04CFEE3
:1087B000A946A0461FFA8AF3B9F5200F03F1010A72
:1087C00008BFB8F1000F04460D460FFA8AFAE9D245
:1087D000092F0BD802339B1B06EB030A16F801BFC7
:1087E000ABF13002092A0FFA8AFAF5D9BBF12E0F44
:1087F00000F0B6800BF0DF03452B60D0BBF1000F1B
:1088000056D10AF126034C2B00F2FC80002D08BF44
:10881000B4F5000F80F0F68007EE904ABAF1000F31
:10882000F8EEE77A40F36481BC4B1AF0010F1CBFED
:1088300093ED007A67EE877A5FEA6A0223D0D00769
:1088400044BF93ED017A67EE877A5FEAAA021AD0F5
:10885000D10744BF93ED027A67EE877A5FEAEA02B6
:1088600011D0D20744BF93ED037A67EE877A5FEAAF
:108870002A1A08D0BAF1010F0CBF93ED047A93EDD8
:10888000057A67EE877A019B0BB1F1EE677A009A61
:108890000123C2ED027A137010460DE00020019012
:1088A000A1F13000C0B209287FF64AAF2E2953D07B
:1088B000009A00231370104605B0BDE8F08F96F8BB
:1088C00001B0BBF12D0F36D0BBF12B0F00F0F080C3
:1088D000ABF13003DAB2092A06F101068ED80AEBB1
:1088E0000302B2F59A7F00F3D780002706E002EB7F
:1088F000400303EB0A02B2F59A7F79DC16F801BF58
:10890000ABF13002D1B2092903EB8300EFD9002F7C
:1089100040F0C7809A44BBF1000F3FF472AFC7E745
:10892000717800200190A1F13000C0B2092806F151
:108930000106BBD804E796F802B0ABF13003DAB217
:10894000092A06F102063FF659AF0AEB0302B2F517
:108950009A7F4FDC0127D1E7002400254FF0000A61
:1089600096F801B0ABF13000C0B2092806F101065B
:108970003FF640AF6A4B4FF099329D424FEA850176
:1089800008BF94424FEA840741EA94710ED23F191E
:1089900045EB010117EB070841EB01090AF1FF3A2A
:1089A00018EB00040FFA8AFA49F1000516F801BF26
:1089B000ABF13000C0B20928DFD91BE7BBF1000FD3
:1089C00040F0D280019B8BB1B5F1004F08BF012C64
:1089D000BFF4E6AE644265EB45050223009A1046FB
:1089E000C2E90245137005B0BDE8F08F0323F5E737
:1089F000002F51D000994FF00042012308468A60B1
:108A00000B7059E7204629463FF092F8BAF1000F63
:108A100079DD444C1AF0010F7AD15FEA6A032DD058
:108A2000DF0700F18D805FEAAA0327D0DE0700F19F
:108A30008C805FEAEA0321D0DD0700F18B805FEADA
:108A40002A131BD0DA0700F18A805FEA6A1315D077
:108A5000DB073ED45FEAAA1310D0DF073ED45FEAFB
:108A6000EA130BD0DE073ED45FEA2A2306D0DD07E7
:108A700044D45FEA5A231CBF2B490020019B13B149
:108A800001F100431946009A0423C2E9020110468D
:108A9000137005B0BDE8F08F019B0020BBB12349E6
:108AA000F1E7AAEB030ABBF1000F3FF4AAAEFFE621
:108AB00096F802B0ABF13003DAB2092A06F10206E9
:108AC0007FF60DAFBBF1000F3FF49BAEF0E6184907
:108AD000D9E7D4E90A233FF061F8BBE7D4E90C23D6
:108AE0003FF05CF8BBE7D4E90E233FF057F8BBE753
:108AF000CAF1000A3FF4C7AE0E4B96E6D4E9102344
:108B00003FF04CF8B5E7CAF1000AB7D00A4C81E74C
:108B1000D4E900233FF042F87FE700BF84E006007D
:108B200099990100E8E006000000F87F0000F0FFDE
:108B30000000F07F6CE00600A0E00600999999190A
:108B4000D4E902233FF02AF86DE7D4E904233FF08B
:108B500025F86EE7D4E906233FF020F86FE7D4E963
:108B600008233FF01BF870E7B5F5801F08BF002C05
:108B7000BFF416AE4FF0000A38E600BF10B50E4C39
:108B80002068B8B11CF092FA38B920681CF078FA65
:108B900018B1BDE810401FF007B8206850B11CF0B4
:108BA00085FA38B120681CF07DFA18B1BDE8104094
:108BB0001FF04ABD002010BDA8DD002010B50E4CEE
:108BC0002068B8B11CF072FA38B920681CF058FA65
:108BD00018B1BDE810401EF0EBBF206850B11CF08A
:108BE00065FA38B120681CF05DFA18B1BDE8104094
:108BF0001FF02EBD002010BDA8DD002070B5224D55
:108C0000224C2B78002B34D0237C002B2FD1204CEE
:108C100037F08AF82068012110F0AAFA08B1002381
:108C200023601C4E37F08AF81B4B306800241C7000
:108C30002C7010B137F0C6FA3460184B1849194D32
:108C4000194A1A481A4E00241C701A4B0C702C60DA
:108C5000146004602146184834704FF0FF354FF41B
:108C60007A621D603FF0D2FE144B1C6070BDFFF7AE
:108C7000B7F8237C002BCAD0114820F013FB104812
:108C80001FF004FEC3E700BF6A010120B4DD00202D
:108C9000ACDD0020A8DD0020CCDE002069FD002036
:108CA00000E10020FCE00020A4F00020B4F000204F
:108CB000CC0101201C61002004E10020C80101203A
:108CC000C4DD002008B5214B1B78002B30D0204B91
:108CD0001B78042B02D11F4B1B784BB334F020FFC1
:108CE0001D4A1E4B1268801A984221D91C4B93EDE5
:108CF000007AF0EE007AB4EEE77AF1EE10FA1FDABD
:108D0000184B1A78AAB134F00BFF174B1A684EF6BD
:108D10005F23801A98420BD9FFF770FF134A14495A
:108D2000136803F59C5308334FF0FF30136008605D
:108D300008BD01221A7034F0F3FE0B4B186008BD19
:108D40000849094A00230B70136008BD69FD002023
:108D5000A8BF0020CDE000206CFD00201FBF020056
:108D6000F8E0002000E10020FCE0002040DE0020D0
:108D70001861002070B51C4D8AB000242846089464
:108D8000CDE90244CDE90444CDE90644CDF82340C1
:108D900028F022FB02462846019228F01FFB1F26DE
:108DA000019A014602A83FF009FE02A93246284670
:108DB00028F016FB3C352146324602A83FF026FE3D
:108DC000284628F009FB0190284628F007FB019A65
:108DD000014602A83FF0F2FD324602A9284628F0DB
:108DE000FFFA0AB070BD00BF0C440120284B294A8D
:108DF000294870B5C3F800261AF02AFD0021042086
:108E000038F06CF901210520244D38F067F9092468
:108E100045F001050021052038F0E4F94FF4A07079
:108E2000A8470121052038F0DDF94FF4A070A847CC
:108E3000013CEFD10121042038F050F921460420F3
:108E400038F0D0F94FF4A070A8470121052038F080
:108E5000C9F94FF4A070A8470D4C0E4E0121042013
:108E600038F0C0F94FF4A070A8470B48C4F800666A
:108E70001AF074FC0A4908481AF0CCFC0948C4F8F6
:108E8000006601223C212DF059FDC4F8006670BD3A
:108E9000000001403546526EEC2C012060EE0600C9
:108EA000801A0600E8DD00202DE9F047544E554DAC
:108EB0003768D7F80080404638F0B2F9034645F0ED
:108EC000010503244FF4FA405BB9012C74D0A84784
:108ED000404638F0A5F90346013C4FF4FA40002B18
:108EE000F3D001237B71484F464DD7F80080D8F866
:108EF0000090484638F094F9034645F001050324F4
:108F00004FF4FA405BB9012C66D0A847484638F0C8
:108F100087F90346013C4FF4FA40002BF3D00123BC
:108F200088F80530DFF8EC90364DD9F80080D8F895
:108F300000A0504638F074F9034645F001050324BB
:108F40004FF4FA405BB9012C22D0A847504638F0C4
:108F500067F90346013C4FF4FA40002BF3D001239C
:108F600088F8053033681B793BB1284A136803F54C
:108F70009C5308331360BDE8F0873B681B79002BD6
:108F8000F3D1D9F800301B79002BEED1BDE8F08782
:108F900034F0C6FD98F80530002BE3D01C4BD8F810
:108FA00008201B68801A9842DCD334F0B9FDA8F879
:108FB0000440C8F80800D5E734F0B2FD7B79002BF7
:108FC00091D0134BBA681B68801A98428BD334F047
:108FD000A7FDBC80B86086E734F0A2FD98F80530A4
:108FE000002B9FD00A4BD8F808201B68801A9842A3
:108FF00098D334F095FDA8F80440C8F8080091E72C
:10900000D460002060EE0600D860002040DE002022
:10901000C8600020DC600020424B1B682DE9F04155
:109020001E68414D304638F0FBF8034645F0010517
:1090300003244FF4FA405BB9012C0BD0A84730460B
:1090400038F0EEF80346013C4FF4FA40002BF3D021
:10905000002600E02646354B334D1B681F68384616
:1090600038F0DEF8034645F0010503244FF4FA40DA
:109070005BB9012C0BD0A847384638F0D1F803462D
:10908000013C4FF4FA40002BF3D0002500E02546C8
:10909000274B254F1B68D3F80080404638F0C0F8B6
:1090A000034647F0010703244FF4FA405BB9012C53
:1090B0000AD0B847404638F0B3F80346013C4FF4B5
:1090C000FA40002BF3D000249EB11A4E3378DBB166
:1090D00065B1194D2B78F3B124B1184C23785BB1ED
:1090E000BDE8F081154B1C70BDE8F081124B1D707E
:1090F000F2E7104B1E70EBE734F012FD104A01232B
:1091000010602370BDE8F08134F00AFD0D4A0123A0
:1091100010603370DCE734F003FD0B4A012310606C
:109120002B70D9E7D460002060EE0600D8600020E4
:10913000DC60002089DD002090DD002098DD00202B
:109140009CDD00208CDD002094DD002038B50F4A26
:109150000F4B126819688A4215D00E491A60002315
:109160000B6001220C4C0D4B204600251A70E57651
:109170002DF04EF9204601212CF076FE4FF0011320
:10918000C4E9045338BD0022ECE700BF1861002099
:10919000BCF00020F0FA0020E8DD002070FD002087
:1091A0001A4A13680D2B28D00C2B15D0083312D077
:1091B000174B184993ED007A0B68F1EE047AB4EE80
:1091C000E77AF1EE10FA03F59C5394BF0A200920C8
:1091D000083310600B6070470F4B10491A680B681A
:1091E000013A9A420B4A14BF013300230B60136803
:1091F00003F59C5308331360704706490B6803F569
:109200009C5308335A200B6010607047186100208F
:10921000F8E0002040DE002068610020B0DD002082
:109220000378462B01D00020704710B54378572BA8
:10923000044621D11149082240F0D9FB08B9012088
:1092400010BD0F490622204640F0D1FB0028F6D081
:109250000C49204640F0A0FB0028F0D00A492046E7
:1092600040F09AFB0028EAD00849204640F094FBE1
:10927000B0FA80F0400910BD002010BD48D00600B3
:1092800054D006005CD0060064D006006CD0060006
:109290002DE9F0435E498DB00822044640F0A7FB5B
:1092A00000284CD15B4F3B7803F0FF06002B51D1D7
:1092B000083420462C2140F062FB00284AD000F1FF
:1092C000010948462C2140F05AFB0546002841D0B0
:1092D00020460A22314641F0D3FAA5EB0903082BB8
:1092E00080464AD1D9F80000D9F8041002AB03C374
:1092F00002A801A98DF810600EF0F2FA00283CD007
:1093000008F1FF33B3F5A02F56D26878013590B13C
:10931000DFF844916E2641F0BDFA0446304641F034
:10932000B9FA844207D115F8010F002854D019F872
:10933000016B002EEFD13848FEF726F90DE03749D2
:109340000622204640F053FB50B9324B1B78012BCC
:10935000DDB218D03248FEF717F90DB0BDE8F08342
:109360003049204640F018FBC8B92A4B1B78022B25
:10937000F0D12D4B01221A70EFE72C48FEF704F9CB
:109380000DB0BDE8F08301460A22A01D41F078FA35
:10939000274B1B6883420FD1264B1D70DDE7264902
:1093A000204640F0F9FA68B91A4B1B78032BD1D14B
:1093B000224B01221A70D0E72148FEF7E5F80DB0E4
:1093C000BDE8F0831F49204640F0E6FA0028C4D1EA
:1093D0001D4B01221A70C0E799F80030002BAAD16A
:1093E000134B1A4A0198C3F8008005A901233B706A
:1093F00010600EF03FFA164A05AB08A8102140F0A5
:10940000FBF908A982B2134828F01AFEA5E700BFAD
:1094100048D006004DAF002088D0060054D006008A
:1094200074D006005CD006008D6A00207CD0060057
:10943000AC6B0020F469002064D00600AB6B002008
:1094400080D006006CD00600AA6B0020946A002031
:1094500090D0060024E000209DD00600000000000F
:1094600085490978012900D070472DE9F0411C4653
:10947000CBB282499CB00B701546002141220BA84B
:109480003FF0C4FA402C2246294628BF40220BA8B0
:109490003FF094FA0BA840F0A2FA431E70B10BAA59
:1094A000774E1A4412F801190A39C9B226FA01F0A6
:1094B00016296FEA000003F1FF3310D9714E33789B
:1094C000BBB171490BA8052240F091FA50BB062CA4
:1094D00028D86E4B01221A701CB0BDE8F08110F044
:1094E0000100EBD1591C5070DCD1664E3378002B53
:1094F000E7D1674F3B78022B7AD0402C00F289806D
:10950000644904220BA840F072FAB0B9624C237887
:1095100003F0FF05002B52D060496148042228F077
:109520008FFDD9E75F4E338814FA83F3B3F5805F7C
:1095300050DD5D4B01221A70CEE75C4904220BA876
:1095400040F055FAD8B15A4907220BA840F04FFA1B
:10955000002840F0CD809DF83330202B0DF13300F2
:1095600003D110F8013F202BFBD018210EF08EFC08
:1095700098B950495048092228F062FDACE79DF89F
:109580003030202B0CA803D110F8013F202BFBD04A
:1095900018210EF07BFC00283BD03F4C237803F0D1
:1095A000FF0563B13D494448042228F049FD93E793
:1095B000394C237803F0FF05002B40F022813F4B0C
:1095C00040220BA9184640F024FA012280F84050AE
:1095D000227081E73A4B3088294613FA80F0224600
:1095E0003FF0ECF9338814FA83F39BB2338073E7CE
:1095F000082C14D833490BA840F0CEF920B13249D9
:109600000BA840F0C9F950B921460BA8FFF740FE5E
:1096100062E72E492848052228F012FD5CE73B78D6
:10962000022B7FF459AF2A4B1A7802F0FF00002A70
:109630007FF452AFDFF8B080264AD8F80070126885
:109640002744974200F2B280234A244ED2F800C049
:10965000318814FA81F1B1F5805F40F2AD80DFF816
:109660008CC0DCF80010013100F0B8801C4A1D49A4
:10967000116001221A702FE7CCDC0020468C0020FC
:1096800009004000407C0020A8D006008D8E0020FC
:109690004DAF0020C0D00600A96B0020E8D4060022
:1096A0005CDF0020448C0020E37B0020C8D0060053
:1096B000D0D00600D8D0060024E000204C6A00205C
:1096C000447C00205CD006006CD00600B8D00600B8
:1096D0004CAF0020AC6B0020E8BF0020ECBF0020A6
:1096E000906A0020B0D00600D07B0020B860002037
:1096F0007F490BA840F050F900284AD07D49052247
:109700000BA840F074F9002843D07B4905220BA830
:1097100040F06DF900283CD078490BA840F03CF9A6
:10972000002836D076490BA840F036F900283FF4DF
:109730003FAF744905220BA840F059F9002866D0C4
:10974000714905220BA840F052F900286DD13378F9
:10975000002B56D16D4B1C78002C52D10DF13100ED
:1097600018210EF093FB002859D0694B694D0DF17B
:1097700031011846182240F04CF903466649674803
:10978000674A1C7601232C8004700C7013703370B0
:10979000A2E6644C237803F0FF050BB9624B0FE798
:1097A00062496348052228F04BFC95E6614A62490C
:1097B000116001221A708FE6604B03EB0C33308886
:1097C000294613FA80F022463FF0F8F83388C8F8AB
:1097D000007014FA83F39BB233807DE63188DFF8A2
:1097E00080E1564B89B2AEF800101168CCF8001039
:1097F000116881F0010111603080126803EB0233BF
:10980000DDE74F494A48092228F01AFC64E618218E
:109810000DF131000EF03AFB00287FF4C9AE494942
:1098200043480D2228F00CFC56E6474905220BA8B8
:1098300040F0DDF8B8B9454C237803F0FF05002B64
:10984000DFD10DF1310018210EF020FB0028E6D009
:109850003F4B18220DF13101184640F0DAF8012291
:109860000576227038E63B490BA840F095F830B1F8
:109870000BA8FFF7D5FC00283FF42EAEC4E6364B0C
:1098800018683EF033F903AE04460D4645EC104B24
:1098900032460221042034F02DF911A3D3E900232C
:1098A000204629463DF0C2FF0FA3D3E900233EF036
:1098B00075F93EF023FC6428A8BF642020EAE07319
:1098C000264A0096182105A83FF096FF05A840F00B
:1098D00086F805A982B2164828F0B2FBFCE500BF65
:1098E0006666666666660A40721CC7711CC75B4086
:1098F000E4D00600ECD00600F4D00600FCD0060050
:109900000CD1060020D1060038D10600CDDC0020A5
:10991000908E0020448C00208D8E0020E37B002060
:10992000E47B00204E8C0020F47B002004D1060054
:1099300024E00020906A002080D00600AC8E002039
:1099400014D1060028D1060040D10600508E002018
:10995000748E002048D10600ACF0002050D10600E3
:10996000E8690020124B13490122002030B45A60EC
:109970000325DA600424C3F8040541F28830C3F8F3
:109980000855C3F810454FF48035C3F840056024EE
:109990004FF08060C3F80022C3F8045381F81A43E3
:1099A000C1F880010860044930BC0A701A60704731
:1099B00000A0014000E100E0C16B002070B5304C18
:1099C000304D314882B00EF087FA40F24C4303220A
:1099D00001212E48C4F8005619F06CF82C4BC4F83D
:1099E000005640F24C461978284840F24C43032276
:1099F00019F0FAFD3346032204212448C4F8005626
:109A000019F02CF9C4F800560323002201211F4845
:109A1000009619F065F9C4F80056032301220021CD
:109A20001A48009619F05CF9C4F800560323022284
:109A300000211648009619F053F903231A46C4F87A
:109A4000005600211148009619F04AF9C4F8005652
:109A5000032300210D480096062219F041F90D4B11
:109A6000C4F80056197809B102B070BD334603221C
:109A7000064819F059FCC4F8005602B070BD00BF8A
:109A8000000001403546526EB06B0020F8FA00200D
:109A90002461002025610020104A114B114810B5A7
:109AA0000021114C11704FF47A62196021603EF070
:109AB000ADFF0E48037C6BB90D4C36F035F92068CC
:109AC00002210FF055FB08B100232360BDE81040D0
:109AD00036F034B910301EF0D9FEEDE768010120F0
:109AE000B4F0002004E10020A4F0002074FD002068
:109AF000ACDD00202DE9F0430024BBB0374B0494CB
:109B000001464FF47A75224607A8ADF81C408DF83F
:109B10001E40059503931FF0F7F820B9002528464D
:109B20003BB0BDE8F0832E494FF4806207A81FF0D8
:109B30004BF9064607A81EF0A9FEB6F5806FEDDBCF
:109B4000284E009502A9019125480294334610AA97
:109B50004FF480610EF03AF805460028DFD0224B22
:109B6000DFF89880214FDFF8989010A91846172247
:109B70003FF04FFF03461F22404616A9DC753FF019
:109B800048FF88F81F403846DFF878801F221EA95A
:109B90003FF03FFFFC770F22154F26A948463FF0C4
:109BA00038FF0F222AA9404689F80F403FF031FFC5
:109BB0000F2238462EA988F80F403FF02AFF029A5C
:109BC0000C4BFC731A6012B1013A56F822200A4B72
:109BD00028461A603BB0BDE8F08300BF04E00600F1
:109BE00044C0002004E1002074DE002054DE002088
:109BF000ACDE0020A4F00020B4F000208CDE0020B9
:109C0000BCDE002044DE002070B50C4E054636F068
:109C10008BF8306829460FF093FA044620B936F0E5
:109C20008DF83368204670BD294630680FF098FAE9
:109C3000306036F083F8204670BD00BFACDD0020F8
:109C400010B5084C82B0019036F06EF8206801998A
:109C50000FF08EFA08B10023236002B0BDE8104077
:109C600036F06CB8ACDD002030B5204B1C788BB0E2
:109C700004BB05460320FFF7C7FFD8B11C49ADF868
:109C8000044001A823462A468DF806401FF034F808
:109C9000B8B11749ADF804402A46012301A88DF850
:109CA00006401FF029F8B0B912491348072228F0DE
:109CB000C7F90BE011491048042228F0C1F90BB094
:109CC00030BD0F490C48092228F0BAF90320FFF7EC
:109CD000B7FF0BB030BD01A820F07EF80028E3D01C
:109CE00008490548072228F0ABF9EFE7CDDC002052
:109CF000486500205CD1060024E00020E8D406007E
:109D0000D8D0060064D10600F8B51649164C174A9B
:109D1000174F184E184D194800233B7033702370AD
:109D20000B70174C13701749174A2B70174D23608F
:109D300013600B80164C1749027C2B604FF0FF35E7
:109D400025600B804AB9144C237803B9F8BD032071
:109D5000FFF776FF00232370F8BD10301EF096FD4C
:109D6000F1E700BFAB6B00208D6A0020AA6B0020DA
:109D70004DAF0020F46900204CAF0020C8AE002099
:109D8000E8BF0020ECBF0020906A0020D07B0020BC
:109D9000B8600020E8690020A6AF0020F0B52E4B87
:109DA0001C68BDB01CB90320FFF72EFF30B92B494A
:109DB0002B480C2228F044F93DB0F0BD2346294D34
:109DC000294A2A49019404A84FF47A76ADF8104044
:109DD0008DF81240029600951EF08EFF9DF810300F
:109DE00083B3234F1E4E02E011A81EF04FFD4FF427
:109DF0007A73002204A911A80F930E94ADF8444081
:109E00008DF846400D951FF0B5F99DF84430B3B17B
:109E100013F0D00FE8D11AA9402211A820F000FCBD
:109E20001AAB3A462AA846213FF0E6FC2AA982B29C
:109E3000304628F005F90A2033F07EFED4E704A866
:109E40001EF024FD0320FFF7FBFE0A49044804220C
:109E500028F0F6F83DB0F0BDACDD00206CD1060076
:109E600024E0002004E006007CD1060048650020C4
:109E700090D1060088D106002DE9F0473F4F3C689D
:109E8000ADF5287D24B90320FFF7BEFE054640B995
:109E90003B493C48042228F0D3F80DF5287DBDE865
:109EA000F08723464FF47A7C374E384A3849049479
:109EB00007A8ADF81C408DF81E40CDF814C00396DD
:109EC0001EF01AFF9DF81C40002C4BD0DFF8CC9000
:109ED000DFF8CC802F4F02E014A81EF0D7FC002240
:109EE0004FF47A7307A914A8CDE91062ADF8502099
:109EF0008DF8522012931FF03DF99DF8504014B395
:109F000014F0D004E8D10DF1740A51464FF4807278
:109F100014A820F085FB1B9A0192002D14BF4B461C
:109F200043463A464FF49671CDF800A05DA83FF045
:109F300063FC5DA982B2134828F082F80A2033F04E
:109F4000FBFD2546C8E707A81EF0A0FC0320FFF78D
:109F500077FE11490B48032228F072F80DF5287D91
:109F6000BDE8F08735F0E0FE386803210FF000F916
:109F700000B13C6035F0E2FE8AE700BFACDD0020B6
:109F8000E8D406005CDF002004E006000CD00600E8
:109F900048650020A0D10600ACD10600A406070049
:109FA0009CD10600F0B52E4E337C8FB00446002BBA
:109FB00051D10320FFF728FE002845D00027224674
:109FC000284C294901943B464FF47A7505AC05A805
:109FD00003950297ADF814708DF816701EF08CFE84
:109FE000A446BCE80F00214D029C74600FC5BCE87C
:109FF0000F000FC5DDE90321337CDCF80000286089
:10A00000C6E90221B3B11A48F36A1A4A1A49036031
:10A01000012017600870194A202101A83FF0ECFBCD
:10A0200001A83FF0DCFC01A982B2154828F008F82D
:10A030000FB0F0BD0320FFF703FE124910480522C0
:10A0400027F0FEFF0FB0F0BD0F490D48042227F0A6
:10A05000F7FF0FB0F0BD06F110001EF017FCA8E7E7
:10A060008CDC002004E00600486500209CDC002019
:10A07000C0DC002084DC0020CDDC0020B0D1060054
:10A0800024E00020B8D00600E8D406002DE9F04F07
:10A090001F4C85B004F26C4980464F4604F2444B95
:10A0A000A246032501AEFF220023CDF80880ADF8BB
:10A0B0000420039396E80E00384621F04FFD94F8F3
:10A0C0007E341348C4F8689401223946BBB920F0A5
:10A0D00059FD60B158461EF0D9FB0E4851461EF09E
:10A0E00055FE60B10C4B1C6005B0BDE8F08F034617
:10A0F00002463946064820F045FD0028EAD1642092
:10A1000033F01AFD013DCED1284605B0BDE8F08FF1
:10A11000486500208C6900206431012010B520487A
:10A12000204A037C002111705BBB1F4A1F4B002497
:10A1300014701C70FFF7E8FD1D4A1E4B1E4814707A
:10A1400021461C7027F086F91C482AF061F9F8B9FD
:10A15000194827F045FA194800212AF02FF9174825
:10A1600000212AF02FF901210C2037F03BF8144987
:10A17000144A15480023BDE810400B701370FFF718
:10A1800085BF10301EF082FB0320FFF759FDCCE79E
:10A190000A482AF071F9014608482AF057F9D7E72A
:10A1A0008CDC002080DC0020CDDC0020468C0020F0
:10A1B000A96B00204E8C00200C440120CC3D0120D6
:10A1C00088DC0020CCDC002080841E00F0B5244D0B
:10A1D000244F002387B028463B70FFF757FF044603
:10A1E00010B1204607B0F0BD1F4E0495FF23059027
:10A1F000ADF80C3006F26C4506AB13E90E002846AC
:10A2000021F0ACFC96F87E34C6F86854002BE8D1F7
:10A21000D6F86C3428469B6998470028E1D0D6F8D8
:10A220006814019123460122304620F0ABFC0199CD
:10A2300060B10E481EF02AFB0B4901F244401EF0AB
:10A24000A5FD50B10A4B04461E60CAE723462246CC
:10A25000304620F097FC0028EBD101233B70C0E78B
:10A2600080841E0069010120486500208C6900205F
:10A270006431012010B58AB000230C4A0C49ADF8B6
:10A28000043001A88DF806301EF036FD044650B9A2
:10A29000064A0849ADF8044001A801238DF806409C
:10A2A0001EF002FC044620460AB010BDDCE10600A8
:10A2B000486500208C6900202DE9F04F364E374F5D
:10A2C0003378FA5C89B052B3DFF8F080DFF8F0A0A1
:10A2D00004ADC3EBC30208EB420458F812006168F6
:10A2E000A268B4F80CB05AF823906C4607C44FF03B
:10A2F000000C83F0010E2A46A4F800B00E21684637
:10A30000C5E900CCC5E902CC07F803C086F800E037
:10A310000EF0A2FF48B93378FA5C002AD9D1204B5D
:10A320001B78DBB909B0BDE8F08F95E80F001D4C34
:10A3300084E80F001C4CBDF81E10C4F800901B4CA4
:10A340001B4801234A4623700EF0F2FF3378FA5C73
:10A35000002ABED1124B1B78002BE3D033F0E0FB78
:10A36000124B1A78034692B9024647F22F518A429D
:10A37000D8D9104C22689A1A8A42D3D90E48236041
:10A3800028F0C6FB00210C4828F0A0FBCAE7064ACB
:10A390001268821AE9E700BFD4690020A4AF002048
:10A3A000E67B0020D869002048AF0020A86B002081
:10A3B000DCBF0020486A002068440120ACAE0020C9
:10A3C00040AF002070B5144C237813B99FED130AE9
:10A3D00070BD134D2E6833F0A3FB014630460EF0DE
:10A3E00091FF0028F2D023781BB90E4B93ED000AA1
:10A3F00070BD2C6833F094FB014620460EF082FFBE
:10A400000028F2D033F08CFB014607480EF09AFF8B
:10A410000028EAD1DAE700BFA86B00200000C07F67
:10A4200048AF0020D8690020DCBF002070B5144C74
:10A43000237813B99FED130A70BD134D2E6833F0C6
:10A440006FFB014630460EF05DFF0028F2D0237806
:10A450001BB90E4B93ED010A70BD2C6833F060FB05
:10A46000014620460EF04EFF0028F2D033F058FB94
:10A47000014607480EF066FF0028EAD1DAE700BF80
:10A48000A86B00200000C07F48AF0020D8690020E2
:10A49000DCBF0020000000002DE9F0438A4C8B4A0D
:10A4A00094F828302DED0A8B0021ADF5217D117037
:10A4B000002B00F08B80864D2E6836B3854B94EDD3
:10A4C000042A1978D4ED052A94ED000B94ED021BB3
:10A4D000002940F0D98030468DED101B8DED0E0B1C
:10A4E000CDED132A8DED122A1AF06AFA9DED101B9C
:10A4F0009DED0E0BDDED132A9DED122A28681AF052
:10A50000B7FB94F82830002B60D0734B1B78002BDE
:10A510004AD0DFF8D88198F80030002B44D06F4F34
:10A520003B78002B5BD020693DF0E0FA02460B46F9
:10A53000A06943EC182B3DF0D9FA02460B4660693E
:10A54000D4F8249043EC1A2B3DF0D0FA5CA3D3E965
:10A5500000233DF023FB94ED00CB94ED02BB50AD06
:10A5600041EC190B284685ED089B85ED048B85EDA4
:10A5700006AB85ED00CB85ED02BBC5F828900DF04C
:10A58000B7FE002840F0BC80554D33F0C9FA2A6868
:10A5900042F21073801A984206D933F0C1FA03468A
:10A5A00050482B601EF07EFE60694F4C3DF09EFAD5
:10A5B00043A3D3E900233DF0F1FA3DF0E7FD20602D
:10A5C0000DF5217DBDEC0A8BBDE8F083424B1B7875
:10A5D000002BE9D0454B1B78002BE5D03F4F3B7853
:10A5E000002BE1D194F82930002BDDD0404D33F021
:10A5F00097FA2B68C01AB0F57A7FD5D333F090FA6A
:10A60000034601202B60FFF7FFFA0028CCD094F816
:10A610002D2094F82C3094F82F0094F82E100291ED
:10A62000CDE900320390334E638D334A502160A848
:10A630003FF0E2F860A906F1100040F201621EF05E
:10A6400063FB337C002B00F06C8150AD2846402228
:10A650000A213EF0DBF906F110084FF480663F2E28
:10A6600032462946404640F24D8140221EF07EFE91
:10A67000402840F05381403EF1D120491D4832F03E
:10A68000BFFA01233B708FE794F82F10638E94F884
:10A69000302094F82E00CDED132A8DED101B8DED9A
:10A6A0000E0B8DED122A0DF0ABFC9DED0E0B9DED0A
:10A6B000101B9DED122ADDED132A01460BE700BFAA
:10A6C0000B410E4A9869F23F80E00020B8E000207C
:10A6D000A8DD0020CCE00020780101206A010120E3
:10A6E000B0F00020C4DD0020F8E00020CCDE002027
:10A6F000B8F00020B4DD0020FCD106001CD206001A
:10A7000034AA0821B0EE4C0AF0EE6C0A012033F0B6
:10A71000F1F9B0EE4B0AF0EE6B0A3AAA08210120DB
:10A7200033F0E8F9B0EE4A0AF0EE6A0A012114AA01
:10A73000084633F0DFF9B0EE490AF0EE690A2CAAB8
:10A740000221012033F0D6F9B0EE480AF0EE680A93
:10A7500030AA0221012033F0CDF9E0693DF0C6F9BD
:10A7600017AA41EC100B0221012033F0C3F9206A33
:10A770003DF0BCF91AAA41EC100B0221012033F084
:10A78000B9F96A4B18683DF0B1F91DAA41EC100BFC
:10A790000321012033F0AEF9654B18683DF0A6F9AE
:10A7A00020AA41EC100B0321012033F0A3F9614BE7
:10A7B00018683DF09BF923AA41EC100B03210120FE
:10A7C00033F098F9FFF7FEFD10EE106AFFF72EFE4A
:10A7D000304610EE106A3DF089F941EC100B012172
:10A7E000084626AA33F086F926A80B210DF016FE9E
:10A7F000002800F0908030463DF078F941EC100BD5
:10A800000121084629AA33F075F929A80B210DF07A
:10A8100005FE00287CD034AB46933AAB479314AB8B
:10A8200048932CAB499330AB4A9317AB4B931AAB7D
:10A830004C931DAB4D9320AB4E9323AB46AE4F9341
:10A8400056F8040B14210DF0E9FD00283FF49CAEEE
:10A85000AE42F5D1384B1B78002B3ED1002001468B
:10A8600040AA18230DF0E6FC344B354D1A680892C7
:10A8700026A90C9123A90B9120A90A911DA9099140
:10A880001AA9079117A9069130A905912CA904913D
:10A890003AA9039134A929AB029114A9CDE90091F9
:10A8A0000D934FF48071274A40AB60A83EF0A4FF9F
:10A8B00060A9284632F014FA00287FF465AE2B7C9C
:10A8C00088F8000038700BB1FDF78AFA1E481DF0B9
:10A8D000DDFF0120FFF7B4F956E694F8302094F834
:10A8E0002F30608D618E0291CDE9003200F5FA6063
:10A8F00094F82E3094F82D2094F82C1080B20DF09E
:10A9000091FBADE71EF032FDB04207D1403EA6E616
:10A910000E4B29937FE70D4B26936CE70A481DF0F9
:10A92000B5FF0120FFF78CF93EE600BF7CD8002080
:10A9300080D8002084D80020CCE0002080010120B5
:10A94000B4DD0020CCD10600C4DD00206E616E00B5
:10A950002DE9F043B84EB94D33782A789A42A1B028
:10A96000D8B200F262812B78C31ADBB2002B00F060
:10A9700025812978B24A01F00F01012B52F82110EC
:10A98000009100F08D802978013101F00F01022B38
:10A9900052F82110019100F083802978023101F0F2
:10A9A0000F01032B52F82110029179D0297803313D
:10A9B00001F00F01042B52F82110039170D0297877
:10A9C000043101F00F01052B52F82110049167D0DA
:10A9D0002978053101F00F01062B52F8211005915D
:10A9E0005ED02978063101F00F01072B52F82110B3
:10A9F000069155D02978073101F00F01082B52F844
:10AA0000211007914CD02978083101F00F01092B52
:10AA100052F82110089143D02978093101F00F0133
:10AA20000A2B52F8211009913AD029780A3101F005
:10AA30000F010B2B52F821100A9131D029780B31DC
:10AA400001F00F010C2B52F821100B9128D029781E
:10AA50000C3101F00F010D2B52F821100C911FD079
:10AA600029780D3101F00F010E2B52F821100D91B4
:10AA700016D029780E3101F00F010F2B52F821105A
:10AA80000E910DD029780F3101F00F01102B52F8E3
:10AA900021100F9104D02B7803F00F0352F82330CC
:10AAA000DFF8B0C1DFF8C8E19CF800402870013B36
:10AAB000DBB201AA02EB8307DEF80000614A6B46B5
:10AAC000002C40F0EA80107800F0FF01002840F0F0
:10AAD000A18018680C460433BB4219D092F800805C
:10AAE0001968B8F1000F40F09A80A1EB00085648B1
:10AAF000A8F6B839814500F2908020A800EB8409BF
:10AB000004330134BB42084649F8408CE4B2E5D135
:10AB10000123CEF800008CF80030002C4ED0012C20
:10AB2000109B39D9119A022C134435D0129A032C58
:10AB3000134431D0139A042C13442DD0149A052CAD
:10AB4000134429D0159A062C134425D0169A072CA5
:10AB5000134421D0179A082C13441DD0189A092C9D
:10AB6000134419D0199A0A2C134415D01A9A0B2C95
:10AB7000134411D01B9A0C2C13440DD01C9A0D2C8D
:10AB8000134409D01D9A0E2C134405D01E9A0F2C85
:10AB900013441CBF1F9A9B1807EE903A07EE104A09
:10ABA000F8EE677AB8EE470AF7EE000A87EE800AF9
:10ABB0000EF00CFC254821460EF0D8FB244B1A78E9
:10ABC0001AB1244900220A701A70234A234B1468D0
:10ABD000DB68D90103D5224B1A68D2074AD434F076
:10ABE000B7F9204B204AA0FB0301830A43EA8153B3
:10ABF0001B1B934244D8154A1C4BD2ED007AB6EE8B
:10AC0000007A77EE877AFDEEE77AC3ED007A21B01D
:10AC1000BDE8F083186814705DE708465BE74FF005
:10AC20000008084682F8008055E72A7800F11003F2
:10AC30009B1ADBB29AE600BFC4010120C6010120C5
:10AC400084010120C6600020C8781E00BC6000207E
:10AC5000C5010120A98E00207C010120F0ED00E05B
:10AC6000001000E040420F0020A1070080010120F9
:10AC7000387C00205B680A4A9B091B1B9342BAD9A7
:10AC800008480EF06BFB084B084A01211970337815
:10AC90000021DBB22B701170ADE700241EE700BF6E
:10ACA00020A10700BC600020C6600020A98E002003
:10ACB00038B5234D2C782CB94FF08043D3F8383475
:10ACC000DB0701D4204638BD0520FEF79DFF002894
:10ACD000F8D01C48FFF7DAF910B91B48FFF7D6F98E
:10ACE0001A4BD3F8680403689B699847024600B37F
:10ACF0004FF400731648002121F014FE144801227D
:10AD0000002121F017FE124821F026FE044658B11A
:10AD1000104821F0AFFB322032F00EFF0D4821F039
:10AD2000ABFB01232B70CDE702460146084821F01A
:10AD300001FE0548FFF7AAF90520FEF781FFC1E7EC
:10AD4000B22C012000127A0080841E004865002089
:10AD500050AF00208C310120002238B51148124D2F
:10AD6000114621F0E7FD32F0DBFE044608E032F048
:10AD7000D7FE2B68C01A632808D8052032F0DCFE05
:10AD800032F0CEFE001BB0F57A7FF0D3074BD3F83C
:10AD900068040368DB699847322032F0CDFEFCF787
:10ADA00091FA00BF50AF0020C47B0020486500200E
:10ADB0002DE9F04F80468B4658F8043B98E8070091
:10ADC00093F83C4093B006AF0DF12409202C87E89E
:10ADD000070089E8070062D10CAC84E8070094E81A
:10ADE00007000FAC84E8070000900446002856D006
:10ADF0001D8F4FF6FF72954251D0DB6AE90903EBD4
:10AE0000C10105F07F05496811EBC50547D01099D0
:10AE1000EE880292481E22184FF0010A2C46039534
:10AE200004963546CDF8148001921E468846BAF144
:10AE3000000F11D1029B9D4231D0E80906EBC00002
:10AE400005F07F05446814EBC50428D08AF0010A98
:10AE5000E588BAF1000FEDD0207904283CD0052810
:10AE600036D002281FD0B8F1000FE3D12A464FF6A2
:10AE7000FF718A423346DDF81480DDE903560ED0B7
:10AE8000D00903EBC00002F07F02416811EBC20160
:10AE900005D00A79111F012925D9022A23D0584645
:10AEA00013B0BDE8F08F20463EF099FD4045C1D17A
:10AEB000B8F1000FDAD0009B013C581E10F8012FAA
:10AEC00014F8013F9A42B5D1019B8342F6D1CDE7F8
:10AED0002468E0880834E9E724682046002CE5D09F
:10AEE0003EF07DFDE2E798E807000CAC84E807003F
:10AEF00087E8070089E8070094E807000FAC84E8BA
:10AF00000700804600283ED0109C671E0744BB46C1
:10AF1000274654464FF6FF799A467CB94E4532D0C3
:10AF2000F3090AEBC30306F07F065D6815EBC6055F
:10AF300029D084F00104EE88002CEFD02B79042B6B
:10AF400027D0052B3ED0022B38D0002FE6D14FF66C
:10AF5000FF729642534616D0F20903EBC20306F085
:10AF60007F065A6812EBC60B99D09BF80430042B6D
:10AF70002CD0052B2DD0022B18BF4FF0000B5846BC
:10AF800013B0BDE8F08F4FF0000B584613B0BDE88A
:10AF9000F08F2D6828460DB13EF021FDB842BDD19D
:10AFA000002FD4D0681E08F1FF3313F8011F10F8EA
:10AFB000012F9142B2D15B45F7D1C8E728463EF058
:10AFC0000EFDEBE72D68E8880835E7E752F836B064
:10AFD00065E752F8363003F1080B60E72DE9F047DA
:10AFE000056804460E46002972D008463EF0F7FC7C
:10AFF0008046002D58D02B79202B55D1002E53D0D0
:10B000002B884FF6FF77BB424ED06268D2F82C9067
:10B01000D90909EBC10103F07F024B6813EBC203AE
:10B0200042D04FF0010ADD88BAF1000F10D1BD42C5
:10B030003AD0EA0909EBC20205F07F05536813EB29
:10B04000C50331D08AF0010ADD88BAF1000FEED0D5
:10B050001A79042A35D0052A2ED0022A27D00020BA
:10B0600004468045E3D1B8F1000F0BD0721E631E79
:10B0700002EB080112F8014F13F8010F8442D6D1F8
:10B080008A42F7D14FF6FF739D420DD0EB0909EBD1
:10B09000C30905F07F05D9F8040000EBC505281E9B
:10B0A00018BF0120BDE8F0870020BDE8F0871846F2
:10B0B0001C463EF094FCD4E71B68D88803F10804D2
:10B0C000CFE71C682046002CCBD03EF088FCC8E7B8
:10B0D00088468EE7000000008368002B00F0F680B1
:10B0E0001A79402A40F0F2802DE9F04F1B884FF684
:10B0F000FF77BB428FB01CD0D0E90324D56ADA09B0
:10B1000005EBC20203F07F03526812EBC30310D0B9
:10B11000DA881CB912E0013CDA880FD0D109BA42B2
:10B1200005EBC10102F07F0603D04B6813EBC603A9
:10B13000F1D19FED950B0FB0BDE8F08F143007C82B
:10B140001E7901AC84E80700202E04AC84E80700D7
:10B15000EFD194E8070007AC84E807000AAC84E864
:10B16000070082460028E4D018884FF6FF77B842DF
:10B17000DFD0C20905EBC20200F07F03506810EB7C
:10B18000C300D6D0DDF82C90C68809F1FF384FF007
:10B19000010BD044BBF1000F10D1BE42C9D0F2095F
:10B1A00005EBC20206F07F03506810EBC300C0D06D
:10B1B0008BF0010BC688BBF1000FEED00279042A98
:10B1C0007DD0052A77D0022A60D0B9F1000FE4D1F2
:10B1D0004FF6FF708642ACD0F20905EBC20206F0D2
:10B1E0007F03576817EBC301A3D00A7912F010044C
:10B1F0000CD037F83340844200F0C180E00905EB01
:10B20000C00504F07F006C6804EBC004023A1C2AFD
:10B210008FD801A050F822F0D7B2020033B102005B
:10B22000D3B2020055B302001FB3020033B10200D3
:10B2300033B1020033B102002DB3020033B102007A
:10B240003BB3020033B1020049B3020033B1020044
:10B2500033B1020033B1020033B1020033B1020056
:10B2600033B1020033B1020033B1020033B1020046
:10B2700033B1020033B1020063B3020033B1020004
:10B2800071B3020033B102005DB3020004463EF028
:10B29000A6FB484581D1B9F1000F99D0601E0AF193
:10B2A000FF3212F8014F10F8011F8C427FF475AF86
:10B2B0009045F6D18CE70468E0880834E9E7046833
:10B2C0002046002CE5D03EF08AFBE2E79FED2E0BF6
:10B2D000704757F833100AA8FDF71CFA9DF828307C
:10B2E000013B032B3FF625AFDFE803F0130C05020B
:10B2F0009DED0C0B1FE7DDE90C013CF019FC41EC66
:10B30000100B18E7DDE90C013CF01AFC41EC100BC6
:10B3100011E70C983CF0EAFB41EC100B0BE717F837
:10B3200033003CF0C1FB41EC100B04E757F833004D
:10B330003CF0BAFB41EC100BFDE657F833003CF053
:10B34000C3FB41EC100BF6E608683CF0CFFB41EC88
:10B35000100BF0E657F833100831BCE794ED000B02
:10B36000E9E6D4E900013CF0E3FB41EC100BE2E636
:10B37000D4E900013CF0E4FB41EC100BDBE60024D7
:10B3800044E700BFAFF300800000000000000000B1
:10B390002DE9F04F00F10C02034607CAD3E901463C
:10B3A0008FB001AB83E80700002C74D093E807004E
:10B3B000257904AB202D83E807006CD107AB0AAFD9
:10B3C00083E8070087E807008246002863D02088CA
:10B3D0004FF6FF7840455ED0D6F82C90C20909EBB5
:10B3E000C20200F07F03506810EBC30053D04FF04F
:10B3F000010B0B9EC588BBF1000F10D145454AD00B
:10B40000EB0909EBC30305F07F05586810EBC50095
:10B4100041D08BF0010BC588BBF1000FEED0037952
:10B42000042B56D0052B50D0022B39D0002EE5D15D
:10B430004FF6FF7085422ED0EB0909EBC30305F0F0
:10B440007F055C6814EBC50125D00B7913F0100261
:10B450000DD034F83520824200F09780D00909EBF6
:10B46000C00902F07F00D9F8042002EBC002023BC1
:10B470001C2B10D8DFE803F0360F34595D0F0F0F87
:10B48000640F6B0F720F0F0F0F0F0F0F0F0F0F0FB8
:10B49000780F7F0F86009FED3E0B0FB0BDE8F08F59
:10B4A00004463EF09CFA8642A8D1002EC0D00AF194
:10B4B000FF33601E9A1901E09A42B9D013F8014F88
:10B4C00010F8011F8C42F7D098E70468E088083430
:10B4D000E9E70468002CA9D020463EF080FAE2E7B4
:10B4E00054F835103846FDF715F99DF82830013B22
:10B4F000032BD0D8DFE803F0130C05029DED0C0BF5
:10B50000CBE7DDE90C013CF013FB41EC100BC4E789
:10B51000DDE90C013CF014FB41EC100BBDE70C988D
:10B520003CF0E4FA41EC100BB7E754F83510083161
:10B53000D8E714F835003CF0B7FA41EC100BACE753
:10B5400054F835003CF0B0FA41EC100BA5E754F884
:10B5500035003CF0B9FA41EC100B9EE708683CF06E
:10B56000C5FA41EC100B98E7D2E900013CF0E0FA93
:10B5700041EC100B91E7D2E900013CF0E1FA41EC1B
:10B58000100B8AE792ED000B87E700226FE700BF00
:10B5900000000000000000002DE9F04F85B004AC71
:10B5A00004E90E00DDF80480B8F1000F47D00088F0
:10B5B0004FF6FF76B04242D00E9BD3F82C90C209D2
:10B5C00009EBC20200F07F03506810EBC30036D0D5
:10B5D000029DB0F806B06F1E4FF0010A4744BAF161
:10B5E000000F12D1B3452AD04FEADB1309EBC30396
:10B5F0000BF07F0B586810EBCB0020D08AF0010ACB
:10B60000B0F806B0BAF1000FECD00379042B31D0BA
:10B61000052B2BD0022B16D0002DE3D14FF6FF7354
:10B620009B450CD04FEADB1309EBC3090BF07F0BF2
:10B63000D9F8040000EBCB0005B0BDE8F08F002086
:10B6400005B0BDE8F08F04463EF0C9F9A842C9D163
:10B65000002DE3D0601E08F1FF3313F8011F10F82E
:10B66000012F9142BED19F42F7D1D7E70468E0880D
:10B670000834EBE704682046002CE7D03EF0AFF931
:10B68000E4E700BF2DE9F04184B0064604A800E9D4
:10B690000E003068DDE90187A8B17D1E4544C388EE
:10B6A000BB420DD1002F56D008F1FF33C21D01E07F
:10B6B000AB4250D013F8014F12F8011F8C42F7D063
:10B6C00000680028EBD1B7F5803F4AD20A9B2E4A8A
:10B6D0001B681B68934207F1090046D132F048FA13
:10B6E00000283ED00123C780838000F108054FB3B6
:10B6F00000F10C0108F10402954238BF884507F1BA
:10B70000FF3336D3072B34D927F003044444434690
:10B710002A4653F8041B42F8041BA342F9D1BA0786
:10B7200027F003030ED018F80320EA545A1C97425E
:10B7300008D9023318F80210A9549F4202D918F808
:10B740000320EA54074400233B72336803603060EF
:10B7500004B0BDE8F08183880133838004B0BDE884
:10B76000F081002004B0BDE8F08101460A989847B6
:10B77000B6E74344C21D08F1FF3818F8011F02F86C
:10B78000011F9845F9D1DDE7ED750200437DDBB17E
:10B79000037D202B12D8DFE803F01F1111111111C6
:10B7A000111111151511111511111111111111117D
:10B7B0001111111111111111111115000123037330
:10B7C000002070470023437503695A1C02611B78EF
:10B7D000037501224275DCE7037B002B14BF0220B6
:10B7E000012070472DE9F04F437D85B00446002BC2
:10B7F00000F0FD80057DDFF878B300221346627506
:10B800000092CBB1267D0023B54263751DD0002E7A
:10B8100000F0E9805C2E20D067686FB1A168FB88DA
:10B82000994200F0B0800F440131A1603E72637D07
:10B83000E7E7C2F30903009323695A1C22611E78CB
:10B8400026750023B5426375E1D16368002B14BFF0
:10B850000020042005B0BDE8F08F2269511C216151
:10B860001178217501206075002900F0BC807529D0
:10B8700010D0BD4A2F2304E012F8023F002B00F045
:10B88000AE808B42F8D15678002E00F0A8800023BD
:10B890006375C1E7911C63752161537823756075E9
:10B8A000002B00F0A080402B86BF23F02003A3F1E3
:10B8B0003701A3F13001C8B20F2800F290800021B7
:10B8C000D31C61752361917821750123637500296B
:10B8D00000F08980402986BF21F0200137393039B6
:10B8E000C9B20F297BD80026131D66752361D37852
:10B8F0002375012641EA00116675002B73D0402B99
:10B9000086BF23F02003373B303BDBB20F2B66D8DA
:10B9100000206075501D20611279227543EA0113E1
:10B9200001211BB26175002A5DD0402A86BF22F03A
:10B930002002373A303AD2B20F2A50D842EA0313E3
:10B940009AB202F5205189B20020B1F5806F1EB283
:10B950006075FFF46EAF02F510539BB2B3F5806FC4
:10B960004FD37F2A00F2A1806768002F3FF464AFB5
:10B97000A368FA88934200F0DA801F440133A36081
:10B980003E72637D3DE7D4F800A04900DAF80090EC
:10B9900001F10108B8F5803FD9F8003012D29B6858
:10B9A000724A934201F10A0140F0A28038463DF00C
:10B9B0000BFF28B1A0F80680A1686060074632E757
:10B9C000D9F800305B685B4517D1384632F0EAF8A9
:10B9D00001238AF804300022637D626011E70320AE
:10B9E00005B0BDE8F08F022005B0BDE8F08F036917
:10B9F0005A1C02611D780575FDE639464846984790
:10BA0000E6E7C2F30903009A8DF8080043EA8223AF
:10BA100003F58032C2F30531C2F3874242F0F007EA
:10BA200003F03F02C3F3851361F07F0162F07F02F0
:10BA300063F07F038DF80B108DF80C708DF80920E2
:10BA40008DF80A300DF10D0808F1FF3808E01E44AA
:10BA50000133A360377218F8017D002F3FF4E7AE81
:10BA60006668002EF7D0A368F2889342EFD15A009F
:10BA7000D4F800A002F10109B9F5803FDAF80030EE
:10BA800028D21968886802F10A01384A904284462F
:10BA900045D1304601933DF097FE019BD0B1A0F80F
:10BAA0000690A36860600646D1E706F03F0363F0A6
:10BAB0007F03B2F5006F8DF809308DF808004FEA6A
:10BAC00092131AD263F03F03DFB28DF80A700DF1C2
:10BAD0000B08B9E71A6852685A451CD1304632F053
:10BAE00061F800234FF001028AF804206360B2E796
:10BAF0000A464846394698475BE703F03F029B11E8
:10BB000062F07F0243F0E0078DF80A208DF80B7099
:10BB10000DF10C0898E7314618469047E1E70A46D0
:10BB200018460193314663469847019BB6E7D4F81F
:10BB300000905A00D9F8008002F1010ABAF5803F5E
:10BB4000D8F8003018D29B6808498B4202F10A02EB
:10BB50001FD1114638463DF037FE58B1A0F806A077
:10BB6000A3686060074608E7A8D20600DD750200FA
:10BB7000E5750200D8F800305B685B450DD13846AA
:10BB800032F010F8012389F804300022637D6260EE
:10BB900037E6394640469847DFE7394640469847FA
:10BBA000F0E700BF2DE9F04F427D8DB004460D4611
:10BBB000002A76D0027D202A12D8DFE802F07A111E
:10BBC0001111111111111170701111701111111148
:10BBD0001111111111111111111111111111700007
:10BBE00001217B2A217300F260815A2A42D9A2F1F5
:10BBF0005B01202900F25981DFE811F0C0005701F4
:10BC00005701570157015701570157015701570174
:10BC100057011C015701570157015701570157019F
:10BC200057012100570157015701570157013A01A8
:10BC30005701570157015701570157016400CF4978
:10BC40001346002001259A4240F0718111F8013F0E
:10BC50006075002B00F088812269561C26611278DD
:10BC600022756575002AEED14FF0020840460DB0EE
:10BC7000BDE8F08F222A02D0272A40F0168163689F
:10BC80000022A260002B00F047822046FFF7AAFDA9
:10BC9000804698B929462046FCF7EAFB0EE00022D0
:10BCA00062752269511C216112782275012161752A
:10BCB00081E7237B002BD7D14FF0010840460DB020
:10BCC000BDE8F08FDEB220224FF0FF332A712B60E7
:10BCD000002E00F04F810023226963751946012070
:10BCE0001346013222611B7823756075202B00F208
:10BCF0008D8101A757F823F069BC02000DC0020036
:10BD00000DC002000DC002000DC002000DC00200F7
:10BD10000DC002000DC002000DC0020085C102006E
:10BD200085C102000DC002000DC0020085C10200E5
:10BD30000DC002000DC002000DC002000DC00200C7
:10BD40000DC002000DC002000DC002000DC00200B7
:10BD50000DC002000DC002000DC002000DC00200A7
:10BD60000DC002000DC002000DC002000DC0020097
:10BD70000DC002000DC0020085C1020040214FF03D
:10BD8000FF32DBB229712A60002B00F0F380002122
:10BD9000226961750846012611460132226109783F
:10BDA00021756675202900F2EF8001A757F821F070
:10BDB00069BC020089BF020089BF020089BF02007E
:10BDC00089BF020089BF020089BF020089BF02004B
:10BDD00089BF020089C1020089C1020089BF020037
:10BDE00089BF020089C1020089BF020089BF020029
:10BDF00089BF020089BF020089BF020089BF02001B
:10BE000089BF020089BF020089BF020089BF02000A
:10BE100089BF020089BF020089BF020089BF0200FA
:10BE200089BF020089BF020089BF020089BF0200EA
:10BE300089C1020000232B70637D06212971002B2C
:10BE400000F0BC81237D4E49002B3FF40DAF9A4298
:10BE50006DD111F8012F00236375002A00F0848052
:10BE60002369581C20611B78237501206075EBE75E
:10BE700001232B70637D06212971002B00F0A08126
:10BE8000237D4049002B3FF4EFAE9A424FD111F889
:10BE9000012F00236375002A66D02369581C206196
:10BEA0001B78237501206075ECE700239E4604F1A2
:10BEB0001B014FF0010C15E0392A03D902F0DF0015
:10BEC000452817D13F2B03F1010013D084F815E06A
:10BED00001F8012F2269C3B2501C2061127822752B
:10BEE00084F815C02F2AE7D82B2AA2F12D00E9D01B
:10BEF0000128E7D9234400221A7704F11C0108A87D
:10BF0000FCF708FC9DF8208008F1FF33032B0ED8C6
:10BF1000DFE813F0130127011A011300392940F259
:10BF200096805E2940F28E807A2940F290804FF010
:10BF3000030840460DB0BDE8F08FDDE90A673946D9
:10BF400030463CF023F982463BF0D0FD02460B46DA
:10BF5000304639463CF08AF88146002800F0678177
:10BF60000E23C5F800A02B714FF0000840460DB01D
:10BF7000BDE8F08F4FF00508A0E600BFCCD2060068
:10BF8000C4D20600BCD2060001225D29227339D03A
:10BF90005E1E17464FF6FF79D4F8188008A8414670
:10BFA000FCF7A4F80899002900F072816B88BDF8AD
:10BFB00024204B4500F00981D8F82C004FEAD31C0F
:10BFC00000EBCC0003F07F03406800EBC303DA8092
:10BFD0006A8033464FF000022046FFF7E3FD8046BB
:10BFE00000287FF46BAE2046FFF7D0FB8046002888
:10BFF0007FF464AE637D002B00F0EE80237D5D2B2B
:10C0000040F0D68000206075804657E601227D2BE7
:10C010002273F7D0DFF81493DFF814A300276368C6
:10C02000A760002B00F0F180637D002B00F0AE8054
:10C03000217D272900F0B480222900F0B1802F292A
:10C040003FF66CAFA1F14103192B3FF670AF4FF0F3
:10C05000010867752046FCF7A3FA637D002B00F00A
:10C060001D81217D2F29A1F1410300F2C480192BEC
:10C07000EFD96368002B00F00B812046FFF786FBA9
:10C08000804600287FF41AAE637D002B00F0AB8061
:10C09000237D3A2B7FF44BAFD4E90132134467750B
:10C0A0001F72D4E90132D4F818B08DF82870083323
:10C0B00008930992CDF800B008AB0ECB2846FFF7E5
:10C0C0006BFA59468046002800F0F880FCF7B2FA77
:10C0D0004146731E4FF000022046FFF763FD804685
:10C0E00000287FF4EBAD2046FFF750FB8046002888
:10C0F0007FF4E4AD637D002B00F0D880237D7D2BA1
:10C1000080D02C2B7FF413AF67752046FFF73EFBE2
:10C110008046002883D0D1E52668844A30680368C9
:10C120001B68934240F0B780282031F021FD0028A1
:10C1300048D07F4B43606060A7E50A9A2A600E23CF
:10C140002B714FF00008B9E5DDE90A67012F08BF40
:10C15000002E80F08D800A232E602B714FF0000896
:10C16000ACE5DDE90A9A19F100464AF10007012F12
:10C1700008BF002E6CD20C23C5F800902B714FF035
:10C1800000089BE56175ABE5607505E623695A1CFF
:10C190002261197821750123272963757FF44CAF3B
:10C1A0002046FFF71FFB804600283FF466AF85E579
:10C1B0002C2B7FF4BCAE00236375EDE65D494FE6A2
:10C1C0005D496AE601233371B5E7002362F30F038B
:10C1D00062F31F432B60FCE623695A1C22611B7823
:10C1E000237567750BE723695A1C22611B78237539
:10C1F000012262754DE739297FF62BAF5E297FF664
:10C2000036AF7A297FF625AF33E7D4F80080D8F827
:10C21000000003681B684B4540F08280282031F005
:10C22000A7FC002878D0C0F804A06060FCE6A169F3
:10C2300006A8FCF73FF8069B002B3FF43FADBDF886
:10C240001C202A801E212971C846C3E9006735E5F4
:10C25000A16906A8FCF72EF8069BCBB1BDF81C20FF
:10C260002A801C2129714FF00008C3E9009A25E5B6
:10C27000A16906A8FCF71EF8069B4BB1BDF81C206F
:10C280002A801A2129714FF00008C3E9006715E5DB
:10C290004FF0040812E52821984748E723695A1C03
:10C2A00022611978217584F81580DBE623695A1C10
:10C2B00022611B7823750122627520E704A8FBF731
:10C2C00015FF049B002BE3D0594606A80393FBF708
:10C2D0000DFFDDF81880B8F1000FD9D0039BBDF831
:10C2E0001C10D9806A88BDF814004FF6FF7C6245A7
:10C2F00019D0DBF82CC04FEAD21E0CEBCE0C02F0AA
:10C300007F02DCF804C00CEBC202D08069801946C1
:10C310002046FCF7ADF8DBE6012388F8043084E71B
:10C32000282198477DE728806980F0E7ED750200B5
:10C3300001001F00C4D20600BCD206002DE9F04F58
:10C34000038E9BB00746044657F80CBBADF804209B
:10C35000884600F1380903B30026C36AB2460BE0F1
:10C3600031F020FCE36AC5F800A0208EC5F804A0D7
:10C370000136B1B2884211D9B5B203EBC50569687F
:10C3800008460029EFD0DBF80030374A5B6893425B
:10C39000E6D058469847E36AE5E7C36A00204FF6BF
:10C3A000FF719F422086A1860BD0DBF800102E4D36
:10C3B0004E68AE424DD1184631F0F4FB0423E762DB
:10C3C0006386A16826680023237161B1264D336816
:10C3D0000A685B68A260AB4208462DD131F0E2FBEF
:10C3E000A1680029F3D1002584F83C509DF8053060
:10C3F0008DF8185049464FF0000203A8CDE90455C6
:10C400008DF821500394CDF81C800994FFF7CAFBE6
:10C41000054610B99DF82050A5B9049840B1039B7A
:10C4200011491A6813685B688B4216D131F0BAFB68
:10C4300028461BB0BDE8F08F30469847A168002918
:10C44000C5D1D0E794F83C5015F0080518BF032576
:10C45000E3E719465846B047B0E70146104698470B
:10C4600028461BB0BDE8F08FE57502002DE9F04FBE
:10C47000002193B09448DFF878A21CF0ADFD04E0F1
:10C48000013492482C601CF001FA8F498F48002239
:10C490001CF070FE8046002800F00C818C4D2B684B
:10C4A000C72B00F3048103A9884819221EF0B8F8AD
:10C4B00003A82E213DF0C0FA08B1002303702C68B8
:10C4C000844BDFF830B204EB440204EB82021344E5
:10C4D0000C220DEB020118463DF09BFADBF8002020
:10C4E0000026C72A0673CBDC7B4C7848214640F6F1
:10C4F000FF721CF069FC002801DC2C68C0E7774F54
:10C5000026543B8E3A68002B00F08D81CDF80480D4
:10C51000FB6A3446B14690460BE031F043FBFB6AC0
:10C52000C6F80090388EC6F804900134A1B2884253
:10C530000FD9A6B203EBC606716808460029EFD0F2
:10C54000D8F800305B685345E7D040469847FB6A0F
:10C55000E6E74246DDF80480614C00213986A342BB
:10C560004FF6FF71B9860AD011684E68564540F003
:10C570004981184631F016FB0423FC627B86B868BB
:10C580003C6800233B7158B1236802685B68BA605D
:10C59000534540F0848031F005FBB8680028F3D1A2
:10C5A0000A238DF809300023029A4B494B4887F83B
:10C5B0003C30FFF7C3FEC0B200289ED197F83C3054
:10C5C000202B00F09B80402B97D13B8F4FF6FF74C0
:10C5D000A34292D0FE6ADA0906EBC20203F07F039F
:10C5E000526812EBC30388D0DA88D309A24206EB63
:10C5F000C30302F07F0100F1010003D05B6813EB7D
:10C60000C103F1D100283FF478AF364BDFF8E89052
:10C610000D970AA84FF000080B260124CDE90E83E0
:10C62000CDF8309010968DF84440FEF755FD2E4B16
:10C63000CDF830900AA8CDF8388010968DF8444097
:10C640000D970F9357EC106BFEF746FD0022002369
:10C650003046394659EC108B3BF008FD40B10022C2
:10C660000023404649463BF001FD00287FF445AFDA
:10C67000DBF800401D4B04EB440203EB021303A95B
:10C680001F2218463DF0C5F9621C0021C0E9086769
:10C69000C0E90A892C68CBF80020C177F0E6014692
:10C6A00020469847B86800287FF46EAF78E70748BF
:10C6B0001CF0ECF804481CF0E9F80420FDF7C0FA7F
:10C6C000012013B0BDE8F08FE0010120E0DE002082
:10C6D0005CFD0020C0F00020C46B002004C00020DE
:10C6E00010C00020D4D20600E0D206009806012037
:10C6F000E5750200182C01203CC000203B8F4FF64E
:10C70000FF7293423FF4F9AED7F82C90D80909EBA9
:10C71000C00003F07F01436813EBC1033FF4EDAEAB
:10C72000DE88B8F1000F14D196423FF4E6AEF1096D
:10C7300009EBC10106F07F064B6813EBC6033FF41B
:10C74000DCAE88F001085FFA88F8DE88B8F1000FE7
:10C75000EAD0197904295DD0052957D00229E3D1FF
:10C7600018461C463DF03BF94FF6FF720728DBD117
:10C770002378632BD8D163786F2BD5D1A378752B11
:10C78000D2D1E378722BCFD12379732BCCD16379BB
:10C79000652BC9D1A379732BC6D14FF6FF739E4287
:10C7A0003FF4ABAEF30909EBC30306F07F065B6809
:10C7B00013EBC6043FF4A1AE2279402A7FF49DAE6C
:10C7C00033F836304FF6FF7C63453FF496AEDA0916
:10C7D00009EBC20203F07F03526812EBC3033FF47C
:10C7E0008CAED9880026CA09614509EBC20201F066
:10C7F0007F0006F1010618D0536813EBC00314D074
:10C80000D988F0E719461046B047B5E61C68E088BD
:10C810000834ABE71C68002C86D020463DF0DFF8DA
:10C820004FF6FF72A2E7FB6A96E6002E3FF465AE74
:10C830000C4B0C940AA84FF000094FF00B0801268E
:10C84000CDE90F38CDE90D798DF84460FEF744FC51
:10C85000054BCDF838900AA8CDF840808DF844609B
:10C860000C94EDE6D4D20600E0D2060010B5042008
:10C870008AB0FDF7C9F908B90AB010BD0023154AFE
:10C880001549ADF8043001A88DF806301CF034FAD3
:10C89000044680B90F4A1149ADF8044001A80123AC
:10C8A0008DF806401CF000F928B90420FDF7C8F9FE
:10C8B00000200AB010BD0A4C0A4B06490A48002263
:10C8C00022601A601CF020FA0028EED0FFF7CEFD9F
:10C8D0000AB010BDDCE10600486500208C6900202C
:10C8E0005CFD0020182C0120E0010120F0B54D4E28
:10C8F0004D4D33882B789BB0002B68D1032003F07B
:10C90000FF07FDF781F90446002855D0474B484AF8
:10C91000322168463CF070FF464A4749ADF8347012
:10C920003B460DA88DF836701CF0E6F9044648B970
:10C93000ADF834003F4A41498DF8364001230DA837
:10C940001CF0B2F800243C49ADF8344023466A4656
:10C950000DA88DF836401CF0CFF9002852D10023E5
:10C960004FF47A71364C0E93ADF844308DF8463062
:10C970000F916A4630490D9411A844F202231CF02D
:10C98000BBF99DF84440002C36D032882D4992B234
:10C9900011A81CF0EBFC044611A81BF077FF032044
:10C9A000FDF74EF933889BB2A3421DD02649274894
:10C9B0000F2225F045FB0FE025490C22234825F0E6
:10C9C0003FFB244A244B14701C701BB0F0BD23495C
:10C9D0001E480E2225F034FB1E491F4A00230B700F
:10C9E00013702B701BB0F0BD1D491848032225F0B1
:10C9F00027FBFFF73BFFEFE70320FDF721F9124983
:10CA00000F22DBE70C49ADF8344001236A460DA83C
:10CA10008DF836401CF070F90028A0D00DA81DF04C
:10CA2000DBF99CE7448C0020E37B0020908E002003
:10CA3000FCD20600DCE10600486500208C6900207D
:10CA400004E00600447C002008D3060024E0002017
:10CA50006CD10600407C00208D8E0020ECD20600B8
:10CA600018D3060030B5032097B0FDF7CDF80028A5
:10CA700036D00024274B284A322109A83CF0BCFEBE
:10CA80002649ADF8004009AA234668468DF80240C1
:10CA90001CF032F90546B8B12049ADF8004009AAAA
:10CAA000012368468DF802401CF026F910BB0320D4
:10CAB000FDF7C6F81A491B480F2225F0C1FA1A4B98
:10CAC00000221A7017B030BD0320FDF7B9F81749DE
:10CAD00014480C2225F0B4FA134B1D7017B030BD6A
