:020000022000DC
:1070000000000420A1CC0600E1CC0600E3CC060081
:10701000E5CC0600E7CC0600E9CC06000000000045
:107020000000000000000000000000001DCC060071
:10703000EDCC0600000000003DCC0600F1CC0600BF
:10704000FDCE0600F3CC060085A3060005E604008D
:10705000BDE60400F3CC06005DA60600F3CC0600F6
:10706000F3CC0600F3CC0600F3CC0600F3CC06000C
:10707000F3CC0600F3CC0600F3CC0600F3CC0600FC
:10708000F3CC06006DC90600F3CC0600F3CC060075
:10709000F3CC0600F3CC0600850A0600F3CC06000C
:1070A000F3CC0600F3CC060005BB0300F3CC0600CE
:1070B000F3CC0600F3CC0600000000000000000046
:1070C000F3CC0600F3CC0600F3CC0600E5D40600B2
:1070D000F3CC0600F3CC0600F3CC06000D910500BE
:1070E000F3CC0600F3CC0600F3CC06000000000051
:1070F00000000000F3CC0600000000005DD5060093
:10710000000000000000000000000000000000007F
:10711000000000000000000000000000000000006F
:10712000000000000000000000000000000000005F
:10713000000000000000000000000000000000004F
:10714000000000000000000000000000000000003F
:10715000000000000000000000000000000000002F
:10716000000000000000000000000000000000001F
:10717000000000000000000000000000000000000F
:1071800000000000000000000000000000000000FF
:1071900000000000000000000000000000000000EF
:1071A00000000000000000000000000000000000DF
:1071B00000000000000000000000000000000000CF
:1071C00000000000000000000000000000000000BF
:1071D00000000000000000000000000000000000AF
:1071E000000000000000000000000000000000009F
:1071F000000000000000000000000000000000008F
:10720000F1EE103A43F08073E1EE103A704700BFA0
:1072100010B5054C237833B9044B13B10448AFF3D0
:1072200000800123237010BDCC6600200000000008
:107230001408080008B5034B1BB103490348AFF31A
:10724000008008BD00000000D0660020140808007F
:10725000154B002B08BF134B9D46A3F5803A002128
:107260008B460F461348144A121A4EF037FA0F4B4A
:10727000002B00D098470E4B002B00D098470020E1
:10728000002104000D000D48002802D00C48AFF387
:1072900000804EF063F92000290045F059FD4EF0C2
:1072A00037F900BF000008000000042000000000C3
:1072B00000000000CC660020A4AC0120000000000B
:1072C00000000000BFF34F8F0549064BCA6802F467
:1072D000E0621343CB60BFF34F8F00BFFDE700BFF9
:1072E00000ED00E00400FA0535DF704733DF70473A
:1072F0003CDF70473DDF704741DF704711DF70476B
:1073000012DF70470020704701207047012070474E
:10731000704700BF704700BF704700BF704700BF95
:10732000024B02F001021A70704700BFFD7B002083
:1073300070B50446C0694E4D4DF0D2F94AA3D3E969
:1073400000234DF037FA02460B46A069C5E9002339
:107350004DF0C6F944A3D3E900234DF02BFA94ED88
:107360000F7AB4F84C30DFED437A9FED435A9FED2E
:10737000434ADFED434AF8EEC75A94ED107A06EE21
:10738000103AF8EEC76A94ED0A7AB8EE466AB8EE9B
:10739000477A66EEA76A65EE845A26EE246A27EEDF
:1073A000057AC5ED055A85ED066AC5ED076A85EDD6
:1073B000087AE37DD4ED097A6B62237DF8EEE77AF3
:1073C000012B88BF637DC5E9020167EE857A8CBF1A
:1073D00003F001030023C5ED047A85F82830E37A31
:1073E00003F00302A2F10300B0FA80F0C3F38001BE
:1073F0004009032A85F82A0085F82B1003F00403BE
:107400002DD1003B18BF0123A28885F82930A2F5B1
:10741000FA63AB85A37985F82E30E37985F82F30B0
:10742000237A85F83030637A85F83130A37A85F88D
:1074300032302268134B1449144C1548A3FB0263E5
:1074400001260E709B094FF47A7101FB132321680A
:107450000268AB86314432442160026070BD002373
:10746000D2E700BFAFF3008048AFBC9AF2D77A3EB4
:10747000081E0120ACC527376F12833AA8C8FE3A10
:107480000AD7233CD34D6210401E0120581E012014
:10749000441E0120024B034AC3F800260120704716
:1074A000000001403546526E024B0349C3F80016F6
:1074B00010467047000001403546526E704700BFCD
:1074C000037C13F0080306D0C36A406A181A48BF49
:1074D0006FF0004070471846704700BF2DE9F84F25
:1074E0004AB3C2F3080315462BBBDFF85480DFF81C
:1074F0005490012306460F4688F800304FEA522A7E
:107500000324D9F8680403683A46D3F814B0314626
:107510005346D847013C20B914F0FF04F1D14FF095
:10752000FF3543F007F9054A0023106088F8003062
:107530002846BDE8F88F4FF0FF35F9E7E86B0020EB
:10754000DC7C0020E86600202DE9F84F4AB3C2F346
:10755000080315462BBBDFF85480DFF85490012355
:1075600006460F4688F800304FEA522A0324D9F81D
:10757000680403683A46D3F824B031465346D847E6
:10758000013C20B914F0FF04F1D14FF0FF3543F076
:10759000D1F8054A0023106088F800302846BDE87D
:1075A000F88F4FF0FF35F9E7E86B0020DC7C002016
:1075B000E866002010302EF049B900BF10302EF0E0
:1075C000A9B900BF00B583B00B4601220DF1070138
:1075D00010308DF807302EF09DF903B05DF804FBF4
:1075E00000B587B00346064A684618214EF06CFF86
:1075F000694682B2034836F0F7FF07B05DF804FB36
:10760000489F0700B01D012010302DF09BBE00BF29
:1076100000B583B001220DF1070110302DF0C0FD3F
:1076200001280CBF9DF807004FF0FF3003B05DF854
:1076300004FB00BF084643F0BFB800BF0846114630
:107640004EF02ABF084643F09DB800BF10B50E4C5F
:1076500084B0227801A8092119F0CAF823780233EE
:107660002370024670B1094B1B7803F0FF004BB149
:10767000074B1B7803F0FF0023B1064892B201A923
:1076800036F0B2FF04B010BD72E70020387C002055
:10769000FD7B0020407D00202DE9F0434779402FFD
:1076A0003946A1B028BF40219FB30023E9464A468E
:1076B0009C461F46054603EB4304AE7A167000EB6A
:1076C00084040133247C14F0080FC4F3C00818BFED
:1076D000013782F801805FFA83FE05F10C0502F1A3
:1076E000020218BFFFB21EB10CF1010C5FFA8CFC54
:1076F0007145E0D8084B094C1F70094A84F800C056
:10770000484610231BF02CFA064B187021B0BDE838
:10771000F083BC46E946EDE7711E0120701E012092
:10772000601E01205C1E0120174BDB68D90110B5DB
:1077300003D5164B1A68D2071FD444F013FA144B22
:10774000A0FB0301830A43EA8153124912480A68E5
:1077500000689A1A90420FD810480B6002781049BE
:107760000132097802F00F02914209D001780D4CE4
:10777000C9B244F82130027010BD5B689B09E4E790
:10778000094B01221A7010BDF0ED00E0001000E07E
:1077900040420F002C3F012048610020743F01202F
:1077A000763F0120343F0120753F012038B5104C51
:1077B000104DD4F8680403680122DB692A709847E9
:1077C00094F82430DB070CD400224FF0FF3384F808
:1077D0002420236342F0AEFF074A002310602B7081
:1077E00038BD04F1240030F067FD0028ECD1F1E74A
:1077F000E8660020DC7C0020E86B002070B58AB0D1
:107800001F22014600921A4802ABFF2237F082FC89
:107810000D280AD8174B1B782BB1174B1B7813B9BF
:10782000134837F05DFC0AB070BD0446014602A85B
:107830001BF0D2FB0028EDD0104E11483578102CEB
:1078400028BF1024E4B2224602A900EB05104DF037
:107850001DFFEDB20B4B5C5542F06CFF0A4C0B4A1E
:1078600044F82500012185EA010351553370D1E721
:10787000888A0120F93A0120E36B0020E46B0020A4
:10788000D8E60020F8E6002074E70020D8E70020C2
:1078900010B5034B036004461DF0B8FA204610BD36
:1078A00018B4070008B50D4B1B7813B10C4B586882
:1078B00008BD0C4BDB68D90106D5094B1A68D20705
:1078C00002D55868800908BD44F04CF9064BA0FB6E
:1078D0000301830A43EA815008BD00BFD66B002034
:1078E000001000E0F0ED00E040420F000F49097881
:1078F00002290AD1F8B50E4E0E4F3578EDB21C466E
:107900007B5D0BB9202C01D9F8BD70470A481146A0
:1079100000EB451022464DF0B9FE0848E3B243554E
:10792000012185EA010279553270F8BD111A012052
:10793000FC7B002038F8002030E7002070E70020B2
:10794000F0B5234B234E0446002914BF1946314697
:10795000214887B041F0CEFE204B1B68A3422DDDAD
:107960001F4B04EB440403EB041420464EF09FFE2F
:1079700021460546132201A84EF0B3FE0027164803
:107980008DF8177001A941F0B5FF132D04D81248E6
:1079900041F090FF07B0F0BD31460F4841F0AAFE1C
:1079A00004F11301132201A84EF09BFE01A90A481D
:1079B0008DF8177041F09EFF07B0F0BD09490648E9
:1079C00041F028FF044841F075FF07B0F0BD00BF4B
:1079D000549F07004CB00700741B0120F43A0120AB
:1079E000383B0120589F070070B5124C124A134BC8
:1079F0002260002647F260006360C4F8886345F0A7
:107A0000E7F90F4B0F4D93ED000B3246214604462C
:107A100027F0B2FD0C4B2C6093ED000A204628F0B5
:107A200053F90A4B286893ED000ABDE8704028F02E
:107A300061B900BFD0150120609F0700ECCD0700A1
:107A400098620020041B01205C6300205863002022
:107A5000F8B51D4B1B78022B04462CD01B4B1C4A3F
:107A60001C480027214601261F70167039F002F8C5
:107A7000054636F033FF2846F72136F047FF284603
:107A8000022136F06BFF3A463946284636F046FF6B
:107A900042F050FE104FDFF858C01049104A03461C
:107AA000CCF800303C801B230E7028461380BDE8C4
:107AB000F84036F015BF0B4A0B490C4B10800120E3
:107AC000002208701A70F8BD111A012060C200204F
:107AD000D4190120EC830120D2C60020A89E0020EA
:107AE000CC6000203C610020387C0020FD7B002021
:107AF0005CC20020234A13884FF6FF719BB28B4271
:107B0000F0B403D013889BB298422DD01E4B1B7843
:107B1000022B29D01D4B1E4F1E4C1F491F4E1A7899
:107B20001F48204D00233B701B27378023700B70AC
:107B30001D4C1E4903701E482B7023701D4D0B7089
:107B40001D4C1E49037017202B70237008801C4B9E
:107B50001AB900221A70F0BC70471A78002AF8D0BF
:107B6000184A01211170F4E713889BB29842F2D1B0
:107B7000154C164900234FF6FF7023701080F0BC9F
:107B80000B7070473C610020111A0120CC190120B4
:107B9000A89E002054A20020F2A10020CC6000206A
:107BA000B5C60020F1A1002078C60020F57D002098
:107BB000D4190120121A012075C20020586100203A
:107BC00060C20020D6C60020387C0020FD7B00204B
:107BD0002DE9F04F4948037CABB0002B40F08A8080
:107BE0004748037C002B40F081804648037C002BF3
:107BF00078D14548037C002B70D10024322042F01C
:107C0000A5FD424E424A43490194234604A84FF43D
:107C10007A75ADF810408DF81240029500962DF05F
:107C200057FA9DF81000002855D03B4D2B68132BB8
:107C300049DC3A4FDFF8E88005E011A82DF012F892
:107C40002B68132B3FDC4FF47A73002204A911A890
:107C50000F930E94ADF844408DF846400D962DF0EC
:107C60005DFD9DF8443040221AA911A85BB32EF0A7
:107C7000ABFF9DF8443013F0D00F1AA8DDD14EF0C1
:107C800016FD03461AAA0638062B39461044D4D9E5
:107C90004EF0B2FC81460028CFD1D5F800A00AEB07
:107CA0004A0B08EB0B1B1AA92F2258464EF019FD60
:107CB0000AF1010311A82B608BF82F902CF0D2FF52
:107CC0002B68132BBFDD04A82CF0CCFF28680028FC
:107CD000D4BF002001202BB0BDE8F08F10302CF075
:107CE000C1FF8AE710302CF0BDFF82E710302CF086
:107CF000B9FF7AE710302CF0B5FF71E7043B0120A3
:107D00005C1C0120803F0120B43F012048B40700E3
:107D1000689F0700E8660020F43A01206C9F070086
:107D2000383B012010B5094C2368013309D1084ABA
:107D3000136803F59C5308334FF0FF311360216043
:107D400010BD42F0F7FC034B1860F0E7A062002082
:107D5000CC1B01207838012010B5074C44F0EEFD13
:107D6000206804211AF0CAFF08B100232360BDE88F
:107D7000104044F0EDBD00BF381B012038B5056848
:107D80000A4A0446286803681B6893420BD12820DE
:107D900042F0F8FC18B1064B4360606038BD012327
:107DA0002B71606038BD28219847F3E745760200C3
:107DB00001001F0081682DE9F0470568044669B19C
:107DC000284E2B680A685B68A260B34208463DD122
:107DD00042F0F2FCA1680029F3D12568238E04F15A
:107DE0000C0903B30027E36ADFF878A0B8460BE07C
:107DF00042F0E2FCE36AC6F80080218EC6F80480F7
:107E00000137BAB291420FD9BEB203EBC606716810
:107E100008460029EFD02B685B685345E8D0284618
:107E20009847E36AE7E7E36A00214FF6FF72994556
:107E30002186A28607D02A680A4952688A420BD155
:107E4000184642F0B9FC2046BDE8F087284698471E
:107E5000A1680029B5D1C0E72846194690472046B9
:107E6000BDE8F0873576020081682DE9F0470568A6
:107E7000044669B1284E2B680A685B68A260B34269
:107E800008463DD142F098FCA1680029F3D125684D
:107E9000238E04F10C0903B30027E36ADFF878A00E
:107EA000B8460BE042F088FCE36AC6F80080218EF9
:107EB000C6F804800137BAB291420FD9BEB203EBC3
:107EC000C606716808460029EFD02B685B685345E9
:107ED000E8D028469847E36AE7E7E36A00214FF6CF
:107EE000FF7299452186A28607D02A680A495268FE
:107EF0008A420BD1184642F05FFC2046BDE8F0876D
:107F000028469847A1680029B5D1C0E728461946F8
:107F100090472046BDE8F0873576020081682DE95C
:107F2000F0470568044669B1284E2B680A685B680B
:107F3000A260B34208463DD142F03EFCA168002950
:107F4000F3D12568238E04F10C0903B30027E36AFB
:107F5000DFF878A0B8460BE042F02EFCE36AC6F8E2
:107F60000080218EC6F804800137BAB291420FD941
:107F7000BEB203EBC606716808460029EFD02B6835
:107F80005B685345E8D028469847E36AE7E7E36A29
:107F900000214FF6FF7299452186A28607D02A68F4
:107FA0000A4952688A420BD1184642F005FC204625
:107FB000BDE8F08728469847A1680029B5D1C0E7F9
:107FC0002846194690472046BDE8F08735760200DE
:107FD0002DE9F04F87B006AB03E90300049D002DA7
:107FE00000F00E812888059A4FF6FF73984200F042
:107FF0001081D2F82C90C10909EBC10100F07F0279
:10800000486810EBC20000F004819B460379C688E3
:10801000202B4FF0000840F0EE80B8F10A0F00F07E
:10802000EE8007885F4500F0DE81FB0909EBC303A2
:1080300007F07F025D680292FB0915EBC20503930E
:1080400000F0EC80B5F806A00195434601272C46C8
:10805000B04655461E468FB95D4500F0DC80EA0902
:1080600009EBC20205F07F05546814EBC50400F06B
:10807000D28087F00107E588002FEDD02279042A0D
:1080800000F08681052A00F07F81022AE4D1204693
:108090004EF00DFB0428DFD122786E2ADCD1627805
:1080A000612AD9D1A2786D2AD6D1E278652AD3D1B6
:1080B0002B4632465B454646019D904610D0D80976
:1080C00009EBC00003F07F03406810EBC30307D047
:1080D0001B79181F012840F2A680022B00F0A38014
:1080E000B34BB44A42F83830039B029A09EBC30AF7
:1080F000DAF8043013EBC20764D0B7F806A0019792
:1081000001233C461F4643465546B0461E468FB99E
:108110005D4500F0D080EA0909EBC20205F07F0559
:10812000546814EBC50400F0C68087F00107E588A9
:10813000002FEDD02279042A00F02181052A00F0D9
:108140001A81022AE4D120464EF0B1FA0C28DFD180
:108150002278642ADCD16278612AD9D1A278742A83
:10816000D6D1E278652AD3D122795F2AD0D162793B
:10817000632ACDD1A279722ACAD1E279652AC7D100
:10818000227A612AC4D1627A742AC1D1A27A652A7C
:10819000BED1E27A642ABBD132465D453B464646B3
:1081A000019F90460ED0EA0909EBC20205F07F0557
:1081B000546814EBC50505D02A79111F01297ED911
:1081C000022A7CD07A4B7B4A02EBC8025E4508F15A
:1081D000010853605FFA88F512D0F30909EBC30375
:1081E00006F07F06586810EBC60009D00379C688F0
:1081F000202B3FF412AFB8F10A0F40F0CE80454675
:108200006D4A6C48294616F055FF284607B0BDE870
:10821000F08F0025F4E7334646469846654B644A9E
:1082200043F8382060E79FB9DA4500F0CE804FEA86
:10823000DA1309EBC3030AF07F0A5D6815EBCA0580
:1082400000F0C38087F00107B5F806A0002FEBD03F
:108250002B79042B00F0B280052B00F0A480022BB8
:10826000E2D128464EF023FA0428DDD12B786E2B7C
:10827000DAD16B78612BD7D1AB786D2BD4D1EB7879
:10828000652BD1D1DA4500F0A0804FEADA1309EB73
:10829000C3030AF07F02586810EBC2033FF421AF1A
:1082A0001979042900F0AF80052900F0A88002297F
:1082B00018BF002315E733464646984682E71C461A
:1082C0009CB9DA4500F08D804FEADA1209EBC20260
:1082D0000AF07F0A576817EBCA0700F0828084F023
:1082E0000104B7F806A0002CEBD03B79042B72D028
:1082F000052B6CD0022BE4D138464EF0D8F90C286F
:10830000DFD13B78642BDCD17B78612BD9D1BB7872
:10831000742BD6D1FB78652BD3D13B795F2BD0D191
:108320007B79632BCDD1BB79722BCAD1FB79652BBD
:10833000C7D13B7A612BC4D17B7A742BC1D1BB7A74
:10834000652BBED1FB7A642BBBD1DA4549D04FEA0D
:10835000DA1309EBC3030AF07F0A596811EBCA0369
:108360003FF431AF1A79042A46D0052A40D0022AB8
:1083700018BF002327E72468E0880834E6E624686D
:10838000002C7FF4E0AEC3E62468E088083481E680
:108390002468002C7FF47BAE5EE6064B044A43F86B
:1083A000382013460FE72D68E88808355CE700BFE2
:1083B000ECCD0700D4600020D86B00202D68002D84
:1083C0007FF44FAFDA457FF432AF002389E63F6890
:1083D000F888083793E73F68002F8DD1DA457FF49E
:1083E00073AF0023EFE6094B094A43F83820E9E66A
:1083F00051F83A300833E6E651F83A30E3E650F8FF
:10840000323008336DE650F832306AE6D46000202E
:10841000ECCD07002DE9F84F074642F08BF9314DBE
:10842000DFF8CC90DFF8CCB0DFF8CCA0064645F002
:108430000105D9F800301C68204645F0FBFC0346D6
:108440004FF003084FF4FA406BB9B8F1010F3CD07C
:10845000A847204645F0EEFC034608F1FF384FF4EC
:10846000FA40002BF1D0DBF80030D3F80080404612
:1084700045F0E0FC034603244FF4FA405BB9012CBD
:1084800023D0A847404645F0D5FC0346013C4FF4B5
:10849000FA40002BF3D0144B1B68D3F80080404601
:1084A00045F0C8FC034603244FF4FA405BB9012CA5
:1084B0000BD0A847404645F0BDFC0346013C4FF4B5
:1084C000FA40002BF3D0BDE8F88F42F033F9801B5F
:1084D000B842F8D2054B0A20C3F800A642F036F99C
:1084E000A7E700BF60BA07006461002000000140F8
:1084F0005C610020606100203546526E38B5124B39
:10850000124A1B7852F82050044643B1104B5A6867
:108510001048521B2146BDE838401AF0D3B80E4B24
:10852000DB68D90106D50A4B1A68D20702D55A680A
:108530009209EDE743F016FB084BA0FB0301830A09
:1085400043EA8152E4E700BFD66B0020BCA10020C3
:10855000001000E064F80020F0ED00E040420F0061
:108560002DE9F04FDFF8F490344AD9F800300026B6
:10857000B34283B016702ADD4FF0FF33DFF8E0809E
:10858000DFF8E0B02E4F01934FF0000A97ED0A3B61
:1085900097ED082B98ED021B98ED000B17F068FE85
:1085A00055EC104B5B4610EE100A524629464CF033
:1085B00073FB3837D9F8003010B1A246AB460196AC
:1085C0000136B342E2DC019B1A46013220D1002180
:1085D0001C4D1D4B002428461C7016F001F82A780B
:1085E0001A4B042A1C600ED9194C23685A1C1DD141
:1085F000184A2360136803F59C5308330120136065
:1086000003B0BDE8F08F6FF00A03114C9B1AEFE73F
:10861000C3EBC30A0A4B094803EBCA010C224EF014
:1086200060F8064A002313730121D1E742F082F873
:10863000094A4FF0FF331060DAE700BFF41A012057
:108640007846012098610020EC1A0120843801202E
:10865000A0620020CC1B0120783801203872012054
:10866000081E01200000144070B55C4B5C4C93F870
:10867000322093F8300093F82F1093F8315094B0D3
:10868000049293F82E20CDE90205CDE9002106A839
:10869000544A9B8D18214DF017FF2268002A3DD0C7
:1086A000514B52491878002808BF0B46002106ADEF
:1086B000CDE910114E480C950E934E4D4E4B139133
:1086C0000D9512900F9310462BF0A2FC236810908A
:1086D000002B50D018462BF02BFD2268474C484BFE
:1086E0001190002A08BF1C46464A474B1268009268
:1086F0004FF480610CAA4548139416F0B7FF00218F
:1087000043482CF03DFF414941484FF480622DF031
:1087100001F93F482DF09AF814B070BD3D4D28681E
:10872000002836D027F096FA3B4E03462868002BE7
:1087300018BF1E4627F0BEFA002306A922680C9136
:10874000CDE910332B491393294B0E960F900D91C1
:108750001293002AB7D12868002838D027F0A6FA4B
:1087600040BB286827F08CFA20B32AF003FC23686A
:108770001090002BAED1274D286850B327F096FA01
:10878000A8B9286827F07CFA88B12AF06DFC226825
:10879000A4E706AB204A0C93204B164E14491090C8
:1087A000CDE90E23119013900D961291D3E7226814
:1087B000002093E7286840B127F078FA28B12868AC
:1087C00027F070FA40B12CF049F923687FE7109048
:1087D000D2E70B4C119087E7236878E7081E012049
:1087E000283F01209C9F0700143F0120949F070011
:1087F0000063002020630020801901208C9F070067
:10880000849F0700342E0120941E012048FD002083
:10881000501B0120041B0120749F0700ECCD0700B2
:108820002DE9F047038E8146054659F80CABFBB1A4
:108830000026C36ADFF8A080374609E041F0BCFF9C
:10884000EB6A2760298E67600136B2B2914210D977
:10885000B4B203EBC404616808460029F1D0DAF829
:1088600000305B684345E9D050469847EB6AE8E73B
:10887000C36A00214FF6FF7299452986AA860CD05B
:10888000DAF80020144C5268A24221D1184641F077
:1088900093FF0423C5F82C906B86A8682E680023EC
:1088A0002B7158B10C4C336802685B68AA60A34214
:1088B00006D141F081FFA8680028F4D1BDE8F08717
:1088C000014630469847A8680028ECD1BDE8F087FB
:1088D000194650469047DCE735760200008830B4F0
:1088E0004FF6FF74A0421AD0CD6AC20905EBC2024E
:1088F00000F07F03506810EBC30011D0C288002045
:10890000D309A24205EBC30302F07F0100F101008D
:1089100006D05B6813EBC10302D0DA88F0E70020D1
:1089200030BC70472DE9F0418B8E4FF6FF729342B9
:1089300082B00C46054616D0CA6AD90902EBC102BC
:1089400003F07F01526832F83100A08602EBC102C9
:1089500000204FF6FF71107128462A60AB80D1804D
:1089600002B0BDE8F081098E2768002932D1638EFC
:10897000002B00F085800123E66A5A4A23864FF4D3
:1089800080604FF080083B681B68934274D141F0CF
:10899000F9FE238EE76A7060013B9BB207EBC301CF
:1089A00000284A6808BF4FF000080020A6F80080A1
:1089B000708022B137F83360488886422ED8012172
:1089C00000224FF6FF73284621712A60AB8002B067
:1089D000BDE8F081E66A4B1E9BB206EBC30E304643
:1089E000DEF804202AB1BEF802C036F83380E04534
:1089F0001CD8638E994223D03A4A4B1C9BB2B3F5E4
:108A0000007F00EBC106238615BF4FF480604FF452
:108A10007E704FF080084FF07F08B4E700EBC3137F
:108A2000441C9BB202EBC0024C8091E70CEBC313D9
:108A30000CF101019BB202EBCC02AEF8021087E709
:108A4000B3F5007FBBD004F10C025B0096421FFA25
:108A500083F83B6816D024489B6883424FEAC801DC
:108A600035D130464DF018FD0028A8D01D4A218E82
:108A7000E062A4F83280C0E701463846984788E7AC
:108A8000E66AE0E7174A1B68019293424FEAC80082
:108A900022D141F077FE019A002890D0D6F800C08C
:108AA0007168B368D6F80CE0C0F80CE0C0F800C0FC
:108AB00041608360D6F810C07169B369D6F81CE0D4
:108AC000C0F81CE0C0F810C041618361CFE70A46DE
:108AD000384631469847C7E7014638469847019AD5
:108AE000DAE700BF457602003D7602002DE9F0414D
:108AF0008B8E4FF6FF72934282B00C46054611D022
:108B0000CA6AD90902EBC10203F07F01526832F848
:108B10003100A08602EBC10228462A60AB8002B079
:108B2000BDE8F081098E2768002932D1638E002BC1
:108B300000F085800123E66A594A23864FF480605D
:108B40004FF080083B681B68934274D141F01AFED5
:108B5000238EE76A7060013B9BB207EBC3010028DC
:108B60004A6808BF4FF000080020A6F80080708017
:108B700022B137F83360488886422ED8012100227E
:108B80004FF6FF73284621712A60AB8002B0BDE822
:108B9000F081E66A4B1E9BB206EBC30E3046DEF850
:108BA00004202AB1BEF802C036F83380E0451CD854
:108BB000638E994223D03A4A4B1C9BB2B3F5007F97
:108BC00000EBC106238615BF4FF480604FF47E7022
:108BD0004FF080084FF07F08B4E700EBC313441C4C
:108BE0009BB202EBC0024C8096E70CEBC3130CF176
:108BF00001019BB202EBCC02AEF802108CE7B3F598
:108C0000007FBBD004F10C025B0096421FFA83F890
:108C10003B6816D023489B6883424FEAC80135D190
:108C200030464DF039FC0028A8D01D4A218EE06264
:108C3000A4F83280C0E701463846984788E7E66ADC
:108C4000E0E7174A1B68019293424FEAC80022D11D
:108C500041F098FD019A002890D0D6F800C07168C4
:108C6000B368D6F80CE0C0F80CE0C0F800C0416072
:108C70008360D6F810C07169B369D6F81CE0C0F8FB
:108C80001CE0C0F810C041618361CFE70A46384656
:108C900031469847C7E7014638469847019ADAE7D0
:108CA000457602003D7602002DE9F04F958E4FF695
:108CB000FF739D4285B014460746884602F10C0BAF
:108CC0003BD0D36AEA0903EBC20305F07F025E687A
:108CD00036F83230A38606EBC2064FF6FF73F380F8
:108CE000A28E00219A423171B1465CD0E36AD1096B
:108CF00003EBC10302F07F0A596831F83A30A386CA
:108D000001EBCA0100234FF6FF700B71C880C8F851
:108D10000010F2807B88834200F08380E16AD809EA
:108D200001EBC00103F07F03496801EBC303484630
:108D3000DD807A8005B0BDE8F08F118E15680029BE
:108D400075D1528E002A00F01F810123E66AC24AC3
:108D500023864FF480604FF080092B681B68934294
:108D600040F00A8141F00EFD258EE36A7060013DFE
:108D7000ADB203EBC5020028516808BF4FF00009EF
:108D80000020A6F80090708029B133F8353056885D
:108D9000B34200F297804FF0000901234846237147
:108DA00005B0BDE8F08F208E23680193002862D1C2
:108DB000628E002A00F0EA800123D4F82CA0A64A93
:108DC00023864FF480604FF0800B019B1B681B686B
:108DD000934240F0D58041F0D5FC228ED4F82CC0CF
:108DE000CAF80400013A92B20CEBC2030028596899
:108DF00008BF4FF0000B0020AAF800B0AAF802004C
:108E00000029C8D03CF83200B3F802A05045C2D9BE
:108E10000AEBC2120AF1010092B201EBCA015880BA
:108E200070E748463D807A8005B0BDE8F08FE36A80
:108E30004A1E92B203EBC20E1846DEF804602EB151
:108E4000BEF802C033F83290E14543D8628E9142B9
:108E500054D0814A4B1C9BB2B3F5007F00EBC10696
:108E6000238615BF4FF480604FF47E704FF0800969
:108E70004FF07F0971E7E36A421E92B203EBC20C26
:108E80009E46DCF804A0BAF1000F06D0BCF8021030
:108E9000029233F832208A4226D8628E90424AD01B
:108EA0006D4A431C9BB2B3F5007F0EEBC00A2386CC
:108EB00015BF4FF480604FF47E704FF0800B4FF081
:108EC0007F0B82E706EBC515731CADB201EBC6063E
:108ED000538002E70CEBC2150CF10103ADB206EBB7
:108EE000CC06AEF80230F8E6029A4B1C01EBC21237
:108EF00092B20AEBC101ACF8023003E7B2F5007F91
:108F00003FF449AF52009B451FFA82F940D02A68CE
:108F10005248966886424FEAC90140F0918018464F
:108F20004DF0BAFA00283FF436AF4B4A218EE0628A
:108F3000A4F832908EE7B2F5007F3FF42CAF5200D8
:108F40001FFA82FA019A9B4511684AD0D1F808B0FD
:108F5000424A93454FEACA0177D118464DF09CFA30
:108F60008646BEF1000F3FF416AF3B4A208EC4F890
:108F70002CE0A4F832A094E7014628469847F3E68F
:108F800001460198984728E7E36ABBE7E36AD6E71A
:108F90002968314A0E689642CDE901324FEAC9008C
:108FA0005ED141F0EFFBDDE9013200283FF4F3AE82
:108FB000D3F800C05E689968D3F80CE0C0F80CE004
:108FC000C0F800C046608160D3F810C05E6999693E
:108FD000D3F81CE0C0F81CE0C0F810C04661816105
:108FE000A4E71D4AD1F800B09345CDE902324FEA1B
:108FF000CA003BD141F0C6FBDDE902328646BEF134
:10900000000F3FF4C8AE18685968D3F808B0D3F819
:109010000CC0CEF80CC0CEF80000CEF80410CEF88C
:1090200008B018695969D3F818B0D3F81CC0CEF845
:109030001CC0CEF81000CEF81410CEF818B095E78A
:109040000A4628461946B0476CE70A460198194671
:10905000D847864685E700BF457602003D76020088
:1090600001462846B047DDE901329EE701460198F6
:10907000D847DDE902328646C1E700BF2DE9F84353
:1090800007464068BD68032D884600F1080613D8DE
:109090005FFA85FC002D77D00CF1FF3456FA84F48A
:1090A000C31D002213F8011F002908BF42F001026E
:1090B000A342F7D1002A40D000237355D7F800907F
:1090C000BE68D9F80830A3B106F1070C8444DA88E9
:1090D00096420BD13EB3C21DDC1D01E0944522D067
:1090E00012F8011F14F8015FA942F7D01B68002B8A
:1090F000EDD1B6F5803F7D68D9F8004034D22368C1
:1091000028489B68834206F1090140D128464DF06A
:10911000C3F9034643B33A68DE80916819600021C1
:109120009360796002E09A8801329A800522C8F83B
:10913000003088F80420BDE8F883022388F8043062
:10914000037A88F80030BCF1010F08D0437A88F820
:109150000130BCF1020F02D0837A88F8023000237C
:1091600008F80530BDE8F88323680F4A5B6893422E
:1091700013D02946204698473A6800239268012177
:1091800089F804101A60FFDE02230B71E7E70A4634
:109190002046294698470346BCE7284641F00CFB89
:1091A000EAE700BF3D760200357602002DE9F04780
:1091B00045684DB18368EA88934204460E4605D05F
:1091C0001D440133A3602E72BDE8F0875B00D0F828
:1091D00000905F1CB7F5803FD9F8008012D2D8F814
:1091E00000201549D2F808A08A4503F10A021CD1D3
:1091F000114628464DF050F920B1C780A368606041
:109200000546DDE7D8F800300C4A5B68934208D188
:10921000284641F0D1FA0122002389F80420636036
:10922000D2E7294640469847F5E729464046D047C9
:109230000028E2D1E6E700BF3D7602003576020065
:1092400003792DE9F0470C46D907054637D4DA06ED
:1092500024D413F0600F1DD02E884FF6FF77BE4246
:1092600015D0E36AF20903EBC20306F07F09D3F8D5
:10927000048008EBC900B246C6882146FFF7E0FF2C
:10928000A38E28F83930BE42A4F834A0E9D14FF0BB
:10929000FF332B6000232B71BDE8F0872A884FF63F
:1092A000FF718A4237D0E16AA68ED00901EBC00176
:1092B00002F07F00496821F83060A286C9E7A06803
:1092C0002A6826680028C2D0824216D0014600686B
:1092D0000028BCD08242F9D18288013A92B28280C1
:1092E000002AB4D103680B6033680C4A5B68934270
:1092F0000CD141F061FA2B79A9E78288013A92B248
:109300008280002AA3D10368A360EDE701463046BE
:1093100098472B799BE700231B80FFDE3576020000
:109320002DE9F04F89B008AB03E90300069B0093D9
:10933000002B53D01B8801939046079A0292DA09BA
:1093400003F07F03DB000493019B4FF6FF7AD2000A
:10935000534503924FF0000540D0029BD3F82C9068
:10936000039B09EB0302049B5768FB18059335D058
:10937000DE8800243146CA09514509EBC20201F0DA
:109380007F0004F1010405D0536813EBC00301D042
:10939000D988F0E7AC4221D9009B1A79402A12D132
:1093A00005B331462C4602E0013CD1881BD0C1F305
:1093B000CF10514509EBC00001F07F0203D0436894
:1093C00013EBC202F0D19C4841464DF04DF9002804
:1093D00073D0019B534505F10105BED1002009B0B2
:1093E000BDE8F08F059A11792029ECD114885445F5
:1093F000E9D0E20909EBC20204F07F01546814EBE2
:10940000C104E0D00127B4F806B08FB9D345DAD053
:109410004FEADB1309EBC3030BF07F0B5C6814EB23
:10942000CB04D0D087F00107B4F806B0002FEDD000
:109430002379042B5DD0052B5FD0022BE6D120468B
:109440004DF035F90428E1D123786E2BDED1637815
:10945000612BDBD1A3786D2BD8D1E378652BD5D1E7
:10946000D345B0D04FEADB1009EBC0000BF07F0111
:10947000406810EBC101A6D00979081F012801D965
:109480000229A0D1002D00F0CA8030462C4602E00F
:10949000013CD88835D0C0F3CF12504509EBC20249
:1094A00000F07F0103D0536813EBC103F0D100201B
:1094B00041464DF0D9F800288BD1CB46002D00F065
:1094C000B080B0464FF6FF7103E0013DDA887AD0F4
:1094D0009046C8F3CF1388450BEBC30308F07F0217
:1094E00003D05B6813EBC203EFD1012009B0BDE8E4
:1094F000F08F2468002CA2D188E72468E088083423
:10950000A0E7194608792028D1D10C885445CED03F
:10951000E00909EBC00004F07F01446814EBC104CA
:10952000C5D0B4F806B08FB9D345C0D04FEADB132D
:1095300009EBC3030BF07F0B5C6814EBCB04B6D0D4
:1095400087F00107B4F806B0002FEDD02379042B83
:109550002ED0052B28D0022BE6D120464DF0A7F8BF
:109560000428E1D123786E2BDED16378612BDBD127
:10957000A3786D2BD8D1E378652BD5D1D34596D080
:109580004FEADB1209EBC2020BF07F01546814EBC7
:10959000C1003FF419AF0279042A11D0052A0BD07B
:1095A000022A18BF00200FE72468E0880834D7E7B4
:1095B0002468002CD1D1B7E754F83100083003E714
:1095C00054F8310000E7059D9D421C462CD0019FB8
:1095D0004FF6FF7107E05B6803EBC003A34209D0BD
:1095E0003746DE881D46F3098E420BEBC30306F0B7
:1095F0007F00F0D10197EA804FF6FF739A4208BFCF
:10960000DDE90032029D08BF5A8020462946FFF757
:1096100017FEAB8E23800120A5F8348066E70599FC
:1096200070E7DDF80480059C009B1E804FF6FF73F9
:1096300032460193E0E700BFECCD07002DE9F04F83
:109640000E46097885B02B29009000F0FD802D2969
:1096500040F0B8807178012001900644A1F13000FB
:10966000C0B2092800F2B680DFF8F893C0B200213A
:10967000002400254FF0993816F801BF2418ABF1EB
:109680003007FFB241EB05054FEA850E092F6FEA5F
:1096900007024FF0FF334FEA840C4EEA947EF8B293
:1096A0004FF0000100F21E81A94508BFA0450BD371
:1096B0001CEB040C4EEB050E1CEB0C044EEB0E05E4
:1096C000AB4208BFA242D7D24FF0000A0023204687
:1096D00029460A224BF014FDA946A0461FFA8AF338
:1096E000B9F5200F03F1010A08BFB8F1000F0446D5
:1096F0000D460FFA8AFAE9D2092F0BD802339B1BC9
:1097000006EB030A16F801BFABF13002092A0FFA83
:109710008AFAF5D9BBF12E0F00F0B6800BF0DF030B
:10972000452B60D0BBF1000F56D10AF126034C2B1C
:1097300000F2FC80002D08BFB4F5000F80F0F68029
:1097400007EE904ABAF1000FF8EEE77A40F3648131
:10975000BC4B1AF0010F1CBF93ED007A67EE877ABD
:109760005FEA6A0223D0D00744BF93ED017A67EE27
:10977000877A5FEAAA021AD0D10744BF93ED027A32
:1097800067EE877A5FEAEA0211D0D20744BF93ED11
:10979000037A67EE877A5FEA2A1A08D0BAF1010FD6
:1097A0000CBF93ED047A93ED057A67EE877A019BFF
:1097B0000BB1F1EE677A009A0123C2ED027A1370C1
:1097C00010460DE000200190A1F13000C0B2092840
:1097D0007FF64AAF2E2953D0009A0023137010460B
:1097E00005B0BDE8F08F96F801B0BBF12D0F36D073
:1097F000BBF12B0F00F0F080ABF13003DAB2092A95
:1098000006F101068ED80AEB0302B2F59A7F00F347
:10981000D780002706E002EB400303EB0A02B2F513
:109820009A7F79DC16F801BFABF13002D1B2092979
:1098300003EB8300EFD9002F40F0C7809A44BBF1BF
:10984000000F3FF472AFC7E7717800200190A1F1DB
:109850003000C0B2092806F10106BBD804E796F82B
:1098600002B0ABF13003DAB2092A06F102063FF684
:1098700059AF0AEB0302B2F59A7F4FDC0127D1E71B
:10988000002400254FF0000A96F801B0ABF130003B
:10989000C0B2092806F101063FF640AF6A4B4FF00F
:1098A00099329D424FEA850108BF94424FEA8407EE
:1098B00041EA94710ED23F1945EB010117EB0708FD
:1098C00041EB01090AF1FF3A18EB00040FFA8AFA9A
:1098D00049F1000516F801BFABF13000C0B209280C
:1098E000DFD91BE7BBF1000F40F0D280019B8BB1A9
:1098F000B5F1004F08BF012CBFF4E6AE644265EB42
:1099000045050223009A1046C2E90245137005B0CE
:10991000BDE8F08F0323F5E7002F51D000994FF0F9
:109920000042012308468A600B7059E72046294609
:109930004AF00AFFBAF1000F79DD444C1AF0010F2A
:109940007AD15FEA6A032DD0DF0700F18D805FEAEC
:10995000AA0327D0DE0700F18C805FEAEA0321D05A
:10996000DD0700F18B805FEA2A131BD0DA0700F1D4
:109970008A805FEA6A1315D0DB073ED45FEAAA1338
:1099800010D0DF073ED45FEAEA130BD0DE073ED4E7
:109990005FEA2A2306D0DD0744D45FEA5A231CBFBE
:1099A0002B490020019B13B101F100431946009A95
:1099B0000423C2E902011046137005B0BDE8F08F20
:1099C000019B0020BBB12349F1E7AAEB030ABBF1DD
:1099D000000F3FF4AAAEFFE696F802B0ABF13003F9
:1099E000DAB2092A06F102067FF60DAFBBF1000FCD
:1099F0003FF49BAEF0E61849D9E7D4E90A234AF0D0
:109A0000D9FEBBE7D4E90C234AF0D4FEBBE7D4E986
:109A10000E234AF0CFFEBBE7CAF1000A3FF4C7AEFF
:109A20000E4B96E6D4E910234AF0C4FEB5E7CAF11E
:109A3000000AB7D00A4C81E7D4E900234AF0BAFE05
:109A40007FE700BFB4B407009999010018B507007B
:109A50000000F87F0000F0FF0000F07F9CB40700DA
:109A6000D0B4070099999919D4E902234AF0A2FECB
:109A70006DE7D4E904234AF09DFE6EE7D4E906239E
:109A80004AF098FE6FE7D4E908234AF093FE70E7A6
:109A9000B5F5801F08BF002CBFF416AE4FF0000ACA
:109AA00038E600BF10B58AB000240A4601230146FB
:109AB00001A8ADF804408DF806402BF009FB08B969
:109AC0000AB010BD01A82CF05BFC0AB010BD00BFAD
:109AD00038B5234C206800BB224C2068E0B126F04A
:109AE000E5F8002835D1206826F0CAF8A0B1206832
:109AF00026F0C6F829F03AFA1B4A1368B3F57A7FC4
:109B00000ADA48B119490C68A04205D0184C08601F
:109B100044F823000133136038BD2AF05BFA154B7B
:109B20001A688242F8DA104D186040F003FE2B6884
:109B3000114AB3F57A7F1060EEDA20680B4C2AF0F8
:109B400063FA2B680A4920605A1C41F823002A60F6
:109B500038BD206826F0A6F82AF07EFFCCE700BFCB
:109B6000283F0120041B0120342E0120442E012017
:109B7000941E0120243F0120FC3A012010B5064C20
:109B8000206838B126F092F820B92068BDE810406E
:109B900026F076B8002010BD041B012010B5064C3D
:109BA000206838B126F082F820B12068BDE8104066
:109BB00026F078B8002010BD041B0120114B186856
:109BC00008B12AF02DBA10B50F4C2068B8B126F0B4
:109BD0006DF838B9206826F053F818B1BDE8104088
:109BE00029F0A8B9206850B126F060F838B1206893
:109BF00026F058F818B1BDE810402AF011BF002037
:109C000010BD00BF283F0120041B0120034B186832
:109C100008B12AF0DBB9FFF7D1BF00BF283F012010
:109C2000114B186808B12AF0FFB910B50F4C206825
:109C3000B8B126F03BF838B9206826F021F818B101
:109C4000BDE8104029F07AB9206850B126F02EF80E
:109C500038B1206826F026F818B1BDE810402AF087
:109C6000E3BE002010BD00BF283F0120041B0120DF
:109C7000114B186808B12AF0ADB910B50F4C206827
:109C8000B8B126F013F838B9206825F0F9FF18B1FB
:109C9000BDE8104029F07CB9206850B126F006F8E4
:109CA00038B1206825F0FEFF18B1BDE810402AF059
:109CB000BFBE002010BD00BF283F0120041B0120B3
:109CC000114B186808B12AF0A3B910B50F4C2068E1
:109CD000B8B125F0EBFF38B9206825F0D1FF18B1F5
:109CE000BDE8104029F046B9206850B125F0DEFFEC
:109CF00038B1206825F0D6FF18B1BDE810402AF031
:109D0000ADBE002010BD00BF283F0120041B012074
:109D1000114B186808B12AF09BB910B50F4C206898
:109D2000B8B125F0C3FF38B9206825F0A9FF18B1F4
:109D3000BDE8104029F030B9206850B125F0B6FFD9
:109D400038B1206825F0AEFF18B1BDE810402AF008
:109D500089BE9FED030A10BD283F0120041B01208E
:109D60000000000038B51D4B1B68044663B1012894
:109D700021D0022824D0032801D0002038BD184665
:109D8000BDE838402AF0C4B9154D28680028F4D041
:109D900025F08CFF0028F0D1286825F071FF0028FD
:109DA000EBD0012C11D0022C13D0032CE5D1BDE84F
:109DB000384029F055B91846BDE838402AF0A0B916
:109DC0001846BDE838402AF09FB9BDE8384029F070
:109DD0003FB9BDE8384029F03FB900BF283F012016
:109DE000041B012038B51D4B1B68044663B10128D4
:109DF00021D0022824D0032801D0002038BD1846E5
:109E0000BDE838402AF090B9154D28680028F4D0F4
:109E100025F04CFF0028F0D1286825F031FF0028FC
:109E2000EBD0012C11D0022C13D0032CE5D1BDE8CE
:109E3000384029F009B91846BDE838402AF06CB915
:109E40001846BDE838402AF06BB9BDE8384029F023
:109E5000F3B8BDE8384029F0F3B800BF283F01202F
:109E6000041B01202DE9F041604B196800298AB0DC
:109E70002DDD5F4B0093012929D003F1A8020229AF
:109E8000019224D003F5A872032902921FD003F592
:109E9000FC72042903921AD003F528720529049252
:109EA00015D003F552720629059210D003F57C7285
:109EB000072906920BD003F593620829079206D072
:109EC00003F5A863092908931CBFA83309936846C2
:109ED00019F0B0F9061E5BDB464FA82303FB06739F
:109EE00093F89040002C4FD0434C206818B142F0BA
:109EF00073FF00232360414D286818B142F06CFFC6
:109F000000232B604FF44F5042F062FF3C4BA824DB
:109F100004FB067493ED000B0021804629F0D0F875
:109F200094ED063B94ED042B94ED021B94ED000B95
:109F30004046C5F8008029F031FE94ED223B94EDB7
:109F4000202B94ED1E1B94ED1C0B286829F0A0FE1D
:109F500094F84030002B3DD1A82303FB067393F8FF
:109F600068205ABB28682AF017F828682AF002F8F7
:109F700020B128682AF002F8044670B9286808B1B0
:109F800042F02AFF00242C6020460AB0BDE8F08190
:109F9000002420460AB0BDE8F0811A4D1A49C6EBEC
:109FA0000616314428460E224CF09BFB174A00232C
:109FB0002046AB7313600AB0BDE8F08193ED183B07
:109FC00093ED162B93ED141B93ED120B286829F0DB
:109FD00055FFC7E794ED0E3B94ED0C2B94ED0A1B57
:109FE00094ED080B286829F0CFFEB5E7F03A012080
:109FF00079400120E83F0120041B0120283F012077
:10A0000098620020143F01203C720120243F01206F
:10A010001B491C4A70B501231B4D0B70137004467D
:10A0200040F088FB19491A4A2B680C70106003B184
:10A0300070BD184B1C68002CFAD1174E174A184BEC
:10A04000C6F8884347F26000C6E9002342F0C0FE2C
:10A05000144B314693ED000B2246044625F08CFA52
:10A06000114B2C6093ED000A204625F02DFE0F4B7E
:10A07000286893ED000ABDE8704025F03BBE00BFA4
:10A08000F93A0120581C0120041B0120FA3A012052
:10A09000FC3A0120283F0120D0150120609F0700D5
:10A0A000ECCD0700986200205C630020586300201C
:10A0B00070B5284D284C2B78002B41D0237C002BE9
:10A0C0003CD1264C42F03AFC2068012118F016FEE3
:10A0D00008B100232360224E42F03AFC214B306845
:10A0E00000241C702C7010B142F076FE34601E4CBF
:10A0F000206818B142F070FE002323601B4D1C4AFB
:10A100001C481D4B1D491E4E00242C601470047009
:10A110001C4D1D4A1D481C701D4B0C702C6014609A
:10A12000046021461B4834704FF0FF354FF47A62CB
:10A130001D604BF0D3FA184B1C6070BDFEF794FA0B
:10A14000237C002BBDD015482BF080FB13482AF050
:10A1500089FDB6E7FA3E0120401B0120381B012093
:10A16000041B0120581C0120283F0120243F01200E
:10A170007C3F0120F93A0120FA3A0120901E01208B
:10A18000143F01208C1E0120342E0120442E01207A
:10A19000A4620020941E0120783F0120501B012062
:10A1A000374B1B78002B4DD010B5364C2378013B34
:10A1B000012B86B047D90021334A344B12783448FA
:10A1C0001B6800788DF80410A2F10402B2FA82F242
:10A1D00052098DF805208DF806002BB12D4B1B6818
:10A1E000002BD4BF002301232B4A8DF8073001A98F
:10A1F0001368029303A816F0E3F89DF80C40FCB92D
:10A2000040F098FA254A264B1268801A984217D9CE
:10A210009DF80D301BBB234B1A784AB340F08AFAE5
:10A22000214A049B1268801A984209D39DF8143081
:10A2300013B11E4B01221A70FFF73AFFFDF772FDB2
:10A2400006B010BD7047134B186816F0B3F858B934
:10A250002178013901298CBF00210121ACE7114A85
:10A26000114B14701C60EBE7032323700021A3E75C
:10A2700001221A7040F05EFA0B4B1860E0E700BF55
:10A28000F93A0120FA3A012004F80020283F012081
:10A29000551E0120303F0120881E0120FC3A01207C
:10A2A0001FBF0200901E01208C1E012007A200206B
:10A2B00038B5354D2B6801335DD1344B1B78002BFD
:10A2C00059D1334B33491B68334A9B680C68126879
:10A2D000324992680868191B0029C8BF1C46111B27
:10A2E00083680029C8BF14461A1B002AC8BF1C4631
:10A2F00040F020FA40F6B733001B98423BD9284B78
:10A300001B68B3F5FA7F1ADC264B93ED007AF2EE68
:10A31000047AB4EEE77AF1EE10FA2CDB2249234AF4
:10A3200001230B70137040F005FA214B2149224A9A
:10A330001B68086002211170F3B1052314E01A496B
:10A340001A4A01230B70137040F0F4F9184B1949A5
:10A35000194A1B6808600321117023B9174B1B6849
:10A360000BB9FDF741FB0623154A2B60136803F573
:10A370009C530833136038BD104B1B68002BDCD195
:10A38000FDF732FBD9E700BFA0620020D4190120FD
:10A390005C61002078380120606100206461002049
:10A3A000303F0120881E0120F93A0120581C01206D
:10A3B000041B0120FC3A0120FA3A0120283F012029
:10A3C000CC1B012030B5374C23680F33042B87B0EA
:10A3D00001D907B030BD40F0ADF9334D01462846F4
:10A3E00014F02CFC0028F4D0304A314B1268196864
:10A3F0008A4204D02F4991F8280000282FD140F03C
:10A4000099F90146284814F019FC0128E1D040F0E0
:10A4100091F90146244814F041FC2A78042A11D805
:10A4200021686FF00A039B1A8B4232D0224A002126
:10A430001160224A2360136803F59C5308331360AC
:10A4400007B030BD2368013323D01B4B00221A60B4
:10A4500040F070F91A4A4FF0FF331060E9E791EDD0
:10A46000000B91ED021B91ED082A1A608DED040B93
:10A470008DED001B8DED032A40F05CF99DED001B76
:10A4800001469DED040B9DED032A284614F092FB36
:10A49000B5E70A4A136803F59C530833136007B005
:10A4A00030BD00BFA062002098610020581E01202E
:10A4B000F01A0120081E012084380120CC1B012045
:10A4C0007838012070B51C4D8AB0002428460894C5
:10A4D000CDE90244CDE90444CDE90644CDF823405A
:10A4E00033F04EFA02462846019233F04BFA1F260B
:10A4F000019A014602A84BF0C9F802A93246284643
:10A5000033F042FA3C352146324602A84BF0E6F8D9
:10A51000284633F035FA0190284633F033FA019A91
:10A52000014602A84BF0B2F8324602A9284633F0A1
:10A530002BFA0AB070BD00BF2C8A01202DE9F04132
:10A540001E4D2B784BB901210C2043F0D1FBBDE807
:10A55000F04101210C2043F04FBC1948002133F099
:10A560004DFA174833F010FB164836F043FAE0B9BD
:10A57000144EDFF85880144F0524304636F03AFA6E
:10A58000034632202BB1C8F8007640F0DFF8013CDA
:10A59000F3D12B78002BD6D00A48002136F000FAF0
:10A5A0000848002136F000FACDE7064836F056FAA2
:10A5B0000146044836F03CFADAE700BF101A0120E1
:10A5C0002C8A0120EC8301203546526E00000140A8
:10A5D0002DE9F047544E554D3768D7F80080404676
:10A5E00043F028FC034645F0010503244FF4FA40EC
:10A5F0005BB9012C74D0A847404643F01BFC0346CE
:10A60000013C4FF4FA40002BF3D001237B71484FFB
:10A61000464DD7F80080D8F80090484643F00AFC31
:10A62000034645F0010503244FF4FA405BB9012CC1
:10A6300066D0A847484643F0FDFB0346013C4FF473
:10A64000FA40002BF3D0012388F80530DFF8EC90B6
:10A65000364DD9F80080D8F800A0504643F0EAFB08
:10A66000034645F0010503244FF4FA405BB9012C81
:10A6700022D0A847504643F0DDFB0346013C4FF48F
:10A68000FA40002BF3D0012388F8053033681B799A
:10A690003BB1284A136803F59C5308331360BDE8A7
:10A6A000F0873B681B79002BF3D1D9F800301B7978
:10A6B000002BEED1BDE8F08740F03CF898F805306B
:10A6C000002BE3D01C4BD8F808201B68801A984256
:10A6D000DCD340F02FF8A8F80440C8F80800D5E70C
:10A6E00040F028F87B79002B91D0134BBA681B6897
:10A6F000801A98428BD340F01DF8BC80B86086E782
:10A7000040F018F898F80530002B9FD00A4BD8F885
:10A7100008201B68801A984298D340F00BF8A8F8DC
:10A720000440C8F8080091E75C61002060BA0700A7
:10A7300060610020CC1B012050610020646100207A
:10A74000424B1B682DE9F0411E68414D304643F0F5
:10A7500071FB034645F0010503244FF4FA405BB951
:10A76000012C0BD0A847304643F064FB0346013C64
:10A770004FF4FA40002BF3D0002600E02646354B7C
:10A78000334D1B681F68384643F054FB034645F0C1
:10A79000010503244FF4FA405BB9012C0BD0A84704
:10A7A000384643F047FB0346013C4FF4FA40002B88
:10A7B000F3D0002500E02546274B254F1B68D3F832
:10A7C0000080404643F036FB034647F00107032470
:10A7D0004FF4FA405BB9012C0AD0B847404643F029
:10A7E00029FB0346013C4FF4FA40002BF3D0002430
:10A7F0009EB11A4E3378DBB165B1194D2B78F3B1A8
:10A8000024B1184C23785BB1BDE8F081154B1C7066
:10A81000BDE8F081124B1D70F2E7104B1E70EBE7A4
:10A820003FF088FF104A012310602370BDE8F081DB
:10A830003FF080FF0D4A012310603370DCE73FF0EA
:10A8400079FF0B4A012310602B70D9E75C6100206F
:10A8500060BA07006061002064610020CD1A012009
:10A86000D41A0120DC1A0120E01A0120D01A01209C
:10A87000D81A012038B50F4A0F4B126819688A425E
:10A8800015D00E491A6000230B6001220C4C0D4BB1
:10A89000204600251A70E57638F0ACF820460121F4
:10A8A00037F0D4FD4FF00113C4E9045338BD002242
:10A8B000ECE700BFA06200204C2E0120843801206C
:10A8C000741B0120003B012038B504460130094DBE
:10A8D00007D0094A2C60136803F59C5308331360B2
:10A8E00038BD2B680133F4D03FF024FF034B1860D0
:10A8F000EFE700BFA0620020CC1B012078380120C8
:10A900001A4A13680E2B28D00D2B15D0083312D0FD
:10A91000174B184993ED007A0B68F1EE047AB4EE08
:10A92000E77AF1EE10FA03F59C5394BF0B200A204E
:10A93000083310600B6070470F4B10491A680B68A2
:10A94000013A9A420B4A14BF013300230B6013688B
:10A9500003F59C5308331360704706490B6803F5F1
:10A960009C5308335A200B6010607047A06200208F
:10A97000881E0120CC1B0120F06200203C1B01201E
:10A98000F8B51B4D1B4F1C4E1C4C1D491D4A1E4843
:10A9900000233B7033702B701C4D23700B701C4CCC
:10A9A00013701C491C4A2B701C4D236013600B80D4
:10A9B0001B4C1C49027C2B604FF0FF3525600B803F
:10A9C00092B9194C237803B9F8BD184D41F0B6FF80
:10A9D0002868032118F092F908B100232B6041F098
:10A9E000B7FF00232370F8BD10302AF03BF9E8E7E9
:10A9F000D17C002081E70020007C0020F77D002032
:10AA0000F67D0020FF7B0020FCE6002080E7002090
:10AA100048F800204CF80020D47C0020989E0020AC
:10AA2000B8600020D46B0020DAE70020381B01203A
:10AA30000378462B01D00020704710B54378572B80
:10AA4000044627D1144908224BF039FE08B90120E9
:10AA500010BD1249062220464BF031FE0028F6D0E8
:10AA60000F4920464BF000FE0028F0D00D4920464B
:10AA70004BF0FAFD0028EAD00B4920464BF0F4FDDC
:10AA80000028E4D0094920464BF0EEFDB0FA80F0F2
:10AA9000400910BD002010BDBC9F0700C89F0700E3
:10AAA000D09F0700D89F0700E09F0700E89F07009E
:10AAB0002DE9F04362498DB0082204464BF0FFFDBA
:10AAC00000284CD15F4F3B7803F0FF06002B51D19B
:10AAD000083420462C214BF0BAFD00284AD000F162
:10AAE000010948462C214BF0B2FD0546002841D013
:10AAF00020460A2231464CF0AFFDA5EB0903082B96
:10AB000080464AD1D9F80000D9F8041002AB03C33B
:10AB100002A801A98DF8106014F0ACFC00283CD00C
:10AB200008F1FF33B3F5CC2F56D26878013590B1D8
:10AB3000DFF85C916E264CF099FD044630464CF0EF
:10AB400095FD844207D115F8010F00285DD019F852
:10AB5000016B002EEFD13C48FCF742FD0DE03B4974
:10AB6000062220464BF0ABFD50B9364B1B78012B2B
:10AB7000DDB218D03648FCF733FD0DB0BDE8F083E8
:10AB8000344920464BF070FDC8B92E4B1B78022B80
:10AB9000F0D1314B01221A70EFE73048FCF720FD6D
:10ABA0000DB0BDE8F08301460A22A01D4CF054FD13
:10ABB0002B4B1B6883420FD12A4B1D70DDE72A49BE
:10ABC00020464BF051FD68B91E4B1B78032BD1D1A9
:10ABD000264B01221A70D0E72548FCF701FD0DB085
:10ABE000BDE8F083234920464BF03EFD48B12249A1
:10ABF00020464BF039FD0028BFD1204B01221A70AE
:10AC0000BBE71F4B01221A70B7E799F80030002B01
:10AC1000A1D1134B1B4A0198C3F8008005A9012359
:10AC20003B70106014F0F0FB174A05AB08A8102128
:10AC30004BF04AFC08A982B2144833F0D5FC9CE7DB
:10AC4000BC9F070081E7002004A00700C89F070001
:10AC5000F09F0700D09F0700D17C0020F89F0700DD
:10AC6000F87D0020007C0020D89F0700F77D0020A1
:10AC7000FC9F0700E09F0700E89F0700FF7B002084
:10AC8000F67D0020D87C00200CA00700B01D01201C
:10AC900019A007000000000083490978012900D0AD
:10ACA00070472DE9F0411C469CB0804B1546CEB252
:10ACB000412200210BA81E704AF010FD402C2246B4
:10ACC000294628BF40220BA84AF0E0FC0BA84BF015
:10ACD000EEFC431E70B10BAA754F1A4412F801190D
:10ACE0000A39C9B227FA01F016296FEA000003F108
:10ACF000FF3310D96F4F3B78BBB16F490BA80522CA
:10AD00004BF0DDFC60BB062C2AD86C4B01221A707C
:10AD10001CB0BDE8F08110F00100EBD1591C50705F
:10AD2000DCD1644F3B78002BE7D1DFF8E88198F85D
:10AD30000030022B73D0402C00F282806049042244
:10AD40000BA84BF0BCFCB0B95E4C237803F0FF05B8
:10AD5000002B4BD05C495D48042233F045FCD7E71B
:10AD60005B4E338814FA83F3B3F5005F49DD594B2A
:10AD700001221A70CCE7584904220BA84BF09FFC23
:10AD8000D8B1564907220BA84BF099FC002840F097
:10AD9000C7809DF83330202B0DF1330003D110F81C
:10ADA000013F202BFBD0182114F050FF98B94C49DB
:10ADB0004C48092233F018FCAAE79DF83030202BCC
:10ADC0000CA803D110F8013F202BFBD0182114F060
:10ADD0003DFF002834D03B4C237803F0FF052BB116
:10ADE00039494048042233F0FFFB91E73E4B4022B3
:10ADF0000BA918464BF075FC012280F840502270D8
:10AE000086E73A4B3088294613FA80F022464AF00A
:10AE10003DFC338814FA83F39BB2338078E7082C27
:10AE200014D833490BA84BF01FFC20B131490BA8B3
:10AE30004BF01AFC50B921460BA8FFF739FE67E723
:10AE40002D492848052233F0CFFB61E798F8003000
:10AE5000022B7FF45DAF294B1A7802F0FF00002A25
:10AE60007FF456AFDFF8B080254AD8F8007012683A
:10AE70002744974200F2C480224A234ED2F800C0F1
:10AE8000318814FA81F1B1F5805F40F2BF80DFF8BC
:10AE90008CC0DCF80010013100F0CA801B4A1C494C
:10AEA000116001221A7033E7111A012060C20020DC
:10AEB0000900400054A2002024A00700B5C60020CD
:10AEC0003CA00700F57D00200CA50700E81C012030
:10AED00058C20020F1A1002044A007004CA00700A8
:10AEE00054A00700B01D0120907C002058A2002033
:10AEF000D09F0700E09F070034A0070080E70020F4
:10AF0000F87D002048F800204CF80020D47C002078
:10AF10002CA0070081E70020989E0020B860002048
:10AF2000A7490BA84BF0A0FB00285CD0A54905223F
:10AF30000BA84BF0C4FB002855D0A34905220BA851
:10AF40004BF0BDFB00284ED0A0490BA84BF08CFB6A
:10AF5000002848D09E490BA84BF086FB00287AD0E9
:10AF60009C490BA84BF080FB002874D09A4905221D
:10AF70000BA84BF0A4FB002800F0AA8097490622FA
:10AF80000BA84BF09CFB002800F0A28094490522FE
:10AF90000BA84BF094FB002800F0CD8091490622CD
:10AFA0000BA84BF08CFB002800F0C5808E490522D1
:10AFB0000BA84BF084FB002800F09D808B490622F3
:10AFC0000BA84BF07CFB002800F0958088490BA86B
:10AFD0004BF04AFB00284BD00BA8FFF729FD0028B7
:10AFE0003FF496AE27E7834C237803F0FF050BB9B7
:10AFF000814BFCE681498248052233F0F5FA87E669
:10B00000804A8149116001221A7081E67F4B03EB6F
:10B010000C333088294613FA80F022464AF036FB7A
:10B020003388C8F8007014FA83F39BB233806FE65C
:10B030003188DFF818E2754B89B2AEF8001011685C
:10B04000CCF80010116881F00101116030801268A5
:10B0500003EB0233DDE76E4C237803F0FF05002B92
:10B060003FF4C4AE6B496648092233F0BDFA4FE69F
:10B07000694B186849F046FB03AE04460D4645ECA3
:10B08000104B3246022104203FF03EFB48A3D3E997
:10B0900000232046294649F0D5F947A3D3E90023E8
:10B0A00049F088FB49F036FE6428A8BF642020EAF6
:10B0B000E0735A4A0096182105A84BF005FA05A836
:10B0C0004BF0F5FA05A982B24D4833F08DFA1FE630
:10B0D0009DF82D30532B0CBF062005200BAB1844D8
:10B0E000182114F0B3FD0028B5D14D4944480D2274
:10B0F00033F07AFA0CE64B4D2B7803F0FF07002B68
:10B10000B0D19DF82D30532B3ED00DF131042046A7
:10B11000182114F09BFD0028E7D021463E46424B03
:10B12000424C1822184626704BF0DBFA002101220F
:10B1300001762A70ECE53B78002B93D13C4B1D78CF
:10B14000002D8FD19DF82D30532B27D00DF13104D8
:10B150002046182114F07AFD0028C6D021462E463C
:10B16000344C354B354D1E70182220464BF0B9FA41
:10B17000334E3448344900230122338023762B7028
:10B1800003700A703A70C3E50DF1320420461821AD
:10B1900014F05CFD0028A8D02146C0E70DF1320470
:10B1A0002046182114F052FD00289ED02146D7E7F2
:10B1B0006666666666660A40721CC7711CC75B409D
:10B1C00060A0070068A0070070A0070078A0070033
:10B1D00088A0070090A00700A4A00700ACA007006B
:10B1E000C4A00700CCA00700D4A00700DCA0070083
:10B1F000E4A0070075C2002008A2002080A007007C
:10B20000B01D0120D47C0020FC9F0700D8C6002080
:10B21000F57D002098A007003C2E0120ECA007003F
:10B22000B4A0070078C600209CC60020A69E00207F
:10B23000121A0120B8C60020A79E0020F1A100200C
:10B2400058C20020B5C60020F2A10020D46B002017
:10B2500008B5082209490A4833F0C6F9FFF790FB00
:10B26000C8203FF073FAFF210020FCF743F8572174
:10B270000020FCF73DF8FCF725F800BFF8A0070018
:10B28000B01D0120124B13490122002030B45A6036
:10B290000325DA600424C3F8040541F28830C3F8BA
:10B2A0000855C3F810454FF48035C3F840056024B5
:10B2B0004FF08060C3F80022C3F8045381F81A43AA
:10B2C000C1F880010860044930BC0A701A607047F8
:10B2D00000A0014000E100E00D7E002070B5304C80
:10B2E000304D314882B014F0D7FC40F24C43032279
:10B2F00001212E48C4F8005622F0FCF92C4BC4F86A
:10B30000005640F24C461978284840F24C4303223C
:10B3100022F08AFF3346032204212448C4F8005651
:10B3200022F0BCFAC4F800560323002201211F4872
:10B33000009622F0F5FAC4F80056032301220021FA
:10B340001A48009622F0ECFAC4F8005603230222B1
:10B3500000211648009622F0E3FA03231A46C4F8A7
:10B36000005600211148009622F0DAFAC4F800567F
:10B37000032300210D480096062222F0D1FA0D4B3E
:10B38000C4F80056197809B102B070BD33460322E3
:10B39000064822F0E9FDC4F8005602B070BD00BFB7
:10B3A000000001403546526EFC7D002088380120A7
:10B3B000AC620020AD6200204FF0102310B5D3F82E
:10B3C0000C4214F0010451D101211F2042F090FCE5
:10B3D00021461F2042F010FD344B1B78002B3DD03E
:10B3E000334B1B68002B13DD324ADFED336A92EDDD
:10B3F000007A324A07EE903AB8EEC77AF8EEE77A6A
:10B4000027EE267A012382ED027A1370C2ED017ACB
:10B4100005203FF09BF92A4837F0E2FE284838F033
:10B42000AFF9274837F0F0FE264B274801241C705F
:10B4300017F0C2FC254B1C703FF07CF9244A254BC9
:10B440001060DB68D9010AD440F08CFB224BA0FBD2
:10B450000301830A43EA8153204A136010BD204B45
:10B460001A68D207F0D55B689B09F5E71D4B0122EE
:10B47000C3F80425D3F80024002AFBD04FF0102392
:10B480006FF00101174AC3F80C12D2F80034002BF8
:10B49000FBD000231349C2F80435D1F80034002B47
:10B4A000FBD00A203FF052F9FBF70CFF4463002069
:10B4B0000C3F01204C630020EC51783F24610020B8
:10B4C000E0F70020DCF70020087C002005A2002027
:10B4D00070C20020F0ED00E040420F00A09E00206E
:10B4E000001000E000E001404248434BC26830B524
:10B4F000002142F08072C26059601A6885B042F043
:10B5000001021A605A680391039B3F2B05DC039BE1
:10B5100001330393039B3F2BF9DD374B374C5B68BB
:10B520009A4214BF0123002323701DD0344B3548A9
:10B530003022002140251D604AF0D0F84FF0102342
:10B54000314AD3F80C3200211170DA0731D52A4B79
:10B55000596801913FF0EEF8019902462B4805B079
:10B56000BDE8304017F056B8254B26483022002160
:10B5700001251D604AF0B2F84FF01023224AD3F89B
:10B580000C320021DB07117013D51A4BDB68D80190
:10B5900006D5194B1A68D10702D559688909D8E729
:10B5A00040F0E0FA1A4AA0FB0223910A41EA8351D3
:10B5B000CFE701211E2042F09BFB00211E2042F01C
:10B5C0001BFC144A144B916F2078144D144C1F2906
:10B5D00098BF4FF0A04301F01F0101228A402A606A
:10B5E000C3F80C2523600028B1D1024BDB68D801D9
:10B5F000D6D5CEE7F0ED00E0001000E0D66B0020DD
:10B60000D0600020BCA10020189E002064F800201B
:10B6100040420F0060DF070000030050EC6B002089
:10B62000F06B002030B51C4B1B7883B00446F3B19F
:10B630001A4B5D681A4B1B681BB11A4A1268C3F893
:10B640000C2521681848691A17F060F83FF072F865
:10B650001649174B096800910246019329464FF499
:10B660007A73114817F06AF8204603B030BD114BC9
:10B67000DB68D90106D5094B1A68D20702D55D6887
:10B68000AD09D7E740F06EFA0B4BA0FB0301850A2A
:10B6900045EA8155CEE700BFD66B0020001000E0E0
:10B6A000F06B0020EC6B002064F80020D0600020DC
:10B6B000189E0020F0ED00E040420F00104A114BB0
:10B6C000114810B50021114C11704FF47A621960C5
:10B6D00021604AF003F80E48037C6BB90D4C41F031
:10B6E0002DF92068022117F009FB08B1002323601F
:10B6F000BDE8104041F02CB9103029F0B3FAEDE765
:10B70000F83E0120442E0120941E0120342E0120F9
:10B71000043B0120381B01202DE9F0430024BDB07B
:10B72000374B049401464FF47A75224607A8ADF8CA
:10B730001C408DF81E400595039329F0D1FC20B9DB
:10B74000002528463DB0BDE8F0832E494FF48062C5
:10B7500007A829F025FD064607A829F083FAB6F5C3
:10B76000806FEDDB284E009502A9019125480294D7
:10B77000334610AA4FF4806114F040F805460028C3
:10B78000DFD0224BDFF89880214FDFF8989010A986
:10B79000184617224AF0A5FF03461F22404616A965
:10B7A000DC754AF09EFF88F81F403846DFF8788045
:10B7B0001F221EA94AF095FFFC770F22154F26A9DC
:10B7C00048464AF08EFF0F222AA9404689F80F40CA
:10B7D0004AF087FF0F2238462EA988F80F404AF01A
:10B7E00080FF029A0C4BFC731A6012B1013A56F8B2
:10B7F00022200A4B28461A603DB0BDE8F08300BF06
:10B8000048B4070048F90020941E0120001C0120C4
:10B81000E01B0120381C0120342E0120442E012081
:10B82000181C0120481C0120D01B012070B50C4EB3
:10B83000054641F083F83068294617F047FA044678
:10B8400020B941F085F83368204670BD294630683C
:10B8500017F04CFA306041F07BF8204670BD00BF15
:10B86000381B012030B5254B1C788BB004BB054636
:10B870000320FFF7DBFFD8B12149ADF8044001A850
:10B8800023462A468DF8064029F022FCB8B11C490F
:10B89000ADF804402A46012301A88DF8064029F09E
:10B8A00017FCF8B917491848072232F09DFE0BE043
:10B8B00016491548042232F097FE0BB030BD1449EA
:10B8C0001148092232F090FE124C41F037F82068FE
:10B8D000032117F013FA08B10023236041F038F870
:10B8E0000BB030BD01A82AF04BFD0028DAD00A4980
:10B8F0000548072232F078FEE6E700BF121A012061
:10B90000E866002008A10700B01D01200CA5070073
:10B9100054A00700381B012010A1070010B5084CE7
:10B9200082B0019041F00AF82068019917F0E6F919
:10B9300008B10023236002B0BDE8104041F008B810
:10B94000381B01202DE9F0433E4B3F4C3F49D3F8D3
:10B9500000803F4D3F4E0128BDB004BF25460E4636
:10B96000B8F1000F54D107460320FFF75FFF00280E
:10B970004ED0394B394A3A4C3A49CDF80480012F20
:10B9800018BF1A4604A843464FF47A77ADF81080E2
:10B990008DF812800297009429F09AFB9DF81030E0
:10B9A000002B40D0DFF8C890DFF8C8802E4F04E0AD
:10B9B00011A829F057F9C8F8007600224FF47A73DD
:10B9C00004A911A80F93CDE90D42ADF844208DF8DC
:10B9D000462029F0A3FE9DF844300BB313F0D00F9E
:10B9E000E6D11AA9402211A82BF0EEF81AAB2AA82A
:10B9F0002A4646214AF068FD431E442BD8D882B21D
:10BA00002AA9484632F0F0FD0A203EF09FFECFE71B
:10BA1000164917480C2232F0E7FD3DB0BDE8F0832F
:10BA200004A829F01FF90320FFF778FF30464AF0F9
:10BA30003EFE314682B20E4832F0D6FD3DB0BDE842
:10BA4000F08300BF381B01202CA1070038A107009C
:10BA500018A1070024A10700B0B5070024BA070009
:10BA600048B40700E86600203546526E40A1070042
:10BA7000B01D0120000001402DE9F0473C4B1C683F
:10BA8000ADF5287D24B90320FFF7D0FE054640B967
:10BA900038493948042232F0A7FD0DF5287DBDE86C
:10BAA000F0872346354E364A364904944FF47A7768
:10BAB00007A8ADF81C408DF81E400597039629F0A5
:10BAC00007FB9DF81C30002B4ED0DFF8CC90DFF840
:10BAD000CC802D4F05E014A829F0C4F82B4BC3F8F7
:10BAE000007600224FF47A7307A914A8CDE91062FA
:10BAF000ADF850208DF85220129329F00FFE9DF8DA
:10BB0000504014B314F0D004E5D10DF1740A51463D
:10BB10004FF4807214A82BF057F81B9A0192002D55
:10BB200014BF4B4643461A4ACDF800A04FF4967115
:10BB30005DA84AF0C9FC5DA982B20F4832F054FDFD
:10BB40000A203EF003FE2546C5E707A829F08AF83B
:10BB50000320FFF7E3FE0F490748032232F044FDBC
:10BB60000DF5287DBDE8F0870320FFF7D7FE8FE7AE
:10BB7000381B01200CA50700E81C012048B4070071
:10BB8000689F0700E86600203546526E00000140BD
:10BB900054A1070060A10700ECCD070050A10700E9
:10BBA000F0B5334E337C8FB00446002B5BD10320BD
:10BBB000FFF73CFE00284FD0002722462D4C2E498F
:10BBC00001943B464FF47A7505AC05A8039502979E
:10BBD000ADF814708DF8167029F07AFAA446BCE816
:10BBE0000F00264D029C74600FC5BCE80F000FC506
:10BBF000DDE90321337CDCF800002860C6E902217E
:10BC000003B31F4B1F4CF26A1F4822601F6012F0E3
:10BC1000D1F93EF08FFD1D4A1D4910601D48236873
:10BC20001D4A0F6001242021047001A84AF04CFC39
:10BC300001A84AF03CFD01A982B2184832F0D4FCB8
:10BC40000FB0F0BD0320FFF769FE15491348052228
:10BC500032F0CAFC0FB0F0BD12491048042232F095
:10BC6000C3FC0FB0F0BD06F1100028F0FBFF9EE70B
:10BC7000D819012048B40700E8660020E81901201F
:10BC8000D01901200C1A0120F8F7002064C200200E
:10BC9000909E0020121A012064A10700B01D01200F
:10BCA00034A007000CA507002DE9F04F214C85B00A
:10BCB00004F26C4980464F4604F2444BA2460325E9
:10BCC00001AEFF220023CDF80880ADF804200393D5
:10BCD00096E80E0038462CF015FA94F87E34154894
:10BCE000C4F8689401223946D3B92BF01FFA78B111
:10BCF000584628F0B7FF1048514629F033FA78B17A
:10BD00000E4A0F4B1460C3F8008005B0BDE8F08FF9
:10BD100003460246394607482BF008FA0028E7D1C7
:10BD200064203EF013FD013DCBD1284605B0BDE8AF
:10BD3000F08F00BFE86600202C6B00208477012084
:10BD4000ECA1002038B52848284A037C0024147050
:10BD500053BB274A274B002414701C70FEF710FEBB
:10BD6000254A264B2648147021461C7031F046FEA9
:10BD7000244834F03FFE78BB214831F005FF224BC8
:10BD80001B7803BB01210C2041F0B2FF01210C20E4
:10BD900042F032F81D491E4A1E4800230B701370F2
:10BDA000BDE83840FFF780BF1B4D103028F05AFF28
:10BDB00040F0C4FD2868032116F0A0FF00B12C60FC
:10BDC00040F0C6FDC5E70F48002134F0E9FD0D48FD
:10BDD000002134F0E9FDD5E70A4834F03FFE014682
:10BDE000084834F025FEC7E7D8190120CC190120F6
:10BDF000121A012060C20020F57D002075C20020CB
:10BE00002C8A0120EC830120101A0120D419012072
:10BE1000111A012080841E00381B012008B5054B33
:10BE20001B780BB1FFF78EFF64203EF08FFCFBF711
:10BE300049FA00BFCC190120F0B5244D244F00234E
:10BE400087B028463B70FFF72FFF044610B120460D
:10BE500007B0F0BD1F4E0495FF230590ADF80C30E0
:10BE600006F26C4506AB13E90E0028462CF04AF9A1
:10BE700096F87E34C6F86854002BE8D1D6F86C34B6
:10BE800028469B6998470028E1D0D6F868140191AC
:10BE90002346012230462BF049F9019960B10E4842
:10BEA00028F0E0FE0B4901F2444029F05BF950B163
:10BEB0000A4B04461E60CAE72346224630462BF052
:10BEC00035F90028EBD101233B70C0E780841E00C8
:10BED000F93E0120E86600202C6B002084770120C9
:10BEE00010B58AB000231A4A1A49ADF8043001A8E7
:10BEF0008DF8063029F0ECF860B90446ADF804007E
:10BF0000134A15498DF80640012301A828F0B8FF0F
:10BF1000044658B10023114A0E49ADF8043001A877
:10BF20008DF8063029F0D4F8044610B120460AB046
:10BF300010BD0A4A0849ADF8044001A801238DF854
:10BF4000064028F09DFF012420460AB010BD00BF26
:10BF5000B0B50700E86600202C6B002024BA07006B
:10BF60002DE9F04F5C4E5D4D96F800C015F80C3091
:10BF70008DB05BB302ABDFF88CA1DFF88C91DFF8FA
:10BF80008C81DFF88CB101930AEB0C130FCB019C71
:10BF900019F80CE058F82C7084E80F008CF00100C0
:10BFA00000233070714606AA2046CDE90633CDE95C
:10BFB0000833CDE90A3305F80C3017F023F858B9E7
:10BFC00096F800C015F80C30002BDDD1444C2378D6
:10BFD0002BBB0DB0BDE8F08F0DF1180EBEE80F00C1
:10BFE000DFF830C13F4CACE80F009EE803004CF88E
:10BFF000040B3D488CF8001001230370BDF82A1093
:10C0000027603A46584617F08FF896F800C015F8A2
:10C010000C30002BB8D1324C2378002BD9D0334EC2
:10C020003EF088FB3378B3B1314F3B78FBB9314DEB
:10C030002B78002B45D1304A13681BB1C31AB3F5D6
:10C040007A7FC6D32D4B1060186000212C4833F046
:10C050002FF828700EE0274D2B78002BB9D02848F8
:10C0600033F048F8244A002313602B70B1E73B7883
:10C07000002BF0D12378002BABD01E4D2B78002B5A
:10C08000A7D03378002BA4D03B78002BA1D13EF071
:10C0900051FB154B1A780346D2B9024647F22F518D
:10C0A0008A4296D9154C22689A1A8A4291D9144824
:10C0B000236033F01FF81248002132F0F9FF287096
:10C0C00087E73B78002BCAD12378002BD9D180E7B2
:10C0D000044A1268821AE1E7B86B0020D8E7002012
:10C0E000FE7B00207CE70020F47D0020F93A01204F
:10C0F000E36B0020F8A10020F4A100208C7C00203C
:10C10000888A0120D8E60020F8E6002074E70020A5
:10C110003CF80020BC6B002070B5144C237813B998
:10C120009FED130A70BD134D2E683EF003FB0146D0
:10C13000304616F0E3FF0028F2D023781BB90E4BEF
:10C1400093ED000A70BD2C683EF0F4FA01462046DB
:10C1500016F0D4FF0028F2D03EF0ECFA0146074872
:10C1600016F0ECFF0028EAD1DAE700BFF47D0020EA
:10C170000000C07F7CE70020BC6B00203CF8002062
:10C180002DE9F04FDFF8188198F80050A1B015B9EB
:10C1900021B0BDE8F08F3EF0CDFA384A1368C31ADB
:10C1A000202B0446F4D9DFF8FCA01060DAF8000078
:10C1B00000285BD027F0E6FE8DF84C00FDF7FEFC72
:10C1C000DAF800308DF84D00002B00F0E1811846C0
:10C1D00027F08CFF1490FDF74BFDDAF80030159036
:10C1E000002B00F0CD81184627F00EFF1690FDF7CA
:10C1F00067FD18AF1790002601363046FDF7B2FDF7
:10C2000047F8040B3046FDF7EDFD032EB860F3D17F
:10C210001B490AA813AA16F0DFFD0C9B1BB1194B92
:10C220009DF834201A709DF835301BB1164B9DF8DF
:10C2300036201A709DF82C30002B3FD098F8003033
:10C24000002B5ED0114B124901221A700A703EF089
:10C2500071FA104A104B1060DB68DE0124D50F4BD9
:10C260001A68D00720D55B689B0925E0FDF786FC9E
:10C270000028A1D026F01CFF9EE700BF109E0020E2
:10C28000087C0020B8A10020DD7C0020149E002046
:10C29000A59E0020B4A10020F0ED00E0001000E019
:10C2A000DCF70020283F01203FF05CFCBC4BA0FBEA
:10C2B0000301830A43EA8153BA4A13600A9B03B31A
:10C2C00098F80030EBB1B84F3B78002B00F00982B2
:10C2D000B64B1A78AAB9012100221A7039703EF0C3
:10C2E00029FAB34AB34B1060DB68D90140F11382DD
:10C2F000B14B1A68D20740F10E825B689B09A94ACC
:10C300001360AE4F3B78002B40F0DA80AC4E3378B0
:10C31000002B40F0E881AB4A1370A34F3B7883B108
:10C32000A34AA24B10681B78201A002B40F0D3813F
:10C330009C4B0AAA196815F057FB3870002840F08A
:10C340007D810AA815F070FB9F4B1B78002B40F0F5
:10C3500069819E4B93F80090B9F1000F40F0628123
:10C360003378002B40F00782994F9A4BDFF8A88270
:10C37000DFF8A8B2DFF8A8A203932822002116A8AC
:10C3800049F0ACF997ED007ADBED007A924B039A15
:10C390001B7812681592B8EEC77AF8EEE77A8DED41
:10C3A000137ACDED147A0BB198F82830DAED007AD3
:10C3B0008DF85830F8EEE77ACDED177AFFF7ACFE3E
:10C3C00010EE102A02F0FF4110EE103AB1F1FF4FCB
:10C3D00004BFC2F31603B3FA83F398F828707F48BA
:10C3E0007F4A98F8291090F801C0D2ED007AD8F869
:10C3F00024201C920CBF5B092B468DF8643000236F
:10C4000067F30703774F8DED180A61F30F23317837
:10C410003A78754F6CF3174361F31F63F8EEE77AD0
:10C4200097F800C01D930123CDED1A7A8DF878C0DE
:10C430008DF86C3032B13B7803F0FF0213B16B4BD7
:10C440001A78D2B203788DF87920042B00F0748129
:10C45000674B1B78022B00F0C381664A664B12784B
:10C460001B78664F8DF87A908DF87B208DF87C30A4
:10C47000002900F06381624A3878234613A915F039
:10C48000ABFEC0F30722C0F307438DF828008DF8F8
:10C4900029208DF82A30002D00F0C780594B5A4AC8
:10C4A000187813A9234615F097FEC0F30722C0F3AE
:10C4B00007438DF846008DF847208DF84830B7E0E7
:10C4C000524A534B106819683D4E201A0AAA15F0BB
:10C4D000AFF9337838708046002B00F0F7803C4F7E
:10C4E000384997ED000A4B4823460122B8EEC00AAE
:10C4F00015F09CFDC0F30722C0F307438DF84C00F4
:10C500008DF84D208DF84E30B8F1000F40F0968038
:10C510002C4B1B78002B3FF400AF1399BDF84C2037
:10C520009DF84E30ADF82810080CADF83410ADF879
:10C5300040108DF82A008DF836008DF84200ADF8D5
:10C540002B20ADF82E20ADF83120ADF83720ADF816
:10C550003A20ADF83D20ADF84320ADF846208DF8E7
:10C560002D308DF830308DF833308DF839308DF82E
:10C570003C308DF83F308DF845308DF848305DE027
:10C58000FDF7FCFA002800F0CF8026F0EFFC2DE646
:10C59000FDF7F4FA00283FF41DAE26F085FD19E6FC
:10C5A00040420F00E07C0020A59E0020149E002049
:10C5B000B4A10020F0ED00E0001000E005A2002092
:10C5C000F93A0120A49E0020CC190120D27201204A
:10C5D000303F0120881E0120541E012004F8002055
:10C5E00054630020101A0120387C0020FD7B0020BD
:10C5F000949E0020DD7C0020B8A10020486300202C
:10C60000047C002049630020E47C002070C20020EC
:10C61000A09E002024610020081E01204C63002001
:10C6200050630020A74815F0D3FDA74815F0D0FDB2
:10C6300033781BB9A549A64A0B701370A54C217815
:10C6400041B3A54B93F8292022B3998DA34AD3F87F
:10C650002E30B2F90020CDF8163013A801F5FA6398
:10C6600005A9ADF8143015F003FF13A815F0F8FE76
:10C670009B4A9C4B12781B78C2EB0212C3EB03114E
:10C680009200890092B289B215F09CFF002840D038
:10C69000954B1978954E0AA815F002FA0AAC0025B8
:10C6A000284615F0BDF9A37800936378227881B20B
:10C6B0000135304637F03EF80B2D04F10304EFD17D
:10C6C0008A4836F0A1FD21B0BDE8F08F884A13708A
:10C6D0000028B3D121E6874B0AAA196815F092F910
:10C6E0002BE6854BF7E5854F814997ED000A844895
:10C6F00023460122B8EEC00A15F098FCC0F30722C9
:10C70000C0F307438DF84C008DF84D208DF84E3066
:10C71000FEE62178BEE73FF025FA7A4BA0FB030145
:10C72000830A43EA8153EAE5FDF738FA00283FF42B
:10C730005DAD28F091F959E5A9468EE6387815F0F7
:10C7400041FD28B933786BB15E4815F041FDA5E68F
:10C750003378002B7FF48FAE6B4B187815F032FDD9
:10C76000054688E6684B187815F02CFD05465548B7
:10C7700015F02EFD8FE6DFF89CB1604F9BF800307E
:10C78000032B3CD0DFF8508198F828301BB198F883
:10C790002930002B37D113A9204615F0A9FCDFF86A
:10C7A00078B15A4BDFF874A103930DF14C0CBCE83F
:10C7B0000F00CDF82B00CDF82F10BCE80300BCF81B
:10C7C00000E09CF802C0CDF83320CDF83730CDF82A
:10C7D0003B00CDF83F10ADF843E08DF845C0CCE507
:10C7E0003DF0A8FF4A4B31781B6840F6B839C01AB3
:10C7F00048458CBF4FF000094FF001092DE63B681A
:10C80000002BBFD1B1E5FDF7D9F910BB9BF8003083
:10C81000032B35D0DFF804A13C4BDAED007A93ED21
:10C82000000A039300230893F8EEE77A059309932F
:10C830004FF07E53079305A8FF2313A9DFF8D8B064
:10C84000CDED067A8DF821308DF8233015F014FBEC
:10C85000ABE7FDF70DFA0028D8DDDAF800301BB1A0
:10C86000FDF7D4F90028D1D0FDF752FA13A815F03E
:10C8700097FA264BDFF8A0B0DFF8A0A0039394E767
:10C88000DFF894B097ED000ADBED007ADFF88CA0BA
:10C890000023F8EEE77A0893059309934FF07C5252
:10C8A000FF23B8EEC00A05A813A98DF821308DF832
:10C8B0002330CDED067A079215F0DEFA134B039381
:10C8C00073E700BF047C0020E47C0020DD7C0020B6
:10C8D000B8A1002044630020081E0120123F01205F
:10C8E000476300204663002045630020E0F70020F6
:10C8F000A49E0020E07C0020149E0020303F0120F8
:10C900002461002040420F0049630020881E01205E
:10C910007CC60020FA3A01204C63002050630020BE
:10C9200070B5144C237813B99FED130A70BD134DE5
:10C930002E683DF0FFFE0146304616F0DFFB002872
:10C94000F2D023781BB90E4B93ED010A70BD2C6811
:10C950003DF0F0FE0146204616F0D0FB0028F2D054
:10C960003DF0E8FE0146074816F0E8FB0028EAD152
:10C97000DAE700BFF47D00200000C07F7CE70020E4
:10C98000BC6B00203CF8002070B5144C237813B920
:10C990009FED130A70BD134D2E683DF0CBFE01468E
:10C9A000304616F0ABFB0028F2D023781BB90E4BB3
:10C9B00093ED020A70BD2C683DF0BCFE0146204696
:10C9C00016F09CFB0028F2D03DF0B4FE014607486B
:10C9D00016F0B4FB0028EAD1DAE700BFF47D0020AE
:10C9E0000000C07F7CE70020BC6B00203CF80020EA
:10C9F0002DE9F04F9A4C9B4A94F828302DED0A8B84
:10CA00000021ADF5277D1170002B00F08980964D37
:10CA10002E68002E00F0E280944B94ED042A1978E1
:10CA2000D4ED052A94ED000B94ED021B002940F093
:10CA3000EC8030468DED121B8DED100BCDED152ADF
:10CA40008DED142A22F0DCFD9DED121B9DED100BE7
:10CA5000DDED152A9DED142A286822F0E5FE94F8F4
:10CA60002830002B5CD0824B1B78002B46D0814BAA
:10CA70001B78002B42D0804E3378002B59D0206990
:10CA800047F040FE02460B46A06943EC182B47F0E6
:10CA900039FE02460B466069676A43EC1A2B47F081
:10CAA00031FE6DA3D3E9002347F084FE94ED00CB63
:10CAB00094ED02BB56AD41EC190B284685ED089B61
:10CAC00085ED048B85ED06AB85ED00CB85ED02BBD6
:10CAD000AF6213F019FB002840F0E080674D3DF095
