:020000022000DC
:1070000000000420159C0500559C0500579C0500B8
:10701000599C05005B9C05005D9C0500000000007C
:10702000000000000000000000000000919B05002F
:10703000619C050000000000B19B0500659C0500F7
:10704000719E0500679C0500F9720500F5EA0300D2
:10705000A9EB0300679C0500D1750500679C05003E
:10706000679C0500679C0500679C0500679C050000
:10707000679C0500679C0500679C0500679C0500F0
:10708000679C0500E1980500679C0500679C05006A
:10709000679C0500679C05007D970400679C0500C0
:1070A000679C0500679C050081260300679C05001E
:1070B000679C0500679C05000000000000000000C0
:1070C000679C0500679C0500679C050059A40500A6
:1070D000679C0500679C0500679C050019AF0400CC
:1070E000679C0500679C0500679C05000000000088
:1070F00000000000679C050000000000D1A405000E
:10710000000000000000000000000000000000007F
:10711000000000000000000000000000000000006F
:10712000000000000000000000000000000000005F
:10713000000000000000000000000000000000004F
:10714000000000000000000000000000000000003F
:10715000000000000000000000000000000000002F
:10716000000000000000000000000000000000001F
:10717000000000000000000000000000000000000F
:1071800000000000000000000000000000000000FF
:1071900000000000000000000000000000000000EF
:1071A00000000000000000000000000000000000DF
:1071B00000000000000000000000000000000000CF
:1071C00000000000000000000000000000000000BF
:1071D00000000000000000000000000000000000AF
:1071E000000000000000000000000000000000009F
:1071F000000000000000000000000000000000008F
:10720000F1EE103A43F08073E1EE103A704700BFA0
:1072100010B5054C237833B9044B13B10448AFF3D0
:1072200000800123237010BDFC64002000000000DA
:1072300084D1060008B5034B1BB103490348AFF3E3
:10724000008008BD000000000065002084D1060019
:10725000154B002B08BF134B9D46A3F5803A002128
:107260008B460F461348144A121A3BF0BFF80F4BD7
:10727000002B00D098470E4B002B00D098470020E1
:10728000002104000D000D48002802D00C48AFF387
:1072900000803AF0EDFF2000290032F013FD3AF0B3
:1072A000C1FF00BF00000800000004200000000033
:1072B00000000000FC640020245F012000000000AA
:1072C00000000000BFF34F8F0549064BCA6802F467
:1072D000E0621343CB60BFF34F8F00BFFDE700BFF9
:1072E00000ED00E00400FA053CDF70473DDF704729
:1072F00041DF704711DF7047002070470120704761
:1073000001207047704700BF704700BF704700BF43
:107310000F4B104810491A78F0B4104F104E114D11
:10732000114C00233B703370037010482B70237096
:107330000F4D0B700F4C1049037017202B702370EA
:10734000088012B10D4B01221A70F0BC704700BFCB
:10735000B0D90020BD8C0020386A0020987A002027
:107360004D7A00204C7A0020A08C0020B8D9002053
:10737000FCD900209E8A0020CC600020DA8C0020FE
:1073800038B50446C069524D3AF0C6F846A3D3E971
:1073900000233AF02BF902460B46A069C5E9002309
:1073A0003AF0BAF840A3D3E900233AF01FF90246B5
:1073B0000B46606AC5E902233AF0AEF83CA3D3E974
:1073C00000233AF013F902460B46E06BC5E90423AB
:1073D0003AF0A2F838A3D3E900233AF007F90246BD
:1073E0000B46B4F84C00C5E906233AF095F834A3EF
:1073F000D3E900233AF0FAF802460B46206CC5E9BF
:1074000008233AF089F830A3D3E900233AF0EEF8E4
:1074100002460B46A06AC5E90A233AF06DF824A398
:10742000D3E900233AF0E2F8C5E90C01E37DAB6350
:10743000237DA1882748012B8ABF637D002303F0A9
:10744000010385F83C30E27A234B02F00702A2F1F7
:107450000702B2FA82F25209A1F5FA61E98785F8CA
:107460003D20A27985F84020E27985F84120227AF2
:1074700085F84220627A85F84320A27A85F8442074
:1074800021680268A3FB01439B094FF47A7404FB53
:1074900013131249A5F846300132012302600B7024
:1074A00038BD00BFAFF3008048AFBC9AF2D77A3E38
:1074B000FCA9F1D24D62503F51601FEF14D95F3FDC
:1074C0007B14AE47E17A843FF168E388B5F8E43E87
:1074D000B0DD0020FCDD0020D34D6210F8DD00207F
:1074E000704700BF037C13F0080306D0C36A406AEC
:1074F000181A48BF6FF0004070471846704700BF29
:1075000010301CF065BA00BF10301CF0C5BA00BFC7
:1075100000B583B00B4601220DF1070110308DF844
:1075200007301CF0B9FA03B05DF804FB70B5134BDB
:1075300005462946012612481E7022F017F9044616
:1075400020F0FAF82046F72120F00AF9204602211F
:1075500020F016F900221146204620F009F9094BC7
:107560001E7030F0A1F80849084B0D8002462046F5
:10757000BDE870401A6020F0E1B800BFB8D9002023
:10758000A42B0120FDD90020F6D90020F8D9002035
:1075900000B587B00346064A684618213BF01CFE3A
:1075A000694682B203481FF04FFF07B05DF804FB45
:1075B000406A060058DD002010301CF06DB800BF96
:1075C00000B583B001220DF1070110301BF092FFCE
:1075D00001280CBF9DF807004FF0FF3003B05DF8A5
:1075E00004FB00BF084611463BF0DEBD084630F004
:1075F0009DB800BF084630F07FB800BF38B5154BC6
:10760000DB68D90103D5144B1A68D2071ED431F0B8
:1076100063FA124BA0FB0301830A43EA815310492A
:107620000A6840F6B7309A1A82420ED90D4A0B60AA
:1076300011780D4D0D48C9B2012445F82130137859
:10764000234403F00F031370047038BD5B689B097B
:10765000E5E700BFF0ED00E0001000E040420F0061
:1076600098FE0020E0FE0020A0FE002095FE0020F5
:1076700010B5034B036004460DF0A2FF204610BD79
:10768000A075060070B5124C124A134B22600026FA
:1076900047F268506360C4F8886332F053FB0F4BC5
:1076A0000F4D93ED000B32462146044618F028F8A2
:1076B0000C4B2C6093ED000A204618F059FB0A4B46
:1076C000286893ED000ABDE8704018F067BB00BF62
:1076D000B8D500204C6A0600BCAB06000061002053
:1076E000DCDA00208C610020886100202DE9F04F59
:1076F0004948037CABB0002B40F08A804748037CAC
:10770000002B40F081804648037C002B78D145480F
:10771000037C002B70D1002432202FF0D1FF424E89
:10772000424A43490194234604A84FF47A75ADF8C0
:1077300010408DF81240029500961BF073FE9DF8E4
:107740001000002855D03B4D2B68132B49DC3A4FD5
:10775000DFF8E88005E011A81BF02EFC2B68132B46
:107760003FDC4FF47A73002204A911A80F930E9402
:10777000ADF844408DF846400D961CF091F89DF808
:10778000443040221AA911A85BB31CF0DDFF9DF81C
:10779000443013F0D00F1AA8DDD13BF010FE0346A1
:1077A0001AAA0638062B39461044D4D93BF0ACFD52
:1077B00081460028CFD1D5F800A00AEB4A0B08EB90
:1077C0000B1B1AA92F2258463BF013FE0AF10103A6
:1077D00011A82B608BF82F901BF0EEFB2B68132B5E
:1077E000BFDD04A81BF0E8FB28680028D4BF0020F8
:1077F00001202BB0BDE8F08F10301BF0DDFB8AE7D5
:1078000010301BF0D9FB82E710301BF0D5FB7AE774
:1078100010301BF0D1FB71E78CFA002004DC002053
:10782000ECFE002020FF0020BC750600546A060014
:10783000186500207CFA0020586A0600C0FA002073
:1078400081682DE9F0470568044669B1284E2B6828
:107850000A685B68A260B34208463DD12FF066FF1C
:10786000A1680029F3D12568238E04F10C0903B324
:107870000027E36ADFF878A0B8460BE02FF056FF48
:10788000E36AC6F80080218EC6F804800137BAB2D8
:1078900091420FD9BEB203EBC606716808460029B3
:1078A000EFD02B685B685345E8D028469847E36AD9
:1078B000E7E7E36A00214FF6FF7299452186A28629
:1078C00007D02A680A4952688A420BD118462FF01D
:1078D0002DFF2046BDE8F08728469847A16800297B
:1078E000B5D1C0E72846194690472046BDE8F08745
:1078F000ED75020081682DE9F0470568044669B11D
:10790000284E2B680A685B68A260B34208463DD1E6
:107910002FF00CFFA1680029F3D12568238E04F114
:107920000C0903B30027E36ADFF878A0B8460BE040
:107930002FF0FCFEE36AC6F80080218EC6F80480B2
:107940000137BAB291420FD9BEB203EBC6067168D5
:1079500008460029EFD02B685B685345E8D02846DD
:107960009847E36AE7E7E36A00214FF6FF7299451B
:107970002186A28607D02A680A4952688A420BD11A
:1079800018462FF0D3FE2046BDE8F08728469847DA
:10799000A1680029B5D1C0E728461946904720467E
:1079A000BDE8F087ED75020030B5414B414C93F8CE
:1079B000442093F8420093F8411093F8435093B059
:1079C000049293F84020CDE90205CDE9002106A8F4
:1079D000DB8F394A18213BF0FFFB206800284AD092
:1079E00018F08CF9354D03462068002B18BF1D4652
:1079F00018F0B4F9236832490F90002206A8CDE9A7
:107A000010220E950C900D91002B3CD0184618F0CA
:107A1000A1F900283BD1206818F086F9002836D05B
:107A20001AF004FD23681090002B2ED0184618F091
:107A300091F950BB206818F077F930B31AF034FD93
:107A40000446204A204B126800924FF480610CAA31
:107A50001E4811940CF0E0F900211D481BF052FE65
:107A60001A491B484FF480621CF016F818481BF0A6
:107A7000AFFF13B030BD1249104A164B06A8CDE92E
:107A80000C01CDE90E23002310930024D9E72068D0
:107A90000028F8D018F05EF928B1206818F056F9DF
:107AA00018B11BF087F92368BDE72368BBE700BF67
:107AB000B0DD0020DCDA0020706A0600606A060093
:107AC00064610020C0ED002020DE002078C100208D
:107AD000F8DA0020BCAB060010B5134C2068B8B132
:107AE00018F038F9A8B1206818F030F91BF060F9E7
:107AF0000E4A1368B3F57A7F0ADA48B10C490C686C
:107B0000844205D00B4C086044F823000133136015
:107B100010BD206818F008F90028F9D0206818F086
:107B200003F91AF081FCE3E7DCDA0020C0ED002065
:107B3000D0ED002020DE00202DE9F04705468068CA
:107B40002F6860B1284C3B6802685B68AA60A3425A
:107B50002AD12FF0EBFDA8680028F4D12F682B8ED6
:107B600005F10C093BB30026EB6ADFF87C80B246D6
:107B70000BE02FF0DBFDEB6AC4F800A0298EC4F8FF
:107B800004A00136B2B2914216D9B4B203EBC404D8
:107B9000616808460029EFD03B685B684345E8D040
:107BA00038469847EB6AE7E7014638469847A868A1
:107BB0000028C8D1D2E7EB6A00214FF6FF72994541
:107BC0002986AA8607D03A68074952688A4205D1B1
:107BD00018462FF0ABFD2846BDE8F0873846194619
:107BE00090472846BDE8F087ED7502002DE9F04783
:107BF000038E8146054659F80CABFBB10026C36ADB
:107C0000DFF8A080374609E02FF090FDEB6A27608F
:107C1000298E67600136B2B2914210D9B4B203EB3B
:107C2000C404616808460029F1D0DAF800305B68C6
:107C30004345E9D050469847EB6AE8E7C36A00211C
:107C40004FF6FF7299452986AA860CD0DAF80020F3
:107C5000144C5268A24221D118462FF067FD04232C
:107C6000C5F82C906B86A8682E6800232B7158B13C
:107C70000C4C336802685B68AA60A34206D12FF0FF
:107C800055FDA8680028F4D1BDE8F08701463046CC
:107C90009847A8680028ECD1BDE8F08719465046FF
:107CA0009047DCE7ED7502002DE9F0418B8E4FF631
:107CB000FF72934282B00C46054616D0CA6AD909B3
:107CC00002EBC10203F07F01526832F83100A08656
:107CD00002EBC10200204FF6FF71107128462A60A6
:107CE000AB80D18002B0BDE8F081098E2768002901
:107CF00032D1638E002B00F085800123E66A5A4A58
:107D000023864FF480604FF080083B681B689342E5
:107D100074D12FF0F1FC238EE76A7060013B9BB2B7
:107D200007EBC30100284A6808BF4FF00008002095
:107D3000A6F80080708022B137F833604888864208
:107D40002ED8012100224FF6FF73284621712A60A8
:107D5000AB8002B0BDE8F081E66A4B1E9BB206EB39
:107D6000C30E3046DEF804202AB1BEF802C036F851
:107D70003380E0451CD8638E994223D03A4A4B1C8D
:107D80009BB2B3F5007F00EBC106238615BF4FF40D
:107D900080604FF47E704FF080084FF07F08B4E7AA
:107DA00000EBC313441C9BB202EBC0024C8091E772
:107DB0000CEBC3130CF101019BB202EBCC02AEF849
:107DC000021087E7B3F5007FBBD004F10C025B0023
:107DD00096421FFA83F83B6816D024489B6883427A
:107DE0004FEAC80135D130463BF0DEF90028A8D073
:107DF0001D4A218EE062A4F83280C0E70146384671
:107E0000984788E7E66AE0E7174A1B6801929342C1
:107E10004FEAC80022D12FF06FFC019A002890D0C1
:107E2000D6F800C07168B368D6F80CE0C0F80CE072
:107E3000C0F800C041608360D6F810C07169B369B2
:107E4000D6F81CE0C0F81CE0C0F810C041618361A6
:107E5000CFE70A46384631469847C7E701463846D5
:107E60009847019ADAE700BFF5750200E575020050
:107E70002DE9F0418B8E4FF6FF72934282B00C4693
:107E8000054611D0CA6AD90902EBC10203F07F018D
:107E9000526832F83100A08602EBC10228462A60FF
:107EA000AB8002B0BDE8F081098E2768002932D18D
:107EB000638E002B00F085800123E66A594A2386F1
:107EC0004FF480604FF080083B681B68934274D188
:107ED0002FF012FC238EE76A7060013B9BB207EB28
:107EE000C30100284A6808BF4FF000080020A6F828
:107EF0000080708022B137F83360488886422ED8DF
:107F0000012100224FF6FF73284621712A60AB80C1
:107F100002B0BDE8F081E66A4B1E9BB206EBC30ED1
:107F20003046DEF804202AB1BEF802C036F83380AD
:107F3000E0451CD8638E994223D03A4A4B1C9BB231
:107F4000B3F5007F00EBC106238615BF4FF48060B8
:107F50004FF47E704FF080084FF07F08B4E700EBDD
:107F6000C313441C9BB202EBC0024C8096E70CEB9F
:107F7000C3130CF101019BB202EBCC02AEF802106C
:107F80008CE7B3F5007FBBD004F10C025B00964296
:107F90001FFA83F83B6816D023489B6883424FEA58
:107FA000C80135D130463BF0FFF80028A8D01D4A63
:107FB000218EE062A4F83280C0E701463846984737
:107FC00088E7E66AE0E7174A1B68019293424FEAA6
:107FD000C80022D12FF090FB019A002890D0D6F84B
:107FE00000C07168B368D6F80CE0C0F80CE0C0F8C7
:107FF00000C041608360D6F810C07169B369D6F8DB
:108000001CE0C0F81CE0C0F810C041618361CFE7FC
:108010000A46384631469847C7E7014638469847EA
:10802000019ADAE7F5750200E57502002DE9F843DB
:1080300007464068BD68032D884600F1080613D83E
:108040005FFA85FC002D77D00CF1FF3456FA84F4EA
:10805000C31D002213F8011F002908BF42F00102CE
:10806000A342F7D1002A40D000237355D7F80090DF
:10807000BE68D9F80830A3B106F1070C8444DA8849
:1080800096420BD13EB3C21DDC1D01E0944522D0C7
:1080900012F8011F14F8015FA942F7D01B68002BEA
:1080A000EDD1B6F5803F7D68D9F8004034D2236821
:1080B00028489B68834206F1090140D128463BF0DD
:1080C00073F8034643B33A68DE8091681960002173
:1080D0009360796002E09A8801329A800522C8F89C
:1080E000003088F80420BDE8F883022388F80430C3
:1080F000037A88F80030BCF1010F08D0437A88F881
:108100000130BCF1020F02D0837A88F802300023DC
:1081100008F80530BDE8F88323680F4A5B6893428E
:1081200013D02946204698473A68002392680121D7
:1081300089F804101A60FFDE02230B71E7E70A4694
:108140002046294698470346BCE728462FF0EEFA1A
:10815000EAE700BFE5750200ED7502002DE9F04782
:1081600045684DB18368EA88934204460E4605D0BF
:108170001D440133A3602E72BDE8F0875B00D0F888
:1081800000905F1CB7F5803FD9F8008012D2D8F874
:1081900000201549D2F808A08A4503F10A021CD133
:1081A000114628463BF000F820B1C780A368606004
:1081B0000546DDE7D8F800300C4A5B68934208D1E9
:1081C00028462FF0B3FA0122002389F804206360C7
:1081D000D2E7294640469847F5E729464046D0472A
:1081E0000028E2D1E6E700BFE5750200ED75020068
:1081F00003792DE9F0470C46D907054637D4DA064E
:1082000024D413F0600F1DD02E884FF6FF77BE42A6
:1082100015D0E36AF20903EBC20306F07F09D3F835
:10822000048008EBC900B246C6882146FFF7E0FF8C
:10823000A38E28F83930BE42A4F834A0E9D14FF01B
:10824000FF332B6000232B71BDE8F0872A884FF69F
:10825000FF718A4237D0E16AA68ED00901EBC001D6
:1082600002F07F00496821F83060A286C9E7A06863
:108270002A6826680028C2D0824216D001460068CB
:108280000028BCD08242F9D18288013A92B2828021
:10829000002AB4D103680B6033680C4A5B689342D0
:1082A0000CD12FF043FA2B79A9E78288013A92B2D8
:1082B0008280002AA3D10368A360EDE7014630461F
:1082C00098472B799BE700231B80FFDEED750200AA
:1082D0002DE9F04F0E46097885B02B29009000F06B
:1082E000FD802D2940F0B88071780120019006446E
:1082F000A1F13000C0B2092800F2B680DFF8F8938F
:10830000C0B20021002400254FF0993816F801BFB3
:108310002418ABF13007FFB241EB05054FEA850E9B
:10832000092F6FEA07024FF0FF334FEA840C4EEA41
:10833000947EF8B24FF0000100F21E81A94508BFFB
:10834000A0450BD31CEB040C4EEB050E1CEB0C04F0
:108350004EEB0E05AB4208BFA242D7D24FF0000A47
:108360000023204629460A2239F096FDA946A04658
:108370001FFA8AF3B9F5200F03F1010A08BFB8F11B
:10838000000F04460D460FFA8AFAE9D2092F0BD8DE
:1083900002339B1B06EB030A16F801BFABF1300258
:1083A000092A0FFA8AFAF5D9BBF12E0F00F0B68030
:1083B0000BF0DF03452B60D0BBF1000F56D10AF163
:1083C00026034C2B00F2FC80002D08BFB4F5000FF3
:1083D00080F0F68007EE904ABAF1000FF8EEE77AE7
:1083E00040F36481BC4B1AF0010F1CBF93ED007A7F
:1083F00067EE877A5FEA6A0223D0D00744BF93ED25
:10840000017A67EE877A5FEAAA021AD0D10744BFE1
:1084100093ED027A67EE877A5FEAEA0211D0D2071B
:1084200044BF93ED037A67EE877A5FEA2A1A08D091
:10843000BAF1010F0CBF93ED047A93ED057A67EE64
:10844000877A019B0BB1F1EE677A009A0123C2EDA6
:10845000027A137010460DE000200190A1F1300067
:10846000C0B209287FF64AAF2E2953D0009A0023C4
:108470001370104605B0BDE8F08F96F801B0BBF15F
:108480002D0F36D0BBF12B0F00F0F080ABF1300395
:10849000DAB2092A06F101068ED80AEB0302B2F518
:1084A0009A7F00F3D780002706E002EB400303EB3E
:1084B0000A02B2F59A7F79DC16F801BFABF13002FF
:1084C000D1B2092903EB8300EFD9002F40F0C78018
:1084D0009A44BBF1000F3FF472AFC7E771780020F8
:1084E0000190A1F13000C0B2092806F10106BBD805
:1084F00004E796F802B0ABF13003DAB2092A06F1CC
:1085000002063FF659AF0AEB0302B2F59A7F4FDC41
:108510000127D1E7002400254FF0000A96F801B0AA
:10852000ABF13000C0B2092806F101063FF640AFBA
:108530006A4B4FF099329D424FEA850108BF944241
:108540004FEA840741EA94710ED23F1945EB0101CD
:1085500017EB070841EB01090AF1FF3A18EB000499
:108560000FFA8AFA49F1000516F801BFABF13000A5
:10857000C0B20928DFD91BE7BBF1000F40F0D28061
:10858000019B8BB1B5F1004F08BF012CBFF4E6AEE3
:10859000644265EB45050223009A1046C2E9024594
:1085A000137005B0BDE8F08F0323F5E7002F51D01D
:1085B00000994FF00042012308468A600B7059E78A
:1085C0002046294638F0DCFFBAF1000F79DD444C33
:1085D0001AF0010F7AD15FEA6A032DD0DF0700F1AC
:1085E0008D805FEAAA0327D0DE0700F18C805FEA66
:1085F000EA0321D0DD0700F18B805FEA2A131BD04C
:10860000DA0700F18A805FEA6A1315D0DB073ED4EF
:108610005FEAAA1310D0DF073ED45FEAEA130BD05B
:10862000DE073ED45FEA2A2306D0DD0744D45FEAA2
:108630005A231CBF2B490020019B13B101F10043B9
:108640001946009A0423C2E902011046137005B0CE
:10865000BDE8F08F019B0020BBB12349F1E7AAEBF5
:10866000030ABBF1000F3FF4AAAEFFE696F802B092
:10867000ABF13003DAB2092A06F102067FF60DAF3C
:10868000BBF1000F3FF49BAEF0E61849D9E7D4E9FF
:108690000A2338F0ABFFBBE7D4E90C2338F0A6FF80
:1086A000BBE7D4E90E2338F0A1FFBBE7CAF1000A0B
:1086B0003FF4C7AE0E4B96E6D4E9102338F096FF90
:1086C000B5E7CAF1000AB7D00A4C81E7D4E9002324
:1086D00038F08CFF7FE700BF2876060099990100EB
:1086E000887606000000F87F0000F0FF0000F07FB1
:1086F000107606004076060099999919D4E902236C
:1087000038F074FF6DE7D4E9042338F06FFF6EE7AB
:10871000D4E9062338F06AFF6FE7D4E9082338F07C
:1087200065FF70E7B5F5801F08BF002CBFF416AEDB
:108730004FF0000A38E600BF10B5064C206838B18B
:1087400017F008FB20B12068BDE8104017F0FEBA12
:10875000002010BDDCDA002010B50E4C2068B8B146
:1087600017F0F8FA38B9206817F0DEFA18B1BDE84A
:10877000104019F045BE206850B117F0EBFA38B13F
:10878000206817F0E3FA18B1BDE810401AF0FABA01
:10879000002010BDDCDA002010B50E4C2068B8B106
:1087A00017F0D8FA38B9206817F0BEFA18B1BDE84A
:1087B000104019F029BE206850B117F0CBFA38B13B
:1087C000206817F0C3FA18B1BDE810401AF0DEBAFD
:1087D000002010BDDCDA002038B52348234D16F008
:1087E000D1F80021042032F03DFA0121052032F0B9
:1087F00039FA092445F001050021052032F0B6FAC6
:108800004FF4A070A8470121052032F0AFFA4FF4D1
:10881000A070A847013CEFD10121042032F022FAD8
:108820002146042032F0A2FA4FF4A070A84701219B
:10883000052032F09BFA4FF4A070A84701210420D4
:1088400032F094FA4FF4A070A847074816F020F8C9
:108850000749054816F078F8BDE838400548012278
:108860003C2127F03FBE00BF0C2A0120F082060009
:10887000801A06001CDB00202DE9F047544E554DB0
:108880003768D7F80080404632F08EFA034645F04C
:10889000010503244FF4FA405BB9012C74D0A847BA
:1088A000404632F081FA0346013C4FF4FA40002B77
:1088B000F3D001237B71484F464DD7F80080D8F89C
:1088C0000090484632F070FA034645F00105032453
:1088D0004FF4FA405BB9012C66D0A847484632F005
:1088E00063FA0346013C4FF4FA40002BF3D0012316
:1088F00088F80530DFF8EC90364DD9F80080D8F8CC
:1089000000A0504632F050FA034645F0010503241A
:108910004FF4FA405BB9012C22D0A847504632F000
:1089200043FA0346013C4FF4FA40002BF3D00123F5
:1089300088F8053033681B793BB1284A136803F582
:108940009C5308331360BDE8F0873B681B79002B0C
:10895000F3D1D9F800301B79002BEED1BDE8F087B8
:108960002EF0A2FE98F80530002BE3D01C4BD8F86F
:1089700008201B68801A9842DCD32EF095FEA8F8D8
:108980000440C8F80800D5E72EF08EFE7B79002B56
:1089900091D0134BBA681B68801A98428BD32EF083
:1089A00083FEBC80B86086E72EF07EFE98F8053026
:1089B000002B9FD00A4BD8F808201B68801A9842D9
:1089C00098D32EF071FEA8F80440C8F8080091E78B
:1089D000D0600020F0820600D460002074DB00200C
:1089E000C4600020D8600020424B1B682DE9F04194
:1089F0001E68414D304632F0D7F9034645F0010577
:108A000003244FF4FA405BB9012C0BD0A847304641
:108A100032F0CAF90346013C4FF4FA40002BF3D080
:108A2000002600E02646354B334D1B681F6838464C
:108A300032F0BAF9034645F0010503244FF4FA4039
:108A40005BB9012C0BD0A847384632F0ADF903468C
:108A5000013C4FF4FA40002BF3D0002500E02546FE
:108A6000274B254F1B68D3F80080404632F09CF915
:108A7000034647F0010703244FF4FA405BB9012C89
:108A80000AD0B847404632F08FF90346013C4FF414
:108A9000FA40002BF3D000249EB11A4E3378DBB19C
:108AA00065B1194D2B78F3B124B1184C23785BB123
:108AB000BDE8F081154B1C70BDE8F081124B1D70B4
:108AC000F2E7104B1E70EBE72EF0EEFD104A01238B
:108AD00010602370BDE8F0812EF0E6FD0D4A012301
:108AE00010603370DCE72EF0DFFD0B4A01231060CD
:108AF0002B70D9E7D0600020F0820600D4600020FF
:108B0000D8600020B8DA0020C0DA0020C8DA0020DF
:108B1000CCDA0020BCDA0020C4DA0020294B1B6824
:108B200070B51E68284D304632F03EF9034645F0D8
:108B3000010503244FF4FA405BB9012C3FD0A8474C
:108B4000304632F031F90346013C4FF4FA40002B35
:108B5000F3D01E4B1C4D1B681E68304632F024F9C2
:108B6000034645F0010503244FF4FA405BB9012C9C
:108B700025D0A847304632F017F90346013C4FF4A0
:108B8000FA40002BF3D0124B0F4D1B681E68304685
:108B900032F00AF9034645F0010503244FF4FA4088
:108BA0005BB9012C0BD0A847304632F0FDF80346E4
:108BB000013C4FF4FA40002BF3D0002070BD01209F
:108BC00070BD00BFD0600020F0820600D46000209D
:108BD000D860002038B50F4A0F4B126819688A42D6
:108BE00015D00E491A6000230B6001220C4C0D4B6E
:108BF000204600251A70E57627F0DEF9204601218F
:108C000026F006FF4FF00113C4E9045338BD0022DB
:108C1000ECE700BF08610020D8ED00200CF8002030
:108C20001CDB002088FA00201A4A13680C2B28D07D
:108C30000B2B15D0083312D0174B184993ED007A3F
:108C40000B68F1EE047AB4EEE77AF1EE10FA03F570
:108C50009C5394BF09200820083310600B607047B4
:108C60000F4B10491A680B68013A9A420B4A14BF1D
:108C7000013300230B60136803F59C530833136022
:108C8000704706490B6803F59C5308335A200B6064
:108C9000106070470861002014DE002074DB0020A3
:108CA00058610020E4DA00200378462B01D0002030
:108CB000704710B54378572B044621D1114908223B
:108CC0003AF085FB08B9012010BD0F490622204665
:108CD0003AF07DFB0028F6D00C4920463AF04CFBD8
:108CE0000028F0D00A4920463AF046FB0028EAD096
:108CF000084920463AF040FBB0FA80F0400910BD28
:108D0000002010BD906A06009C6A0600A46A060056
:108D1000AC6A0600B46A06002DE9F0435E498DB0E6
:108D2000082204463AF053FB00284CD15B4F3B78B5
:108D300003F0FF06002B51D1083420462C213AF0D5
:108D40000EFB00284AD000F1010948462C213AF0D8
:108D500006FB0546002841D020460A2231463BF05A
:108D60007FFAA5EB0903082B80464AD1D9F8000009
:108D7000D9F8041002AB03C302A801A98DF8106052
:108D80000AF094FF00283CD008F1FF33B3F5A02F80
:108D900056D26878013590B1DFF844916E263BF0E9
:108DA00069FA044630463BF065FA844207D115F86B
:108DB000010F002854D019F8016B002EEFD138486C
:108DC000FEF7E6FB0DE03749062220463AF0FFFAAF
:108DD00050B9324B1B78012BDDB218D03248FEF768
:108DE000D7FB0DB0BDE8F083304920463AF0C4FA15
:108DF000C8B92A4B1B78022BF0D12D4B01221A70D7
:108E0000EFE72C48FEF7C4FB0DB0BDE8F083014648
:108E10000A22A01D3BF024FA274B1B6883420FD186
:108E2000264B1D70DDE7264920463AF0A5FA68B9C1
:108E30001A4B1B78032BD1D1224B01221A70D0E799
:108E40002148FEF7A5FB0DB0BDE8F0831F49204681
:108E50003AF092FA0028C4D11D4B01221A70C0E7E3
:108E600099F80030002BAAD1134B1A4A0198C3F885
:108E7000008005A901233B7010600AF0E1FE164A4C
:108E800005AB08A810213AF0A7F908A982B2134847
:108E90001EF0DAFAA5E700BF906A060011AD0020C7
:108EA000D06A06009C6A0600BC6A0600A46A060036
:108EB0002D6A0020C46A06003C6A0020A6690020D2
:108EC000AC6A06003A6A0020C86A0600B46A060066
:108ED000396A0020346A0020D86A060058DD002074
:108EE000E56A0600000000002DE9F0419CB01C4638
:108EF0001546002141220BA839F078FA402C224671
:108F0000294628BF40220BA839F048FA0BA83AF0AE
:108F100056FA78B1431E0BAAAD4E1A4412F8011945
:108F20000A39C9B226FA01F016296FEA000003F1E6
:108F3000FF3317D9A74E3378F3B1A7490BA8052201
:108F40003AF045FA08B9062C4ED9A44E338814FAE3
:108F500083F3B3F5805F6EDDA14B01221A701CB064
:108F6000BDE8F08110F00100E4D1591C5070D5D15A
:108F7000984E3378002BE0D19A4F3B78022B39D0B2
:108F8000994904220BA83AF022FA00B39749042227
:108F90000BA83AF01CFA00285DD19DF83030202B48
:108FA0000CA803D110F8013F202BFBD018210BF0A7
:108FB0003FF9002800F0F9808D4C237803F0FF057D
:108FC00063B38C498C4804221EF03EFAC7E7884CF4
:108FD000237803F0FF050BB38649884804221EF06E
:108FE00033FA1CB0BDE8F081854B01221A701CB029
:108FF000BDE8F081082C00F28F8082490BA83AF07E
:10900000BBF930B180490BA83AF0B6F9002840F01E
:10901000838021460BA8FFF77FFEA0E77B4B0BA9BF
:10902000184640223AF0E5F9012280F840502270BB
:109030001CB0BDE8F0813088754B294613FA80F0EA
:10904000224639F0ABF9338814FA83F39BB23380AC
:109050001CB0BDE8F0816F4907220BA83AF0B7F9C0
:10906000002800F085806C490BA83AF085F90028AB
:1090700000F09480694905220BA83AF0A8F900286D
:1090800000F08C80664905220BA83AF0A0F9002870
:1090900000F0848063490BA83AF06EF900287DD077
:1090A00061490BA83AF068F9002800F010815F4987
:1090B00005220BA83AF08BF9002800F002815C49E8
:1090C00005220BA83AF083F9002840F01381337889
:1090D000002B40F00381574B1C78002C40F0FE80A1
:1090E0000DF1310018210BF0A3F8002800F0FC80EE
:1090F000514B3A4D0DF13101184618223AF079F9E9
:1091000003463F4936484D4A1C7601232C800470A3
:109110000C701370337022E73B78022B7FF41FAF83
:10912000474B1A7802F0FF00002A7FF418AFDFF8EF
:109130004081444AD8F8007012682744974240D8CA
:10914000414A424ED2F800C0318814FA81F1B1F59B
:10915000805F40F29180DFF81CC1DCF80010013123
:1091600000F09C803A4A3B49116001221A70F6E6F1
:109170009DF83330202B0DF1330003D110F8013F5F
:10918000202BFBD018210BF053F800287FF414AFEC
:109190003149194809221EF057F9E0E62F4C23788F
:1091A00003F0FF053BB92E4B39E72E491248052243
:1091B0001EF04AF9D3E62C490F4805221EF044F967
:1091C000CDE6234A2949116001221A70C7E600BF83
:1091D00009004000987A0020F06A06009C8A00206E
:1091E0004C7A002011AD0020006B0600086B0600D1
:1091F000386A0020CC6E060058DD002090DC00208C
:10920000BD8C0020A46A0600B46A0600EC69002048
:109210009C7A0020186B06002C6B0600346B06004D
:109220003C6B0600446B0600546B0600686B06003E
:10923000806B0600FCD90020C08C00204D7A0020F5
:1092400010AD00203C6A00201CBD002020BD002085
:10925000306A0020F86A0600206B06009E8A002013
:10926000507A0020106B06004C6B0600C86A06009E
:10927000487A0020B86000204F4B03EB0C33308855
:10928000294613FA80F0224639F088F83388C8F866
:10929000007014FA83F39BB2338060E63188DFF804
:1092A00044E1454B89B2AEF800101168CCF80010CB
:1092B000116881F0010111603080126803EB023304
:1092C000DDE718210DF131000AF0B2FF60B13B4C2F
:1092D000237803F0FF05002B3FF4A0AE384939484E
:1092E00009221EF0B1F83AE6374936480D221EF041
:1092F000ABF834E6354905220BA83AF068F8B8B95E
:10930000334C237803F0FF05002BE7D10DF131003A
:1093100018210AF08DFF0028E6D02E4B18220DF1FF
:10932000310118463AF065F801220576227016E6FA
:1093300029490BA83AF020F830B10BA8FFF7B4FC8C
:1093400000283FF40CAE64E6244B186838F0F6F8B9
:1093500003AE04460D4645EC104B32460221042074
:109360002EF08CF910A3D3E900232046294637F0CC
:1093700085FF0FA3D3E9002338F038F938F0E6FB76
:109380006428A8BF642020EAE073154A00961821DB
:1093900005A839F021FF05A83AF011F805A982B215
:1093A00008481EF051F8DAE56666666666660A40A9
:1093B000721CC7711CC75B40DC8C0020386A00201F
:1093C0005C6B060058DD0020706B0600886B0600A1
:1093D000A08C0020A48C0020906B0600C8ED00201B
:1093E000986B0600A4690020124B1349012200204B
:1093F00030B45A600325DA600424C3F8040542F24D
:109400001070C3F80855C3F810454FF48035C3F801
:10941000400560244FF08060C3F80022C3F8045375
:1094200081F81A43C1F880010860044930BC0A7011
:109430001A60704700A0014000E100E0406A00208F
:1094400030B51E4C83B040F24C432046032201212C
:1094500040F24C4514F028FD204640F24C430322D4
:10946000192115F05BF92B4620460322042114F044
:10947000EFFD2046009503230022012114F02AFE6F
:109480000095204603230122002114F023FE0095BD
:10949000204603230222002114F01CFE03231A4657
:1094A00000952046002114F015FE00952046032368
:1094B0000622002114F00EFE03B030BD10F800208B
:1094C000104A114B114810B50021114C11704FF486
:1094D0007A621960216038F089FF0E48037C6BB90D
:1094E0000D4C30F0E5F9206802210BF0A1F908B12C
:1094F00000232360BDE8104030F0E4B9103019F0CB
:109500005BFDEDE780FE0020D0ED002020DE002096
:10951000C0ED00208CFA0020E0DA00202DE9F043B5
:109520000024B3B0374B049401464FF47A752246B9
:1095300007A8ADF81C408DF81E400595039319F05F
:1095400079FF20B90025284633B0BDE8F0832E49C5
:109550004FF4806207A819F0CDFF064607A819F05E
:109560002BFDB6F5806FEDDB284E009502A9019129
:1095700025480294334610AA4FF480610AF010FD8A
:1095800005460028DFD0224BDFF89880214FDFF816
:10959000989010A91846172239F02BFF03461F2276
:1095A000404616A9DC7539F024FF88F81F4038467C
:1095B000DFF878801F221EA939F01BFFFC770F22ED
:1095C000154F26A9484639F014FF0F222AA9404614
:1095D00089F80F4039F00DFF0F2238462EA988F880
:1095E0000F4039F006FF029A0C4BFC731A6012B15F
:1095F000013A56F822200A4B28461A6033B0BDE8DB
:10960000F08300BFBC75060078BD002020DE00207E
:10961000A8DB002088DB0020E0DB0020C0ED00207C
:10962000D0ED0020C0DB0020F0DB002078DB002044
:1096300070B50A4E054630F03BF9306829460BF00C
:10964000EDF8044620B1356030F03CF9204670BD9D
:1096500030F038F93368204670BD00BFE0DA0020F2
:1096600010B5084C82B0019030F022F920680199C1
:109670000BF0DEF808B10023236002B0BDE8104013
:1096800030F020B9E0DA002070B51C4D1C4C2B786E
:1096900053B3237C33BB1B4E0120FFF7E1FF1A4B72
:1096A000306800241C702C7010B130F04FFB346017
:1096B000164B1749174D184A1848194E00241C70AC
:1096C000184B0C702C6014600460214616483470EE
:1096D0004FF0FF354FF47A621D6038F087FE134B70
:1096E0001C6070BDFEF760F9237C002BD3D01048BE
:1096F0001AF06EF90E4819F05FFCCCE781FE0020ED
:10970000E8DA0020DCDA002000DC002081FA00200A
:109710001CDE002018DE0020C0ED0020D0ED00206F
:10972000E8FE00200C61002020DE0020E4FE002086
:10973000F8DA002008B51E4B1B7803B908BD2DF0E0
:10974000B3FF1C4A1C4B1268801A9842F6D91B4B77
:1097500093ED007AF0EE007AB4EEE77AF1EE10FACB
:109760001FDA174B1A78AAB12DF09EFF154B1A6815
:109770004EF65F23801A9842E0D9FFF785FF124A20
:109780001249136803F59C5308334FF0FF30136000
:10979000086008BD01221A702DF086FF094B186081
:1097A00008BD0749074A00230B70136008BD00BFBE
:1097B00081FA002084FA00201FBF020014DE00207E
:1097C0001CDE002018DE002074DB00200861002071
:1097D00070B5294B1C788AB094BB284E054630F0F2
:1097E00067F8306803210BF019F8F8B103233360F0
:1097F00030F068F82249ADF8044001A823462A4613
:109800008DF8064019F00EFE08B31D49ADF804406E
:109810002A46012301A88DF8064019F003FE00BB7B
:109820001849194807221DF00FFE15E030F04AF8DC
:1098300016491548336804221DF006FE0AB070BDB3
:109840001249114804221DF0FFFD0AB070BD1049F5
:109850000D4809221DF0F8FD0320FFF701FF0AB0B3
:1098600070BD01A81AF04EFE0028D9D0094906485B
:1098700007221DF0E9FDEFE7FCD90020E0DA002027
:1098800018650020A46B060058DD0020CC6E060091
:10989000206B0600AC6B0600F8B51649164C174A4B
:1098A000174F184E184D194800233B703370237022
:1098B0000B70174C13701749174A2B70174D236004
:1098C00013600B80164C1749027C2B604FF0FF355C
:1098D00025600B804AB9144C237803B9F8BD0320E6
:1098E000FFF7BEFE00232370F8BD103019F064FBB3
:1098F000F1E700BF3A6A00202D6A0020396A002093
:1099000011AD0020A669002010AD0020DCAC0020C5
:109910001CBD002020BD0020306A0020487A0020B5
:10992000B8600020A469002018AD002010B51A48C6
:109930001A4A037C00211170FBB9194B00241C70DA
:10994000FFF7AAFF174A184B184814701C701FF035
:10995000CDFEC8B916481DF087F8144800211FF045
:109960009BFE124800211FF09BFE01210C2031F0CC
:10997000FDF9104B00221A7010BD103019F01CFBBD
:109980000320FFF76DFED8E708481FF0E3FE01460D
:1099900006481FF0C9FEDDE7BCD90020B0D9002081
:1099A000FCD90020386A00209E8A0020A42B0120C8
:1099B000E4310120B8D90020244B1B7810B5002BCE
:1099C00038D1234B1B78002B31D12248AE2126F011
:1099D00039FA214B1B78DBB12049214B01244FF48C
:1099E00080304FF080624C60C1F80803C3F88020DB
:1099F000BFF34F8FBFF36F8FC3F88021BFF34F8F3B
:109A0000184B1948002140F24C42197014F0B4FA76
:109A1000164B1B788BB9164B01221A702DF044FEA1
:109A2000144B18602DF040FE134B186010BDFFF76B
:109A30007DFFCAE7FFF728FEC3E701210F2031F0C1
:109A400011F901210F2031F091F9E4E781FA0020AA
:109A5000B0D900201CDB00200CDE002000A001405B
:109A600000E100E0406A002010F8002078D50020D6
:109A700094FE002084FE002090FE0020F0B52E4BC6
:109A80001C68BDB01CB90320FFF7D2FD30B92B49CB
:109A90002B480C221DF0D8FC3DB0F0BD2346294DCB
:109AA000294A2A49019404A84FF47A76ADF8104067
:109AB0008DF812400296009519F0B4FC9DF8103014
:109AC00083B3234F1E4E02E011A819F075FA4FF42C
:109AD0007A73002204A911A80F930E94ADF84440A4
:109AE0008DF846400D9519F0DBFE9DF84430B3B17A
:109AF00013F0D00FE8D11AA9402211A81AF024FEC1
:109B00001AAB3A462AA8462139F066FB2AA982B246
:109B100030461DF099FC0A202DF0D2FDD4E704A8B0
:109B200019F04AFA0320FFF79BFD0A490448042272
:109B30001DF08AFC3DB0F0BDE0DA0020B46B0600F9
:109B400058DD0020BC750600C46B060018650020B7
:109B5000D86B0600D06B06002DE9F0473B4B1C6824
:109B6000ADF5287D24B90320FFF762FD054640B915
:109B70003749384804221DF067FC0DF5287DBDE803
:109B8000F0872346344E354A354904944FF47A77AA
:109B900007A8ADF81C408DF81E400597039619F0F4
:109BA00041FC9DF81C30002B4BD0DFF8C090DFF853
:109BB000C0802C4F02E014A819F0FEF900224FF4E7
:109BC0007A7307A914A8CDE91062ADF850208DF87A
:109BD0005220129319F064FE9DF8504014B314F013
:109BE000D004E8D10DF1740A51464FF4807214A8E4
:109BF0001AF0AAFD1B9A0192002D14BF4B46434652
:109C00003A464FF49671CDF800A05DA839F0E4FA19
:109C10005DA982B20F481DF017FC0A202DF050FDFF
:109C20002546C8E707A819F0C7F90320FFF718FD74
:109C30000D49084803221DF007FC0DF5287DBDE8FD
:109C4000F0870320FFF70CFD92E700BFE0DA002069
:109C5000CC6E060090DC0020BC750600546A06003D
:109C600018650020E86B0600F46B0600BCAB06002C
:109C7000E46B06002DE9F042354E337C8EB004468D
:109C8000002B60D1334D2FF013FE286803210AF01A
:109C9000C5FD50B92FF016FE2F4930482B6804221D
:109CA0001DF0D2FB0EB0BDE8F0824FF00309002793
:109CB000C5F800902FF006FE2246294C2949019450
:109CC0003B464FF47A7505AC05A803950297ADF8AD
:109CD00014708DF8167019F0A5FBA446BCE80F00AF
:109CE000214D029C74600FC5BCE80F000FC5DDE973
:109CF0000321337CDCF800002860C6E90221BBB1F7
:109D00001A48F36A1A4A1B49036001201760087059
:109D1000194A202101A839F05FFA01A839F04FFB58
:109D200001A982B20D481DF08FFB0EB0BDE8F08294
:109D30004846FFF795FC1149084805221DF084FBB1
:109D40000EB0BDE8F08206F1100019F035F999E780
:109D5000BCD90020E0DA0020CC6E060058DD0020DF
:109D6000BC75060018650020CCD90020F0D9002071
:109D7000B4D90020FCD90020F86B0600106B060057
:109D80002DE9F047784C794A94F83C302DED0A8B58
:109D90000021ADF5167D1170002B00F08980744D07
:109DA000D5F800A0BAF1000F2DD0724B197894EDC0
:109DB000000B94ED021BD4E90467D4E9068900295D
:109DC00040F0B98050468DED0E1B8DED0C0B15F05B
:109DD000DBFC4946404637F001FF39460346304632
:109DE00008EE103A37F0FAFE9DED0E1B02EE100A57
:109DF0009DED0C0B2868F0EE482A15F0EDFD94F867
:109E00003C30002B54D05C4B1B78002B3FD0DFF84C
:109E10007C8198F80030002B39D0584F3B78002BCC
:109E20004FD04FA3D3E90023D4E9060137F0DEFB7E
:109E300094ED00CB94ED02BB94ED049B94ED08AB44
:109E400046AD41EC180BD4F83890C5F82890284658
:109E500085ED088B85ED00CB85ED02BB85ED049B80
:109E600085ED06AB0AF084FB002840F09780444D56
:109E70002DF01AFC2A6842F21073801A984206D913
:109E80002DF012FC03463F482B6019F0A1FD34A3CE
:109E9000D3E90023D4E9060137F0A8FB37F09EFE92
:109EA000394B18600DF5167DBDEC0A8BBDE8F087C7
:109EB000314B1B78002BEAD0344B1B78002BE6D0BB
:109EC0002E4F3B78002BE2D194F83D30002BDED0B2
:109ED0002F4D2DF0E9FB2B68C01AB0F57A7FD6D351
:109EE0002DF0E2FB034601202B60FFF7A1FB0028C9
:109EF000CDD094F8412094F8403094F8430094F881
:109F00004210244E0390CDE900320291E38F224AA1
:109F1000502156A839F060F956A906F1100040F218
:109F2000016219F087FA337C002B40F00381012095
:109F3000FFF796FBABE794F84310B4F8463094F87B
:109F4000442094F842008DED0E1B8DED0C0B0AF0B1
:109F500095F99DED0C0B9DED0E1B014632E700BF00
:109F60000B410E4A9869F23FB0DD0020F8DD002079
:109F7000DCDA00200CDE002082FE002081FE0020C2
:109F8000CCED0020F8DA002014DE002000DC0020F8
:109F9000D4ED0020E8DA00202C6C06002AAA082163
:109FA000B0EE4C0AF0EE6C0A01202DF067FBB0EE2B
:109FB0004B0AF0EE6B0A30AA082101202DF05EFB5F
:109FC000B0EE4A0AF0EE6A0A012110AA08462DF006
:109FD00055FBB0EE480AF0EE680A22AA02210120E1
:109FE0002DF04CFBB0EE490AF0EE690A26AA0221D8
:109FF00001202DF043FB94ED0A0B13AA022101204E
:10A000002DF03CFB94ED0C0B16AA022101202DF043
:10A0100035FB5B4B186837F091FA19AA41EC100B2D
:10A02000032101202DF02AFB564B186837F086FAE1
:10A030001CAA41EC100B032101202DF01FFB524BF9
:10A04000186837F07BFA1FAA41EC100B032101209E
:10A050002DF014FB2AAB3C9330AB3D9310AB3E93F9
:10A0600022AB3F9326AB409313AB419316AB429385
:10A0700019AB43931CAB44931FAB3CAE459356F8CE
:10A08000040B14210AF00AFB00283FF4F0AEAE42A4
:10A09000F5D13E4B1B78002B36D10020014636AA65
:10A0A00018230AF005FA3A4B1FAA0B9219A91A684D
:10A0B000099116A9079113A9069126A9059122A92C
:10A0C000049130A903912AA91CAB029110A9CDE9F2
:10A0D00000910A93089236AB2E4A4FF4807156A82D
:10A0E00039F07AF82C4856A92CF0CAFB0346002810
:10A0F0007FF4BDAE294888F800303B7018F05CFF53
:10A100000120FFF7ADFAB2E6E08F94F8442094F80E
:10A110004330B4F84610029100F5FA60CDE9003200
:10A1200094F8401094F8423094F8412080B20AF03C
:10A13000B7F8B4E746AD284640220A2138F056F970
:10A1400006F110084FF480663F2E4FF0400229467A
:10A15000404609D83246403E19F09EFC3F2E4FF053
:10A16000400229464046F5D919F096FC403EEBD115
:10A170000B4909482CF014FB01233B7087E600BF14
:10A18000A8D50020ACD50020B0D500200CDE0020E2
:10A190009CFE0020046C0600E8DA0020F8DA0020BB
:10A1A0004C6C06002DE9F047204EDFF8889084B013
:10A1B00006F26C48474606F2444A032401ADFF22EA
:10A1C0000023CDF80890ADF80420039395E80E0025
:10A1D00038461BF057FD96F87E341448C6F868845C
:10A1E00039460122C3B91AF061FD68B1504618F032
:10A1F000E3FE0E4901F2444019F05EF960B10C4BE8
:10A200001E6004B0BDE8F0870346024639460748A1
:10A210001AF04CFD0028E9D164202DF051FA013CE0
:10A22000CDD1204604B0BDE8F08700BF18650020FE
:10A23000842B012080841E002DE9F043BD4DBE4CCF
:10A240002B782278D8B29A428ABF00F11003831A81
:10A250009B1ADBB2A1B0002B00F03E81B74902F09F
:10A260000F06012B51F82660009602F00F0700F050
:10A270008280561C06F00F06022B51F826600196CC
:10A2800079D0961C06F00F06032B51F82660029633
:10A2900071D0D61C06F00F06042B51F826600396E9
:10A2A00069D0161D06F00F06052B51F8266004969E
:10A2B00061D0561D06F00F06062B51F82660059654
:10A2C00059D0961D06F00F06072B51F8266006960A
:10A2D00051D0D61D06F00F06082B51F826600796C0
:10A2E00049D002F1080606F00F06092B51F8266046
:10A2F000089640D002F1090606F00F060A2B51F825
:10A300002660099637D002F10A0606F00F060B2BDD
:10A3100051F826600A962ED002F10B0606F00F06C1
:10A320000C2B51F826600B9625D002F10C0606F096
:10A330000F060D2B51F826600C961CD002F10D066D
:10A3400006F00F060E2B51F826600D9613D002F181
:10A350000E0606F00F060F2B51F826600E960AD057
:10A360000F3202F00F02102B51F822200F9202D070
:10A37000FFB251F82730DFF8FCC1DFF8FCE19CF8B0
:10A3800000702070013BDBB201AA02EB8306DEF80D
:10A3900000006B496B46002F40F00581087800F003
:10A3A000FF0208B10F703A4618680433B34219D05F
:10A3B00091F800801F68B8F1000F40F0B580A7EB5E
:10A3C00000086048A8F6B839814500F2AB8020A8A3
:10A3D00000EB820904330132B342384649F8408C1D
:10A3E000D2B2E5D10123CEF800008CF80030002A6B
:10A3F00072D0012A109B39D91199022A0B4435D009
:10A400001299032A0B4431D01399042A0B442DD0FE
:10A410001499052A0B4429D01599062A0B4425D0F6
:10A420001699072A0B4421D01799082A0B441DD0EE
:10A430001899092A0B4419D019990A2A0B4415D0E6
:10A440001A990B2A0B4411D01B990C2A0B440DD0DE
:10A450001C990D2A0B4409D01D990E2A0B4405D0D6
:10A460001E990F2A0B441CBF1F995B1807EE902AF8
:10A470009FED355A354A9FED367AD2ED006ADFED11
:10A48000355A354EF8EE677A76EE876A85EE276A9A
:10A4900007EE103AB8EE477A36EE266A85EE875A0E
:10A4A000C6EE865A96ED006AF0EE464AB7EE007A9E
:10A4B000D7EE854A77EE657AA4EEA56A67EEA66ABE
:10A4C00086ED006AF4EEC76AF1EE10FA58BFB0EEFE
:10A4D000667A82ED007A00E01F4E204A204B176812
:10A4E000DB68D90103D51F4B1A68D20758D42EF068
:10A4F000F3FA1D4BA0FB0301830A43EA81531B4A75
:10A50000DB1B93423AD8D6ED007A194AB6EE007AB0
:10A5100077EE877AFDEEE77A17EE903A136021B076
:10A52000BDE8F083384640E74FF00008384681F830
:10A5300000803AE7E0FE0020E8690020A0FE00204D
:10A54000BC600020C8781E0000401C45C060002090
:10A5500000004844C0E1644C14AD002098FE002087
:10A56000F0ED00E0001000E040420F0020A10700E5
:10A570009CFE0020D98C0020947A00200B4A0C48C5
:10A58000012111702A78227000230A4A33600023C7
:10A5900013700949094A0860136021B0BDE8F083CF
:10A5A0005B689B09ABE7002202E700BFBC600020AC
:10A5B00000401C46D98C0020C06000209CFE00207A
:10A5C0002DE9F04F80468B4658F8043B98E8070089
:10A5D00093F83C4093B006AF0DF12409202C87E896
:10A5E000070089E8070062D10CAC84E8070094E812
:10A5F00007000FAC84E8070000900446002856D0FE
:10A600001D8F4FF6FF72954251D0DB6AE90903EBCB
:10A61000C10105F07F05496811EBC50547D01099C8
:10A62000EE880292481E22184FF0010A2C4603952C
:10A6300004963546CDF8148001921E468846BAF13C
:10A64000000F11D1029B9D4231D0E80906EBC000FA
:10A6500005F07F05446814EBC50428D08AF0010A90
:10A66000E588BAF1000FEDD0207904283CD0052808
:10A6700036D002281FD0B8F1000FE3D12A464FF69A
:10A68000FF718A423346DDF81480DDE903560ED0AF
:10A69000D00903EBC00002F07F02416811EBC20158
:10A6A00005D00A79111F012925D9022A23D058463D
:10A6B00013B0BDE8F08F204638F081FE4045C1D18F
:10A6C000B8F1000FDAD0009B013C581E10F8012FA2
:10A6D00014F8013F9A42B5D1019B8342F6D1CDE7F0
:10A6E0002468E0880834E9E724682046002CE5D097
:10A6F00038F065FEE2E798E807000CAC84E8070054
:10A7000087E8070089E8070094E807000FAC84E8B1
:10A710000700804600283ED0109C671E0744BB46B9
:10A72000274654464FF6FF799A467CB94E4532D0BB
:10A73000F3090AEBC30306F07F065D6815EBC60557
:10A7400029D084F00104EE88002CEFD02B79042B63
:10A7500027D0052B3ED0022B38D0002FE6D14FF664
:10A76000FF729642534616D0F20903EBC20306F07D
:10A770007F065A6812EBC60B99D09BF80430042B65
:10A780002CD0052B2DD0022B18BF4FF0000B5846B4
:10A7900013B0BDE8F08F4FF0000B584613B0BDE882
:10A7A000F08F2D6828460DB138F009FEB842BDD1B2
:10A7B000002FD4D0681E08F1FF3313F8011F10F8E2
:10A7C000012F9142B2D15B45F7D1C8E7284638F056
:10A7D000F6FDEBE72D68E8880835E7E752F836B074
:10A7E00065E752F8363003F1080B60E72DE9F047D2
:10A7F000056804460E46002972D0084638F0DFFD91
:10A800008046002D58D02B79202B55D1002E53D0C7
:10A810002B884FF6FF77BB424ED06268D2F82C905F
:10A82000D90909EBC10103F07F024B6813EBC203A6
:10A8300042D04FF0010ADD88BAF1000F10D1BD42BD
:10A840003AD0EA0909EBC20205F07F05536813EB21
:10A85000C50331D08AF0010ADD88BAF1000FEED0CD
:10A860001A79042A35D0052A2ED0022A27D00020B2
:10A8700004468045E3D1B8F1000F0BD0721E631E71
:10A8800002EB080112F8014F13F8010F8442D6D1F0
:10A890008A42F7D14FF6FF739D420DD0EB0909EBC9
:10A8A000C30905F07F05D9F8040000EBC505281E93
:10A8B00018BF0120BDE8F0870020BDE8F0871846EA
:10A8C0001C4638F07CFDD4E71B68D88803F10804E7
:10A8D000CFE71C682046002CCBD038F070FDC8E7CD
:10A8E00088468EE7000000008368002B00F0F680A9
:10A8F0001A79402A40F0F2802DE9F04F1B884FF67C
:10A90000FF77BB428FB01CD0D0E90324D56ADA09A7
:10A9100005EBC20203F07F03526812EBC30310D0B1
:10A92000DA881CB912E0013CDA880FD0D109BA42AA
:10A9300005EBC10102F07F0603D04B6813EBC603A1
:10A94000F1D19FED950B0FB0BDE8F08F143007C823
:10A950001E7901AC84E80700202E04AC84E80700CF
:10A96000EFD194E8070007AC84E807000AAC84E85C
:10A97000070082460028E4D018884FF6FF77B842D7
:10A98000DFD0C20905EBC20200F07F03506810EB74
:10A99000C300D6D0DDF82C90C68809F1FF384FF0FF
:10A9A000010BD044BBF1000F10D1BE42C9D0F20957
:10A9B00005EBC20206F07F03506810EBC300C0D065
:10A9C0008BF0010BC688BBF1000FEED00279042A90
:10A9D0007DD0052A77D0022A60D0B9F1000FE4D1EA
:10A9E0004FF6FF708642ACD0F20905EBC20206F0CA
:10A9F0007F03576817EBC301A3D00A7912F0100444
:10AA00000CD037F83340844200F0C180E00905EBF8
:10AA1000C00504F07F006C6804EBC004023A1C2AF5
:10AA20008FD801A050F822F0E7AA020043A9020043
:10AA3000E3AA020065AB02002FAB020043A90200AB
:10AA400043A9020043A902003DAB020043A9020052
:10AA50004BAB020043A9020059AB020043A902001C
:10AA600043A9020043A9020043A9020043A902002E
:10AA700043A9020043A9020043A9020043A902001E
:10AA800043A9020043A9020073AB020043A90200DC
:10AA900081AB020043A902006DAB0200044638F00E
:10AAA0008EFC484581D1B9F1000F99D0601E0AF1A2
:10AAB000FF3212F8014F10F8011F8C427FF475AF7E
:10AAC0009045F6D18CE70468E0880834E9E704682B
:10AAD0002046002CE5D038F072FCE2E79FED2E0B0B
:10AAE000704757F833100AA8FDF7F2FB9DF828309D
:10AAF000013B032B3FF625AFDFE803F0130C050203
:10AB00009DED0C0B1FE7DDE90C0136F039FD41EC42
:10AB1000100B18E7DDE90C0136F03AFD41EC100BA3
:10AB200011E70C9836F00AFD41EC100B0BE717F813
:10AB3000330036F0E1FC41EC100B04E757F833002A
:10AB400036F0DAFC41EC100BFDE657F8330036F036
:10AB5000E3FC41EC100BF6E6086836F0EFFC41EC44
:10AB6000100BF0E657F833100831BCE794ED000BFA
:10AB7000E9E6D4E9000136F003FD41EC100BE2E612
:10AB8000D4E9000136F004FD41EC100BDBE60024B3
:10AB900044E700BFAFF300800000000000000000A9
:10ABA0002DE9F04F00F10C02034607CAD3E9014634
:10ABB0008FB001AB83E80700002C74D093E8070046
:10ABC000257904AB202D83E807006CD107AB0AAFD1
:10ABD00083E8070087E807008246002863D02088C2
:10ABE0004FF6FF7840455ED0D6F82C90C20909EBAD
:10ABF000C20200F07F03506810EBC30053D04FF047
:10AC0000010B0B9EC588BBF1000F10D145454AD002
:10AC1000EB0909EBC30305F07F05586810EBC5008D
:10AC200041D08BF0010BC588BBF1000FEED003794A
:10AC3000042B56D0052B50D0022B39D0002EE5D155
:10AC40004FF6FF7085422ED0EB0909EBC30305F0E8
:10AC50007F055C6814EBC50125D00B7913F0100259
:10AC60000DD034F83520824200F09780D00909EBEE
:10AC7000C00902F07F00D9F8042002EBC002023BB9
:10AC80001C2B10D8DFE803F0360F34595D0F0F0F7F
:10AC9000640F6B0F720F0F0F0F0F0F0F0F0F0F0FB0
:10ACA000780F7F0F86009FED3E0B0FB0BDE8F08F51
:10ACB000044638F084FB8642A8D1002EC0D00AF1A9
:10ACC000FF33601E9A1901E09A42B9D013F8014F80
:10ACD00010F8011F8C42F7D098E70468E088083428
:10ACE000E9E70468002CA9D0204638F068FBE2E7C9
:10ACF00054F835103846FDF7EBFA9DF82830013B43
:10AD0000032BD0D8DFE803F0130C05029DED0C0BEC
:10AD1000CBE7DDE90C0136F033FC41EC100BC4E766
:10AD2000DDE90C0136F034FC41EC100BBDE70C986A
:10AD300036F004FC41EC100BB7E754F8351008313D
:10AD4000D8E714F8350036F0D7FB41EC100BACE730
:10AD500054F8350036F0D0FB41EC100BA5E754F861
:10AD6000350036F0D9FB41EC100B9EE7086836F051
:10AD7000E5FB41EC100B98E7D2E9000136F000FC4E
:10AD800041EC100B91E7D2E9000136F001FC41ECF7
:10AD9000100B8AE792ED000B87E700226FE700BFF8
:10ADA00000000000000000002DE9F04F054600798A
:10ADB0008BB001AC202884E80E0055D194E8070040
:10ADC00004AA82E80B0007CA0AAA02E90B00DDF810
:10ADD0001C80B8F1000F47D028884FF6FF76B042AC
:10ADE00042D0149BD3F82C90C20909EBC20200F0A8
:10ADF0007F03506810EBC30036D0089DB0F806B052
:10AE00006F1E4FF0010A4744BAF1000F12D1B3454B
:10AE10002AD04FEADB1309EBC3030BF07F0B586812
:10AE200010EBCB0020D08AF0010AB0F806B0BAF1DE
:10AE3000000FECD00379042B31D0052B2BD0022B43
:10AE400016D0002DE3D14FF6FF739B450CD04FEA8F
:10AE5000DB1309EBC3090BF07F0BD9F8040000EBFF
:10AE6000CB000BB0BDE8F08F00200BB0BDE8F08F39
:10AE7000044638F0A4FAA842C9D1002DE3D0601EE0
:10AE800008F1FF3313F8011F10F8012F9142BED1D2
:10AE90009F42F7D1D7E70468E0880834EBE70468FD
:10AEA0002046002CE7D038F08AFAE4E72DE9F04F8D
:10AEB00085B004AC04E90E00DDF80480B8F1000FA1
:10AEC00047D000884FF6FF76B04242D00E9BD3F8B1
:10AED0002C90C20909EBC20200F07F03506810EB0E
:10AEE000C30036D0029DB0F806B06F1E4FF0010AC5
:10AEF0004744BAF1000F12D1B3452AD04FEADB1311
:10AF000009EBC3030BF07F0B586810EBCB0020D08C
:10AF10008AF0010AB0F806B0BAF1000FECD003795C
:10AF2000042B31D0052B2BD0022B16D0002DE3D1D2
:10AF30004FF6FF739B450CD04FEADB1309EBC309B7
:10AF40000BF07F0BD9F8040000EBCB0005B0BDE897
:10AF5000F08F002005B0BDE8F08F044638F02FFADE
:10AF6000A842C9D1002DE3D0601E08F1FF3313F8C9
:10AF7000011F10F8012F9142BED19F42F7D1D7E7B0
:10AF80000468E0880834EBE704682046002CE7D02A
:10AF900038F015FAE4E700BF2DE9F04184B0064629
:10AFA00004A800E90E003068DDE90187A8B17D1E24
:10AFB0004544C388BB420DD1002F56D008F1FF3362
:10AFC000C21D01E0AB4250D013F8014F12F8011F2F
:10AFD0008C42F7D000680028EBD1B7F5803F4AD209
:10AFE0000A9B2E4A1B681B68934207F1090046D151
:10AFF0002CF082FB00283ED00123C780838000F123
:10B0000008054FB300F10C0108F10402954238BF66
:10B01000884507F1FF3336D3072B34D927F00304D3
:10B02000444443462A4653F8041B42F8041BA342F7
:10B03000F9D1BA0727F003030ED018F80320EA5419
:10B040005A1C974208D9023318F80210A9549F429B
:10B0500002D918F80320EA54074400233B723368EE
:10B060000360306004B0BDE8F081838801338380E1
:10B0700004B0BDE8F081002004B0BDE8F0810146D5
:10B080000A989847B6E74344C21D08F1FF3818F8FC
:10B09000011F02F8011F9845F9D1DDE7F57502009F
:10B0A000437DDBB1037D202B12D8DFE803F01F11B5
:10B0B0001111111111111115151111151111111174
:10B0C000111111111111111111111111111115007D
:10B0D00001230373002070470023437503695A1C42
:10B0E00002611B78037501224275DCE7037B002BAC
:10B0F00014BF0220012070472DE9F04F437D85B039
:10B100000446002B00F0FD80057DDFF878B30022B7
:10B11000134662750092CBB1267D0023B54263755C
:10B120001DD0002E00F0E9805C2E20D067686FB142
:10B13000A168FB88994200F0B0800F440131A16002
:10B140003E72637DE7E7C2F30903009323695A1C4B
:10B1500022611E7826750023B5426375E1D16368CC
:10B16000002B14BF0020042005B0BDE8F08F226939
:10B17000511C21611178217501206075002900F0B2
:10B18000BC80752910D0BD4A2F2304E012F8023F7D
:10B19000002B00F0AE808B42F8D15678002E00F0E4
:10B1A000A88000236375C1E7911C63752161537802
:10B1B00023756075002B00F0A080402B86BF23F024
:10B1C0002003A3F13701A3F13001C8B20F2800F228
:10B1D00090800021D31C6175236191782175012332
:10B1E0006375002900F08980402986BF21F0200185
:10B1F00037393039C9B20F297BD80026131D66753F
:10B200002361D3782375012641EA00116675002B6E
:10B2100073D0402B86BF23F02003373B303BDBB29B
:10B220000F2B66D800206075501D206112792275A1
:10B2300043EA011301211BB26175002A5DD0402A47
:10B2400086BF22F02002373A303AD2B20F2A50D8C5
:10B2500042EA03139AB202F5205189B20020B1F5F7
:10B26000806F1EB26075FFF46EAF02F510539BB293
:10B27000B3F5806F4FD37F2A00F2A1806768002F5B
:10B280003FF464AFA368FA88934200F0DA801F4469
:10B290000133A3603E72637D3DE7D4F800A049000E
:10B2A000DAF8009001F10108B8F5803FD9F80030D4
:10B2B00012D29B68724A934201F10A0140F0A280C7
:10B2C000384637F071FF28B1A0F80680A1686060A9
:10B2D000074632E7D9F800305B685B4517D138463E
:10B2E0002CF024FA01238AF804300022637D626086
:10B2F00011E7032005B0BDE8F08F022005B0BDE8DE
:10B30000F08F03695A1C02611D780575FDE6394608
:10B3100048469847E6E7C2F30903009A8DF808000B
:10B3200043EA822303F58032C2F30531C2F3874238
:10B3300042F0F00703F03F02C3F3851361F07F0191
:10B3400062F07F0263F07F038DF80B108DF80C70B4
:10B350008DF809208DF80A300DF10D0808F1FF383D
:10B3600008E01E440133A360377218F8017D002FF6
:10B370003FF4E7AE6668002EF7D0A368F2889342E8
:10B38000EFD15A00D4F800A002F10109B9F5803FCD
:10B39000DAF8003028D21968886802F10A01384AC0
:10B3A0009042844645D13046019337F0FDFE019B23
:10B3B000D0B1A0F80690A36860600646D1E706F019
:10B3C0003F0363F07F03B2F5006F8DF809308DF80D
:10B3D00008004FEA92131AD263F03F03DFB28DF8F0
:10B3E0000A700DF10B08B9E71A6852685A451CD16A
:10B3F00030462CF09BF900234FF001028AF804201C
:10B400006360B2E70A464846394698475BE703F06F
:10B410003F029B1162F07F0243F0E0078DF80A20A3
:10B420008DF80B700DF10C0898E7314618469047DF
:10B43000E1E70A4618460193314663469847019B67
:10B44000B6E7D4F800905A00D9F8008002F1010A5A
:10B45000BAF5803FD8F8003018D29B6808498B4273
:10B4600002F10A021FD11146384637F09DFE58B14D
:10B47000A0F806A0A3686060074608E7C06C060055
:10B48000E5750200ED750200D8F800305B685B4599
:10B490000DD138462CF04AF9012389F804300022F6
:10B4A000637D626037E6394640469847DFE73946B4
:10B4B00040469847F0E700BF2DE9F04F427D8DB040
:10B4C00004460D46002A76D0027D202A12D8DFE8F5
:10B4D00002F07A1111111111111111707011117006
:10B4E000111111111111111111111111111111114C
:10B4F0001111700001217B2A217300F258815A2A10
:10B5000042D9A2F15B01202900F25181DFE811F05C
:10B51000C0004F014F014F014F014F014F014F013B
:10B520004F014F014F0114014F014F014F014F01D6
:10B530004F014F014F0121004F014F014F014F01BA
:10B540004F0132014F014F014F014F014F014F0198
:10B550006400C8491346002001259A4240F06681E4
:10B5600011F8012F6075002A00F07D8123695E1CAF
:10B5700026611B7823756575002BEED14FF002080C
:10B5800040460DB0BDE8F08F222A02D0272A40F0B5
:10B590000E8163680022A260002B00F0F18120463A
:10B5A000FFF7AAFD804698B929462046FCF73EFDE4
:10B5B0000EE0002262752269511C21611278227509
:10B5C0000121617581E7237B002BD7D14FF0010862
:10B5D00040460DB0BDE8F08FDEB220224FF0FF33C1
:10B5E0002A712B60002E00F04B81002322696375C5
:10B5F000194601201346013222611B7823756075BC
:10B60000202B00F2408101A757F823F07DB50200FE
:10B6100087B8020087B8020087B8020087B8020026
:10B6200087B8020087B8020087B8020087B8020016
:10B63000EFB90200EFB9020087B8020087B8020034
:10B64000EFB9020087B8020087B8020087B802008D
:10B6500087B8020087B8020087B8020087B80200E6
:10B6600087B8020087B8020087B8020087B80200D6
:10B6700087B8020087B8020087B8020087B80200C6
:10B6800087B8020087B8020087B80200EFB902004D
:10B69000DEB240224FF0FF332A712B60002E00F003
:10B6A000EF80002363752046FFF7FAFC80460028F0
:10B6B0008ED1637D002B00F09C81237D5D2B38D0E3
:10B6C000013E4FF6FF774FF00109D4F818A008A803
:10B6D0005146FCF7E9FA0899002900F019826B88B5
:10B6E000BDF82420BB4200F0AB81DAF82C004FEA11
:10B6F000D31C00EBCC0003F07F03406800EBC303D6
:10B70000DA806A8033464FF000022046FFF7D4FE0D
:10B71000002840F033812046FFF7C2FC002840F0AB
:10B720002D81637D002B00F09281237D5D2B40F005
:10B730007A81002363754BE700232B70637D06211C
:10B740002971002B00F07781237D4B49002B3FF4BA
:10B7500015AF9A426AD111F8012F00236375002AB0
:10B7600000F081802369581C20611B78237501201B
:10B770006075EBE701232B70637D06212971002B97
:10B7800000F05781237D3D49002B3FF4F7AE9A42EC
:10B790004CD111F8012F00236375002A63D023696F
:10B7A000581C20611B78237501206075ECE700238D
:10B7B0009E4604F11B014FF0010C15E0392A03D914
:10B7C00002F0DF00452817D13F2B03F1010013D011
:10B7D00084F815E001F8012F2269C3B2501C2061E2
:10B7E0001278227584F815C02F2AE7D82B2AA2F1E7
:10B7F0002D00E9D00128E7D9234400221A7704F16B
:10B800001C0108A8FCF764FD9DF8208008F1FF33B7
:10B81000032B0BD8DFE813F0E400D200C5001000C2
:10B8200039294FD95E2949D97A294BD94FF00308D4
:10B8300040460DB0BDE8F08FDDE90A673946304675
:10B8400036F0CCF9824635F079FE02460B4630469A
:10B85000394636F033F98146002800F025810E2361
:10B86000C5F800A02B714FF0000840460DB0BDE8B0
:10B87000F08F00BFE46C0600DC6C0600D46C0600A0
:10B880004FF00508A4E601227D2B227374D0DFF867
:10B890003093DFF830A300276368A760002B00F027
:10B8A000E680637D002B00F0AC80217D272900F02D
:10B8B000B280222900F0AF802F29B1D8A1F1410335
:10B8C000192BB3D84FF0010867752046FCF746FCEA
:10B8D000637D002B00F02B81217D2F29A1F14103F5
:10B8E00000F2D880192BEFD96368002B00F010818B
:10B8F0002046FFF7D5FB804600287FF469AE637DC4
:10B90000002B00F0AC80237D3A2B8FD1D4E901329B
:10B91000134467751F72D4E90132D4F818B08DF85A
:10B920002870083308930992CDF800B008AB0ECB0D
:10B930002846FFF7BBFA59468046002800F00781E9
:10B94000FCF756FC4146731E4FF000022046FFF7FD
:10B95000B3FD804600287FF43BAE2046FFF7A0FBF6
:10B96000804600287FF434AE637D002B00F0E78032
:10B97000237D7D2B40F0CF8000206075804627E638
:10B9800026688F4A306803681B68934240F0BD8088
:10B9900028202BF0B1FE00284FD08A4B4360606016
:10B9A000FDE5DDE90A67012F08BF002E80F08D80DC
:10B9B0000A232E602B714FF0000809E6DDE90A9A90
:10B9C00019F100464AF10007012F08BF002E80F050
:10B9D0008C800C23C5F800902B714FF00008F7E520
:10B9E0000A9A2A600E232B714FF00008F0E561756A
:10B9F00000E623695A1C22611B78237501226275B7
:10BA00005CE623695A1C22611978217501232729D4
:10BA100063757FF44EAF2046FFF76EFB804600282B
:10BA20003FF466AFD4E52C2B7FF400AF00236375A1
:10BA30004BE66549B3E6654994E601233371AEE709
:10BA4000002362F30F0362F31F432B605AE623695E
:10BA50005A1C22611B78237584F8159066E62369C9
:10BA60005A1C22611B782375012262754CE7D4F8B9
:10BA70000080D8F8000003681B684B4540F09980AF
:10BA800028202BF039FE002800F08F80C0F804A099
:10BA9000606006E739297FF617AF5E297FF622AF8F
:10BAA0007A297FF611AF1FE7A16906A8FCF7E0F934
:10BAB000069B002B3FF48CADBDF81C202A801E2174
:10BAC0002971C846C3E9006782E5A16906A8FCF7A9
:10BAD000CFF9069BE3B1BDF81C202A801A212971F9
:10BAE0004FF00008C3E9006772E5A16906A8FCF7FA
:10BAF000BFF9069B63B1BDF81C202A801C21297167
:10BB00004FF00008C3E9009A62E52821984742E710
:10BB10004FF004085CE52C2B7FF488AE6775204657
:10BB2000FFF7BEFA804600283FF4B6AE50E5236921
:10BB30005A1C22611978217584F81580CDE6236995
:10BB40005A1C22611B7823750122627511E704A833
:10BB5000FCF7AAF8049B002BDAD0594606A80393F9
:10BB6000FCF7A2F8DDF81880B8F1000FD0D0039BE5
:10BB7000BDF81C10D9806A88BDF814004FF6FF7C10
:10BB8000624519D0DBF82CC04FEAD21E0CEBCE0C6C
:10BB900002F07F02DCF804C00CEBC202D0806980A6
:10BBA00019462046FCF742FACCE6012388F8043017
:10BBB0006EE72821984766E728806980F0E700BF94
:10BBC000F575020001001F00D46C0600DC6C060055
:10BBD0002DE9F04F038E9BB00746044657F80CBB87
:10BBE000ADF80420884600F1380903B30026C36A83
:10BBF000B2460BE02BF09AFDE36AC5F800A0208E58
:10BC0000C5F804A00136B1B2884211D9B5B203EB30
:10BC1000C505696808460029EFD0DBF80030374ACF
:10BC20005B689342E6D058469847E36AE5E7C36A03
:10BC300000204FF6FF719F422086A1860BD0DBF8D3
:10BC400000102E4D4E68AE424DD118462BF06EFDC1
:10BC50000423E7626386A16826680023237161B12B
:10BC6000264D33680A685B68A260AB4208462DD156
:10BC70002BF05CFDA1680029F3D1002584F83C502D
:10BC80009DF805308DF8185049464FF0000203A882
:10BC9000CDE904558DF821500394CDF81C8009940A
:10BCA000FFF70AFC054610B99DF82050A5B9049885
:10BCB00040B1039B11491A6813685B688B4216D127
:10BCC0002BF034FD28461BB0BDE8F08F3046984776
:10BCD000A1680029C5D1D0E794F83C5015F00805BB
:10BCE00018BF0325E3E719465846B047B0E70146B9
:10BCF0001046984728461BB0BDE8F08FED7502004E
:10BD00002DE9F04F0024964DDFF884B2954996480E
:10BD10002C6093B02246CBF8004017F08BFB2146F5
:10BD20009148DFF870A217F0EDFC04E001348F4871
:10BD30002C6017F041F98C498C48002217F0B0FDB7
:10BD4000002800F005812B68C72B00F3FE8003A9B3
:10BD50008648192218F0F8FC03A82E2137F05CFB66
:10BD600008B1002303702C68814B04EB440204EB00
:10BD7000820213440C220DEB0201184637F039FB06
:10BD8000DBF800200027C72A0773CFDC794C7748FF
:10BD9000214640F6FF7217F0ADFB002801DC2C684D
:10BDA000C4E7754E2754338ED6F8008003B3F36A88
:10BDB0003C460BE02BF0BAFCF36AC9F80070318EF8
:10BDC000C9F804700134A2B2914212D91FFA84F961
:10BDD00003EBC909D9F8041008460029EDD0D8F8BA
:10BDE00000305B685345E5D040469847F36AE4E786
:10BDF000F36A624C00223286A3424FF6FF72B2868B
:10BE00000BD0D8F800205268524540F01F811846E8
:10BE10002BF08CFC0423F4627386B0683468002332
:10BE2000337158B1236802685B68B260534540F0D3
:10BE300084802BF07BFCB0680028F3D10A238DF8B6
:10BE400009300023029A4B494B4886F83C30FFF7F3
:10BE5000BFFEC4B2002CA2D196F83C30202B00F0DB
:10BE60009B80402B9BD1338F4FF6FF70834296D03F
:10BE7000F76ADA0907EBC20203F07F03526812EB9C
:10BE8000C3038CD0DA88D309824207EBC30302F0E4
:10BE90007F0104F1010403D05B6813EBC103F1D10E
:10BEA000002C3FF47CAF364BDFF8E0900D964FF05E
:10BEB00000080B270AA80124CDE90E83CDF83090A5
:10BEC00010978DF84440FEF70FFD2E4BCDF83090C3
:10BED0000AA8CDF8388010970D968DF8444057EC9D
:10BEE000106B0F93FEF700FD59EC108B002200231E
:10BEF0003046394635F0E2FD40B10022002340468D
:10BF0000494635F0DBFD00287FF449AFDBF80040FF
:10BF10001D4B04EB440203EB021303A91F22184636
:10BF200037F067FA621C0021C0E90867C0E90A8996
:10BF30002C68CBF80020C177F8E6014620469847E8
:10BF4000B06800287FF46EAF78E7084817F034F83F
:10BF5000054817F031F8012013B0BDE8F08F00BF9D
:10BF600074FA0020D0760600FCFE002014DC0020CD
:10BF7000DCED0020446A002038BD002044BD0020D4
:10BF8000F46C0600006D0600B803012070BD0020AF
:10BF900038290120ED7502002E4B0A930722012358
:10BFA0000B928DF8303000960AAF97E80E002A48C1
:10BFB000FEF7FAFE804600283FF4F1AE0379402BED
:10BFC0007FF4EDAE03884FF6FF7083423FF4E7AE97
:10BFD000F16ADA0901EBC20203F07F03526812EB47
:10BFE000C3033FF4DCAEDA88D309824201EBC3031A
:10BFF00002F07F0C04F1010403D05B6813EBCC0367
:10C00000F1D1002C3FF4CBAE144ACDF830800023A0
:10C010004FF00B0938460124CDE90D63CDE90F2916
:10C020008DF84440FEF760FC0D4ACDF8409038464C
:10C030000023CDE90C860E9357EC106B8DF844402D
:10C040000F92FEF751FC59EC108B4FE71946404612
:10C050009047DFE6EC6C060070BD0020F46C060033
:10C06000006D060070B5364D96B02DF021FC2868A5
:10C07000032108F0D3FB60B904462DF023FC3149BD
:10C0800031482B680C221BF0DFF9304B1C7016B0C6
:10C0900070BD032600242E602DF014FC2C4B2D4A7D
:10C0A000322109A837F098F82B49ADF8004009AAC9
:10C0B000234668468DF8024017F0B4F90546B8B13A
:10C0C0002549ADF8004009AA012368468DF80240D1
:10C0D00017F0A8F9C0B90320FDF7C2FA1F491A48A2
:10C0E0000F221BF0B1F9194B00221A7016B070BD67
:10C0F0003046FDF7B5FA1A4913480C221BF0A4F993
:10C10000124B1D7016B070BD684618F0FBF9002880
:10C11000E1D03046FDF7A4FA12490B4832461BF035
:10C1200093F9114A0C49ADF80040684623468DF852
:10C13000024017F077F90028D5D0FFF7E1FDD2E7EC
:10C14000E0DA0020B46B060058DD0020A08C00204F
:10C15000A48C00200C6D060018650020286D0600D8
:10C16000186D0600386D0600D0760600F0B54C4F0D
:10C170004C4D3B882B78A5B0002B51D1032003F008
:10C18000FF06FDF755FA044600283ED0464B474AC5
:10C1900032210AA837F020F84549ADF85C600AAAB8
:10C1A00017A833468DF85E6017F03CF9002866D179
:10C1B0004FF47A7300243F4E19933D4917960AAA0B
:10C1C0001BA844F202231894ADF86C408DF86E4021
:10C1D00017F028F99DF86C60002E42D03A88364955
:10C1E00092B21BA817F058FC06461BA816F0E4FEF6
:10C1F0000320FDF735FA3B889BB2B3421DD02F498F
:10C200002F480F221BF020F90FE02E492C480C225A
:10C210001BF01AF92C4A2D4B14701C7025B0F0BD80
:10C220002B4927480E221BF00FF92749274A0023E4
:10C230000B7013702B7025B0F0BD264920480322E7
:10C240001BF002F9244A1A49ADF80440234601A81C
:10C250008DF8064017F0E6F80028E6D0FFF750FD0D
:10C26000E3E70320FDF7FCF9144915480F221BF002
:10C27000EBF8154A154B16701E7025B0F0BD0C4931
:10C28000ADF85C6001230AAA17A88DF85E6017F06C
:10C29000C9F800288CD017A818F034F988E700BF37
:10C2A0009C8A00204C7A0020C08C00200C6D060077
:10C2B00018650020BC7506009C7A0020286D0600D9
:10C2C00058DD0020B46B0600987A0020BD8C002059
:10C2D0003C6D0600386D0600D07606002DE9F04F63
:10C2E000038E9BB00746044657F80CBBADF80420FC
:10C2F000884600F1380903B30026C36AB2460BE052
:10C300002BF014FAE36AC5F800A0208EC5F804A04B
:10C310000136B1B2884211D9B5B203EBC5056968DF
:10C3200008460029EFD0DBF80030374A5B689342BB
:10C33000E6D058469847E36AE5E7C36A00204FF61F
:10C34000FF719F422086A1860BD0DBF800102E4D96
:10C350004E68AE424DD118462BF0E8F90423E7624F
:10C360006386A16826680023237161B1264D336876
:10C370000A685B68A260AB4208462DD12BF0D6F963
:10C38000A1680029F3D1002584F83C509DF80530C0
:10C390008DF8185049464FF0000203A8CDE9045526
:10C3A0008DF821500394CDF81C800994FFF784F890
:10C3B000054610B99DF82050A5B9049840B1039BDB
:10C3C00011491A6813685B688B4216D12BF0AEF9DD
:10C3D00028461BB0BDE8F08F30469847A168002979
:10C3E000C5D1D0E794F83C5015F0080518BF0325D7
:10C3F000E3E719465846B047B0E70146104698476C
:10C4000028461BB0BDE8F08FED7502002DE9F04F16
:10C41000002591B0B94B049516464FF47A748146C5
:10C420002A4607A88A46B64905940096ADF81C50DE
:10C430008DF81E50039316F0FDFF9DF81C40002C54
:10C4400000F01481AF4F40F2FF12394607A817F0F1
:10C4500051F8064607A816F0AFFD0420FDF700F9D5
:10C46000002E54DDA84CBD55238ED4F800B0002B0F
:10C4700052D0E36ADFF898822F4609E02BF056F994
:10C48000E36A3760218E77600135AAB2914244D9C0
:10C49000AEB203EBC606716808460029F1D0DBF89E
:10C4A00000305B684345E9D058469847E36AE8E7BF
:10C4B000366830460EB136F082FF874240F0B080D9
:10C4C00067B109F1FF33701EDE1913F8011F10F870
:10C4D000012F914240F0A480B342F6D14FF6FF7392
:10C4E000984514D04FEAD8130BEBC30B08F07F0824
:10C4F000DBF8042012EBC80109D00B79042B00F003
:10C50000BC80052B00F00681022B00F0BB800024CC
:10C51000204611B0BDE8F08FE36A7C4E00222286EF
:10C52000B3424FF6FF72A2860CD0DBF80020784DA4
:10C530005268AA4240F0DD8018462BF0F7F8042339
:10C54000E6626386A16826680023237161B1704D9D
:10C5500033680A685B68A260AB4208467FD12BF063
:10C56000E5F8A1680029F3D10A238DF809300023EA
:10C57000029A6449644884F83C30FFF7AFFE10F03B
:10C58000FF0FC4D1B9F1000FC1D0484636F017FFF4
:10C5900094F83C30202BBAD1268F4FF6FF718E4293
:10C5A000B5D0D4F82CB0F3090BEBC30306F07F062B
:10C5B0005B6813EBC606AAD0B6F806800196012484
:10C5C0004746334605467CB98F42A0D0FA090BEBAB
:10C5D000C20207F07F07536813EBC70397D084F0BC
:10C5E0000104DF88002CEFD01A79042A70D0052AC4
:10C5F0006AD0022A50D0002DE6D12A464FF6FF75A8
:10C60000AF42019E83D0FB090BEBC30307F07F070A
:10C610005B6803EBC707002F3FF479AF17469CB95F
:10C62000A8453FF474AF4FEAD8120BEBC20208F0F2
:10C630007F06536813EBC6063FF469AF84F001042C
:10C64000B6F80680002CEBD03379042B3FF430AFE2
:10C65000052B4AD0022B44D0002FE1D13EE73046D3
:10C660009847A16800297FF473AF7DE70420FCF7A9
:10C67000F7FF204611B0BDE8F08F52F838100029BE
:10C680003FF445AF009B5D1E2A46504636F0B1FE92
:10C6900000230AF805303BE718461E4636F08FFEA9
:10C6A0004FF6FF7185428FD1002DA6D009F1FF32E0
:10C6B000701E02EB050E12F8016F10F8013F9E424A
:10C6C00082D19645F7D198E71E68F0880836E9E7E9
:10C6D0001E683046002EE5D036F071FE4FF6FF7131
:10C6E000E0E7304636F06BFEE7E63668F08808365D
:10C6F000E3E619465846904721E700BFBC7506009F
:10C70000D87A0600A08A0020A8690020B469002019
:10C71000ED75020052F838100831B3E72DE9F04FFB
:10C7200000F10C03044693E80700D4E901378DB00B
:10C730006C4684E80700002B59D01D7903AC202DEE
:10C7400084E8070052D106AC84E807000CAC04E989
:10C750000700DDF82480B8F1000F47D018884FF6A5
:10C76000FF76B04242D0D7F82C90C20909EBC20242
:10C7700000F07F03506810EBC30037D00A9DB0F87B
:10C7800006B06F1E4FF0010A4744BAF1000F12D1F4
:10C79000B3452BD04FEADB1309EBC3030BF07F0B40
:10C7A000586810EBCB0021D08AF0010AB0F806B02F
:10C7B000BAF1000FECD00379042B33D0052B2DD028
:10C7C000022B18D0002DE3D14FF6FF739B450DD0FF
:10C7D0004FEADB1309EBC3090BF07F0BD9F80430E8
:10C7E00003EBCB0318460DB0BDE8F08F00231846CD
:10C7F0000DB0BDE8F08F044636F0E1FDA842C7D188
:10C80000002DE1D0601E08F1FF3313F8011F10F86E
:10C81000012F9142BCD19F42F7D1D5E70468E0884F
:10C820000834EBE704682046002CE7D036F0C7FD5B
:10C83000E4E700BF2DE9F04FAA4BAB4F1B782DED7D
:10C84000028B00258FB03D60002B4DD004460420A4
:10C85000FCF7EEFE002847D0A44E214606F110005A
:10C860002A4616F0E7FD337C002B3AD0A04C4FF45B
:10C870008052214606F1100016F03CFE411C2CD0DF
:10C880009C4EB0F5805FB8BF25543046A8BF84F8F1
:10C89000FF5FFBF7ABF90A238DF815300023059AEB
:10C8A000934986F83C303046FFF792F910F0FF0FBD
:10C8B000044606D196F83C30202B1BD0402B00F0CC
:10C8C0008B828D4816F078FB0420FCF7C9FE0A2005
:10C8D0000FB0BDEC028BBDE8F08F06F1100016F032
:10C8E0006BFB0420FCF7BCFE05200FB0BDEC028BF7
:10C8F000BDE8F08F814A8249089608AD0823284692
:10C900004FF0010ACDE909238DF82CA0FDF758FE60
:10C910007C4B7B4909938346092328460A93FDF7FC
:10C920004FFE794B7649099381460D2328460A9399
:10C93000FDF746FE5946DFF8E8B180461F2258460B
:10C9400036F057FD49460F220BF12000CDF808B014
:10C950008BF81F4036F04DFD029B414603F130003D
:10C960000E2283F82F4036F044FD684A00960723D4
:10C97000CDE908238DF828A095E80E00029D06F168
:10C98000380085F83E40FEF791FA002800F09E80BE
:10C990000379402B40F09A8004884FF6FF739C4245
:10C9A00000F09480D6F82C80E30908EBC30304F070
:10C9B0007F045B6813EBC40400F08880D7F800B0F4
:10C9C000E5889FED538ABBF1090FCDE9064616DDD8
:10C9D0004FF6FF739D4279D0D6F82C80EB0908EB17
:10C9E000C30305F07F055C6814EBC5046ED0D7F86F
:10C9F00000B0E588BBF1090FCDE90646E8DC454902
:10CA00000B9145490422012308A8CBEB0B1A8A4459
:10CA1000CDE909460C928DF83430FFF77FFE4FEADE
:10CA20000B19014648B10379042B00F0D381052B83
:10CA300000F0CD81022B18BF002150460E2236F0A7
:10CA4000D8FC354B35490994A9EB0B0999444FF0B3
:10CA5000000A0822012308A8CDE90B120A9689F8DA
:10CA60000EA08DF83430FFF759FE00285AD0037914
:10CA70001A0757D513F0100200F0DA8102884FF63A
:10CA8000FF718A4208D0D10908EBC10802F07F0A81
:10CA9000D8F8042002EBCA0A0A3B142B42D8DFE87C
:10CAA00013F0C2014100BD014100BA014100410043
:10CAB000410041004100410041004100410041006E
:10CAC0004100B3014100AC014100A5010A4816F044
:10CAD00073FA0420FCF7C4FD00200FB0BDEC028BFC
