:020000022000DC
:1070000000000420CD2806000D2906000F290600E7
:1070100011290600132906001529060000000000AA
:1070200000000000000000000000000049280600E9
:107030001929060000000000692806001D29060025
:10704000292B06001F290600B1FF0500E94A0400AC
:10705000A14B04001F290600890206001F29060013
:107060001F2906001F2906001F2906001F290600E8
:107070001F2906001F2906001F2906001F290600D8
:107080001F290600992506001F2906001F29060052
:107090001F2906001F290600E16C05001F290600B4
:1070A0001F2906001F290600496203001F29060048
:1070B0001F2906001F290600000000000000000034
:1070C0001F2906001F2906001F290600113106008E
:1070D0001F2906001F2906001F290600A5F304002A
:1070E0001F2906001F2906001F29060000000000B6
:1070F000000000001F290600000000008931060082
:10710000000000000000000000000000000000007F
:10711000000000000000000000000000000000006F
:10712000000000000000000000000000000000005F
:10713000000000000000000000000000000000004F
:10714000000000000000000000000000000000003F
:10715000000000000000000000000000000000002F
:10716000000000000000000000000000000000001F
:10717000000000000000000000000000000000000F
:1071800000000000000000000000000000000000FF
:1071900000000000000000000000000000000000EF
:1071A00000000000000000000000000000000000DF
:1071B00000000000000000000000000000000000CF
:1071C00000000000000000000000000000000000BF
:1071D00000000000000000000000000000000000AF
:1071E000000000000000000000000000000000009F
:1071F000000000000000000000000000000000008F
:10720000F1EE103A43F08073E1EE103A704700BFA0
:1072100010B5054C237833B9044B13B10448AFF3D0
:1072200000800123237010BD2C65002000000000A9
:10723000F462070008B5034B1BB103490348AFF3E1
:10724000008008BD0000000030650020F4620700E7
:10725000154B002B08BF134B9D46A3F5803A002128
:107260008B460F461348144A121A43F0EFFF0F4B98
:10727000002B00D098470E4B002B00D098470020E1
:10728000002104000D000D48002802D00C48AFF387
:10729000008043F01BFF200029003BF06FFB43F010
:1072A000EFFE00BF00000800000004200000000006
:1072B000000000002C6500201C6F01200000000071
:1072C00000000000BFF34F8F0549064BCA6802F467
:1072D000E0621343CB60BFF34F8F00BFFDE700BFF9
:1072E00000ED00E00400FA0535DF704733DF70473A
:1072F0003CDF70473DDF704741DF704711DF70476B
:1073000012DF70470020704701207047012070474E
:10731000704700BF704700BF704700BF704700BF95
:10732000024B02F001021A70704700BFFB69002097
:1073300038B50446C069444D42F0E6FF40A3D3E9A6
:10734000002343F04BF802460B46A069C5E9002331
:1073500042F0DAFF3AA3D3E9002343F03FF894ED7B
:107360000F7AB4F84C30DFED397A9FED395A9FED42
:10737000394ADFED394AF8EEC75A94ED107A06EE35
:10738000103AF8EEC76A94ED0A7AB8EE466AB8EE9B
:10739000477A66EEA76A65EE845A26EE246A27EEDF
:1073A000057AC5ED055A85ED066AC5ED076A85EDD6
:1073B000087AE37DD4ED097A6B62237DF8EEE77AF3
:1073C000012B88BF637DC5E9020167EE857A8CBF1A
:1073D00003F00103002385F82830C5ED047AE27A32
:1073E000A1881E4B1E4802F00702A2F10702B2FA62
:1073F00082F25209A1F5FA61698585F82920A279FE
:1074000085F82C20E27985F82D20227A85F82E2027
:10741000627A85F82F20A27A85F8302021680268E8
:10742000A3FB01439B094FF47A7404FB13130D492A
:107430006B860132012302600B7038BDAFF3008010
:1074400048AFBC9AF2D77A3E90E00020ACC527370F
:107450006F12833AA8C8FE3A0AD7233CD34D621074
:10746000CCE00020C8E00020024B034AC3F800260D
:1074700001207047000001403546526E024B03491F
:10748000C3F8001610467047000001403546526EA2
:107490000AB3C2F308032DE9F0471546A3B9DFF894
:1074A0003C8006460F464FEA52290324D8F8680468
:1074B00003683A46D3F814A031464B46D047013C06
:1074C00030B914F0FF04F1D14FF0FF30BDE8F08780
:1074D0002846BDE8F0874FF0FF3070474865002030
:1074E000704700BF037C13F0080306D0C36A406AEC
:1074F000181A48BF6FF0004070471846704700BF29
:107500002AB3C2F308032DE9F0471546C3B906466E
:107510000F4638F025FF0F4BDFF83C8018604FEA2C
:1075200055290324D8F8680403683A46D3F824A000
:1075300031464B46D047013C30B914F0FF04F1D13D
:107540004FF0FF30BDE8F0872846BDE8F0874FF0E8
:10755000FF307047CC7B002048650020103024F0BD
:10756000C1BA00BF103024F021BB00BF00B583B00A
:107570000B4601220DF1070110308DF8073024F081
:1075800015FB03B05DF804FB00B587B00346064A5F
:107590006846182144F050FD694682B203482DF038
:1075A0006FF907B05DF804FB38F8060038E00020FA
:1075B000103024F0FBB800BF00B583B001220DF1FC
:1075C0000701103024F020F801280CBF9DF80700B7
:1075D0004FF0FF3003B05DF804FB00BF08461146D2
:1075E00044F012BD084638F0FDBE00BF084638F032
:1075F000DFBE00BF10B50E4C84B0227801A809216F
:1076000012F0BAF9237802332370024670B1094BA5
:107610001B7803F0FF004BB1074B1B7803F0FF0012
:1076200023B1064892B201A92DF02AF904B010BD89
:107630004EAF0020FD690020FB690020FC6A00209D
:107640002DE9F0434779402F3946A1B028BF4021AA
:107650009FB30023E9464A469C461F46054603EB76
:107660004304AE7A167000EB84040133247C14F0DA
:10767000080FC4F3C00818BF013782F801805FFA11
:1076800083FE05F10C0502F1020218BFFFB21EB124
:107690000CF1010C5FFA8CFC7145E0D8084B094CE9
:1076A0001F70094A84F800C04846102312F096FC67
:1076B000064B187021B0BDE8F083BC46E946EDE703
:1076C000F1E00020F0E00020E0E00020DEE000201B
:1076D00010B50C4CD4F868040368DB69984794F83B
:1076E0002430DB0706D400224FF0FF3384F8242037
:1076F000236310BD04F1240026F02AFF0028F2D1F4
:1077000010BD00BF4865002070B58AB01F22014639
:107710000092194802ABFF222DF02AFE0D2804D852
:1077200015482DF00BFE0AB070BD0446014602A8B4
:1077300012F080FD0028F3D0104E11483578102C3F
:1077400028BF1024E4B202A9224600EB051043F042
:1077500055FDEDB20B4B5C5538F002FE0A4C0B4A5E
:1077600044F82500012185EA01030348515533708F
:107770002DF0E4FD0AB070BD004D0120F36900203A
:10778000B4AE0020D4AE002050AF0020B4AF002033
:10779000174BDB68D90110B503D5164B1A68D20711
:1077A0001FD439F0F5FF144BA0FB0301830A43EA11
:1077B000815312490A6840F6B7309A1A82420FD9AB
:1077C0000F480B6002780F490132097802F00F026E
:1077D000914209D001780C4CC9B244F821300270B2
:1077E00010BD5B689B09E4E7084B01221A7010BDCD
:1077F000F0ED00E0001000E040420F00A401012085
:10780000EC010120EE010120AC010120ED0101207D
:1078100010B5034B0360044613F06AFD204610BD0B
:10782000F40807000F49097802290AD1F8B50E4E6D
:107830000E4F3578EDB21C467B5D0BB9202C01D97B
:10784000F8BD70470A48114600EB4510224643F048
:10785000D5FC0848E3B24355012185EA0102795578
:107860003270F8BDE0DC0020FA690020E8BF00209B
:107870000CAF00204CAF002070B5124C124A134BD5
:107880002260002647F260006360C4F888633BF022
:10789000B5F80F4B0F4D93ED000B324621460446D1
:1078A0001EF0DEF80C4B2C6093ED000A20461EF013
:1078B0007FFC0A4B286893ED000ABDE870401EF07B
:1078C0008DBC00BF98D8002044F80600E8280700C7
:1078D00010610020BCDD0020BC610020B8610020E8
:1078E000F8B51A4B1B78022B044626D0184B194AC0
:1078F00019480027214601261F7016702FF0E8F95D
:1079000005462DF035F92846F7212DF045F9284692
:1079100002212DF051F93A46394628462DF044F916
:107920000E4B1E7038F01CFD0D4B0E4A1C80106073
:107930002846BDE8F8402DF01DB90B4A0B490C4B09
:1079400010800120002208701A70F8BDE0DC0020D1
:107950004E8C00209CDC002064460120E2DC0020EC
:10796000DADC0020DCDC0020C4600020FD6900209F
:10797000FB690020214A13884FF6FF719BB28B42AE
:10798000F0B403D013889BB2984228D01C4B1B78CC
:10799000022B24D01B4B1C481C4F1D4E1D4D1E4C52
:1079A0001E491A7800233B70337003701C482B70FB
:1079B00023701C4D0B701C4C1C49037017202B703E
:1079C000237008801A4B1AB900221A70F0BC704755
:1079D0001A78002AF8D0174A01211170F4E71388A9
:1079E0009BB29842F2D1144C144900234FF6FF7019
:1079F00023701080F0BC0B70704700BFC460002083
:107A0000E0DC002094DC0020958E0020487C0020E3
:107A1000EC7B0020EB7B0020588E0020B16B002017
:107A20009CDC0020E1DC0020568C0020D06000208F
:107A30004E8C0020B38E0020FD690020FB690020E1
:107A40002DE9F04F4948037CABB0002B40F08A8011
:107A50004748037C002B40F081804648037C002B84
:107A600078D14548037C002B70D10024322038F0B7
:107A700083FC424E424A43490194234604A84FF4F2
:107A80007A75ADF810408DF812400295009623F0FB
:107A900053FD9DF81000002855D03B4D2B68132B4B
:107AA00049DC3A4FDFF8E88005E011A823F00EFB2F
:107AB0002B68132B3FDC4FF47A73002204A911A822
:107AC0000F930E94ADF844408DF846400D9623F088
:107AD00071FF9DF8443040221AA911A85BB325F02C
:107AE000BFF99DF8443013F0D00F1AA8DDD144F04F
:107AF00096FB03461AAA0638062B39461044D4D9F9
:107B000044F032FB81460028CFD1D5F800A00AEB23
:107B10004A0B08EB0B1B1AA92F22584644F099FB7D
:107B20000AF1010311A82B608BF82F9023F0CEFAF5
:107B30002B68132BBFDD04A823F0C8FA286800289F
:107B4000D4BF002001202BB0BDE8F08F103023F00F
:107B5000BDFA8AE7103023F0B9FA82E7103023F03B
:107B6000B5FA7AE7103023F0B1FA71E784FD00200E
:107B7000E4DE0020F80101202C020120100907009A
:107B80004CF806004865002074FD002050F80600FF
:107B9000B8FD002081682DE9F0470568044669B109
:107BA000284E2B680A685B68A260B34208463DD144
:107BB00038F018FCA1680029F3D12568238E04F160
:107BC0000C0903B30027E36ADFF878A0B8460BE09E
:107BD00038F008FCE36AC6F80080218EC6F80480FD
:107BE0000137BAB291420FD9BEB203EBC606716833
:107BF00008460029EFD02B685B685345E8D028463B
:107C00009847E36AE7E7E36A00214FF6FF72994578
:107C10002186A28607D02A680A4952688A420BD177
:107C2000184638F0DFFB2046BDE8F0872846984725
:107C3000A1680029B5D1C0E72846194690472046DB
:107C4000BDE8F087E575020081682DE9F047056819
:107C5000044669B1284E2B680A685B68A260B3428B
:107C600008463DD138F0BEFBA1680029F3D1256854
:107C7000238E04F10C0903B30027E36ADFF878A030
:107C8000B8460BE038F0AEFBE36AC6F80080218E00
:107C9000C6F804800137BAB291420FD9BEB203EBE5
:107CA000C606716808460029EFD02B685B6853450B
:107CB000E8D028469847E36AE7E7E36A00214FF6F1
:107CC000FF7299452186A28607D02A680A49526820
:107CD0008A420BD1184638F085FB2046BDE8F08774
:107CE00028469847A1680029B5D1C0E7284619461B
:107CF00090472046BDE8F087E57502002DE9F84F72
:107D0000074638F02DFB314DDFF8CC90DFF8CCB0D2
:107D1000DFF8CCA0064645F00105D9F800301C6814
:107D200020463BF09DFE03464FF003084FF4FA4017
:107D30006BB9B8F1010F3CD0A84720463BF090FE4C
:107D4000034608F1FF384FF4FA40002BF1D0DBF87E
:107D50000030D3F8008040463BF082FE0346032407
:107D60004FF4FA405BB9012C23D0A84740463BF0C2
:107D700077FE0346013C4FF4FA40002BF3D0144B3E
:107D80001B68D3F8008040463BF06AFE034603249C
:107D90004FF4FA405BB9012C0BD0A84740463BF0AA
:107DA0005FFE0346013C4FF4FA40002BF3D0BDE8E0
:107DB000F88F38F0D5FA801BB842F8D2054B0A206C
:107DC000C3F800A638F0D8FAA7E700BF801707006D
:107DD000DC60002000000140D4600020D86000205A
:107DE0003546526E38B5234C206800BB224C2068C3
:107DF000E0B11EF0CFF9002835D120681EF0B4F9AB
:107E0000A0B120681EF0B0F921F024FB1B4A1368D2
:107E1000B3F57A7F0ADA48B119490C68A04205D057
:107E2000184C086044F823000133136038BD22F079
:107E300029FB154B1A688242F8DA104D186038F0A9
:107E40008FFA2B68114AB3F57A7F1060EEDA20685A
:107E50000B4C22F031FB2B680A4920605A1C41F878
:107E600023002A6038BD20681EF090F923F028F81E
:107E7000CCE700BFA0010120BCDD0020B4F0002051
:107E8000C4F0002014E100209C0101207CFD0020B2
:107E90002DE9F047054680682F6860B1284C3B68A3
:107EA00002685B68AA60A3422AD138F09BFAA868EE
:107EB0000028F4D12F682B8E05F10C093BB3002666
:107EC000EB6ADFF87C80B2460BE038F08BFAEB6AA5
:107ED000C4F800A0298EC4F804A00136B2B29142C1
:107EE00016D9B4B203EBC404616808460029EFD088
:107EF0003B685B684345E8D038469847EB6AE7E75C
:107F0000014638469847A8680028C8D1D2E7EB6AEE
:107F100000214FF6FF7299452986AA8607D03A6854
:107F2000074952688A4205D1184638F05BFA28465C
:107F3000BDE8F0873846194690472846BDE8F087E7
:107F4000E57502002DE9F047038E8146054659F894
:107F50000CABFBB10026C36ADFF8A080374609E00E
:107F600038F040FAEB6A2760298E67600136B2B2BA
:107F7000914210D9B4B203EBC404616808460029E9
:107F8000F1D0DAF800305B684345E9D050469847B5
:107F9000EB6AE8E7C36A00214FF6FF72994529862C
:107FA000AA860CD0DAF80020144C5268A24221D1E3
:107FB000184638F017FA0423C5F82C906B86A86889
:107FC0002E6800232B7158B10C4C336802685B6833
:107FD000AA60A34206D138F005FAA8680028F4D1B7
:107FE000BDE8F087014630469847A8680028ECD1E4
:107FF000BDE8F087194650469047DCE7E57502007A
:108000002DE9F0418B8E4FF6FF72934282B00C4601
:10801000054616D0CA6AD90902EBC10203F07F01F6
:10802000526832F83100A08602EBC10200204FF600
:10803000FF71107128462A60AB80D18002B0BDE884
:10804000F081098E2768002932D1638E002B00F061
:1080500085800123E66A5A4A23864FF480604FF0F8
:1080600080083B681B68934274D138F0A1F9238ED5
:10807000E76A7060013B9BB207EBC30100284A68C6
:1080800008BF4FF000080020A6F80080708022B1E1
:1080900037F83360488886422ED8012100224FF6F7
:1080A000FF73284621712A60AB8002B0BDE8F081E1
:1080B000E66A4B1E9BB206EBC30E3046DEF8042088
:1080C0002AB1BEF802C036F83380E0451CD8638E72
:1080D000994223D03A4A4B1C9BB2B3F5007F00EB88
:1080E000C106238615BF4FF480604FF47E704FF0B9
:1080F00080084FF07F08B4E700EBC313441C9BB229
:1081000002EBC0024C8091E70CEBC3130CF10101B0
:108110009BB202EBCC02AEF8021087E7B3F5007F0A
:10812000BBD004F10C025B0096421FFA83F83B6857
:1081300016D024489B6883424FEAC80135D13046A7
:1081400043F062FF0028A8D01D4A218EE062A4F807
:108150003280C0E701463846984788E7E66AE0E79C
:10816000174A1B68019293424FEAC80022D138F0A7
:108170001FF9019A002890D0D6F800C07168B36842
:10818000D6F80CE0C0F80CE0C0F800C04160836095
:10819000D6F810C07169B369D6F81CE0C0F81CE0CD
:1081A000C0F810C041618361CFE70A4638463146C6
:1081B0009847C7E7014638469847019ADAE700BF73
:1081C000ED750200DD7502002DE9F0418B8E4FF652
:1081D000FF72934282B00C46054611D0CA6AD90993
:1081E00002EBC10203F07F01526832F83100A08631
:1081F00002EBC10228462A60AB8002B0BDE8F081E4
:10820000098E2768002932D1638E002B00F085800B
:108210000123E66A594A23864FF480604FF08008B4
:108220003B681B68934274D138F0C2F8238EE76A2A
:108230007060013B9BB207EBC30100284A6808BF8E
:108240004FF000080020A6F80080708022B137F8B7
:108250003360488886422ED8012100224FF6FF73F2
:10826000284621712A60AB8002B0BDE8F081E66A41
:108270004B1E9BB206EBC30E3046DEF804202AB13B
:10828000BEF802C036F83380E0451CD8638E9942B0
:1082900023D03A4A4B1C9BB2B3F5007F00EBC106DA
:1082A000238615BF4FF480604FF47E704FF0800836
:1082B0004FF07F08B4E700EBC313441C9BB202EB02
:1082C000C0024C8096E70CEBC3130CF101019BB28A
:1082D00002EBCC02AEF802108CE7B3F5007FBBD006
:1082E00004F10C025B0096421FFA83F83B6816D03B
:1082F00023489B6883424FEAC80135D1304643F09A
:1083000083FE0028A8D01D4A218EE062A4F83280A6
:10831000C0E701463846984788E7E66AE0E7174A2B
:108320001B68019293424FEAC80022D138F040F80E
:10833000019A002890D0D6F800C07168B368D6F8CA
:108340000CE0C0F80CE0C0F800C041608360D6F8D3
:1083500010C07169B369D6F81CE0C0F81CE0C0F821
:1083600010C041618361CFE70A46384631469847DD
:10837000C7E7014638469847019ADAE7ED750200EB
:10838000DD7502002DE9F84307464068BD68032DFE
:10839000884600F1080613D85FFA85FC002D77D0D7
:1083A0000CF1FF3456FA84F4C31D002213F8011FA8
:1083B000002908BF42F00102A342F7D1002A40D0B1
:1083C00000237355D7F80090BE68D9F80830A3B1E0
:1083D00006F1070C8444DA8896420BD13EB3C21DE5
:1083E000DC1D01E0944522D012F8011F14F8015F52
:1083F000A942F7D01B68002BEDD1B6F5803F7D6810
:10840000D9F8004034D2236828489B68834206F19B
:10841000090140D1284643F0F7FD034643B33A68CB
:10842000DE809168196000219360796002E09A888B
:1084300001329A800522C8F8003088F80420BDE88F
:10844000F883022388F80430037A88F80030BCF1FE
:10845000010F08D0437A88F80130BCF1020F02D036
:10846000837A88F80230002308F80530BDE8F883E5
:1084700023680F4A5B68934213D0294620469847E9
:108480003A6800239268012189F804101A60FFDE1F
:1084900002230B71E7E70A46204629469847034620
:1084A000BCE7284637F09EFFEAE700BFDD75020013
:1084B000E57502002DE9F04745684DB18368EA880B
:1084C000934204460E4605D01D440133A3602E722C
:1084D000BDE8F0875B00D0F800905F1CB7F5803FE7
:1084E000D9F8008012D2D8F800201549D2F808A097
:1084F0008A4503F10A021CD11146284643F084FD47
:1085000020B1C780A36860600546DDE7D8F8003079
:108510000C4A5B68934208D1284637F063FF01227A
:10852000002389F804206360D2E729464046984733
:10853000F5E729464046D0470028E2D1E6E700BFEC
:10854000DD750200E575020003792DE9F0470C4660
:10855000D907054637D4DA0624D413F0600F1DD0AE
:108560002E884FF6FF77BE4215D0E36AF20903EB7F
:10857000C20306F07F09D3F8048008EBC900B246B5
:10858000C6882146FFF7E0FFA38E28F83930BE42A7
:10859000A4F834A0E9D14FF0FF332B6000232B71F6
:1085A000BDE8F0872A884FF6FF718A4237D0E16A2A
:1085B000A68ED00901EBC00102F07F00496821F8C6
:1085C0003060A286C9E7A0682A6826680028C2D061
:1085D000824216D0014600680028BCD08242F9D100
:1085E0008288013A92B28280002AB4D103680B607B
:1085F00033680C4A5B6893420CD137F0F3FE2B7959
:10860000A9E78288013A92B28280002AA3D1036846
:10861000A360EDE70146304698472B799BE700239E
:108620001B80FFDEE57502002DE9F04F0E4609784C
:1086300085B02B29009000F0FD802D2940F0B880F6
:108640007178012001900644A1F13000C0B20928E0
:1086500000F2B680DFF8F893C0B2002100240025B4
:108660004FF0993816F801BF2418ABF13007FFB26C
:1086700041EB05054FEA850E092F6FEA07024FF01F
:10868000FF334FEA840C4EEA947EF8B24FF00001BB
:1086900000F21E81A94508BFA0450BD31CEB040CBA
:1086A0004EEB050E1CEB0C044EEB0E05AB4208BF67
:1086B000A242D7D24FF0000A0023204629460A22C0
:1086C00042F0E2FAA946A0461FFA8AF3B9F5200F54
:1086D00003F1010A08BFB8F1000F04460D460FFA76
:1086E0008AFAE9D2092F0BD802339B1B06EB030A47
:1086F00016F801BFABF13002092A0FFA8AFAF5D950
:10870000BBF12E0F00F0B6800BF0DF03452B60D0DD
:10871000BBF1000F56D10AF126034C2B00F2FC806E
:10872000002D08BFB4F5000F80F0F68007EE904AE8
:10873000BAF1000FF8EEE77A40F36481BC4B1AF00F
:10874000010F1CBF93ED007A67EE877A5FEA6A0239
:1087500023D0D00744BF93ED017A67EE877A5FEAB2
:10876000AA021AD0D10744BF93ED027A67EE877A46
:108770005FEAEA0211D0D20744BF93ED037A67EEB5
:10878000877A5FEA2A1A08D0BAF1010F0CBF93ED7D
:10879000047A93ED057A67EE877A019B0BB1F1EECF
:1087A000677A009A0123C2ED027A137010460DE039
:1087B00000200190A1F13000C0B209287FF64AAF35
:1087C0002E2953D0009A00231370104605B0BDE83F
:1087D000F08F96F801B0BBF12D0F36D0BBF12B0F07
:1087E00000F0F080ABF13003DAB2092A06F101069D
:1087F0008ED80AEB0302B2F59A7F00F3D7800027E8
:1088000006E002EB400303EB0A02B2F59A7F79DC43
:1088100016F801BFABF13002D1B2092903EB830096
:10882000EFD9002F40F0C7809A44BBF1000F3FF40E
:1088300072AFC7E7717800200190A1F13000C0B29B
:10884000092806F10106BBD804E796F802B0ABF19F
:108850003003DAB2092A06F102063FF659AF0AEBF5
:108860000302B2F59A7F4FDC0127D1E700240025EF
:108870004FF0000A96F801B0ABF13000C0B2092801
:1088800006F101063FF640AF6A4B4FF099329D4228
:108890004FEA850108BF94424FEA840741EA947188
:1088A0000ED23F1945EB010117EB070841EB010917
:1088B0000AF1FF3A18EB00040FFA8AFA49F10005B1
:1088C00016F801BFABF13000C0B20928DFD91BE7B1
:1088D000BBF1000F40F0D280019B8BB1B5F1004F8E
:1088E00008BF012CBFF4E6AE644265EB45050223E8
:1088F000009A1046C2E90245137005B0BDE8F08F3A
:108900000323F5E7002F51D000994FF000420123D7
:1089100008468A600B7059E72046294641F028FD39
:10892000BAF1000F79DD444C1AF0010F7AD15FEAF9
:108930006A032DD0DF0700F18D805FEAAA0327D0FC
:10894000DE0700F18C805FEAEA0321D0DD0700F149
:108950008B805FEA2A131BD0DA0700F18A805FEA76
:108960006A1315D0DB073ED45FEAAA1310D0DF07E5
:108970003ED45FEAEA130BD0DE073ED45FEA2A2337
:1089800006D0DD0744D45FEA5A231CBF2B490020E0
:10899000019B13B101F100431946009A0423C2E977
:1089A00002011046137005B0BDE8F08F019B002056
:1089B000BBB12349F1E7AAEB030ABBF1000F3FF477
:1089C000AAAEFFE696F802B0ABF13003DAB2092A9C
:1089D00006F102067FF60DAFBBF1000F3FF49BAE30
:1089E000F0E61849D9E7D4E90A2341F0F7FCBBE7E0
:1089F000D4E90C2341F0F2FCBBE7D4E90E2341F0AB
:108A0000EDFCBBE7CAF1000A3FF4C7AE0E4B96E699
:108A1000D4E9102341F0E2FCB5E7CAF1000AB7D06F
:108A20000A4C81E7D4E9002341F0D8FC7FE700BF7E
:108A30009009070099990100F00907000000F87FEC
:108A40000000F0FF0000F07F78090700A809070088
:108A500099999919D4E9022341F0C0FC6DE7D4E952
:108A6000042341F0BBFC6EE7D4E9062341F0B6FCD9
:108A70006FE7D4E9082341F0B1FC70E7B5F5801F3A
:108A800008BF002CBFF416AE4FF0000A38E600BF56
:108A900010B5064C206838B11DF07CFB20B9206869
:108AA000BDE810401DF060BB002010BDBCDD002003
:108AB00010B5064C206838B11DF06CFB20B1206861
:108AC000BDE810401DF062BB002010BDBCDD0020E1
:108AD00070B5584B584D93F8302093F82E0093F80A
:108AE0002D1093F82F4094B0049293F82C20CDE9E8
:108AF0000204CDE9002106A8504A5B8D182143F0FD
:108B00009BFA2A68002A3DD04D4B4E491878002820
:108B100008BF0B46002106ACCDE910114A480C9461
:108B20000E934A4C4A4B13910D9412900F9310469A
:108B300021F0C6FC2C681090002C50D0204621F06B
:108B40002DFD2A68434C444B1190002A08BF1C4657
:108B5000424A434B126800924FF480610CAA41488C
:108B600013940FF0A5FE00213F4822F055FE3D4929
:108B70003D484FF4806223F019F83B4822F0B2FFE1
:108B800014B070BD394C2068002837D01DF0D6FADB
:108B9000374E03462068002B18BF1E461DF0FEFA14
:108BA000002306A92A680C91CDE9103327491393B5
:108BB000254B0E960F900D911293002AB7D1206885
:108BC00000282CD01DF0E6FA48BB20681DF0CCFA36
:108BD00028B320F043FC2C681090002CAED1234E1B
:108BE000306818B31DF0D6FAB0B930681DF0BCFA81
:108BF000044688B120F094FC2A68A3E706AB1C4A1F
:108C00000C931C4B114E10491090CDE90E2311907E
:108C100013900D961291D2E72A68204692E7FFF74B
:108C200047FF002886D022F04DF983E70A4C1190C7
:108C30008EE700BF90E00020A001012080F8060030
:108C40008C01012078F806007461002094610020F6
:108C500048DC002070F8060068F80600B4F0002038
:108C600014E1002054C40020D8DD0020BCDD002029
:108C700058F80600E8280700114B186808B121F0E1
:108C800027BC10B50F4C2068B8B11DF083FA38B975
:108C900020681DF069FA18B1BDE8104020F0BEBB95
:108CA000206850B11DF076FA38B120681DF06EFAD8
:108CB00018B1BDE8104022F0E7B8002010BD00BF99
:108CC000A0010120BCDD0020114B186808B121F083
:108CD00003BC10B50F4C2068B8B11DF05BFA38B971
:108CE00020681DF041FA18B1BDE8104020F09ABB91
:108CF000206850B11DF04EFA38B120681DF046FAD8
:108D000018B1BDE8104022F0C3B8002010BD00BF6C
:108D1000A0010120BCDD0020114B186808B121F032
:108D2000B1BB10B50F4C2068B8B11DF033FA38B99B
:108D300020681DF019FA18B1BDE8104020F09CBB66
:108D4000206850B11DF026FA38B120681DF01EFAD7
:108D500018B1BDE8104022F09FB8002010BD00BF40
:108D6000A0010120BCDD00202DE9F041604B196815
:108D700000298AB02DDD5F4B0093012929D003F132
:108D8000A8020229019224D003F5A87203290292B5
:108D90001FD003F5FC72042903921AD003F5287240
:108DA0000529049215D003F552720629059210D0B8
:108DB00003F57C72072906920BD003F5936208290C
:108DC000079206D003F5A863092908931CBFA833AE
:108DD0000993684611F0ECFA061E5BDB464FA823A8
:108DE00003FB067393F89040002C4FD0434C20684F
:108DF00018B139F007FE00232360414D286818B1EF
:108E000039F000FE00232B604FF44F5039F0F6FD8F
:108E10003C4BA82404FB067493ED000B0021804614
:108E200020F0A6FB94ED063B94ED042B94ED021B81
:108E300094ED000B4046C5F8008021F007F994ED51
:108E4000223B94ED202B94ED1E1B94ED1C0B286807
:108E500021F076F994F84030002B3DD1A82303FB94
:108E6000067393F868205ABB286821F0EDFA286849
:108E700021F0D8FA20B1286821F0D8FA044670B958
:108E8000286808B139F0BEFD00242C6020460AB0E5
:108E9000BDE8F081002420460AB0BDE8F0811A4DFB
:108EA0001A49C6EB0616314428460E2243F0D1F982
:108EB000174A00232046AB7313600AB0BDE8F08167
:108EC00093ED183B93ED162B93ED141B93ED120BC2
:108ED000286821F02BFAC7E794ED0E3B94ED0C2B9C
:108EE00094ED0A1B94ED080B286821F0A5F9B5E76D
:108EF00070FD0020F102012060020120BCDD002095
:108F0000A0010120106100208C010120B434012057
:108F10009C01012070B5274D274C2B78002B3FD0AA
:108F2000237C002B3AD1254C39F01EFB206801210F
:108F300011F022F908B100232360214E39F01EFB05
:108F4000204B306800241C702C7010B139F05AFD91
:108F500034601D4C206818B139F054FD00232360A3
:108F60001A4A1B481B4B1C491C4D1D4E0024146003
:108F700004701C4A1C481C701C4B0C702C60146044
:108F8000046021461A4834704FF0FF354FF47A627E
:108F90001D6042F05BF9174B1C6070BDFFF798FD38
:108FA000237C002BBFD0144822F09CFD124822F0F5
:108FB0008DF8B8E77A010120C8DD0020C0DD00206F
:108FC000BCDD0020E0DE0020A00101209C0101208A
:108FD000F401012079FD002010E100200CE10020C7
:108FE0008C010120B4F00020C4F000201C6100209E
:108FF00014E10020F0010120D8DD002008B5254B48
:109000001B785BB3244B1B78042B02D1234B1B78BA
:1090100023B337F0A5F9224A224B1268801A9842EE
:109020001CD9214B1B681BB1204B1B68002B16DC85
:109030001F4B93ED007AF0EE007AB4EEE77AF1EE92
:1090400010FA0CDA1B4B1A787AB137F089F91A4BFF
:109050001A684EF65F23801A98420DD808BD15494C
:10906000154A00230B70136008BD01221A7037F0F7
:1090700077F9114B186008BDFFF74CFF0F4A1049F4
:10908000136803F59C5308334FF0FF3013600860FA
:1090900008BD00BF79FD0020B8BF0020DDE0002042
:1090A0007CFD00201FBF0200A0010120A8010120BB
:1090B00008E1002010E100200CE1002054DE002037
:1090C0001861002070B51C4D8AB000242846089411
:1090D000CDE90244CDE90444CDE90644CDF823406E
:1090E0002AF09AFD0246284601922AF097FD1F2693
:1090F000019A014602A842F081F802A932462846A8
:109100002AF08EFD3C352146324602A842F09EF8F8
:1091100028462AF081FD019028462AF07FFD019A19
:10912000014602A842F06AF8324602A928462AF00F
:1091300077FD0AB070BD00BFA44C0120284B294A1E
:10914000294870B5C3F800261BF014FC0021042048
:109150003AF0E4FB01210520244D3AF0DFFB09241D
:1091600045F00105002105203AF05CFC4FF4A070A9
:10917000A847012105203AF055FC4FF4A070A847FC
:10918000013CEFD1012104203AF0C8FB2146042024
:109190003AF048FC4FF4A070A847012105203AF0AE
:1091A00041FC4FF4A070A8470D4C0E4E0121042045
:1091B0003AF038FC4FF4A070A8470B48C4F800669A
:1091C0001BF05EFB0A4908481BF0B6FB0948C4F8CF
:1091D000006601223C212FF0D1FFC4F8006670BD6B
:1091E000000001403546526E84350120801707008B
:1091F000801A0600FCDD00202DE9F047544E554D45
:109200003768D7F8008040463AF02AFC034645F01C
:10921000010503244FF4FA405BB9012C74D0A84730
:1092200040463AF01DFC0346013C4FF4FA40002B47
:10923000F3D001237B71484F464DD7F80080D8F812
:10924000009048463AF00CFC034645F00105032423
:109250004FF4FA405BB9012C66D0A84748463AF073
:10926000FFFB0346013C4FF4FA40002BF3D00123EF
:1092700088F80530DFF8EC90364DD9F80080D8F842
:1092800000A050463AF0ECFB034645F001050324EC
:109290004FF4FA405BB9012C22D0A84750463AF06F
:1092A000DFFB0346013C4FF4FA40002BF3D00123CF
:1092B00088F8053033681B793BB1284A136803F5F9
:1092C0009C5308331360BDE8F0873B681B79002B83
:1092D000F3D1D9F800301B79002BEED1BDE8F0872F
:1092E00037F03EF898F80530002BE3D01C4BD8F847
:1092F00008201B68801A9842DCD337F031F8A8F8B0
:109300000440C8F80800D5E737F02AF87B79002B2D
:1093100091D0134BBA681B68801A98428BD337F0F0
:109320001FF8BC80B86086E737F01AF898F8053067
:10933000002B9FD00A4BD8F808201B68801A98424F
:1093400098D337F00DF8A8F80440C8F8080091E762
:10935000D460002080170700D860002054DE002071
:10936000C8600020DC600020424B1B682DE9F04102
:109370001E68414D30463AF073FB034645F0010547
:1093800003244FF4FA405BB9012C0BD0A8473046B8
:109390003AF066FB0346013C4FF4FA40002BF3D051
:1093A000002600E02646354B334D1B681F683846C3
:1093B0003AF056FB034645F0010503244FF4FA400A
:1093C0005BB9012C0BD0A84738463AF049FB03465D
:1093D000013C4FF4FA40002BF3D0002500E0254675
:1093E000274B254F1B68D3F8008040463AF038FBE6
:1093F000034647F0010703244FF4FA405BB9012C00
:109400000AD0B84740463AF02BFB0346013C4FF4E4
:10941000FA40002BF3D000249EB11A4E3378DBB112
:1094200065B1194D2B78F3B124B1184C23785BB199
:10943000BDE8F081154B1C70BDE8F081124B1D702A
:10944000F2E7104B1E70EBE736F08AFF104A01235B
:1094500010602370BDE8F08136F082FF0D4A0123D1
:1094600010603370DCE736F07BFF0B4A012310609D
:109470002B70D9E7D460002080170700D860002047
:10948000DC6000209DDD0020A4DD0020ACDD00209C
:10949000B0DD0020A0DD0020A8DD002038B50F4A97
:1094A0000F4B126819688A4215D00E491A600023C2
:1094B0000B6001220C4C0D4B204600251A70E576FE
:1094C0002FF0C6FB204601212FF0EEF84FF00113DC
:1094D000C4E9045338BD0022ECE700BF1861002046
:1094E000CCF0002000FB0020FCDD002080FD0020EF
:1094F0001A4A13680E2B28D00D2B15D0083312D022
:10950000174B184993ED007A0B68F1EE047AB4EE2C
:10951000E77AF1EE10FA03F59C5394BF0B200A2072
:10952000083310600B6070470F4B10491A680B68C6
:10953000013A9A420B4A14BF013300230B601368AF
:1095400003F59C5308331360704706490B6803F515
:109550009C5308335A200B6010607047186100203C
:1095600008E1002054DE002068610020C4DD0020F6
:109570000378462B01D00020704710B54378572B55
:10958000044621D11149082242F051FE08B90120B8
:1095900010BD0F490622204642F049FE0028F6D0B1
:1095A0000C49204642F018FE0028F0D00A49204617
:1095B00042F012FE0028EAD00849204642F00CFE94
:1095C000B0FA80F0400910BD002010BDA0F80600E0
:1095D000ACF80600B4F80600BCF80600C4F80600B3
:1095E0002DE9F0435E498DB00822044642F01FFE8B
:1095F00000284CD15B4F3B7803F0FF06002B51D184
:10960000083420462C2142F0DAFD00284AD000F12F
:10961000010948462C2142F0D2FD0546002841D0E0
:1096200020460A22314643F04BFDA5EB0903082BE7
:1096300080464AD1D9F80000D9F8041002AB03C320
:1096400002A801A98DF810600FF07CF800283CD02A
:1096500008F1FF33B3F5A02F56D26878013590B1E9
:10966000DFF84491732643F035FD0446304643F05D
:1096700031FD844207D115F8010F002854D019F8A4
:10968000016B002EEFD13848FDF77EFF0DE0374922
:109690000622204642F0CBFD50B9324B1B78012BFD
:1096A000DDB218D03248FDF76FFF0DB0BDE8F08392
:1096B0003049204642F090FDC8B92A4B1B78022B56
:1096C000F0D12D4B01221A70EFE72C48FDF75CFF1B
:1096D0000DB0BDE8F08301460A22A01D43F0F0FC66
:1096E000274B1B6883420FD1264B1D70DDE72649AF
:1096F000204642F071FD68B91A4B1B78032BD1D17B
:10970000224B01221A70D0E72148FDF73DFF0DB032
:10971000BDE8F0831F49204642F05EFD0028C4D119
:109720001D4B01221A70C0E799F80030002BAAD116
:10973000134B1A4A0198C3F8008005A901233B7016
:1097400010600EF0C9FF164A05AB08A8102142F0C0
:1097500073FC08A982B213482BF092F8A5E700BF6A
:10976000A0F806005DAF0020E0F80600ACF80600A7
:10977000CCF80600B4F80600956A0020D4F806007C
:10978000B46B0020FC690020BCF80600B36B00201D
:10979000D8F80600C4F80600B26B00209C6A0020CE
:1097A000E8F8060038E00020F5F8060000000000A8
:1097B00085490978012900D070472DE9F0411C4600
:1097C000CBB282499CB00B701546002141220BA8F8
:1097D00041F03CFD402C2246294628BF40220BA8E0
:1097E00041F00CFD0BA842F01AFD431E70B10BAA0C
:1097F000774E1A4412F801190A39C9B226FA01F053
:1098000016296FEA000003F1FF3310D9714E337847
:10981000BBB171490BA8052242F009FD50BB062CD3
:1098200028D86E4B01221A701CB0BDE8F08110F0F0
:109830000100EBD1591C5070DCD1664E3378002BFF
:10984000E7D1674F3B78022B7AD0402C00F2898019
:10985000644904220BA842F0EAFCB0B9624C2378B8
:1098600003F0FF05002B52D06049614804222BF021
:1098700007F8D9E75F4E338814FA83F3B3F5805FB6
:1098800050DD5D4B01221A70CEE75C4904220BA823
:1098900042F0CDFCD8B15A4907220BA842F0C7FCD0
:1098A000002840F0CD809DF83330202B0DF133009F
:1098B00003D110F8013F202BFBD018210FF0E8FA5C
:1098C00098B95049504809222AF0DAFFACE79DF8D0
:1098D0003030202B0CA803D110F8013F202BFBD0F7
:1098E00018210FF0D5FA00283BD03F4C237803F025
:1098F000FF0563B13D49444804222AF0C1FF93E7C4
:10990000394C237803F0FF05002B40F022813F4BB8
:1099100040220BA9184642F09CFC012280F84050DE
:10992000227081E73A4B3088294613FA80F02246AC
:1099300041F064FC338814FA83F39BB2338073E7FD
:10994000082C14D833490BA842F046FC20B1324908
:109950000BA842F041FC50B921460BA8FFF740FE8E
:1099600062E72E49284805222AF08AFF5CE73B7807
:10997000022B7FF459AF2A4B1A7802F0FF00002A1D
:109980007FF452AFDFF8B080264AD8F80070126832
:109990002744974200F2B280234A244ED2F800C0F6
:1099A000318814FA81F1B1F5805F40F2AD80DFF8C3
:1099B0008CC0DCF80010013100F0B8801C4A1D4951
:1099C000116001221A702FE7E0DC00204E8C00208D
:1099D00009004000487C0020FCF80600958E00201D
:1099E0005DAF002014F90600B16B0020B0FD060049
:1099F00070DF00204C8C0020EB7B00201CF906005F
:109A000024F906002CF9060038E00020546A0020F2
:109A10004C7C0020B4F80600C4F806000CF90600DF
:109A20005CAF0020B46B0020F8BF0020FCBF00201A
:109A3000986A002004F90600D87B0020B860002056
:109A40007F490BA842F0C8FB00284AD07D49052277
:109A50000BA842F0ECFB002843D07B4905220BA861
:109A600042F0E5FB00283CD078490BA842F0B4FB5B
:109A7000002836D076490BA842F0AEFB00283FF410
:109A80003FAF744905220BA842F0D1FB002866D0F5
:109A9000714905220BA842F0CAFB00286DD133782A
:109AA000002B56D16D4B1C78002C52D10DF131009A
:109AB00018210FF0EDF9002859D0694B694D0DF1CF
:109AC00031011846182242F0C4FB03466649674834
:109AD000674A1C7601232C8004700C70137033705D
:109AE000A2E6644C237803F0FF050BB9624B0FE745
:109AF0006249634805222AF0C3FE95E6614A62493D
:109B0000116001221A708FE6604B03EB0C33308832
:109B1000294613FA80F0224641F070FB3388C8F8DA
:109B2000007014FA83F39BB233807DE63188DFF84E
:109B300080E1564B89B2AEF800101168CCF80010E5
:109B4000116881F0010111603080126803EB02336B
:109B5000DDE74F494A4809222AF092FE64E61821BF
:109B60000DF131000FF094F900287FF4C9AE494996
:109B700043480D222AF084FE56E6474905220BA8E9
:109B800042F055FBB8B9454C237803F0FF05002B94
:109B9000DFD10DF1310018210FF07AF90028E6D05D
:109BA0003F4B18220DF13101184642F052FB0122C1
:109BB0000576227038E63B490BA842F00DFB30B128
:109BC0000BA8FFF7D5FC00283FF42EAEC4E6364BB9
:109BD000186840F0ABFB03AE04460D4645EC104B55
:109BE00032460221042036F0A5FB11A3D3E900235D
:109BF0002046294640F03AFA0FA3D3E9002340F06B
:109C0000EDFB40F09BFE6428A8BF642020EAE073CF
:109C1000264A0096182105A842F00EFA05A842F03F
:109C2000FEFA05A982B216482AF02AFEFCE500BF1A
:109C30006666666666660A40721CC7711CC75B4032
:109C400038F9060040F9060048F9060050F9060008
:109C500060F9060074F906008CF90600E1DC0020CA
:109C6000988E00204C8C0020958E0020EB7B0020ED
:109C7000EC7B0020568C0020FC7B002058F906006D
:109C800038E00020986A0020D8F80600B48E002042
:109C900068F906007CF9060094F90600588E002049
:109CA0007C8E00209CF90600BCF00020A4F9060080
:109CB000F0690020124B13490122002030B45A6091
:109CC0000325DA600424C3F8040541F28830C3F8A0
:109CD0000855C3F810454FF48035C3F8400560249B
:109CE0004FF08060C3F80022C3F8045381F81A4390
:109CF000C1F880010860044930BC0A701A607047DE
:109D000000A0014000E100E0C96B002070B5304CBC
:109D1000304D314882B00FF0E1F840F24C4303225D
:109D200001212E48C4F8005619F056FF2C4BC4F8F8
:109D3000005640F24C461978284840F24C43032222
:109D40001AF0E4FC3346032204212448C4F80056E8
:109D50001AF016F8C4F800560323002201211F4808
:109D600000961AF04FF8C4F8005603230122002190
:109D70001A4800961AF046F8C4F800560323022247
:109D80000021164800961AF03DF803231A46C4F83D
:109D900000560021114800961AF034F8C4F8005615
:109DA000032300210D48009606221AF02BF80D4BD4
:109DB000C4F80056197809B102B070BD33460322C9
:109DC00006481AF043FBC4F8005602B070BD00BF4D
:109DD000000001403546526EB86B002008FB0020A1
:109DE0002461002025610020104A114B114810B554
:109DF0000021114C11704FF47A621960216041F01A
:109E000025FA0E48037C6BB90D4C38F0ADFB206889
:109E1000022110F0B1F908B100232360BDE8104021
:109E200038F0ACBB103021F051F9EDE7780101209A
:109E3000C4F0002014E10020B4F0002084FD0020D4
:109E4000C0DD00202DE9F0430024BDB0374B049461
:109E500001464FF47A75224607A8ADF81C408DF8EC
:109E60001E400595039321F06FFB20B9002528467D
:109E70003DB0BDE8F0832E494FF4806207A821F081
:109E8000C3FB064607A821F021F9B6F5806FEDDB8C
:109E9000284E009502A9019125480294334610AA44
:109EA0004FF480610EF0CCFD05460028DFD0224B38
:109EB000DFF89880214FDFF8989010A918461722F4
:109EC00042F0C7F903461F22404616A9DC7542F04E
:109ED000C0F988F81F403846DFF878801F221EA995
:109EE00042F0B7F9FC770F22154F26A9484642F0F9
:109EF000B0F90F222AA9404689F80F4042F0A9F98B
:109F00000F2238462EA988F80F4042F0A2F9029A93
:109F10000C4BFC731A6012B1013A56F822200A4B1E
:109F200028461A603DB0BDE8F08300BF1009070065
:109F300054C0002014E1002088DE002068DE0020EC
:109F4000C0DE0020B4F00020C4F00020A0DE00201D
:109F5000D0DE002058DE002070B50C4E054638F0EB
:109F600003FB3068294610F0EFF8044620B938F0BA
:109F700005FB3368204670BD2946306810F0F4F8C0
:109F8000306038F0FBFA204670BD00BFC0DD002015
:109F900010B5084C82B0019038F0E6FA20680199BB
:109FA00010F0EAF808B10023236002B0BDE81040C9
:109FB00038F0E4BAC0DD002030B5204B1C788BB0FF
:109FC00004BB05460320FFF7C7FFD8B11C49ADF815
:109FD000044001A823462A468DF8064021F0ACFA39
:109FE000B8B11749ADF804402A46012301A88DF8FD
:109FF000064021F0A1FAB0B91249134807222AF00D
:10A000003FFC0BE01149104804222AF039FC0BB048
:10A0100030BD0F490C4809222AF032FC0320FFF71B
:10A02000B7FF0BB030BD01A822F0F6FA0028E3D04C
:10A030000849054807222AF023FCEFE7E1DC00206D
:10A0400048650020B0F9060038E00020B0FD0600A9
:10A050002CF90600B8F90600F8B51649164C174A4F
:10A06000174F184E184D194800233B70337023705A
:10A070000B70174C13701749174A2B70174D23603C
:10A0800013600B80164C1749027C2B604FF0FF3594
:10A0900025600B804AB9144C237803B9F8BD03201E
:10A0A000FFF776FF00232370F8BD103021F00EF883
:10A0B000F1E700BFB36B0020956A0020B26B00206F
:10A0C0005DAF0020FC6900205CAF0020D8AE00200E
:10A0D000F8BF0020FCBF0020986A0020D87B002039
:10A0E000B8600020F0690020B6AF0020F0B52E4B1C
:10A0F0001C68BDB01CB90320FFF72EFF30B92B49F7
:10A100002B480C222AF0BCFB3DB0F0BD2346294D64
:10A11000294A2A49019404A84FF47A76ADF81040F0
:10A120008DF812400296009521F006FA9DF8103045
:10A1300083B3234F1E4E02E011A820F0C7FF4FF457
:10A140007A73002204A911A80F930E94ADF844402D
:10A150008DF846400D9521F02DFC9DF84430B3B1AB
:10A1600013F0D00FE8D11AA9402211A822F078FEEE
:10A170001AAB3A462AA8462141F05EFF2AA982B2CC
:10A1800030462AF07DFB0A2036F0F6F8D4E704A822
:10A1900020F09CFF0320FFF7FBFE0A49044804223D
:10A1A0002AF06EFB3DB0F0BDC0DD0020C0F9060016
:10A1B00038E0002010090700D0F9060048650020AB
:10A1C000E4F90600DCF906002DE9F0473B4B1C687A
:10A1D000ADF5287D24B90320FFF7BEFE054640B942
:10A1E0003749384804222AF04BFB0DF5287DBDE89D
:10A1F000F0872346344E354A354904944FF47A7734
:10A2000007A8ADF81C408DF81E400597039621F075
:10A2100093F99DF81C30002B4BD0DFF8C090DFF88D
:10A22000C0802C4F02E014A820F050FF00224FF411
:10A230007A7307A914A8CDE91062ADF850208DF803
:10A240005220129321F0B6FB9DF8504014B314F045
:10A25000D004E8D10DF1740A51464FF4807214A86D
:10A2600022F0FEFD1B9A0192002D14BF4B4643467F
:10A270003A464FF49671CDF800A05DA841F0DCFE9F
:10A280005DA982B20F482AF0FBFA0A2036F074F872
:10A290002546C8E707A820F019FF0320FFF778FE3E
:10A2A0000D49084803222AF0EBFA0DF5287DBDE898
:10A2B000F0870320FFF76CFE92E700BFC0DD0020AF
:10A2C000B0FD060070DF0020100907004CF8060002
:10A2D00048650020F4F9060000FA0600E8280700A7
:10A2E000F0F90600F0B52E4E337C8FB00446002BFB
:10A2F00051D10320FFF730FE002845D00027224629
:10A30000284C294901943B464FF47A7505AC05A8C1
:10A3100003950297ADF814708DF8167021F00CF9C2
:10A32000A446BCE80F00214D029C74600FC5BCE838
:10A330000F000FC5DDE90321337CDCF80000286045
:10A34000C6E90221B3B11A48F36A1A4A1A490360EE
:10A35000012017600870194A202101A841F06CFE05
:10A3600001A841F05CFF01A982B215482AF088FAE1
:10A370000FB0F0BD0320FFF70BFE12491048052275
:10A380002AF07EFA0FB0F0BD0F490D4804222AF0E2
:10A3900077FA0FB0F0BD06F1100020F097FEA8E7A5
:10A3A000A0DC00201009070048650020B0DC002078
:10A3B000D4DC002098DC0020E1DC002004FA060058
:10A3C00038E000200CF90600B0FD06002DE9F04F42
:10A3D0001F4C85B004F26C4980464F4604F2444B52
:10A3E000A246032501AEFF220023CDF80880ADF878
:10A3F0000420039396E80E00384623F0CFFF94F82C
:10A400007E341348C4F8689401223946BBB922F05F
:10A41000D9FF60B1584620F059FE0E48514621F050
:10A42000D5F860B10C4B1C6005B0BDE8F08F034659
:10A4300002463946064822F0C5FF0028EAD16420CA
:10A4400035F09AFF013DCED1284605B0BDE8F08F2A
:10A45000486500208C690020FC39012010B5204897
:10A46000204A037C002111705BBB1F4A1F4B002454
:10A4700014701C70FFF7F0FD1D4A1E4B1E4814702F
:10A4800021461C7029F006FC1C482CF0E1FBF8B9B1
:10A49000194829F0C5FC194800212CF0AFFB1748DA
:10A4A00000212CF0AFFB01210C2039F0BBFA14493C
:10A4B000144A15480023BDE810400B701370FFF7D5
:10A4C00085BF103020F002FE0320FFF761FDCCE7CE
:10A4D0000A482CF0F1FB014608482CF0D7FBD7E7DF
:10A4E000A0DC002094DC0020E1DC00204E8C002069
:10A4F000B16B0020568C0020A44C01206446012042
:10A500009CDC0020E0DC002080841E00F0B5244D9F
:10A51000244F002387B028463B70FFF757FF0446BF
:10A5200010B1204607B0F0BD1F4E0495FF230590E3
:10A53000ADF80C3006F26C4506AB13E90E00284668
:10A5400023F02CFF96F87E34C6F86854002BE8D12F
:10A55000D6F86C3428469B6998470028E1D0D6F895
:10A560006814019123460122304622F02BFF019905
:10A5700060B10E4820F0AAFD0B4901F2444021F0E1
:10A5800025F850B10A4B04461E60CAE7234622460E
:10A59000304622F017FF0028EBD101233B70C0E7C3
:10A5A00080841E0079010120486500208C6900200C
:10A5B000FC39012010B58AB000231A4A1A49ADF8B7
:10A5C000043001A88DF8063020F0B6FF60B90446CB
:10A5D000ADF80400134A15498DF80640012301A87F
:10A5E00020F082FE044658B10023114A0E49ADF80E
:10A5F000043001A88DF8063020F09EFF044610B10B
:10A6000020460AB010BD0A4A0849ADF8044001A826
:10A6100001238DF8064020F067FE012420460AB091
:10A6200010BD00BFE40A0700486500208C690020C7
:10A63000440F07002DE9F04F3C4D3D4E95F800C00A
:10A6400016F80C308DB05BB302ABDFF8FCA0DFF87E
:10A65000FC90DFF8FC80DFF8FCB001930AEB0C13F0
:10A660000FCB019C19F80CE058F82C7084E80F000F
:10A670008CF0010000232870714606AA2046CDE91F
:10A680000633CDE90833CDE90A3306F80C300FF074
:10A69000E7FD58B995F800C016F80C30002BDDD155
:10A6A000244B1B782BBB0DB0BDE8F08F0DF1180EBD
:10A6B000BEE80F00DFF8A0C01F4CACE80F009EE81A
:10A6C00003004CF8040B1D488CF8001001230370A4
:10A6D000BDF82A1027603A4658460FF053FE95F809
:10A6E00000C016F80C30002BB8D1124B1B78002B91
:10A6F000D9D035F035FE114B1A78034692B902468F
:10A7000047F22F518A42CED90D4C22689A1A8A42BA
:10A71000C9D90C4823602AF01BFE002109482AF001
:10A72000F5FDC0E7044A1268821AE9E7D4690020FF
:10A73000B4AF0020EE7B002058AF0020B06B0020AB
:10A74000506A0020004D0120B4AE0020D4AE00209D
:10A7500050AF0020ECBF0020D869002070B5144C29
:10A76000237813B99FED130A70BD134D2E6835F091
:10A77000F7FD014630460FF0EFFD0028F2D02378B8
:10A780001BB90E4B93ED000A70BD2C6835F0E8FD47
:10A79000014620460FF0E0FD0028F2D035F0E0FD44
:10A7A000014607480FF0F8FD0028EAD1DAE700BFBC
:10A7B000B06B00200000C07F58AF0020D869002097
:10A7C000ECBF002070B5144C237813B99FED130A29
:10A7D00070BD134D2E6835F0C3FD014630460FF0B5
:10A7E000BBFD0028F2D023781BB90E4B93ED010A74
:10A7F00070BD2C6835F0B4FD014620460FF0ACFD6D
:10A800000028F2D035F0ACFD014607480FF0C4FD3A
:10A810000028EAD1DAE700BFB06B00200000C07F5B
:10A8200058AF0020D8690020ECBF002070B5144C50
:10A83000237813B99FED130A70BD134D2E6835F0C0
:10A840008FFD014630460FF087FD0028F2D02378B7
:10A850001BB90E4B93ED020A70BD2C6835F080FDDC
:10A86000014620460FF078FD0028F2D035F078FD43
:10A87000014607480FF090FD0028EAD1DAE700BF53
:10A88000B06B00200000C07F58AF0020D8690020C6
:10A89000ECBF0020000000002DE9F04F9A4C9B4ACD
:10A8A00094F828302DED0A8B0021ADF5277D11702D
:10A8B000002B00F08980964D2E68002E00F0E2807B
:10A8C000944B94ED042A1978D4ED052A94ED000BED
:10A8D00094ED021B002940F0EC8030468DED121BF8
:10A8E0008DED100BCDED152A8DED142A1BF0FCF823
:10A8F0009DED121B9DED100BDDED152A9DED142A2B
:10A9000028681BF005FA94F82830002B5CD0824BA5
:10A910001B78002B46D0814B1B78002B42D0804EF9
:10A920003378002B59D020693FF000FD02460B46DA
:10A93000A06943EC182B3FF0F9FC02460B46606916
:10A94000676A43EC1A2B3FF0F1FC6DA3D3E90023B7
:10A950003FF044FD94ED00CB94ED02BB56AD41ECCD
:10A96000190B284685ED089B85ED048B85ED06AB1C
:10A9700085ED00CB85ED02BBAF620EF0BDFC00287B
:10A9800040F0E080674D35F0EBFC2A6842F210732E
:10A99000801A984206D935F0E3FC034662482B60E2
:10A9A00021F0A0F86069614C3FF0C0FC54A3D3E9EA
:10A9B00000233FF013FD40F009F820600DF5277DDE
:10A9C000BDEC0A8BBDE8F08F534B1B78002BE9D010
:10A9D000524B1B78002BE5D0514E3378002BE1D140
:10A9E00094F82930002BDDD0514D35F0B9FC2B689F
:10A9F000C01AB0F57A7FD5D335F0B2FC03460120FA
:10AA00002B60FFF7A9FA0028CCD094F82D2094F8F9
:10AA10002C3094F82F0094F82E100291CDE90032DA
:10AA20000390444F638D444A502166A841F004FBD3
:10AA300066A907F1100040F2016220F085FD3B7C21
:10AA4000002B00F0DA8156AD284640220A2140F062
:10AA5000FDFB07F110084FF480673F2F3A46294667
:10AA6000404640F2A081402221F0A0F8402840F06A
:10AA7000C181403FF1D131492E4834F0E1FC01233E
:10AA800033708FE72E4D2E68002E3FF440AF214BE0
:10AA9000197849BB30461FF0D5FA94ED021B94EDAE
:10AAA000000B2868D4ED052A94ED042A1EF020FE40
:10AAB00029E794F82F10638E94F8302094F82E0034
:10AAC000CDED152A8DED121B8DED100B8DED142A99
:10AAD0000EF098FA9DED100B9DED121B9DED142AC2
:10AAE000DDED152A0146F8E694F82F10638E94F8F0
:10AAF000302094F82E000EF085FA0146CAE700BF18
:10AB00000B410E4A9869F23F90E00020C8E0002017
:10AB1000BCDD0020DCE0002088010120E0DE002018
:10AB20007A010120C0F00020D8DD002008E10020DB
:10AB3000C8F00020C8DD00204CFA06006CFA0600C0
:10AB4000A00101203AAA0821B0EE4C0AF0EE6C0AEE
:10AB5000012035F0EFFBB0EE4B0AF0EE6B0A40AA95
:10AB60000821012035F0E6FBB0EE4A0AF0EE6A0A51
:10AB7000012117AA084635F0DDFBB0EE490AF0EED8
:10AB8000690A32AA0221012035F0D4FBB0EE480A4E
:10AB9000F0EE680A36AA0221012035F0CBFBE0690D
:10ABA0003FF0C4FB1AAA41EC100B0221012035F042
:10ABB000C1FB206A3FF0BAFB1DAA41EC100B022139
:10ABC000012035F0B7FB8F4B18683FF0AFFB20AA90
:10ABD00041EC100B0321012035F0ACFB8A4B1868C7
:10ABE0003FF0A4FB23AA41EC100B0321012035F018
:10ABF000A1FB864B18683FF099FB26AA41EC100B8D
:10AC00000321012035F096FBFFF7A8FD10EE109A06
:10AC1000FFF7D8FD10EE10AAFFF708FE09F0FF427B
:10AC2000B2F1FF4F10EE10BA00F0C38048463FF07B
:10AC30007DFB0DF1A40941EC100B012108464A46A9
:10AC400035F078FB48460B210EF0ECFB002800F0B5
:10AC5000B7800AF0FF42B2F1FF4F00F0C0805046CB
:10AC60003FF064FB0DF1B00A41EC100B01210846E6
:10AC7000524635F05FFB50460B210EF0D3FB002807
:10AC800000F0B4800BF0FF42B2F1FF4F00F09C8067
:10AC900058463FF04BFB0DF1BC0B41EC100B012172
:10ACA00008465A4635F046FB58460B210EF0BAFBD3
:10ACB000002800F090803AAB4C9340AB4D9317AB1B
:10ACC0004E9332AB4F9336AB50931AAB51931DABAF
:10ACD000529320AB539323AB549326AB0DF5987846
:10ACE000559358F8040B14210EF09CFB00283FF4F8
:10ACF00049AEA845F5D1464B1B78002B3ED100202C
:10AD0000014646AA18230EF097FA424B424D1A68A4
:10AD1000089226A90B9123A90A9120A909911DA99E
:10AD200007911AA9069136A9059132A9049140A963
:10AD300003913AA9029117A9CDE90071CDE90C9AC6
:10AD40004FF48071354ACDF838B046AB66A841F073
:10AD500073F966A9284634F0E3FB00287FF412AEAD
:10AD60002F4A2B7C107030700BB1FDF7B1FE2D48CF
:10AD700020F0ACF90120FFF70BF903E694F830203E
:10AD800094F82F30608D618E0291CDE9003200F58C
:10AD9000FA6094F82E3094F82D2094F82C1080B29C
:10ADA0000EF042F9ADE720F001FFB84222D1403F5A
:10ADB00053E6C9F31603002B3FF438AF0DF1A40995
:10ADC000194BC9F8003044E7CBF31603002B3FF4CE
:10ADD0005FAF0DF1BC0B144BCBF800306BE7CAF33F
:10ADE0001603002B3FF43BAF0DF1B00A0E4BCAF82F
:10ADF000003047E70B4820F069F90120FFF7C8F859
:10AE0000D0E500BF8CD8002090D8002094D8002036
:10AE1000DCE00020A8010120C8DD00201CFA0600AB
:10AE2000E0DE0020D8DD00206E616E000D4B1B7847
:10AE30000BB9002070470C4B10B51C6835F090FA28
:10AE4000014620460FF088FA48B135F089FA0146EC
:10AE500006480FF0A1FA80F00100C0B210BD00203A
:10AE600010BD00BFB06B002058AF0020ECBF002029
:10AE70002DE9F043B84EB94D33782A789A42A1B003
:10AE8000D8B200F262812B78C31ADBB2002B00F03B
:10AE900025812978B24A01F00F01012B52F82110C7
:10AEA000009100F08D802978013101F00F01022B13
:10AEB00052F82110019100F083802978023101F0CD
:10AEC0000F01032B52F82110029179D02978033118
:10AED00001F00F01042B52F82110039170D0297852
:10AEE000043101F00F01052B52F82110049167D0B5
:10AEF0002978053101F00F01062B52F82110059138
:10AF00005ED02978063101F00F01072B52F821108D
:10AF1000069155D02978073101F00F01082B52F81E
:10AF2000211007914CD02978083101F00F01092B2D
:10AF300052F82110089143D02978093101F00F010E
:10AF40000A2B52F8211009913AD029780A3101F0E0
:10AF50000F010B2B52F821100A9131D029780B31B7
:10AF600001F00F010C2B52F821100B9128D02978F9
:10AF70000C3101F00F010D2B52F821100C911FD054
:10AF800029780D3101F00F010E2B52F821100D918F
:10AF900016D029780E3101F00F010F2B52F8211035
:10AFA0000E910DD029780F3101F00F01102B52F8BE
:10AFB00021100F9104D02B7803F00F0352F82330A7
:10AFC000DFF8B0C1DFF8C8E19CF800402870013B11
:10AFD000DBB201AA02EB8307DEF80000614A6B4690
:10AFE000002C40F0EA80107800F0FF01002840F0CB
:10AFF000A18018680C460433BB4219D092F8008037
:10B000001968B8F1000F40F09A80A1EB000856488B
:10B01000A8F6B839814500F2908020A800EB840999
:10B0200004330134BB42084649F8408CE4B2E5D110
:10B030000123CEF800008CF80030002C4ED0012CFB
:10B04000109B39D9119A022C134435D0129A032C33
:10B05000134431D0139A042C13442DD0149A052C88
:10B06000134429D0159A062C134425D0169A072C80
:10B07000134421D0179A082C13441DD0189A092C78
:10B08000134419D0199A0A2C134415D01A9A0B2C70
:10B09000134411D01B9A0C2C13440DD01C9A0D2C68
:10B0A000134409D01D9A0E2C134405D01E9A0F2C60
:10B0B00013441CBF1F9A9B1807EE903A07EE104AE4
:10B0C000F8EE677AB8EE470AF7EE000A87EE800AD4
:10B0D0000FF008FA254821460FF0D4F9244B1A78CE
:10B0E0001AB1244900220A701A70234A234B1468AB
:10B0F000DB68D90103D5224B1A68D2074AD436F04F
:10B1000047FB204B204AA0FB0301830A43EA8153FB
:10B110001B1B934244D8154A1C4BD2ED007AB6EE65
:10B12000007A77EE877AFDEEE77AC3ED007A21B0F8
:10B13000BDE8F083186814705DE708465BE74FF0E0
:10B140000008084682F8008055E72A7800F11003CD
:10B150009B1ADBB29AE600BFEC010120EE01012050
:10B16000AC010120C6600020C8781E00BC60002031
:10B17000ED010120B18E0020A4010120F0ED00E0DE
:10B18000001000E040420F0020A10700A8010120AC
:10B19000407C00205B680A4A9B091B1B9342BAD97A
:10B1A00008480FF067F9084B084A012119703378F5
:10B1B0000021DBB22B701170ADE700241EE700BF49
:10B1C00020A10700BC600020C6600020B18E0020D6
:10B1D00038B5234D2C782CB94FF08043D3F8383450
:10B1E000DB0701D4204638BD0520FEF7B5FE002858
:10B1F000F8D01C48FFF7EAF810B91B48FFF7E6F84B
:10B200001A4BD3F8680403689B699847024600B359
:10B210004FF400731648002123F0A4FF14480122C4
:10B22000002123F0A7FF124823F0B6FF044658B1CF
:10B23000104823F03FFD322035F09EF80D4823F0F2
:10B240003BFD01232B70CDE702460146084823F061
:10B2500091FF0548FFF7BAF80520FEF799FEC1E710
:10B260004A35012000127A0080841E0048650020C3
:10B2700060AF0020243A0120002238B51148124D59
:10B28000114623F077FF35F06BF8044608E035F0FF
:10B2900067F82B68C01A632808D8052035F06CF8C9
:10B2A00035F05EF8001BB0F57A7FF0D3074BD3F88A
:10B2B00068040368DB699847322035F05DF8FCF7D5
:10B2C00001F800BF60AF0020CC7B00204865002063
:10B2D0002DE9F04F80468B4658F8043B98E807006C
:10B2E00093F83C4093B006AF0DF12409202C87E879
:10B2F000070089E8070062D10CAC84E8070094E8F5
:10B3000007000FAC84E8070000900446002856D0E0
:10B310001D8F4FF6FF72954251D0DB6AE90903EBAE
:10B32000C10105F07F05496811EBC50547D01099AB
:10B33000EE880292481E22184FF0010A2C4603950F
:10B3400004963546CDF8148001921E468846BAF11F
:10B35000000F11D1029B9D4231D0E80906EBC000DD
:10B3600005F07F05446814EBC50428D08AF0010A73
:10B37000E588BAF1000FEDD0207904283CD00528EB
:10B3800036D002281FD0B8F1000FE3D12A464FF67D
:10B39000FF718A423346DDF81480DDE903560ED092
:10B3A000D00903EBC00002F07F02416811EBC2013B
:10B3B00005D00A79111F012925D9022A23D0584620
:10B3C00013B0BDE8F08F204640F029FF4045C1D1C1
:10B3D000B8F1000FDAD0009B013C581E10F8012F85
:10B3E00014F8013F9A42B5D1019B8342F6D1CDE7D3
:10B3F0002468E0880834E9E724682046002CE5D07A
:10B4000040F00DFFE2E798E807000CAC84E8070085
:10B4100087E8070089E8070094E807000FAC84E894
:10B420000700804600283ED0109C671E0744BB469C
:10B43000274654464FF6FF799A467CB94E4532D09E
:10B44000F3090AEBC30306F07F065D6815EBC6053A
:10B4500029D084F00104EE88002CEFD02B79042B46
:10B4600027D0052B3ED0022B38D0002FE6D14FF647
:10B47000FF729642534616D0F20903EBC20306F060
:10B480007F065A6812EBC60B99D09BF80430042B48
:10B490002CD0052B2DD0022B18BF4FF0000B584697
:10B4A00013B0BDE8F08F4FF0000B584613B0BDE865
:10B4B000F08F2D6828460DB140F0B1FEB842BDD1E5
:10B4C000002FD4D0681E08F1FF3313F8011F10F8C5
:10B4D000012F9142B2D15B45F7D1C8E7284640F031
:10B4E0009EFEEBE72D68E8880835E7E752F836B0AE
:10B4F00065E752F8363003F1080B60E72DE9F047B5
:10B50000056804460E46002972D0084640F087FEC2
:10B510008046002D58D02B79202B55D1002E53D0AA
:10B520002B884FF6FF77BB424ED06268D2F82C9042
:10B53000D90909EBC10103F07F024B6813EBC20389
:10B5400042D04FF0010ADD88BAF1000F10D1BD42A0
:10B550003AD0EA0909EBC20205F07F05536813EB04
:10B56000C50331D08AF0010ADD88BAF1000FEED0B0
:10B570001A79042A35D0052A2ED0022A27D0002095
:10B5800004468045E3D1B8F1000F0BD0721E631E54
:10B5900002EB080112F8014F13F8010F8442D6D1D3
:10B5A0008A42F7D14FF6FF739D420DD0EB0909EBAC
:10B5B000C30905F07F05D9F8040000EBC505281E76
:10B5C00018BF0120BDE8F0870020BDE8F0871846CD
:10B5D0001C4640F024FED4E71B68D88803F1080419
:10B5E000CFE71C682046002CCBD040F018FEC8E7FF
:10B5F00088468EE7000000008368002B00F0F6808C
:10B600001A79402A40F0F2802DE9F04F1B884FF65E
:10B61000FF77BB428FB01CD0D0E90324D56ADA098A
:10B6200005EBC20203F07F03526812EBC30310D094
:10B63000DA881CB912E0013CDA880FD0D109BA428D
:10B6400005EBC10102F07F0603D04B6813EBC60384
:10B65000F1D19FED950B0FB0BDE8F08F143007C806
:10B660001E7901AC84E80700202E04AC84E80700B2
:10B67000EFD194E8070007AC84E807000AAC84E83F
:10B68000070082460028E4D018884FF6FF77B842BA
:10B69000DFD0C20905EBC20200F07F03506810EB57
:10B6A000C300D6D0DDF82C90C68809F1FF384FF0E2
:10B6B000010BD044BBF1000F10D1BE42C9D0F2093A
:10B6C00005EBC20206F07F03506810EBC300C0D048
:10B6D0008BF0010BC688BBF1000FEED00279042A73
:10B6E0007DD0052A77D0022A60D0B9F1000FE4D1CD
:10B6F0004FF6FF708642ACD0F20905EBC20206F0AD
:10B700007F03576817EBC301A3D00A7912F0100426
:10B710000CD037F83340844200F0C180E00905EBDB
:10B72000C00504F07F006C6804EBC004023A1C2AD8
:10B730008FD801A050F822F0F7B7020053B60200EC
:10B74000F3B7020075B802003FB8020053B602001A
:10B7500053B6020053B602004DB8020053B60200C1
:10B760005BB8020053B6020069B8020053B602008B
:10B7700053B6020053B6020053B6020053B602009D
:10B7800053B6020053B6020053B6020053B602008D
:10B7900053B6020053B6020083B8020053B602004B
:10B7A00091B8020053B602007DB80200044640F092
:10B7B00036FD484581D1B9F1000F99D0601E0AF1DC
:10B7C000FF3212F8014F10F8011F8C427FF475AF61
:10B7D0009045F6D18CE70468E0880834E9E704680E
:10B7E0002046002CE5D040F01AFDE2E79FED2E0B3D
:10B7F000704757F833100AA8FCF716FF9DF8283059
:10B80000013B032B3FF625AFDFE803F0130C0502E5
:10B810009DED0C0B1FE7DDE90C013EF0A9FD41ECAD
:10B82000100B18E7DDE90C013EF0AAFD41EC100B0E
:10B8300011E70C983EF07AFD41EC100B0BE717F87E
:10B8400033003EF051FD41EC100B04E757F8330094
:10B850003EF04AFD41EC100BFDE657F833003EF098
:10B8600053FD41EC100BF6E608683EF05FFD41EC3D
:10B87000100BF0E657F833100831BCE794ED000BDD
:10B88000E9E6D4E900013EF073FD41EC100BE2E67D
:10B89000D4E900013EF074FD41EC100BDBE600241E
:10B8A00044E700BFAFF3008000000000000000008C
:10B8B0002DE9F04F00F10C02034607CAD3E9014617
:10B8C0008FB001AB83E80700002C74D093E8070029
:10B8D000257904AB202D83E807006CD107AB0AAFB4
:10B8E00083E8070087E807008246002863D02088A5
:10B8F0004FF6FF7840455ED0D6F82C90C20909EB90
:10B90000C20200F07F03506810EBC30053D04FF029
:10B91000010B0B9EC588BBF1000F10D145454AD0E5
:10B92000EB0909EBC30305F07F05586810EBC50070
:10B9300041D08BF0010BC588BBF1000FEED003792D
:10B94000042B56D0052B50D0022B39D0002EE5D138
:10B950004FF6FF7085422ED0EB0909EBC30305F0CB
:10B960007F055C6814EBC50125D00B7913F010023C
:10B970000DD034F83520824200F09780D00909EBD1
:10B98000C00902F07F00D9F8042002EBC002023B9C
:10B990001C2B10D8DFE803F0360F34595D0F0F0F62
:10B9A000640F6B0F720F0F0F0F0F0F0F0F0F0F0F93
:10B9B000780F7F0F86009FED3E0B0FB0BDE8F08F34
:10B9C000044640F02CFC8642A8D1002EC0D00AF1DB
:10B9D000FF33601E9A1901E09A42B9D013F8014F63
:10B9E00010F8011F8C42F7D098E70468E08808340B
:10B9F000E9E70468002CA9D0204640F010FCE2E7FB
:10BA000054F835103846FCF70FFE9DF82830013BFE
:10BA1000032BD0D8DFE803F0130C05029DED0C0BCF
:10BA2000CBE7DDE90C013EF0A3FC41EC100BC4E7D1
:10BA3000DDE90C013EF0A4FC41EC100BBDE70C98D5
:10BA40003EF074FC41EC100BB7E754F835100831A8
:10BA5000D8E714F835003EF047FC41EC100BACE79A
:10BA600054F835003EF040FC41EC100BA5E754F8CB
:10BA700035003EF049FC41EC100B9EE708683EF0B3
:10BA800055FC41EC100B98E7D2E900013EF070FC48
:10BA900041EC100B91E7D2E900013EF071FC41EC62
:10BAA000100B8AE792ED000B87E700226FE700BFDB
:10BAB00000000000000000002DE9F04F054600796D
:10BAC0008BB001AC202884E80E0055D194E8070023
:10BAD00004AA82E80B0007CA0AAA02E90B00DDF8F3
:10BAE0001C80B8F1000F47D028884FF6FF76B0428F
:10BAF00042D0149BD3F82C90C20909EBC20200F08B
:10BB00007F03506810EBC30036D0089DB0F806B034
:10BB10006F1E4FF0010A4744BAF1000F12D1B3452E
:10BB20002AD04FEADB1309EBC3030BF07F0B5868F5
:10BB300010EBCB0020D08AF0010AB0F806B0BAF1C1
:10BB4000000FECD00379042B31D0052B2BD0022B26
:10BB500016D0002DE3D14FF6FF739B450CD04FEA72
:10BB6000DB1309EBC3090BF07F0BD9F8040000EBE2
:10BB7000CB000BB0BDE8F08F00200BB0BDE8F08F1C
:10BB8000044640F04CFBA842C9D1002DE3D0601E12
:10BB900008F1FF3313F8011F10F8012F9142BED1B5
:10BBA0009F42F7D1D7E70468E0880834EBE70468E0
:10BBB0002046002CE7D040F032FBE4E72DE9F04FBF
:10BBC00085B004AC04E90E00DDF80480B8F1000F84
:10BBD00047D000884FF6FF76B04242D00E9BD3F894
:10BBE0002C90C20909EBC20200F07F03506810EBF1
:10BBF000C30036D0029DB0F806B06F1E4FF0010AA8
:10BC00004744BAF1000F12D1B3452AD04FEADB13F3
:10BC100009EBC3030BF07F0B586810EBCB0020D06F
:10BC20008AF0010AB0F806B0BAF1000FECD003793F
:10BC3000042B31D0052B2BD0022B16D0002DE3D1B5
:10BC40004FF6FF739B450CD04FEADB1309EBC3099A
:10BC50000BF07F0BD9F8040000EBCB0005B0BDE87A
:10BC6000F08F002005B0BDE8F08F044640F0D7FA11
:10BC7000A842C9D1002DE3D0601E08F1FF3313F8AC
:10BC8000011F10F8012F9142BED19F42F7D1D7E793
:10BC90000468E0880834EBE704682046002CE7D00D
:10BCA00040F0BDFAE4E700BF2DE9F04184B006465C
:10BCB00004A800E90E003068DDE90187A8B17D1E07
:10BCC0004544C388BB420DD1002F56D008F1FF3345
:10BCD000C21D01E0AB4250D013F8014F12F8011F12
:10BCE0008C42F7D000680028EBD1B7F5803F4AD2EC
:10BCF0000A9B2E4A1B681B68934207F1090046D134
:10BD000034F056FB00283ED00123C780838000F129
:10BD100008054FB300F10C0108F10402954238BF49
:10BD2000884507F1FF3336D3072B34D927F00304B6
:10BD3000444443462A4653F8041B42F8041BA342DA
:10BD4000F9D1BA0727F003030ED018F80320EA54FC
:10BD50005A1C974208D9023318F80210A9549F427E
:10BD600002D918F80320EA54074400233B723368D1
:10BD70000360306004B0BDE8F081838801338380C4
:10BD800004B0BDE8F081002004B0BDE8F0810146B8
:10BD90000A989847B6E74344C21D08F1FF3818F8DF
:10BDA000011F02F8011F9845F9D1DDE7ED7502008A
:10BDB000437DDBB1037D202B12D8DFE803F01F1198
:10BDC0001111111111111115151111151111111157
:10BDD0001111111111111111111111111111150060
:10BDE00001230373002070470023437503695A1C25
:10BDF00002611B78037501224275DCE7037B002B8F
:10BE000014BF0220012070472DE9F04F437D85B01B
:10BE10000446002B00F0FD80057DDFF878B300229A
:10BE2000134662750092CBB1267D0023B54263753F
:10BE30001DD0002E00F0E9805C2E20D067686FB125
:10BE4000A168FB88994200F0B0800F440131A160E5
:10BE50003E72637DE7E7C2F30903009323695A1C2E
:10BE600022611E7826750023B5426375E1D16368AF
:10BE7000002B14BF0020042005B0BDE8F08F22691C
:10BE8000511C21611178217501206075002900F095
:10BE9000BC80752910D0BD4A2F2304E012F8023F60
:10BEA000002B00F0AE808B42F8D15678002E00F0C7
:10BEB000A88000236375C1E7911C637521615378E5
:10BEC00023756075002B00F0A080402B86BF23F007
:10BED0002003A3F13701A3F13001C8B20F2800F20B
:10BEE00090800021D31C6175236191782175012315
:10BEF0006375002900F08980402986BF21F0200168
:10BF000037393039C9B20F297BD80026131D667521
:10BF10002361D3782375012641EA00116675002B51
:10BF200073D0402B86BF23F02003373B303BDBB27E
:10BF30000F2B66D800206075501D20611279227584
:10BF400043EA011301211BB26175002A5DD0402A2A
:10BF500086BF22F02002373A303AD2B20F2A50D8A8
:10BF600042EA03139AB202F5205189B20020B1F5DA
:10BF7000806F1EB26075FFF46EAF02F510539BB276
:10BF8000B3F5806F4FD37F2A00F2A1806768002F3E
:10BF90003FF464AFA368FA88934200F0DA801F444C
:10BFA0000133A3603E72637D3DE7D4F800A04900F1
:10BFB000DAF8009001F10108B8F5803FD9F80030B7
:10BFC00012D29B68724A934201F10A0140F0A280AA
:10BFD000384640F019F828B1A0F80680A1686060E2
:10BFE000074632E7D9F800305B685B4517D1384621
:10BFF00034F0F8F901238AF804300022637D62608E
:10C0000011E7032005B0BDE8F08F022005B0BDE8C0
:10C01000F08F03695A1C02611D780575FDE63946EB
:10C0200048469847E6E7C2F30903009A8DF80800EE
:10C0300043EA822303F58032C2F30531C2F387421B
:10C0400042F0F00703F03F02C3F3851361F07F0174
:10C0500062F07F0263F07F038DF80B108DF80C7097
:10C060008DF809208DF80A300DF10D0808F1FF3820
:10C0700008E01E440133A360377218F8017D002FD9
:10C080003FF4E7AE6668002EF7D0A368F2889342CB
:10C09000EFD15A00D4F800A002F10109B9F5803FB0
:10C0A000DAF8003028D21968886802F10A01384AA3
:10C0B0009042844645D1304601933FF0A5FF019B55
:10C0C000D0B1A0F80690A36860600646D1E706F0FC
:10C0D0003F0363F07F03B2F5006F8DF809308DF8F0
:10C0E00008004FEA92131AD263F03F03DFB28DF8D3
:10C0F0000A700DF10B08B9E71A6852685A451CD14D
:10C10000304634F06FF900234FF001028AF8042022
:10C110006360B2E70A464846394698475BE703F052
:10C120003F029B1162F07F0243F0E0078DF80A2086
:10C130008DF80B700DF10C0898E7314618469047C2
:10C14000E1E70A4618460193314663469847019B4A
:10C15000B6E7D4F800905A00D9F8008002F1010A3D
:10C16000BAF5803FD8F8003018D29B6808498B4256
:10C1700002F10A021FD1114638463FF045FF58B17F
:10C18000A0F806A0A3686060074608E7FCFA06006E
:10C19000DD750200E5750200D8F800305B685B458C
:10C1A0000DD1384634F01EF9012389F804300022FD
:10C1B000637D626037E6394640469847DFE7394697
:10C1C00040469847F0E700BF2DE9F04F427D8DB023
:10C1D00004460D46002A76D0027D202A12D8DFE8D8
:10C1E00002F07A11111111111111117070111170E9
:10C1F000111111111111111111111111111111112F
:10C200001111700001217B2A217300F260815A2AEA
:10C2100042D9A2F15B01202900F25981DFE811F037
:10C22000C0005701570157015701570157015701E6
:10C230005701570157011C01570157015701570179
:10C240005701570157012100570157015701570165
:10C2500057013A015701570157015701570157013B
:10C260006400CF491346002001259A4240F07181B5
:10C2700011F8013F6075002B00F088812269561C7F
:10C280002661127822756575002AEED14FF00208FA
:10C2900040460DB0BDE8F08F222A02D0272A40F098
:10C2A000168163680022A260002B00F047822046BE
:10C2B000FFF7AAFD804698B929462046FCF762F8A8
:10C2C0000EE0002262752269511C216112782275EC
:10C2D0000121617581E7237B002BD7D14FF0010845
:10C2E00040460DB0BDE8F08FDEB220224FF0FF33A4
:10C2F0002A712B60002E00F04F81002322696375A4
:10C30000194601201346013222611B78237560759E
:10C31000202B00F28D8101A757F823F08DC2020077
:10C3200031C6020031C6020031C6020031C6020029
:10C3300031C6020031C6020031C6020031C6020019
:10C34000A9C70200A9C7020031C6020031C6020017
:10C35000A9C7020031C6020031C6020031C6020080
:10C3600031C6020031C6020031C6020031C60200E9
:10C3700031C6020031C6020031C6020031C60200D9
:10C3800031C6020031C6020031C6020031C60200C9
:10C3900031C6020031C6020031C60200A9C7020040
:10C3A00040214FF0FF32DBB229712A60002B00F0F0
:10C3B000F380002122696175084601261146013289
:10C3C0002261097821756675202900F2EF8001A7A6
:10C3D00057F821F08DC20200ADC50200ADC50200C4
:10C3E000ADC50200ADC50200ADC50200ADC502007D
:10C3F000ADC50200ADC50200ADC70200ADC7020069
:10C40000ADC50200ADC50200ADC70200ADC502005A
:10C41000ADC50200ADC50200ADC50200ADC502004C
:10C42000ADC50200ADC50200ADC50200ADC502003C
:10C43000ADC50200ADC50200ADC50200ADC502002C
:10C44000ADC50200ADC50200ADC50200ADC502001C
:10C45000ADC50200ADC7020000232B70637D06212D
:10C460002971002B00F0BC81237D4E49002B3FF445
:10C470000DAF9A426DD111F8012F00236375002A88
:10C4800000F084802369581C20611B7823750120EB
:10C490006075EBE701232B70637D06212971002B6A
:10C4A00000F0A081237D4049002B3FF4EFAE9A427B
:10C4B0004FD111F8012F00236375002A66D023693C
:10C4C000581C20611B78237501206075ECE7002360
:10C4D0009E4604F11B014FF0010C15E0392A03D9E7
:10C4E00002F0DF00452817D13F2B03F1010013D0E4
:10C4F00084F815E001F8012F2269C3B2501C2061B5
:10C500001278227584F815C02F2AE7D82B2AA2F1B9
:10C510002D00E9D00128E7D9234400221A7704F13D
:10C520001C0108A8FCF780F89DF8208008F1FF3373
:10C53000032B0ED8DFE813F0130127011A011300B3
:10C54000392940F296805E2940F28E807A2940F2A5
:10C5500090804FF0030840460DB0BDE8F08FDDE954
:10C560000A67394630463EF031FA82463DF0DEFE3B
:10C5700002460B46304639463EF098F9814600287F
:10C5800000F067810E23C5F800A02B714FF0000862
:10C5900040460DB0BDE8F08F4FF00508A0E600BFA3
:10C5A00020FB060018FB060010FB060001225D2997
:10C5B000227339D05E1E17464FF6FF79D4F81880E3
:10C5C00008A84146FBF71CFD0899002900F072817C
:10C5D0006B88BDF824204B4500F00981D8F82C0069
:10C5E0004FEAD31C00EBCC0003F07F03406800EB64
:10C5F000C303DA806A8033464FF000022046FFF71B
:10C60000E3FD804600287FF46BAE2046FFF7D0FBA9
:10C61000804600287FF464AE637D002B00F0EE803E
:10C62000237D5D2B40F0D68000206075804657E664
:10C6300001227D2B2273F7D0DFF81493DFF814A3C7
:10C6400000276368A760002B00F0F180637D002B5A
:10C6500000F0AE80217D272900F0B480222900F06F
:10C66000B1802F293FF66CAFA1F14103192B3FF6A2
:10C6700070AF4FF0010867752046FBF71BFF637D25
:10C68000002B00F01D81217D2F29A1F1410300F233
:10C69000C480192BEFD96368002B00F00B81204672
:10C6A000FFF786FB804600287FF41AAE637D002BDF
:10C6B00000F0AB80237D3A2B7FF44BAFD4E90132FD
:10C6C000134467751F72D4E90132D4F818B08DF89D
:10C6D0002870083308930992CDF800B008AB0ECB50
:10C6E0002846FFF76BFA59468046002800F0F8808C
:10C6F000FBF72AFF4146731E4FF000022046FFF76A
:10C7000063FD804600287FF4EBAD2046FFF750FB29
:10C71000804600287FF4E4AD637D002B00F0D880D4
:10C72000237D7D2B80D02C2B7FF413AF67752046A3
:10C73000FFF73EFB8046002883D0D1E52668844A77
:10C74000306803681B68934240F0B780282033F0BC
:10C750002FFE002848D07F4B43606060A7E50A9A0F
:10C760002A600E232B714FF00008B9E5DDE90A6756
:10C77000012F08BF002E80F08D800A232E602B71C0
:10C780004FF00008ACE5DDE90A9A19F100464AF1DC
:10C790000007012F08BF002E6CD20C23C5F80090B3
:10C7A0002B714FF000089BE56175ABE5607505E600
:10C7B00023695A1C22611978217501232729637581
:10C7C0007FF44CAF2046FFF71FFB804600283FF464
:10C7D00066AF85E52C2B7FF4BCAE00236375EDE6D8
:10C7E0005D494FE65D496AE601233371B5E70023F1
:10C7F00062F30F0362F31F432B60FCE623695A1CAC
:10C8000022611B78237567750BE723695A1C226127
:10C810001B782375012262754DE739297FF62BAF0E
:10C820005E297FF636AF7A297FF625AF33E7D4F855
:10C830000080D8F8000003681B684B4540F08280F8
:10C84000282033F0B5FD002878D0C0F804A060603F
:10C85000FCE6A16906A8FBF7B7FC069B002B3FF49A
:10C860003FADBDF81C202A801E212971C846C3E9AE
:10C87000006735E5A16906A8FBF7A6FC069BCBB1CE
:10C88000BDF81C202A801C2129714FF00008C3E943
:10C89000009A25E5A16906A8FBF796FC069B4BB11B
:10C8A000BDF81C202A801A2129714FF00008C3E925
:10C8B000006715E54FF0040812E52821984748E77E
:10C8C00023695A1C22611978217584F81580DBE6EA
:10C8D00023695A1C22611B7823750122627520E7A7
:10C8E00004A8FBF78DFB049B002BE3D0594606A858
:10C8F0000393FBF785FBDDF81880B8F1000FD9D062
:10C90000039BBDF81C10D9806A88BDF814004FF64F
:10C91000FF7C624519D0DBF82CC04FEAD21E0CEB2D
:10C92000CE0C02F07F02DCF804C00CEBC202D08017
:10C93000698019462046FBF725FDDBE6012388F8D0
:10C94000043084E7282198477DE728806980F0E754
:10C95000ED75020001001F0018FB060010FB060029
:10C960002DE9F04F038E9BB00746044657F80CBBE9
:10C97000ADF80420884600F1380903B30026C36AE5
:10C98000B2460BE033F02EFDE36AC5F800A0208E1E
:10C99000C5F804A00136B1B2884211D9B5B203EB93
:10C9A000C505696808460029EFD0DBF80030374A32
:10C9B0005B689342E6D058469847E36AE5E7C36A66
:10C9C00000204FF6FF719F422086A1860BD0DBF836
:10C9D00000102E4D4E68AE424DD1184633F002FD88
:10C9E0000423E7626386A16826680023237161B18E
:10C9F000264D33680A685B68A260AB4208462DD1B9
:10CA000033F0F0FCA1680029F3D1002584F83C50F4
:10CA10009DF805308DF8185049464FF0000203A8E4
:10CA2000CDE904558DF821500394CDF81C8009946C
:10CA3000FFF7CAFB054610B99DF82050A5B9049828
:10CA400040B1039B11491A6813685B688B4216D189
:10CA500033F0C8FC28461BB0BDE8F08F304698473D
:10CA6000A1680029C5D1D0E794F83C5015F008051D
:10CA700018BF0325E3E719465846B047B0E701461B
:10CA80001046984728461BB0BDE8F08FE5750200B8
:10CA90002DE9F04F95B0034600218E488E4D03934B
:10CAA0001EF0BAFE8B498D4800221EF083FF00283D
:10CAB0003FD08B4E3368C72B38DC8A4B1B7C13F07E
:10CAC000D00424D105A98548192220F0C9F905A868
:10CAD0002E213FF0D1FB00B104703468824B834FAC
