:020000022000DC
:1070000000000420F59A0500359B0500379B05001C
:10701000399B05003B9B05003D9B050000000000DF
:10702000000000000000000000000000719A050050
:10703000419B050000000000919A0500459B05005A
:10704000519D0500479B0500D9710500D9E9030052
:107050008DEA0300479B0500B1740500479B0500BE
:10706000479B0500479B0500479B0500479B050084
:10707000479B0500479B0500479B0500479B050074
:10708000479B0500C1970500479B0500479B0500EE
:10709000479B0500479B05005D960400479B050044
:1070A000479B0500479B0500F1250300479B050012
:1070B000479B0500479B0500000000000000000002
:1070C000479B0500479B0500479B050039A305002A
:1070D000479B0500479B0500479B0500F9AD040051
:1070E000479B0500479B0500479B050000000000EB
:1070F00000000000479B050000000000B1A3050050
:10710000000000000000000000000000000000007F
:10711000000000000000000000000000000000006F
:10712000000000000000000000000000000000005F
:10713000000000000000000000000000000000004F
:10714000000000000000000000000000000000003F
:10715000000000000000000000000000000000002F
:10716000000000000000000000000000000000001F
:10717000000000000000000000000000000000000F
:1071800000000000000000000000000000000000FF
:1071900000000000000000000000000000000000EF
:1071A00000000000000000000000000000000000DF
:1071B00000000000000000000000000000000000CF
:1071C00000000000000000000000000000000000BF
:1071D00000000000000000000000000000000000AF
:1071E000000000000000000000000000000000009F
:1071F000000000000000000000000000000000008F
:10720000F1EE103A43F08073E1EE103A704700BFA0
:1072100010B5054C237833B9044B13B10448AFF3D0
:1072200000800123237010BDCC640020000000000A
:10723000D4CF060008B5034B1BB103490348AFF395
:10724000008008BD00000000D0640020D4CF0600FC
:10725000154B002B08BF134B9D46A3F5803A002128
:107260008B460F461348144A121A3BF02FF80F4B67
:10727000002B00D098470E4B002B00D098470020E1
:10728000002104000D000D48002802D00C48AFF387
:1072900000803AF05DFF2000290032F083FC3AF0D4
:1072A00031FF00BF000008000000042000000000C3
:1072B00000000000CC640020AC4E01200000000063
:1072C00000000000BFF34F8F0549064BCA6802F467
:1072D000E0621343CB60BFF34F8F00BFFDE700BFF9
:1072E00000ED00E00400FA053CDF70473DDF704729
:1072F00041DF704711DF7047002070470120704761
:1073000001207047704700BF704700BF704700BF43
:107310000D4B0E490E481A78F0B40E4C0E4F0F4E1E
:107320000F4D00233B7023700B700E4C0E49037001
:10733000172033702B702370088012B10B4B012281
:107340001A70F0BC704700BF38C90020498C00207B
:10735000D8790020D9790020247A002040C9002063
:1073600084C900202C8C00209C600020668C0020AA
:1073700038B50446C069524D3AF03EF846A3D3E909
:1073800000233AF0A3F802460B46A069C5E90023A2
:107390003AF032F840A3D3E900233AF097F80246D6
:1073A0000B46606AC5E902233AF026F83CA3D3E90C
:1073B00000233AF08BF802460B46E06BC5E9042344
:1073C0003AF01AF838A3D3E900233AF07FF80246DE
:1073D0000B46B4F84C00C5E906233AF00DF834A387
:1073E000D3E900233AF072F802460B46206CC5E957
:1073F00008233AF001F830A3D3E900233AF066F805
:1074000002460B46A06AC5E90A2339F0E5FF24A32A
:10741000D3E900233AF05AF8C5E90C01E37DAB63E8
:10742000237DA1882748012B8ABF637D002303F0B9
:10743000010385F83C30E27A234B02F00702A2F107
:107440000702B2FA82F25209A1F5FA61E98785F8DA
:107450003D20A27985F84020E27985F84120227A02
:1074600085F84220627A85F84320A27A85F8442084
:1074700021680268A3FB01439B094FF47A7404FB63
:1074800013131249A5F846300132012302600B7034
:1074900038BD00BFAFF3008048AFBC9AF2D77A3E48
:1074A000FCA9F1D24D62503F51601FEF14D95F3FEC
:1074B0007B14AE47E17A843FF168E388B5F8E43E97
:1074C00038CD002084CD0020D34D621080CD002027
:1074D000704700BF037C13F0080306D0C36A406AFC
:1074E000181A48BF6FF0004070471846704700BF39
:1074F00010301CF0DDB900BF10301CF03DBA00BFE9
:1075000000B583B00B4601220DF1070110308DF854
:1075100007301CF031FA03B05DF804FB70B5134B73
:1075200005462946012612481E7022F08FF80446AF
:1075300020F072F82046F72120F082F82046022140
:1075400020F08EF800221146204620F081F8094BE9
:107550001E7030F019F80849084B0D80024620468D
:10756000BDE870401A6020F059B800BF40C9002043
:107570002C1B012085C900207EC9002080C9002065
:1075800000B587B00346064A684618213BF094FDD3
:10759000694682B203481FF0C7FE07B05DF804FBDE
:1075A00020690600E0CC002010301BF0E5BF00BFD2
:1075B00000B583B001220DF1070110301BF00AFF66
:1075C00001280CBF9DF807004FF0FF3003B05DF8B5
:1075D00004FB00BF084611463BF056BD084630F09C
:1075E00015B800BF08462FF0F7BF00BF2DE9F043E4
:1075F000DFF83881D8F8005005F6FF75ADF5825DEB
:107600002D0B83B00AD0A4352D034FF4242420463B
:1076100004F580542EF02EFFAC42F8D100253E4BED
:1076200005933E4A3E49ADF824504FF47A742B46F8
:1076300009A8CDE906548DF826501BF063FE9DF88D
:107640002400002859D0D8F80040002C41D0DFF8A1
:10765000E0904FF0FF37641B4FF48052FF2112A8D7
:107660003AF034FEB4F5805F28BF4FF4805409AE81
:10767000224612A930461BF0ADFE0346E21C9C4296
:1076800005F5242022F0030212A925443AD12EF058
:10769000CDFED8F800405A2022460023A5FB000169
:1076A0003AF06AFB0646BE424A464FF0100101A876
:1076B00033460CD03BF000FD01A982B219481FF0FF
:1076C00033FED8F80040A54203D23746C3E7AC42A8
:1076D000FBD809A81BF0E0FB2EF0A2FED8F8002092
:1076E0004FF424214FF0FF300CF0F4F90E4B1B68DF
:1076F000C043181AB0FA80F040090DF5825D03B05E
:10770000BDE8F08330461BF0C7FB00200DF5825D1D
:1077100003B0BDE8F08300BF007406002C690600CA
:10772000E8640020E0CC0020C0690020C869002087
:107730003C69060038B5154BDB68D90103D5144BFD
:107740001A68D2071ED431F037F9124BA0FB03019F
:10775000830A43EA815310490A6840F6B7309A1AFF
:1077600082420ED90D4A0B6011780D4D0D48C9B2F9
:10777000012445F821301378234403F00F031370DC
:10778000047038BD5B689B09E5E700BFF0ED00E0E1
:10779000001000E040420F0020EE002068EE0020C4
:1077A00028EE00201DEE002010B5034B03600446B8
:1077B0000DF078FE204610BDE473060070B5124C43
:1077C000124A134B2260002647F268506360C4F8E7
:1077D000886332F027FA0F4B0F4D93ED000B3246C2
:1077E0002146044617F0FCFE0C4B2C6093ED000A7A
:1077F000204618F02DFA0A4B286893ED000ABDE8E0
:10780000704018F03BBA00BF40C500204869060030
:107810000CAA0600D060002064CA00205C61002031
:10782000586100202DE9F04F4948037CABB0002B94
:1078300040F08A804748037C002B40F08180464816
:10784000037C002B78D14548037C002B70D10024A9
:1078500032202FF0A5FE424E424A4349019423466E
:1078600004A84FF47A75ADF810408DF812400295D7
:1078700000961BF047FD9DF81000002855D03B4DA9
:107880002B68132B49DC3A4FDFF8E88005E011A89C
:107890001BF002FB2B68132B3FDC4FF47A730022A2
:1078A00004A911A80F930E94ADF844408DF84640FA
:1078B0000D961BF065FF9DF8443040221AA911A8CF
:1078C0005BB31CF0B1FE9DF8443013F0D00F1AA842
:1078D000DDD13BF0E4FC03461AAA0638062B3946F4
:1078E0001044D4D93BF080FC81460028CFD1D5F894
:1078F00000A00AEB4A0B08EB0B1B1AA92F225846D3
:107900003BF0E7FC0AF1010311A82B608BF82F90E4
:107910001BF0C2FA2B68132BBFDD04A81BF0BCFAC6
:1079200028680028D4BF002001202BB0BDE8F08FCC
:1079300010301BF0B1FA8AE710301BF0ADFA82E785
:1079400010301BF0A9FA7AE710301BF0A5FA71E7A6
:1079500014EA00208CCB002074EE0020A8EE00205A
:107960000074060050690600E864002004EA002064
:107970005469060048EA00202DE9F0476E4C6F4A32
:1079800094F83C302DED0A8B0021ADF5167D117079
:10799000002B00F089806A4DD5F800A0BAF1000FE5
:1079A0002DD0684B197894ED000B94ED021BD4E9AF
:1079B0000467D4E90689002940F0A58050468DED82
:1079C0000E1B8DED0C0B17F04FFE494640463AF06A
:1079D00075F839460346304608EE103A3AF06EF82C
:1079E0009DED0E1B02EE100A9DED0C0B2868F0EECB
:1079F000482A17F061FF94F83C30002B54D0524BCA
:107A00001B78002B3FD0DFF8548198F80030002B12
:107A100039D04E4F3B78002B4FD045A3D3E90023FC
:107A2000D4E9060139F052FD94ED00CB94ED02BB90
:107A300094ED049B94ED08AB46AD41EC180BD4F8E3
:107A40003890C5F82890284685ED088B85ED00CB49
:107A500085ED02BB85ED049B85ED06AB0CF00CFDBE
:107A6000002840F081803A4D2FF08EFD2A6842F2C6
:107A70001073801A984206D92FF086FD03463548C8
:107A80002B601BF015FF2AA3D3E90023D4E90601DC
:107A900039F01CFD3AF012F82F4B18600DF5167DE9
:107AA000BDEC0A8BBDE8F087274B1B78002BEAD092
:107AB0002A4B1B78002BE6D0244F3B78002BE2D1D9
:107AC00094F83D30002BDED0254D2FF05DFD2B6866
:107AD000C01AB0F57A7FD6D3DFF888802FF054FD36
:107AE000D8F800302860012B00F00F81D8F8003062
:107AF000002B00F00781D8F80030042B00F0028141
:107B0000D8F80030BFE794F84310B4F8463094F842
:107B1000442094F842008DED0E1B8DED0C0B0CF003
:107B200031FB9DED0C0B9DED0E1B014646E700BFA2
:107B30000B410E4A9869F23F38CD002080CD0020DD
:107B400064CA002094CD00200AEE002009EE002037
:107B500054DD002080CA00209CCD002088CB00206E
:107B60005CDD002068CA00202AAA0821B0EE4C0A79
:107B7000F0EE6C0A01202FF0F1FCB0EE4B0AF0EEB3
:107B80006B0A30AA082101202FF0E8FCB0EE4A0A67
:107B9000F0EE6A0A012110AA08462FF0DFFCB0EED1
:107BA000480AF0EE680A22AA022101202FF0D6FC32
:107BB000B0EE490AF0EE690A26AA022101202FF050
:107BC000CDFC94ED0A0B13AA022101202FF0C6FC74
:107BD00094ED0C0B16AA022101202FF0BFFC6F4B75
:107BE000186839F01BFC19AA41EC100B0321012085
:107BF0002FF0B4FC6A4B186839F010FC1CAA41EC59
:107C0000100B032101202FF0A9FC664B186839F0F6
:107C100005FC1FAA41EC100B032101202FF09EFC54
:107C20002AAB3C9330AB3D9310AB3E9322AB3F93DA
:107C300026AB409313AB419316AB429319AB4393DE
:107C40001CAB44931FAB3CAE459356F8040B142178
:107C50000CF0A8FC00283FF406AFAE42F5D1524B21
:107C60001B78002B38D10020014636AA18230CF0CF
:107C7000A3FB4E4B1FAA0B9219A91A68099116A9CA
:107C8000079113A9069126A9059122A9049130A96B
:107C900003912AA91CAB029110A9CDE900910A9386
:107CA000089236AB424A4FF4807156A83BF004FA72
:107CB000404856A92EF054FD054600287FF4D3AE67
:107CC0003D4888F800503D701BF0E6F83B4B1A68C1
:107CD000012A08BF1D60C6E6E08F94F8442094F89E
:107CE0004330B4F84610029100F5FA60CDE9003255
:107CF00094F8401094F8423094F8412080B20CF08F
:107D000053FAB2E70123C8F8003094F8412094F800
:107D1000403094F8430094F84210264E0390CDE989
:107D200000320291E38F264A502156A83BF0C4F955
:107D300056A906F1100040F201621BF0EBFA337C09
:107D40003BB9D8F80020012A7FF49DAEC8F8003076
:107D500099E646AD284640220A213AF0B7FA06F1E4
:107D600010084FF480663F2E4FF0400229464046EF
:107D700009D83246403E1BF0FFFD3F2E4FF0400237
:107D800029464046F5D91BF0F7FD403EEBD10D49A1
:107D900008482EF075FC01233B7074E634C50020C2
:107DA00038C500203CC5002094CD002024EE0020E2
:107DB0005C69060070CA002080CA002068CA0020E2
:107DC00084690600A469060081682DE9F04705680A
:107DD000044669B1284E2B680A685B68A260B3420A
:107DE00008463DD12FF012FCA1680029F3D1256887
:107DF000238E04F10C0903B30027E36ADFF878A0AF
:107E0000B8460BE02FF002FCE36AC6F80080218E32
:107E1000C6F804800137BAB291420FD9BEB203EB63
:107E2000C606716808460029EFD02B685B68534589
:107E3000E8D028469847E36AE7E7E36A00214FF66F
:107E4000FF7299452186A28607D02A680A4952689E
:107E50008A420BD118462FF0D9FB2046BDE8F087A7
:107E600028469847A1680029B5D1C0E72846194699
:107E700090472046BDE8F087DD75020081682DE956
:107E8000F0470568044669B1284E2B680A685B68AC
:107E9000A260B34208463DD12FF0B8FBA16800298B
:107EA000F3D12568238E04F10C0903B30027E36A9C
:107EB000DFF878A0B8460BE02FF0A8FBE36AC6F81D
:107EC0000080218EC6F804800137BAB291420FD9E2
:107ED000BEB203EBC606716808460029EFD02B68D6
:107EE0005B685345E8D028469847E36AE7E7E36ACA
:107EF00000214FF6FF7299452186A28607D02A6895
:107F00000A4952688A420BD118462FF07FFB20465F
:107F1000BDE8F08728469847A1680029B5D1C0E799
:107F20002846194690472046BDE8F087DD750200D7
:107F300030B5414B414C93F8442093F8420093F8FC
:107F4000411093F8435093B0049293F84020CDE948
:107F50000205CDE9002106A8DB8F394A18213BF044
:107F6000ABF8206800284AD017F038FE354D03469C
:107F70002068002B18BF1D4617F060FE23683249A9
:107F80000F90002206A8CDE910220E950C900D91BD
:107F9000002B3CD0184617F04DFE00283BD120683E
:107FA00017F032FE002836D01AF0B0F9236810908E
:107FB000002B2ED0184617F03DFE50BB206817F05E
:107FC00023FE30B31AF0E0F90446204A204B126831
:107FD00000924FF480610CAA1E4811940BF0A0FE91
:107FE00000211D481BF0FEFA1A491B484FF480621D
:107FF0001BF0C2FC18481BF05BFC13B030BD1249EB
:10800000104A164B06A8CDE90C01CDE90E2300233A
:1080100010930024D9E720680028F8D017F00AFE52
:1080200028B1206817F002FE18B11AF033FE236859
:10803000BDE72368BBE700BF38CD002064CA00203D
:10804000186A0600086A06003461002048DD002036
:10805000A8CD002004C1002080CA00200CAA060080
:1080600010B5134C2068B8B117F0E4FDA8B1206832
:1080700017F0DCFD1AF00CFE0E4A1368B3F57A7F98
:108080000ADA48B10C490C68844205D00B4C0860F0
:1080900044F823000133136010BD206817F0B4FDCD
:1080A0000028F9D0206817F0AFFD1AF02DF9E3E7AA
:1080B00064CA002048DD002058DD0020A8CD002043
:1080C0002DE9F047054680682F6860B1284C3B6871
:1080D00002685B68AA60A3422AD12FF097FAA868C9
:1080E0000028F4D12F682B8E05F10C093BB3002634
:1080F000EB6ADFF87C80B2460BE02FF087FAEB6A80
:10810000C4F800A0298EC4F804A00136B2B291428E
:1081100016D9B4B203EBC404616808460029EFD055
:108120003B685B684345E8D038469847EB6AE7E729
:10813000014638469847A8680028C8D1D2E7EB6ABC
:1081400000214FF6FF7299452986AA8607D03A6822
:10815000074952688A4205D118462FF057FA284637
:10816000BDE8F0873846194690472846BDE8F087B5
:10817000DD7502002DE9F047038E8146054659F86A
:108180000CABFBB10026C36ADFF8A080374609E0DC
:108190002FF03CFAEB6A2760298E67600136B2B295
:1081A000914210D9B4B203EBC404616808460029B7
:1081B000F1D0DAF800305B684345E9D05046984783
:1081C000EB6AE8E7C36A00214FF6FF7299452986FA
:1081D000AA860CD0DAF80020144C5268A24221D1B1
:1081E00018462FF013FA0423C5F82C906B86A86864
:1081F0002E6800232B7158B10C4C336802685B6801
:10820000AA60A34206D12FF001FAA8680028F4D191
:10821000BDE8F087014630469847A8680028ECD1B1
:10822000BDE8F087194650469047DCE7DD7502004F
:108230002DE9F0418B8E4FF6FF72934282B00C46CF
:10824000054616D0CA6AD90902EBC10203F07F01C4
:10825000526832F83100A08602EBC10200204FF6CE
:10826000FF71107128462A60AB80D18002B0BDE852
:10827000F081098E2768002932D1638E002B00F02F
:1082800085800123E66A5A4A23864FF480604FF0C6
:1082900080083B681B68934274D12FF09DF9238EB0
:1082A000E76A7060013B9BB207EBC30100284A6894
:1082B00008BF4FF000080020A6F80080708022B1AF
:1082C00037F83360488886422ED8012100224FF6C5
:1082D000FF73284621712A60AB8002B0BDE8F081AF
:1082E000E66A4B1E9BB206EBC30E3046DEF8042056
:1082F0002AB1BEF802C036F83380E0451CD8638E40
:10830000994223D03A4A4B1C9BB2B3F5007F00EB55
:10831000C106238615BF4FF480604FF47E704FF086
:1083200080084FF07F08B4E700EBC313441C9BB2F6
:1083300002EBC0024C8091E70CEBC3130CF101017E
:108340009BB202EBCC02AEF8021087E7B3F5007FD8
:10835000BBD004F10C025B0096421FFA83F83B6825
:1083600016D024489B6883424FEAC80135D1304675
:108370003AF08AFE0028A8D01D4A218EE062A4F8B7
:108380003280C0E701463846984788E7E66AE0E76A
:10839000174A1B68019293424FEAC80022D12FF07E
:1083A0001BF9019A002890D0D6F800C07168B36814
:1083B000D6F80CE0C0F80CE0C0F800C04160836063
:1083C000D6F810C07169B369D6F81CE0C0F81CE09B
:1083D000C0F810C041618361CFE70A463846314694
:1083E0009847C7E7014638469847019ADAE700BF41
:1083F000E5750200D57502002DE9F0418B8E4FF630
:10840000FF72934282B00C46054611D0CA6AD90960
:1084100002EBC10203F07F01526832F83100A086FE
:1084200002EBC10228462A60AB8002B0BDE8F081B1
:10843000098E2768002932D1638E002B00F08580D9
:108440000123E66A594A23864FF480604FF0800882
:108450003B681B68934274D12FF0BEF8238EE76A05
:108460007060013B9BB207EBC30100284A6808BF5C
:108470004FF000080020A6F80080708022B137F885
:108480003360488886422ED8012100224FF6FF73C0
:10849000284621712A60AB8002B0BDE8F081E66A0F
:1084A0004B1E9BB206EBC30E3046DEF804202AB109
:1084B000BEF802C036F83380E0451CD8638E99427E
:1084C00023D03A4A4B1C9BB2B3F5007F00EBC106A8
:1084D000238615BF4FF480604FF47E704FF0800804
:1084E0004FF07F08B4E700EBC313441C9BB202EBD0
:1084F000C0024C8096E70CEBC3130CF101019BB258
:1085000002EBCC02AEF802108CE7B3F5007FBBD0D3
:1085100004F10C025B0096421FFA83F83B6816D008
:1085200023489B6883424FEAC80135D130463AF070
:10853000ABFD0028A8D01D4A218EE062A4F832804D
:10854000C0E701463846984788E7E66AE0E7174AF9
:108550001B68019293424FEAC80022D12FF03CF8E9
:10856000019A002890D0D6F800C07168B368D6F898
:108570000CE0C0F80CE0C0F800C041608360D6F8A1
:1085800010C07169B369D6F81CE0C0F81CE0C0F8EF
:1085900010C041618361CFE70A46384631469847AB
:1085A000C7E7014638469847019ADAE7E5750200C1
:1085B000D57502002DE9F84307464068BD68032DD4
:1085C000884600F1080613D85FFA85FC002D77D0A5
:1085D0000CF1FF3456FA84F4C31D002213F8011F76
:1085E000002908BF42F00102A342F7D1002A40D07F
:1085F00000237355D7F80090BE68D9F80830A3B1AE
:1086000006F1070C8444DA8896420BD13EB3C21DB2
:10861000DC1D01E0944522D012F8011F14F8015F1F
:10862000A942F7D01B68002BEDD1B6F5803F7D68DD
:10863000D9F8004034D2236828489B68834206F169
:10864000090140D128463AF01FFD034643B33A687A
:10865000DE809168196000219360796002E09A8859
:1086600001329A800522C8F8003088F80420BDE85D
:10867000F883022388F80430037A88F80030BCF1CC
:10868000010F08D0437A88F80130BCF1020F02D004
:10869000837A88F80230002308F80530BDE8F883B3
:1086A00023680F4A5B68934213D0294620469847B7
:1086B0003A6800239268012189F804101A60FFDEED
:1086C00002230B71E7E70A462046294698470346EE
:1086D000BCE728462EF09AFFEAE700BFD5750200F6
:1086E000DD7502002DE9F04745684DB18368EA88E1
:1086F000934204460E4605D01D440133A3602E72FA
:10870000BDE8F0875B00D0F800905F1CB7F5803FB4
:10871000D9F8008012D2D8F800201549D2F808A064
:108720008A4503F10A021CD1114628463AF0ACFCF6
:1087300020B1C780A36860600546DDE7D8F8003047
:108740000C4A5B68934208D128462EF05FFF012255
:10875000002389F804206360D2E729464046984701
:10876000F5E729464046D0470028E2D1E6E700BFBA
:10877000D5750200DD75020003792DE9F0470C463E
:10878000D907054637D4DA0624D413F0600F1DD07C
:108790002E884FF6FF77BE4215D0E36AF20903EB4D
:1087A000C20306F07F09D3F8048008EBC900B24683
:1087B000C6882146FFF7E0FFA38E28F83930BE4275
:1087C000A4F834A0E9D14FF0FF332B6000232B71C4
:1087D000BDE8F0872A884FF6FF718A4237D0E16AF8
:1087E000A68ED00901EBC00102F07F00496821F894
:1087F0003060A286C9E7A0682A6826680028C2D02F
:10880000824216D0014600680028BCD08242F9D1CD
:108810008288013A92B28280002AB4D103680B6048
:1088200033680C4A5B6893420CD12EF0EFFE2B7933
:10883000A9E78288013A92B28280002AA3D1036814
:10884000A360EDE70146304698472B799BE700236C
:108850001B80FFDEDD7502002DE9F04F0E46097822
:1088600085B02B29009000F0FD802D2940F0B880C4
:108870007178012001900644A1F13000C0B20928AE
:1088800000F2B680DFF8F893C0B200210024002582
:108890004FF0993816F801BF2418ABF13007FFB23A
:1088A00041EB05054FEA850E092F6FEA07024FF0ED
:1088B000FF334FEA840C4EEA947EF8B24FF0000189
:1088C00000F21E81A94508BFA0450BD31CEB040C88
:1088D0004EEB050E1CEB0C044EEB0E05AB4208BF35
:1088E000A242D7D24FF0000A0023204629460A228E
:1088F00039F042FAA946A0461FFA8AF3B9F5200FCB
:1089000003F1010A08BFB8F1000F04460D460FFA43
:108910008AFAE9D2092F0BD802339B1B06EB030A14
:1089200016F801BFABF13002092A0FFA8AFAF5D91D
:10893000BBF12E0F00F0B6800BF0DF03452B60D0AB
:10894000BBF1000F56D10AF126034C2B00F2FC803C
:10895000002D08BFB4F5000F80F0F68007EE904AB6
:10896000BAF1000FF8EEE77A40F36481BC4B1AF0DD
:10897000010F1CBF93ED007A67EE877A5FEA6A0207
:1089800023D0D00744BF93ED017A67EE877A5FEA80
:10899000AA021AD0D10744BF93ED027A67EE877A14
:1089A0005FEAEA0211D0D20744BF93ED037A67EE83
:1089B000877A5FEA2A1A08D0BAF1010F0CBF93ED4B
:1089C000047A93ED057A67EE877A019B0BB1F1EE9D
:1089D000677A009A0123C2ED027A137010460DE007
:1089E00000200190A1F13000C0B209287FF64AAF03
:1089F0002E2953D0009A00231370104605B0BDE80D
:108A0000F08F96F801B0BBF12D0F36D0BBF12B0FD4
:108A100000F0F080ABF13003DAB2092A06F101066A
:108A20008ED80AEB0302B2F59A7F00F3D7800027B5
:108A300006E002EB400303EB0A02B2F59A7F79DC11
:108A400016F801BFABF13002D1B2092903EB830064
:108A5000EFD9002F40F0C7809A44BBF1000F3FF4DC
:108A600072AFC7E7717800200190A1F13000C0B269
:108A7000092806F10106BBD804E796F802B0ABF16D
:108A80003003DAB2092A06F102063FF659AF0AEBC3
:108A90000302B2F59A7F4FDC0127D1E700240025BD
:108AA0004FF0000A96F801B0ABF13000C0B20928CF
:108AB00006F101063FF640AF6A4B4FF099329D42F6
:108AC0004FEA850108BF94424FEA840741EA947156
:108AD0000ED23F1945EB010117EB070841EB0109E5
:108AE0000AF1FF3A18EB00040FFA8AFA49F100057F
:108AF00016F801BFABF13000C0B20928DFD91BE77F
:108B0000BBF1000F40F0D280019B8BB1B5F1004F5B
:108B100008BF012CBFF4E6AE644265EB45050223B5
:108B2000009A1046C2E90245137005B0BDE8F08F07
:108B30000323F5E7002F51D000994FF000420123A5
:108B400008468A600B7059E72046294638F088FCB1
:108B5000BAF1000F79DD444C1AF0010F7AD15FEAC7
:108B60006A032DD0DF0700F18D805FEAAA0327D0CA
:108B7000DE0700F18C805FEAEA0321D0DD0700F117
:108B80008B805FEA2A131BD0DA0700F18A805FEA44
:108B90006A1315D0DB073ED45FEAAA1310D0DF07B3
:108BA0003ED45FEAEA130BD0DE073ED45FEA2A2305
:108BB00006D0DD0744D45FEA5A231CBF2B490020AE
:108BC000019B13B101F100431946009A0423C2E945
:108BD00002011046137005B0BDE8F08F019B002024
:108BE000BBB12349F1E7AAEB030ABBF1000F3FF445
:108BF000AAAEFFE696F802B0ABF13003DAB2092A6A
:108C000006F102067FF60DAFBBF1000F3FF49BAEFD
:108C1000F0E61849D9E7D4E90A2338F057FCBBE756
:108C2000D4E90C2338F052FCBBE7D4E90E2338F02A
:108C30004DFCBBE7CAF1000A3FF4C7AE0E4B96E607
:108C4000D4E9102338F042FCB5E7CAF1000AB7D0E6
:108C50000A4C81E7D4E9002338F038FC7FE700BFF5
:108C60006C74060099990100D07406000000F87F2A
:108C70000000F0FF0000F07F5474060088740600C6
:108C800099999919D4E9022338F020FC6DE7D4E9C9
:108C9000042338F01BFC6EE7D4E9062338F016FCF9
:108CA0006FE7D4E9082338F011FC70E7B5F5801FB1
:108CB00008BF002CBFF416AE4FF0000A38E600BF24
:108CC00010B50E4C2068B8B116F0B4FF38B9206862
:108CD00016F09AFF18B1BDE8104019F001BB2068EA
:108CE00050B116F0A7FF38B1206816F09FFF18B1F9
:108CF000BDE8104019F0B6BF002010BD64CA0020C6
:108D000010B50E4C2068B8B116F094FF38B9206841
:108D100016F07AFF18B1BDE8104019F0E5BA2068E6
:108D200050B116F087FF38B1206816F07FFF18B1F8
:108D3000BDE8104019F09ABF002010BD64CA0020A1
:108D400070B51F4D1F4C2B78002B2ED0237C002B91
:108D500029D11D4B1D4E1A683068012A04BF00221C
:108D60001A601B4B00241C702C7010B130F05EFF99
:108D70003460184B1849194D194A1A481A4E0024E4
:108D80001C701A4B0C702C6014600460214618484B
:108D900034704FF0FF354FF47A621D6039F096FA67
:108DA000144B1C6070BDFFF7C3F8237C002BD0D0A0
:108DB00011481AF07DFD10481AF06EF8C9E700BF9F
:108DC00009EE002070CA002068CA002064CA002092
:108DD00088CB002009EA0020A4CD0020A0CD0020EF
:108DE00048DD002058DD002070EE0020DC6000200F
:108DF000A8CD00206CEE002080CA002008B51E4BD4
:108E00001B7803B908BD2EF0BFFB1C4A1C4B12682F
:108E1000801A9842F6D91B4B93ED007AF0EE007A57
:108E2000B4EEE77AF1EE10FA1FDA174B1A78AAB10E
:108E30002EF0AAFB154B1A684EF65F23801A984253
:108E4000E0D9FFF77DFF124A1249136803F59C53DE
:108E500008334FF0FF301360086008BD01221A701C
:108E60002EF092FB094B186008BD0749074A002302
:108E70000B70136008BD00BF09EA00200CEA002057
:108E80001FBF02009CCD0020A4CD0020A0CD00205B
:108E9000FCCA0020D86000202DE9F047354B1B6844
:108EA000ADF5287D002B5CD1334D344A3449049311
:108EB0004FF47A7407A8ADF81C308DF81E30059475
:108EC00003951AF01FFA9DF81C30002B49D0DFF8EB
:108ED000C490DFF8C4802B4F012602E014A819F0DB
:108EE000DBFF00224FF47A7307A914A8CDE91052D2
:108EF000ADF850208DF8522012931AF041FC9DF8E5
:108F0000504014B314F0D004E8D10DF1740A514666
:108F10004FF4807214A81BF087FB1B9A0192002E5D
:108F200014BF4B4643463A464FF49671CDF800A025
:108F30005DA83AF0C1F85DA982B213481EF0F4F9B9
:108F40000A202EF02DFB2646C8E707A819F0A4FF3B
:108F50000E490D4803221EF0E7F90DF5287DBDE806
:108F6000F0870B49084804221EF0DEF90DF5287D34
:108F7000BDE8F08768CA002000740600506906004A
:108F8000E86400203C6A060018CC0020486A06000D
:108F90000C6E06000CAA0600386A0600F0B52B4BD2
:108FA0001C68BDB0002C4AD12346294D294A2A49C4
:108FB000019404A84FF47A76ADF810408DF8124071
:108FC000029600951AF09EF99DF8103083B3234F56
:108FD000234E02E011A819F05FFF4FF47A730022CC
:108FE00004A911A80F930E94ADF844408DF84640A3
:108FF0000D951AF0C5FB9DF84430B3B113F0D00FB6
:10900000E8D11AA9402211A81BF00EFB1AAB3A4670
:109010002AA846213AF050F82AA982B230461EF01A
:1090200083F90A202EF0BCFAD4E704A819F034FF23
:109030000C490B4804221EF077F93DB0F0BD0A49F7
:1090400007480C221EF070F93DB0F0BD68CA002040
:10905000007406005C6A0600E8640020706A06007E
:10906000E0CC0020686A06004C6A06002DE9F04159
:10907000384E337C8EB00446002B65D1DFF800817A
:10908000D8F80030032B13D0D8F800306BB1D8F8E3
:109090000030042B09D030493048D8F80030042281
:1090A0001EF042F90EB0BDE8F0810323C8F800308D
:1090B000002722462A4C2B4901943B464FF47A75EF
:1090C00005AC05A803950297ADF814708DF81670DD
:1090D0001AF018F9A446BCE80F00234D029C7460F6
:1090E0000FC5BCE80F000FC5DDE90321337CDCF8B8
:1090F00000002860C6E9022173B9D8F800201B4996
:109100001648032A4FF0050208BFC8F800301EF0C9
:109110000BF90EB0BDE8F0811548F36A154A1649FF
:109120000360012017600870144A202101A839F05B
:10913000C3FF01A83AF0B3F801A982B207481EF0B4
:10914000F3F80EB0BDE8F08106F1100019F0A4FEAE
:1091500094E700BF44C900200C6E0600E0CC00205C
:1091600000740600E864002054C900207C6A0600F0
:1091700078C900203CC9002084C90020846A060008
:1091800068CA002010B58CB000240246019017492F
:10919000ADF80C40234603A88DF80E401AF0B2F843
:1091A00088B1019A1149ADF80C40012303A88DF84C
:1091B0000E401AF0A7F868B90D490E4807221EF0B4
:1091C000B3F80CB010BD0C490A4809221EF0ACF8E7
:1091D0000CB010BD03A81BF005F90028ECD007491E
:1091E000044807221EF0A0F80CB010BDE86400206F
:1091F000906A0600E0CC0020A06A0600986A06008B
:1092000038B52348234D15F02FFB0021042031F001
:1092100099FC0121052031F095FC092445F0010558
:109220000021052031F012FD4FF4A070A847012164
:10923000052031F00BFD4FF4A070A847013CEFD1A1
:109240000121042031F07EFC2146042031F0FEFC97
:109250004FF4A070A8470121052031F0F7FC4FF42E
:10926000A070A8470121042031F0F0FC4FF4A07059
:10927000A847074815F07EFA0749054815F0D6FAC1
:10928000BDE83840054801223C2127F09BB800BFCB
:109290009419012030810600801A0600A4CA00201B
:1092A0002DE9F047544E554D3768D7F800804046B9
:1092B00031F0EAFC034645F0010503244FF4FA407F
:1092C0005BB9012C74D0A847404631F0DDFC034661
:1092D000013C4FF4FA40002BF3D001237B71484F3F
:1092E000464DD7F80080D8F80090484631F0CCFCC5
:1092F000034645F0010503244FF4FA405BB9012C05
:1093000066D0A847484631F0BFFC0346013C4FF405
:10931000FA40002BF3D0012388F80530DFF8EC90F9
:10932000364DD9F80080D8F800A0504631F0ACFC9A
:10933000034645F0010503244FF4FA405BB9012CC4
:1093400022D0A847504631F09FFC0346013C4FF421
:10935000FA40002BF3D0012388F8053033681B79DD
:109360003BB1284A136803F59C5308331360BDE8EA
:10937000F0873B681B79002BF3D1D9F800301B79BB
:10938000002BEED1BDE8F0872EF0FEF898F80530FE
:10939000002BE3D01C4BD8F808201B68801A984299
:1093A000DCD32EF0F1F8A8F80440C8F80800D5E79F
:1093B0002EF0EAF87B79002B91D0134BBA681B682A
:1093C000801A98428BD32EF0DFF8BC80B86086E715
:1093D0002EF0DAF898F80530002B9FD00A4BD8F819
:1093E00008201B68801A984298D32EF0CDF8A8F870
:1093F0000440C8F8080091E7A06000203081060012
:10940000A4600020FCCA002094600020A860002016
:10941000424B1B682DE9F0411E68414D304631F04A
:1094200033FC034645F0010503244FF4FA405BB9D1
:10943000012C0BD0A847304631F026FC0346013CF6
:109440004FF4FA40002BF3D0002600E02646354BBF
:10945000334D1B681F68384631F016FC034645F053
:10946000010503244FF4FA405BB9012C0BD0A84747
:10947000384631F009FC0346013C4FF4FA40002B1A
:10948000F3D0002500E02546274B254F1B68D3F875
:109490000080404631F0F8FB034647F00107032403
:1094A0004FF4FA405BB9012C0AD0B847404631F07E
:1094B000EBFB0346013C4FF4FA40002BF3D00024B1
:1094C0009EB11A4E3378DBB165B1194D2B78F3B1EB
:1094D00024B1184C23785BB1BDE8F081154B1C70AA
:1094E000BDE8F081124B1D70F2E7104B1E70EBE7E8
:1094F0002EF04AF8104A012310602370BDE8F08175
:109500002EF042F80D4A012310603370DCE72EF094
:109510003BF80B4A012310602B70D9E7A0600020B4
:1095200030810600A4600020A860002040CA00200E
:1095300048CA002050CA002054CA002044CA002053
:109540004CCA0020294B1B6870B51E68284D304658
:1095500031F09AFB034645F0010503244FF4FA402D
:109560005BB9012C3FD0A847304631F08DFB034654
:10957000013C4FF4FA40002BF3D01E4B1C4D1B68EE
:109580001E68304631F080FB034645F00105032498
:109590004FF4FA405BB9012C25D0A847304631F092
:1095A00073FB0346013C4FF4FA40002BF3D0124BFF
:1095B0000F4D1B681E68304631F066FB034645F0D0
:1095C000010503244FF4FA405BB9012C0BD0A847E6
:1095D000304631F059FB0346013C4FF4FA40002B72
:1095E000F3D0002070BD012070BD00BFA06000203E
:1095F00030810600A4600020A860002038B50F4A22
:109600000F4B126819688A4215D00E491A60002360
:109610000B6001220C4C0D4B204600251A70E5769C
:1096200026F03AFC2046012126F062F94FF00113A2
:10963000C4E9045338BD0022ECE700BFD860002025
:1096400060DD002094E70020A4CA002010EA00207A
:109650001A4A13680C2B28D00B2B15D0083312D0C4
:10966000174B184993ED007A0B68F1EE047AB4EECB
:10967000E77AF1EE10FA03F59C5394BF0920082015
:10968000083310600B6070470F4B10491A680B6865
:10969000013A9A420B4A14BF013300230B6013684E
:1096A00003F59C5308331360704706490B6803F5B4
:1096B0009C5308335A200B6010607047D86000201C
:1096C0009CCD0020FCCA0020286100206CCA00202C
:1096D000F8B51749174C184A184F194E194D1A4822
:1096E00000233B70337023700B70184C13701849B3
:1096F000184A2B70184D236013600B80174C1849C3
:10970000027C2B604FF0FF3525600B805AB9154B5A
:109710001A783AB1144A1168032904BF0021116074
:1097200000221A70F8BD103019F0B6FBEFE700BF49
:10973000C5690020B9690020C46900209DAC0020E3
:10974000766900209CAC002068AC0020A8BC0020FA
:10975000ACBC0020BC690020D479002088600020C7
:1097600074690020A4AC002068CA002010B5194814
:10977000194A037C00241470DBB9184B00221A70BC
:10978000FFF7A6FF16481FF021FFD8B915481DF0B6
:10979000DBF8134800211FF0EFFE114800211FF0F5
:1097A000EFFE01210C2031F051FA0F4B00221A700C
:1097B00010BD103019F070FB0C4B1A68032A08BF5B
:1097C0001C60DAE706481FF035FF014604481FF029
:1097D0001BFFDBE744C9002038C9002084C90020F2
:1097E0002C1B01206C21012040C9002068CA0020E8
:1097F000244B1B7810B5002B38D1234B1B78002B42
:1098000031D12248AE2126F08DFA214B1B78DBB1F5
:109810002049214B01244FF480304FF080624C608E
:10982000C1F80803C3F88020BFF34F8FBFF36F8FD9
:10983000C3F88021BFF34F8F184B1948002140F225
:109840004C42197014F00AFB164B1B788BB9164B5F
:1098500001221A702DF098FE144B18602DF094FE22
:10986000134B186010BDFFF781FFCAE7FFF768FAD6
:10987000C3E701210F2031F065F901210F2031F0FC
:10988000E5F9E4E709EA002038C90020A4CA00206D
:1098900094CD002000A0014000E100E0CC69002050
:1098A00098E7002004C500201CEE00200CEE0020EC
:1098B00018EE00200378462B01D00020704710B529
:1098C0004378572B044621D11149082239F0EFFC87
:1098D00008B9012010BD0F490622204639F0E7FCE7
:1098E0000028F6D00C49204639F0B6FC0028F0D00C
:1098F0000A49204639F0B0FC0028EAD00849204641
:1099000039F0AAFCB0FA80F0400910BD002010BD6B
:10991000AC6A0600B86A0600C06A0600C86A06009B
:10992000D06A06002DE9F0435E498DB00822044656
:1099300039F0BDFC00284CD15B4F3B7803F0FF06AB
:10994000002B51D1083420462C2139F078FC002816
:109950004AD000F1010948462C2139F070FC054637
:10996000002841D020460A2231463AF0E9FBA5EB17
:109970000903082B80464AD1D9F80000D9F8041011
:1099800002AB03C302A801A98DF810600AF012F916
:1099900000283CD008F1FF33B3F5A02F56D26878E9
:1099A000013590B1DFF8449173263AF0D3FB0446B9
:1099B00030463AF0CFFB844207D115F8010F00285A
:1099C00054D019F8016B002EEFD13848FDF7D8FDBF
:1099D0000DE037490622204639F069FC50B9324B78
:1099E0001B78012BDDB218D03248FDF7C9FD0DB050
:1099F000BDE8F0833049204639F02EFCC8B92A4B27
:109A00001B78022BF0D12D4B01221A70EFE72C4866
:109A1000FDF7B6FD0DB0BDE8F08301460A22A01D9A
:109A20003AF08EFB274B1B6883420FD1264B1D70EB
:109A3000DDE72649204639F00FFC68B91A4B1B7840
:109A4000032BD1D1224B01221A70D0E72148FDF718
:109A500097FD0DB0BDE8F0831F49204639F0FCFBAF
:109A60000028C4D11D4B01221A70C0E799F80030BC
:109A7000002BAAD1134B1A4A0198C3F8008005A9FC
:109A800001233B7010600AF05FF8164A05AB08A886
:109A9000102139F011FB08A982B213481DF044FCD3
:109AA000A5E700BFAC6A06009DAC0020EC6A06008A
:109AB000B86A0600D86A0600C06A0600B9690020C4
:109AC000E06A0600C869002076690020C86A0600BE
:109AD000C5690020E46A0600D06A0600C469002057
:109AE000C0690020F46A0600E0CC0020016B06008B
:109AF0002DE9F041A2B01C4615460021412211A8D3
:109B000038F0E4FB402C2246294628BF402211A809
:109B100038F0B4FB11A839F0C2FB78B1431E11AA8A
:109B2000AC4E1A4412F801190A39C9B226FA01F0EA
:109B300016296FEA000003F1FF3317D9A64E3378D8
:109B4000F3B1A64911A8052239F0B1FB08B9062CDA
:109B500044D9A34E338814FA83F3B3F5805F6DDDE7
:109B6000A04B01221A7022B0BDE8F08110F0010074
:109B7000E4D1591C5070D5D1974E3378002BE0D1E9
:109B8000994F3B78022B43D09849042211A839F011
:109B90008EFB00284DD09649042211A839F087FB8E
:109BA00010B39449072211A839F081FB002840F036
:109BB00081809DF84B30202B0DF14B0403D114F81C
:109BC000013F202BFBD0182120460AF0B5FA0028CF
:109BD00000F0D6802046FFF7D5FAC4E7864B012275
:109BE0001A7022B0BDE8F0819DF84830202B12ACED
:109BF00003D114F8013F202BFBD0182120460AF096
:109C00009BFA002800F0C8802046FFF72FFAAAE749
:109C1000082C23D8794911A839F01EFB20B17849C6
:109C200011A839F019FBC8B9214611A8FFF77AFE2F
:109C300099E7FFF731F922B0BDE8F0813088714B28
:109C4000294613FA80F0224638F018FB338814FABC
:109C500083F39BB2338022B0BDE8F0813B78022BC6
:109C600081D1694B1A7802F0FF00002A7FF47BAFA4
:109C7000DFF8F481654AD8F80070126827449742EB
:109C800000F29080624A634ED2F800C0318814FA24
:109C900081F1B1F5805F40F28B80DFF8D0C1DCF854
:109CA0000010013100F0E4805B4A5C491160012240
:109CB0001A7058E75A4911A839F0CEFA00284FD047
:109CC0005849052211A839F0F2FA002848D056491F
:109CD000052211A839F0EBFA002841D0534911A808
:109CE00039F0BAFA00283BD0514911A839F0B4FA3A
:109CF000002800F004814F49052211A839F0D7FA55
:109D0000002800F0EB804C49052211A839F0CFFA69
:109D1000002840F0C6803378002B40F0BC80474BD1
:109D20001C78002C40F0B7800DF1490018210AF092
:109D300003FA002800F0E680414B294D0DF149015E
:109D40001846182239F0C5FA03462B4925483D4AE2
:109D50001C7601232C8004700C701370337002E7A2
:109D6000394C237803F0FF0583B9384B402211A901
:109D7000184639F0AEFA012280F840502270F2E61F
:109D80003349344809221DF0CFFAECE63249314814
:109D900005221DF0C9FAE6E630492E4805221DF0DD
:109DA000C3FAE0E61C4A2E49116001221A70DAE675
:109DB0002C4B03EB0C333088294613FA80F02246F3
:109DC00038F05CFA3388C8F8007014FA83F39BB259
:109DD0003380C8E609004000247A0020086B0600A2
:109DE000288A0020D87900209DAC0020186B06003E
:109DF000206B0600286B0600498C0020C06A060014
:109E0000D06A0600287A00209CAC0020C869002097
:109E1000A8BC0020ACBC0020BC690020106B060070
:109E2000306B0600386B0600406B0600486B06007E
:109E3000586B0600606B0600846B060084C9002026
:109E40004C8C0020D97900202A8A0020DC7900205F
:109E5000A06A0600E0CC0020506B06007C6A060079
:109E6000E46A0600688C0020D47900208860002015
:109E70003188DFF850E1484B89B2AEF80010116824
:109E8000CCF80010116881F0010111603080126877
:109E900003EB02338FE74149414809221DF044FAA0
:109EA00061E64049052211A839F001FA80BB3E4C19
:109EB000237803F0FF05002BEDD10DF149001821A7
:109EC0000AF03AF9F0B1394B18220DF14901184660
:109ED00039F0FFF901220576227044E60DF14900C0
:109EE00018210AF029F968B1314A0DF1490304A893
:109EF000322139F0E1F804A8FFF7B8F833E6FFF7AC
:109F00004DF830E62B4926480D221DF00DFA2AE6C1
:109F1000294911A839F0A0F930B111A8FFF7CAFCFE
:109F200000283FF420AE7FE6244B186837F076FA1D
:109F300002AE04460D4645EC104B32460221042089
:109F40002DF00CFB10A3D3E900232046294637F05F
:109F500005F90FA3D3E9002337F0B8FA37F066FD0F
:109F60006428A8BF642020EAE073154A00961821EF
:109F700004A839F0A1F804A839F091F904A982B233
:109F800007481DF0D1F9EEE56666666666660A402A
:109F9000721CC7711CC75B40688C00208C6B06006C
:109FA000E0CC0020986B06002C8C0020308C002028
:109FB000786B0600686B0600A06B060050DD002081
:109FC000A86B0600746900202DE9F041A34A1378BC
:109FD000ADF50E7D002B40F08E8003F0FF01A04B0D
:109FE0001A78002A74D09F4A19701368032B10D076
:109FF000136863B11368042B09D09B481368FDF7FD
:10A00000BFFAFFF765FB0DF50E7DBDE8F081032378
:10A0100013600EAD00240126944F954A95492C807B
:10A0200033462846AC703E7019F044F8924A934982
:10A030002C8023462846AC7019F064F958B18E4A3A
:10A040008E492C8033462846AC7019F05BF910B16C
:10A0500028461AF0C7F94FF00008894C864A87490C
:10A060002C604FF47A7644F20223AE6012A8C5F851
:10A070000480A5F8108085F8128012AC19F042F91E
:10A080000FCC804F6E687E6007F110060FC60FCCB4
:10A090000FC6D5E902123B7C20683060C7E9021286
:10A0A000002B00F08F807849784C794A7948C1F8C4
:10A0B0000080794BA4F800804FF0FF31116002243A
:10A0C000C0F80080754976481C7007221DF02CF9F5
:10A0D000744B1B78E3B9704C734D2378022B77D007
:10A0E0002B781BBB714B1A78002A40F08A800DF543
:10A0F0000E7DBDE8F08100231370FFF7E9FA6C498B
:10A10000674809221DF010F90DF50E7DBDE8F081BC
:10A11000684A554B1068002808BF1846FDF730FA0A
:10A12000FFF7D6FA0DF50E7DBDE8F08100232B7008
:10A130002378022BD6D1564E3368013311D05E4BB3
:10A1400032681D88ADB24DB15C495D4801EB02310A
:10A150002A4619F011FC854240F0EF804FF0FF33A2
:10A1600033604A4D2B889BB283B1474B1B682E88C6
:10A17000B6B24EB15149524801EB0331324619F0A3
:10A18000FBFB864240F0D98000232B804C4819F01D
:10A190008FFB4B4818F080FE324B34481A68032A74
:10A1A00004BF00221A603B4A464B11681A6800231C
:10A1B0009142037000F09A804348FDF7E1F9FFF700
:10A1C00087FA8FE72848FDF7DBF9FFF781FA8EE77A
:10A1D0002B78002B84D12E4E3368013380D0364B40
:10A1E00032681F88BFB247B13449354801EB0231AC
:10A1F0003A4619F0C1FB8742E4D14FF0FF33336098
:10A200006EE700221A702378032B1FD12F4BDFED4E
:10A21000307A93ED007AB4EEE77AF1EE10FA19D4C1
:10A220002C4B53B12C4A22B12C49002900F09980C3
:10A23000521A1344B3F5242F04D8FDF7D7F9002898
:10A2400040F0A2802648FDF79BF950E72548FDF72E
:10A2500097F94CE72448FDF793F948E7C4690020D3
:10A260007669002068CA0020106B0600A4AC0020AC
:10A27000C06B06002C6900202C690600E8640020F1
:10A280000074060068AC0020A8BC0020ACBC002014
:10A2900088600020D47900209DAC0020C46B0600AB
:10A2A000E0CC00209CAC0020B9690020C5690020EA
:10A2B000B46B0600BC69002074690020688C002023
:10A2C00078AC0020C8690020E46A060050DD002058
:10A2D00066666640E0CF0600CC6400200060002087
:10A2E000DC6B0600D86A0600D46B06004FF47A7166
:10A2F0000391364D364A3749029305A8ADF814301C
:10A300008DF81630019518F0FDFF9DF81430A3B1BB
:10A310004FF0FF360EAD05E015D03046294609F066
:10A32000D9FB06464FF40072294605A819F052F8E9
:10A33000021EF1DA05A818F0AFFD2748FDF720F955
:10A34000FFF7C6F9CEE605A818F0A6FD234B18685E
:10A35000F643B04207D02248FDF712F9FFF7B8F9EB
:10A36000C0E60A4665E7032301A9237009F0ECFB68
:10A370001C4A01AB1021284638F09EFE294682B2C5
:10A3800019481CF0D1FFADE6184917480B221CF004
:10A39000CBFF0922164914481CF0C6FFFA202DF005
:10A3A000FFF8FF210020FCF7A1FFA8210020FCF707
:10A3B0009BFF10481CF0C8FAFCF79CFF72B60E4BCE
:10A3C0001868033080083CF0A7FA00BF007406004C
:10A3D0002C690600E8640020106B0600C0690020AC
:10A3E000E06A0600CC6B0600E0CC0020E46B0600BF
:10A3F000F06B06006C210120C8690020124B134944
:10A400000122002030B45A600325DA600424C3F826
:10A41000040542F21070C3F80855C3F810454FF414
:10A420008035C3F8400560244FF08060C3F80022F7
:10A43000C3F8045381F81A43C1F880010860044945
:10A4400030BC0A701A60704700A0014000E100E0D3
:10A45000CC69002030B51E4C83B040F24C432046FE
:10A460000322012140F24C4513F090FC204640F2BB
:10A470004C430322192114F0C3F82B462046032233
:10A48000042113F057FD20460095032300220121EB
:10A4900013F092FD0095204603230122002113F0C2
:10A4A0008BFD0095204603230222002113F084FD3A
:10A4B00003231A4600952046002113F07DFD0095E8
:10A4C000204603230622002113F076FD03B030BDA1
:10A4D00098E700200D4A0E4B0E4810B500210E4C97
:10A4E00011704FF47A621960216037F0EFFE0B486B
:10A4F000037C33B90A4B1A68022A04BF00221A608F
:10A5000010BD103018F0C8FCF4E700BF08EE0020C2
:10A5100058DD0020A8CD002048DD002014EA0020EE
:10A5200068CA00202DE9F0430024B3B0374B0494EF
:10A5300001464FF47A75224607A8ADF81C408DF805
:10A540001E400595039318F0E5FE20B90025284626
:10A5500033B0BDE8F0832E494FF4806207A818F0AD
:10A5600039FF064607A818F097FCB6F5806FEDDBBB
:10A57000284E009502A9019125480294334610AA5D
:10A580004FF4806109F090FC05460028DFD0224B93
:10A59000DFF89880214FDFF8989010A9184617220D
:10A5A00038F097FE03461F22404616A9DC7538F0A6
:10A5B00090FE88F81F403846DFF878801F221EA9D9
:10A5C00038F087FEFC770F22154F26A9484638F051
:10A5D00080FE0F222AA9404689F80F4038F079FE04
:10A5E0000F2238462EA988F80F4038F072FE029AE2
:10A5F0000C4BFC731A6012B1013A56F822200A4B38
:10A6000028461A6033B0BDE8F08300BF007406002E
:10A6100004BD0020A8CD002030CB002010CB0020AE
:10A6200068CB002048DD002058DD002048CB00200A
:10A6300078CB002000CB00202DE9F047204EDFF83A
:10A64000889084B006F26C48474606F2444A0324D8
:10A6500001ADFF220023CDF80890ADF8042003934C
:10A6600095E80E0038461BF07DFA96F87E341448C3
:10A67000C6F8688439460122C3B91AF087FA68B16E
:10A68000504618F009FC0E4901F2444018F084FECF
:10A6900060B10C4B1E6004B0BDE8F0870346024673
:10A6A000394607481AF072FA0028E9D164202CF0E4
:10A6B00077FF013CCDD1204604B0BDE8F08700BF54
:10A6C000E86400200C1B012080841E002DE9F0436B
:10A6D000BD4DBE4C2B782278D8B29A428ABF00F189
:10A6E0001003831A9B1ADBB2A1B0002B00F03E814D
:10A6F000B74902F00F06012B51F82660009602F0D0
:10A700000F0700F08280561C06F00F06022B51F84E
:10A710002660019679D0961C06F00F06032B51F89F
:10A720002660029671D0D61C06F00F06042B51F855
:10A730002660039669D0161D06F00F06052B51F80A
:10A740002660049661D0561D06F00F06062B51F8C0
:10A750002660059659D0961D06F00F06072B51F876
:10A760002660069651D0D61D06F00F06082B51F82C
:10A770002660079649D002F1080606F00F06092B5D
:10A7800051F82660089640D002F1090606F00F063F
:10A790000A2B51F82660099637D002F10A0606F016
:10A7A0000F060B2B51F826600A962ED002F10B06ED
:10A7B00006F00F060C2B51F826600B9625D002F1FF
:10A7C0000C0606F00F060D2B51F826600C961CD0D7
:10A7D00002F10D0606F00F060E2B51F826600D96BD
:10A7E00013D002F10E0606F00F060F2B51F826606B
:10A7F0000E960AD00F3202F00F02102B51F82220D1
:10A800000F9202D0FFB251F82730DFF8FCC1DFF819
:10A81000FCE19CF800702070013BDBB201AA02EB66
:10A820008306DEF800006B496B46002F40F005817F
:10A83000087800F0FF0208B10F703A461868043338
:10A84000B34219D091F800801F68B8F1000F40F0B2
:10A85000B580A7EB00086048A8F6B839814500F23A
:10A86000AB8020A800EB820904330132B3423846A2
:10A8700049F8408CD2B2E5D10123CEF800008CF823
:10A880000030002A72D0012A109B39D91199022A6E
:10A890000B4435D01299032A0B4431D01399042A62
:10A8A0000B442DD01499052A0B4429D01599062A5A
:10A8B0000B4425D01699072A0B4421D01799082A52
:10A8C0000B441DD01899092A0B4419D019990A2A4A
:10A8D0000B4415D01A990B2A0B4411D01B990C2A42
:10A8E0000B440DD01C990D2A0B4409D01D990E2A3A
:10A8F0000B4405D01E990F2A0B441CBF1F995B18EF
:10A9000007EE902A9FED355A354A9FED367AD2ED03
:10A91000006ADFED355A354EF8EE677A76EE876AD3
:10A9200085EE276A07EE103AB8EE477A36EE266AC9
:10A9300085EE875AC6EE865A96ED006AF0EE464AD4
:10A94000B7EE007AD7EE854A77EE657AA4EEA56A6F
:10A9500067EEA66A86ED006AF4EEC76AF1EE10FAB9
:10A9600058BFB0EE667A82ED007A00E01F4E204AB2
:10A97000204B1768DB68D90103D51F4B1A68D20733
:10A9800058D42EF019F81D4BA0FB0301830A43EAAB
:10A9900081531B4ADB1B93423AD8D6ED007A194A01
:10A9A000B6EE007A77EE877AFDEEE77A17EE903A08
:10A9B000136021B0BDE8F083384640E74FF000084F
:10A9C000384681F800803AE768EE0020B869002038
:10A9D00028EE00208C600020C8781E0000401C4536
:10A9E0009060002000004844C0E1644CA0AC00200E
:10A9F00020EE0020F0ED00E0001000E040420F00EB
:10AA000020A1070024EE0020658C0020207A002081
:10AA10000B4A0C48012111702A78227000230A4A3F
:10AA20003360002313700949094A0860136021B09C
:10AA3000BDE8F0835B689B09ABE7002202E700BF3B
:10AA40008C60002000401C46658C00209060002037
:10AA500024EE00202DE9F04F80468B4658F8043B49
:10AA600098E8070093F83C4093B006AF0DF1240935
:10AA7000202C87E8070089E8070062D10CAC84E845
:10AA8000070094E807000FAC84E807000090044634
:10AA9000002856D01D8F4FF6FF72954251D0DB6AC9
:10AAA000E90903EBC10105F07F05496811EBC50514
:10AAB00047D01099EE880292481E22184FF0010AE2
:10AAC0002C46039504963546CDF8148001921E4617
:10AAD0008846BAF1000F11D1029B9D4231D0E8099E
:10AAE00006EBC00005F07F05446814EBC50428D0D0
:10AAF0008AF0010AE588BAF1000FEDD02079042828
:10AB00003CD0052836D002281FD0B8F1000FE3D181
:10AB10002A464FF6FF718A423346DDF81480DDE99C
:10AB200003560ED0D00903EBC00002F07F0241684B
:10AB300011EBC20105D00A79111F012925D9022A7A
:10AB400023D0584613B0BDE8F08F204638F0A7FB5D
:10AB50004045C1D1B8F1000FDAD0009B013C581E2E
:10AB600010F8012F14F8013F9A42B5D1019B83429E
:10AB7000F6D1CDE72468E0880834E9E72468204668
:10AB8000002CE5D038F08BFBE2E798E807000CAC2E
:10AB900084E8070087E8070089E8070094E80700D1
:10ABA0000FAC84E80700804600283ED0109C671E4A
:10ABB0000744BB46274654464FF6FF799A467CB970
:10ABC0004E4532D0F3090AEBC30306F07F065D68F9
:10ABD00015EBC60529D084F00104EE88002CEFD0D7
:10ABE0002B79042B27D0052B3ED0022B38D0002FF9
:10ABF000E6D14FF6FF729642534616D0F20903EBA8
:10AC0000C20306F07F065A6812EBC60B99D09BF878
:10AC10000430042B2CD0052B2DD0022B18BF4FF065
:10AC2000000B584613B0BDE8F08F4FF0000B5846AC
:10AC300013B0BDE8F08F2D6828460DB138F02FFB1A
:10AC4000B842BDD1002FD4D0681E08F1FF3313F8ED
:10AC5000011F10F8012F9142B2D15B45F7D1C8E72F
:10AC6000284638F01CFBEBE72D68E8880835E7E755
:10AC700052F836B065E752F8363003F1080B60E75A
:10AC80002DE9F047056804460E46002972D00846B3
:10AC900038F005FB8046002D58D02B79202B55D15C
:10ACA000002E53D02B884FF6FF77BB424ED0626800
:10ACB000D2F82C90D90909EBC10103F07F024B684F
:10ACC00013EBC20342D04FF0010ADD88BAF1000F46
:10ACD00010D1BD423AD0EA0909EBC20205F07F0566
:10ACE000536813EBC50331D08AF0010ADD88BAF14D
:10ACF000000FEED01A79042A35D0052A2ED0022A68
:10AD000027D0002004468045E3D1B8F1000F0BD0D6
:10AD1000721E631E02EB080112F8014F13F8010FB7
:10AD20008442D6D18A42F7D14FF6FF739D420DD0AF
:10AD3000EB0909EBC30905F07F05D9F8040000EB26
:10AD4000C505281E18BF0120BDE8F0870020BDE81A
:10AD5000F08718461C4638F0A2FAD4E71B68D8885A
:10AD600003F10804CFE71C682046002CCBD038F054
:10AD700096FAC8E788468EE78368002B00F0F680D5
:10AD80001A79402A40F0F2802DE9F04F1B884FF6E7
:10AD9000FF77BB428FB01CD0D0E90324D56ADA0913
:10ADA00005EBC20203F07F03526812EBC30310D01D
:10ADB000DA881CB912E0013CDA880FD0D109BA4216
:10ADC00005EBC10102F07F0603D04B6813EBC6030D
:10ADD000F1D19FED950B0FB0BDE8F08F143007C88F
:10ADE0001E7901AC84E80700202E04AC84E807003B
:10ADF000EFD194E8070007AC84E807000AAC84E8C8
:10AE0000070082460028E4D018884FF6FF77B84242
:10AE1000DFD0C20905EBC20200F07F03506810EBDF
:10AE2000C300D6D0DDF82C90C68809F1FF384FF06A
:10AE3000010BD044BBF1000F10D1BE42C9D0F209C2
:10AE400005EBC20206F07F03506810EBC300C0D0D0
:10AE50008BF0010BC688BBF1000FEED00279042AFB
:10AE60007DD0052A77D0022A60D0B9F1000FE4D155
:10AE70004FF6FF708642ACD0F20905EBC20206F035
:10AE80007F03576817EBC301A3D00A7912F01004AF
:10AE90000CD037F83340844200F0C180E00905EB64
:10AEA000C00504F07F006C6804EBC004023A1C2A61
:10AEB0008FD801A050F822F077AF0200D3AD020086
:10AEC00073AF0200F5AF0200BFAF0200D3AD0200C6
:10AED000D3AD0200D3AD0200CDAF0200D3AD02006E
:10AEE000DBAF0200D3AD0200E9AF0200D3AD020038
:10AEF000D3AD0200D3AD0200D3AD0200D3AD02004A
:10AF0000D3AD0200D3AD0200D3AD0200D3AD020039
:10AF1000D3AD0200D3AD020003B00200D3AD0200F6
:10AF200011B00200D3AD0200FDAF0200044638F0BC
:10AF3000B6F9484581D1B9F1000F99D0601E0AF1E8
:10AF4000FF3212F8014F10F8011F8C427FF475AFE9
:10AF50009045F6D18CE70468E0880834E9E7046896
:10AF60002046002CE5D038F09AF9E2E79FED2E0B51
:10AF7000704757F833100AA8FDF76EFC9DF828308B
:10AF8000013B032B3FF625AFDFE803F0130C05026E
:10AF90009DED0C0B1FE7DDE90C0136F061FA41EC89
:10AFA000100B18E7DDE90C0136F062FA41EC100BEA
:10AFB00011E70C9836F032FA41EC100B0BE717F85A
:10AFC000330036F009FA41EC100B04E757F8330070
:10AFD00036F002FA41EC100BFDE657F8330036F07C
:10AFE0000BFA41EC100BF6E6086836F017FA41EC64
:10AFF000100BF0E657F833100831BCE794ED000B66
:10B00000E9E6D4E9000136F02BFA41EC100BE2E658
:10B01000D4E9000136F02CFA41EC100BDBE60024F9
:10B0200044E700BFAFF30080000000000000000014
:10B030002DE9F04F00F10C02034607CAD3E901469F
:10B040008FB001AB83E80700002C74D093E80700B1
:10B05000257904AB202D83E807006CD107AB0AAF3C
:10B0600083E8070087E807008246002863D020882D
:10B070004FF6FF7840455ED0D6F82C90C20909EB18
:10B08000C20200F07F03506810EBC30053D04FF0B2
:10B09000010B0B9EC588BBF1000F10D145454AD06E
:10B0A000EB0909EBC30305F07F05586810EBC500F9
:10B0B00041D08BF0010BC588BBF1000FEED00379B6
:10B0C000042B56D0052B50D0022B39D0002EE5D1C1
:10B0D0004FF6FF7085422ED0EB0909EBC30305F054
:10B0E0007F055C6814EBC50125D00B7913F01002C5
:10B0F0000DD034F83520824200F09780D00909EB5A
:10B10000C00902F07F00D9F8042002EBC002023B24
:10B110001C2B10D8DFE803F0360F34595D0F0F0FEA
:10B12000640F6B0F720F0F0F0F0F0F0F0F0F0F0F1B
:10B13000780F7F0F86009FED3E0B0FB0BDE8F08FBC
:10B14000044638F0ACF88642A8D1002EC0D00AF1EF
:10B15000FF33601E9A1901E09A42B9D013F8014FEB
:10B1600010F8011F8C42F7D098E70468E088083493
:10B17000E9E70468002CA9D0204638F090F8E2E70F
:10B1800054F835103846FDF767FB9DF82830013B31
:10B19000032BD0D8DFE803F0130C05029DED0C0B58
:10B1A000CBE7DDE90C0136F05BF941EC100BC4E7AD
:10B1B000DDE90C0136F05CF941EC100BBDE70C98B1
:10B1C00036F02CF941EC100BB7E754F83510083184
:10B1D000D8E714F8350036F0FFF841EC100BACE777
:10B1E00054F8350036F0F8F841EC100BA5E754F8A8
:10B1F000350036F001F941EC100B9EE7086836F097
:10B200000DF941EC100B98E7D2E9000136F028F96E
:10B2100041EC100B91E7D2E9000136F029F941EC3D
:10B22000100B8AE792ED000B87E700226FE700BF63
:10B2300000000000000000002DE9F04F85B004ACD4
:10B2400004E90E00DDF80480B8F1000F47D0008853
:10B250004FF6FF76B04242D00E9BD3F82C90C20935
:10B2600009EBC20200F07F03506810EBC30036D038
:10B27000029DB0F806B06F1E4FF0010A4744BAF1C4
:10B28000000F12D1B3452AD04FEADB1309EBC303F9
:10B290000BF07F0B586810EBCB0020D08AF0010A2E
:10B2A000B0F806B0BAF1000FECD00379042B31D01E
:10B2B000052B2BD0022B16D0002DE3D14FF6FF73B8
:10B2C0009B450CD04FEADB1309EBC3090BF07F0B56
:10B2D000D9F8040000EBCB0005B0BDE8F08F0020EA
:10B2E00005B0BDE8F08F044637F0D9FFA842C9D1B8
:10B2F000002DE3D0601E08F1FF3313F8011F10F892
:10B30000012F9142BED19F42F7D1D7E70468E08870
:10B310000834EBE704682046002CE7D037F0BFFF85
:10B32000E4E700BF2DE9F04184B0064604A800E937
:10B330000E003068DDE90187A8B17D1E4544C38851
:10B34000BB420DD1002F56D008F1FF33C21D01E0E2
:10B35000AB4250D013F8014F12F8011F8C42F7D0C6
:10B3600000680028EBD1B7F5803F4AD20A9B2E4AED
:10B370001B681B68934207F1090046D12CF02CF999
:10B3800000283ED00123C780838000F108054FB319
:10B3900000F10C0108F10402954238BF884507F11D
:10B3A000FF3336D3072B34D927F0030444444346F4
:10B3B0002A4653F8041B42F8041BA342F9D1BA07EA
:10B3C00027F003030ED018F80320EA545A1C9742C2
:10B3D00008D9023318F80210A9549F4202D918F86C
:10B3E0000320EA54074400233B7233680360306053
:10B3F00004B0BDE8F08183880133838004B0BDE8E8
:10B40000F081002004B0BDE8F08101460A98984719
:10B41000B6E74344C21D08F1FF3818F8011F02F8CF
:10B42000011F9845F9D1DDE7E5750200437DDBB1E9
:10B43000037D202B12D8DFE803F01F111111111129
:10B4400011111115151111151111111111111111E0
:10B450001111111111111111111115000123037393
:10B46000002070470023437503695A1C02611B7852
:10B47000037501224275DCE7037B002B14BF022019
:10B48000012070472DE9F04F437D85B00446002B25
:10B4900000F0FD80057DDFF878B300221346627569
:10B4A0000092CBB1267D0023B54263751DD0002EDE
:10B4B00000F0E9805C2E20D067686FB1A168FB883E
:10B4C000994200F0B0800F440131A1603E72637D6B
:10B4D000E7E7C2F30903009323695A1C22611E782F
:10B4E00026750023B5426375E1D16368002B14BF54
:10B4F0000020042005B0BDE8F08F2269511C2161B5
:10B500001178217501206075002900F0BC80752933
:10B5100010D0BD4A2F2304E012F8023F002B00F0A8
:10B52000AE808B42F8D15678002E00F0A880002320
:10B530006375C1E7911C637521615378237560754C
:10B54000002B00F0A080402B86BF23F02003A3F146
:10B550003701A3F13001C8B20F2800F2908000211A
:10B56000D31C6175236191782175012363750029CE
:10B5700000F08980402986BF21F020013739303919
:10B58000C9B20F297BD80026131D66752361D378B5
:10B590002375012641EA00116675002B73D0402BFC
:10B5A00086BF23F02003373B303BDBB20F2B66D83E
:10B5B00000206075501D20611279227543EA011345
:10B5C00001211BB26175002A5DD0402A86BF22F09E
:10B5D0002002373A303AD2B20F2A50D842EA031347
:10B5E0009AB202F5205189B20020B1F5806F1EB2E7
:10B5F0006075FFF46EAF02F510539BB2B3F5806F28
:10B600004FD37F2A00F2A1806768002F3FF464AF18
:10B61000A368FA88934200F0DA801F440133A360E4
:10B620003E72637D3DE7D4F800A04900DAF800904F
:10B6300001F10108B8F5803FD9F8003012D29B68BB
:10B64000724A934201F10A0140F0A280384637F075
:10B650001BFD28B1A0F80680A1686060074632E7AC
:10B66000D9F800305B685B4517D138462BF0CEFF28
:10B6700001238AF804300022637D626011E7032011
:10B6800005B0BDE8F08F022005B0BDE8F08F03697A
:10B690005A1C02611D780575FDE6394648469847F3
:10B6A000E6E7C2F30903009A8DF8080043EA822313
:10B6B00003F58032C2F30531C2F3874242F0F0074E
:10B6C00003F03F02C3F3851361F07F0162F07F0254
:10B6D00063F07F038DF80B108DF80C708DF8092046
:10B6E0008DF80A300DF10D0808F1FF3808E01E440E
:10B6F0000133A360377218F8017D002F3FF4E7AEE5
:10B700006668002EF7D0A368F2889342EFD15A0002
:10B71000D4F800A002F10109B9F5803FDAF8003051
:10B7200028D21968886802F10A01384A9042844692
:10B7300045D13046019337F0A7FC019BD0B1A0F86A
:10B740000690A36860600646D1E706F03F0363F009
:10B750007F03B2F5006F8DF809308DF808004FEACD
:10B7600092131AD263F03F03DFB28DF80A700DF125
:10B770000B08B9E71A6852685A451CD130462BF0BD
:10B7800045FF00234FF001028AF804206360B2E70E
:10B790000A464846394698475BE703F03F029B114B
:10B7A00062F07F0243F0E0078DF80A208DF80B70FD
:10B7B0000DF10C0898E7314618469047E1E70A4634
:10B7C00018460193314663469847019BB6E7D4F883
:10B7D00000905A00D9F8008002F1010ABAF5803FC2
:10B7E000D8F8003018D29B6808498B4202F10A024F
:10B7F0001FD11146384637F047FC58B1A0F806A0D3
:10B80000A3686060074608E70C6C0600D575020067
:10B81000DD750200D8F800305B685B450DD1384615
:10B820002BF0F4FE012389F804300022637D62606E
:10B8300037E6394640469847DFE73946404698475D
:10B84000F0E700BF2DE9F04F427D8DB004460D4674
:10B85000002A76D0027D202A12D8DFE802F07A1181
:10B8600011111111111111707011117011111111AB
:10B87000111111111111111111111111111170006A
:10B8800001217B2A217300F260815A2A42D9A2F158
:10B890005B01202900F25981DFE811F0C000570157
:10B8A00057015701570157015701570157015701D8
:10B8B00057011C0157015701570157015701570103
:10B8C00057012100570157015701570157013A010C
:10B8D0005701570157015701570157016400CF49DC
:10B8E0001346002001259A4240F0718111F8013F72
:10B8F0006075002B00F088812269561C2661127841
:10B9000022756575002AEED14FF0020840460DB051
:10B91000BDE8F08F222A02D0272A40F01681636802
:10B920000022A260002B00F047822046FFF7AAFD0C
:10B93000804698B929462046FCF73CFE0EE00022DE
:10B9400062752269511C216112782275012161758D
:10B9500081E7237B002BD7D14FF0010840460DB083
:10B96000BDE8F08FDEB220224FF0FF332A712B604A
:10B97000002E00F04F8100232269637519460120D3
:10B980001346013222611B7823756075202B00F26B
:10B990008D8101A757F823F009B90200ADBC020060
:10B9A000ADBC0200ADBC0200ADBC0200ADBC0200EB
:10B9B000ADBC0200ADBC0200ADBC020025BE020061
:10B9C00025BE0200ADBC0200ADBC020025BE0200D7
:10B9D000ADBC0200ADBC0200ADBC0200ADBC0200BB
:10B9E000ADBC0200ADBC0200ADBC0200ADBC0200AB
:10B9F000ADBC0200ADBC0200ADBC0200ADBC02009B
:10BA0000ADBC0200ADBC0200ADBC0200ADBC02008A
:10BA1000ADBC0200ADBC020025BE020040214FF0CB
:10BA2000FF32DBB229712A60002B00F0F380002185
:10BA300022696175084601261146013222610978A2
:10BA400021756675202900F2EF8001A757F821F0D3
:10BA500009B9020029BC020029BC020029BC02006D
:10BA600029BC020029BC020029BC020029BC02003A
:10BA700029BC020029BE020029BE020029BC020026
:10BA800029BC020029BE020029BC020029BC020018
:10BA900029BC020029BC020029BC020029BC02000A
:10BAA00029BC020029BC020029BC020029BC0200FA
:10BAB00029BC020029BC020029BC020029BC0200EA
:10BAC00029BC020029BC020029BC020029BC0200DA
:10BAD00029BE020000232B70637D06212971002BF3
:10BAE00000F0BC81237D4E49002B3FF40DAF9A42FC
:10BAF0006DD111F8012F00236375002A00F08480B6
:10BB00002369581C20611B78237501206075EBE7C1
:10BB100001232B70637D06212971002B00F0A08189
:10BB2000237D4049002B3FF4EFAE9A424FD111F8EC
:10BB3000012F00236375002A66D02369581C2061F9
:10BB40001B78237501206075ECE700239E4604F105
:10BB50001B014FF0010C15E0392A03D902F0DF0078
:10BB6000452817D13F2B03F1010013D084F815E0CD
:10BB700001F8012F2269C3B2501C2061127822758E
:10BB800084F815C02F2AE7D82B2AA2F12D00E9D07E
:10BB90000128E7D9234400221A7704F11C0108A8E0
:10BBA000FCF75AFE9DF8208008F1FF33032B0ED8D6
:10BBB000DFE813F0130127011A011300392940F2BD
:10BBC00096805E2940F28E807A2940F290804FF074
:10BBD000030840460DB0BDE8F08FDDE90A6739463D
:10BBE000304635F06BFF824635F018FC02460B46B6
:10BBF0003046394635F0D2FE8146002800F0678194
:10BC00000E23C5F800A02B714FF0000840460DB080
:10BC1000BDE8F08F4FF00508A0E600BF306C0600CD
:10BC2000286C0600206C060001225D29227339D0A1
:10BC30005E1E17464FF6FF79D4F8188008A84146D3
:10BC4000FCF7F6FA0899002900F072816B88BDF8BC
:10BC500024204B4500F00981D8F82C004FEAD31C72
:10BC600000EBCC0003F07F03406800EBC303DA80F5
:10BC70006A8033464FF000022046FFF7E3FD80461E
:10BC800000287FF46BAE2046FFF7D0FB80460028EB
:10BC90007FF464AE637D002B00F0EE80237D5D2B8E
:10BCA00040F0D68000206075804657E601227D2B4B
:10BCB0002273F7D0DFF81493DFF814A3002763682A
:10BCC000A760002B00F0F180637D002B00F0AE80B8
:10BCD000217D272900F0B480222900F0B1802F298E
:10BCE0003FF66CAFA1F14103192B3FF670AF4FF057
:10BCF000010867752046FCF7F5FC637D002B00F01A
:10BD00001D81217D2F29A1F1410300F2C480192B4F
:10BD1000EFD96368002B00F00B812046FFF786FB0C
:10BD2000804600287FF41AAE637D002B00F0AB80C4
:10BD3000237D3A2B7FF44BAFD4E90132134467756E
:10BD40001F72D4E90132D4F818B08DF82870083386
:10BD500008930992CDF800B008AB0ECB2846FFF748
:10BD60006BFA59468046002800F0F880FCF704FD85
:10BD70004146731E4FF000022046FFF763FD8046E8
:10BD800000287FF4EBAD2046FFF750FB80460028EB
:10BD90007FF4E4AD637D002B00F0D880237D7D2B04
:10BDA00080D02C2B7FF413AF67752046FFF73EFB46
:10BDB0008046002883D0D1E52668844A306803682D
:10BDC0001B68934240F0B78028202BF005FC002828
:10BDD00048D07F4B43606060A7E50A9A2A600E2333
:10BDE0002B714FF00008B9E5DDE90A67012F08BFA4
:10BDF000002E80F08D800A232E602B714FF00008FA
:10BE0000ACE5DDE90A9A19F100464AF10007012F75
:10BE100008BF002E6CD20C23C5F800902B714FF098
:10BE200000089BE56175ABE5607505E623695A1C62
:10BE30002261197821750123272963757FF44CAF9E
:10BE40002046FFF71FFB804600283FF466AF85E5DC
:10BE50002C2B7FF4BCAE00236375EDE65D494FE605
:10BE60005D496AE601233371B5E7002362F30F03EE
:10BE700062F31F432B60FCE623695A1C22611B7886
:10BE8000237567750BE723695A1C22611B7823759C
:10BE9000012262754DE739297FF62BAF5E297FF6C7
:10BEA00036AF7A297FF625AF33E7D4F80080D8F88B
:10BEB000000003681B684B4540F0828028202BF06F
:10BEC0008BFB002878D0C0F804A06060FCE6A16974
:10BED00006A8FCF791FA069B002B3FF43FADBDF896
:10BEE0001C202A801E212971C846C3E9006735E558
:10BEF000A16906A8FCF780FA069BCBB1BDF81C200F
:10BF00002A801C2129714FF00008C3E9009A25E519
:10BF1000A16906A8FCF770FA069B4BB1BDF81C207E
:10BF20002A801A2129714FF00008C3E9006715E53E
:10BF30004FF0040812E52821984748E723695A1C66
:10BF400022611978217584F81580DBE623695A1C73
:10BF500022611B7823750122627520E704A8FCF793
:10BF600067F9049B002BE3D0594606A80393FCF71E
:10BF70005FF9DDF81880B8F1000FD9D0039BBDF848
:10BF80001C10D9806A88BDF814004FF6FF7C62450A
:10BF900019D0DBF82CC04FEAD21E0CEBCE0C02F00D
:10BFA0007F02DCF804C00CEBC202D0806980194625
:10BFB0002046FCF7FFFADBE6012388F8043084E72B
:10BFC000282198477DE728806980F0E7E575020021
:10BFD00001001F00286C0600206C06002DE9F04FC0
:10BFE000038E9BB00746044657F80CBBADF80420FF
:10BFF000884600F1380903B30026C36AB2460BE055
:10C000002BF004FBE36AC5F800A0208EC5F804A05D
:10C010000136B1B2884211D9B5B203EBC5056968E2
:10C0200008460029EFD0DBF80030374A5B689342BE
:10C03000E6D058469847E36AE5E7C36A00204FF622
:10C04000FF719F422086A1860BD0DBF800102E4D99
:10C050004E68AE424DD118462BF0D8FA0423E76261
:10C060006386A16826680023237161B1264D336879
:10C070000A685B68A260AB4208462DD12BF0C6FA75
:10C08000A1680029F3D1002584F83C509DF80530C3
:10C090008DF8185049464FF0000203A8CDE9045529
:10C0A0008DF821500394CDF81C800994FFF7CAFB4A
:10C0B000054610B99DF82050A5B9049840B1039BDE
:10C0C00011491A6813685B688B4216D12BF09EFAEF
:10C0D00028461BB0BDE8F08F30469847A16800297C
:10C0E000C5D1D0E794F83C5015F0080518BF0325DA
:10C0F000E3E719465846B047B0E70146104698476F
:10C1000028461BB0BDE8F08FDD7502002DE9F04F29
:10C110000024984DDFF888B2974998482C6093B076
:10C120002246CBF8004017F0F5F821469348DFF897
:10C1300074A217F057FA04E0013491482C6016F00D
:10C14000ABFE8E498E48002217F01AFB804600286D
:10C1500000F009812B68C72B00F3028103A98848EE
:10C16000192218F061FA03A82E2137F0C5F808B19A
:10C17000002303702C68834B04EB440204EB82021F
:10C1800013440C220DEB0201184637F0A2F8DBF83D
:10C1900000200026C72A0673CEDC7B4C7848214657
:10C1A00040F6FF7217F016F9002801DC2C68C3E78F
:10C1B000764F26543B8E3A68002B00F08C81CDF8E8
:10C1C0000480FB6A3446B14690460BE02BF01EFA21
:10C1D000FB6AC6F80090388EC6F804900134A1B20C
:10C1E00088420FD9A6B203EBC6067168084600293B
:10C1F000EFD0D8F800305B685345E7D04046984709
:10C20000FB6AE6E74246DDF80480614C002139868E
:10C21000A3424FF6FF71B9860AD011684E685645A1
:10C2200040F0488118462BF0F1F90423FC627B862C
:10C23000B8683C6800233B7158B1236802685B68AA
:10C24000BA60534540F084802BF0E0F9B8680028CC
:10C25000F3D10A238DF809300023029A4A494B484A
:10C2600087F83C30FFF7BAFEC0B200289ED197F89D
:10C270003C30202B00F09A80402B97D13B8F4FF61B
:10C28000FF74A34292D0FE6ADA0906EBC20203F001
:10C290007F03526812EBC30388D0DA88D309A24225
:10C2A00006EBC30302F07F0100F1010003D05B68DD
:10C2B00013EBC103F1D100283FF478AF354BDFF821
:10C2C000E8900D970AA84FF000080B260124CDE94D
:10C2D0000E83CDF8309010968DF84440FEF74CFD5B
:10C2E0002D4BCDF830900AA8CDF8388010968DF8F7
:10C2F00044400D970F9357EC106BFEF73DFD002265
:10C3000000233046394659EC108B35F047FB40B1DD
:10C31000002200234046494635F040FB00287FF4C8
:10C3200045AFDBF800401D4B04EB440203EB021366
:10C3300003A91F22184636F0CCFF621C0021C0E979
:10C340000867C0E90A892C68CBF80020C177F3E6BA
:10C35000014620469847B86800287FF46EAF78E71A
:10C36000074816F099FD054816F096FD012013B018
:10C37000BDE8F08FFCE900201875060084EE00206F
:10C380009CCB002064DD0020D0690020C4BC0020CC
:10C39000D0BC0020386C0600446C060040F300203E
:10C3A000C0180120DD750200FCBC00203B8F4FF659
:10C3B000FF7293423FF4FAAED7F82C90D80909EBFC
:10C3C000C00003F07F01436813EBC1033FF4EEAEFE
:10C3D000DE88B8F1000F14D196423FF4E7AEF109C0
:10C3E00009EBC10106F07F064B6813EBC6033FF46F
:10C3F000DDAE88F001085FFA88F8DE88B8F1000F3A
:10C40000EAD0197904295DD0052957D00229E3D152
:10C4100018461C4636F043FF4FF6FF720728DBD163
:10C420002378632BD8D163786F2BD5D1A378752B64
:10C43000D2D1E378722BCFD12379732BCCD163790E
:10C44000652BC9D1A379732BC6D14FF6FF739E42DA
:10C450003FF4ACAEF30909EBC30306F07F065B685B
:10C4600013EBC6043FF4A2AE2279402A7FF49EAEBD
:10C4700033F836304FF6FF7C63453FF497AEDA0968
:10C4800009EBC20203F07F03526812EBC3033FF4CF
:10C490008DAED9880026CA09614509EBC20201F0B8
:10C4A0007F0006F1010618D0536813EBC00314D0C7
:10C4B000D988F0E719461046B047B6E61C68E08810
:10C4C0000834ABE71C68002C86D0204636F0E7FE27
:10C4D0004FF6FF72A2E7FB6A97E6002E3FF466AEC6
:10C4E0000C4B0C940AA84FF000094FF00B080126E2
:10C4F000CDE90F38CDE90D798DF84460FEF73CFCAD
:10C50000054BCDF838900AA8CDF840808DF84460EE
:10C510000C94EEE6386C0600446C060030B5344CE2
:10C520002368032B97B011D023686BB12368042BC9
:10C530000AD03049304823680C221AF0F5FE2F4B00
:10C5400000221A7017B030BD0323236000252C4B46
:10C550002C4A322109A836F0AFFD2B49ADF8005026
:10C5600009AA2B4668468DF8025016F0CBFE68B932
:10C5700023682649032B08BF20600C221E481AF0AE
:10C58000D3FE1E4B00221A7017B030BD1E49ADF805
:10C59000005009AA012368468DF8025016F0B2FE39
:10C5A00028B92368032B20D019490F22E6E76846F3
:10C5B00017F018FF0028F4D0236816490E48032B03
:10C5C0004FF0030208BF25601AF0AEFE0023124AA6
:10C5D0000D49ADF8003068468DF8023016F092FE35
:10C5E0000028CED0FFF792FDCBE700232360DBE7E6
:10C5F00068CA00204C6A0600E0CC00202C8C002089
:10C60000308C0020786B0600E8640020506C060037
:10C61000646C0600606C0600187506002DE9F04198
:10C62000534D544E2B883378A4B0002B6DD1524C0F
:10C6300003F0FF072368032B13D023687BB1236823
:10C64000042B0CD04D494E4823680C221AF06CFE86
:10C650004C4A4D4B17701F7024B0BDE8F081032386
:10C6600023600027494B4A4A32210AA836F024FDAC
:10C670004849ADF85C700AAA3B4617A88DF85E7071
:10C6800016F040FE002862D14FF47A730027DFF8DD
:10C690001CC119933F49189744F202230AAA1BA808
:10C6A000ADF86C708DF86E70CDF85CC016F02AFE97
:10C6B0009DF86C308BB9226837493148032A4FF016
:10C6C0000F0208BF23601AF02FFE2E492E4A0023C6
:10C6D0000B70137024B0BDE8F0812A882F4992B204
:10C6E0001BA817F049F980461BA816F0D5FB236854
:10C6F000032B08BF27602B889BB2434513D02649E4
:10C700001F480F221AF010FE04E025491C480E2293
:10C710001AF00AFE1B491C4A00230B701370337079
:10C7200024B0BDE8F0811F49154803221AF0FCFD32
:10C7300000231D4A1749ADF8043001A88DF80630D2
:10C7400016F0E0FD0028E5D0FFF7E0FCE2E7114934
:10C75000ADF85C7001230AAA17A88DF85E7016F078
:10C76000D1FD002890D017A817F03CFE8CE700BF41
:10C77000288A0020D879002068CA00204C6A060068
:10C78000E0CC0020247A0020498C00204C8C002032
:10C79000786B0600E8640020646C0600287A0020AC
:10C7A000746C0600606C06001875060000740600C4
:10C7B0002DE9F04F038E9BB00746044657F80CBB9B
:10C7C000ADF80420884600F1380903B30026C36A97
:10C7D000B2460BE02AF01AFFE36AC5F800A0208EEB
:10C7E000C5F804A00136B1B2884211D9B5B203EB45
:10C7F000C505696808460029EFD0DBF80030374AE4
:10C800005B689342E6D058469847E36AE5E7C36A17
:10C8100000204FF6FF719F422086A1860BD0DBF8E7
:10C8200000102E4D4E68AE424DD118462AF0EEFE55
:10C830000423E7626386A16826680023237161B13F
:10C84000264D33680A685B68A260AB4208462DD16A
:10C850002AF0DCFEA1680029F3D1002584F83C50C1
:10C860009DF805308DF8185049464FF0000203A896
:10C87000CDE904558DF821500394CDF81C8009941E
:10C88000FEF7E0FF054610B99DF82050A5B90498C1
:10C8900040B1039B11491A6813685B688B4216D13B
:10C8A0002AF0B4FE28461BB0BDE8F08F304698470A
:10C8B000A1680029C5D1D0E794F83C5015F00805CF
:10C8C00018BF0325E3E719465846B047B0E70146CD
:10C8D0001046984728461BB0BDE8F08FDD75020072
:10C8E0002DE9F04F002591B0B74B049516464FF453
:10C8F0007A7481462A4607A88A46B4490594009668
:10C90000ADF81C508DF81E50039316F003FD9DF8F2
:10C910001C404CB9AE4B1A68042A00F01081002468
:10C92000204611B0BDE8F08F40F2FF12A94907A8D8
:10C9300016F050FD074607A816F0AEFAA44B1A6889
:10C94000042A08BF1D60002FE9DDA34CA14A238EF5
:10C95000D4F800B00026D655F3B1E36ADFF8808240
:10C96000374609E02AF052FEE36A2F60218E6F609D
:10C970000136B2B2914210D9B5B203EBC505696870
:10C9800008460029F1D0DBF800305B684345E9D068
:10C9900058469847E36AE8E7E36A904E0022228609
:10C9A000B3424FF6FF72A2860CD0DBF800208C4D0C
:10C9B0005268AA4240F0218118462AF027FE04233B
:10C9C000E6626386A06826680023237160B1844D07
:10C9D000336802685B68A260AB4240F0A8802AF02E
:10C9E00015FEA0680028F3D10A238DF80930002332
:10C9F000029A7849784884F83C30FFF7D9FE10F065
:10CA0000FF0F8CD1B9F1000F89D0484636F047FCB2
:10CA100094F83C30202B82D1278F4FF6FF718F4244
:10CA20003FF47DAFD4F82CB0FB090BEBC30307F048
:10CA30007F075B6813EBC7073FF471AFB7F8068059
:10CA40000197012446463B4605468CB98E423FF489
:10CA500066AFF2090BEBC20206F07F06536813EBD8
:10CA6000C6033FF45CAF84F00104DE88002CEDD0F7
:10CA70001A79042A00F08680052A7FD0022A63D022
:10CA8000002DE3D12A464FF6FF75AE42019F3FF4D9
:10CA900046AFF3090BEBC30306F07F065B6803EBBD
:10CAA000C606002E3FF43BAF16469CB9A8453FF49E
:10CAB00036AF4FEAD8120BEBC20208F07F0753687B
:10CAC00013EBC7073FF42BAF84F00104B7F80680DF
:10CAD000002CEBD03B79042B00F08480052B6FD029
